:100000000C94B9070C94E1070C94E1070C94701C54
:100010000C94701C0C94701C0C94E1070C94E10778
:100020000C94E1070C94E1070C94E1070C94E107B0
:100030000C94E1070C94E1070C94E1070C94E107A0
:100040000C9426260C94E1070C940E290C9440295C
:100050000C94E1070C94E1070C94E1070C94E10780
:100060000C94E1070C94E107E020042106211421FF
:100070001A211E21292108000000BE922449123EA7
:10008000ABAAAA2ABECDCCCC4C3E00000080BEABB1
:10009000AAAAAA3E00000000BF000000803F0000A6
:1000A000000000084178D3BB4387D1133D190E3CB3
:1000B000C3BD4282AD2B3E68EC8276BED98FE1A9EA
:1000C0003E4C80EFFFBE01C4FF7F3F0000000000F8
:1000D00007634236B79BD8A71A39685618AEBAAB31
:1000E000558C1D3CB7CC5763BD6DEDFD753EF617C5
:1000F0007231BF000000803F0A52657374617274F0
:10010000696E672E2E2E0A00736563005761726D4B
:1001100075702E2E2E004272696768746E65737357
:1001200020203A00436F756C64206E6F7420636FFB
:100130006E6E65637420746F20576966693A20009B
:1001400057696669206D6F64756C65206E6F7420E9
:10015000776F726B696E670A00436F6E6E656374CA
:10016000696E6720746F20576966692E2E2E0A000B
:10017000446562756720496E666F2069733A200096
:100180000A436F6E66696775726174696F6E20727B
:10019000657365742E2E2E0A00446F6E650A004E3C
:1001A0006577204272696768746E65737320766143
:1001B0006C75653A20003E007361702000777369AA
:1001C0000072636F007070780070706D0070726FF5
:1001D00078790062726600627267007465737400F9
:1001E00075626976007562696B0074736B6579007E
:1001F0007265736574006465627567006C7400777E
:10020000696669005453205245533A200041542BEB
:1002100043495053454E443D0041542B43495053AC
:10022000544152543D22544350222C220035302E4A
:1002300032332E3132342E3636003138342E3130CE
:10024000362E3135332E31343900222C38300053DC
:1002500041503A200053656E64205341503A005596
:1002600042493A20005542493A005453204B4559DF
:100270003A00464F554E440A005374617274696ED9
:10028000672057696669204D6F64756C652E2E2E48
:100290000A004553502050726F78790A005749463A
:1002A00049204F4B210A0041542B43574155544F8D
:1002B000434F4E4E3D310A0041542B43574A415063
:1002C0005F4445463D0041540A0041542B43574D7D
:1002D0004F44455F4445463D310A007350503A0053
:1002E000686F753A0074656D3A00704D763A006338
:1002F0004D763A006469663A00634E543A00636D85
:10030000763A004E6F205769466920636F6E6669C2
:100310006775726174696F6E0A0053656E64204977
:100320006E74657276616C3A200056697369742048
:1003300027766169722D6D6F6E69746F722E636FAF
:100340006D2720666F7220636F6E666967757261D4
:1003500074696F6E2064657461696C730A0076411C
:10036000697220434F32204D6F6E69746F723A206C
:1003700076312E31310A000A0A4465470A0A00FF25
:10038000E0FFD1AFFF32FFD0FFFEFFE0FFD1AEFFB5
:10039000D0FFFEFFE0FFD11000FFFEFFD0FFE0FF27
:1003A000C1FFD1AED580A83FD300408D142000A15D
:1003B000C8DA1281CFD9F1DB402EA4A6AFFFD0FF5F
:1003C000FE00060A00FE07019E0337207FFE09FE9D
:1003D00008FE0000000600000107070602008080FA
:1003E0008080800080030303060105A0A0A005050E
:1003F0000506000250F850F8500509090600FF20D4
:1004000070A8A07028A8702005070706000078A82B
:10041000B05068A8900507070600006090A040A8AB
:100420009068010303060205808080030909060124
:10043000FF2040808080808040200309090601FF62
:100440008040202020202040800505050600022055
:10045000A870A8200505050600012020F82020022C
:1004600004040601FEC0C04080030101060103E050
:10047000020202060200C0C0050A0A0600FE0808C1
:10048000101020204040808005070706000070887B
:1004900098A8C8887005070706000020E0202020E3
:1004A00020F8050707060000708808102040F805AE
:1004B00007070600007088083008887005070706DF
:1004C000000010305090F81038050707060000F8BB
:1004D00080F0080888700507070600007080F08823
:1004E000888870050707060000F8080810202020FB
:1004F0000507070600007088887088887005070760
:1005000006000070888888780870020505060200D9
:10051000C0C000C0C00207070601FEC0C000C0C0C6
:10052000408004070706010010204080402010058D
:100530000303060002F800F80407070601008040E4
:100540002010204080050707060000708808102052
:1005500000200507070600007088B8A8B880780555
:10056000070706000020505088F88888050707060E
:100570000000F08888F08888F00507070600007002
:10058000888080808870050707060000F0888888CA
:100590008888F0050707060000F88080F08080F862
:1005A000050707060000F88080F0808080050707B7
:1005B000060000708880988888700507070600008C
:1005C000888888F8888888050707060000F82020B2
:1005D000202020F80507070600000808080888887A
:1005E000700507070600008890A0C0A09088050746
:1005F00007060000808080808080F80507070600DD
:100600000088D8A8A888888805070706000088C839
:10061000A898888888050707060000708888888859
:100620008870050707060000F08888F08080800544
:1006300008080600FF7088888888A87008050707E2
:10064000060000F08888F088888805070706000003
:1006500070888070088870050707060000F8202061
:1006600020202020050707060000888888888888C1
:10067000700507070600008888885050202005076D
:1006800007060000888888A8A8D8880507070600FC
:100690000088885020508888050707060000888851
:1006A0008850202020050707060000F80810204089
:1006B00080F80209090602FFC08080808080808067
:1006C000C0050A0A0601FE80804040202010100864
:1006D000080209090601FFC040404040404040C0B8
:1006E0000503030600042050880601010600FEFCF5
:1006F0000202020601068040050505060000788812
:100700008898680507070600008080F0888888F0D0
:10071000050505060000708880807805070706003B
:100720000008087888888878050505060000708824
:10073000F880780407070601003040E04040404060
:100740000507070600FE788888887808700507077F
:100750000600008080F0888888880307070601006B
:100760004000C0404040E00309090600FE20006050
:100770002020202020C0050707060000808090A0D0
:10078000E09088030707060100C04040404040E079
:10079000050505060000F0A8A8A8A805050506009F
:1007A00000B0C8888888050505060000708888881C
:1007B000700507070600FEF0888888F0808005072E
:1007C000070600FE78888888780808050505060071
:1007D00000B0C8808080050505060000788070089C
:1007E000F00407070601004040E0404040300505A6
:1007F00005060000888888986805050506000088B9
:1008000088505020050505060000A8A8A8A8500596
:10081000050506000088502050880507070600FEE1
:1008200088888888780870050505060000F810207B
:1008300040F8030B0B0601FE204040404080404042
:100840004040200109090602FF808080808080806E
:100850008080030B0B0601FE80404040402040405A
:1008600040408005020206000368B0000000060058
:1008700000004841FCF323000000002A3A0024FA5B
:100880002300141236200611070E001F0F801F9F31
:10089000800F9F00079E0003FC0081F810FEF7F018
:1008A000FFFFF0FFFFF0F9F9F001F80003FC00078B
:1008B0009E000F9F001F8F801F0F80070E001D1DC1
:1008C00074310A0000070000000700000007000064
:1008D00000070000000700000007000000070000FC
:1008E00000070000000700000007000000070000EC
:1008F0000007000000070000FFFFFFF8FFFFFFF800
:10090000FFFFFFF8000700000007000000070000DD
:1009100000070000000700000007000000070000BB
:1009200000070000000700000007000000070000AB
:1009300000070000000700000B0C180F02FA0FE080
:100940000FC01FC01F801F803F003F003E007E0081
:100950007C007C00F8000D060C110209FFF8FFF87E
:10096000FFF8FFF8FFF8FFF80706060F0500FEFE88
:10097000FEFEFEFE1127751502FD000F80000F0020
:10098000001F00001F00001E00003E00003E00008F
:100990003E00007C00007C00007C0000780000F835
:1009A0000000F80000F00001F00001F00001F0008C
:1009B00003E00003E00003E00003C00007C00007FD
:1009C000C0000780000F80000F80000F80001F0014
:1009D000001F00001F00003E00003E00003E00001F
:1009E0003C00007C00007C00007C0000F800001946
:1009F000238C1C020101FF800007FFE0000FFFF0C5
:100A0000001FFFF8001FFFFC003F81FC003F00FEBD
:100A1000007F007E007E007E007E003F007E003F63
:100A200000FE003F00FE003F00FE003F00FE003FD2
:100A300080FE003F80FE003F80FE003F80FE003FC2
:100A400080FE003F80FE003F80FE003F00FE003F32
:100A500000FE003F007E003F007E003F007E007FE2
:100A6000007F007E003F00FE003F81FC001FFFFC76
:100A7000001FFFF8000FFFF00007FFE00001FF80FC
:100A8000000F23461C050000FE01FE07FE0FFE3F7F
:100A9000FEFFFEFFFEFEFEFCFEF0FEC0FE00FE00BE
:100AA000FE00FE00FE00FE00FE00FE00FE00FE0056
:100AB000FE00FE00FE00FE00FE00FE00FE00FE0046
:100AC000FE00FE00FE00FE00FE00FE00FE19238C6C
:100AD0001C020100FFE00003FFF80007FFFC000F0D
:100AE000FFFE001FFFFF003FC0FF003F803F803F31
:100AF000003F807F003F8000003F8000003F80007B
:100B0000003F8000007F0000007F000000FF000029
:100B100001FE000003FC000007FC00000FF80000CD
:100B20001FF000003FE000007FC00001FF00000355
:100B3000FE000007FC00000FF000003FE000007F17
:100B4000800000FF000000FFFFFF80FFFFFF80FF2D
:100B5000FFFF80FFFFFF80FFFFFF80FFFFFF801888
:100B600023691C020103FF800FFFE01FFFF03FFF1E
:100B7000F87FFFFC7F03FCFE01FCFE00FCFE00FE94
:100B80000000FE0000FE0001FC0001FC000FF80068
:100B9000FFF000FFC000FF8000FFE000FFF800034F
:100BA000FC0000FE0000FE00007E00007F00007FD1
:100BB000FE007FFE007FFE00FEFF00FE7F01FC7F47
:100BC000FFFC3FFFF81FFFF00FFFE003FF801A2339
:100BD0008C1C01000007FC00000FFC00001FFC0043
:100BE000001FFC00003FFC00003FFC00007FFC00F9
:100BF00000FDFC0000FDFC0001F9FC0001F9FC0017
:100C000003F1FC0007F1FC0007E1FC000FC1FC0050
:100C10000FC1FC001F81FC003F81FC003F01FC0074
:100C20007E01FC00FE01FC00FC01FC00FFFFFFC098
:100C3000FFFFFFC0FFFFFFC0FFFFFFC0FFFFFFC0C0
:100C4000FFFFFFC00001FC000001FC000001FC00F0
:100C50000001FC000001FC000001FC000001FC00A0
:100C60001823691C02007FFFFC7FFFFC7FFFFC7FD5
:100C7000FFFC7FFFFC7FFFFC7F00007F00007F0008
:100C8000007F00007F00007F00007F1FC07F7FF09B
:100C90007FFFF87FFFFC7FFFFC7FC1FE7F00FE7FB0
:100CA000007F7E007F00007F00007F00007F00004B
:100CB0007F00007FFE007FFE00FEFE00FEFF01FCC5
:100CC0007FFFFC7FFFF83FFFF00FFFC007FF801999
:100CD000238C1C020100FFC00003FFF00007FFF897
:100CE000000FFFFC001FFFFE001FE0FE003FC07F63
:100CF000003F807F007F0000007F0000007F000039
:100D0000007E000000FE1FC000FE7FF000FEFFF826
:100D100000FEFFFC00FFFFFE00FFE1FE00FFC0FF42
:100D200000FF807F00FF003F00FF003F80FF003F8B
:100D300080FF003F80FF003F807F003F007F003F3B
:100D4000007F807F007F807F003FC0FE001FFFFC90
:100D5000001FFFFC000FFFF80007FFE00001FF800D
:100D6000001823691C0200FFFFFFFFFFFFFFFFFFCA
:100D7000FFFFFFFFFFFFFFFFFF00007F00007F007E
:100D800000FE0000FE0001FE0001FC0003FC000369
:100D9000F80007F80007F0000FF0000FF0001FE068
:100DA000001FE0003FC0003FC0003F80007F800088
:100DB0007F0000FF0000FF0001FE0001FE0003FCB9
:100DC0000003FC0007F80007F8000FF8000FF00020
:100DD00019238C1C020103FFC0000FFFF0001FFF4E
:100DE000FC003FFFFE003FFFFE007FC1FF007F8051
:100DF000FF007F007F007F007F007F007F007F007B
:100E00007F007F007F003F80FE003FC1FC000FFF9E
:100E1000F80007FFE00001FFC0000FFFF0001FFF18
:100E2000F8003FC1FE007F80FE007F007F00FE00D3
:100E30003F00FE003F00FE003F80FE003F80FE00BE
:100E40003F80FF007F80FF007F007F80FF007FFFEB
:100E5000FF003FFFFE003FFFFC000FFFF80003FF15
:100E6000E00019238C1C020101FFC00007FFE00015
:100E70000FFFF8001FFFFC003FFFFC007F81FE001A
:100E80007F00FE007E00FF00FE007F00FE007F006E
:100E9000FE007F80FE007F80FE007F80FE007F805E
:100EA000FE00FF807F00FF807F83FF803FFFFF8089
:100EB0003FFFBF801FFFBF800FFF3F8001F83F80D3
:100EC00000003F0000007F0000007F0000007F0066
:100ED0007F00FE007F00FE007F01FE003F83FC00DC
:100EE0001FFFFC001FFFF8000FFFF00007FFE000EE
:100EF00001FF8000071818100700FEFEFEFEFEFE30
:100F0000000000000000000000000000FEFEFEFEE9
:100F1000FEFE0000000800020100000304070000BC
:100F200000000000000001020408102040800102BF
:100F3000040810200102040810200404040404041E
:100F4000040402020202020203030303030300007B
:100F500000002300260029000000000025002800D2
:100F60002B0000000000240027002A007D147029B7
:100F7000101511241FBECFEFD8E0DEBFCDBF12E0A9
:100F8000A0E0B1E0E6E5FEE602C005900D92A437D0
:100F9000B107D9F725E0A4E7B2E001C01D92AF3157
:100FA000B207E1F71FE0C0E7DFE004C02297FE01CF
:100FB0000E948A31CC36D107C9F70E94752D0C9456
:100FC0001E370C940000CF93DF93EC01262F4CAD1D
:100FD0006BAD04960E9414232BAD992787FD909545
:100FE000820F911D8BAF81E090E0DF91CF9108954A
:100FF000DC01ED91FC910190F081E02D0994FC0160
:10100000808191810C942B36EF92FF920F931F9366
:10101000CF93DF9300D0CDB7DEB77C018B019A83ED
:101020008983CE0101960E94FF07F8018083FFEFBC
:10103000EF1AFF0AFA82E982CE0101960E94FF07A9
:10104000F8018183C8010F900F90DF91CF911F911C
:101050000F91FF90EF900895CF92DF92EF92FF9261
:101060000F931F93CF93DF9300D000D0CDB7DEB79F
:101070008C017B016C0184E0C80ED11C1A830983AA
:10108000CE0101966B837C830E94FF07F701819359
:101090007F010F5F1F4F6B817C810C151D0571F760
:1010A000CB010F900F900F900F90DF91CF911F9178
:1010B0000F91FF90EF90DF90CF900895CF92DF9245
:1010C000EF92FF920F931F93CF93DF9300D000D046
:1010D000CDB7DEB78C017B016C018EE1C80ED11C4F
:1010E0001A830983CE0101966B837C830E94FF07DC
:1010F000F70181937F010F5F1F4F6B817C810C157E
:101100001D0571F7CB010F900F900F900F90DF919D
:10111000CF911F910F91FF90EF90DF90CF900895A6
:101120000F931F93CF93DF931F92CDB7DEB78C0140
:1011300069830E94FF076981681729F0F80180819F
:1011400091810E943336C8010F90DF91CF911F919A
:101150000F910895BF92CF92DF92EF92FF920F937B
:101160001F93CF93DF9300D01F92CDB7DEB78C01D2
:10117000B62EE62EF72E6C0184E0C80ED11CF701C6
:1011800061917F011A830983CE0101967B830E94BE
:1011900090080F5F1F4F7B810C151D0581F78B2D6C
:1011A000972F0F900F900F90DF91CF911F910F917C
:1011B000FF90EF90DF90CF90BF9008950F931F9313
:1011C000CF93DF9300D0CDB7DEB78B01FB016081F9
:1011D0009A838983CE0101960E949008C8010F90DE
:1011E0000F90DF91CF911F910F910895EF92FF9291
:1011F0000F931F93CF93DF9300D0CDB7DEB77C0161
:101200008B01FB0160819A838983CE0101960E9444
:101210009008F8016181FFEFEF1AFF0AFA82E98274
:10122000CE0101960E949008C8010F900F90DF91A7
:10123000CF911F910F91FF90EF9008958091B0038F
:10124000811105C080EA9BEBADE0B0E004C088E905
:101250009AE3A0E0B0E080932B0390932C03A0933B
:101260002D03B0932E036BEA73E084E090E00E94BC
:101270002C086091AB037091AC038091AD03909109
:10128000AE039B01AC010E943730882341F01092DD
:10129000AB031092AC031092AD031092AE0367EA59
:1012A00073E088E090E00E942C086091A7037091A1
:1012B000A8038091A9039091AA039B01AC010E940D
:1012C0003730882341F01092A7031092A8031092A0
:1012D000A9031092AA0308956BEA73E084E090E0FA
:1012E0000C94AA08CF92DF92EF92FF920F931F9374
:1012F000CF93DF93C090A703D090A803E090A903F9
:10130000F090AA030091AB031091AC03D091AD0310
:10131000C091AE0398014D2F5C2FB601C7010E940A
:10132000392F18161CF48601DE2DCF2DB8018D2F14
:101330009C2FDF91CF911F910F91FF90EF90DF9045
:10134000CF900895FF920F931F93CF93DF9300D018
:10135000CDB7DEB70CE010E0F12C1A830983CE0183
:1013600001960E94FF079FEF980F9E3F18F4F81612
:1013700008F4F82E0F5F1F4F0031110571F78F2D04
:101380000F900F90DF91CF911F910F91FF900895D3
:10139000FF920F931F93CF93DF9300D0CDB7DEB7AB
:1013A0000CE010E0F12C1A830983CE0101960E9413
:1013B000FF079FEF980F9E3F18F4F81608F4F82ED9
:1013C0000F5F1F4F0031110571F72F2D30E02F5F98
:1013D0003F4F3A832983BE016F5F7F4F8DE090E0DE
:1013E0000E94F60881E08F0D0F900F90DF91CF9152
:1013F0001F910F91FF9008950F931F93CF93DF9349
:101400001F92CDB7DEB70E946C090E94C809909167
:10141000150189132CC00CE010E01982BE016F5F2A
:101420007F4FC8010E94DE080F5F1F4F003111057A
:10143000A1F76BEA73E088E090E00E94AA0880912F
:10144000AB039091AC03A091AD03B091AE03809338
:10145000A7039093A803A093A903B093AA031092A3
:10146000AB031092AC031092AD031092AE030F9039
:10147000DF91CF911F910F910895CF92DF92EF925C
:10148000FF9286E993E00E94701B6B017C016EEF76
:1014900072E08EE794E00E94F12922E030E0B7018B
:1014A000A6018EE794E00E94C72B8EE794E00E948D
:1014B0001D2A85E893E00E94701B6B017C0169EF97
:1014C00072E08EE794E00E94F12922E030E0B7015B
:1014D000A6018EE794E00E94C72B8EE794E00E945D
:1014E0001D2A85E893E00E94701B6B017C0186E950
:1014F00093E00E94701B9B01AC01C701B6010E94E2
:10150000852D6B017C0164EF72E08EE794E00E9410
:10151000F12922E030E0B701A6018EE794E00E94B5
:10152000C72B8EE794E00E941D2AC090AB03D09099
:10153000AC03E090AD03F090AE036FEE72E08EE787
:1015400094E00E94F12922E030E0B701A6018EE785
:1015500094E00E94C72B8EE794E00E941D2AC09061
:10156000A703D090A803E090A903F090AA036AEE25
:1015700072E08EE794E00E94F12922E030E0B701AA
:10158000A6018EE794E00E94C72B8EE794E00E94AC
:101590001D2A84E793E00E94701B6B017C0165EEBD
:1015A00072E08EE794E00E94F12922E030E0B7017A
:1015B000A6018EE794E00E94C72B8EE794E00E947C
:1015C0001D2A0E94A209F82E60EE72E08EE794E0D8
:1015D0000E94F1294AE050E06F2D8EE794E00E94CE
:1015E000CF2A8EE794E00E941D2AE0902F03F0900E
:1015F00030036BED72E08EE794E00E94F1294AE03F
:1016000050E0B7018EE794E00E94D62A8EE794E07E
:10161000FF90EF90DF90CF900C941D2A40E855E2A8
:1016200060E070E083E393E00E94731D61E082E07C
:101630000E945A2761E082E00C94932783E393E0B1
:101640000E94011E61E082E00E945A2760E082E071
:101650000C9493270E941E0B68EE73E080E090E0EC
:101660000E949F260C940E0BCF93DF9300D0CDB732
:10167000DEB78AE190E09A838983CE0101960E94C9
:10168000FF0791E0813009F090E0892F0F900F90D3
:10169000DF91CF9108956F927F928F929F92AF9238
:1016A000BF92CF92DF92EF92FF920F931F93CF934F
:1016B000DF93CDB7DEB7C654D1090FB6F894DEBFBD
:1016C0000FBECDBF5C01762E672ECE0101967C0148
:1016D0008CE3C82ED12C9E2C8F2C8E01075D1F4FC2
:1016E000DAA6C9A6C8010E94FF07F70181937F010E
:1016F000FFEFCF1ADF0A84E6C816D10489F7B801D4
:1017000084E690E00E945E0829812F5F223008F471
:1017100043C08EE794E00E941D2A65E672E08EE7E2
:1017200094E00E94F129692D782D8EE794E00E94C3
:10173000142A6BE271E08EE794E00E94142AB8014B
:101740008EE794E00E94142A8EE794E00E941D2AFE
:101750006F927F921F930F938F929F922DE231E0B1
:101760003F932F93BF92AF920E9437346FE572E0A0
:101770008EE794E00E94F129B5018EE794E00E9483
:10178000142A8EE794E00E941D2A0FB6F894DEBF5B
:101790000FBECDBF81E001C080E0CA5BDF4F0FB656
:1017A000F894DEBF0FBECDBFDF91CF911F910F9197
:1017B000FF90EF90DF90CF90BF90AF909F908F9071
:1017C0007F906F900895BF92CF92DF92EF92FF9239
:1017D0000F931F93CF93DF9300D0CDB7DEB77C017B
:1017E000D62EC72E04EB10E01A830983CE01019692
:1017F0000E94FF07B82E8EE794E00E941D2A65E53F
:1018000072E08EE794E00E94F1294AE050E06B2DEF
:101810008EE794E00E94CF2A8EE794E00E941D2A72
:101820001A830983CE0101960E94FF07813009F5D2
:10183000CF92DF9221E631E03F932F93FF92EF9218
:101840000E9437346FE472E08EE794E00E94F12941
:10185000B7018EE794E00E94142A8EE794E00E947C
:101860001D2A0F900F900F900F900F900F9081E016
:1018700001C080E00F900F90DF91CF911F910F91E9
:10188000FF90EF90DF90CF90BF900895EF92FF927E
:101890000F931F93CF93DF9300D0CDB7DEB77B01BB
:1018A0008C01E81AF90AC701800F911FF8012191F4
:1018B0008F01222339F02983BE016F5F7F4F0E9481
:1018C000DE08F1CF1A821982BE016F5F7F4F0E943E
:1018D000F6080F900F90DF91CF911F910F91FF901D
:1018E000EF900895FC01019620812032D9F3CF01B9
:1018F0000895CF93DF9300D0CDB7DEB70E94A03319
:101900009A838983BE016F5F7F4F85EB90E00E94D1
:10191000F6080F900F90DF91CF910895CF93DF934A
:1019200000D000D0CDB7DEB719821A821B821C828C
:10193000BE016F5F7F4F84E090E00E94AA08198289
:101940001A821B821C82BE016F5F7F4F88E090E08D
:101950000E94AA081092AB031092AC031092AD0340
:101960001092AE031092A7031092A8031092A9033D
:101970001092AA030F900F900F900F90DF91CF91CC
:101980000895CF93DF930E94A033EC018F3F910520
:101990004CF48739910514F0C6E9D0E0D7FF02C0B6
:1019A000C0E0D0E0C09332036FE971E08EE794E0CD
:1019B0000E94F1294AE050E06C2F8EE794E00E94EB
:1019C000CF2A8EE794E00E941D2A609132038AE3B9
:1019D00090E00E94333680E090E0DF91CF9108954F
:1019E000DF92EF92FF920F931F93CF93DF9300D07C
:1019F000CDB7DEB77C0100E110E0D12CBE016F5FF6
:101A00007F4FC8010E94040829813A81E216F3063B
:101A100044F0D3940E5F1F4F85E0D812EFCF85E0DE
:101A200001C08D2D0F900F90DF91CF911F910F91DD
:101A3000FF90EF90DF900895CF92DF92EF92FF92A8
:101A40000F931F93CF93DF93CDB7DEB728970FB6D1
:101A5000F894DEBF0FBECDBF8C016CE671E0CE0105
:101A600001960E947E2CF8018081843629F48DE64F
:101A700091E00E941C0D35C0D12C7801F8016081E5
:101A8000262F332727FD3095205331092A30310581
:101A900028F4CE0101960E94232D1AC089819A81D3
:101AA0000E94A03398878F83CC24C394CD0C8D2DB6
:101AB00090E00896BE01695F7F4F880F991F0E94D2
:101AC000F6086CE671E0CE0101960E94B52CDC2C84
:101AD0000F5F1F4FF7018081882319F0F4E0FD1597
:101AE00060F6CE0101960E94102C28960FB6F8944D
:101AF000DEBF0FBECDBFDF91CF911F910F91FF9041
:101B0000EF90DF90CF900895CF93DF9300D0CDB7C3
:101B1000DEB7BE016F5F7F4F80E190E00E94040856
:101B200089819A81019621F48DE691E00E941C0D35
:101B30000F900F90DF91CF9108950F931F93CF9344
:101B4000DF930E94840D8EEC92E00E94611E06EBF2
:101B500012E0C0E0D0E0F801219131914191519122
:101B60008F01BE018EEC92E00E94311F2196C6309B
:101B7000D10589F764E18EEC92E00E94821F8EEC21
:101B800092E0DF91CF911F910F910C946E1ECF9335
:101B9000C0911A0166E171E08EE794E00E94F1299C
:101BA0004AE050E06C2F8EE794E00E94CF2A8EE747
:101BB00094E0CF910C941D2A0E943D0A0E94C70D0B
:101BC0008EE794E00C941D2ACF93C091310381E0FD
:101BD000C827C09331038EE794E00E941D2A60E776
:101BE00071E08EE794E00E94F1296C2F70E04AE0EA
:101BF00050E08EE794E00E94BA2A8EE794E00E94BB
:101C00001D2A8091310381110E94DC0D80E090E05B
:101C1000CF910895CF93DF9300D0CDB7DEB787EB98
:101C200090E09A838983CE0101960E94FF078F3F3F
:101C300069F0682F70E080E090E00E94892E20E03B
:101C400030E040E251E40E94EE2D04C060E070E01C
:101C500080E89FE30F900F90DF91CF910895CF928E
:101C6000DF92EF92FF92CF93DF9380912F039091B9
:101C70003003009781F10E94F00CD82F84E0D89FA8
:101C8000F0011124EA54FD4FC080D180E280F3803E
:101C9000C0E06C2F70E0A70196018EEC92E00E94EC
:101CA000311FCF5FDC17A8F7C63058F46C2F70E0F7
:101CB00020E030E0A9018EEC92E00E94311FCF5F5E
:101CC000F3CF8EEC92E0DF91CF91FF90EF90DF9019
:101CD000CF900C946E1EDF91CF91FF90EF90DF902C
:101CE000CF9008954F925F926F927F928F929F92C2
:101CF000AF92BF92CF92DF92EF92FF920F931F931A
:101D0000CF93DF9361E088E792E00E94FF24809107
:101D1000B102811107C081E08093B10288E792E0AF
:101D20000E949E246FEF88E792E00E94E824809151
:101D3000B102811107C081E08093B10288E792E08F
:101D40000E949E2488E792E00E94D424CFE2D7E04C
:101D500006E438EEC32E33E0D32EE12CF12C14E64A
:101D600080911A01813019F461EC73E002C061E7DF
:101D700078E088E792E00E94822360912F037091BF
:101D80003003683E23E0720710F481E201C085E071
:101D90008093AF02C093B0026115710531F04AE043
:101DA00050E084E792E00E94D62A61EC73E088E775
:101DB00092E00E9482231092AF02D093B002609111
:101DC00018017091190184E792E00E94142A809111
:101DD000AF03811117C00093AF02D093B0026CE043
:101DE00071E084E792E00E94F12980912F039091A5
:101DF0003003892B39F40E947026613A7F408105B7
:101E00009105B8F488E792E00E94D9248111A8CF07
:101E1000DF91CF911F910F91FF90EF90DF90CF90C6
:101E2000BF90AF909F908F907F906F905F904F90FA
:101E3000089540902B0350902C0360902D037090D8
:101E40002E030E9470264B015C0161E778E088E771
:101E500092E00E9482231092AF02C093B002C301AD
:101E6000B201681979098A099B09A70196010E94A4
:101E70004731BA01A9012AE030E084E792E00E94EC
:101E8000C22A61EC73E088E792E00E9482231093FB
:101E9000AF02C093B00268E071E084E792E00E9474
:101EA000F129B0CFCF93DF93EC010E94340B88234C
:101EB00041F0D0931901C0931801DF91CF910C9498
:101EC000720EDF91CF9108950F931F93CF93DF93FD
:101ED00000D000D0CDB7DEB726E040E855E260E0A4
:101EE00070E08EE794E00E94AC288091B0038823D4
:101EF00031F067E773E08EE794E00E94F1296EE528
:101F000073E08EE794E00E94F1296AE273E08EE7C5
:101F100094E00E94F129BE016D5F7F4F85EB90E058
:101F20000E9404080B811C816AE173E08EE794E053
:101F30000E94F1294AE050E0B8018EE794E00E9447
:101F4000BA2A8EE794E00E941D2A0E94340B811168
:101F500006C063E073E08EE794E00E94F1298AE313
:101F600090E09A838983CE0101960E94FF078093B7
:101F700032030E949D0D0E941E0B0E941E098CE6DA
:101F800091E00E94520F0F900F900F900F90DF91F1
:101F9000CF911F910F910895CF93DF9300D000D080
:101FA00000D0CDB7DEB7BC01CE0101960E947E2CD9
:101FB000CE0101960E94692D7093300360932F0328
:101FC000CE0101960E94102C0E942F0E0E94720ECC
:101FD00026960FB6F894DEBF0FBECDBFDF91CF912E
:101FE000089520E030E04EE852E40E94EE2D23E018
:101FF00032ED42E250E40E94862D9B01AC0160E08C
:1020000070E080E291E40E94EB2F0E94562ECB01FB
:102010000895CF92DF92EF92FF920E9472096B01B6
:102020007C0186E993E00E94701B9B01AC01C70113
:10203000B6010E94852D0E94F10F9093300380938A
:102040002F03FF90EF90DF90CF900895BC01882779
:1020500077FD8095982F0E94892E0E943D2F23E0C6
:1020600032ED42E250E40E94852D20E030E04EE85F
:1020700052E40E94882F08958F929F92AF92BF9250
:10208000CF92DF92EF92FF9286E993E00E94701B5D
:102090006B017C0180911601909117010E9426101E
:1020A0009B01AC01C701B6010E94862D6B017C012A
:1020B0002091AB033091AC034091AD035091AE033E
:1020C0000E94392F18169CF58090230390902403CA
:1020D000A0902503B090260381149104A104B104BB
:1020E00059F40E9470266093230370932403809315
:1020F0002503909326031BC00E9470266819790956
:102100008A099B0961367A4E8105910580F0C0925B
:10211000AB03D092AC03E092AD03F092AE03109209
:102120002303109224031092250310922603FF909C
:10213000EF90DF90CF90BF90AF909F908F900895D9
:102140000F931F93CF93DF9300D000D0CDB7DEB7AE
:102150008C0186E993E00E94701B9B01AC01C801D1
:1021600029833A834B835C830E94A0330E9426100C
:1021700029813A814B815C810E94862D6093AB035B
:102180007093AC038093AD039093AE030F900F90C8
:102190000F900F90DF91CF911F910F910C946C09CC
:1021A000CF92DF92EF92FF926B017C0184E793E084
:1021B0000E94701B20E030E048E051E40E94392F7B
:1021C0001816ACF484E793E00E94701B9B01AC01ED
:1021D00060E070E088E192E40E94852D2AE939E907
:1021E00049E15FE30E94882F9B01AC0104C02AE90A
:1021F00039E94DE851E4C701B6010E94862DFF90F0
:10220000EF90DF90CF9008958F929F92AF92BF9200
:10221000CF92DF92EF92FF926B017C0120E030E0E1
:1022200040E251E40E94882F4B015C01A701960116
:102230006DEC7CEC84EA90E40E94852D9B01AC015E
:10224000C501B4010E94EE2D20E030E04AE754E4DD
:102250000E94882F20E030E44CE156E40E94EE2DED
:102260000E94482F20E030E443E555E40E94EE2D23
:102270002FE03FEC4BE55BE30E94862D9B01AC0118
:1022800060E070E080E89FE30E94EE2D23E333E9F5
:1022900048E853E40E94852DFF90EF90DF90CF90A7
:1022A000BF90AF909F908F9008954F925F926F92E2
:1022B0007F928F929F92AF92BF92CF92DF92EF92D6
:1022C000FF92CF93DF93D82FC62F262F30E0A8EEB2
:1022D000B3E00E948E312B013C01812C912C5401E2
:1022E000C12CD12C760184149504A604B70494F46F
:1022F0008D2F0E941427AC01662757FD6095762F1D
:10230000C40ED51EE61EF71E8FEF881A980AA80A7B
:10231000B80AE9CFC701B6010E94872E6B017C0184
:1023200088EE93E0C89FB001C99F700D11248827E3
:1023300077FD8095982F0E94892E9B01AC01C701E3
:10234000B6010E94EE2DDF91CF91FF90EF90DF90CC
:10235000CF90BF90AF909F908F907F906F905F9045
:102360004F900895CF92DF92EF92FF926AE081E161
:1023700090E00E9455119B01AC0160E070EC8FE78A
:1023800094E40E94852D2DEC3CEC44EA50E40E943C
:10239000882F20E030E040E85AE30E94882F0E9416
:1023A0000411AB01BC0184E793E00E94F31A6AE0D8
:1023B00080E190E00E9455112DEC3CEC44EA50E4A1
:1023C0000E94882F20E030E040E85AE30E94882FE6
:1023D00026E636E646EB50E40E94EE2D20E030E0A3
:1023E0004AE754E40E94882F6B017C010E94D010C0
:1023F000AB01BC0186E993E00E94F31AB701A60184
:1024000085E893E0FF90EF90DF90CF900C94F31A63
:10241000CF92DF92EF92FF920E94B2118091AF03B0
:1024200081110FC00E947026C0902B03D0902C0306
:10243000E0902D03F0902E03C616D706E806F906A5
:1024400058F40E943C108091AF03811105C00E9496
:102450006C0981E08093AF030E940910C0902703AC
:10246000D0902803E0902903F0902A030E94702660
:102470006C197D098E099F0961387E4E864391054E
:1024800080F00E9470266093270370932803809346
:10249000290390932A03FF90EF90DF90CF900C9444
:1024A000FC09FF90EF90DF90CF9008956F927F929C
:1024B000AF92BF92CF92DF92EF92FF920F931F9352
:1024C000CF93DF9300D0CDB7DEB7809132038F3F3B
:1024D00009F05DC061E08EE090E00E945511AB0113
:1024E000BC0183E693E00E94F31A8BE390E09A83A9
:1024F0008983CE0101960E94FF07813029F460E9AB
:10250000662E7724739404C058EE652E53E0752E22
:1025100083E693E00E94701B6B017C010E940A0E0F
:102520009B01AC01C701B6010E94882F0E94562E64
:102530006B3071053CF4662319F060931A0129C0D1
:1025400081E025C073010027F7FC0095102F661667
:1025500077060CF4B301882777FD8095982F20919A
:102560000A011F921F921F922F934BE0A42EB12CB1
:10257000C12CD12C2BE030E040E050E00E94C92B70
:1025800060931A010F900F900F900F9002C08093EC
:102590001A0160911A018EEC92E00E94821F8EEC6B
:1025A00092E00F900F90DF91CF911F910F91FF90CC
:1025B000EF90DF90CF90BF90AF907F906F900C9492
:1025C0006E1ECF92DF92EF92FF92C090B202D09037
:1025D000B302E090B402F090B5020E9470266C192C
:1025E0007D098E099F09693873418105910590F035
:1025F0000E9470266093B2027093B3028093B4027B
:102600009093B5020E942F0EFF90EF90DF90CF9035
:102610000C945612FF90EF90DF90CF9008950E9497
:102620001C0D0E94E11269E971E08EE794E00C94C0
:10263000F12968EF70E08EE794E00E94F1296CE2E6
:1026400071E080E090E00E949F260C9400000895C5
:10265000CF93DF93C0E0D0E06FEFCE010E9433361E
:102660002196CC3281E0D807B9F7DF91CF91089558
:102670000E94281360E871E08EE794E00E94F1293F
:102680000E94191380E090E00895CF92DF92EF92BC
:10269000FF926B017C010E94562E882777FD809562
:1026A000982F0E94892E9B01AC01C701B6010E94A0
:1026B000852D20E030E040E251E40E94882F0E9406
:1026C000562ECB01FF90EF90DF90CF9008952F9280
:1026D0003F924F925F926F927F928F929F92AF92B2
:1026E000BF92CF92DF92EF92FF920F931F93CF93FF
:1026F000DF93CDB7DEB7E4970FB6F894DEBF0FBE19
:10270000CDBF89AB9AAB8B01BE016F5F7F4F8CE869
:1027100090E00E945E0889818F5F823008F4D3C008
:102720008EE794E00E941D2A6AE672E08EE794E04C
:102730000E94F129BE016F5F7F4F8EE794E00E94F7
:10274000142A8EE794E00E941D2A80912103909123
:102750002203009761F0B801681B790B882777FD89
:102760008095982F0E94892EAB01BC0103C040E0E8
:1027700050E0BA0182E593E00E94F31A83E693E009
:102780000E94701B6F8F78A389A39AA382E593E0C0
:102790000E94701B0E9445131C0182E593E00E9479
:1027A000701B2B013C0184E793E00E94701B0E9488
:1027B00045138BA79CA784E793E00E94701B6BA333
:1027C0007CA38DA39EA3C090AB03D090AC03E090FC
:1027D000AD03F090AE03C701B6010E9445138DA76B
:1027E0009EA786E993E00E94701B0E9445138FA765
:1027F00098AB86E993E00E94701B4B015C0185E871
:1028000093E00E94701B0E9445139C0185E893E0B1
:102810002BAB3CAB0E94701B6FA378A789A79AA72C
:102820006F8D78A189A19AA10E94562E7F936F93F4
:102830003F922F92C301B2010E94562E7F936F9355
:102840008CA58F939BA59F936BA17CA18DA19EA12D
:102850000E94562E7F936F938EA58F939DA59F9375
:10286000C701B6010E94562E7F936F9388A98F935C
:102870009FA59F93C501B4010E94562E7F936F932D
:102880003CA93F932BA92F936FA178A589A59AA561
:102890000E94562E7F936F931F930F93CE01019644
:1028A0009F938F9386E891E09F938F938AA98F934C
:1028B00099A99F930E9437340FB6F894DEBF0FBEDC
:1028C000CDBF81E001C080E0E4960FB6F894DEBF92
:1028D0000FBECDBFDF91CF911F910F91FF90EF9071
:1028E000DF90CF90BF90AF909F908F907F906F9030
:1028F0005F904F903F902F9008950F93CF93DF9369
:1029000064E086E993E00E94DF1A64E085E893E0E2
:102910000E94DF1A64E084E793E00E94DF1A64E01B
:1029200083E693E00E94DF1A64E082E593E00E9470
:10293000DF1A20E04AE069E083E393E00E94431D50
:1029400023E04FE066E070E08EEC92E00E94031E10
:1029500040E06FEF80E00E94791F6093B6027093B1
:10296000B7028093B8029093B90240E06FEF84EB16
:102970000E94791F6093BA027093BB028093BC02DD
:102980009093BD0240E06FEF8FEF0E94791F60933C
:10299000BE027093BF028093C0029093C10240E0D8
:1029A00068EC8FEF0E94791F6093C2027093C3029C
:1029B0008093C4029093C50240E068E78FEF0E94C5
:1029C000791F6093C6027093C7028093C8029093E8
:1029D000C90240E060E08FEF0E94791F6093CA0255
:1029E0007093CB028093CC029093CD021092770229
:1029F00010927602C4E7D2E087E392E0998388835D
:102A000008E027E046E06CE171E0CE010E94C31FC0
:102A10008FE392E099838883DF91CF910F9108959E
:102A20008EEC92E00E94521E83E393E00E94EA1C27
:102A300082E593E00E94B11A83E693E00E94B11A06
:102A400084E793E00E94B11A85E893E00E94B11AEE
:102A500086E993E00C94B11A8F929F92BF92CF9225
:102A6000DF92EF92FF920F931F93CF93DF9300D0EB
:102A700000D0CDB7DEB7182F092FB62E2C8339839F
:102A80004A835B830E9470266B017C012C81398113
:102A90004A815B81C20ED31EE41EF51E812E902E4C
:102AA0000E9470266C157D058E059F0540F583E319
:102AB00093E00E94191C892B99F383E393E00E9411
:102AC0008B1B282FBB2081F0843124F48A3011F035
:102AD0008D3051F4622F772767FD70958EE794E073
:102AE0002C830E94F8072C81F40180812813D6CF13
:102AF0008181882331F0FFEF8F1A9F0AD1CF80E0C8
:102B000001C081E00F900F900F900F90DF91CF9157
:102B10001F910F91FF90EF90DF90CF90BF909F900B
:102B20008F90089569E772E08EE794E00E94F129A2
:102B30000E942A0B28EB3BE040E050E060911B0133
:102B400080EF91E00E942C15682F70E04AE050E081
:102B50008EE794E00E94BA2A8EE794E00E941D2A34
:102B600020E335E740E050E061E086EF91E00E942D
:102B70002C15811104C00E941E0B80E0089562E7AD
:102B800072E08EE794E00E94F12981E008958F922F
:102B90009F92AF92BF92CF92DF92EF92FF920F93EC
:102BA0001F93CF93DF93CDB7DEB7C659D1090FB6C8
:102BB000F894DEBF0FBECDBF7B016130710541F4DB
:102BC000BC01CE0101960E94671381110FC00BC09A
:102BD0006230710509F07EC0BC01CE0101960E94F1
:102BE0004B0B811181C08FEF9FEF82C077E0A72E42
:102BF000B12CC12CD12CCE0101964C0191E0E916EB
:102C0000F10419F40AE312E002C00DE212E069E1F6
:102C100072E083E393E00E94F129B80183E393E03B
:102C20000E94F1296AE472E083E393E00E94F129B3
:102C300083E393E00E941D2A20EA3FE040E050E059
:102C400061E082E191E00E942C15811107C0EFEF55
:102C5000CE1ADE0ACA14DB048CF235C0F4010190EE
:102C60000020E9F78F0101501109081919096DE0D9
:102C700072E083E393E00E94F1294AE050E0B8015A
:102C800083E393E00E94D62A83E393E00E941D2A07
:102C900020E737E140E050E061E08DEF91E00E94F5
:102CA0002C158823A1F2B40183E393E00E94142A37
:102CB00020E83EE340E050E061E08FEF91E00E94C9
:102CC0002C15882321F281E090E0CA14DB0484F003
:102CD00080E00EC0E3E0EE16F10431F4BC01CE0159
:102CE00001960E94E30B7DCFAA24A394B12C81CF3F
:102CF000CA56DF4F0FB6F894DEBF0FBECDBFDF91CF
:102D0000CF911F910F91FF90EF90DF90CF90BF90E8
:102D1000AF909F908F900895AF92BF92CF92DF9225
:102D2000EF92FF920F931F93CF93DF9300D0CDB715
:102D3000DEB77C010E949215811149C00E94921554
:102D4000811145C000E010E00E941E0BF0922203AA
:102D5000E09221030130110541F081E0A816B10491
:102D600021F081E0C816D10481F48CE292E00E9447
:102D7000520F81E090E09A838983BE016F5F7F4F9D
:102D80008AE190E00E94F60835C00115110531F086
:102D9000A114B10419F0C114D10419F486E092E031
:102DA00013C00F3F8FEF180731F0AB20A09419F03C
:102DB000CD20C09419F48FE092E006C00F3F8FEF52
:102DC0001807C4F486E192E00E94520F13C061E03C
:102DD00070E0C7010E94C7158C0162E070E0C70176
:102DE0000E94C7155C0163E070E0C7010E94C7152F
:102DF0006C01AACFC8010F900F90DF91CF911F9166
:102E00000F91FF90EF90DF90CF90BF90AF9008951B
:102E10008F929F92AF92BF92CF92DF92EF92FF92EA
:102E20000F931F93CF93DF9300D0CDB7DEB70E94EF
:102E3000340B811105C08CE192E00E94520F58C002
:102E400080912F0390913003892B09F451C0BE016A
:102E50006F5F7F4F85EB90E00E94040889819A8123
:102E6000029724F488E790E09A83898309811A8184
:102E700080901D0390901E03A0901F03B09020032C
:102E80000E9470266B017C01C818D908EA08FB086B
:102E900028EE33E0D8010E949D316C157D058E052A
:102EA0009F0530F580912F03909130030E948C167E
:102EB0007C018EE794E00E941D2A64E072E08EE7B8
:102EC00094E00E94F1294AE050E0B7018EE794E0D7
:102ED0000E94BA2A8EE794E00E941D2A0E94702662
:102EE00060931D0370931E0380931F039093200330
:102EF0000F900F90DF91CF911F910F91FF90EF9066
:102F0000DF90CF90BF90AF909F908F9008950F93D8
:102F10001F93CF93DF9300D0CDB7DEB78C011A8219
:102F20001982BE016F5F7F4F8AE190E00E94F60830
:102F30006AEC72E083E393E00E94F12920E137E23A
:102F400040E050E060911B0182E191E00E942C156D
:102F5000882309F449C083E393E00E94FE1B66ECDA
:102F600072E083E393E00E94F12928EE33E040E031
:102F700050E060911B0182E191E00E942C1568EB0A
:102F800072E083E393E00E94F129B80183E393E0C8
:102F90000E94142A83E393E00E941D2A20E23EE46B
:102FA00040E050E060911B018BE091E00E942C1505
:102FB0008823E9F067EA72E083E393E00E94F12955
:102FC00081E090E09A838983BE016F5F7F4F8AE141
:102FD00090E00E94F6086DE972E08EE794E00E94AE
:102FE000F12981E090E005C08FEF9FEF02C08EEFE6
:102FF0009FEF0F900F90DF91CF911F910F91089548
:10300000CF92DF92EF92FF92CF93DF93EC010E9479
:1030100070266B017C01CE01AA2797FDA095BA2FDF
:10302000C80ED91EEA1EFB1EC0E00E9470266C1559
:103030007D058E059F0508F58EE794E00E94C9275F
:10304000892B99F3D1E0DC0F8EE794E00E94E22710
:10305000EC2FF0E0EF51FD4F8083ED2FF0E0E052D8
:10306000FD4F80818D3029F0DB3331F08A3011F44F
:1030700004C0DC2FCD2FD9CFCBE3EC2FF0E0EF5104
:10308000FD4F10828C2FDF91CF91FF90EF90DF905A
:10309000CF90089562E972E08EE794E00E94F129F2
:1030A0000E942A0B83E393E00E94191C892B49F0AC
:1030B00083E393E00E948B1BBC018EE794E00E94A7
:1030C000F8078EE794E00E94C927892B59F38EE711
:1030D00094E00E94E227682F83E393E00E94AC1BF8
:1030E000E1CFCF93DF938EE794E00E941D2A69E53C
:1030F00071E08EE794E00E94F1290E942A0B20E102
:1031000037E240E050E060911B0180EF91E00E94C7
:103110002C15811108C060E471E08EE794E0DF9126
:10312000CF910C94F1298EE794E00E94252868EE57
:1031300073E080E090E00E949F2685EE92E00E947E
:10314000720C0E948717EC0197FF13C064E271E0D4
:103150008EE794E00E94F1294AE050E0BE018EE73C
:1031600094E00E94BA2A8EE794E0DF91CF910C940C
:103170001D2A87E292E00E94520FDF91CF910895BD
:103180001F93CF93DF93CDB7DEB72C970FB6F8948C
:10319000DEBF0FBECDBF61EE72E0CE0107960E948A
:1031A0007E2C61EE72E08EE794E00E94142A8EE796
:1031B00094E00E941D2A6FEF71E0CE0101960E94FB
:1031C000EE2CBE016F5F7F4FCE0107960E945A2DF5
:1031D000182FCE0101960E94102C112319F00E9485
:1031E00071188BC16CEF71E0CE0101960E94EE2C3C
:1031F000BE016F5F7F4FCE0107960E945A2D182F98
:10320000CE0101960E94102C112339F083EE92E03A
:103210000E94720C0E940F1370C166EF71E0CE0124
:1032200001960E94EE2CBE016F5F7F4FCE01079684
:103230000E945A2D182FCE0101960E94102C1123A6
:1032400019F00E94E40D59C160EF71E0CE010196C2
:103250000E94EE2CBE016F5F7F4FCE0107960E9449
:103260005A2D182FCE0101960E94102C112319F00F
:103270000E94381342C16AEE71E0CE0101960E94AD
:10328000EE2CBE016F5F7F4FCE0107960E945A2D34
:10329000182FCE0101960E94102C112339F086EED2
:1032A00092E00E94720C6CE870E01AC065EE71E06A
:1032B000CE0101960E94EE2CBE016F5F7F4FCE01C2
:1032C00007960E945A2D182FCE0101960E94102CAD
:1032D000112349F085EE92E00E94720C6CE370E0DD
:1032E0000E94460C0AC160EE71E0CE0101960E9478
:1032F000EE2CBE016F5F7F4FCE0107960E945A2DC4
:10330000182FCE0101960E94102C112339F085EE62
:1033100092E00E94720C64E670E0E2CF6BED71E027
:10332000CE0101960E94EE2CBE016F5F7F4FCE0151
:1033300007960E945A2D182FCE0101960E94102C3C
:10334000112329F087E392E00E948C16D6C067ED26
:1033500071E0CE0101960E94EE2CBE016F5F7F4F9F
:10336000CE0107960E945A2D182FCE0101960E9479
:10337000102C112339F084EE92E00E94720C0E940E
:10338000C10CBBC063ED71E0CE0101960E94EE2C32
:10339000BE016F5F7F4FCE0107960E945A2D182FF6
:1033A000CE0101960E94102C112359F085EE92E077
:1033B0000E94A0338983BE016F5F7F4F87EB90E04F
:1033C0009AC06DEC71E0CE0101960E94EE2CBE0118
:1033D0006F5F7F4FCE0107960E945A2D182FCE01A6
:1033E00001960E94102C11110E944A1869EC71E09C
:1033F000CE0101960E94EE2CBE016F5F7F4FCE0181
:1034000007960E945A2D182FCE0101960E94102C6B
:10341000112339F084EE92E00E94720C0E94CC0FCE
:103420006CC065EC71E0CE0101960E94EE2CBE01ED
:103430006F5F7F4FCE0107960E945A2D182FCE0145
:1034400001960E94102C112339F084EE92E00E9424
:10345000720C0E94A01051C061EC71E0CE01019687
:103460000E94EE2CBE016F5F7F4FCE0107960E9437
:103470005A2D182FCE0101960E94102C112319F0FD
:103480000E948E0C3AC06DEB71E0CE0101960E9455
:10349000EE2CBE016F5F7F4FCE0107960E945A2D22
:1034A000182FCE0101960E94102C112339F084EEC2
:1034B00092E00E94720C0E94790C1FC068EB71E0D0
:1034C000CE0101960E94EE2CBE016F5F7F4FCE01B0
:1034D00007960E945A2D182FCE0101960E94102C9B
:1034E000112359F08091E50280538983BE016F5FFB
:1034F0007F4F84EB90E00E94DE0866EB71E08EE780
:1035000094E00E94F1298EE794E00E941D2ACE01EA
:1035100007960E94102C2C960FB6F894DEBF0FBEB3
:10352000CDBFDF91CF911F9108958EE794E00E9467
:10353000C927892B31F080E395E70E9400180C948D
:10354000C01808950E9408120E94E1128091310370
:1035500081110E94DC0D0E94720E0E94951A0C943B
:103560000817FC0187819085009711F00C94473271
:103570000895FC0111821282138214821582168230
:1035800040E050E060EC7FE74187528763877487B3
:10359000458756876787708B80E09081891770F424
:1035A000A781B08594E0899FA00DB11D11241D92C3
:1035B0001D921D921C9213978F5FEFCF0895CF93AA
:1035C000DF93EC01688324E0629FC00111240E9414
:1035D000AF3198878F83892B09F41882CE01DF9150
:1035E000CF910C94B91AAF92BF92CF92DF92EF9223
:1035F000FF920F931F93CF93DF93EC016A017B013E
:103600000F8118850115110509F45FC08A815801E1
:1036100094E0899FA00CB11C1124F5012081318117
:10362000428153816B817C818D819E810E94852D99
:103630006B837C838D839E83F501C082D182E2827D
:10364000F382BA80F80184E0B89EE00DF11D1124E8
:1036500020813181428153816B817C818D819E816A
:103660000E94862D6B837C838D839E83B394BA8264
:103670000881B01201C01A821981111105C0CD86CE
:10368000DE86EF86F88A0AC029853A854B855C85F7
:10369000C701B6010E94EA2D87FF05C0C986DA86F8
:1036A000EB86FC860EC02D853E854F855889C70167
:1036B000B6010E94392F181624F4CD86DE86EF86D7
:1036C000F88A101710F41F5F1983DF91CF911F91B3
:1036D0000F91FF90EF90DF90CF90BF90AF90089543
:1036E000CF93DF93EC016981662371F070E080E095
:1036F00090E00E94892E9B01AC016B817C818D81C1
:103700009E810E94EE2D04C060E070E080EC9FE797
:10371000DF91CF9108952091F3033091F40328179E
:103720003907B9F49091B1038091B203981789F0E9
:10373000E091B103F0E0ED54FC4F80812091B103A2
:1037400030E02F5F3F4F2F7333272093B10390E07A
:1037500008958FEF9FEF08951F93CF93DF93DC01C0
:103760005C968D919C915D97009749F481E090E083
:1037700013969C938E93129780E090E03BC05196F5
:10378000ED91FC91529750962C915097322F309595
:103790001FB75E964C915E9741FB772770F941FD0C
:1037A0006095F8944081772311F0422B01C04323A8
:1037B0004083EC012197F1F748E0508160FF02C09F
:1037C000522B01C053235083EC012197F1F76695EA
:1037D000415099F78081772311F0832301C0822B18
:1037E00080831FBF5C968D919C915D970197F1F747
:1037F00081E090E0DF91CF911F910895089520918D
:10380000F3033091F4032817390781F49091B10341
:103810008091B203981751F0E091B103F0E0ED54BC
:10382000FC4F8081992787FD909508958FEF9FEF3A
:1038300008952091F3033091F4032817390771F4A8
:103840008091B2032091B10390E0805C9F4F821B76
:10385000910960E470E00E943331089580E090E0C7
:103860000895E091F303F091F403E817F90769F480
:10387000A389B4899C918589809589238C93109222
:10388000F4031092F30381E0089580E00895CF934C
:10389000DF93EC018A8D9B8D892BF1F08091F303EE
:1038A0009091F4038C179D07B9F0009711F00E94D6
:1038B000311C8E8D8E7F8E8F1092B2031092B103C9
:1038C000D093F403C093F303EB89FC8980819D8935
:1038D000892B808381E001C080E0DF91CF91089542
:1038E0001F920F920FB60F9211242F933F934F9375
:1038F0005F936F937F938F939F93AF93BF93EF9358
:10390000FF93E091F303F091F403309709F451C071
:10391000868DA685B785958581FF04C08C91892306
:1039200029F447C08C91892309F043C0A389B48945
:103930009C918589809589238C93868997890197A5
:10394000F1F7208D318DA685B785758558E040E06B
:10395000C9010197F1F7842F90E095958795482F3D
:103960006C91672309F04068515091F7868D81FD75
:1039700040958091B20390E001968F739927209132
:10398000B103281749F0A091B203B0E0AD54BC4F89
:103990004C938093B20303C0868D8160868F828DA5
:1039A000938D0197F1F7A389B4898C919589892B1F
:1039B0008C93FF91EF91BF91AF919F918F917F91E8
:1039C0006F915F914F913F912F910F900FBE0F908C
:1039D0001F90189527E432E0FC01318320830C947A
:1039E000311C1F93CF93DF93EC01162F6E8D6695DC
:1039F000617081E06827812F0E94932761E0812F09
:103A00000E945A27812F90E0FC01EA5DF04FE4917B
:103A1000E88BFC01E65CF04FE491F0E0EE0FFF1F55
:103A2000E85AF04F859194919A8B898BDF91CF91D1
:103A30001F9108951F93CF93DF93EC01162F60E041
:103A4000812F0E945A278E8D81FD04C061E0812F55
:103A50000E9493271C87812F90E0FC01EA5DF04FC4
:103A6000E491ED87FC01E65CF04FE491F0E0EE0FAD
:103A7000FF1FE25BF04F859194919F878E87DF91C6
:103A8000CF911F910895FF920F931F93CF93DF93D0
:103A9000EC01F62E522F1B821A8208EE13E020E072
:103AA00030E00C831D832E833F8387E492E099836B
:103AB00088831F8A1E8A198E188E1B8E1A8E1D8E61
:103AC0001C8E8E8D8E7F50FB81F98E8F642FCE01E0
:103AD0000E94F11C6F2DCE01DF91CF911F910F91AC
:103AE000FF900C941A1DCF93DF93EC019A01AB0168
:103AF0001B8E1A8E198E188E1F8A1E8A60E079E03E
:103B00008DE390E00E946931C9012430310520F035
:103B1000B9016350710902C061E070E07D8F6C8F64
:103B2000EC85E63108F068C0B90176956795643197
:103B3000710518F06351710902C061E070E07F8B7C
:103B40006E8B069718F0C901059702C081E090E0DE
:103B5000998F888FC901880F991F820F931F96959F
:103B60008795969587958D30910510F00C9702C03A
:103B700081E090E09B8F8A8F20916800E83050F0C0
:103B800091E0EE3008F490E081E001C0880F9A9552
:103B9000EAF701C084E0822B809368002C852830EE
:103BA00038F02E3040F0263148F48CE690E008C022
:103BB0008DE690E005C08BE690E002C080E090E0EA
:103BC0009C8B8B8B283030F481E001C0880F2A95C4
:103BD000EAF70DC0822F90E02E3010F4089701C054
:103BE0000E9791E001C0990F8A95EAF7892F8D8B86
:103BF0008C8D9D8D0197F1F7CE01DF91CF910C94C3
:103C0000471C0C94311CFF920F931F93CF93DF93AB
:103C1000EC01F22E798368838B01000F111F060FD0
:103C2000171F1B830A834C831D822B871C861D86CE
:103C30001E861F8650E0FA01E65CF04FE491F0E04A
:103C4000EE0FFF1FE85AF04F85919491998B888B66
:103C5000FA01EA5DF04F44914A8BC8010E94AF31EE
:103C60009F838E83009729F0A80160E070E00E9496
:103C7000FE33F0FE04C081E0888719860BC0F2FE97
:103C800006C081E0888782E089871A8605C0188689
:103C900081E0898782E08A87DF91CF911F910F9120
:103CA000FF900895CF93DF93EC018E819F81009761
:103CB00011F00E94473260E08C81DF91CF910C942B
:103CC0005A27CF93DF93EC0161E08C810E945A2741
:103CD00060E08C81DF91CF910C949327CF92DF929B
:103CE000EF92FF920F931F93CF93DF93CDB7DEB781
:103CF00029970FB6F894DEBF0FBECDBF8C01DC0153
:103D000016968D919C911797892B09F49BC00E9460
:103D10007C26F801C484D584E684F7846C197D0977
:103D20008E099F09623371058105910580F3F8942E
:103D3000828193819A838983A681B7817D01EFEF88
:103D4000EE1AFE0A8C918987D8011B969C911B97CD
:103D500050960D90BC91A02DF801828991FF2EC044
:103D60009C91982B98879C91809589238F838F8134
:103D70008E8388E08D8358856F8149853D812E81B2
:103D800089819A81F7015C9347FD252F3A952C9301
:103D9000262F39F0441F00C000006C93000000C0C3
:103DA000F2CF38E041916C930000019761F7F80180
:103DB000B18BA08B49873D832E8338C09C91982B73
:103DC00098879C91809589238F838F818C8388E04D
:103DD0008B8358856F8149853B812C8189819A81AC
:103DE000F7015C9347FD252F00C000C02C9300C055
:103DF00000C000C000C000C06C930000262F3A95A0
:103E000041F0441F000000C000C000C000C000C05E
:103E1000E8CF38E0419100C06C9300C0019709F7EA
:103E2000F801B18BA08B49873B832C839A838983CC
:103E300078940E947C26D8011C966D937D938D9377
:103E40009C931F9729960FB6F894DEBF0FBECDBF87
:103E5000DF91CF911F910F91FF90EF90DF90CF9066
:103E60000895CF92DF92EF92FF920F931F93CF931B
:103E7000DF93FC01808191816817790788F5CA0179
:103E8000AA27BB27082FC32ED42EE52EFF241C2DD6
:103E9000D22FC581CC2361F08C9FC0011124092F42
:103EA000CC9E600111241D2D2C9F90011124D32F35
:103EB0009B01220F331F260F371F86819781820FA8
:103EC000931F2085DC01A20FB11D0C932185DC011D
:103ED000A20FB11D1C932285FC01E20FF11DD083BE
:103EE000DF91CF911F910F91FF90EF90DF90CF90D6
:103EF0000895962F50E060E070E0592B682BCB01BD
:103F0000BA010895FF920F931F93CF93DF93EC01B3
:103F1000FF24F394F60E2D81F21679F10E811F81A4
:103F20002150B9F06F3F59F430E040E050E06FEFBE
:103F30007FEF80E090E00E946931B9010CC08F2DC5
:103F400090E0982F88270197622F70E00E941F3120
:103F500002C060E070E0F8018A819B81AF01401BE4
:103F6000510B4817590740F44081469FC001479FB5
:103F7000900D11249193F0CFFD82DF91CF911F918D
:103F80000F91FF9008950F93FC0113AE14AE15AE80
:103F900004960E94B0240F9108950F93FC010150E4
:103FA000040F84A996A9941718F0081728F402C0E2
:103FB000081750F0041740F42150260F83A995A943
:103FC000961720F4281720F480E007C0281720F463
:103FD00081E0261710F0F8CF81E00F910895DB0102
:103FE0001496ED91FC91159720E030E061E0099482
:103FF000DB011496ED91FC91159720E030E063E031
:104000000994DB011496ED91FC91159720E030E0C6
:1040100040E064E00994DB011496ED91FC91159762
:1040200020E030E041E064E00994DB011496ED917A
:10403000FC91159720E030E062E00994DB011496D2
:10404000ED91FC91159720E030E065E00994DB01EB
:104050001496ED91FC91159766E00994AF92BF928A
:10406000CF92DF92EF92FF920F931F93CF93DF9344
:104070001F92CDB7DEB75C018B017A0180E0F701BA
:104080004491811109C04F3FD9F1B801C5010E9487
:104090001E2081112EC039C04F3FB9F34E3FB9F1F8
:1040A000403F38F5403E30F04F70B801C5010E94E6
:1040B00015201FC0403D30F04F70B801C5010E946F
:1040C000F81F17C0403CB8F0B801C50149830E94F1
:1040D000012049814295407F4E5FC42ED12CC601FC
:1040E0000E944121B801C5010E940B20C6010E9417
:1040F000412180E006C047FDFCCF842F90E0F7CF40
:1041000081E0FFEFEF1AFF0ABACF80E001C081E043
:104110000F90DF91CF911F910F91FF90EF90DF9063
:10412000CF90BF90AF900895860F911DFC0183A1A1
:104130008F3F19F0642F0C9493270895EF92FF920C
:104140000F931F93CF93DF937C01C0E0D0E08701F2
:104150000C0F1D1FF80183A18F3F41F061E00E9409
:104160005A2761E0F80183A10E9493272196CD3060
:10417000D10569F7DF91CF911F910F91FF90EF90DB
:1041800008958EBD0DB407FEFDCF8EB50895CF9274
:10419000DF92EF92FF920F931F93CF93DF931F92C3
:1041A000CDB7DEB76C017901062F10E0F801319729
:1041B000E730F10508F05AC0EC5CFF4F0C948831F1
:1041C00049830E949E2061E08DE00E945A2760E0B2
:1041D0008DE00E94932761E08BE00E945A2760E007
:1041E0008BE00E94932761E08AE00E945A2761E0F9
:1041F0008AE00E9493271CBC80E58CBD4981423037
:10420000A8F581E08DBD32C061E004C0411106C057
:1042100041E062E0C6010E94942028C040E064E0D2
:104220000E94942040E0F5CFFC0183A18F3FF1F084
:1042300060E0F0CF842F0E94C12018C04423B1F069
:10424000F70181917F0149830E94C120498141503A
:10425000F5CF442359F0F701849149830E94C1208E
:10426000FFEFEF1AFF0A49814150F3CF81E00F9031
:10427000DF91CF911F910F91FF90EF90DF90CF9042
:1042800008952EE93FE0009729F0F9013197F1F701
:104290000197F9CF0895BF92CF92DF92EF92FF92EC
:1042A0000F931F93CF93DF938C01EB01B42E790111
:1042B00080E1481709F454C0841700F1EAE04E1772
:1042C00021F1FFE04F1357C041E0C8010E94F81FE1
:1042D00040E0BE01C8010E94152041E8BE01C801AE
:1042E0000E941E20F7014081BE01C8010E941E20CD
:1042F00040E0BE01C8010E94F81F3BC081E14817A1
:1043000091F1E5E14E1761F036C042E0C8010E942C
:10431000EF1F4BE953E0BE01C8010E942E202BC0C5
:10432000CA80DB8043E953E0C8010E942E20F601D9
:104330004481406BBE01C8010E941E2041E0BE01C5
:10434000C8010E941520AE01B801C6010E94642573
:10435000882301F140E0BE01C8010E94F81F0BC094
:104360004AE853E002C04FE753E0BE01C8010E9493
:104370002E2081E010C097014B2DBE01C801DF91B6
:10438000CF911F910F91FF90EF90DF90CF90BF9052
:104390000C94DC2580E0DF91CF911F910F91FF906D
:1043A000EF90DF90CF90BF900895FC01E60FF11DD4
:1043B000849190E0982F88273196E4918E0F911D7B
:1043C0000895FC01849108950E94E121882311F051
:1043D000823011F486E0089583E0089580E0089526
:1043E00066E00C94D52168E00C94D5210A96FC0176
:1043F000849108950B96FC0184910895BF92CF9209
:10440000DF92EF92FF920F931F93CF93DF93EC0114
:10441000E62E0C811D81C8010E94E121F82E8C81BD
:104420009D810E94E421B82E21E0F21619F0CC24DF
:10443000CA9402C05FE0C52E8C819D810E94F62146
:10444000F82E8C819D810E94FA21D82E8C819D812D
:104450000E94F321E0E6EE1538F4009729F0080FEA
:10446000191F41E6F42E10C08C819D810E94F0211D
:10447000F0E4FE1538F4009729F0080F191F31E415
:10448000F32E02C00F5E1F4FDE1440F4188A1B8A01
:104490001C8A198A1A8A80E090E050C0DF14B0F3B9
:1044A0002B2D30E0F80184918F3F19F40F5F1F4FDF
:1044B00040C0FE1036C08C819D810E94E121980190
:1044C0002F5F3F4FF801882311F0823091F48491DF
:1044D0008B8BF90124912C8BF8013396E491E88BB6
:1044E000F8013496E491E98BF8013596E491EA8B72
:1044F00016C09491892F8F7082508A8B92959F70ED
:10450000998BF9012491822F8F708C8B22952F70BB
:104510002B8BF8013296E491E295EF70E88BC8019D
:104520000DC0F8013296E491EC210E0F111D020F1F
:10453000131FFD1409F4AACFF394B4CFDF91CF91E8
:104540001F910F91FF90EF90DF90CF90BF90089553
:104550004F925F927F928F929F92AF92BF92CF9233
:10456000DF92EF92FF920F931F93CF93DF931F92EF
:10457000CDB7DEB72C01162F742E622F0E94FE21BC
:104580006C01009709F43EC0F201848195810E947C
:10459000E421F82EF201838804899188910E8289A2
:1045A000781A172D101B282D412F692DC2010E944A
:1045B000CD1F882321F1CF0CD11CF7E08F0E8694FC
:1045C00086948694A82CB12C1715C9F0392D760144
:1045D0008E2D8C19881578F4F701049120E0412F75
:1045E000632FC20139830E94EE24FFEFEF1AFF0A06
:1045F0003981385FEDCFCA0CDB1C1F5FE5CFF201BC
:10460000808901C080E00F90DF91CF911F910F91C1
:10461000FF90EF90DF90CF90BF90AF909F908F90E2
:104620007F905F904F9008950F931F93CF93DF93E8
:1046300000D01F92CDB7DEB78C01DC015596ED910D
:10464000FC9156972B834A83698309954A81480FC9
:104650002B816981C8010F900F900F90DF91CF914E
:104660001F910F910C94A822DC0114968D919C91BE
:104670001597009709F43FC057962C915797FC0166
:10468000211108C03596E4915896EC935897FC0197
:104690003C9611C0213041F43F96E4915896EC933A
:1046A0005897FC01709607C03D96E4915896EC939C
:1046B0005897FC013E96849159968C935997589639
:1046C0008C915897992787FD909559962C915997D9
:1046D000821B910927FD93955A962C915A97203465
:1046E00041F0829FC0011124E6E096958795EA95F6
:1046F000E1F75B968C9308952EEE31E2FC01368B48
:10470000258B0895CF93DF93EC018C819D818617D3
:10471000970749F07D836C83CE010E9434238EEE8F
:1047200091E29E8B8D8BDF91CF9108951F93CF9354
:10473000DF93EC011D821C821F821E82198681E09C
:10474000888782E28A871F861E8680E090E02FEFAE
:10475000FE01E80FF91F23A301968E309105C1F7E2
:1047600011E018A3CE010E947C231F8B188E198E96
:1047700080E48A8F1B8E85E296E29AAB89ABDF914B
:10478000CF911F910895DB01ED91FC910994EF9277
:10479000FF921F93CF93DF9300D0CDB7DEB77C019C
:1047A000DC01D196ED91FC91D29782E069837A8306
:1047B000099520E030E04AE069817A81C7010E94D2
:1047C000C323182FD701D196ED91FC91D29783E0A6
:1047D0000995D701D196ED91FC91D29780E009958A
:1047E000812F0F900F90DF91CF911F91FF90EF904D
:1047F00008950F931F93CF93DF93EC018B01E9A9E9
:10480000FAA982E00995E9A9FAA981E0099520E0D1
:1048100030E044E1B801CE010E94C3239E012D5C2B
:104820003F4F47E1B801CE010E94C323E9A9FAA98D
:1048300080E0DF91CF911F910F910994FF920F9328
:104840001F93CF93DF93EC018B01E9A9FAA982E0D2
:104850000995E9A9FAA981E0099520E030E045E150
:10486000B801CE010E94C323F82E882341F09E0197
:104870002D5C3F4F47E1B801CE010E94C323E9A957
:10488000FAA980E009958F2DDF91CF911F910F91AB
:10489000FF900895CF93DF931F92CDB7DEB7498382
:1048A0009E012F5F3F4F4FE00E94C3230F90DF9187
:1048B000CF910895CF93DF931F92CDB7DEB79E01BE
:1048C0002F5F3F4F46E40E94C32389810F90DF9101
:1048D000CF910895CF93DF931F92CDB7DEB79E019E
:1048E0002F5F3F4F47E40E94C32389810F90DF91E0
:1048F000CF91089520E030E048E40C94C323CF9397
:10490000DF93EC016A817B810E945A2488836A814B
:104910007B81CE010E946A2489836A817B81CE01DA
:104920000E947A248B879E012D5C3F4F6A817B8198
:1049300047E1CE01DF91CF910C94C323CF93DF9356
:10494000EC016A817B810E94C723882329F0CE0174
:104950000E947F2481E001C080E0DF91CF91089523
:10496000CF92DF92EF92FF920F93CF93DF9300D01D
:10497000CDB7DEB76C017B012A8349830E94962361
:10498000F601F382E282498145A32A8124A303A38D
:10499000C6010F900F90DF91CF910F91FF90EF9094
:1049A000DF90CF900C949E24FC01628173810C9463
:1049B000F923CF93DF93EC01EE85FF85309709F063
:1049C00009956A817B81CE01DF91CF910C941E24E1
:1049D000462FFC01628173810C944A240F93FC01E1
:1049E00082819381648F458F278F068F9F01245E7C
:1049F0003F4F4BE3BC01CF010F910C94C323FC014B
:104A000060A30895FC011282808181508383148207
:104A10000895FC0120818281820F82839181891710
:104A200060F484818F5F84838381820F891710F003
:104A30008FEF890F838381E0089580E00895DC0182
:104A40001696ED91FC91179715968C919F01280F62
:104A5000311DC9011192E817F907E1F70895FC012A
:104A600091E08381861708F490E021E0461708F072
:104A700020E0322F392B81E05281451708F480E085
:104A800083239223892B0895DC01FB011082129667
:104A90008C911297818315968C9115978150828302
:104AA00013968C9183830895FB01418123812130EA
:104AB00029F0233031F468EF640F04C0642F485F9D
:104AC00001C0642F0C942F25FC01CB01BA01268173
:104AD000378145810C942720DC011696ED91FC91DD
:104AE000179712968C91481B477081E090E0042E36
:104AF00001C0880F0A94EAF7E60FF11D30812223E6
:104B000011F0832B02C08095832380830895FB01DD
:104B10004181DC0112962C911297421768F013968E
:104B20002C911397241740F0608115962C916217F1
:104B300018F424810C946C250895CF92DF92FF9293
:104B40000F931F93CF93DF9300D0CDB7DEB78C01C7
:104B50006B01FB01F2808381813039F070F082308B
:104B600039F0833041F020E001C021E030E007C09F
:104B700020E03FEF04C02FEFF9CF20E031E0F7FE57
:104B800008C0B601C80129833A830E9487253A816B
:104B90002981F6018081830F80838181820F818347
:104BA000FF0C69F70F900F90DF91CF911F910F913C
:104BB000FF90DF90CF9008950F931F93CF93DF93D3
:104BC0008901FB01C281D3814233F9F068F4453198
:104BD00009F1473141F1443181F5CE010E941F2591
:104BE000CE010E94022529C0463411F1473411F14B
:104BF0004B3319F5B901CE010E9454258823E9F001
:104C0000B801CE010E949D2518C0B901CE010E94B5
:104C1000872513C0CE010E940925882381F0CE018B
:104C20000E941F250AC0B901CE010E94442505C07B
:104C30008D8101C08981F801808381E001C080E01D
:104C4000DF91CF911F910F91089508951F920F92B8
:104C50000FB60F9211242F933F938F939F93AF938F
:104C6000BF938091760490917704A0917804B091DD
:104C700079043091750423E0230F2D3720F4019639
:104C8000A11DB11D05C026E8230F0296A11DB11D6F
:104C9000209375048093760490937704A09378040E
:104CA000B093790480917A0490917B04A0917C0464
:104CB000B0917D040196A11DB11D80937A0490935B
:104CC0007B04A0937C04B0937D04BF91AF919F912E
:104CD0008F913F912F910F900FBE0F901F901895BD
:104CE0002FB7F894609176047091770480917804DE
:104CF000909179042FBF08953FB7F89480917A047A
:104D000090917B04A0917C04B0917D0426B5A89B72
:104D100005C02F3F19F00196A11DB11D3FBF6627A9
:104D2000782F892F9A2F620F711D811D911D42E0EE
:104D3000660F771F881F991F4A95D1F708958F92A4
:104D40009F92AF92BF92CF92DF92EF92FF926B0150
:104D50007C010E947C264B015C01C114D104E1045A
:104D6000F104F1F00E94842D0E947C2668197909D3
:104D70008A099B09683E73408105910570F321E023
:104D8000C21AD108E108F10888EE880E83E0981E67
:104D9000A11CB11CC114D104E104F10429F7DDCF39
:104DA000FF90EF90DF90CF90BF90AF909F908F904B
:104DB0000895789484B5826084BD84B5816084BD93
:104DC00085B5826085BD85B5816085BDEEE6F0E084
:104DD000808181608083E1E8F0E0108280818260E0
:104DE0008083808181608083E0E8F0E08081816061
:104DF0008083E1EBF0E0808184608083E0EBF0E091
:104E0000808181608083EAE7F0E080818460808334
:104E100080818260808380818160808380818068DE
:104E200080831092C10008958E3008F08E508770F4
:104E300020912A0190E4299F90011124822B8093D4
:104E40007C0080917A00806480937A0080917A005F
:104E500086FDFCCF809178002091790090E0922B24
:104E60000895833081F028F4813099F08230A1F0E8
:104E700008958730A9F08830B9F08430D1F480915A
:104E800080008F7D03C0809180008F7780938000A9
:104E9000089584B58F7702C084B58F7D84BD089551
:104EA0008091B0008F7703C08091B0008F7D809398
:104EB000B0000895CF93DF9390E0FC01EA5DF04FDE
:104EC0002491FC01E65CF04F8491882349F190E045
:104ED000880F991FFC01EE59F04FA591B491885AA3
:104EE000904FFC01C591D4919FB7611108C0F8940F
:104EF0008C91209582238C93888182230AC0623012
:104F000051F4F8948C91322F309583238C938881BF
:104F1000822B888304C0F8948C91822B8C939FBF42
:104F2000DF91CF9108950F931F93CF93DF931F923B
:104F3000CDB7DEB7282F30E0F901EE5EF04F849157
:104F4000F901EA5DF04F1491F901E65CF04F04912C
:104F50000023C9F0882321F069830E9431276981E9
:104F6000E02FF0E0EE0FFF1FE85AF04FA591B4914B
:104F70009FB7F8948C91611103C01095812301C0F3
:104F8000812B8C939FBF0F90DF91CF911F910F9139
:104F90000895FC01818D228D90E0805C9F4F821BE3
:104FA00091098F7399270895FC01918D828D98172F
:104FB00031F0828DE80FF11D858D90E008958FEF1F
:104FC0009FEF0895FC01918D828D981761F0828D7D
:104FD000DF01A80FB11D5D968C91928D9F5F9F732D
:104FE000928F90E008958FEF9FEF089586E699E203
:104FF000892B49F080E090E0892B29F00E946629F6
:1050000081110C9400000895FC01848DDF01A80F2C
:10501000B11DA35ABF4F2C91848D90E001968F73E0
:105020009927848FA689B7892C93A089B1898C91FF
:1050300080648C93938D848D981306C00288F389C5
:10504000E02D80818F7D80830895CF93DF93EC01E5
:10505000888D8823C9F0EA89FB89808185FD05C098
:10506000A889B9898C9186FD0FC00FB607FCF5CFD2
:10507000808185FFF2CFA889B9898C9185FFEDCF1A
:10508000CE010E940428E7CFDF91CF910895CF92FF
:10509000DF92FF920F931F93CF93DF931F92CDB7B1
:1050A000DEB76C0181E0D60158968C9358975B96D9
:1050B0009C915B975C968C915C97981307C0509677
:1050C000ED91FC915197808185FD2EC0F601038DF5
:1050D00010E00F5F1F4F0F731127F02EF601848D24
:1050E000F81211C00FB607FCF9CFD6015096ED911A
:1050F000FC915197808185FFF1CFC60169830E94A1
:1051000004286981EBCF838DE80FF11DE35AFF4F2F
:105110006083D6015B960C935B975296ED91FC9160
:105120005397808180620CC0D6015696ED91FC9118
:10513000579760835096ED91FC91519780818064E0
:10514000808381E090E00F90DF91CF911F910F91CC
:10515000FF90DF90CF900895BF92CF92DF92EF92B1
:10516000FF92CF93DF93EC016A017B01B22EE889B5
:10517000F98982E08083411581EE58076105710548
:10518000A1F060E079E08DE390E0A70196010E9434
:1051900047312150310941095109569547953795B5
:1051A0002795211580E1380798F0E889F989108260
:1051B00060E874E88EE190E0A70196010E94473113
:1051C0002150310941095109569547953795279541
:1051D000EC85FD853083EE85FF852083188EEC8974
:1051E000FD89B082EA89FB89808180618083EA89B8
:1051F000FB89808188608083EA89FB89808180685F
:105200008083EA89FB8980818F7D8083DF91CF91C4
:10521000FF90EF90DF90CF90BF9008951F920F9274
:105220000FB60F9211242F938F939F93EF93FF93B9
:10523000E0918E04F0918F048081E0919404F091CC
:10524000950482FD12C09081809197048F5F8F73C7
:1052500020919804821751F0E0919704F0E0E25811
:10526000FB4F958F8093970401C08081FF91EF9150
:105270009F918F912F910F900FBE0F901F901895B7
:105280001F920F920FB60F9211242F933F934F93BB
:105290005F936F937F938F939F93AF93BF93EF939E
:1052A000FF938EE794E00E940428FF91EF91BF9155
:1052B000AF919F918F917F916F915F914F913F91AE
:1052C0002F910F900FBE0F901F9018958EE794E0CE
:1052D0000E94C92721E0892B09F420E0822F08953C
:1052E000109281041092800488EE93E0A0E0B0E078
:1052F0008093820490938304A0938404B0938504E4
:1053000087E592E090937F0480937E0485EC90E0A3
:1053100090938B0480938A0484EC90E090938D04A6
:1053200080938C0480EC90E090938F0480938E04A3
:1053300081EC90E0909391048093900482EC90E053
:10534000909393048093920486EC90E0909395045C
:1053500080939404109297041092980410929904E8
:1053600010929A040895CF92DF92EF92FF920F93DA
:105370001F93CF93DF937C016A01EB0100E010E003
:105380000C151D0571F06991D701ED91FC9101900B
:10539000F081E02DC7010995892B19F00F5F1F4F90
:1053A000EFCFC801DF91CF911F910F91FF90EF9048
:1053B000DF90CF9008956115710581F0DB010D90AC
:1053C0000020E9F7AD0141505109461B570BDC01A4
:1053D000ED91FC910280F381E02D099480E090E052
:1053E0000895EF92FF920F931F93CF93DF938C0159
:1053F0007B01C0E0D0E0F701EC0FFD1F6491662354
:1054000059F0F801A081B181ED91FC91C801099595
:10541000892B11F02196EFCFCE01DF91CF911F9113
:105420000F91FF90EF9008950C94DB29DC01ED9132
:10543000FC910190F081E02D099463E672E00C94F8
:10544000DB298F929F92AF92BF92DF92EF92FF92F1
:105450000F931F93CF93DF93CDB7DEB7A1970FB60E
:10546000F894DEBF0FBECDBF7C01F42FD52ECB014B
:1054700019A2223008F42AE08E010F5D1F4F822E00
:10548000912CA12CB12C6F2F7D2DA50194010E9490
:105490004731F22FD32ECA01015011096A3014F49A
:1054A000E0E301C0E7E3E60FD801EC93232B242BC4
:1054B000252B49F7B801C7010E94DB29A1960FB639
:1054C000F894DEBF0FBECDBFDF91CF911F910F913A
:1054D000FF90EF90DF90BF90AF909F908F900895D6
:1054E000CF92DF92EF92FF920F931F93CF93DF93B0
:1054F000EC016A017B012115310579F4E881F9811C
:105500000190F081E02D642FDF91CF911F910F91D9
:10551000FF90EF90DF90CF9009942A303105E9F4A5
:1055200077FF1AC06DE20E94162A8C014427552786
:10553000BA014C195D096E097F092AE0CE010E946B
:10554000212A800F911FDF91CF911F910F91FF9022
:10555000EF90DF90CF9008952AE0B701A601CE0129
:10556000DF91CF911F910F91FF90EF90DF90CF903F
:105570000C94212A9A01AB01662757FD6095762F7E
:105580000C94702A2115310541F4DC01ED91FC9158
:105590000190F081E02D642F09940C94212A9A0146
:1055A000462F50E060E070E00C94C22A9A01AB01F3
:1055B00060E070E00C94C22A4F925F926F927F92EB
:1055C0008F929F92AF92BF92CF92DF92EF92FF9213
:1055D0000F931F93CF93DF93EC016A017B01B22EEF
:1055E0009A01AB01C701B6010E943730882319F038
:1055F00066E672E027C026013701E89477F82FEFBE
:105600003FEF4FE75FE7C301B2010E9437308111DE
:105610000DC02FEF3FEF4FE75FE7C301B2010E94DC
:10562000EA2D18161CF46AE672E00CC02FEF3FEF6B
:105630004FE75FE4C701B6010E94392F1816ACF49A
:105640006EE672E0CE01DF91CF911F910F91FF9036
:10565000EF90DF90CF90BF90AF909F908F907F9012
:105660006F905F904F900C94DB292FEF3FEF4FE747
:105670005FECC701B6010E94EA2D87FDE1CF20E073
:1056800030E0A901C701B6010E94EA2D87FF0AC0D8
:105690006DE2CE010E94162A8C01F7FAF094F7F819
:1056A000F09402C000E010E0A12C60E070E080E027
:1056B0009FE3AB1441F020E030E040E251E40E946F
:1056C000EE2DA394F6CF9B01AC01C701B6010E9459
:1056D000862D6B017C010E945B2E2B013C010E94F8
:1056E000872E9B01AC01C701B6010E94852D6B017D
:1056F0007C012AE0B301A201CE010E94212A080FF9
:10570000191FBB2039F062E772E0CE010E94DB294D
:10571000080F191F7B2C772041F120E030E040E298
:1057200051E4C701B6010E94882F6B017C010E94E1
:10573000562E4B01AA2497FCA094BA2C2AE030E004
:10574000B501A401CE010E94702A080F191FC501DE
:10575000B4010E94892E9B01AC01C701B6010E94D1
:10576000852D6B017C017A94D6CFC801DF91CF9152
:105770001F910F91FF90EF90DF90CF90BF90AF906F
:105780009F908F907F906F905F904F9008950C94B2
:10579000DC2A4F925F926F927F92AF92BF92CF922C
:1057A000DF92EF92FF920F931F93CF93DF93CDB7CA
:1057B000DEB729013A01621B730B840B950B298913
:1057C0003A894B895C892A193B094C095D09298B67
:1057D0003A8B4B8B5C8B9B01AC0169897A898B89F5
:1057E0009C890E940F31E418F50806091709A801E1
:1057F00097010E9469312A0D3B1D4C1D5D1DCA0198
:10580000B901DF91CF911F910F91FF90EF90DF9041
:10581000CF90BF90AF907F906F905F904F90089522
:10582000FC01808191810C944732CF93DF93EC018E
:1058300088819981009711F00E944732198218825D
:105840001D821C821B821A82DF91CF9108950F93D3
:105850001F93CF93DF93EC018B016F5F7F4F8881A4
:1058600099810E94D632009731F0998388831B83F7
:105870000A8381E001C080E0DF91CF911F910F91F9
:105880000895CF93DF93EC0188819981892B29F0CA
:105890008A819B818617970760F4CE010E94272C8E
:1058A000882341F08C819D81892B19F4E881F9814D
:1058B000108281E0DF91CF910895EF92FF920F93D4
:1058C0001F93CF93DF93EC017B018A01BA010E9401
:1058D000412C811104C0CE010E94152C07C01D83EC
:1058E0000C83B701888199810E940534CE01DF9134
:1058F000CF911F910F91FF90EF900895FC011182BD
:10590000108213821282158214826115710559F07A
:10591000FB0101900020E9F7AF0141505109461BFE
:10592000570B0C945D2C0895EF92FF920F931F93E9
:10593000CF93DF93EC017B018A01BA010E94412CD5
:10594000811104C0CE010E94152C07C01D830C8359
:10595000B701888199810E94E533CE01DF91CF9113
:105960001F910F91FF90EF900895CF93DF93EC017B
:105970006115710561F0FB0101900020E9F7AF01AD
:1059800041505109461B570B0E945D2C02C00E94DA
:10599000152CCE01DF91CF9108950F931F93CF93D4
:1059A000DF9300D0CDB7DEB78C016115710561F0D2
:1059B000CB0169837A830E94EC33AC0169817A81DF
:1059C000C8010E94942C02C00E94152CC8010F909F
:1059D0000F90DF91CF911F910F910895FC011182DB
:1059E000108213821282158214820C94CD2CEF92B5
:1059F000FF920F931F93CF93DF93EC017B010C81F8
:105A00001D816115710511F480E016C04115510525
:105A100091F0040F151FB8010E94412C8823A1F3B7
:105A2000288139818C819D81B701820F931F0E944B
:105A300005341D830C8381E0DF91CF911F910F917D
:105A4000FF90EF900895CF93DF9300D0CDB7DEB7EE
:105A500069831A8241E050E0BE016F5F7F4F0E9470
:105A6000F72C0F900F90DF91CF910895FA01DB0191
:105A700014964D915C911597DC0114962D913C91F3
:105A80001597241B350B2E173F0788F08D919C919D
:105A9000009769F0DB016D917C916115710539F01A
:105AA0008E0F9F1F0E940C3421E0892B09F020E00B
:105AB000822F0895FC0144815581FB0124813581A9
:105AC0004217530720F040E050E00C94362D80E060
:105AD0000895FC0180819181009711F00C94BE33F0
