:100000000C94A6070C94CE070C94CE070C943D1CC0
:100010000C943D1C0C943D1C0C94CE070C94CE0704
:100020000C94CE070C94CE070C94CE070C94CE07FC
:100030000C94CE070C94CE070C94CE070C94CE07EC
:100040000C94F3250C94CE070C94DB280C940D290A
:100050000C94CE070C94CE070C94CE070C94CE07CC
:100060000C94CE070C94CE07AD20D120D320E120F4
:10007000E720EB20F62008000000BE922449123E43
:10008000ABAAAA2ABECDCCCC4C3E00000080BEABB1
:10009000AAAAAA3E00000000BF000000803F0000A6
:1000A000000000084178D3BB4387D1133D190E3CB3
:1000B000C3BD4282AD2B3E68EC8276BED98FE1A9EA
:1000C0003E4C80EFFFBE01C4FF7F3F0000000000F8
:1000D00007634236B79BD8A71A39685618AEBAAB31
:1000E000558C1D3CB7CC5763BD6DEDFD753EF617C5
:1000F0007231BF000000803F0A52657374617274F0
:10010000696E672E2E2E0A00736563005761726D4B
:1001100075702E2E2E004272696768746E65737357
:1001200020203A00436F756C64206E6F7420636FFB
:100130006E6E65637420746F20576966693A20009B
:1001400057696669206D6F64756C65206E6F7420E9
:10015000776F726B696E670A00436F6E6E656374CA
:10016000696E6720746F20576966692E2E2E0A000B
:10017000446562756720496E666F2069733A200096
:100180000A436F6E66696775726174696F6E20727B
:10019000657365742E2E2E0A00446F6E650A004E3C
:1001A0006577204272696768746E65737320766143
:1001B0006C75653A20003E007361702000777369AA
:1001C0000072636F007070780070706D0070726FF5
:1001D00078790062726600627267007465737400F9
:1001E00075626976007562696B0074736B6579007E
:1001F0007265736574006465627567006C7400777E
:10020000696669005453205245533A200041542BEB
:1002100043495053454E443D0041542B43495053AC
:10022000544152543D22544350222C220035302E4A
:1002300032332E3132342E3636003138342E3130CE
:10024000362E3135332E31343900222C38300053DC
:1002500041503A200053656E64205341503A005596
:1002600042493A20005542493A005453204B4559DF
:100270003A00464F554E440A005374617274696ED9
:10028000672057696669204D6F64756C652E2E2E48
:100290000A004553502050726F78790A005749463A
:1002A00049204F4B210A0041542B43574155544F8D
:1002B000434F4E4E3D310A0041542B43574A415063
:1002C0005F4445463D0041540A0041542B43574D7D
:1002D0004F44455F4445463D310A007350503A0053
:1002E000686F753A0074656D3A00704D763A006338
:1002F0004D763A006469663A00634E543A00636D85
:10030000763A0056697369742027766169722D6D9B
:100310006F6E69746F722E636F6D2720666F722027
:10032000636F6E66696775726174696F6E2064656C
:100330007461696C730A007641697220434F322000
:100340004D6F6E69746F723A2076312E392E330AF2
:10035000000A0A4465470A0A00FFE0FFD1AFFF32F6
:10036000FFD0FFFEFFE0FFD1AEFFD0FFFEFFE0FFBA
:10037000D11000FFFEFFD0FFE0FFC1FFD1AED5805E
:10038000A83FD300408D142000A1C8DA1281CFD934
:10039000F1DB402EA4A6AFFFD0FFFE00060A00FE50
:1003A00007019E0337207FFE09FE08FE00000006BD
:1003B0000000010707060200808080808000800323
:1003C0000303060105A0A0A005050506000250F8DC
:1003D00050F8500509090600FF2070A8A07028A851
:1003E000702005070706000078A8B05068A890059F
:1003F00007070600006090A040A89068010303066C
:1004000002058080800309090601FF20408080806A
:10041000808040200309090601FF80402020202021
:1004200020408005050506000220A870A8200505CB
:10043000050600012020F820200204040601FEC069
:10044000C04080030101060103E00202020602002F
:10045000C0C0050A0A0600FE08081010202040400F
:100460008080050707060000708898A8C888700576
:10047000070706000020E020202020F805070706D7
:100480000000708808102040F8050707060000707B
:100490008808300888700507070600001030509063
:1004A000F81038050707060000F880F00808887083
:1004B0000507070600007080F08888887005070728
:1004C000060000F808081020202005070706000095
:1004D0007088887088887005070706000070888813
:1004E00088780870020505060200C0C000C0C0027E
:1004F00007070601FEC0C000C0C040800407070611
:10050000010010204080402010050303060002F87F
:1005100000F80407070601008040201020408005F5
:10052000070706000070880810200020050707064E
:1005300000007088B8A8B88078050707060000207A
:10054000505088F88888050707060000F08888F072
:100550008888F00507070600007088808080887012
:10056000050707060000F08888888888F0050707D7
:10057000060000F88080F08080F80507070600007C
:10058000F88080F080808005070706000070888072
:1005900098888870050707060000888888F888888A
:1005A00088050707060000F82020202020F805070E
:1005B0000706000008080808888870050707060075
:1005C000008890A0C0A090880507070600008080E2
:1005D00080808080F805070706000088D8A8A888D2
:1005E000888805070706000088C8A89888888805B5
:1005F0000707060000708888888888700507070646
:100600000000F08888F08080800508080600FF70F0
:1006100088888888A87008050707060000F0888881
:10062000F0888888050707060000708880700888B1
:1006300070050707060000F820202020202005076D
:1006400007060000888888888888700507070600E4
:1006500000888888505020200507070600008888F9
:1006600088A8A8D888050707060000888850205069
:100670008888050707060000888888502020200504
:100680000707060000F80810204080F80209090654
:1006900002FFC080808080808080C0050A0A060139
:1006A000FE80804040202010100808020909060141
:1006B000FFC040404040404040C0050303060004E6
:1006C0002050880601010600FEFC02020206010617
:1006D00080400505050600007888889868050707AA
:1006E0000600008080F0888888F005050506000077
:1006F00070888080780507070600000808788888D9
:1007000088780505050600007088F88078040707DA
:100710000601003040E0404040400507070600FE6B
:10072000788888887808700507070600008080F0C0
:10073000888888880307070601004000C0404040C1
:10074000E00309090600FE2000602020202020C0D0
:10075000050707060000808090A0E0908803070747
:10076000060100C04040404040E00505050600008D
:10077000F0A8A8A8A8050505060000B0C8888888C4
:1007800005050506000070888888700507070600C3
:10079000FEF0888888F080800507070600FE7888CC
:1007A0008888780808050505060000B0C8808080A4
:1007B00005050506000078807008F00407070601AB
:1007C000004040E0404040300505050600008888B4
:1007D00088986805050506000088885050200505A2
:1007E00005060000A8A8A8A8500505050600008871
:1007F000502050880507070600FE888888887808FA
:1008000070050505060000F8102040F8030B0B06E4
:1008100001FE204040404080404040402001090906
:100820000602FF808080808080808080030B0B0622
:1008300001FE804040404020404040408005020290
:1008400006000368B0000000060000004841FCF309
:1008500023000000002A3A0024FA23001412362054
:100860000611070E001F0F801F9F800F9F00079E1D
:100870000003FC0081F810FEF7F0FFFFF0FFFFF02F
:10088000F9F9F001F80003FC00079E000F9F001F1C
:100890008F801F0F80070E001D1D74310A00000796
:1008A000000000070000000700000007000000072C
:1008B000000000070000000700000007000000071C
:1008C000000000070000000700000007000000070C
:1008D0000000FFFFFFF8FFFFFFF8FFFFFFF8000732
:1008E00000000007000000070000000700000007EC
:1008F00000000007000000070000000700000007DC
:1009000000000007000000070000000700000007CB
:1009100000000B0C180F02FA0FE00FC01FC01F8061
:100920001F803F003F003E007E007C007C00F800FE
:100930000D060C110209FFF8FFF8FFF8FFF8FFF8A9
:10094000FFF80706060F0500FEFEFEFEFEFE11275D
:10095000751502FD000F80000F00001F00001F0032
:10096000001E00003E00003E00003E00007C000033
:100970007C00007C0000780000F80000F80000F027
:100980000001F00001F00001F00003E00003E000CE
:1009900003E00003C00007C00007C0000780000F8D
:1009A00080000F80000F80001F00001F00001F004C
:1009B000003E00003E00003E00003C00007C0000C5
:1009C0007C00007C0000F8000019238C1C0201014F
:1009D000FF800007FFE0000FFFF0001FFFF8001F7F
:1009E000FFFC003F81FC003F00FE007F007E007E98
:1009F000007E007E003F007E003F00FE003F00FEC4
:100A0000003F00FE003F00FE003F80FE003F80FEF2
:100A1000003F80FE003F80FE003F80FE003F80FEE2
:100A2000003F80FE003F00FE003F00FE003F007ED2
:100A3000003F007E003F007E007F007F007E003F81
:100A400000FE003F81FC001FFFFC001FFFF8000FAD
:100A5000FFF00007FFE00001FF80000F23461C05A8
:100A60000000FE01FE07FE0FFE3FFEFFFEFFFEFE42
:100A7000FEFCFEF0FEC0FE00FE00FE00FE00FE00DA
:100A8000FE00FE00FE00FE00FE00FE00FE00FE0076
:100A9000FE00FE00FE00FE00FE00FE00FE00FE0066
:100AA000FE00FE00FE00FE19238C1C020100FFE088
:100AB0000003FFF80007FFFC000FFFFE001FFFFF11
:100AC000003FC0FF003F803F803F003F807F003FEE
:100AD0008000003F8000003F8000003F8000007FDA
:100AE0000000007F000000FF000001FE000003FC8A
:100AF000000007FC00000FF800001FF000003FE0BE
:100B000000007FC00001FF000003FE000007FC00A2
:100B1000000FF000003FE000007F800000FF0000B9
:100B200000FFFFFF80FFFFFF80FFFFFF80FFFFFF51
:100B300080FFFFFF80FFFFFF801823691C02010375
:100B4000FF800FFFE01FFFF03FFFF87FFFFC7F03F8
:100B5000FCFE01FCFE00FCFE00FE0000FE0000FEAC
:100B60000001FC0001FC000FF800FFF000FFC000D6
:100B7000FF8000FFE000FFF80003FC0000FE000023
:100B8000FE00007E00007F00007FFE007FFE007FF1
:100B9000FE00FEFF00FE7F01FC7FFFFC3FFFF81F11
:100BA000FFF00FFFE003FF801A238C1C01000007F9
:100BB000FC00000FFC00001FFC00001FFC00003FB9
:100BC000FC00003FFC00007FFC0000FDFC0000FD7D
:100BD000FC0001F9FC0001F9FC0003F1FC0007F145
:100BE000FC0007E1FC000FC1FC000FC1FC001F81ED
:100BF000FC003F81FC003F01FC007E01FC00FE0187
:100C0000FC00FC01FC00FFFFFFC0FFFFFFC0FFFF77
:100C1000FFC0FFFFFFC0FFFFFFC0FFFFFFC00001DD
:100C2000FC000001FC000001FC000001FC000001D0
:100C3000FC000001FC000001FC001823691C0200FC
:100C40007FFFFC7FFFFC7FFFFC7FFFFC7FFFFC7FC3
:100C5000FFFC7F00007F00007F00007F00007F001E
:100C6000007F00007F1FC07F7FF07FFFF87FFFFCC9
:100C70007FFFFC7FC1FE7F00FE7F007F7E007F0044
:100C8000007F00007F00007F00007F00007FFE00EB
:100C90007FFE00FEFE00FEFF01FC7FFFFC7FFFF8F1
:100CA0003FFFF00FFFC007FF8019238C1C020100DB
:100CB000FFC00003FFF00007FFF8000FFFFC001F5C
:100CC000FFFE001FE0FE003FC07F003F807F007FEF
:100CD0000000007F0000007F0000007E000000FE9A
:100CE0001FC000FE7FF000FEFFF800FEFFFC00FFCB
:100CF000FFFE00FFE1FE00FFC0FF00FF807F00FF5E
:100D0000003F00FF003F80FF003F80FF003F80FF6B
:100D1000003F807F003F007F003F007F807F007F9B
:100D2000807F003FC0FE001FFFFC001FFFFC000F84
:100D3000FFF80007FFE00001FF80001823691C0294
:100D400000FFFFFFFFFFFFFFFFFFFFFFFFFFFFFFB2
:100D5000FFFFFF00007F00007F0000FE0000FE009C
:100D600001FE0001FC0003FC0003F80007F8000787
:100D7000F0000FF0000FF0001FE0001FE0003FC088
:100D8000003FC0003F80007F80007F0000FF000028
:100D9000FF0001FE0001FE0003FC0003FC0007F859
:100DA0000007F8000FF8000FF00019238C1C020157
:100DB00003FFC0000FFFF0001FFFFC003FFFFE001D
:100DC0003FFFFE007FC1FF007F80FF007F007F00AC
:100DD0007F007F007F007F007F007F007F007F001B
:100DE0003F80FE003FC1FC000FFFF80007FFE0005E
:100DF00001FFC0000FFFF0001FFFF8003FC1FE0021
:100E00007F80FE007F007F00FE003F00FE003F006D
:100E1000FE003F80FE003F80FE003F80FF007F809D
:100E2000FF007F007F80FF007FFFFF003FFFFE008D
:100E30003FFFFC000FFFF80003FFE00019238C1CAC
:100E4000020101FFC00007FFE0000FFFF8001FFFD5
:100E5000FC003FFFFC007F81FE007F00FE007E0063
:100E6000FF00FE007F00FE007F00FE007F80FE008E
:100E70007F80FE007F80FE007F80FE00FF807F007D
:100E8000FF807F83FF803FFFFF803FFFBF801FFF0A
:100E9000BF800FFF3F8001F83F8000003F0000004F
:100EA0007F0000007F0000007F007F00FE007F00C9
:100EB000FE007F01FE003F83FC001FFFFC001FFFC0
:100EC000F8000FFFF00007FFE00001FF80000718A7
:100ED00018100700FEFEFEFEFEFE000000000000EF
:100EE000000000000000FEFEFEFEFEFE0000000806
:100EF00000020100000304070000000000000000E1
:100F000001020408102040800102040810200102A0
:100F1000040810200404040404040404020202026D
:100F20000202030303030303000000002300260062
:100F3000290000000000250028002B000000000010
:100F4000240027002A0087143D291A1511241FBEEA
:100F5000CFEFD8E0DEBFCDBF12E0A0E0B1E0E0EF20
:100F6000FDE602C005900D92A837B107D9F725E03C
:100F7000A8E7B2E001C01D92A332B207E1F71FE07B
:100F8000CAE4DFE004C02297FE010E945731C63454
:100F9000D107C9F70E94422D0C94EB360C94000047
:100FA000CF93DF93EC01262F4CAD6BAD04960E94DE
:100FB000E1222BAD992787FD9095820F911D8BAF74
:100FC00081E090E0DF91CF910895DC01ED91FC91FB
:100FD0000190F081E02D0994FC01808191810C94B5
:100FE000F8350F931F93CF93DF9300D0CDB7DEB7C3
:100FF0008B019A838983CE0101960E94EC07F80148
:101000008083C8010F900F90DF91CF911F910F91B6
:101010000895CF92DF92EF92FF920F931F93CF9399
:10102000DF9300D000D0CDB7DEB78C017B016C011F
:1010300084E0C80ED11C1A830983CE0101966B830C
:101040007C830E94EC07F70181937F010F5F1F4FA4
:101050006B817C810C151D0571F7CB010F900F90F2
:101060000F900F90DF91CF911F910F91FF90EF9014
:10107000DF90CF900895CF92DF92EF92FF920F937F
:101080001F93CF93DF9300D000D0CDB7DEB78C0194
:101090007B016C018EE1C80ED11C1A830983CE013D
:1010A00001966B837C830E94EC07F70181937F019B
:1010B0000F5F1F4F6B817C810C151D0571F7CB01F4
:1010C0000F900F900F900F90DF91CF911F910F9184
:1010D000FF90EF90DF90CF900895EF92FF920F93E3
:1010E0001F93CF93DF9300D0CDB7DEB77C018B0188
:1010F0009A838983CE0101960E94EC07F8018083D0
:10110000FFEFEF1AFF0AFA82E982CE0101960E94F0
:10111000EC07F8018183C8010F900F90DF91CF9108
:101120001F910F91FF90EF9008950F931F93CF930E
:10113000DF931F92CDB7DEB78C0169830E94EC0765
:101140006981681729F0F801808191810E94003639
:10115000C8010F90DF91CF911F910F910895EF92E9
:10116000FF920F931F93CF93DF9300D0CDB7DEB7DD
:101170007C018B01FB0160819A838983CE010196FA
:101180000E949508F8016181FFEFEF1AFF0AFA82C9
:10119000E982CE0101960E949508C8010F900F9038
:1011A000DF91CF911F910F91FF90EF900895BF9223
:1011B000CF92DF92EF92FF920F931F93CF93DF9323
:1011C00000D01F92CDB7DEB78C01B62EE62EF72EDB
:1011D0006C0184E0C80ED11CF70161917F011A8374
:1011E0000983CE0101967B830E9495080F5F1F4FF4
:1011F0007B810C151D0581F78B2D972F0F900F907C
:101200000F90DF91CF911F910F91FF90EF90DF90A2
:10121000CF90BF9008950F931F93CF93DF9300D08B
:10122000CDB7DEB78B01FB0160819A838983CE0144
:1012300001960E949508C8010F900F90DF91CF9101
:101240001F910F9108958091B403811105C080EA28
:101250009BEBADE0B0E004C088E99AE3A0E0B0E029
:1012600080932F0390933003A0933103B093320304
:101270006FEA73E084E090E00E9409086091AF0398
:101280007091B0038091B1039091B2039B01AC01C6
:101290000E940430882341F01092AF031092B003F3
:1012A0001092B1031092B2036BEA73E088E090E011
:1012B0000E9409086091AB037091AC038091AD036B
:1012C0009091AE039B01AC010E940430882341F051
:1012D0001092AB031092AC031092AD031092AE03C8
:1012E00008956FEA73E084E090E00C94D708CF9201
:1012F000DF92EF92FF920F931F93CF93DF93C090F3
:10130000AB03D090AC03E090AD03F090AE0300913E
:10131000AF031091B003D091B103C091B203980113
:101320004D2F5C2FB601C7010E94062F18161CF422
:101330008601DE2DCF2DB8018D2F9C2FDF91CF910F
:101340001F910F91FF90EF90DF90CF900895FF9243
:101350000F931F93CF93DF931F92CDB7DEB7198200
:101360000CE010E0F12CBE016F5F7F4FC8010E94BE
:10137000F107FC018081882331F08981F81618F487
:101380008F3F09F0F82E0F5F1F4F0031110559F7FD
:101390008F2D0F90DF91CF911F910F91FF900895A6
:1013A000FF920F931F93CF93DF9300D01F92CDB77F
:1013B000DEB71B820CE010E0F12CBE016D5F7F4FA9
:1013C000C8010E94F107FC018081882331F08B81E4
:1013D000F81618F48F3F09F0F82E0F5F1F4F0031F9
:1013E000110559F72F2D30E02F5F3F4F3A832983A6
:1013F000BE016F5F7F4F8DE090E00E94AF0881E0FB
:101400008F0D0F900F900F90DF91CF911F910F9143
:10141000FF9008950F931F93CF93DF931F92CDB743
:10142000DEB70E9471090E94D009909115018913BD
:101430002CC00CE010E01982BE016F5F7F4FC80125
:101440000E940B090F5F1F4F00311105A1F76FEAD2
:1014500073E088E090E00E94D7088091AF039091FC
:10146000B003A091B103B091B2038093AB0390930A
:10147000AC03A093AD03B093AE031092AF031092F0
:10148000B0031092B1031092B2030F90DF91CF918D
:101490001F910F910895CF92DF92EF92FF928AE908
:1014A00093E00E943D1B6B017C016EEF72E082E8CD
:1014B00094E00E94BE2922E030E0B701A60182E854
:1014C00094E00E94942B82E894E00E94EA2989E843
:1014D00093E00E943D1B6B017C0169EF72E082E8A2
:1014E00094E00E94BE2922E030E0B701A60182E824
:1014F00094E00E94942B82E894E00E94EA2989E813
:1015000093E00E943D1B6B017C018AE993E00E94FD
:101510003D1B9B01AC01C701B6010E94522D6B011E
:101520007C0164EF72E082E894E00E94BE2922E030
:1015300030E0B701A60182E894E00E94942B82E893
:1015400094E00E94EA29C090AF03D090B003E090ED
:10155000B103F090B2036FEE72E082E894E00E9473
:10156000BE2922E030E0B701A60182E894E00E94A3
:10157000942B82E894E00E94EA29C090AB03D090BB
:10158000AC03E090AD03F090AE036AEE72E082E847
:1015900094E00E94BE2922E030E0B701A60182E873
:1015A00094E00E94942B82E894E00E94EA2988E764
:1015B00093E00E943D1B6B017C0165EE72E082E8C6
:1015C00094E00E94BE2922E030E0B701A60182E843
:1015D00094E00E94942B82E894E00E94EA290E9401
:1015E000A709F82E60EE72E082E894E00E94BE291E
:1015F0004AE050E06F2D82E894E00E949C2A82E845
:1016000094E00E94EA29E0903303F09034036BEDFC
:1016100072E082E894E00E94BE294AE050E0B701FF
:1016200082E894E00E94A32A82E894E0FF90EF9081
:10163000DF90CF900C94EA2940E855E260E070E03A
:1016400087E393E00E94401D61E082E00E9427272B
:1016500061E082E00C94602787E393E00E94CE1D56
:1016600061E082E00E94272760E082E00C9460271E
:101670000E942C0B68EE73E080E090E00E946C26E4
:101680000C941C0BCF93DF9300D0CDB7DEB78AE16B
:1016900090E09A838983CE0101960E94EC0791E045
:1016A000813009F090E0892F0F900F90DF91CF915A
:1016B00008956F927F928F929F92AF92BF92CF9236
:1016C000DF92EF92FF920F931F93CF93DF93CDB7EB
:1016D000DEB7C654D1090FB6F894DEBF0FBECDBF3A
:1016E0005C01762E672ECE0101967C018CE3C82E1C
:1016F000D12C9E2C8F2C8E01075D1F4FDAA6C9A618
:10170000C8010E94EC07F70181937F01FFEFCF1A18
:10171000DF0A84E6C816D10489F7B80184E690E0B0
:101720000E943B0829812F5F223008F443C082E8E1
:1017300094E00E94EA2965E672E082E894E00E9463
:10174000BE29692D782D82E894E00E94E1296BE2A0
:1017500071E082E894E00E94E129B80182E894E017
:101760000E94E12982E894E00E94EA296F927F9228
:101770001F930F938F929F922DE231E03F932F930F
:10178000BF92AF920E9404346FE572E082E894E069
:101790000E94BE29B50182E894E00E94E12982E816
:1017A00094E00E94EA290FB6F894DEBF0FBECDBFC9
:1017B00081E001C080E0CA5BDF4F0FB6F894DEBF66
:1017C0000FBECDBFDF91CF911F910F91FF90EF9092
:1017D000DF90CF90BF90AF909F908F907F906F9051
:1017E0000895BF92CF92DF92EF92FF920F931F93D3
:1017F000CF93DF9300D0CDB7DEB77C01D62EC72EB6
:1018000004EB10E01A830983CE0101960E94EC07D5
:10181000B82E82E894E00E94EA2965E572E082E849
:1018200094E00E94BE294AE050E06B2D82E894E0EB
:101830000E949C2A82E894E00E94EA291A83098384
:10184000CE0101960E94EC07813009F5CF92DF921C
:1018500021E631E03F932F93FF92EF920E940434F0
:101860006FE472E082E894E00E94BE29B70182E84A
:1018700094E00E94E12982E894E00E94EA290F9016
:101880000F900F900F900F900F9081E001C080E0BB
:101890000F900F90DF91CF911F910F91FF90EF90DC
:1018A000DF90CF90BF900895EF92FF920F931F9318
:1018B000CF93DF9300D0CDB7DEB77B018C01E81A60
:1018C000F90AC701800F911FF80121918F0122238E
:1018D00039F02983BE016F5F7F4F0E940B09F1CF62
:1018E0001A821982BE016F5F7F4F0E94AF080F906E
:1018F0000F90DF91CF911F910F91FF90EF9008957E
:10190000FC01019620812032D9F3CF010895CF93B5
:10191000DF9300D0CDB7DEB70E946D339A83898301
:10192000BE016F5F7F4F85EB90E00E94AF080F9084
:101930000F90DF91CF910895CF93DF9300D000D027
:10194000CDB7DEB719821A821B821C82BE016F5F7F
:101950007F4F84E090E00E94D70819821A821B8290
:101960001C82BE016F5F7F4F88E090E00E94D70825
:101970001092AF031092B0031092B1031092B20311
:101980001092AB031092AC031092AD031092AE0311
:101990000F900F900F900F90DF91CF910895CF93FC
:1019A000DF930E946D33EC018F3F91054CF4873932
:1019B000910514F0C6E9D0E0D7FF02C0C0E0D0E046
:1019C000C09336036FE971E082E894E00E94BE297B
:1019D0004AE050E06C2F82E894E00E949C2A82E862
:1019E00094E00E94EA29609136038AE390E00E9425
:1019F000003680E090E0DF91CF910895DF92EF9282
:101A0000FF920F931F93CF93DF9300D0CDB7DEB734
:101A10007C0100E110E0D12CBE016F5F7F4FC80157
:101A20000E946D0829813A81E216F30644F0D394AE
:101A30000E5F1F4F85E0D812EFCF85E001C08D2DDE
:101A40000F900F90DF91CF911F910F91FF90EF902A
:101A5000DF900895CF92DF92EF92FF920F931F9342
:101A6000CF93DF93CDB7DEB728970FB6F894DEBFDC
:101A70000FBECDBF8C016CE671E0CE0101960E94D5
:101A80004B2CF8018081843629F48DE691E00E9488
:101A90002A0D35C0D12C7801F8016081262F33271B
:101AA00027FD3095205331092A30310528F4CE0125
:101AB00001960E94F02C1AC089819A810E946D3390
:101AC00098878F83CC24C394CD0C8D2D90E00896FD
:101AD000BE01695F7F4F880F991F0E94AF086CE6B7
:101AE00071E0CE0101960E94822CDC2C0F5F1F4F0B
:101AF000F7018081882319F0F4E0FD1560F6CE012E
:101B000001960E94DD2B28960FB6F894DEBF0FBE1B
:101B1000CDBFDF91CF911F910F91FF90EF90DF909C
:101B2000CF900895CF93DF9300D0CDB7DEB7BE013D
:101B30006F5F7F4F80E190E00E946D0889819A81FC
:101B4000019621F48DE691E00E942A0D0F900F90EE
:101B5000DF91CF9108950F931F93CF93DF930E944E
:101B6000920D82ED92E00E942E1E0AEB12E0C0E080
:101B7000D0E0F80121913191419151918F01BE0145
:101B800082ED92E00E94FE1E2196C630D10589F7B3
:101B900064E182ED92E00E944F1F82ED92E0DF91BE
:101BA000CF911F910F910C943B1ECF93C0911A01BE
:101BB00066E171E082E894E00E94BE294AE050E0CC
:101BC0006C2F82E894E00E949C2A82E894E0CF91F6
:101BD0000C94EA290E944B0A0E94D50D82E894E0F9
:101BE0000C94EA29CF93C091350381E0C827C093B4
:101BF000350382E894E00E94EA2960E771E082E818
:101C000094E00E94BE296C2F70E04AE050E082E828
:101C100094E00E94872A82E894E00E94EA29809159
:101C2000350381110E94EA0D80E090E0CF91089584
:101C3000CF93DF9300D0CDB7DEB787EB90E09A83E8
:101C40008983CE0101960E94EC078F3F69F0682FCF
:101C500070E080E090E00E94562E20E030E040E20C
:101C600051E40E94BB2D04C060E070E080E89FE377
:101C70000F900F90DF91CF910895CF92DF92EF9266
:101C8000FF92CF93DF9380913303909134030097B9
:101C900081F10E94FE0CD82F84E0D89FF00111241E
:101CA000E654FD4FC080D180E280F380C0E06C2F0D
:101CB00070E0A701960182ED92E00E94FE1ECF5FC8
:101CC000DC17A8F7C63058F46C2F70E020E030E045
:101CD000A90182ED92E00E94FE1ECF5FF3CF82ED5C
:101CE00092E0DF91CF91FF90EF90DF90CF900C9436
:101CF0003B1EDF91CF91FF90EF90DF90CF90089542
:101D00004F925F926F927F928F929F92AF92BF920B
:101D1000CF92DF92EF92FF920F931F93CF93DF93B7
:101D200061E08CE792E00E94CC248091B5028111A1
:101D300007C081E08093B5028CE792E00E946B249B
:101D40006FEF8CE792E00E94B5248091B50281117B
:101D500007C081E08093B5028CE792E00E946B247B
:101D60008CE792E00E94A124CFE2D7E006E438EEAF
:101D7000C32E33E0D32EE12CF12C14E680911A010E
:101D8000813019F46BE973E002C06BE478E08CE712
:101D900092E00E944F236091330370913403683EB8
:101DA00023E0720710F481E201C085E08093B30262
:101DB000C093B4026115710531F04AE050E088E744
:101DC00092E00E94A32A6BE973E08CE792E00E9404
:101DD0004F231092B302D093B40260911801709116
:101DE000190188E792E00E94E1298091B3038111F3
:101DF00017C00093B302D093B4026CE071E088E79F
:101E000092E00E94BE298091330390913403892B84
:101E100039F40E943D26613A7F4081059105B8F46E
:101E20008CE792E00E94A6248111A8CFDF91CF9188
:101E30001F910F91FF90EF90DF90CF90BF90AF90E8
:101E40009F908F907F906F905F904F9008954090FB
:101E50002F035090300360903103709032030E9442
:101E60003D264B015C016BE478E08CE792E00E9438
:101E70004F231092B302C093B402C301B201681998
:101E800079098A099B09A70196010E941431BA01B8
:101E9000A9012AE030E088E792E00E948F2A6BE9EE
:101EA00073E08CE792E00E944F231093B302C0933B
:101EB000B40268E071E088E792E00E94BE29B0CFEA
:101EC000CF93DF93EC010E94420B882341F0D09323
:101ED0001901C0931801DF91CF910C94800EDF910E
:101EE000CF910895CF93DF9300D000D000D0CDB72D
:101EF000DEB7BC01CE0101960E944B2CCE010196AB
:101F00000E94362D7093340360933303CE01019603
:101F10000E94DD2B0E943D0E0E94800E26960FB679
:101F2000F894DEBF0FBECDBFDF91CF91089520E0C2
:101F300030E04EE852E40E94BB2D23E032ED42E255
:101F400050E40E94532D9B01AC0160E070E080E200
:101F500091E40E94B82F0E94232ECB010895CF92C6
:101F6000DF92EF92FF920E9477096B017C018AE970
:101F700093E00E943D1B9B01AC01C701B6010E948A
:101F8000522D0E94970F9093340380933303FF9058
:101F9000EF90DF90CF900895BC01882777FD809562
:101FA000982F0E94562E0E940A2F23E032ED42E223
:101FB00050E40E94522D20E030E04EE852E40E94AE
:101FC000552F08958F929F92AF92BF92CF92DF923A
:101FD000EF92FF928AE993E00E943D1B6B017C0126
:101FE00080911601909117010E94CC0F9B01AC01CA
:101FF000C701B6010E94532D6B017C012091AF03F4
:102000003091B0034091B1035091B2030E94062F6A
:1020100018169CF58090270390902803A090290320
:10202000B0902A0381149104A104B10459F40E94D0
:102030003D26609327037093280380932903909390
:102040002A031BC00E943D26681979098A099B0949
:1020500061367A4E8105910580F0C092AF03D0922F
:10206000B003E092B103F092B203109227031092F2
:1020700028031092290310922A03FF90EF90DF901B
:10208000CF90BF90AF909F908F9008950F931F9324
:10209000CF93DF9300D000D0CDB7DEB78C018AE9B3
:1020A00093E00E943D1B9B01AC01C80129833A8348
:1020B0004B835C830E946D330E94CC0F29813A814F
:1020C0004B815C810E94532D6093AF037093B003EA
:1020D0008093B1039093B2030F900F900F900F90E5
:1020E000DF91CF911F910F910C947109CF92DF92E4
:1020F000EF92FF926B017C0188E793E00E943D1B09
:1021000020E030E048E051E40E94062F1816ACF4BD
:1021100088E793E00E943D1B9B01AC0160E070E00A
:1021200088E192E40E94522D2AE939E949E15FE30E
:102130000E94552F9B01AC0104C02AE939E94DE802
:1021400051E4C701B6010E94532DFF90EF90DF903C
:10215000CF9008958F929F92AF92BF92CF92DF92CD
:10216000EF92FF926B017C0120E030E040E251E40D
:102170000E94552F4B015C01A70196016DEC7CEC90
:1021800084EA90E40E94522D9B01AC01C501B40188
:102190000E94BB2D20E030E04AE754E40E94552F16
:1021A00020E030E44CE156E40E94BB2D0E94152F44
:1021B00020E030E443E555E40E94BB2D2FE03FECE6
:1021C0004BE55BE30E94532D9B01AC0160E070E0A6
:1021D00080E89FE30E94BB2D23E333E948E853E402
:1021E0000E94522DFF90EF90DF90CF90BF90AF9064
:1021F0009F908F9008954F925F926F927F928F92EF
:102200009F92AF92BF92CF92DF92EF92FF92CF93C5
:10221000DF93D82FC62F262F30E0A8EEB3E00E9420
:102220005B312B013C01812C912C5401C12CD12C10
:10223000760184149504A604B70494F48D2F0E94AB
:10224000E126AC01662757FD6095762FC40ED51E9A
:10225000E61EF71E8FEF881A980AA80AB80AE9CF77
:10226000C701B6010E94542E6B017C0188EE93E0F9
:10227000C89FB001C99F700D1124882777FD8095F4
:10228000982F0E94562E9B01AC01C701B6010E94F7
:10229000BB2DDF91CF91FF90EF90DF90CF90BF905B
:1022A000AF909F908F907F906F905F904F90089528
:1022B000CF92DF92EF92FF926AE081E190E00E947C
:1022C000FB109B01AC0160E070EC8FE794E40E948E
:1022D000522D2DEC3CEC44EA50E40E94552F20E0B6
:1022E00030E040E85AE30E94552F0E94AA10AB014B
:1022F000BC0188E793E00E94C01A6AE080E190E0A8
:102300000E94FB102DEC3CEC44EA50E40E94552F57
:1023100020E030E040E85AE30E94552F26E636E6FA
:1023200046EB50E40E94BB2D20E030E04AE754E445
:102330000E94552F6B017C010E947610AB01BC01FD
:102340008AE993E00E94C01AB701A60189E893E0E8
:10235000FF90EF90DF90CF900C94C01ACF92DF9255
:10236000EF92FF920E9458118091B30381110FC028
:102370000E943D26C0902F03D0903003E09031039F
:10238000F0903203C616D706E806F90658F40E9404
:10239000E20F8091B303811105C00E94710981E0B1
:1023A0008093B3030E94AF0FC0902B03D0902C03F7
:1023B000E0902D03F0902E030E943D266C197D09BC
:1023C0008E099F0961387E4E8643910580F00E94F8
:1023D0003D2660932B0370932C0380932D039093E1
:1023E0002E03FF90EF90DF90CF900C940A0AFF909D
:1023F000EF90DF90CF9008956F927F92AF92BF924F
:10240000CF92DF92EF92FF920F931F93CF93DF93C0
:1024100000D0CDB7DEB7809136038F3F09F05DC0A5
:1024200061E08EE090E00E94FB10AB01BC0187E60A
:1024300093E00E94C01A8BE390E09A838983CE01D7
:1024400001960E94EC07813029F460E9662E77241A
:10245000739404C058EE652E53E0752E87E693E022
:102460000E943D1B6B017C010E94180E9B01AC0178
:10247000C701B6010E94552F0E94232E6B307105B3
:102480003CF4662319F060931A0129C081E025C04D
:1024900073010027F7FC0095102F661677060CF4E1
:1024A000B301882777FD8095982F20910A011F920C
:1024B0001F921F922F934BE0A42EB12CC12CD12C34
:1024C0002BE030E040E050E00E94962B60931A0130
:1024D0000F900F900F900F9002C080931A0160919F
:1024E0001A0182ED92E00E944F1F82ED92E00F9060
:1024F0000F90DF91CF911F910F91FF90EF90DF90A0
:10250000CF90BF90AF907F906F900C943B1ECF9276
:10251000DF92EF92FF92C090B602D090B702E090A7
:10252000B802F090B9020E943D266C197D098E090F
:102530009F09693873418105910590F00E943D26FD
:102540006093B6027093B7028093B8029093B90279
:102550000E943D0EFF90EF90DF90CF900C94FC1105
:10256000FF90EF90DF90CF9008950E942A0D0E9477
:10257000871269E971E082E894E00C94BE2968EF63
:1025800070E082E894E00E94BE296CE271E080E095
:1025900090E00E946C260C9400000895CF93DF9386
:1025A000C0E0D0E06FEFCE010E9400362196CC3221
:1025B00081E0D807B9F7DF91CF9108950E94CE123C
:1025C00060E871E082E894E00E94BE290E94BF1298
:1025D00080E090E00895CF93DF9300D01F92CDB7B5
:1025E000DEB7BE016D5F7F4F80E090E00E94F10793
:1025F000FC0180818B83833069F00E94CE1283E0DE
:1026000090E09A838983BE016F5F7F4F80E090E006
:102610000E94AF080F900F900F90DF91CF91089517
:10262000CF93DF9300D0CDB7DEB726E040E855E288
:1026300060E070E082E894E00E9479288091B40321
:10264000882331F061E573E082E894E00E94BE29BE
:1026500067E373E082E894E00E94BE2963E073E0E0
:1026600082E894E00E94BE298AE390E09A838983FD
:10267000CE0101960E94EC07809336030E94EB1274
:102680000E94AB0D0E942C0B0E9423098CE691E066
:102690000E94600F0F900F90DF91CF910895CF921D
:1026A000DF92EF92FF926B017C010E94232E88271C
:1026B00077FD8095982F0E94562E9B01AC01C70193
:1026C000B6010E94522D20E030E040E251E40E9429
:1026D000552F0E94232ECB01FF90EF90DF90CF90DB
:1026E00008952F923F924F925F926F927F928F92B6
:1026F0009F92AF92BF92CF92DF92EF92FF920F9391
:102700001F93CF93DF93CDB7DEB7E4970FB6F8945E
:10271000DEBF0FBECDBF89AB9AAB8B01BE016F5F31
:102720007F4F8CE890E00E943B0882E894E00E9492
:10273000EA296AE672E082E894E00E94BE29BE01BE
:102740006F5F7F4F82E894E00E94E12982E894E085
:102750000E94EA2989818F5F823008F4BEC080918F
:10276000250390912603009761F0B801681B790B4F
:10277000882777FD8095982F0E94562EAB01BC01CB
:1027800003C040E050E0BA0186E593E00E94C01A21
:1027900087E693E00E943D1B6F8F78A389A39AA3DD
:1027A00086E593E00E943D1B0E944F131C0186E5C5
:1027B00093E00E943D1B2B013C0188E793E00E94BF
:1027C0003D1B0E944F138BA79CA788E793E00E94B4
:1027D0003D1B6BA37CA38DA39EA3C090AF03D090A1
:1027E000B003E090B103F090B203C701B6010E94BC
:1027F0004F138DA79EA78AE993E00E943D1B0E947C
:102800004F138FA798AB8AE993E00E943D1B4B01C1
:102810005C0189E893E00E943D1B0E944F139C01DC
:1028200089E893E02BAB3CAB0E943D1B6FA378A7DC
:1028300089A79AA76F8D78A189A19AA10E94232EBA
:102840007F936F933F922F92C301B2010E94232E78
:102850007F936F938CA58F939BA59F936BA17CA176
:102860008DA19EA10E94232E7F936F938EA58F939F
:102870009DA59F93C701B6010E94232E7F936F935E
:1028800088A98F939FA59F93C501B4010E94232E11
:102890007F936F933CA93F932BA92F936FA178A5AA
:1028A00089A59AA50E94232E7F936F931F930F9360
:1028B000CE0101969F938F9386E891E09F938F932B
:1028C0008AA98F9399A99F930E9404340FB6F89414
:1028D000DEBF0FBECDBF81E001C080E0E4960FB641
:1028E000F894DEBF0FBECDBFDF91CF911F910F9146
:1028F000FF90EF90DF90CF90BF90AF909F908F9020
:102900007F906F905F904F903F902F9008950F931E
:10291000CF93DF9364E08AE993E00E94AC1A64E00D
:1029200089E893E00E94AC1A64E088E793E00E9493
:10293000AC1A64E087E693E00E94AC1A64E086E596
:1029400093E00E94AC1A20E04AE069E087E393E05C
:102950000E94101D23E04FE066E070E082ED92E0FF
:102960000E94D01D40E06FEF80E00E94461F609300
:10297000BA027093BB028093BC029093BD0240E008
:102980006FEF84EB0E94461F6093BE027093BF02FC
:102990008093C0029093C10240E06FEF8FEF0E94DE
:1029A000461F6093C2027093C3028093C402909347
:1029B000C50240E068EC8FEF0E94461F6093C6029C
:1029C0007093C7028093C8029093C90240E068E701
:1029D0008FEF0E94461F6093CA027093CB028093D0
:1029E000CC029093CD0240E060E08FEF0E94461F42
:1029F0006093CE027093CF028093D0029093D10265
:102A000010927B0210927A02C8E7D2E08AE392E049
:102A10009983888308E027E046E06CE171E0CE010D
:102A20000E94901F82E492E099838883DF91CF9186
:102A30000F91089582ED92E00E941F1E87E393E0BC
:102A40000E94B71C86E593E00E947E1A87E693E019
:102A50000E947E1A88E793E00E947E1A89E893E03C
:102A60000E947E1A8AE993E00C947E1A8F929F92BC
:102A7000BF92CF92DF92EF92FF920F931F93CF936B
:102A8000DF9300D000D0CDB7DEB7182F092FB62EB8
:102A90002C8339834A835B830E943D266B017C0132
:102AA0002C8139814A815B81C20ED31EE41EF51E42
:102AB000812E902E0E943D266C157D058E059F056A
:102AC00040F587E393E00E94E61B892B99F387E3A7
:102AD00093E00E94581B282FBB2081F0843124F4FE
:102AE0008A3011F08D3051F4622F772767FD709591
:102AF00082E894E02C830E94E5072C81F401808118
:102B00002813D6CF8181882331F0FFEF8F1A9F0AD7
:102B1000D1CF80E001C081E00F900F900F900F9017
:102B2000DF91CF911F910F91FF90EF90DF90CF90A9
:102B3000BF909F908F90089569E772E082E894E0DB
:102B40000E94BE290E94380B28EB3BE040E050E099
:102B500060911B0180EF91E00E943615682F70E0B4
:102B60004AE050E082E894E00E94872A82E894E0FC
:102B70000E94EA2920E335E740E050E061E086EF7B
:102B800091E00E943615811104C00E942C0B80E058
:102B9000089562E772E082E894E00E94BE2981E035
:102BA0000895AF92BF92CF92DF92EF92FF920F9370
:102BB0001F93CF93DF93CDB7DEB7C659D1090FB6B8
:102BC000F894DEBF0FBECDBF7B016130710531F4DB
:102BD000BC01CE0101960E94711309C062307105DB
:102BE00009F07DC0BC01CE0101960E94590B8111F4
:102BF00003C08FEF9FEF7EC0C12CD12CCE01019678
:102C00005C0191E0E916F10419F40AE312E002C054
:102C10000DE212E069E172E087E393E00E94BE29D1
:102C2000B80187E393E00E94BE296AE472E087E37B
:102C300093E00E94BE2987E393E00E94EA2920EAFC
:102C40003FE040E050E061E082E191E00E94361513
:102C5000811108C0EFEFCE1ADE0AF7E0CF16D104DB
:102C600081F635C0F50101900020E9F78F01015090
:102C700011090A191B096DE072E087E393E00E94D5
:102C8000BE294AE050E0B80187E393E00E94A32AFE
:102C900087E393E00E94EA2920E737E140E050E033
:102CA00061E08DEF91E00E943615882399F2B5011D
:102CB00087E393E00E94E12920E737E140E050E01C
:102CC00061E08FEF91E00E943615882319F281E0D0
:102CD00090E0F7E0CF16D1046CF080E00BC0E3E0A9
:102CE000EE16F10409F088CFBC01CE0101960E94D6
:102CF000F10B7DCFCA56DF4F0FB6F894DEBF0FBE83
:102D0000CDBFDF91CF911F910F91FF90EF90DF909A
:102D1000CF90BF90AF9008950F931F93CF93DF9301
:102D20008C010E949C15811127C00E949C15811165
:102D300023C0C0E0D0E00E942C0B10932603009328
:102D40002503209719F486E092E013C0C130D10525
:102D500019F48FE292E00DC0CF3F8FEFD80719F43E
:102D60008FE092E006C0CF3F8FEFD807B4F489E13F
:102D700092E00E94600F11C061E070E0C8010E9403
:102D8000D115EC0162E070E0C8010E94D11563E04A
:102D900070E0C8010E94D115CECFCE01DF91CF9156
:102DA0001F910F9108958F929F92AF92BF92CF92F1
:102DB000DF92EF92FF920F931F93CF93DF9300D098
:102DC000CDB7DEB70E94420B811105C08FE192E0C2
:102DD0000E94600F5AC08091330390913403892B75
:102DE00009F453C0BE016F5F7F4F85EB90E00E94F6
:102DF0006D0889819A81029724F488E790E09A838C
:102E0000898309811A818090210390902203A090E8
:102E10002303B09024030E943D266B017C01C81857
:102E2000D908EA08FB0828EE33E0D8010E946A318D
:102E30006C157D058E059F0540F5809133039091BB
:102E400034030E948C167C0182E894E00E94EA29F7
:102E500064E072E082E894E00E94BE294AE050E01B
:102E6000B70182E894E00E94872A82E894E00E94F9
:102E7000EA290E942C0B0E943D2660932103709347
:102E8000220380932303909324030F900F90DF91EC
:102E9000CF911F910F91FF90EF90DF90CF90BF9057
:102EA000AF909F908F9008950F931F93CF93DF93D0
:102EB00000D0CDB7DEB78C011A821982BE016F5FD8
:102EC0007F4F8AE190E00E94AF086AEC72E087E3EE
:102ED00093E00E94BE2920E137E240E050E060919B
:102EE0001B0182E191E00E943615882309F449C054
:102EF00087E393E00E94CB1B66EC72E087E393E0EC
:102F00000E94BE2928EE33E040E050E060911B01B2
:102F100082E191E00E94361568EB72E087E393E06E
:102F20000E94BE29B80187E393E00E94E12987E36C
:102F300093E00E94EA2920E23EE440E050E0609104
:102F40001B018BE091E00E9436158823E9F067EAC7
:102F500072E087E393E00E94BE2981E090E09A83CB
:102F60008983BE016F5F7F4F8AE190E00E94AF08C6
:102F70006DE972E082E894E00E94BE2981E090E071
:102F800005C08FEF9FEF02C08EEF9FEF0F900F9065
:102F9000DF91CF911F910F910895CF92DF92EF9221
:102FA000FF92CF93DF93EC010E943D266B017C01E1
:102FB000CE01AA2797FDA095BA2FC80ED91EEA1EEA
:102FC000FB1EC0E00E943D266C157D058E059F0509
:102FD00008F582E894E00E949627892B99F3D1E0C6
:102FE000DC0F82E894E00E94AF27EC2FF0E0EB5179
:102FF000FD4F8083ED2FF0E0EC51FD4F80818D304F
:1030000029F0DB3331F08A3011F404C0DC2FCD2FEE
:10301000D9CFCBE3EC2FF0E0EB51FD4F10828C2F9A
:10302000DF91CF91FF90EF90DF90CF90089562E90C
:1030300072E082E894E00E94BE290E94380B87E388
:1030400093E00E94E61B892B49F087E393E00E94FE
:10305000581BBC0182E894E00E94E50782E894E0F6
:103060000E949627892B59F382E894E00E94AF27AB
:10307000682F87E393E00E94791BE1CFCF93DF9322
:1030800082E894E00E94EA2969E571E082E894E030
:103090000E94BE290E94380B20E137E240E050E058
:1030A00060911B0180EF91E00E943615811108C0EC
:1030B00060E471E082E894E0DF91CF910C94BE2946
:1030C00082E894E00E94F22768EE73E080E090E0EE
:1030D0000E946C2689EE92E00E94800C0E94541798
:1030E000EC0197FF13C064E271E082E894E00E9473
:1030F000BE294AE050E0BE0182E894E00E94872A9F
:1031000082E894E0DF91CF910C94EA298AE292E080
:103110000E94600FDF91CF9108951F93CF93DF93AB
:10312000CDB7DEB72C970FB6F894DEBF0FBECDBF7C
:1031300065EE72E0CE0107960E944B2C65EE72E0C0
:1031400082E894E00E94E12982E894E00E94EA2962
:103150006FEF71E0CE0101960E94BB2CBE016F5F44
:103160007F4FCE0107960E94272D182FCE01019682
:103170000E94DD2B112319F00E943E188BC16CEFC9
:1031800071E0CE0101960E94BB2CBE016F5F7F4FA4
:10319000CE0107960E94272D182FCE0101960E947E
:1031A000DD2B112339F087EE92E00E94800C0E9403
:1031B000B51270C166EF71E0CE0101960E94BB2C82
:1031C000BE016F5F7F4FCE0107960E94272D182FFB
:1031D000CE0101960E94DD2B112319F00E94F20D01
:1031E00059C160EF71E0CE0101960E94BB2CBE0177
:1031F0006F5F7F4FCE0107960E94272D182FCE01BB
:1032000001960E94DD2B112319F00E94DE1242C1AB
:103210006AEE71E0CE0101960E94BB2CBE016F5F89
:103220007F4FCE0107960E94272D182FCE010196C1
:103230000E94DD2B112339F08AEE92E00E94800C6F
:103240006CE870E01AC065EE71E0CE0101960E9454
:10325000BB2CBE016F5F7F4FCE0107960E94272DCA
:10326000182FCE0101960E94DD2B112349F089EE23
:1032700092E00E94800C6CE370E00E94540C0AC142
:1032800060EE71E0CE0101960E94BB2CBE016F5F23
:103290007F4FCE0107960E94272D182FCE01019651
:1032A0000E94DD2B112339F089EE92E00E94800C00
:1032B00064E670E0E2CF6BED71E0CE0101960E9412
:1032C000BB2CBE016F5F7F4FCE0107960E94272D5A
:1032D000182FCE0101960E94DD2B112329F087E3E0
:1032E00092E00E948C16D6C067ED71E0CE01019687
:1032F0000E94BB2CBE016F5F7F4FCE0107960E94DC
:10330000272D182FCE0101960E94DD2B112339F0B5
:1033100088EE92E00E94800C0E94CF0CBBC063ED4F
:1033200071E0CE0101960E94BB2CBE016F5F7F4F02
:10333000CE0107960E94272D182FCE0101960E94DC
:10334000DD2B112359F089EE92E00E946D338983C1
:10335000BE016F5F7F4F87EB90E09AC06DEC71E02C
:10336000CE0101960E94BB2CBE016F5F7F4FCE0144
:1033700007960E94272D182FCE0101960E94DD2B63
:1033800011110E94171869EC71E0CE0101960E949C
:10339000BB2CBE016F5F7F4FCE0107960E94272D89
:1033A000182FCE0101960E94DD2B112339F088EEF3
:1033B00092E00E94800C0E94720F6CC065EC71E07C
:1033C000CE0101960E94BB2CBE016F5F7F4FCE01E4
:1033D00007960E94272D182FCE0101960E94DD2B03
:1033E000112339F088EE92E00E94800C0E94461072
:1033F00051C061EC71E0CE0101960E94BB2CBE0170
:103400006F5F7F4FCE0107960E94272D182FCE01A8
:1034100001960E94DD2B112319F00E949C0C3AC0EA
:103420006DEB71E0CE0101960E94BB2CBE016F5F77
:103430007F4FCE0107960E94272D182FCE010196AF
:103440000E94DD2B112339F088EE92E00E94800C5F
:103450000E94870C1FC068EB71E0CE0101960E94AC
:10346000BB2CBE016F5F7F4FCE0107960E94272DB8
:10347000182FCE0101960E94DD2B112359F0809167
:10348000E90280538983BE016F5F7F4F84EB90E038
:103490000E940B0966EB71E082E894E00E94BE296D
:1034A00082E894E00E94EA29CE0107960E94DD2B73
:1034B0002C960FB6F894DEBF0FBECDBFDF91CF9133
:1034C0001F91089582E894E00E949627892B31F09D
:1034D00080E395E70E94CD170C948D1808950E9403
:1034E000AE110E9487128091350381110E94EA0D6E
:1034F0000E94800E0E94621A0C94D316FC018781F0
:103500009085009711F00C9414320895FC011182FB
:103510001282138214821582168240E050E060EC21
:103520007FE7418752876387748745875687678718
:10353000708B80E09081891770F4A781B08594E04A
:10354000899FA00DB11D11241D921D921D921C92E8
:1035500013978F5FEFCF0895CF93DF93EC016883CC
:1035600024E0629FC00111240E947C3198878F83E0
:10357000892B09F41882CE01DF91CF910C94861A21
:10358000AF92BF92CF92DF92EF92FF920F931F9371
:10359000CF93DF93EC016A017B010F811885011540
:1035A000110509F45FC08A81580194E0899FA00C3D
:1035B000B11C1124F50120813181428153816B813D
:1035C0007C818D819E810E94522D6B837C838D83B3
:1035D0009E83F501C082D182E282F382BA80F80133
:1035E00084E0B89EE00DF11D1124208131814281DB
:1035F00053816B817C818D819E810E94532D6B83D1
:103600007C838D839E83B394BA820881B01201C0FB
:103610001A821981111105C0CD86DE86EF86F88ADF
:103620000AC029853A854B855C85C701B6010E9491
:10363000B72D87FF05C0C986DA86EB86FC860EC0EB
:103640002D853E854F855889C701B6010E94062FFA
:10365000181624F4CD86DE86EF86F88A101710F44B
:103660001F5F1983DF91CF911F910F91FF90EF9012
:10367000DF90CF90BF90AF900895CF93DF93EC0190
:103680006981662371F070E080E090E00E94562E20
:103690009B01AC016B817C818D819E810E94BB2D41
:1036A00004C060E070E080EC9FE7DF91CF91089567
:1036B0002091F7033091F80328173907B9F4909156
:1036C000B5038091B603981789F0E091B503F0E057
:1036D000E954FC4F80812091B50330E02F5F3F4FCC
:1036E0002F7333272093B50390E008958FEF9FEF5A
:1036F00008951F93CF93DF93DC015C968D919C918D
:103700005D97009749F481E090E013969C938E9327
:10371000129780E090E03BC05196ED91FC9152975A
:1037200050962C915097322F30951FB75E964C9142
:103730005E9741FB772770F941FD6095F8944081D1
:10374000772311F0422B01C043234083EC012197E2
:10375000F1F748E0508160FF02C0522B01C05323B3
:103760005083EC012197F1F76695415099F78081DC
:10377000772311F0832301C0822B80831FBF5C96C7
:103780008D919C915D970197F1F781E090E0DF9139
:10379000CF911F91089508952091F7033091F80378
:1037A0002817390781F49091B5038091B6039817D3
:1037B00051F0E091B503F0E0E954FC4F8081992786
:1037C00087FD909508958FEF9FEF08952091F7035F
:1037D0003091F8032817390771F48091B6032091CE
:1037E000B50390E0805C9F4F821B910960E470E01C
:1037F0000E940031089580E090E00895E091F70381
:10380000F091F803E817F90769F4A389B4899C914A
:103810008589809589238C931092F8031092F70381
:1038200081E0089580E00895CF93DF93EC018A8DC5
:103830009B8D892BF1F08091F7039091F8038C1701
:103840009D07B9F0009711F00E94FE1B8E8D8E7FB0
:103850008E8F1092B6031092B503D093F803C093E5
:10386000F703EB89FC8980819D89892B808381E026
:1038700001C080E0DF91CF9108951F920F920FB6A3
:103880000F9211242F933F934F935F936F937F93E6
:103890008F939F93AF93BF93EF93FF93E091F703C1
:1038A000F091F803309709F451C0868DA685B7854D
:1038B000958581FF04C08C91892329F447C08C91A0
:1038C000892309F043C0A389B4899C918589809597
:1038D00089238C93868997890197F1F7208D318D03
:1038E000A685B785758558E040E0C9010197F1F7D5
:1038F000842F90E095958795482F6C91672309F068
:103900004068515091F7868D81FD40958091B603B6
:1039100090E001968F7399272091B503281749F0FD
:10392000A091B603B0E0A954BC4F4C938093B6036A
:1039300003C0868D8160868F828D938D0197F1F70C
:10394000A389B4898C919589892B8C93FF91EF91F0
:10395000BF91AF919F918F917F916F915F914F91A7
:103960003F912F910F900FBE0F901F9018952AE452
:1039700032E0FC01318320830C94FE1B1F93CF9314
:10398000DF93EC01162F6E8D6695617081E06827DC
:10399000812F0E94602761E0812F0E942727812FBD
:1039A00090E0FC01E050F14FE491E88BFC01EC5E0B
:1039B000F04FE491F0E0EE0FFF1FEE5CF04F8591C9
:1039C00094919A8B898BDF91CF911F9108951F93CA
:1039D000CF93DF93EC01162F60E0812F0E94272701
:1039E0008E8D81FD04C061E0812F0E9460271C87BD
:1039F000812F90E0FC01E050F14FE491ED87FC0154
:103A0000EC5EF04FE491F0E0EE0FFF1FE85DF04F49
:103A1000859194919F878E87DF91CF911F91089513
:103A2000FF920F931F93CF93DF93EC01F62E522F4B
:103A30001B821A8208EE13E020E030E00C831D8325
:103A40002E833F838AE492E0998388831F8A1E8AAB
:103A5000198E188E1B8E1A8E1D8E1C8E8E8D8E7F4B
:103A600050FB81F98E8F642FCE010E94BE1C6F2DFA
:103A7000CE01DF91CF911F910F91FF900C94E71C25
:103A8000CF93DF93EC019A01AB011B8E1A8E198E36
:103A9000188E1F8A1E8A60E079E08DE390E00E9414
:103AA0003631C9012430310520F0B9016350710964
:103AB00002C061E070E07D8F6C8FEC85E63108F02C
:103AC00068C0B901769567956431710518F0635146
:103AD000710902C061E070E07F8B6E8B069718F071
:103AE000C901059702C081E090E0998F888FC901D4
:103AF000880F991F820F931F9695879596958795A6
:103B00008D30910510F00C9702C081E090E09B8F02
:103B10008A8F20916800E83050F091E0EE3008F490
:103B200090E081E001C0880F9A95EAF701C084E037
:103B3000822B809368002C85283038F02E3040F09E
:103B4000263148F48CE690E008C08DE690E005C090
:103B50008BE690E002C080E090E09C8B8B8B28305D
:103B600030F481E001C0880F2A95EAF70DC0822F5A
:103B700090E02E3010F4089701C00E9791E001C03C
:103B8000990F8A95EAF7892F8D8B8C8D9D8D0197E2
:103B9000F1F7CE01DF91CF910C94141C0C94FE1B15
:103BA000FF920F931F93CF93DF93EC01F22E798353
:103BB00068838B01000F111F060F171F1B830A83D9
:103BC0004C831D822B871C861D861E861F8650E017
:103BD000FA01EC5EF04FE491F0E0EE0FFF1FEE5CB7
:103BE000F04F85919491998B888BFA01E050F14FB9
:103BF00044914A8BC8010E947C319F838E83009739
:103C000029F0A80160E070E00E94CB33F0FE04C010
:103C100081E0888719860BC0F2FE06C081E08887A4
:103C200082E089871A8605C0188681E0898782E04C
:103C30008A87DF91CF911F910F91FF900895CF93C5
:103C4000DF93EC018E819F81009711F00E94143266
:103C500060E08C81DF91CF910C942727CF93DF9385
:103C6000EC0161E08C810E94272760E08C81DF916C
:103C7000CF910C946027CF92DF92EF92FF920F9337
:103C80001F93CF93DF93CDB7DEB729970FB6F89484
:103C9000DEBF0FBECDBF8C01DC0116968D919C91CD
:103CA0001797892B09F49BC00E944926F801C48408
:103CB000D584E684F7846C197D098E099F096233E7
:103CC00071058105910580F3F894828193819A832F
:103CD0008983A681B7817D01EFEFEE1AFE0A8C91F0
:103CE0008987D8011B969C911B9750960D90BC918B
:103CF000A02DF801828991FF2EC09C91982B988766
:103D00009C91809589238F838F818E8388E08D831A
:103D100058856F8149853D812E8189819A81F7017E
:103D20005C9347FD252F3A952C93262F39F0441F9D
:103D300000C000006C93000000C0F2CF38E0419159
:103D40006C930000019761F7F801B18BA08B498754
:103D50003D832E8338C09C91982B98879C918095A9
:103D600089238F838F818C8388E08B8358856F8133
:103D700049853B812C8189819A81F7015C9347FDBC
:103D8000252F00C000C02C9300C000C000C000C0A0
:103D900000C06C930000262F3A9541F0441F0000AC
:103DA00000C000C000C000C000C0E8CF38E04191B2
:103DB00000C06C9300C0019709F7F801B18BA08B8C
:103DC00049873B832C839A83898378940E94492670
:103DD000D8011C966D937D938D939C931F97299684
:103DE0000FB6F894DEBF0FBECDBFDF91CF911F910C
:103DF0000F91FF90EF90DF90CF900895CF92DF92D8
:103E0000EF92FF920F931F93CF93DF93FC0180817A
:103E100091816817790788F5CA01AA27BB27082F5F
:103E2000C32ED42EE52EFF241C2DD22FC581CC23EA
:103E300061F08C9FC0011124092FCC9E60011124D8
:103E40001D2D2C9F90011124D32F9B01220F331F76
:103E5000260F371F86819781820F931F2085DC01F3
:103E6000A20FB11D0C932185DC01A20FB11D1C9383
:103E70002285FC01E20FF11DD083DF91CF911F91CC
:103E80000F91FF90EF90DF90CF900895962F50E024
:103E900060E070E0592B682BCB01BA010895FF92C6
:103EA0000F931F93CF93DF93EC01FF24F394F60E4F
:103EB0002D81F21679F10E811F812150B9F06F3FEB
:103EC00059F430E040E050E06FEF7FEF80E090E0A9
:103ED0000E943631B9010CC08F2D90E0982F8827B1
:103EE0000197622F70E00E94EC3002C060E070E049
:103EF000F8018A819B81AF01401B510B481759077C
:103F000040F44081469FC001479F900D112491933A
:103F1000F0CFFD82DF91CF911F910F91FF90089517
:103F20000F93FC0113AE14AE15AE04960E947D24CF
:103F30000F9108950F93FC010150040F84A996A9D5
:103F4000941718F0081728F402C0081750F0041747
:103F500040F42150260F83A995A9961720F428171D
:103F600020F480E007C0281720F481E0261710F025
:103F7000F8CF81E00F910895DB011496ED91FC914B
:103F8000159720E030E061E00994DB011496ED9193
:103F9000FC91159720E030E063E00994DB01149672
:103FA000ED91FC91159720E030E040E064E0099449
:103FB000DB011496ED91FC91159720E030E041E093
:103FC00064E00994DB011496ED91FC91159720E0D3
:103FD00030E062E00994DB011496ED91FC911597B5
:103FE00020E030E065E00994DB011496ED91FC914E
:103FF000159766E00994AF92BF92CF92DF92EF924D
:10400000FF920F931F93CF93DF931F92CDB7DEB72D
:104010005C018B017A0180E0F7014491811109C0B4
:104020004F3FD9F1B801C5010E94EB1F81112EC08D
:1040300039C04F3FB9F34E3FB9F1403F38F5403EEC
:1040400030F04F70B801C5010E94E21F1FC0403D13
:1040500030F04F70B801C5010E94C51F17C0403C29
:10406000B8F0B801C50149830E94CE1F498142952D
:10407000407F4E5FC42ED12CC6010E940E21B80194
:10408000C5010E94D81FC6010E940E2180E006C013
:1040900047FDFCCF842F90E0F7CF81E0FFEFEF1AD0
:1040A000FF0ABACF80E001C081E00F90DF91CF918D
:1040B0001F910F91FF90EF90DF90CF90BF90AF9046
:1040C0000895860F911DFC0183A18F3F19F0642F85
:1040D0000C9460270895EF92FF920F931F93CF9354
:1040E000DF937C01C0E0D0E087010C0F1D1FF801B9
:1040F00083A18F3F41F061E00E94272761E0F80132
:1041000083A10E9460272196CD30D10569F7DF9108
:10411000CF911F910F91FF90EF9008958EBD0DB438
:1041200007FEFDCF8EB50895CF92DF92EF92FF92FA
:104130000F931F93CF93DF931F92CDB7DEB76C0120
:104140007901062F10E0F8013197E730F10508F00A
:104150005AC0EC5CFF4F0C94553149830E946B2090
:1041600061E08DE00E94272760E08DE00E946027DB
:1041700061E08BE00E94272760E08BE00E946027CF
:1041800061E08AE00E94272761E08AE00E946027C0
:104190001CBC80E58CBD49814230A8F581E08DBD15
:1041A00032C061E004C0411106C041E062E0C601D6
:1041B0000E94612028C040E064E00E94612040E04D
:1041C000F5CFFC0183A18F3FF1F060E0F0CF842FA9
:1041D0000E948E2018C04423B1F0F70181917F0125
:1041E00049830E948E2049814150F5CF442359F0E4
:1041F000F701849149830E948E20FFEFEF1AFF0A96
:1042000049814150F3CF81E00F90DF91CF911F9111
:104210000F91FF90EF90DF90CF9008952EE93FE04F
:10422000009729F0F9013197F1F70197F9CF089537
:10423000BF92CF92DF92EF92FF920F931F93CF9393
:10424000DF938C01EB01B42E790180E1481709F46A
:1042500054C0841700F1EAE04E1721F1FFE04F133C
:1042600057C041E0C8010E94C51F40E0BE01C8011F
:104270000E94E21F41E8BE01C8010E94EB1FF70146
:104280004081BE01C8010E94EB1F40E0BE01C80191
:104290000E94C51F3BC081E1481791F1E5E14E172F
:1042A00061F036C042E0C8010E94BC1F45E753E000
:1042B000BE01C8010E94FB1F2BC0CA80DB804DE6F7
:1042C00053E0C8010E94FB1FF6014481406BBE0110
:1042D000C8010E94EB1F41E0BE01C8010E94E21F1D
:1042E000AE01B801C6010E943125882301F140E0EA
:1042F000BE01C8010E94C51F0BC044E653E002C0C6
:1043000049E553E0BE01C8010E94FB1F81E010C0D7
:1043100097014B2DBE01C801DF91CF911F910F91E5
:10432000FF90EF90DF90CF90BF900C94A92580E094
:10433000DF91CF911F910F91FF90EF90DF90CF9081
:10434000BF900895FC01E60FF11D849190E0982F35
:1043500088273196E4918E0F911D0895FC01849178
:1043600008950E94AE21882311F0823011F486E076
:10437000089583E0089580E0089566E00C94A221FA
:1043800068E00C94A2210A96FC01849108950B9692
:10439000FC0184910895BF92CF92DF92EF92FF9239
:1043A0000F931F93CF93DF93EC01E62E0C811D81B9
:1043B000C8010E94AE21F82E8C819D810E94B121FE
:1043C000B82E21E0F21619F0CC24CA9402C05FE0A6
:1043D000C52E8C819D810E94C321F82E8C819D81E8
:1043E0000E94C721D82E8C819D810E94C021E0E6C9
:1043F000EE1538F4009729F0080F191F41E6F42E46
:1044000010C08C819D810E94BD21F0E4FE1538F41E
:10441000009729F0080F191F31E4F32E02C00F5E38
:104420001F4FDE1440F4188A1B8A1C8A198A1A8AC4
:1044300080E090E050C0DF14B0F32B2D30E0F801A5
:1044400084918F3F19F40F5F1F4F40C0FE1036C09C
:104450008C819D810E94AE2198012F5F3F4FF80112
:10446000882311F0823091F484918B8BF90124918F
:104470002C8BF8013396E491E88BF8013496E491A3
:10448000E98BF8013596E491EA8B16C09491892F57
:104490008F7082508A8B92959F70998BF90124912D
:1044A000822F8F708C8B22952F702B8BF801329678
:1044B000E491E295EF70E88BC8010DC0F8013296E7
:1044C000E491EC210E0F111D020F131FFD1409F4CE
:1044D000AACFF394B4CFDF91CF911F910F91FF90AA
:1044E000EF90DF90CF90BF9008954F925F927F92B0
:1044F0008F929F92AF92BF92CF92DF92EF92FF92F4
:104500000F931F93CF93DF931F92CDB7DEB72C018C
:10451000162F742E622F0E94CB216C01009709F494
:104520003EC0F201848195810E94B121F82EF201F2
:10453000838804899188910E8289781A172D101B1F
:10454000282D412F692DC2010E949A1F882321F135
:10455000CF0CD11CF7E08F0E869486948694A82CFD
:10456000B12C1715C9F0392D76018E2D8C198815AF
:1045700078F4F701049120E0412F632FC2013983C1
:104580000E94BB24FFEFEF1AFF0A3981385FEDCF9D
:10459000CA0CDB1C1F5FE5CFF201808901C080E0FF
:1045A0000F90DF91CF911F910F91FF90EF90DF90CF
:1045B000CF90BF90AF909F908F907F905F904F90E3
:1045C00008950F931F93CF93DF9300D01F92CDB721
:1045D000DEB78C01DC015596ED91FC9156972B834B
:1045E0004A83698309954A81480F2B816981C801F3
:1045F0000F900F900F90DF91CF911F910F910C941E
:104600007522DC0114968D919C911597009709F401
:104610003FC057962C915797FC01211108C0359641
:10462000E4915896EC935897FC013C9611C02130C8
:1046300041F43F96E4915896EC935897FC0170969C
:1046400007C03D96E4915896EC935897FC013E962E
:10465000849159968C93599758968C91589799278D
:1046600087FD909559962C915997821B910927FDAA
:1046700093955A962C915A97203441F0829FC0010D
:104680001124E6E096958795EA95E1F75B968C9381
:1046900008952BEB31E2FC01368B258B0895CF93E7
:1046A000DF93EC018C819D818617970749F07D830C
:1046B0006C83CE010E9401238BEB91E29E8B8D8B4C
:1046C000DF91CF9108951F93CF93DF93EC011D826B
:1046D0001C821F821E82198681E0888782E28A8777
:1046E0001F861E8680E090E02FEFFE01E80FF91F85
:1046F00023A301968E309105C1F711E018A3CE01D6
:104700000E9449231F8B188E198E80E48A8F1B8E7E
:1047100082EF95E29AAB89ABDF91CF911F9108951B
:10472000DB01ED91FC910994EF92FF921F93CF93DF
:10473000DF9300D0CDB7DEB77C01DC01D196ED91DF
:10474000FC91D29782E069837A83099520E030E07A
:104750004AE069817A81C7010E949023182FD7010E
:10476000D196ED91FC91D29783E00995D701D1962E
:10477000ED91FC91D29780E00995812F0F900F90D9
:10478000DF91CF911F91FF90EF9008950F931F93AA
:10479000CF93DF93EC018B01E9A9FAA982E0099597
:1047A000E9A9FAA981E0099520E030E044E1B801E7
:1047B000CE010E9490239E012D5C3F4F47E1B8013E
:1047C000CE010E949023E9A9FAA980E0DF91CF9160
:1047D0001F910F910994FF920F931F93CF93DF9333
:1047E000EC018B01E9A9FAA982E00995E9A9FAA9E6
:1047F00081E0099520E030E045E1B801CE010E945A
:104800009023F82E882341F09E012D5C3F4F47E115
:10481000B801CE010E949023E9A9FAA980E0099588
:104820008F2DDF91CF911F910F91FF900895CF931E
:10483000DF931F92CDB7DEB749839E012F5F3F4FB5
:104840004FE00E9490230F90DF91CF910895CF9376
:10485000DF931F92CDB7DEB79E012F5F3F4F46E437
:104860000E94902389810F90DF91CF910895CF937B
:10487000DF931F92CDB7DEB79E012F5F3F4F47E416
:104880000E94902389810F90DF91CF91089520E0BD
:1048900030E048E40C949023CF93DF93EC016A81DD
:1048A0007B810E94272488836A817B81CE010E94BC
:1048B000372489836A817B81CE010E9447248B87BC
:1048C0009E012D5C3F4F6A817B8147E1CE01DF91E4
:1048D000CF910C949023CF93DF93EC016A817B817D
:1048E0000E949423882329F0CE010E944C2481E069
:1048F00001C080E0DF91CF910895CF92DF92EF92D7
:10490000FF920F93CF93DF9300D0CDB7DEB76C014A
:104910007B012A8349830E946323F601F382E282AA
:10492000498145A32A8124A303A3C6010F900F90B8
:10493000DF91CF910F91FF90EF90DF90CF900C948B
:104940006B24FC01628173810C94C623CF93DF93A7
:10495000EC01EE85FF85309709F009956A817B812E
:10496000CE01DF91CF910C94EB23462FFC016281A5
:1049700073810C9417240F93FC0182819381648FBF
:10498000458F278F068F9F01245E3F4F4BE3BC016D
:10499000CF010F910C949023FC0160A30895FC01BA
:1049A000128280818150838314820895FC012081CA
:1049B0008281820F82839181891760F484818F5F65
:1049C00084838381820F891710F08FEF890F83838F
:1049D00081E0089580E00895DC011696ED91FC9148
:1049E000179715968C919F01280F311DC9011192BF
:1049F000E817F907E1F70895FC0191E08381861734
:104A000008F490E021E0461708F020E0322F392B1F
:104A100081E05281451708F480E083239223892B9B
:104A20000895DC01FB01108212968C91129781830C
:104A300015968C9115978150828313968C91838360
:104A40000895FB0141812381213029F0233031F485
:104A500068EF640F04C0642F485F01C0642F0C949A
:104A6000FC24FC01CB01BA012681378145810C94DD
:104A7000F41FDC011696ED91FC91179712968C911C
:104A8000481B477081E090E0042E01C0880F0A9413
:104A9000EAF7E60FF11D3081222311F0832B02C0CB
:104AA0008095832380830895FB014181DC01129668
:104AB0002C911297421768F013962C911397241794
:104AC00040F0608115962C91621718F424810C94A3
:104AD00039250895CF92DF92FF920F931F93CF93C2
:104AE000DF9300D0CDB7DEB78C016B01FB01F28004
:104AF0008381813039F070F0823039F0833041F0B9
:104B000020E001C021E030E007C020E03FEF04C01A
:104B10002FEFF9CF20E031E0F7FE08C0B601C80161
:104B200029833A830E9454253A812981F6018081A4
:104B3000830F80838181820F8183FF0C69F70F903F
:104B40000F90DF91CF911F910F91FF90DF90CF9049
:104B500008950F931F93CF93DF938901FB01C281C7
:104B6000D3814233F9F068F4453109F1473141F11D
:104B7000443181F5CE010E94EC24CE010E94CF2465
:104B800029C0463411F1473411F14B3319F5B901FD
:104B9000CE010E9421258823E9F0B801CE010E94B0
:104BA0006A2518C0B901CE010E94542513C0CE0158
:104BB0000E94D624882381F0CE010E94EC240AC0F2
:104BC000B901CE010E94112505C08D8101C08981E6
:104BD000F801808381E001C080E0DF91CF911F91D7
:104BE0000F91089508951F920F920FB60F921124FE
:104BF0002F933F938F939F93AF93BF9380917A04AA
:104C000090917B04A0917C04B0917D043091790453
:104C100023E0230F2D3720F40196A11DB11D05C0FF
:104C200026E8230F0296A11DB11D209379048093DD
:104C30007A0490937B04A0937C04B0937D048091CC
:104C40007E0490917F04A0918004B091810401962C
:104C5000A11DB11D80937E0490937F04A0938004D6
:104C6000B0938104BF91AF919F918F913F912F910C
:104C70000F900FBE0F901F9018952FB7F89460916A
:104C80007A0470917B0480917C0490917D042FBF05
:104C900008953FB7F89480917E0490917F04A0918D
:104CA0008004B091810426B5A89B05C02F3F19F060
:104CB0000196A11DB11D3FBF6627782F892F9A2F1E
:104CC000620F711D811D911D42E0660F771F881FC5
:104CD000991F4A95D1F708958F929F92AF92BF92F4
:104CE000CF92DF92EF92FF926B017C010E944926E6
:104CF0004B015C01C114D104E104F104F1F00E9404
:104D0000512D0E944926681979098A099B09683E34
:104D100073408105910570F321E0C21AD108E108C2
:104D2000F10888EE880E83E0981EA11CB11CC11406
:104D3000D104E104F10429F7DDCFFF90EF90DF907B
:104D4000CF90BF90AF909F908F900895789484B546
:104D5000826084BD84B5816084BD85B5826085BD77
:104D600085B5816085BDEEE6F0E08081816080835D
:104D7000E1E8F0E010828081826080838081816040
:104D80008083E0E8F0E0808181608083E1EBF0E007
:104D9000808184608083E0EBF0E0808181608083AB
:104DA000EAE7F0E080818460808380818260808394
:104DB0008081816080838081806880831092C100BF
:104DC00008958E3008F08E50877020912A0190E46B
:104DD000299F90011124822B80937C0080917A007E
:104DE000806480937A0080917A0086FDFCCF809168
:104DF00078002091790090E0922B0895833081F023
:104E000028F4813099F08230A1F008958730A9F01C
:104E10008830B9F08430D1F4809180008F7D03C058
:104E2000809180008F7780938000089584B58F777C
:104E300002C084B58F7D84BD08958091B0008F77C6
:104E400003C08091B0008F7D8093B0000895CF9310
:104E5000DF9390E0FC01E050F14F2491FC01EC5E07
:104E6000F04F8491882349F190E0880F991FFC014D
:104E7000E45CF04FA591B4918E5C904FFC01C5911C
:104E8000D4919FB7611108C0F8948C91209582232A
:104E90008C93888182230AC0623051F4F8948C91FB
:104EA000322F309583238C938881822B888304C092
:104EB000F8948C91822B8C939FBFDF91CF910895B2
:104EC0000F931F93CF93DF931F92CDB7DEB7282F99
:104ED00030E0F901E451F14F8491F901E050F14FD4
:104EE0001491F901EC5EF04F04910023C9F088237E
:104EF00021F069830E94FE266981E02FF0E0EE0F29
:104F0000FF1FEE5CF04FA591B4919FB7F8948C9180
:104F1000611103C01095812301C0812B8C939FBF29
:104F20000F90DF91CF911F910F910895FC01818D1A
:104F3000228D90E0805C9F4F821B91098F7399278F
:104F40000895FC01918D828D981731F0828DE80FC4
:104F5000F11D858D90E008958FEF9FEF0895FC017E
:104F6000918D828D981761F0828DDF01A80FB11DA0
:104F70005D968C91928D9F5F9F73928F90E00895C4
:104F80008FEF9FEF089583E399E2892B49F080E04A
:104F900090E0892B29F00E94332981110C940000A4
:104FA0000895FC01848DDF01A80FB11DA35ABF4FE6
:104FB0002C91848D90E001968F739927848FA68918
:104FC000B7892C93A089B1898C9180648C93938D3F
:104FD000848D981306C00288F389E02D80818F7D2F
:104FE00080830895CF93DF93EC01888D8823C9F0E7
:104FF000EA89FB89808185FD05C0A889B9898C91E2
:1050000086FD0FC00FB607FCF5CF808185FFF2CF7C
:10501000A889B9898C9185FFEDCFCE010E94D12757
:10502000E7CFDF91CF910895CF92DF92FF920F9358
:105030001F93CF93DF931F92CDB7DEB76C0181E052
:10504000D60158968C9358975B969C915B975C968B
:105050008C915C97981307C05096ED91FC915197F5
:10506000808185FD2EC0F601038D10E00F5F1F4F7C
:105070000F731127F02EF601848DF81211C00FB6B0
:1050800007FCF9CFD6015096ED91FC9151978081A4
:1050900085FFF1CFC60169830E94D1276981EBCFDB
:1050A000838DE80FF11DE35AFF4F6083D6015B96B5
:1050B0000C935B975296ED91FC915397808180629F
:1050C0000CC0D6015696ED91FC915797608350968F
:1050D000ED91FC91519780818064808381E090E024
:1050E0000F90DF91CF911F910F91FF90DF90CF90A4
:1050F0000895BF92CF92DF92EF92FF92CF93DF930A
:10510000EC016A017B01B22EE889F98982E0808393
:10511000411581EE580761057105A1F060E079E065
:105120008DE390E0A70196010E94143121503109CE
:10513000410951095695479537952795211580E1E5
:10514000380798F0E889F989108260E874E88EE100
:1051500090E0A70196010E941431215031094109C4
:1051600051095695479537952795EC85FD853083F0
:10517000EE85FF852083188EEC89FD89B082EA894F
:10518000FB89808180618083EA89FB8980818860D6
:105190008083EA89FB89808180688083EA89FB8932
:1051A00080818F7D8083DF91CF91FF90EF90DF90A2
:1051B000CF90BF9008951F920F920FB60F921124B7
:1051C0002F938F939F93EF93FF93E0919204F0912D
:1051D00093048081E0919804F091990482FD12C0BB
:1051E000908180919B048F5F8F7320919C04821724
:1051F00051F0E0919B04F0E0EE57FB4F958F8093C8
:105200009B0401C08081FF91EF919F918F912F911D
:105210000F900FBE0F901F9018951F920F920FB610
:105220000F9211242F933F934F935F936F937F932C
:105230008F939F93AF93BF93EF93FF9382E894E094
:105240000E94D127FF91EF91BF91AF919F918F91D4
:105250007F916F915F914F913F912F910F900FBE72
:105260000F901F90189582E894E00E94962721E005
:10527000892B09F420E0822F089510928504109262
:10528000840488EE93E0A0E0B0E0809386049093DD
:105290008704A0938804B09389048AE592E09093F0
:1052A00083048093820485EC90E090938F04809334
:1052B0008E0484EC90E0909391048093900480ECB1
:1052C00090E0909393048093920481EC90E090930B
:1052D00095048093940482EC90E0909397048093DB
:1052E000960486EC90E09093990480939804109231
:1052F0009B0410929C0410929D0410929E040895A9
:10530000CF92DF92EF92FF920F931F93CF93DF9391
:105310007C016A01EB0100E010E00C151D0571F045
:105320006991D701ED91FC910190F081E02DC701C9
:105330000995892B19F00F5F1F4FEFCFC801DF913F
:10534000CF911F910F91FF90EF90DF90CF90089534
:105350006115710581F0DB010D900020E9F7AD01C9
:1053600041505109461B570BDC01ED91FC91028025
:10537000F381E02D099480E090E00895EF92FF9290
:105380000F931F93CF93DF938C017B01C0E0D0E09C
:10539000F701EC0FFD1F6491662359F0F801A0811D
:1053A000B181ED91FC91C8010995892B11F02196ED
:1053B000EFCFCE01DF91CF911F910F91FF90EF9032
:1053C00008950C94A829DC01ED91FC910190F081E5
:1053D000E02D099466E672E00C94A8298F929F92C2
:1053E000AF92BF92DF92EF92FF920F931F93CF93F2
:1053F000DF93CDB7DEB7A1970FB6F894DEBF0FBE2F
:10540000CDBF7C01F42FD52ECB0119A2223008F498
:105410002AE08E010F5D1F4F822E912CA12CB12C02
:105420006F2F7D2DA50194010E941431F22FD32EF0
:10543000CA01015011096A3014F4E0E301C0E7E346
:10544000E60FD801EC93232B242B252B49F7B80129
:10545000C7010E94A829A1960FB6F894DEBF0FBE1F
:10546000CDBFDF91CF911F910F91FF90EF90DF9013
:10547000BF90AF909F908F900895CF92DF92EF9260
:10548000FF920F931F93CF93DF93EC016A017B018F
:105490002115310579F4E881F9810190F081E02D41
:1054A000642FDF91CF911F910F91FF90EF90DF90CC
:1054B000CF9009942A303105E9F477FF1AC06DE2E4
:1054C0000E94E3298C0144275527BA014C195D0934
:1054D0006E097F092AE0CE010E94EE29800F911FFC
:1054E000DF91CF911F910F91FF90EF90DF90CF90C0
:1054F00008952AE0B701A601CE01DF91CF911F9157
:105500000F91FF90EF90DF90CF900C94EE299A01CD
:10551000AB01662757FD6095762F0C943D2A211527
:10552000310541F4DC01ED91FC910190F081E02D19
:10553000642F09940C94EE299A01462F50E060E004
:1055400070E00C948F2A9A01AB0160E070E00C943B
:105550008F2A4F925F926F927F928F929F92AF921B
:10556000BF92CF92DF92EF92FF920F931F93CF9350
:10557000DF93EC016A017B01B22E9A01AB01C701F6
:10558000B6010E940430882319F069E672E027C052
:1055900026013701E89477F82FEF3FEF4FE75FE7F9
:1055A000C301B2010E94043081110DC02FEF3FEF03
:1055B0004FE75FE7C301B2010E94B72D18161CF434
:1055C0006DE672E00CC02FEF3FEF4FE75FE4C701DD
:1055D000B6010E94062F1816ACF461E772E0CE0106
:1055E000DF91CF911F910F91FF90EF90DF90CF90BF
:1055F000BF90AF909F908F907F906F905F904F90F3
:105600000C94A8292FEF3FEF4FE75FECC701B601DD
:105610000E94B72D87FDE1CF20E030E0A901C7014E
:10562000B6010E94B72D87FF0AC06DE2CE010E942D
:10563000E3298C01F7FAF094F7F8F09402C000E047
:1056400010E0A12C60E070E080E09FE3AB1441F03B
:1056500020E030E040E251E40E94BB2DA394F6CF5D
:105660009B01AC01C701B6010E94532D6B017C0167
:105670000E94282E2B013C010E94542E9B01AC015C
:10568000C701B6010E94522D6B017C012AE0B301D3
:10569000A201CE010E94EE29080F191FBB2039F08C
:1056A00065E772E0CE010E94A829080F191F7B2C24
:1056B000772041F120E030E040E251E4C701B6013B
:1056C0000E94552F6B017C010E94232E4B01AA24BE
:1056D00097FCA094BA2C2AE030E0B501A401CE01D9
:1056E0000E943D2A080F191FC501B4010E94562EC1
:1056F0009B01AC01C701B6010E94522D6B017C01D8
:105700007A94D6CFC801DF91CF911F910F91FF906E
:10571000EF90DF90CF90BF90AF909F908F907F9051
:105720006F905F904F9008950C94A92A4F925F92CA
:105730006F927F92AF92BF92CF92DF92EF92FF92E1
:105740000F931F93CF93DF93CDB7DEB729013A01B3
:10575000621B730B840B950B29893A894B895C89F1
:105760002A193B094C095D09298B3A8B4B8B5C8BC1
:105770009B01AC0169897A898B899C890E94DC3004
:10578000E418F50806091709A80197010E943631A7
:105790002A0D3B1D4C1D5D1DCA01B901DF91CF9142
:1057A0001F910F91FF90EF90DF90CF90BF90AF903F
:1057B0007F906F905F904F900895FC018081918160
:1057C0000C941432CF93DF93EC0188819981009778
:1057D00011F00E941432198218821D821C821B82D1
:1057E0001A82DF91CF9108950F931F93CF93DF9388
:1057F000EC018B016F5F7F4F888199810E94A332FA
:10580000009731F0998388831B830A8381E001C06C
:1058100080E0DF91CF911F910F910895CF93DF9397
:10582000EC0188819981892B29F08A819B818617D7
:10583000970760F4CE010E94F42B882341F08C81FD
:105840009D81892B19F4E881F981108281E0DF9133
:10585000CF910895EF92FF920F931F93CF93DF9311
:10586000EC017B018A01BA010E940E2C811104C057
:10587000CE010E94E22B07C01D830C83B7018881F3
:1058800099810E94D233CE01DF91CF911F910F9168
:10589000FF90EF900895FC01118210821382128212
:1058A000158214826115710559F0FB0101900020E9
:1058B000E9F7AF0141505109461B570B0C942A2CB4
:1058C0000895EF92FF920F931F93CF93DF93EC0114
:1058D0007B018A01BA010E940E2C811104C0CE0105
:1058E0000E94E22B07C01D830C83B7018881998138
:1058F0000E94B233CE01DF91CF911F910F91FF90A3
:10590000EF900895CF93DF93EC016115710561F07D
:10591000FB0101900020E9F7AF0141505109461BFE
:10592000570B0E942A2C02C00E94E22BCE01DF916D
:10593000CF9108950F931F93CF93DF9300D0CDB7EE
:10594000DEB78C016115710561F0CB0169837A8343
:105950000E94B933AC0169817A81C8010E94612C2F
:1059600002C00E94E22BC8010F900F90DF91CF91EF
:105970001F910F910895FC011182108213821282EF
:10598000158214820C949A2CEF92FF920F931F931E
:10599000CF93DF93EC017B010C811D8161157105B3
:1059A00011F480E016C04115510591F0040F151F48
:1059B000B8010E940E2C8823A1F3288139818C81A3
:1059C0009D81B701820F931F0E94D2331D830C83E8
:1059D00081E0DF91CF911F910F91FF90EF9008959B
:1059E000CF93DF9300D0CDB7DEB769831A8241E051
:1059F00050E0BE016F5F7F4F0E94C42C0F900F904C
:105A0000DF91CF910895FA01DB0114964D915C91DD
:105A10001597DC0114962D913C911597241B350B9D
:105A20002E173F0788F08D919C91009769F0DB015C
:105A30006D917C916115710539F08E0F9F1F0E9449
:105A4000D93321E0892B09F020E0822F0895FC0151
:105A500044815581FB01248135814217530720F091
:105A600040E050E00C94032D80E00895FC0180811B
:105A70009181009711F00C948B3360E070E0CB01C2
:105A8000089508950E94A6260E94412D0E94101399
:105A9000C3ECD7E20E946F1A2097E1F30E94C3275C
:105AA000F9CF08955058BB27AA270ED075C166D1EB
:105AB00030F06BD120F031F49F3F11F41EF45BC144
:105AC0000EF4E095E7FB51C1E92F77D180F3BA17C7
:105AD000620773078407950718F071F49EF58FC16C
