:100000000C9468080C9490080C9490080C94900838
:100010000C9490080C9490080C9490080C94900800
:100020000C9490080C94D4180C94BF290C948D282F
:100030000C9490080C9490080C9490080C949008E0
:100040000C9490080C9490080C9490080C949008D0
:100050000C9490080C9490080C9490080C94AA228C
:100060000C9490080C9490080C9490080C949008B0
:100070000C9490080C9490080C9490080C949008A0
:100080000C9490080C9490080C9490080C94900890
:100090000C9490080C9490080C9490080C94900880
:1000A0000C9490080C9490080C949008641D881D82
:1000B0008A1D981D9E1DA21DAD1DEA23ED23DC2384
:1000C000E023E6230E240E240E24F123F523F92346
:1000D000FF2303240E2409240A5265737461727489
:1000E000696E672E2E2E0A00736563005761726D6C
:1000F00075702E2E2E004272696768746E65737378
:1001000020203A00436F756C64206E6F7420636F1B
:100110006E6E65637420746F20576966693A2000BB
:1001200057696669206D6F64756C65206E6F742009
:10013000776F726B696E670A00436F6E6E656374EA
:10014000696E6720746F20576966692E2E2E0A002B
:10015000446562756720496E666F2069733A2000B6
:10016000570A00470A000A426F783A000A436F6E46
:1001700066696775726174696F6E20726573657404
:100180002E2E2E0A00446F6E650A004E65772042BF
:1001900072696768746E6573732076616C75653A11
:1001A00020003E0073617020007773690070706DED
:1001B0000070726F78790067726179006272660010
:1001C00062726700746573740075626976007562A7
:1001D000696B0074736B6579007265736574006494
:1001E00065627567006C7400776966690054532016
:1001F0005245533A200041542B43495053454E44F5
:100200003D0041542B43495053544152543D2254D4
:100210004350222C220035302E32332E3132342EF0
:100220003636003138342E3130362E3135332E31DA
:10023000343900222C3830005341503A20005365A5
:100240006E64205341503A005542493A20005542CD
:10025000493A005453204B45593A00464F554E44B5
:100260000A005374617274696E6720576966692069
:100270004D6F64756C652E2E2E0A0045535020502C
:10028000726F78790A0057494649204F4B210A007E
:1002900041542B43574155544F434F4E4E3D310A25
:1002A0000041542B43574A41505F4445463D00416D
:1002B000540A0041542B43574D4F44455F44454633
:1002C0003D310A007350503A005669736974202713
:1002D000766169722D6D6F6E69746F722E636F6DCA
:1002E0002720666F7220636F6E666967757261742E
:1002F000696F6E2064657461696C730A0076416988
:100300007220434F32204D6F6E69746F723A2076BF
:10031000312E392E310A000A0A4465470A0A00FFC5
:10032000E0FFD1AFFF32FFD0FFFEFFE0FFD1AEFF15
:10033000D0FFFEFFE0FFD11000FFFEFFD0FFE0FF87
:10034000C1FFD1AED580A83FD300408D142000A1BD
:10035000C8DA1281CFD9F1DB402EA4A6AFFFD0FFBF
:10036000FE00060A00FE07019E0337207FFE09FEFD
:1003700008FE00000006000001070706020080805A
:100380008080800080030303060105A0A0A005056E
:100390000506000250F850F8500509090600FF2034
:1003A00070A8A07028A8702005070706000078A88C
:1003B000B05068A8900507070600006090A040A80C
:1003C0009068010303060205808080030909060185
:1003D000FF2040808080808040200309090601FFC3
:1003E00080402020202020408005050506000220B6
:1003F000A870A8200505050600012020F82020028D
:1004000004040601FEC0C04080030101060103E0B0
:10041000020202060200C0C0050A0A0600FE080821
:1004200010102020404080800507070600007088DB
:1004300098A8C8887005070706000020E020202043
:1004400020F8050707060000708808102040F8050E
:10045000070706000070880830088870050707063F
:10046000000010305090F81038050707060000F81B
:1004700080F0080888700507070600007080F08883
:10048000888870050707060000F80808102020205B
:1004900005070706000070888870888870050707C0
:1004A000060000708888887808700205050602003A
:1004B000C0C000C0C00207070601FEC0C000C0C027
:1004C00040800407070601001020408040201005EE
:1004D0000303060002F800F8040707060100804045
:1004E00020102040800507070600007088081020B3
:1004F00000200507070600007088B8A8B8807805B6
:10050000070706000020505088F88888050707066E
:100510000000F08888F08888F00507070600007062
:10052000888080808870050707060000F08888882A
:100530008888F0050707060000F88080F08080F8C2
:10054000050707060000F88080F080808005070717
:1005500006000070888098888870050707060000EC
:10056000888888F8888888050707060000F8202012
:10057000202020F8050707060000080808088888DA
:10058000700507070600008890A0C0A090880507A6
:1005900007060000808080808080F805070706003D
:1005A0000088D8A8A888888805070706000088C89A
:1005B000A8988888880507070600007088888888BA
:1005C0008870050707060000F08888F080808005A5
:1005D00008080600FF7088888888A8700805070743
:1005E000060000F08888F088888805070706000064
:1005F00070888070088870050707060000F82020C2
:100600002020202005070706000088888888888821
:1006100070050707060000888888505020200507CD
:1006200007060000888888A8A8D88805070706005C
:1006300000888850205088880507070600008888B1
:100640008850202020050707060000F808102040E9
:1006500080F80209090602FFC080808080808080C7
:10066000C0050A0A0601FE808040402020101008C4
:10067000080209090601FFC040404040404040C018
:100680000503030600042050880601010600FEFC55
:100690000202020601068040050505060000788872
:1006A0008898680507070600008080F0888888F031
:1006B000050505060000708880807805070706009C
:1006C0000008087888888878050505060000708885
:1006D000F880780407070601003040E040404040C1
:1006E0000507070600FE78888888780870050707E0
:1006F0000600008080F088888888030707060100CC
:100700004000C0404040E00309090600FE200060B0
:100710002020202020C0050707060000808090A030
:10072000E09088030707060100C04040404040E0D9
:10073000050505060000F0A8A8A8A80505050600FF
:1007400000B0C8888888050505060000708888887C
:10075000700507070600FEF0888888F0808005078E
:10076000070600FE788888887808080505050600D1
:1007700000B0C880808005050506000078807008FC
:10078000F00407070601004040E040404030050506
:100790000506000088888898680505050600008819
:1007A00088505020050505060000A8A8A8A85005F7
:1007B000050506000088502050880507070600FE42
:1007C00088888888780870050505060000F81020DC
:1007D00040F8030B0B0601FE2040404040804040A3
:1007E0004040200109090602FF80808080808080CF
:1007F0008080030B0B0601FE8040404040204040BB
:1008000040408005020206000368B00000000600B8
:1008100000004841FCF323000000002A3A0024FABB
:100820002300141236200611070E001F0F801F9F91
:10083000800F9F00079E0003FC0081F810FEF7F078
:10084000FFFFF0FFFFF0F9F9F001F80003FC0007EB
:100850009E000F9F001F8F801F0F80070E001D1D21
:1008600074310A00000700000007000000070000C4
:10087000000700000007000000070000000700005C
:10088000000700000007000000070000000700004C
:100890000007000000070000FFFFFFF8FFFFFFF860
:1008A000FFFFFFF80007000000070000000700003E
:1008B000000700000007000000070000000700001C
:1008C000000700000007000000070000000700000C
:1008D00000070000000700000B0C180F02FA0FE0E1
:1008E0000FC01FC01F801F803F003F003E007E00E2
:1008F0007C007C00F8000D060C110209FFF8FFF8DF
:10090000FFF8FFF8FFF8FFF80706060F0500FEFEE8
:10091000FEFEFEFE1127751502FD000F80000F0080
:10092000001F00001F00001E00003E00003E0000EF
:100930003E00007C00007C00007C0000780000F895
:100940000000F80000F00001F00001F00001F000EC
:1009500003E00003E00003E00003C00007C000075D
:10096000C0000780000F80000F80000F80001F0074
:10097000001F00001F00003E00003E00003E00007F
:100980003C00007C00007C00007C0000F8000019A6
:10099000238C1C020101FF800007FFE0000FFFF025
:1009A000001FFFF8001FFFFC003F81FC003F00FE1E
:1009B000007F007E007E007E007E003F007E003FC4
:1009C00000FE003F00FE003F00FE003F00FE003F33
:1009D00080FE003F80FE003F80FE003F80FE003F23
:1009E00080FE003F80FE003F80FE003F00FE003F93
:1009F00000FE003F007E003F007E003F007E007F43
:100A0000007F007E003F00FE003F81FC001FFFFCD6
:100A1000001FFFF8000FFFF00007FFE00001FF805C
:100A2000000F23461C050000FE01FE07FE0FFE3FDF
:100A3000FEFFFEFFFEFEFEFCFEF0FEC0FE00FE001E
:100A4000FE00FE00FE00FE00FE00FE00FE00FE00B6
:100A5000FE00FE00FE00FE00FE00FE00FE00FE00A6
:100A6000FE00FE00FE00FE00FE00FE00FE19238CCC
:100A70001C020100FFE00003FFF80007FFFC000F6D
:100A8000FFFE001FFFFF003FC0FF003F803F803F91
:100A9000003F807F003F8000003F8000003F8000DB
:100AA000003F8000007F0000007F000000FF00008A
:100AB00001FE000003FC000007FC00000FF800002E
:100AC0001FF000003FE000007FC00001FF000003B6
:100AD000FE000007FC00000FF000003FE000007F78
:100AE000800000FF000000FFFFFF80FFFFFF80FF8E
:100AF000FFFF80FFFFFF80FFFFFF80FFFFFF8018E9
:100B000023691C020103FF800FFFE01FFFF03FFF7E
:100B1000F87FFFFC7F03FCFE01FCFE00FCFE00FEF4
:100B20000000FE0000FE0001FC0001FC000FF800C8
:100B3000FFF000FFC000FF8000FFE000FFF80003AF
:100B4000FC0000FE0000FE00007E00007F00007F31
:100B5000FE007FFE007FFE00FEFF00FE7F01FC7FA7
:100B6000FFFC3FFFF81FFFF00FFFE003FF801A2399
:100B70008C1C01000007FC00000FFC00001FFC00A3
:100B8000001FFC00003FFC00003FFC00007FFC0059
:100B900000FDFC0000FDFC0001F9FC0001F9FC0077
:100BA00003F1FC0007F1FC0007E1FC000FC1FC00B1
:100BB0000FC1FC001F81FC003F81FC003F01FC00D5
:100BC0007E01FC00FE01FC00FC01FC00FFFFFFC0F9
:100BD000FFFFFFC0FFFFFFC0FFFFFFC0FFFFFFC021
:100BE000FFFFFFC00001FC000001FC000001FC0051
:100BF0000001FC000001FC000001FC000001FC0001
:100C00001823691C02007FFFFC7FFFFC7FFFFC7F35
:100C1000FFFC7FFFFC7FFFFC7F00007F00007F0068
:100C2000007F00007F00007F00007F1FC07F7FF0FB
:100C30007FFFF87FFFFC7FFFFC7FC1FE7F00FE7F10
:100C4000007F7E007F00007F00007F00007F0000AB
:100C50007F00007FFE007FFE00FEFE00FEFF01FC25
:100C60007FFFFC7FFFF83FFFF00FFFC007FF8019F9
:100C7000238C1C020100FFC00003FFF00007FFF8F7
:100C8000000FFFFC001FFFFE001FE0FE003FC07FC3
:100C9000003F807F007F0000007F0000007F000099
:100CA000007E000000FE1FC000FE7FF000FEFFF887
:100CB00000FEFFFC00FFFFFE00FFE1FE00FFC0FFA3
:100CC00000FF807F00FF003F00FF003F80FF003FEC
:100CD00080FF003F80FF003F807F003F007F003F9C
:100CE000007F807F007F807F003FC0FE001FFFFCF1
:100CF000001FFFFC000FFFF80007FFE00001FF806E
:100D0000001823691C0200FFFFFFFFFFFFFFFFFF2A
:100D1000FFFFFFFFFFFFFFFFFF00007F00007F00DE
:100D200000FE0000FE0001FE0001FC0003FC0003C9
:100D3000F80007F80007F0000FF0000FF0001FE0C8
:100D4000001FE0003FC0003FC0003F80007F8000E8
:100D50007F0000FF0000FF0001FE0001FE0003FC19
:100D60000003FC0007F80007F8000FF8000FF00080
:100D700019238C1C020103FFC0000FFFF0001FFFAE
:100D8000FC003FFFFE003FFFFE007FC1FF007F80B1
:100D9000FF007F007F007F007F007F007F007F00DB
:100DA0007F007F007F003F80FE003FC1FC000FFFFF
:100DB000F80007FFE00001FFC0000FFFF0001FFF79
:100DC000F8003FC1FE007F80FE007F007F00FE0034
:100DD0003F00FE003F00FE003F80FE003F80FE001F
:100DE0003F80FF007F80FF007F007F80FF007FFF4C
:100DF000FF003FFFFE003FFFFC000FFFF80003FF76
:100E0000E00019238C1C020101FFC00007FFE00075
:100E10000FFFF8001FFFFC003FFFFC007F81FE007A
:100E20007F00FE007E00FF00FE007F00FE007F00CE
:100E3000FE007F80FE007F80FE007F80FE007F80BE
:100E4000FE00FF807F00FF807F83FF803FFFFF80E9
:100E50003FFFBF801FFFBF800FFF3F8001F83F8033
:100E600000003F0000007F0000007F0000007F00C6
:100E70007F00FE007F00FE007F01FE003F83FC003C
:100E80001FFFFC001FFFF8000FFFF00007FFE0004E
:100E900001FF8000071818100700FEFEFEFEFEFE90
:100EA000000000000000000000000000FEFEFEFE4A
:100EB000FEFE070605040100080A0B0C0D090000E0
:100EC000000200090F0000030401000C00000000F4
:100ED0000000000000000000000000000408020103
:100EE0001040804010204080408008020401804073
:100EF0002010020110801020404004040404040368
:100F000004050202020204030202020206060606A9
:100F1000060604040202020400000000230026006A
:100F200029002C002F0000000000250028002B00C5
:100F30002E00310000000000240027002A002D00B0
:100F40003000080B00020202010009040000010247
:100F500002000005240010010524010101042402FF
:100F6000060524060001070581031000400904015D
:100F700000020A0000000705020240000007058386
:100F80000240000000C18081C11201000202000085
:100F900040412341800001010200011201000200D2
:100FA00000004041234180000101020001417264C0
:100FB00075696E6F204C4C430041726475696E6FA9
:100FC0002059756E000403090400000000000000B1
:100FD000002A2B2800000000000000000000000094
:100FE0000000000000000000002C9EB4A0A1A2A4FC
:100FF00034A6A7A5AE362D3738271E1F2021222361
:10100000242526B333B62EB7B89F84858687888972
:101010008A8B8C8D8E8F90919293949596979899B8
:101020009A9B9C9D2F3130A3AD3504050607080916
:101030000A0B0C0D0E0F1011121314151617181998
:101040001A1B1C1DAFB1B0B500090402000103005A
:101050000000092101010001226500070584034009
:10106000000105010902A1010901A100850105098D
:1010700019012903150025019503750181029501C8
:101080007505810305010930093109381581257F6E
:10109000750895038106C0C005010906A1018502F6
:1010A000050719E029E7150025017501950881025A
:1010B00095017508810395067508150025650507D6
:1010C000190029658100C00063104125292DEC100D
:1010D00011241FBECFEFDAE0DEBFCDBF12E0A0E0EB
:1010E000B1E0E2EBFAE602C005900D92AC34B10734
:1010F000D9F724E0ACE4B2E001C01D92A036B207FB
:10110000E1F710E1CEECD0E104C02297FE010E948D
:10111000B82FC83CD107C9F70E94DF2B0C944C357F
:101120000C940000CF93DF93EC01262F4CAD6BADF8
:1011300004960E94981F2BAD992787FD9095820FEA
:10114000911D8BAF81E090E0DF91CF910895FC017C
:10115000808191810C945934CF92DF92EF92FF926B
:101160000F931F93CF93DF9300D000D0CDB7DEB79E
:101170008C017B016C018EE1C80ED11C1A8309839E
:10118000CE0101966B837C830E94A708F7018193AF
:101190007F010F5F1F4F6B817C810C151D0571F75F
:1011A000CB010F900F900F900F90DF91CF911F9177
:1011B0000F91FF90EF90DF90CF900895EF92FF9204
:1011C0000F931F93CF93DF9300D0CDB7DEB77C0191
:1011D0008B019A838983CE0101960E94A708F801AA
:1011E0008083FFEFEF1AFF0AFA82E982CE010196AF
:1011F0000E94A708F8018183C8010F900F90DF912A
:10120000CF911F910F91FF90EF9008950F931F932F
:10121000CF93DF931F92CDB7DEB78C0169830E9415
:10122000A7086981681729F0F801808191810E94DF
:101230006134C8010F90DF91CF911F910F910895F4
:10124000EF92FF920F931F93CF93DF9300D0CDB710
:10125000DEB77C018B01FB0160819A838983CE011B
:1012600001960E940609F8016181FFEFEF1AFF0A5B
:10127000FA82E982CE0101960E940609C8010F9008
:101280000F90DF91CF911F910F91FF90EF900895F4
:101290000F931F93CF93DF9300D0CDB7DEB78B01B1
:1012A000FB0160819A838983CE0101960E94060921
:1012B000C8010F900F90DF91CF911F910F9108956A
:1012C000CF93DF93C0911003D091110364EC72E0CF
:1012D00086EF93E00E949C254AE050E0BE0186EF35
:1012E00093E00E949D2686EF93E0DF91CF910C94CE
:1012F000CA2540E855E260E070E084E193E00E9496
:10130000DE1961E082E00E940F2461E082E00C942B
:10131000482484E193E00E94851A61E082E00E9403
:101320000F2460E082E00C9448240E94890968EE52
:1013300073E080E090E00E9423230C947909CF931E
:10134000DF9300D0CDB7DEB78AE190E09A8389833E
:10135000CE0101960E94A70891E0813009F090E04B
:10136000892F0F900F90DF91CF9108956F927F9208
:101370008F929F92AF92BF92CF92DF92EF92FF92A5
:101380000F931F93CF93DF93CDB7DEB7C654D10928
:101390000FB6F894DEBF0FBECDBF5C01762E672E70
:1013A000CE0101967C018CE3C82ED12C9E2C8F2C73
:1013B0008E01075D1F4FDAA6C9A6C8010E94A708C3
:1013C000F70181937F01FFEFCF1ADF0A84E6C81689
:1013D000D10489F7B80184E690E00E94AC08298125
:1013E0002F5F223008F443C086EF93E00E94CA25A5
:1013F0006EE472E086EF93E00E949C25692D782DC3
:1014000086EF93E00E94C12567E371E086EF93E0E9
:101410000E94C125B80186EF93E00E94C12586EFA6
:1014200093E00E94CA256F927F921F930F938F9231
:101430009F9229E331E03F932F93BF92AF920E9496
:10144000653268E472E086EF93E00E949C25B50166
:1014500086EF93E00E94C12586EF93E00E94CA25A3
:101460000FB6F894DEBF0FBECDBF81E001C080E0B3
:10147000CA5BDF4F0FB6F894DEBF0FBECDBFDF9162
:10148000CF911F910F91FF90EF90DF90CF90BF9081
:10149000AF909F908F907F906F900895BF92CF9262
:1014A000DF92EF92FF920F931F93CF93DF9300D0C1
:1014B000CDB7DEB77C01D62EC72E04EB10E01A8321
:1014C0000983CE0101960E94A708B82E86EF93E00B
:1014D0000E94CA256EE372E086EF93E00E949C258D
:1014E0004AE050E06B2D86EF93E00E94962686EF4F
:1014F00093E00E94CA251A830983CE0101960E94B7
:10150000A708813009F5CF92DF922DE631E03F93B5
:101510002F93FF92EF920E94653268E372E086EFAC
:1015200093E00E949C25B70186EF93E00E94C125BD
:1015300086EF93E00E94CA250F900F900F900F90B6
:101540000F900F9081E001C080E00F900F90DF912D
:10155000CF911F910F91FF90EF90DF90CF90BF90B0
:101560000895EF92FF920F931F93CF93DF9300D0D4
:10157000CDB7DEB77B018C01E81AF90AC701800FED
:10158000911FF80121918F01222339F02983BE0197
:101590006F5F7F4F0E944809F1CF1A821982BE0106
:1015A0006F5F7F4F0E9420090F900F90DF91CF91C6
:1015B0001F910F91FF90EF900895FC0101962081FB
:1015C0002032D9F3CF010895CF93DF9300D0CDB768
:1015D000DEB70E94CE319A838983BE016F5F7F4F51
:1015E00085EB90E00E9420090F900F90DF91CF9142
:1015F0000895CF93DF930E94CE31EC018F3F910588
:101600004CF48739910514F0C6E9D0E0D7FF02C049
:10161000C0E0D0E0C09313036BE871E086EF93E085
:101620000E949C254AE050E06C2F86EF93E00E94D8
:10163000962686EF93E00E94CA25609113038AE301
:1016400090E00E94613480E090E0DF91CF910895B6
:101650001F93CF93DF9300D0CDB7DEB78BE390E03D
:101660009A838983CE0101960E94A7088F3F11F4C7
:1016700011E001C01FEF8BE390E09A838983612F13
:10168000CE0101960E94060966E671E086EF93E0BE
:101690000E949C25113019F463E671E002C060E6F7
:1016A00071E086EF93E00E949C2580E090E00F902F
:1016B0000F90DF91CF911F910895DF92EF92FF92EB
:1016C0000F931F93CF93DF9300D0CDB7DEB77C018C
:1016D00000E110E0D12CBE016F5F7F4FC8010E9476
:1016E000DE0829813A81E216F30644F0D3940E5FB6
:1016F0001F4F85E0D812EFCF85E001C08D2D0F90F0
:101700000F90DF91CF911F910F91FF90EF90DF909D
:101710000895CF92DF92EF92FF920F931F93CF9392
:10172000DF93CDB7DEB728970FB6F894DEBF0FBEB4
:10173000CDBF8C0168E771E0CE0101960E94E82AD6
:10174000F8018081843629F489E791E00E94890BB1
:1017500035C0D12C7801F8016081262F332727FD71
:101760003095205331092A30310528F4CE010196F5
:101770000E948D2B1AC089819A810E94CE31988750
:101780008F83CC24C394CD0C8D2D90E00896BE01A0
:10179000695F7F4F880F991F0E94200968E771E0F9
:1017A000CE0101960E941F2BDC2C0F5F1F4FF7010B
:1017B0008081882319F0F4E0FD1560F6CE010196D2
:1017C0000E947A2A28960FB6F894DEBF0FBECDBFCE
:1017D000DF91CF911F910F91FF90EF90DF90CF900D
:1017E0000895CF93DF9300D0CDB7DEB7BE016F5F12
:1017F0007F4F80E190E00E94DE0889819A81019606
:1018000021F489E791E00E94890B0F900F90DF91FE
:10181000CF9108950F931F93CF93DF930E94F10B05
:1018200086EA92E00E94E51A0EE812E0C0E0D0E0FD
:10183000F80121913191419151918F01BE0186EAC8
:1018400092E00E94B51B2196C630D10589F764E16C
:1018500086EA92E00E94061C86EA92E0DF91CF9130
:101860001F910F910C94F21ACF93C091170166EF5C
:1018700070E086EF93E00E949C254AE050E06C2FD8
:1018800086EF93E00E94962686EF93E0CF910C942A
:10189000CA250E9460090E94340C86EF93E00C94E4
:1018A000CA25CF93C091120381E0C827C0931203C9
:1018B00086EF93E00E94CA2560E571E086EF93E031
:1018C0000E949C256C2F70E04AE050E086EF93E088
:1018D0000E94812686EF93E00E94CA258091120320
:1018E00081110E94490C80E090E0CF910895CF9340
:1018F000DF9300D0CDB7DEB787EB90E09A83898382
:10190000CE0101960E94A7088F3F69F0682F70E012
:1019100080E090E00E943A2E20E030E040E251E486
:101920000E949F2D04C060E070E080E89FE30F906C
:101930000F90DF91CF910895CF92DF92EF92FF92B7
:10194000CF93DF938091100390911103009781F161
:101950000E945D0BD82F84E0D89FF0011124E2573C
:10196000FD4FC080D180E280F380C0E06C2F70E03A
:10197000A701960186EA92E00E94B51BCF5FDC17B3
:10198000A8F7C63058F46C2F70E020E030E0A901D1
:1019900086EA92E00E94B51BCF5FF3CF86EA92E021
:1019A000DF91CF91FF90EF90DF90CF900C94F21ADF
:1019B000DF91CF91FF90EF90DF90CF9008954F92FD
:1019C0005F926F927F928F929F92AF92BF92CF92CF
:1019D000DF92EF92FF920F931F93CF93DF9361E01B
:1019E00080E592E00E94832180918902811107C0E5
:1019F00081E08093890280E592E00E9422216FEFCE
:101A000080E592E00E946C2180918902811107C0DB
:101A100081E08093890280E592E00E94222180E5A6
:101A200092E00E945821CFE2D7E006E430ED832E09
:101A30003BEF932EAA24A394B12C48EEC42E43E08E
:101A4000D42EE12CF12C14E680911701813019F489
:101A500061E673E002C061E178E080E592E00E9417
:101A600006206091100370911103683E23E0720715
:101A700010F481E201C085E080938702C093880260
:101A80006115710531F04AE050E08CE492E00E946B
:101A90009D2661E673E080E592E00E9406201092A8
:101AA0008702D093880260911501709116018CE431
:101AB00092E00E94C12580915503811117C00093C7
:101AC0008702D09388026CEE70E08CE492E00E9472
:101AD0009C258091100390911103892B39F40E9469
:101AE000F422613A7F4081059105B8F480E592E0E7
:101AF0000E945D218111A8CFDF91CF911F910F919D
:101B0000FF90EF90DF90CF90BF90AF909F908F901D
:101B10007F906F905F904F9008950E94F4222B0168
:101B20003C0161E178E080E592E00E94062010929D
:101B30008702C0938802C501B4016419750986093A
:101B40009709A70196010E94752FBA01A9012AE001
:101B500030E08CE492E00E94892661E673E080E543
:101B600092E00E94062010938702C093880268EEDC
:101B700070E08CE492E00E949C25B8CFCF93DF9375
:101B8000EC010E949F09882341F0D0931601C09375
:101B90001501DF91CF910C94DF0CDF91CF91089567
:101BA000CF93DF9300D000D000D0CDB7DEB7BC011B
:101BB000CE0101960E94E82ACE0101960E94D32B05
:101BC0007093110360931003CE0101960E947A2A4C
:101BD0000E949C0C0E94DF0C26960FB6F894DEBF84
:101BE0000FBECDBFDF91CF9108954F925F926F925C
:101BF0007F928F929F92AF92BF92CF92DF92EF929D
:101C0000FF92CF93DF93D82FC62F262F30E0A8EE78
:101C1000B3E00E94BC2F2B013C01812C912C54017C
:101C2000C12CD12C760184149504A604B70494F435
:101C30008D2F0E94A123AC01662757FD6095762F5A
:101C4000C40ED51EE61EF71E8FEF881A980AA80A42
:101C5000B80AE9CFC701B6010E94382E6B017C019A
:101C600088EE93E0C89FB001C99F700D11248827AA
:101C700077FD8095982F0E943A2E9B01AC01C701F9
:101C8000B6010E949F2DDF91CF91FF90EF90DF90E2
:101C9000CF90BF90AF909F908F907F906F905F900C
:101CA0004F9008956F927F92AF92BF92CF92DF9242
:101CB000EF92FF920F931F93CF93DF9300D0CDB796
:101CC000DEB7809113038F3F09F05DC061E082E1D0
:101CD00090E00E94F50DAB01BC0184E493E00E940A
:101CE00033178BE390E09A838983CE0101960E949B
:101CF000A708813029F470E9672E7724739404C013
:101D000068EE662E63E0762E84E493E00E94B017BE
:101D10006B017C010E94770C9B01AC01C701B601ED
:101D20000E94EE2E0E94072E6B3071053CF4662354
:101D300019F06093170129C081E025C073010027C5
:101D4000F7FC0095102F661677060CF4B301882770
:101D500077FD8095982F20910A011F921F921F9264
:101D60002F935BE0A52EB12CC12CD12C2BE030E0C1
:101D700040E050E00E94332A609317010F900F90CB
:101D80000F900F9002C0809317016091170186EAAF
:101D900092E00E94061C86EA92E00F900F90DF917D
:101DA000CF911F910F91FF90EF90DF90CF90BF9058
:101DB000AF907F906F900C94F21ACF92DF92EF92D7
:101DC000FF92C0908A02D0908B02E0908C02F0903B
:101DD0008D020E94F4226C197D098E099F096938D1
:101DE00073418105910590F00E94F42260938A026C
:101DF00070938B0280938C0290938D020E949C0CB6
:101E0000FF90EF90DF90CF900C94520EFF90EF90E8
:101E1000DF90CF9008950E94890B0E94DD0E65E847
:101E200071E086EF93E00C949C2568ED70E086EFFE
:101E300093E00E949C256CE271E080E090E00E94BB
:101E400023230C9400000895CF93DF93C0E0D0E0EB
:101E50006FEFCE010E9461342196CC3281E0D80729
:101E6000B9F7DF91CF9108950E94240F6CE671E0DD
:101E700086EF93E00E949C250E94150F80E090E081
:101E80000895CF93DF9300D0CDB7DEB71A821982C1
:101E9000CE0101960E94A708833069F00E94240FAA
:101EA00083E090E09A838983BE016F5F7F4F80E07B
:101EB00090E00E9420090F900F90DF91CF9108953C
:101EC000CF93DF9300D0CDB7DEB740E855E260E0B6
:101ED00070E086EF93E00E943B25809156038823B3
:101EE00031F067E173E086EF93E00E949C256DEF8F
:101EF00072E086EF93E00E949C2569EC72E086EF29
:101F000093E00E949C258AE390E09A838983CE0126
:101F100001960E94A708809313030E94410F0E941C
:101F20000A0C0E94890988E791E00E94BE0D0F907B
:101F30000F90DF91CF910895CF92DF92EF92FF92B1
:101F40006B017C010E94072E882777FD8095982FD2
:101F50000E943A2E9B01AC01C701B6010E94362DAA
:101F600020E030E040E251E40E94EE2E0E94072E75
:101F7000CB01FF90EF90DF90CF9008952F923F928A
:101F80004F925F926F927F928F929F92AF92BF9289
:101F9000CF92DF92EF92FF920F931F93CF93DF9335
:101FA000CDB7DEB76E970FB6F894DEBF0FBECDBFCC
:101FB000D82EC92E7B018E010F5F1F4FB8018CE810
:101FC00090E00E94AC0886EF93E00E94CA2563E58A
:101FD00072E086EF93E00E949C25B80186EF93E0C3
:101FE0000E94C12586EF93E00E94CA2589818F5FF8
:101FF000823008F44EC08091F9029091FA02009765
:1020000061F0B701681B790B882777FD8095982FC1
:102010000E943A2EAB01BC0103C040E050E0BA017F
:1020200083E393E00E94331784E493E00E94B017A7
:102030002B013C0183E393E00E94B0170E949C0FA8
:10204000382E292E83E393E00E94B0174B015C01E8
:10205000C301B2010E94072E7F936F932F923F928C
:10206000C501B4010E94072E7F936F93FF92EF92F8
:102070001F930F9382E991E09F938F93CF92DF920A
:102080000E9465320FB6F894DEBF0FBECDBF81E06F
:1020900001C080E06E960FB6F894DEBF0FBECDBFD4
:1020A000DF91CF911F910F91FF90EF90DF90CF9034
:1020B000BF90AF909F908F907F906F905F904F9068
:1020C0003F902F9008950F93CF93DF9364E084E4C3
:1020D00093E00E941F1764E083E393E00E941F17C0
:1020E00020E04AE069E084E193E00E94AE1965E0F7
:1020F0008FEF92E00E941F1723E043E166E070E05B
:1021000086EA92E00E94871A40E06FEF80E00E942A
:10211000FD1B60938E0270938F02809390029093C8
:10212000910240E06FEF84EB0E94FD1B60939202EE
:1021300070939302809394029093950240E06FEF26
:102140008FEF0E94FD1B609396027093970280931D
:1021500098029093990240E068EC8FEF0E94FD1B7B
:1021600060939A0270939B0280939C0290939D02CD
:1021700040E068E78FEF0E94FD1B60939E02709322
:102180009F028093A0029093A10240E060E08FEF55
:102190000E94FD1B6093A2027093A3028093A4028D
:1021A0009093A50210924F0210924E02CCE4D2E01E
:1021B00082E192E09983888308E027E046E069E1C4
:1021C00071E0CE010E94471C8AE192E099838883E6
:1021D000DF91CF910F91089586EA92E00E94D61A7E
:1021E0008FEF92E00E94F11684E193E00E9455196E
:1021F00083E393E00E94F11684E493E00C94F116DB
:10220000CF92DF92EF92FF920F931F93CF93DF93C2
:10221000CDB7DEB7C254D1090FB6F894DEBF0FBEFA
:10222000CDBFC090FB02D090FC02E090FD02F09088
:10223000FE020E94F4226C197D098E099F0961310A
:1022400077428105910528F4009110031091110344
:1022500083C00E94F4226093FB027093FC0280937F
:10226000FD029093FE0220E045E164E1CE0101967B
:102270000E94AE1985E0E2E3F1E0DE01DE96019016
:102280000D928A95E1F740E855E260E070E0CE01FA
:1022900001960E94DE19E981FA814EAD50E002807C
:1022A000F381E02DBE01615C7F4FCE01019609955F
:1022B00064E670E080E090E00E9423237E0180E2EB
:1022C000E80EF11C6E01E8E3CE0ED11CCE010196A2
:1022D0000E946718892B51F0CE0101960E94CB17FE
:1022E000F70181937F01EC15FD0581F7EBA0F12C3F
:1022F000FE2CEE248CA1E80EF11CB70180E090E0EA
:102300000E94382EAB01BC018FEF92E00E94331780
:10231000CE0101960E94851A0E94F422603D7B4FF7
:102320008140910570F4F6E2EF16F2E0FF0649F401
:102330001092550300E010E0CE0101960E9455195D
:102340000BC081E0809355038FEF92E00E94B0179D
:102350000E94072E8B01F0CFC801CE5BDF4F0FB676
:10236000F894DEBF0FBECDBFDF91CF911F910F91CB
:10237000FF90EF90DF90CF9008958F929F92AF9251
:10238000BF92CF92DF92EF92FF920F931F93CF9362
:10239000DF9300D000D0CDB7DEB7082FB92EA62E20
:1023A00029833A834B835C830E94F4226B017C0176
:1023B00029813A814B815C81C20ED31EE41EF51E39
:1023C000802E9B2C0E94F4226C157D058E059F05A6
:1023D00018F584E193E00E946718892B99F384E152
:1023E00093E00E94CB17182FAA2059F0843124F4CF
:1023F0008A3011F08D3029F4612F86EF93E00E942E
:102400007E24F40180811813DBCF8181882331F091
:10241000FFEF8F1A9F0AD6CF80E001C081E00F90B6
:102420000F900F900F90DF91CF911F910F91FF9020
:10243000EF90DF90CF90BF90AF909F908F900895D6
:1024400062E672E086EF93E00E949C250E94950967
:1024500028EB3BE040E050E06091180188EC91E00F
:102460000E94BD11682F70E04AE050E086EF93E0D3
:102470000E94812686EF93E00E94CA2520E335E77B
:1024800040E050E061E08EEC91E00E94BD118111CE
:1024900004C00E94890980E008956BE572E086EF30
:1024A00093E00E949C2581E00895AF92BF92CF9265
:1024B000DF92EF92FF920F931F93CF93DF93CDB7ED
:1024C000DEB7C659D1090FB6F894DEBF0FBECDBF37
:1024D0007B016130710531F4BC01CE0101960E948F
:1024E000BE0F09C06230710509F07DC0BC01CE018C
:1024F00001960E94B609811103C08FEF9FEF7EC045
:10250000C12CD12CCE0101965C0191E0E916F104B9
:1025100019F403E212E002C006E112E062E072E0A8
:1025200084E193E00E949C25B80184E193E00E943D
:102530009C2563E372E084E193E00E949C2584E1A2
:1025400093E00E94CA2520EA3FE040E050E061E0CD
:1025500082E191E00E94BD11811108C0EFEFCE1A17
:10256000DE0AF7E0CF16D10481F635C0F5010190FF
:102570000020E9F78F01015011090A191B0966EFC4
:1025800071E084E193E00E949C254AE050E0B801AC
:1025900084E193E00E949D2684E193E00E94CA2595
:1025A00020E737E140E050E061E085ED91E00E94F6
:1025B000BD11882399F2B50184E193E00E94C12501
:1025C00020E737E140E050E061E087ED91E00E94D4
:1025D000BD11882319F281E090E0F7E0CF16D10415
:1025E0006CF080E00BC0E3E0EE16F10409F088CF58
:1025F000BC01CE0101960E944E0A7DCFCA56DF4F24
:102600000FB6F894DEBF0FBECDBFDF91CF911F9103
:102610000F91FF90EF90DF90CF90BF90AF90089513
:102620000F931F93CF93DF938C010E94201281118F
:1026300027C00E942012811123C0C0E0D0E00E9478
:1026400089091093FA020093F902209719F48EED8C
:1026500091E013C0C130D10519F487E092E00DC0BC
:10266000CF3F8FEFD80719F487EE91E006C0CF3F38
:102670008FEFD807B4F481EF91E00E94BE0D11C036
:1026800061E070E0C8010E945512EC0162E070E068
:10269000C8010E94551263E070E0C8010E94551203
:1026A000CECFCE01DF91CF911F910F9108958F92E0
:1026B0009F92AF92BF92CF92DF92EF92FF920F93D1
:1026C0001F93CF93DF9300D0CDB7DEB70E949F0951
:1026D000811105C087EF91E00E94BE0D5AC0809124
:1026E000100390911103892B09F453C0BE016F5F51
:1026F0007F4F85EB90E00E94DE0889819A810297E6
:1027000024F488E790E09A83898309811A81809074
:10271000F5029090F602A090F702B090F8020E94A5
:10272000F4226B017C01C818D908EA08FB0828EEDE
:1027300033E0D8010E94CB2F6C157D058E059F05D7
:1027400040F580911003909111030E9410137C01B9
:1027500086EF93E00E94CA256DEE71E086EF93E06C
:102760000E949C254AE050E0B70186EF93E00E946A
:10277000812686EF93E00E94CA250E9489090E9463
:10278000F4226093F5027093F6028093F70290931F
:10279000F8020F900F90DF91CF911F910F91FF9052
:1027A000EF90DF90CF90BF90AF909F908F90089563
:1027B0000F931F93CF93DF9300D0CDB7DEB78C017B
:1027C0001A821982BE016F5F7F4F8AE190E00E94FA
:1027D000200963EB72E084E193E00E949C2520E1F4
:1027E00037E240E050E06091180182E191E00E9400
:1027F000BD11882309F449C084E193E00E947E184A
:102800006FEA72E084E193E00E949C2528EE33E0B9
:1028100040E050E06091180182E191E00E94BD111A
:1028200061EA72E084E193E00E949C25B80184E1B2
:1028300093E00E94C12584E193E00E94CA2520E232
:102840003EE440E050E0609118018BE091E00E948E
:10285000BD118823E9F060E972E084E193E00E9411
:102860009C2581E090E09A838983BE016F5F7F4F52
:102870008AE190E00E94200966E872E086EF93E02A
:102880000E949C2581E090E005C08FEF9FEF02C081
:102890008EEF9FEF0F900F90DF91CF911F910F91CF
:1028A0000895CF92DF92EF92FF92CF93DF93EC01E6
:1028B0000E94F4226B017C01CE01AA2797FDA0950E
:1028C000BA2FC80ED91EEA1EFB1EC0E00E94F422D9
:1028D0006C157D058E059F0508F586EF93E00E9437
:1028E000A824892B99F3D1E0DC0F86EF93E00E94B6
:1028F000B824EC2FF0E0E754FD4F8083ED2FF0E09B
:10290000E854FD4F80818D3029F0DB3331F08A307F
:1029100011F404C0DC2FCD2FD9CFCBE3EC2FF0E0A6
:10292000E754FD4F10828C2FDF91CF91FF90EF90F5
:10293000DF90CF9008956BE772E086EF93E00E94FE
:102940009C250E94950984E193E00E946718892BD9
:1029500049F084E193E00E94CB17682F86EF93E063
:102960000E947E2486EF93E00E94A824892B59F3CD
:1029700086EF93E00E94B824682F84E193E00E94E0
:10298000F517E1CFCF93DF9386EF93E00E94CA253E
:1029900069E371E086EF93E00E949C250E9495090F
:1029A00020E137E240E050E06091180188EC91E0CE
:1029B0000E94BD11811108C060E271E086EF93E0D2
:1029C000DF91CF910C949C2586EF93E00E94A52483
:1029D00068EE73E080E090E00E9423238DEB92E0AC
:1029E0000E94DD0A0E94D813EC0197FF13C064E037
:1029F00071E086EF93E00E949C254AE050E0BE0122
:102A000086EF93E00E94812686EF93E0DF91CF91DD
:102A10000C94CA2582E092E00E94BE0DDF91CF9116
:102A200008951F93CF93DF93CDB7DEB72C970FB6E2
:102A3000F894DEBF0FBECDBF69EB72E0CE01079602
:102A40000E94E82A69EB72E086EF93E00E94C125BC
:102A500086EF93E00E94CA2568EE71E0CE010196F0
:102A60000E94582BBE016F5F7F4FCE0107960E94D8
:102A7000C42B182FCE0101960E947A2A112319F037
:102A80000E94C21470C165EE71E0CE0101960E94F1
:102A9000582BBE016F5F7F4FCE0107960E94C42B5B
:102AA000182FCE0101960E947A2A112339F08BEB60
:102AB00092E00E94DD0A0E940B0F55C16FED71E09C
:102AC000CE0101960E94582BBE016F5F7F4FCE0151
:102AD00007960E94C42B182FCE0101960E947A2AD5
:102AE000112319F00E94510C3EC169ED71E0CE0135
:102AF00001960E94582BBE016F5F7F4FCE01079653
:102B00000E94C42B182FCE0101960E947A2A11230D
:102B100019F00E94340F27C163ED71E0CE010196D8
:102B20000E94582BBE016F5F7F4FCE0107960E9417
:102B3000C42B182FCE0101960E947A2A112339F056
:102B40008EEB92E00E94DD0A6CE870E01AC06EEC39
:102B500071E0CE0101960E94582BBE016F5F7F4F3E
:102B6000CE0107960E94C42B182FCE0101960E9419
:102B70007A2A112349F08DEB92E00E94DD0A6CE382
:102B800070E00E94B10AEFC069EC71E0CE010196DD
:102B90000E94582BBE016F5F7F4FCE0107960E94A7
:102BA000C42B182FCE0101960E947A2A112339F0E6
:102BB0008DEB92E00E94DD0A64E670E0E2CF64EC07
:102BC00071E0CE0101960E94582BBE016F5F7F4FCE
:102BD000CE0107960E94C42B182FCE0101960E94A9
:102BE0007A2A112329F087E392E00E941013BBC0D8
:102BF00060EC71E0CE0101960E94582BBE016F5F20
:102C00007F4FCE0107960E94C42B182FCE0101964C
:102C10000E947A2A112339F08CEB92E00E94DD0A9F
:102C20000E94F90AA0C06CEB71E0CE0101960E94EF
:102C3000582BBE016F5F7F4FCE0107960E94C42BB9
:102C4000182FCE0101960E947A2A112359F08DEB9C
:102C500092E00E94CE318983BE016F5F7F4F87EB88
:102C600090E07FC067EB71E0CE0101960E94582B87
:102C7000BE016F5F7F4FCE0107960E94C42B182FB5
:102C8000CE0101960E947A2A112319F00E94280B86
:102C90006AC061EB71E0CE0101960E94582BBE0123
:102CA0006F5F7F4FCE0107960E94C42B182FCE0175
:102CB00001960E947A2A11110E949B146DEA71E01C
:102CC000CE0101960E94582BBE016F5F7F4FCE014F
:102CD00007960E94C42B182FCE0101960E947A2AD3
:102CE000112339F08CEB92E00E94DD0A0E94D00D96
:102CF0003AC069EA71E0CE0101960E94582BBE01EC
:102D00006F5F7F4FCE0107960E94C42B182FCE0114
:102D100001960E947A2A112339F08CEB92E00E94EE
:102D2000DD0A0E94E40A1FC064EA71E0CE01019648
:102D30000E94582BBE016F5F7F4FCE0107960E9405
:102D4000C42B182FCE0101960E947A2A112359F024
:102D50008091BD0280538983BE016F5F7F4F84EBFA
:102D600090E00E94480962EA71E086EF93E00E94D9
:102D70009C2586EF93E00E94CA25CE0107960E940B
:102D80007A2A2C960FB6F894DEBF0FBECDBFDF9126
:102D9000CF911F91089586EF93E00E94A824892B7C
:102DA00031F080E395E70E9451140C9411150895B9
:102DB0000E940011909311038093100368EB7BE055
:102DC00080E090E00E9423230E94DD0E8091120398
:102DD00081110E94490C0E94DF0C0E94CB160C94BA
:102DE0005713FC0187819085009711F00C94753082
:102DF0000895FC01118212821382148215821682B8
:102E000040E050E060EC7FE741875287638774873A
:102E1000458756876787708B80E09081891770F4AB
:102E2000A781B08594E0899FA00DB11D11241D924A
:102E30001D921D921C9213978F5FEFCF0895CF9331
:102E4000DF93EC01688324E0629FC00111240E949B
:102E5000DD2F98878F83892B09F41882CE01DF91AB
:102E6000CF910C94F916AF92BF92CF92DF92EF926E
:102E7000FF920F931F93CF93DF93EC016A017B01C5
:102E80000F8118850115110509F45FC08A81580169
:102E900094E0899FA00CB11C1124F501208131819F
:102EA000428153816B817C818D819E810E94362D70
:102EB0006B837C838D839E83F501C082D182E28205
:102EC000F382BA80F80184E0B89EE00DF11D112470
:102ED00020813181428153816B817C818D819E81F2
:102EE0000E94372D6B837C838D839E83B394BA823B
:102EF0000881B01201C01A821981111105C0CD8656
:102F0000DE86EF86F88A0AC029853A854B855C857E
:102F1000C701B6010E949B2D87FF05C0C986DA86CE
:102F2000EB86FC860EC02D853E854F855889C701EE
:102F3000B6010E94EA2E181624F4CD86DE86EF86AE
:102F4000F88A101710F41F5F1983DF91CF911F913A
:102F50000F91FF90EF90DF90CF90BF90AF900895CA
:102F6000CF93DF93EC016981662371F070E080E01C
:102F700090E00E943A2E9B01AC016B817C818D8197
:102F80009E810E949F2D04C060E070E080EC9FE76E
:102F9000DF91CF91089520916B0330916C03281736
:102FA000390701F520915703309158038091590357
:102FB00090915A0328173907A9F0E0915703F0912F
:102FC0005803E55AFC4F80812091570330915803F4
:102FD0002F5F3F4F2F7033273093580320935703B1
:102FE00090E008958FEF9FEF08951F93CF93DF93A5
:102FF000DC015C968D919C915D97009749F481E08E
:1030000090E013969C938E93129780E090E03BC0E3
:103010005196ED91FC91529750962C915097322FEA
:1030200030951FB75E964C915E9741FB772770F9FC
:1030300041FD6095F8944081772311F0422B01C047
:1030400043234083EC012197F1F748E0508160FF72
:1030500002C0522B01C053235083EC012197F1F79A
:103060006695415099F78081772311F0832301C041
:10307000822B80831FBF5C968D919C915D970197F9
:10308000F1F781E090E0DF91CF911F9108952091B9
:103090006B0330916C0328173907B1F42091570363
:1030A000309158038091590390915A03281739079A
:1030B00059F0E0915703F0915803E55AFC4F808195
:1030C000992787FD909508958FEF9FEF08952091A0
:1030D0006B0330916C032817390769F48091590309
:1030E00090915A032091570330915803821B930B00
:1030F0008F709927089580E090E0089520916B03E8
:1031000030916C032817390759F48FB7F89410924F
:103110005A031092590310925803109257038FBF0D
:103120000895E0916B03F0916C03E817F90769F4D7
:10313000A389B4899C918589809589238C93109269
:103140006C0310926B0381E0089580E00895CF93A3
:10315000DF93EC018A8D9B8D892B11F180916B039C
:1031600090916C038C179D07D9F0009711F00E9485
:1031700091188E8D8E7F8E8F10925A031092590364
:103180001092580310925703D0936C03C0936B03B3
:10319000EB89FC8980819D89892B808381E001C036
:1031A00080E0DF91CF9108951F920F920FB60F929A
:1031B00011242F933F934F935F936F937F938F933C
:1031C0009F93AF93BF93EF93FF93E0916B03F091C5
:1031D0006C03309709F458C0868DA685B785958510
:1031E00081FF04C08C91892329F44EC08C918923DE
:1031F00009F04AC0A389B4899C9185898095892367
:103200008C93868997890197F1F7208D318DA6855A
:10321000B785758558E040E0C9010197F1F7842F23
:1032200090E095958795482F6C91672309F0406849
:10323000515091F7868D81FD409580915903909171
:103240005A0301968F7099272091570330915803A4
:103250008217930761F0A0915903B0915A03A55AC0
:10326000BC4F4C9390935A038093590303C0868DAF
:103270008160868F828D938D0197F1F7A389B48940
:103280008C919589892B8C93FF91EF91BF91AF9190
:103290009F918F917F916F915F914F913F912F916E
:1032A0000F900FBE0F901F90189522E232E0FC01A4
:1032B000318320830C9491181F93CF93DF93EC01FB
:1032C000162F6E8D6695617081E06827812F0E94B0
:1032D000482461E0812F0E940F24812F90E0FC019F
:1032E000E452F14FE491E88BFC01E650F14FE49198
:1032F000F0E0EE0FFF1FEA5DF04F859194919A8BFD
:10330000898BDF91CF911F9108951F93CF93DF9306
:10331000EC01162F60E0812F0E940F248E8D81FD1D
:1033200004C061E0812F0E9448241C87812F90E017
:10333000FC01E452F14FE491ED87FC01E650F14FBE
:10334000E491F0E0EE0FFF1FE85EF04F859194915D
:103350009F878E87DF91CF911F910895FF920F93E2
:103360001F93CF93DF93EC01F62E522F1B821A820C
:1033700008EE13E020E030E00C831D832E833F83B2
:1033800082E292E0998388831F8A1E8A198E188EA2
:103390001B8E1A8E1D8E1C8E8E8D8E7F50FB81F99A
:1033A0008E8F642FCE010E945C196F2DCE01DF91AC
:1033B000CF911F910F91FF900C948519CF93DF93BC
:1033C000EC019A01AB011B8E1A8E198E188E1F8A82
:1033D0001E8A60E079E08DE390E00E94972FC9019A
:1033E0002430310520F0B9016350710902C061E059
:1033F00070E07D8F6C8FEC85F8EFFE0FF43048F0B5
:1034000062EF6E0F643028F066EE6E0F633008F0E6
:103410006FC0B901769567956431710518F06351F5
:10342000710902C061E070E07F8B6E8B069718F027
:10343000C901059702C081E090E0998F888FC9018A
:10344000880F991F820F931F96958795969587955C
:103450008D30910510F00C9702C081E090E09B8FB9
:103460008A8FF43058F082EF8E0F843038F0EA51B2
:10347000E33008F042C0A8E6B0E041C0A8E6B0E002
:10348000E8E6F0E0808181608C932C8538EF320F84
:10349000343040F082EF820F843020F086EE820FCD
:1034A000833018F48BE690E002C080E090E09C8BC3
:1034B0008B8B343010F4245009C02E3069F02F303B
:1034C00069F0203169F0213169F0265181E001C0B5
:1034D000880F2A95EAF707C088E005C082E003C09C
:1034E00084E001C081E08D8B8C8D9D8D0197F1F77B
:1034F000CE01DF91CF910C94A718A0E0B0E0E330AB
:1035000008F4BECFE0E0F0E0BDCF0C949118FF923C
:103510000F931F93CF93DF93EC01F22E798368838F
:103520008B01000F111F060F171F1B830A834C838B
:103530001D822B871C861D861E861F8650E0FA0181
:10354000E650F14FE491F0E0EE0FFF1FEA5DF04F1F
:1035500085919491998B888BFA01E452F14F4491B3
:103560004A8BC8010E94DD2F9F838E83009729F02C
:10357000A80160E070E00E942C32F0FE04C081E0FF
:10358000888719860BC0F2FE06C081E0888782E03A
:1035900089871A8605C0188681E0898782E08A8734
:1035A000DF91CF911F910F91FF900895CF93DF93FB
:1035B000EC018E819F81009711F00E94753060E0D0
:1035C0008C81DF91CF910C940F24CF93DF93EC018A
:1035D00061E08C810E940F2460E08C81DF91CF91AB
:1035E0000C944824CF92DF92EF92FF920F931F9397
:1035F000CF93DF93CDB7DEB729970FB6F894DEBF30
:103600000FBECDBF8C01DC0116968D919C91179752
:10361000892B09F49BC00E940023F801C484D5843F
:10362000E684F7846C197D098E099F096233710560
:103630008105910580F3F894828193819A8389832F
:10364000A681B7817D01EFEFEE1AFE0A8C91898782
:10365000D8011B969C911B9750960D90BC91A02D64
:10366000F801828991FF2EC09C91982B98879C919C
:10367000809589238F838F818E8388E08D83588501
:103680006F8149853D812E8189819A81F7015C9303
:1036900047FD252F3A952C93262F39F0441F00C063
:1036A00000006C93000000C0F2CF38E041916C93B1
:1036B0000000019761F7F801B18BA08B49873D832A
:1036C0002E8338C09C91982B98879C918095892354
:1036D0008F838F818C8388E08B8358856F814985A8
:1036E0003B812C8189819A81F7015C9347FD252FCD
:1036F00000C000C02C9300C000C000C000C000C0CB
:103700006C930000262F3A9541F0441F000000C042
:1037100000C000C000C000C0E8CF38E0419100C048
:103720006C9300C0019709F7F801B18BA08B498712
:103730003B832C839A83898378940E940023D80149
:103740001C966D937D938D939C931F9729960FB62E
:10375000F894DEBF0FBECDBFDF91CF911F910F91C7
:10376000FF90EF90DF90CF900895CF92DF92EF928D
:10377000FF920F931F93CF93DF93FC018081918180
:103780006817790788F5CA01AA27BB27082FC32E17
:10379000D42EE52EFF241C2DD22FC581CC2361F021
:1037A0008C9FC0011124092FCC9E600111241D2D76
:1037B0002C9F90011124D32F9B01220F331F260F22
:1037C000371F86819781820F931F2085DC01A20F0E
:1037D000B11D0C932185DC01A20FB11D1C93228524
:1037E000FC01E20FF11DD083DF91CF911F910F916A
:1037F000FF90EF90DF90CF900895962F50E060E01B
:1038000070E0592B682BCB01BA010895FF920F93FA
:103810001F93CF93DF93EC01FF24F394F60E2D81D9
:10382000F21679F10E811F812150B9F06F3F59F4E2
:1038300030E040E050E06FEF7FEF80E090E00E94EA
:10384000972FB9010CC08F2D90E0982F88270197F2
:10385000622F70E00E94612F02C060E070E0F8010A
:103860008A819B81AF01401B510B4817590740F4D7
:103870004081469FC001479F900D11249193F0CF46
:10388000FD82DF91CF911F910F91FF9008950F93CB
:10389000FC0113AE14AE15AE04960E9434210F91B4
:1038A00008950F93FC010150040F84A996A9941761
:1038B00018F0081728F402C0081750F0041740F455
:1038C0002150260F83A995A9961720F4281720F4D4
:1038D00080E007C0281720F481E0261710F0F8CF09
:1038E00081E00F910895DB011496ED91FC911597FD
:1038F00020E030E061E00994DB011496ED91FC9149
:10390000159720E030E063E00994DB011496ED9117
:10391000FC91159720E030E040E064E00994DB0181
:103920001496ED91FC91159720E030E041E064E0C1
:103930000994DB011496ED91FC91159720E030E09D
:1039400062E00994DB011496ED91FC91159720E05B
:1039500030E065E00994DB011496ED91FC91159738
:1039600066E00994AF92BF92CF92DF92EF92FF92FE
:103970000F931F93CF93DF931F92CDB7DEB75C01F8
:103980008B017A0180E0F7014491811109C04F3F1A
:10399000D9F1B801C5010E94A21C81112EC039C005
:1039A0004F3FB9F34E3FB9F1403F38F5403E30F05C
:1039B0004F70B801C5010E94991C1FC0403D30F0F6
:1039C0004F70B801C5010E947C1C17C0403CB8F084
:1039D000B801C50149830E94851C49814295407FF9
:1039E0004E5FC42ED12CC6010E94C51DB801C50171
:1039F0000E948F1CC6010E94C51D80E006C047FDC5
:103A0000FCCF842F90E0F7CF81E0FFEFEF1AFF0AA1
:103A1000BACF80E001C081E00F90DF91CF911F917C
:103A20000F91FF90EF90DF90CF90BF90AF900895EF
:103A3000860F911DFC0183A18F3F19F0642F0C9418
:103A400048240895EF92FF920F931F93CF93DF9333
:103A50007C01C0E0D0E087010C0F1D1FF80183A19D
:103A60008F3F41F061E00E940F2461E0F80183A1E3
:103A70000E9448242196CD30D10569F7DF91CF917E
:103A80001F910F91FF90EF9008958EBD0DB407FE2A
:103A9000FDCF8EB50895CF92DF92EF92FF920F93F4
:103AA0001F93CF93DF931F92CDB7DEB76C017901DF
:103AB000062F10E0F8013197E730F10508F05AC001
:103AC000EA5AFF4F0C94B62F49830E94221D61E0F1
:103AD0008FE00E940F2460E08FE00E94482461E0A4
:103AE00080E10E940F2460E080E10E94482461E0B0
:103AF00081E10E940F2461E081E10E9448241CBC06
:103B000080E58CBD49814230A8F581E08DBD32C091
:103B100061E004C0411106C041E062E0C6010E94BC
:103B2000181D28C040E064E00E94181D40E0F5CF59
:103B3000FC0183A18F3FF1F060E0F0CF842F0E9461
:103B4000451D18C04423B1F0F70181917F014983DD
:103B50000E94451D49814150F5CF442359F0F7019A
:103B6000849149830E94451DFFEFEF1AFF0A4981A6
:103B70004150F3CF81E00F90DF91CF911F910F91D2
:103B8000FF90EF90DF90CF9008952EE93FE00097EF
:103B900029F0F9013197F1F70197F9CF0895BF9214
:103BA000CF92DF92EF92FF920F931F93CF93DF9309
:103BB0008C01EB01B42E790180E1481709F454C05F
:103BC000841700F1EAE04E1721F1FFE04F1357C0D0
:103BD00041E0C8010E947C1C40E0BE01C8010E9477
:103BE000991C41E8BE01C8010E94A21CF701408156
:103BF000BE01C8010E94A21C40E0BE01C8010E9493
:103C00007C1C3BC081E1481791F1E5E14E1761F062
:103C100036C042E0C8010E94731C4BE353E0BE0172
:103C2000C8010E94B21C2BC0CA80DB8043E353E072
:103C3000C8010E94B21CF6014481406BBE01C8015C
:103C40000E94A21C41E0BE01C8010E94991CAE0165
:103C5000B801C6010E94E821882301F140E0BE01BD
:103C6000C8010E947C1C0BC04AE253E002C04FE135
:103C700053E0BE01C8010E94B21C81E010C0970150
:103C80004B2DBE01C801DF91CF911F910F91FF9085
:103C9000EF90DF90CF90BF900C94602280E0DF9196
:103CA000CF911F910F91FF90EF90DF90CF90BF9039
:103CB0000895FC01E60FF11D849190E0982F88276C
:103CC0003196E4918E0F911D0895FC018491089521
:103CD0000E94651E882311F0823011F486E0089559
:103CE00083E0089580E0089566E00C94591E68E032
:103CF0000C94591E0A96FC01849108950B96FC01C0
:103D000084910895BF92CF92DF92EF92FF920F932A
:103D10001F93CF93DF93EC01E62E0C811D81C80128
:103D20000E94651EF82E8C819D810E94681EB82E0F
:103D300021E0F21619F0CC24CA9402C05FE0C52E2F
:103D40008C819D810E947A1EF82E8C819D810E941B
:103D50007E1ED82E8C819D810E94771EE0E6EE1596
:103D600038F4009729F0080F191F41E6F42E10C00F
:103D70008C819D810E94741EF0E4FE1538F400973A
:103D800029F0080F191F31E4F32E02C00F5E1F4FF8
:103D9000DE1440F4188A1B8A1C8A198A1A8A80E069
:103DA00090E050C0DF14B0F32B2D30E0F801849187
:103DB0008F3F19F40F5F1F4F40C0FE1036C08C813B
:103DC0009D810E94651E98012F5F3F4FF801882357
:103DD00011F0823091F484918B8BF90124912C8B1A
:103DE000F8013396E491E88BF8013496E491E98B7D
:103DF000F8013596E491EA8B16C09491892F8F7063
:103E000082508A8B92959F70998BF9012491822F11
:103E10008F708C8B22952F702B8BF8013296E4914A
:103E2000E295EF70E88BC8010DC0F8013296E4917D
:103E3000EC210E0F111D020F131FFD1409F4AACF60
:103E4000F394B4CFDF91CF911F910F91FF90EF903A
:103E5000DF90CF90BF9008954F925F927F928F92A4
:103E60009F92AF92BF92CF92DF92EF92FF920F9309
:103E70001F93CF93DF931F92CDB7DEB72C01162F80
:103E8000742E622F0E94821E6C01009709F43EC0BE
:103E9000F201848195810E94681EF82EF2018388C8
:103EA00004899188910E8289781A172D101B282D6C
:103EB000412F692DC2010E94511C882321F1CF0C92
:103EC000D11CF7E08F0E869486948694A82CB12C92
:103ED0001715C9F0392D76018E2D8C19881578F4B7
:103EE000F701049120E0412F632FC20139830E9422
:103EF0007221FFEFEF1AFF0A3981385FEDCFCA0C4C
:103F0000DB1C1F5FE5CFF201808901C080E00F90CC
:103F1000DF91CF911F910F91FF90EF90DF90CF90A5
:103F2000BF90AF909F908F907F905F904F9008953B
:103F30000F931F93CF93DF9300D01F92CDB7DEB7BF
:103F40008C01DC015596ED91FC9156972B834A83A9
:103F5000698309954A81480F2B816981C8010F90B7
:103F60000F900F90DF91CF911F910F910C942C1F08
:103F7000DC0114968D919C911597009709F43FC030
:103F800057962C915797FC01211108C03596E49162
:103F90005896EC935897FC013C9611C0213041F49F
:103FA0003F96E4915896EC935897FC01709607C0A1
:103FB0003D96E4915896EC935897FC013E96849177
:103FC00059968C93599758968C915897992787FDB5
:103FD000909559962C915997821B910927FD93959D
:103FE0005A962C915A97203441F0829FC001112497
:103FF000E6E096958795EA95E1F75B968C930895B0
:1040000022E73EE1FC01368B258B0895CF93DF93A9
:10401000EC018C819D818617970749F07D836C8325
:10402000CE010E94B81F82E79EE19E8B8D8BDF91AF
:10403000CF9108951F93CF93DF93EC011D821C82D3
:104040001F821E82198681E0888782E28A871F8606
:104050001E8680E090E02FEFFE01E80FF91F23A3FA
:1040600001968E309105C1F711E018A3CE010E9490
:1040700000201F8B188E198E80E48A8F1B8E89EA90
:1040800092E29AAB89ABDF91CF911F910895DB014A
:10409000ED91FC910994EF92FF921F93CF93DF93E0
:1040A00000D0CDB7DEB77C01DC01D196ED91FC915B
:1040B000D29782E069837A83099520E030E04AE074
:1040C00069817A81C7010E944720182FD701D196B4
:1040D000ED91FC91D29783E00995D701D196ED91AE
:1040E000FC91D29780E00995812F0F900F90DF917E
:1040F000CF911F91FF90EF9008950F931F93CF934F
:10410000DF93EC018B01E9A9FAA982E00995E9A9FD
:10411000FAA981E0099520E030E044E1B801CE0140
:104120000E9447209E012D5C3F4F47E1B801CE0120
:104130000E944720E9A9FAA980E0DF91CF911F9161
:104140000F910994FF920F931F93CF93DF93EC018C
:104150008B01E9A9FAA982E00995E9A9FAA981E008
:10416000099520E030E045E1B801CE010E944720EA
:10417000F82E882341F09E012D5C3F4F47E1B801A6
:10418000CE010E944720E9A9FAA980E009958F2D68
:10419000DF91CF911F910F91FF900895CF93DF93FF
:1041A0001F92CDB7DEB749839E012F5F3F4F4FE08F
:1041B0000E9447200F90DF91CF910895CF93DF9316
:1041C0001F92CDB7DEB79E012F5F3F4F46E40E949E
:1041D000472089810F90DF91CF910895CF93DF938E
:1041E0001F92CDB7DEB79E012F5F3F4F47E40E947D
:1041F000472089810F90DF91CF91089520E030E032
:1042000048E40C944720CF93DF93EC016A817B81D3
:104210000E94DE2088836A817B81CE010E94EE208D
:1042200089836A817B81CE010E94FE208B879E015B
:104230002D5C3F4F6A817B8147E1CE01DF91CF91B9
:104240000C944720CF93DF93EC016A817B810E941D
:104250004B20882329F0CE010E94032181E001C078
:1042600080E0DF91CF910895CF92DF92EF92FF929D
:104270000F93CF93DF9300D0CDB7DEB76C017B01F6
:104280002A8349830E941A20F601F382E28249813F
:1042900045A32A8124A303A3C6010F900F90DF91A9
:1042A000CF910F91FF90EF90DF90CF900C9422214F
:1042B000FC01628173810C947D20CF93DF93EC012C
:1042C000EE85FF85309709F009956A817B81CE01E3
:1042D000DF91CF910C94A220462FFC016281738163
:1042E0000C94CE200F93FC0182819381648F458FC3
:1042F000278F068F9F01245E3F4F4BE3BC01CF0108
:104300000F910C944720FC0160A30895FC011282D8
:1043100080818150838314820895FC0120818281F1
:10432000820F82839181891760F484818F5F8483F7
:104330008381820F891710F08FEF890F838381E0CB
:10434000089580E00895DC011696ED91FC91179791
:1043500015968C919F01280F311DC9011192E81704
:10436000F907E1F70895FC0191E08381861708F4CD
:1043700090E021E0461708F020E0322F392B81E051
:104380005281451708F480E083239223892B0895F6
:10439000DC01FB01108212968C9112978183159695
:1043A0008C9115978150828313968C918383089505
:1043B000FB0141812381213029F0233031F468EF62
:1043C000640F04C0642F485F01C0642F0C94B321B4
:1043D000FC01CB01BA012681378145810C94AB1CCD
:1043E000DC011696ED91FC91179712968C91481B63
:1043F000477081E090E0042E01C0880F0A94EAF72C
:10440000E60FF11D3081222311F0832B02C080952D
:10441000832380830895FB014181DC0112962C9156
:104420001297421768F013962C911397241740F0B7
:10443000608115962C91621718F424810C94F02158
:104440000895CF92DF92FF920F931F93CF93DF9344
:1044500000D0CDB7DEB78C016B01FB01F280838108
:10446000813039F070F0823039F0833041F020E053
:1044700001C021E030E007C020E03FEF04C02FEF93
:10448000F9CF20E031E0F7FE08C0B601C80129836A
:104490003A830E940B223A812981F6018081830FA1
:1044A00080838181820F8183FF0C69F70F900F90C9
:1044B000DF91CF911F910F91FF90DF90CF900895E2
:1044C0000F931F93CF93DF938901FB01C281D381A7
:1044D0004233F9F068F4453109F1473141F1443193
:1044E00081F5CE010E94A321CE010E94862129C020
:1044F000463411F1473411F14B3319F5B901CE01AE
:104500000E94D8218823E9F0B801CE010E9421221F
:1045100018C0B901CE010E940B2213C0CE010E9427
:104520008D21882381F0CE010E94A3210AC0B90108
:10453000CE010E94C82105C08D8101C08981F8018A
:10454000808381E001C080E0DF91CF911F910F91C6
:10455000089508951F920F920FB60F9211242F9372
:104560003F938F939F93AF93BF938091EE0390916E
:10457000EF03A091F003B091F1033091ED0323E03C
:10458000230F2D3720F40196A11DB11D05C026E88B
:10459000230F0296A11DB11D2093ED038093EE031E
:1045A0009093EF03A093F003B093F1038091F20393
:1045B0009091F303A091F403B091F5030196A11D2E
:1045C000B11D8093F2039093F303A093F403B0938F
:1045D000F503BF91AF919F918F913F912F910F90D4
:1045E0000FBE0F901F9018952FB7F8946091EE03AF
:1045F0007091EF038091F0039091F1032FBF089524
:104600003FB7F8948091F2039091F303A091F403E3
:10461000B091F50326B5A89B05C02F3F19F0019670
:10462000A11DB11D3FBF6627782F892F9A2F620FDA
:10463000711D811D911D42E0660F771F881F991F14
:104640004A95D1F70895CF92DF92EF92FF92CF93E0
:10465000DF936B017C010E940023EB01C114D104A4
:10466000E104F10489F00E94F22B0E9400236C1BEC
:104670007D0B683E734090F381E0C81AD108E108D1
:10468000F108C851DC4FEACFDF91CF91FF90EF9056
:10469000DF90CF900895789484B5826084BD84B50E
:1046A000816084BD85B5826085BD85B5816085BD2D
:1046B000EEE6F0E0808181608083E1E8F0E0108246
:1046C000808182608083808181608083E0E8F0E087
:1046D000808181608083E1E9F0E080818260808375
:1046E000808181608083E0E9F0E080818160808367
:1046F000E1ECF0E08081846080838081826080834F
:10470000808181608083E3ECF0E080818160808340
:10471000E0ECF0E0808182608083E2ECF0E0808178
:1047200081608083EAE7F0E080818460808380811B
:1047300082608083808181608083808180688083C3
:104740000895823108F08251E82FF0E0EE54F14FE5
:10475000E49180917B00E3FB222720F930E095E093
:10476000220F331F9A95E1F78F7D822B80937B0078
:10477000E7708091270120E4829FC0011124E82B7B
:10478000E0937C0080917A00806480937A0080912D
:104790007A0086FDFCCF809178002091790090E02E
:1047A000922B089590E0FC013197EF30F105B0F5C0
:1047B000E35AFF4F0C94B62F809180008F7703C08F
:1047C000809180008F7D809380000895809180008B
:1047D000877FF9CF84B58F7702C084B58F7D84BD84
:1047E0000895809190008F7707C0809190008F7D11
:1047F00003C080919000877F8093900008958091FE
:10480000C0008F7703C08091C0008F7D8093C0006F
:1048100008958091C200877F8093C2000895CF934E
:10482000DF9390E0FC01E452F14F2491FC01E6504B
:10483000F14F8491882349F190E0880F991FFC0182
:10484000EC5CF04FA591B4918A5D904FFC01C5914D
:10485000D4919FB7611108C0F8948C912095822360
:104860008C93888182230AC0623051F4F8948C9131
:10487000322F309583238C938881822B888304C0C8
:10488000F8948C91822B8C939FBFDF91CF910895E8
:104890000F931F93CF93DF931F92CDB7DEB7282FCF
:1048A00030E0F901E254F14F8491F901E452F14F03
:1048B0001491F901E650F14F04910023C9F08823C7
:1048C00021F069830E94D2236981E02FF0E0EE0F8E
:1048D000FF1FEA5DF04FA591B4919FB7F8948C91BA
:1048E000611103C01095812301C0812B8C939FBF60
:1048F0000F90DF91CF911F910F910895CF93DF9388
:104900001F92CDB7DEB76983DC01ED91FC91028087
:10491000F381E02D41E050E0BE016F5F7F4F0995CC
:104920000F90DF91CF910895CF93DF93EC018C85A9
:104930009D8597FF05C082E00E9462279D878C8736
:104940008C859D85DF91CF91089583E00C94B529E6
:10495000FC018485958597FD06C082E00E940A27A8
:1049600090E00196089582E00E940A2790E0089561
:10497000FC018485958597FD05C02FEF3FEF3587B6
:104980002487089582E00C946227CF93DF93EC0193
:1049900080912F01882331F083E00E94932718161D
:1049A000190634F081E090E09B838A8380E090E0F8
:1049B000DF91CF910895FC0120812E5F208342E496
:1049C00050E062E47FE080E80C942E28FC018181B5
:1049D0009081913A59F4813209F03CC047E050E0AF
:1049E00068E271E080E00E942E2843C0913291F588
:1049F000803239F467E070E088E291E00E945F283D
:104A000006C0823209F035C0828180932F018091E7
:104A1000280190912901A0912A01B0912B01803B9E
:104A20009440A105B105C1F480912F0180FD14C00F
:104A300087E797E790930108809300082BE088E1CF
:104A400090E00FB6F894A895809360000FBE209375
:104A500060000FC080E0089588E10FB6F89480935D
:104A60006000109260000FBEA8951092010810928D
:104A7000000881E008952FEF3FEFFC013587248780
:104A800008951092F9031092F80388EE93E0A0E0E5
:104A9000B0E08093FA039093FB03A093FC03B093E0
:104AA000FD0382E392E09093F7038093F6038FEF88
:104AB0009FEF90930304809302040895CF92DF92B6
:104AC000EF92FF920F931F93CF93DF936C017A01C4
:104AD000EB01E60EF71E00E010E0CE15DF0561F0F9
:104AE0006991D601ED91FC910190F081E02DC60114
:104AF0000995080F191FF1CFC801DF91CF911F91C0
:104B00000F91FF90EF90DF90CF90089561157105A0
:104B100081F0DB010D900020E9F7AD014150510912
:104B2000461B570BDC01ED91FC910280F381E02DD7
:104B3000099480E090E00895EF92FF920F931F9305
:104B4000CF93DF938C01FB01C0E0D0E064917F0143
:104B50008FEFE81AF80A662361F0D801ED91FC9115
:104B60000190F081E02DC8010995C80FD91FF70108
:104B7000EDCFCE01DF91CF911F910F91FF90EF907C
:104B800008950C948625DC01ED91FC910190F08153
:104B9000E02D09940F931F93CF93DF93EC016DE009
:104BA0000E94C3258C016AE0CE010E94C325800FBC
:104BB000911FDF91CF911F910F9108958F929F9236
:104BC000AF92BF92CF92DF92EF92FF920F931F931B
:104BD000CF93DF93CDB7DEB7A1970FB6F894DEBFC2
:104BE0000FBECDBF7C01C42EE52FCB01D22E19A262
:104BF00021E02D1510F02AE0D22E8E010F5D1F4FFF
:104C00008D2C912CA12CB12C6C2D7E2FA501940103
:104C10000E94752F8C2DD29E8019112401501109EC
:104C20008A3014F4805D01C0895CF801808321150D
:104C300031054105510521F0C22EE32FCA01E4CF11
:104C4000B801C7010E948625A1960FB6F894DEBF71
:104C50000FBECDBFDF91CF911F910F91FF90EF90CD
:104C6000DF90CF90BF90AF909F908F900895CF929C
:104C7000DF92EF92FF920F931F93CF93DF93EC019C
:104C80006A017B012115310579F4E881F9810190F0
:104C9000F081E02D642FDF91CF911F910F91FF9054
:104CA000EF90DF90CF9009942A303105E9F477FF37
:104CB0001AC06DE20E94C3258C0144275527BA0112
:104CC0004C195D096E097F092AE0CE010E94DE259C
:104CD000800F911FDF91CF911F910F91FF90EF9067
:104CE000DF90CF9008952AE0B701A601CE01DF91B1
:104CF000CF911F910F91FF90EF90DF90CF900C9488
:104D0000DE259A01AB01662757FD6095762F0C943E
:104D100037262115310541F4DC01ED91FC9101901C
:104D2000F081E02D642F09940C94DE259A01462F22
:104D300050E060E070E00C9489269A01AB0160E0DD
:104D400070E00C94892640914A0450914B042091C4
:104D500048043091490442175307B4F49091E80095
:104D60009570E1F39091E80092FD19C08093F100F5
:104D700080914A0490914B0401968F739927892B57
:104D800019F48EEF8093E80080914A0490914B04CF
:104D9000019690934B0480934A0481E0089580E04B
:104DA0000895FF920F931F93CF93DF938C0188E1B7
:104DB0000E94A32683E00E94A326C0E0D0E0F80171
:104DC000EC0FFD1F84910E94A326F82E80E00E9424
:104DD000A3268F2121F02196CB30D10581F7DF91D9
:104DE000CF911F910F91FF900895615030F0209165
:104DF000F100FC0120830196F8CF289884E6809387
:104E00004D0408952FB7FC012083F89467706093D8
:104E1000E9000895CF93DF931F92CDB7DEB7682FD7
:104E2000CE0101960E9402278091F20099819FBFD6
:104E30000F90DF91CF910895FF920F931F93CF931F
:104E4000DF9300D0CDB7DEB7F62E8A0190914C04E7
:104E5000992311F057FF03C08FEF9FEF2BC0682FEE
:104E6000CE0101967A830E9402278091F20090E0A1
:104E7000A8017A81801791070CF4AC01EF2DF72F70
:104E8000F40E84E6FE1639F0289880934D04909134
:104E9000F1009193F7CF4115510521F08091F20077
:104EA000882321F089818FBFCA0104C08BE68093DB
:104EB000E800F8CF0F900F90DF91CF911F910F91E5
:104EC000FF900895CF93DF931F92CDB7DEB741E0F7
:104ED00050E0BE016F5F7F4F0E941C27019719F4BD
:104EE000898190E002C08FEF9FEF0F90DF91CF910B
:104EF0000895CF93DF931F92CDB7DEB7682FCE0111
:104F000001960E9402279091E800892F807295FFF8
:104F100004C09091F20080E4891B99819FBF0F909B
:104F2000DF91CF9108956F927F928F929F92AF926F
:104F3000BF92CF92DF92EF92FF920F931F93CF9386
:104F4000DF931F92CDB7DEB7782E7B01C42EB52E2E
:104F500080914C04882369F0042F152F8AEFD82EF6
:104F6000872D8072982E9AE3A92E872D8074882E23
:104F700011C08FEF9FEF57C0872D0E947927682EB1
:104F800081110CC0DA94A9F361E070E080E090E058
:104F90000E9423230115110579F73BC0282F30E02B
:104FA000021713070CF4602E672DCE0101960E94A4
:104FB00002278091E80085FF29C0262D30E0021BE2
:104FC000130B992039F06A948FEF6816B1F01092A4
:104FD000F100F9CFF701862D77FE07C0815058F018
:104FE00094919093F1003196F9CF815020F09191F6
:104FF0009093F100FACFE20EF31E8091E80085FF56
:105000000FC00115110511F481100AC089818FBFED
:10501000C1CF5D9884E680934E048C2D9B2D03C0F8
:10502000A092E800F3CF0F90DF91CF911F910F91E5
:10503000FF90EF90DF90CF90BF90AF909F908F90B8
:105040007F906F9008951092E90010924B04109297
:105050004A0490934904809348040895CF92DF92C4
:10506000FF920F931F93CF93DF9300D0CDB7DEB79E
:10507000F82E8A016B0101151105B1F0F601F7FE5A
:1050800002C0849101C0808149835A830E94A32673
:1050900001501109FFEFCF1ADF0A49815A818111AE
:1050A000EACF8FEF9FEF01C0CA010F900F90DF9101
:1050B000CF911F910F91FF90DF90CF9008951F9394
:1050C000CF93DF931F92CDB7DEB7162F2091E80064
:1050D00022FFFCCF612F79830E94F5268BEF80930E
:1050E000E800812F7981972F0F90DF91CF911F9149
:1050F0000895CF93DF931F92CDB7DEB71982CE010B
:1051000001960E94DB24CE0101960E94112C898118
:1051100090E00F90DF91CF9108951F920F920FB6FC
:105120000F921124EF92FF920F931F932F933F93AF
:105130004F935F936F937F938F939F93AF93BF939F
:10514000EF93FF93CF93DF93CDB7DEB76297DEBFC8
:10515000CDBF1092E9008091E80083FFE9C068E0CC
:10516000CE010A960E94F52682EF8093E8009A8588
:1051700097FF05C08091E80080FFFCCF03C08EEF51
:105180008093E800892F807609F0B7C08B85811164
:1051900005C01092F1001092F100C3C0282F2D7F9E
:1051A000213009F4BEC0853049F48091E80080FFC9
:1051B000FCCF8C8580688093E300B3C0863009F013
:1051C00074C02D85E888F988223071F580E090E080
:1051D0002A8B0E9423280E94792899E08E010F5F74
:1051E0001F4FF801392F11923A95E9F799832A89CF
:1051F0002A8391E09E8390E898879AEF998720917F
:105200004A0430914B04275F3F4F3C832B838D83AF
:10521000C7010E94232849E050E0B80180E00E94C5
:105220002E280E9479287DC0C7012A8B0E9423283E
:105230002A89223241F482E290E00E941C2C892BC0
:1052400009F06FC072C0213069F488899989089784
:1052500011F42093470480914704811116C06BE933
:105260007FE018C0233009F060C08C85882381F06E
:10527000823019F489EB9FE005C0813009F055C0F8
:105280008DEA9FE00E94D1264AC069E87FE002C013
:1052900065EC7FE06115710509F447C0FB0144919D
:1052A00050E080E80E942E283CC0873009F43DC0C1
:1052B000883021F481E08093F10033C0893089F592
:1052C000937099F5E5E8FFE081E021E096E38093B3
:1052D000E9002093EB0034913093EC009093ED00C3
:1052E0008F5F3196853099F78EE78093EA001092B0
:1052F000EA008C8580934C0414C0888999890E94A7
:1053000023288E85811105C0CE010A960E94E624CD
:1053100006C0823051F4CE010A960E94442C8823A4
:1053200021F08EEF8093E80003C081E28093EB00D0
:1053300062960FB6F894DEBF0FBECDBFDF91CF915E
:10534000FF91EF91BF91AF919F918F917F916F915D
:105350005F914F913F912F911F910F91FF90EF908F
:105360000F900FBE0F901F9018958093E9008091C9
:10537000F200882319F08AE38093E80008951F92D1
:105380000F920FB60F9211242F933F934F935F9379
:105390006F937F938F939F93AF93BF93EF93FF93FD
:1053A0008091E1001092E10083FF0FC01092E900AC
:1053B00091E09093EB001092EC0092E39093ED005B
:1053C00010924C0498E09093F00082FF1DC083E09F
:1053D0000E94B52980914E04882339F080914E04B3
:1053E000815080934E04882369F080914D04882376
:1053F00059F080914D04815080934D04811104C077
:10540000289A02C05D9AF1CFFF91EF91BF91AF91C1
:105410009F918F917F916F915F914F913F912F91CC
:105420000F900FBE0F901F90189510924C0481E0C2
:105430008093D70080EA8093D80082E189BD09B4C7
:1054400000FEFDCF61E070E080E090E00E94232349
:1054500080E98093D8008CE08093E2001092E00015
:10546000559A209A08954F925F926F927F92AF92D1
:10547000BF92CF92DF92EF92FF920F931F93CF9341
:10548000DF93CDB7DEB729013A01621B730B840BA2
:10549000950B29893A894B895C892A193B094C0962
:1054A0005D09298B3A8B4B8B5C8B9B01AC01698925
:1054B0007A898B899C890E94512FE418F508060986
:1054C0001709A80197010E94972F2A0D3B1D4C1D1B
:1054D0005D1DCA01B901DF91CF911F910F91FF901E
:1054E000EF90DF90CF90BF90AF907F906F905F90E4
:1054F0004F900895FC01808191810C947530CF9379
:10550000DF93EC0188819981009711F00E9475303A
:10551000198218821D821C821B821A82DF91CF9110
:1055200008950F931F93CF93DF93EC018B016F5F6F
:105530007F4F888199810E940431009731F09983CF
:1055400088831B830A8381E001C080E0DF91CF91D3
:105550001F910F910895CF93DF93EC01888199817A
:10556000892B29F08A819B818617970760F4CE01E9
:105570000E94912A882341F08C819D81892B19F406
:10558000E881F981108281E0DF91CF910895EF9257
:10559000FF920F931F93CF93DF93EC017B018A015E
:1055A000BA010E94AB2A811104C0CE010E947F2A59
:1055B00007C01D830C83B701888199810E94333213
:1055C000CE01DF91CF911F910F91FF90EF90089541
:1055D000FC011182108213821282158214826115DD
:1055E000710559F0FB0101900020E9F7AF0141502E
:1055F0005109461B570B0C94C72A0895EF92FF924E
:105600000F931F93CF93DF93EC017B018A01BA01C3
:105610000E94AB2A811104C0CE010E947F2A07C0DC
:105620001D830C83B701888199810E941332CE01BA
:10563000DF91CF911F910F91FF90EF900895CF933D
:10564000DF93EC016115710561F0FB010190002011
:10565000E9F7AF0141505109461B570B0E94C72A79
:1056600002C00E947F2ACE01DF91CF9108950F934F
:105670001F93CF93DF9300D0CDB7DEB78C016115B8
:10568000710561F0CB0169837A830E941A32AC0103
:1056900069817A81C8010E94FE2A02C00E947F2A85
:1056A000C8010F900F90DF91CF911F910F91089536
:1056B000FC011182108213821282158214820C94D2
:1056C000372BEF92FF920F931F93CF93DF93EC0151
:1056D0007B010C811D816115710511F480E016C0FC
:1056E0004115510591F0040F151FB8010E94AB2A16
:1056F0008823A1F3288139818C819D81B701820F94
:10570000931F0E9433321D830C8381E0DF91CF9180
:105710001F910F91FF90EF900895CF93DF9300D0EA
:10572000CDB7DEB769831A8241E050E0BE016F5FFA
:105730007F4F0E94612B0F900F90DF91CF910895C2
:10574000FA01DB0114964D915C911597DC011496DA
:105750002D913C911597241B350B2E173F0788F090
:105760008D919C91009769F0DB016D917C916115A1
:10577000710539F08E0F9F1F0E943A3221E0892B6C
:1057800009F020E0822F0895FC0144815581FB013E
:10579000248135814217530720F040E050E00C94FB
:1057A000A02B80E00895FC0180819181009711F089
:1057B0000C94EC3160E070E0CB01089508950E94F4
:1057C0004B230E94DE2B86E494E00E94152A0E945F
:1057D000600FC0E0D0E00E94D8162097E1F30E944D
:1057E0000000F9CF0895FF920F931F93CF93DF939B
:1057F000EC01F62EE881F9810480F581E02D099510
:105800008C01E881F9810680F781E02D6F2DCE01B2
:105810000995C8019927DF91CF911F910F91FF90B2
:105820000895FC0120812F5F208349E150E069E465
:1058300070E180E80C942E2845E650E062E670E1C5
:1058400080E80C942E28EF92FF920F931F93CF9332
:10585000DF931F92CDB7DEB789838B017A0141E0D8
:1058600050E0BE016F5F7F4F84E00E949327A70145
:10587000B80184E40E9493270F90DF91CF911F918C
:105880000F91FF90EF900895FC0191818081813A02
:1058900031F481E0913091F0933089F411C081327C
:1058A00071F49B3021F482818093310105C09A30DC
:1058B00031F482818093300181E00895089580E081
:1058C000089548E050E082E00C94232CCF93DF93BE
:1058D000DC01683818F0E8E7E60F25C0E62FF0E0B5
:1058E00067FF11C0E058F10981E090E001C0880F26
:1058F000EA95EAF714969C911497982B14969C932A
:105900001497E0E010C0E753F04FE491EE2309F460
:1059100040C0E7FF08C014968C91149782601496DB
:105920008C931497EF7716968C9116978E1741F1FA
:1059300017968C9117978E1719F118968C911897C6
:105940008E17F1F019968C9119978E17C9F01A9647
:105950008C911A978E17A1F01B968C911B978E171E
:1059600079F080E090E0ED01C80FD91F2E81211160
:1059700002C0EE8305C0019686309105A1F709C0EB
:10598000BD016C5F7F4FCD010E94612C81E090E0F2
:1059900008C081E090E013969C938E93129780E06C
:1059A00090E0DF91CF910895683818F0E8E7E60FAE
:1059B00025C0E62FF0E067FF12C0E058F10921E0B2
:1059C00030E001C0220FEA95EAF72095DC01149639
:1059D0003C911497322314963C93E0E00FC0E753B8
:1059E000F04FE491EE2329F1E7FF08C0DC011496A3
:1059F0002C9114972D7F14962C93EF7720E030E0B4
:105A0000EE2351F0DC01A20FB31F16964C911697AE
:105A10004E1302C016961C922F5F3F4F2630310561
:105A200079F7BC016C5F7F4F0E94612C81E090E0B0
:105A3000089580E090E00895FC0116821782108698
:105A40001186128613861482BC016C5F7F4F0C9402
:105A5000612C10925B04109252041092510482E463
:105A600092E09093500480934F0408955058BB27C0
:105A7000AA270ED075C166D130F06BD120F031F479
:105A80009F3F11F41EF45BC10EF4E095E7FB51C19A
:105A9000E92F77D180F3BA17620773078407950758
:105AA00018F071F49EF58FC10EF4E0950B2EBA2F0D
:105AB000A02D0B01B90190010C01CA01A001112414
:105AC000FF27591B99F0593F50F4503E68F11A16C0
:105AD000F040A22F232F342F4427585FF3CF469551
