:100000000C9463000C948B000C948B000C94910363
:100010000C9491030C9491030C948B000C948B0022
:100020000C948B000C948B000C948B000C948B0024
:100030000C948B000C948B000C948B000C948B0014
:100040000C9447030C948B000C9415030C94EF0252
:100050000C948B000C948B000C948B000C948B00F4
:100060000C948B000C948B000000000024002700EF
:100070002A0000000008000201000003040700003D
:1000800000000000000000000000250028002B00F8
:1000900000000000230026002900040404040404D6
:1000A0000404020202020202030303030303010227
:1000B00004081020408001020408102001020408F6
:1000C00010200B04180611241FBECFEFD8E0DEBFAE
:1000D000CDBF11E0A0E0B1E0E4ECFCE002C005908F
:1000E0000D92A032B107D9F722E0A0E2B1E001C041
:1000F0001D92A932B207E1F710E0C2E6D0E004C0D9
:100100002197FE010E944A06C136D107C9F70E9415
:10011000B6040C9455060C940000CF92DF92EF9237
:10012000FF920F931F93CF93DF936C017A018B01A2
:10013000C0E0D0E0CE15DF0589F0D8016D918D01CA
:10014000D601ED91FC910190F081E02DC601099559
:10015000892B11F47E0102C02196ECCFC701DF91FB
:10016000CF911F910F91FF90EF90DF90CF90089566
:10017000FC01918D828D981761F0828DDF01A80FAF
:10018000B11D5D968C91928D9F5F9F73928F90E0D1
:1001900008958FEF9FEF0895FC01918D828D981740
:1001A00031F0828DE80FF11D858D90E008958FEF7D
:1001B0009FEF0895FC01918D228D892F90E0805C46
:1001C0009F4F821B91098F73992708958DE691E0C7
:1001D0000E94DA0021E0892B09F420E0822F0895A3
:1001E000FC01848DDF01A80FB11DA35ABF4F2C91D4
:1001F000848D90E001968F739927848FA689B789A3
:100200002C93A089B1898C9180648C93938D848D7B
:10021000981306C00288F389E02D80818F7D80834A
:100220000895EF92FF920F931F93CF93DF93EC010A
:1002300081E0888F9B8D8C8D981305C0E889F989A2
:10024000808185FD24C0F62E0B8D10E00F5F1F4FBF
:100250000F731127E02E8C8DE8120CC00FB607FC2F
:10026000FACFE889F989808185FFF5CFCE010E9418
:10027000F000F1CF8B8DFE01E80FF11DE35AFF4F27
:10028000F0820B8FEA89FB898081806207C0EE894A
:10029000FF896083E889F98980818064808381E0B7
:1002A00090E0DF91CF911F910F91FF90EF90089513
:1002B000CF93DF93EC01888D8823C9F0EA89FB890D
:1002C000808185FD05C0A889B9898C9186FD0FC004
:1002D0000FB607FCF5CF808185FFF2CFA889B989D9
:1002E0008C9185FFEDCFCE010E94F000E7CFDF912A
:1002F000CF91089580E090E0892B29F00E94E600DC
:1003000081110C940000089590E0FC01EE58FF4F1D
:100310003491FC01E255FF4F2491FC01E656FF4F5A
:10032000E491EE2309F43BC0332339F1333091F0EB
:1003300038F43130A9F0323001F584B58F7D12C028
:10034000373091F03830A1F03430B9F4809180002A
:100350008F7D03C0809180008F77809380000DC0D7
:1003600084B58F7784BD09C08091B0008F7703C0BA
:100370008091B0008F7D8093B000F0E0EE0FFF1F02
:10038000EA57FF4FA591B4918FB7F894EC916111A2
:1003900003C020952E2301C02E2B2C938FBF0895D0
:1003A000CF93DF9390E0FC01E255FF4F2491FC01D5
:1003B000E656FF4F8491882361F190E0880F991FE2
:1003C000FC01E859FF4FC591D491FC01EA57FF4F5A
:1003D000A591B491611109C09FB7F89488812095C7
:1003E00082238883EC912E230BC0623061F49FB787
:1003F000F8943881822F809583238883EC912E2B6B
:100400002C939FBF06C08FB7F894E8812E2B2883CA
:100410008FBFDF91CF9108953FB7F8948091650128
:1004200090916601A0916701B091680126B5A89BE3
:1004300005C02F3F19F00196A11DB11D3FBFBA2F76
:10044000A92F982F8827820F911DA11DB11DBC01D6
:10045000CD0142E0660F771F881F991F4A95D1F79B
:10046000089520916B0130916C012817390771F4C0
:100470009091690180916A01981741F0E0916901BA
:10048000F0E0E05EFE4F808190E008958FEF9FEFF7
:10049000089508951F93CF93DF93DC015C962D910F
:1004A0003C915D972115310539F481E090E0139678
:1004B0009C938E9312973DC05196ED91FC9152976B
:1004C00050969C915097892F80951FB75E964C91BE
:1004D0005E9741FB772770F941FD6095F894408164
:1004E000772311F0492B01C048234083E90121976C
:1004F000F1F748E0508160FF02C0592B01C058233A
:100500005083E9012197F1F76695415099F77723D8
:1005100021F090818923808303C08081982B908370
:100520001FBF5C968D919C915D970197F1F721E03B
:1005300030E0C901DF91CF911F91089520916B01A7
:1005400030916C012817390771F480916A0120916C
:10055000690190E0805C9F4F821B910960E470E02C
:100560000E942206089580E090E0089520916B019A
:1005700030916C0128173907B9F490916901809185
:100580006A01981789F0E0916901F0E0E05EFE4FA2
:1005900080812091690130E02F5F3F4F2F73332717
:1005A0002093690190E008958FEF9FEF0895E09107
:1005B0006B01F0916C01E817F90769F4A389B4891C
:1005C0009C918589809589238C9310926C0110925F
:1005D0006B0181E0089580E008950E9450061F920B
:1005E0000F920FB60F9211242F933F934F935F9367
:1005F0006F937F938F939F93AF93BF93EF93FF93EB
:100600008DE691E00E94F000FF91EF91BF91AF91D4
:100610009F918F917F916F915F914F913F912F911A
:100620000F900FBE0F901F9018951F920F920FB64C
:100630000F9211242F938F939F93EF93FF93E09149
:100640007D01F0917E018081E0918301F091840130
:1006500082FD12C09081809186018F5F8F732091FF
:100660008701821751F0E0918601F0E0E359FE4FD7
:10067000958F8093860101C08081FF91EF919F91BA
:100680008F912F910F900FBE0F901F9018951F9272
:100690000F920FB60F9211242F933F938F939F9336
:1006A000AF93BF938091610190916201A09163012A
:1006B000B09164013091600123E0230F2D3720F4C5
:1006C0000196A11DB11D05C026E8230F0296A11DAC
:1006D000B11D209360018093610190936201A0930A
:1006E0006301B09364018091650190916601A091CE
:1006F0006701B09168010196A11DB11D809365014C
:1007000090936601A0936701B0936801BF91AF9188
:100710009F918F913F912F910F900FBE0F901F903F
:1007200018951F920F920FB60F9211242F933F939B
:100730004F935F936F937F938F939F93AF93BF93E9
:10074000EF93FF93E0916B01F0916C01309709F406
:1007500051C0968DA685B785858591FF04C09C9173
:10076000892329F447C09C91892309F043C0A389B8
:10077000B4899C918589809589238C9386899789F2
:100780000197F1F7608D718DA685B785558538E0A5
:1007900020E0CB010197F1F7822F90E095958795A6
:1007A000282F4C91452309F02068315091F7868D10
:1007B00081FD209580916A0190E001968F739927C1
:1007C00030916901381749F0A0916A01B0E0A05E4C
:1007D000BE4F2C9380936A0103C0868D8160868F03
:1007E000828D938D0197F1F7A389B4899C918589B6
:1007F000892B8C93FF91EF91BF91AF919F918F9136
:100800007F916F915F914F913F912F910F900FBE0C
:100810000F901F9018951092700110926F0188EE42
:1008200093E0A0E0B0E08093710190937201A093F7
:100830007301B093740124E031E030936E01209392
:100840006D0125EC30E030937A012093790124EC9E
:1008500030E030937C0120937B0120EC30E030933A
:100860007E0120937D0121EC30E0309380012093C4
:100870007F0122EC30E0309382012093810126EC4D
:1008800030E030938401209383011092860110920E
:100890008701109288011092890110920D02109226
:1008A0000C0280930E0290930F02A0931002B0935B
:1008B000110284E191E090930B0280930A0210925E
:1008C0002102109220021092230210922202109212
:1008D00025021092240210922702109226026091A3
:1008E00028026E7F6D7F609328026695617081E0BB
:1008F00068278AE00E94840161E08AE00E94D001BA
:10090000E8EBF0E0E491E0931A02E4EAF0E0E4912D
:10091000F0E0EE0FFF1FEA57FF4F859194919093FF
:100920001C0280931B0260E089E00E94D00180914C
:10093000280281FD04C061E089E00E94840189E011
:1009400080931602E7EBF0E0E491E0931702E3EA0C
:10095000F0E0E491F0E0EE0FFF1FE057FF4F8591CC
:10096000949190931902809318020895789484B515
:10097000826084BD84B5816084BD85B5826085BD9B
:1009800085B5816085BD80916E00816080936E0029
:10099000109281008091810082608093810080911B
:1009A00081008160809381008091800081608093CC
:1009B00080008091B10084608093B1008091B0008C
:1009C00081608093B00080917A00846080937A0087
:1009D00080917A00826080937A0080917A008160B1
:1009E00080937A0080917A00806880937A001092D8
:1009F000C10061E082E00E94D00160E082E00E94DC
:100A000084010E940C024B015C0188EEC82E83E039
:100A1000D82EE12CF12C0E940C02DC01CB018819AC
:100A20009909AA09BB09883E9340A105B10558F070
:100A300021E0C21AD108E108F10888EE880E83E0AF
:100A4000981EA11CB11CC114D104E104F10419F7D2
:100A500061E082E00E94840110922502109224023B
:100A60001092230210922202109221021092200270
:100A700085E690E0909327028093260290911602DB
:100A8000963108F057C021E230E0309321022093E4
:100A9000200223E630E0309323022093220222E456
:100AA00030E0309325022093240220916800983092
:100AB00050F031E09E3008F430E081E001C0880F52
:100AC0003A95EAF701C084E0822B80936800983061
:100AD00038F09E3040F0963148F020E030E008C019
:100AE0002DE630E005C02BE630E002C02CE630E019
:100AF00030931E0220931D02983030F481E001C033
:100B0000880F9A95EAF70EC0292F30E09E3018F42E
:100B10002850310902C02E50310981E001C0880FF0
:100B20002A95EAF780931F0280912602909127026E
:100B30000197F1F78091240290912502892B21F1F0
:100B400080916B0190916C0122E08A309207E1F074
:100B5000009711F00E94D702809128028E7F809327
:100B6000280210926A01109269018AE092E0909343
:100B70006C0180936B01E0911D02F0911E02908147
:100B800080911F02892B8083E0917D01F0917E018D
:100B900082E08083E0917901F0917A011082E09106
:100BA0007B01F0917C0187E6808310928501E091C2
:100BB0008101F091820186E08083E0917F01F091D4
:100BC0008001808180618083E0917F01F0918001CC
:100BD000808188608083E0917F01F0918001808135
:100BE00080688083E0917F01F091800180818F7D1A
:100BF00080838AE092E00E949E02892B49F08AE07D
:100C000092E00E94B602682F8DE691E00E941101E9
:100C10008DE691E00E94DA00892B59F38DE691E090
:100C20000E94B800682F8AE092E00E944A02E1CF59
:100C300084E191E090930B0280930A028AE092E0B3
:100C40000C94D70297FB072E16F4009407D077FD7B
:100C500009D00E94360607FC05D03EF49095819598
:100C60009F4F0895709561957F4F0895AA1BBB1BF8
:100C700051E107C0AA1FBB1FA617B70710F0A61B9C
:100C8000B70B881F991F5A95A9F780959095BC01BD
:100C9000CD010895EE0FFF1F0590F491E02D09940A
:100CA00081E090E0F8940C94550610E0C2E6D0E0A4
:100CB00004C0FE010E944A062196C336D107C9F737
:040CC000F894FFCFD6
:100CC4000000000011018D00DA00B800CC005801CA
:100CD400000000004A028D009E02B6023102490261
:00000001FF
