:100000000C94BE080C94E6080C94E6080C94601C52
:100010000C94601C0C94601C0C94E6080C94E6088C
:100020000C94E6080C94E6080C94E6080C94E60898
:100030000C94E6080C94E6080C94E6080C94E60888
:100040000C94DF250C94E6080C94B5280C94E72852
:100050000C94E6080C94E6080C94E6080C94E60868
:100060000C94E6080C94E608CE20F220F42002213D
:1000700008210C21172108000000BE922449123EDD
:10008000ABAAAA2ABECDCCCC4C3E00000080BEABB1
:10009000AAAAAA3E00000000BF000000803F0000A6
:1000A000000000084178D3BB4387D1133D190E3CB3
:1000B000C3BD4282AD2B3E68EC8276BED98FE1A9EA
:1000C0003E4C80EFFFBE01C4FF7F3F0000000000F8
:1000D00007634236B79BD8A71A39685618AEBAAB31
:1000E000558C1D3CB7CC5763BD6DEDFD753EF617C5
:1000F0007231BF000000803F7200434F323A20004F
:100100004272673A20002C2073743A2000546D70BC
:100110003A20002C20006D763A20002C206D61786A
:100120003A2000736563005761726D75702E2E2E34
:10013000004272696768746E65737320203A0044E8
:100140006F6E650054657374696E6720636F6E6EC1
:10015000656374696F6E2062792073656E64696E81
:1001600067203435362070706D2076616C756500BF
:10017000456E746572205468696E67537065616B73
:10018000204B65793A2000436F756C64206E6F7464
:1001900020636F6E6E65637420746F2057696669A3
:1001A0000057696669206D6F64756C65206E6F74A9
:1001B00020776F726B696E6700436F6E6E65637454
:1001C000696E6720746F20576966692E2E2E005065
:1001D0004153533A2000456E746572205061737329
:1001E000776F72643A2000535349443A2000456EB9
:1001F00074657220535349443A200053656C65631B
:1002000074204F7074696F6E206F72202871297589
:1002100069743A2000283529205365742054686990
:100220006E67537065616B20415049204B657900C2
:100230002834292053746172742070726F78792089
:10024000746F204553503832363600283329204306
:100250006F6E6E65637400283229205365742050D8
:10026000617373776F72640028312920536574209D
:100270005353494400446562756720496E666F2098
:1002800069733A2000436F6E6669677572617469BD
:100290006F6E2072657365742E2E2E00446F6E652E
:1002A00000456E74657220636F6C6F722072616EB0
:1002B0006765732C20652E673A2037303020313047
:1002C0003030203133303020313630302031393049
:1002D000302C206F722027642720666F722064659F
:1002E0006661756C747300200043757272656E747C
:1002F0002072616E6765733A200053656C656374A4
:10030000204F7074696F6E206F7220287129756993
:10031000743A20002873292053696D756C617465E7
:1003200020434F320028722920466163746F72792E
:1003300020526573657420286E6F2070726F6D7027
:100340007421290028642920456E61626C6520644F
:100350006973706C617920646562756767696E673F
:1003600020696E666F0028322920436F6E666967C8
:100370007572652057494649002831292053657414
:10038000204C45442054726573686F6C647300455B
:10039000786974696E67206D656E750054532052DC
:1003A00045533A20005265747279696E6700415472
:1003B0002B43495053454E443D0041542B43495033
:1003C00053544152543D22544350222C223138344C
:1003D0002E3130362E3135332E313439222C38300F
:1003E0000053656E64696E6720746F205468696E8F
:1003F00067537065616B005453204B45593A005365
:1004000074617274696E672057696669204D6F6404
:10041000756C652E2E2E004553502050726F7879E2
:100420000041542B43574155544F434F4E4E3D319D
:100430000041542B43574A41505F4445463D0022FA
:100440000022002C002200220041540041542B4382
:10045000574D4F44455F4445463D310041542B556F
:100460004152545F4445463D393630302C382C31AA
:100470002C302C3000466978696E67204553502037
:10048000426175647261746500436865636B696E8F
:1004900067206261756420726174653A2000735050
:1004A000504D20202020202020203A00686F7572B7
:1004B00073202020202020203A00757074696D651B
:1004C0002020202020203A0074656D7020202020FC
:1004D000202020203A0070726576434F324D6178BB
:1004E0004D763A0063757272434F324D61784D76A6
:1004F0003A006469666620202020202020203A00EF
:1005000063757272434F324D764E6F543A00637585
:100510007272434F324D762020203A0045455052AA
:100520004F4D2056657273696F6E3A200053696DA6
:10053000706C6520434F32204D6F6E69746F722E60
:1005400020507265737320616E79206B6579207419
:100550006F20646973706C6179206D656E750053EE
:1005600074617274696E672E2E2E002E2E2E2E2E22
:100570002E2E2E2E2E2E2E2E2E2E2E2E4445425533
:1005800047204953204F4E00FFE0FFD1AFFF32FF1D
:10059000D0FFFEFFE0FFD1AEFFD0FFFEFFE0FFD1B6
:1005A0001000FFFEFFD0FFE0FFC1FFD1AED580A855
:1005B0003FD300408D142000A1C8DA1281CFD9F1B9
:1005C000DB402EA4A6AFFFD0FFFE00060A00FE0708
:1005D000019E0337207FFE09FE08FE000000060092
:1005E00000010707060200808080808000800303EE
:1005F00003060105A0A0A005050506000250F8505D
:10060000F8500509090600FF2070A8A07028A870FE
:100610002005070706000078A8B05068A8900507D5
:10062000070600006090A040A8906801030306023E
:10063000058080800309090601FF204080808080BA
:100640008040200309090601FF804020202020204F
:10065000408005050506000220A870A820050505B4
:100660000600012020F820200204040601FEC0C07C
:100670004080030101060103E0020202060200C0FD
:10068000C0050A0A0600FE0808101020204040801D
:1006900080050707060000708898A8C888700507BD
:1006A0000706000020E020202020F80507070600AC
:1006B00000708808102040F80507070600007088C1
:1006C000083008887005070706000010305090F8C1
:1006D0001038050707060000F880F0080888700544
:1006E00007070600007080F08888887005070706F5
:1006F0000000F808081020202005070706000070F9
:1007000088887088887005070706000070888888C8
:10071000780870020505060200C0C000C0C00207CC
:10072000070601FEC0C000C0C040800407070601E4
:100730000010204080402010050303060002F8004E
:10074000F8040707060100804020102040800507BC
:100750000706000070880810200020050707060023
:10076000007088B8A8B880780507070600002050F8
:100770005088F88888050707060000F08888F08808
:1007800088F0050707060000708880808088700563
:100790000707060000F08888888888F005070706A4
:1007A0000000F88080F08080F8050707060000F858
:1007B0008080F080808005070706000070888098A0
:1007C000888870050707060000888888F888888868
:1007D000050707060000F82020202020F80507075D
:1007E000060000080808088888700507070600004A
:1007F0008890A0C0A0908805070706000080808030
:10080000808080F805070706000088D8A8A8888897
:100810008805070706000088C8A898888888050703
:10082000070600007088888888887005070706001A
:1008300000F08888F08080800508080600FF708836
:10084000888888A87008050707060000F08888F0E7
:1008500088888805070706000070888070088870FF
:10086000050707060000F8202020202020050707A4
:1008700006000088888888888870050707060000B9
:10088000888888505020200507070600008888883F
:10089000A8A8D88805070706000088885020508837
:1008A0008805070706000088888850202020050753
:1008B00007060000F80810204080F8020909060227
:1008C000FFC080808080808080C0050A0A0601FE0B
:1008D000808040402020101008080209090601FF0E
:1008E000C040404040404040C00503030600042093
:1008F00050880601010600FEFC0202020601068085
:1009000040050505060000788888986805070706F1
:1009100000008080F0888888F005050506000070DA
:10092000888080780507070600000808788888888E
:10093000780505050600007088F88078040707062A
:1009400001003040E0404040400507070600FE78C7
:100950008888887808700507070600008080F0887E
:100960008888880307070601004000C0404040E037
:100970000309090600FE2000602020202020C00579
:100980000707060000808090A0E090880307070614
:100990000100C04040404040E0050505060000F071
:1009A000A8A8A8A8050505060000B0C8888888057D
:1009B000050506000070888888700507070600FE98
:1009C000F0888888F080800507070600FE78888810
:1009D00088780808050505060000B0C880808005F5
:1009E000050506000078807008F00407070601007E
:1009F0004040E040404030050505060000888888FA
:100A000098680505050600008888505020050505F2
:100A1000060000A8A8A8A8500505050600008850F3
:100A20002050880507070600FE88888888780870A7
:100A3000050505060000F8102040F8030B0B060121
:100A4000FE204040404080404040402001090906CF
:100A500002FF808080808080808080030B0B0601F5
:100A6000FE80404040402040404040800502020659
:100A7000000368B0000000060000004841FCF323BA
:100A8000000000002A3A0024FA230014123620063F
:100A900011070E001F0F801F9F800F9F00079E00F1
:100AA00003FC0081F810FEF7F0FFFFF0FFFFF0F904
:100AB000F9F001F80003FC00079E000F9F001F8F54
:100AC000801F0F80070E001D1D74310A00000700F3
:100AD00000000700000007000000070000000700FA
:100AE00000000700000007000000070000000700EA
:100AF00000000700000007000000070000000700DA
:100B000000FFFFFFF8FFFFFFF8FFFFFFF8000700FF
:100B100000000700000007000000070000000700B9
:100B200000000700000007000000070000000700A9
:100B30000000070000000700000007000000070099
:100B4000000B0C180F02FA0FE00FC01FC01F801F10
:100B5000803F003F003E007E007C007C00F8000DDE
:100B6000060C110209FFF8FFF8FFF8FFF8FFF8FF85
:100B7000F80706060F0500FEFEFEFEFEFE112775B5
:100B80001502FD000F80000F00001F00001F000075
:100B90001E00003E00003E00003E00007C00007C85
:100BA00000007C0000780000F80000F80000F00071
:100BB00001F00001F00001F00003E00003E0000399
:100BC000E00003C00007C00007C0000780000F80DE
:100BD000000F80000F80001F00001F00001F00009A
:100BE0003E00003E00003E00003C00007C00007C17
:100BF00000007C0000F8000019238C1C020101FF9A
:100C0000800007FFE0000FFFF0001FFFF8001FFF4C
:100C1000FC003F81FC003F00FE007F007E007E0064
:100C20007E007E003F007E003F00FE003F00FE0091
:100C30003F00FE003F00FE003F80FE003F80FE00C0
:100C40003F80FE003F80FE003F80FE003F80FE00B0
:100C50003F80FE003F00FE003F00FE003F007E00A0
:100C60003F007E003F007E007F007F007E003F004F
:100C7000FE003F81FC001FFFFC001FFFF8000FFF7C
:100C8000F00007FFE00001FF80000F23461C050075
:100C900000FE01FE07FE0FFE3FFEFFFEFFFEFEFE12
:100CA000FCFEF0FEC0FE00FE00FE00FE00FE00FEA8
:100CB00000FE00FE00FE00FE00FE00FE00FE00FE44
:100CC00000FE00FE00FE00FE00FE00FE00FE00FE34
:100CD00000FE00FE00FE19238C1C020100FFE00054
:100CE00003FFF80007FFFC000FFFFE001FFFFF00DF
:100CF0003FC0FF003F803F803F003F807F003F803C
:100D000000003F8000003F8000003F8000007F0027
:100D100000007F000000FF000001FE000003FC0057
:100D20000007FC00000FF800001FF000003FE0008B
:100D3000007FC00001FF000003FE000007FC000070
:100D40000FF000003FE000007F800000FF00000087
:100D5000FFFFFF80FFFFFF80FFFFFF80FFFFFF809F
:100D6000FFFFFF80FFFFFF801823691C020103FFC4
:100D7000800FFFE01FFFF03FFFF87FFFFC7F03FCC9
:100D8000FE01FCFE00FCFE00FE0000FE0000FE0076
:100D900001FC0001FC000FF800FFF000FFC000FFA5
:100DA0008000FFE000FFF80003FC0000FE0000FEF2
:100DB00000007E00007F00007FFE007FFE007FFEBF
:100DC00000FEFF00FE7F01FC7FFFFC3FFFF81FFFDE
:100DD000F00FFFE003FF801A238C1C01000007FCCA
:100DE00000000FFC00001FFC00001FFC00003FFC87
:100DF00000003FFC00007FFC0000FDFC0000FDFC4B
:100E00000001F9FC0001F9FC0003F1FC0007F1FC12
:100E10000007E1FC000FC1FC000FC1FC001F81FCBA
:100E2000003F81FC003F01FC007E01FC00FE01FC54
:100E300000FC01FC00FFFFFFC0FFFFFFC0FFFFFF42
:100E4000C0FFFFFFC0FFFFFFC0FFFFFFC00001FCAE
:100E5000000001FC000001FC000001FC000001FC9E
:100E6000000001FC000001FC001823691C02007F47
:100E7000FFFC7FFFFC7FFFFC7FFFFC7FFFFC7FFF11
:100E8000FC7F00007F00007F00007F00007F0000EB
:100E90007F00007F1FC07F7FF07FFFF87FFFFC7F18
:100EA000FFFC7FC1FE7F00FE7F007F7E007F000091
:100EB0007F00007F00007F00007F00007FFE007F3A
:100EC000FE00FEFE00FEFF01FC7FFFFC7FFFF83FFF
:100ED000FFF00FFFC007FF8019238C1C020100FFE9
:100EE000C00003FFF00007FFF8000FFFFC001FFF2A
:100EF000FE001FE0FE003FC07F003F807F007F00BC
:100F000000007F0000007F0000007E000000FE1F48
:100F1000C000FE7FF000FEFFF800FEFFFC00FFFFB8
:100F2000FE00FFE1FE00FFC0FF00FF807F00FF002A
:100F30003F00FF003F80FF003F80FF003F80FF0039
:100F40003F807F003F007F003F007F807F007F80E9
:100F50007F003FC0FE001FFFFC001FFFFC000FFFD3
:100F6000F80007FFE00001FF80001823691C020061
:100F7000FFFFFFFFFFFFFFFFFFFFFFFFFFFFFFFF81
:100F8000FFFF00007F00007F0000FE0000FE000168
:100F9000FE0001FC0003FC0003F80007F80007F066
:100FA000000FF0000FF0001FE0001FE0003FC00046
:100FB0003FC0003F80007F80007F0000FF0000FFF7
:100FC0000001FE0001FE0003FC0003FC0007F80026
:100FD00007F8000FF8000FF00019238C1C02010322
:100FE000FFC0000FFFF0001FFFFC003FFFFE003FAF
:100FF000FFFE007FC1FF007F80FF007F007F007F3A
:10100000007F007F007F007F007F007F007F003F28
:1010100080FE003FC1FC000FFFF80007FFE0000169
:10102000FFC0000FFFF0001FFFF8003FC1FE007F70
:1010300080FE007F007F00FE003F00FE003F00FEBC
:10104000003F80FE003F80FE003F80FF007F80FF6A
:10105000007F007F80FF007FFFFF003FFFFE003F1B
:10106000FFFC000FFFF80003FFE00019238C1C02B7
:101070000101FFC00007FFE0000FFFF8001FFFFCA9
:10108000003FFFFC007F81FE007F00FE007E00FF2E
:1010900000FE007F00FE007F00FE007F80FE007FDC
:1010A00080FE007F80FE007F80FE00FF807F00FFCB
:1010B000807F83FF803FFFFF803FFFBF801FFFBF18
:1010C000800FFF3F8001F83F8000003F0000007F5D
:1010D0000000007F0000007F007F00FE007F00FE18
:1010E000007F01FE003F83FC001FFFFC001FFFF894
:1010F000000FFFF00007FFE00001FF800007181855
:10110000100700FEFEFEFEFEFE00000000000000D4
:101110000000000000FEFEFEFEFEFE0000000800D3
:1011200002010000030407000000000000000001AD
:10113000020408102040800102040810200102046B
:10114000081020040404040404040402020202023D
:101150000203030303030300000000230026002909
:101160000000000000250028002B000000000024E3
:101170000027002A00001E151729B81511241FBECC
:10118000CFEFD8E0DEBFCDBF11E0A0E0B1E0E4EAF0
:10119000FEE602C005900D92AE3FB107D9F724E0FC
:1011A000AEEFB1E001C01D92AF37B207E1F711E138
:1011B000CAE7D1E104C02297FE010E948F31C637F1
:1011C000D107C9F70E945B290C9445370C940000A5
:1011D0008EED93E00E94E42969E773E08EED93E0E1
:1011E0000E94A8298EED93E00E94E4298091A30239
:1011F000882351F066E673E08EED93E00E94A82903
:101200008EED93E00E94E42964E473E08EED93E0B8
:101210000E94A8298EED93E00E94E42965E273E024
:101220008EED93E00E94A8298EED93E00E94E429C0
:1012300080911003882351F064E173E08EED93E018
:101240000E94A8298EED93E00E94E4296AEF72E0E3
:101250008EED93E00E94A8298EEF94E190937402A2
:101260008093730281E090E00895CF93DF93EC01C7
:10127000262F4CAD6BAD04960E94E3222BAD99272F
:1012800087FD9095820F911D8BAF81E090E0DF91FB
:10129000CF910895CF92DF92EF92FF920F931F9319
:1012A000CF93DF9300D0CDB7DEB76C018B017C010B
:1012B00084E0E80EF11CC60169837A830E944236FD
:1012C000F80181938F01FFEFCF1ADF0A69817A81DC
:1012D000CE14DF0481F7CB010F900F90DF91CF91F7
:1012E0001F910F91FF90EF90DF90CF9008950F9393
:1012F0001F93CF93DF938C01EB010E9442368883CA
:10130000C80101960E9442368983CE01DF91CF91B8
:101310001F910F910895CF93DF93EB010E94423606
:101320008883CE01DF91CF910895DC01ED91FC918E
:101330000190F081E02D0994EF92FF920F931F939B
:10134000CF93DF931F92CDB7DEB77C01FC01008104
:101350001181C80169830E9442366981681719F0BA
:10136000C8010E944A36C7010F90DF91CF911F91AB
:101370000F91FF90EF900895EF92FF920F931F93BC
:10138000CF93DF9300D0CDB7DEB77C018B01FB019B
:1013900060819A838983CE0101960E949C09F8019D
:1013A0006181FFEFEF1AFF0AFA82E982CE0101960E
:1013B0000E949C09C8010F900F90DF91CF911F915F
:1013C0000F91FF90EF900895EF92FF920F931F936C
:1013D000CF93DF9300D0CDB7DEB70CE013E08C5095
:1013E00093407C01C701800F911FF80161918F012B
:1013F0009A838983CE0101960E949C09F3E0003113
:101400001F0781F78CE093E00F900F90DF91CF9151
:101410001F910F91FF90EF9008958091100381111B
:1014200005C080EA9BEBADE0B0E004C088E99AE338
:10143000A0E0B0E080939B0290939C02A0939D0259
:10144000B0939E026CE073E084E090E00E944A0951
:1014500060910C0370910D0380910E0390910F0326
:101460009B01AC010E943C30882341F010920C0398
:1014700010920D0310920E0310920F0368E073E0B8
:1014800088E090E00E944A09609108037091090386
:1014900080910A0390910B039B01AC010E943C30A8
:1014A000882341F0109208031092090310920A0356
:1014B00010920B03089584E090E00C94E409CF921D
:1014C000DF92EF92FF920F931F93CF93DF93C09021
:1014D0000803D0900903E0900A03F0900B030091F9
:1014E0000C0310910D03D0910E03C0910F039801CE
:1014F0004D2F5C2FB601C7010E943E2F18161CF419
:101500008601DE2DCF2DB8018D2F9C2FDF91CF913D
:101510001F910F91FF90EF90DF90CF900895FF9271
:101520000F931F93CF93DF931F92CDB7DEB719822E
:101530000CE010E0F12CBE016F5F7F4FC8010E94EC
:101540008B09FC018081882331F08981F81618F419
:101550008F3F09F0F82E0F5F1F4F0031110559F72B
:101560008F2D0F90DF91CF911F910F91FF900895D4
:10157000FF920F931F93CF93DF9300D01F92CDB7AD
:10158000DEB71B820CE010E0F12CBE016D5F7F4FD7
:10159000C8010E948B09FC018081882331F08B8176
:1015A000F81618F48F3F09F0F82E0F5F1F4F003127
:1015B000110559F72F2D30E02F5F3F4F3A832983D4
:1015C000BE016F5F7F4F8DE090E00E94BC0981E01B
:1015D0008F0D0F900F900F90DF91CF911F910F9172
:1015E000FF9008950F931F93CF93DF9300D0CDB753
:1015F000DEB70E945B0A0E94B80A90911501891318
:101600002AC00CE010E01A83098360E0CE01019645
:101610000E949C090F5F1F4F00311105A1F788E060
:1016200090E00E94E40980910C0390910D03A09139
:101630000E03B0910F038093080390930903A093C6
:101640000A03B0930B0310920C0310920D03109237
:101650000E0310920F030F900F90DF91CF911F9107
:101660000F91089561E082E00E94012761E082E02D
:101670000C943A2761E082E00E94012760E082E05A
:101680000C943A270E943A0B68EE73E080E090E0F9
:101690000E9458260C94320BCF93DF931F92CDB744
:1016A000DEB7BE016F5F7F4F8AE190E00E948B0939
:1016B00081E09981913009F080E00F90DF91CF9126
:1016C0000895CF93DF93DC010D900020E9F7FC0132
:1016D0001197EA17FB0749F0EF0181918A3011F465
:1016E000188203C08D30A9F7FBCFDF91CF91089509
:1016F0000F931F93CF93DF9300D0CDB7DEB78EED5E
:1017000093E00E94E42969EE72E08EED93E00E947E
:10171000A82900E110E0BE016F5F7F4FC8010E9461
:10172000770969817A814AE050E08EED93E00E946A
:10173000AD2A67EE72E08EED93E00E94A8290E5F5D
:101740001F4F0A31110539F78EED93E00E94E4290D
:1017500061EA72E08EED93E00E94A8298EED93E09D
:101760000E94E4298BE594E19093740280937302C4
:1017700081E090E00F900F90DF91CF911F910F913A
:1017800008958EED93E00E94E42968E672E08EED04
:1017900093E00E94A8298EED93E00E94E42967E57A
:1017A00072E08EED93E00E94A8298EED93E00E94F6
:1017B000E4296BE472E08EED93E00E94A8298EED9F
:1017C00093E00E94E42960E372E08EED93E00E94D2
:1017D000A8298EED93E00E94E42965E172E08EED88
:1017E00093E00E94A8298EED93E00E94E4296BEF1C
:1017F00071E08EED93E00E94A8298BE79AE1909327
:1018000074028093730281E090E00895CF93DF9398
:1018100000D000D000D0CDB7DEB765E772E0CE01D2
:1018200001960E94772CBE016F5F7F4F8DE692E09C
:101830000E948D2CCE0101960E94092C6DE672E06B
:10184000CE0101960E94A42C67EE71E08EED93E02C
:101850000E94A829BE016F5F7F4F8EED93E00E942A
:10186000CD298EED93E00E94E429CE0101960E94DD
:10187000092C0E94C10B81E090E026960FB6F894E7
:10188000DEBF0FBECDBFDF91CF910895CF93DF9321
:1018900000D000D000D0CDB7DEB765E772E0CE0152
:1018A00001960E94772CBE016F5F7F4F87E692E022
:1018B0000E948D2CCE0101960E94092C67E672E0F1
:1018C000CE0101960E94A42C6FEC71E08EED93E0A6
:1018D0000E94A829BE016F5F7F4F8EED93E00E94AA
:1018E000CD298EED93E00E94E429CE0101960E945D
:1018F000092C0E94C10B81E090E026960FB6F89467
:10190000DEBF0FBECDBFDF91CF9108958EED93E086
:101910000E94E4296EEE71E08EED93E00E94A8290A
:101920008EED93E00E94E42986E09CE0909374029F
:101930008093730281E090E008958EED93E00E9421
:10194000E42966ED71E08EED93E00E94A8298EED0A
:1019500093E00E94E42986E49CE0909374028093D3
:10196000730281E090E008958EED93E00E94E429F7
:1019700060E771E08EED93E00E94A8298EED93E080
:101980000E94E42983E898E19093740280937302A3
:1019900081E090E00895DF92EF92FF920F931F9302
:1019A000CF93DF9300D0CDB7DEB77C0100E110E02C
:1019B000D12CBE016F5F7F4FC8010E94770929813A
:1019C0003A81E216F30644F0D3940E5F1F4F85E090
:1019D000D812EFCF85E001C08D2D0F900F90DF91D1
:1019E000CF911F910F91FF90EF90DF9008955F923C
:1019F0006F927F928F929F92AF92BF92CF92DF921F
:101A0000EF92FF920F931F93CF93DF93CDB7DEB783
:101A10002C970FB6F894DEBF0FBECDBF8C0169E8DE
:101A200071E0CE0101960E94772CF8018081843606
:101A300029F48BE291E00E94F70C4BC0812C7E01CF
:101A4000F7E0EF0EF11C6E018BE0C80ED11C5801BF
:101A5000F8016081862F992787FD9095C0970A9796
:101A600028F4CE0101960E94512D29C0CE01019685
:101A70000E947E2D6F83788789879A875524539497
:101A8000580C912CF8E08F0E911C880C991C370192
:101A90008E189F08C401860D971DF30161913F01C7
:101AA0009C878B87C6010E949C096C147D0491F76A
:101AB00069E871E0CE0101960E94AD2C852C0F5F84
:101AC0001F4FF5018081882321F0F4E0F81508F01C
:101AD000BECFCE0101960E94092C2C960FB6F89429
:101AE000DEBF0FBECDBFDF91CF911F910F91FF9051
:101AF000EF90DF90CF90BF90AF909F908F907F90AE
:101B00006F905F900895CF93DF9300D0CDB7DEB78D
:101B1000BE016F5F7F4F80E190E00E94770989816D
:101B20009A81019621F48BE291E00E94F70C0F90CC
:101B30000F90DF91CF9108950F931F93CF93DF9371
:101B40000E94830D84E592E00E944F1E0CE312E098
:101B5000C0E0D0E0F80121913191419151918F0184
:101B6000BE0184E592E00E941F1F2196C630D10578
:101B700089F764E184E592E00E94701F84E592E0B9
:101B8000DF91CF911F910F910C945C1ECF93C09168
:101B90001A0161E371E08EED93E00E94A8294AE00A
:101BA00050E06C2F8EED93E00E94C22A8EED93E000
:101BB000CF910C94E429CF92DF92EF92FF92CF93D2
:101BC000DF9380919F029091A002009781F10E9483
:101BD000CB0CD82F84E0D89FF0011124E45CFD4F9A
:101BE000C080D180E280F380C0E06C2F70E0A7015C
:101BF000960184E592E00E941F1FCF5FDC17A8F7D3
:101C0000C63058F46C2F70E020E030E0A90184E584
:101C100092E00E941F1FCF5FF3CF84E592E0DF9137
:101C2000CF91FF90EF90DF90CF900C945C1EDF91EE
:101C3000CF91FF90EF90DF90CF900895CF93DF93F7
:101C4000C0E0D0E020914C0230914D0240914E0214
:101C500050914F02BE0184E592E00E941F1F219621
:101C6000C530D10579F784E592E0DF91CF910C94EE
:101C70005C1ECF93DF93FC0185ADEF0124968111AB
:101C800005C081E085AFCE010E945D24CE01DF91C9
:101C9000CF910C9493244F925F926F927F928F9288
:101CA0009F92AF92BF92CF92DF92EF92FF920F93EB
:101CB0001F93CF93DF938091A10281119EC061E0B9
:101CC00082E092E00E94B8248EEF91E00E94390EEB
:101CD000CFE2D7E006E498EEC92E93E0D92EE12CAE
:101CE000F12C14E66AE77AE082E092E00E94512348
:101CF00060919F027091A002683E23E0720710F489
:101D000081E201C085E080933902C0933A026115F7
:101D1000710531F04AE050E08EEF91E00E94C92A4F
:101D20006AEC75E082E092E00E9451231092390241
:101D3000D0933A0260911801709119018EEF91E0F1
:101D40000E94DB298091C302811117C000933902E0
:101D5000D0933A0267E271E08EEF91E00E94A829E9
:101D600080919F029091A002892B39F40E9429262C
:101D7000613A7F408105910538F482E092E00E944B
:101D800098248111AFCF39C040909B0250909C02A3
:101D900060909D0270909E020E9429264B015C017A
:101DA0006AE77AE082E092E00E94512310923902C1
:101DB000C0933A02C301B201681979098A099B09E3
:101DC000A70196010E944C31BA01A9012AE030E036
:101DD0008EEF91E00E94B52A6AEC75E082E092E015
:101DE0000E94512310933902C0933A0263E271E0DA
:101DF0008EEF91E00E94A829C0CFDF91CF911F9173
:101E00000F91FF90EF90DF90CF90BF90AF909F9099
:101E10008F907F906F905F904F90089520E030E01A
:101E20004EE852E40E94F32D23E032ED42E250E40A
:101E30000E948B2D9B01AC0160E070E080E291E498
:101E40000E94F02F0E945B2ECB010895CF92DF926B
:101E5000EF92FF920E945F0A6B017C0187EF92E094
:101E60000E94521B9B01AC01C701B6010E948A2D42
:101E70000E940E0F9093A00280939F02FF90EF901C
:101E8000DF90CF900895BC01882777FD8095982F2B
:101E90000E948E2E0E94422F23E032ED42E250E457
:101EA0000E948A2D20E030E04EE852E40E948D2FFF
:101EB0000895CF92DF92EF92FF9287EF92E00E9417
:101EC000521B6B017C0180911601909117010E94B9
:101ED000430F9B01AC01C701B6010E948B2D6B0122
:101EE0007C0120910C0330910D0340910E03509121
:101EF0000F030E943E2F181644F4C0920C03D09298
:101F00000D03E0920E03F0920F03FF90EF90DF902D
:101F1000CF900895CF92DF92EF92FF926B017C01F8
:101F200085ED92E00E94521B9B01AC0160E070E0E5
:101F300088E292E40E948A2D2DEC3CEC4CE45FE3B5
:101F40000E948D2F9B01AC01C701B6010E948B2D11
:101F5000FF90EF90DF90CF900895EF92FF920F9354
:101F60001F93CF93DF93CDB7DEB760970FB6F8948A
:101F7000DEBF0FBECDBF8C010E94292620E63AEEBF
:101F800040E050E00E944C31790169E871E0C801FD
:101F90002D873E874F87588B0E94772C2D853E8555
:101FA000255C3F4F2737310518F1C7016CE370E01E
:101FB0000E9438314AE0CE0107960E94C52CBE012E
:101FC000695F7F4FCE0101960E94A42C64E471E00A
:101FD000CE0101960E94642DBC01C8010E944A2DC9
:101FE000CE0101960E94092CCE0107960E94092C71
:101FF000C7016CE370E00E9438314AE0BC01CE01B9
:1020000007960E94C52CBE01695F7F4FCE010196E5
:102010000E94A42C67E471E0CE0101960E94642D19
:10202000BC01C8010E944A2DCE0101960E94092CD4
:10203000CE0107960E94092C0E94292628EE33E043
:1020400040E050E00E944C31CA01B9012CE330E07D
:1020500040E050E00E944C31AB01BC012AE0CE01CF
:1020600007960E94F12CBE01695F7F4FCE01019659
:102070000E94A42C6AE471E0CE0101960E94642DB6
:10208000BC01C8010E944A2DCE0101960E94092C74
:10209000CE0107960E94092CC80160960FB6F894ED
:1020A000DEBF0FBECDBFDF91CF911F910F91FF908B
:1020B000EF900895CF92DF92EF92FF92CF93DF934C
:1020C00000D000D000D0CDB7DEB787EF92E00E94FD
:1020D000521B6B017C016EE075E08EED93E00E9477
:1020E000A82922E030E0B701A6018EED93E00E941E
:1020F000BA2B8EED93E00E94E42986EE92E00E94D6
:10210000521B6B017C0160E075E08EED93E00E9454
:10211000A82922E030E0B701A6018EED93E00E94ED
:10212000BA2B8EED93E00E94E42986EE92E00E94A5
:10213000521B6B017C0187EF92E00E94521B9B01B6
:10214000AC01C701B6010E948A2D6B017C0162EFD0
:1021500074E08EED93E00E94A82922E030E0B70100
:10216000A6018EED93E00E94BA2B8EED93E00E94C3
:10217000E429C0900C03D0900D03E0900E03F09082
:102180000F0364EE74E08EED93E00E94A82922E034
:1021900030E0B701A6018EED93E00E94BA2B8EEDE0
:1021A00093E00E94E429C0900803D0900903E090D6
:1021B0000A03F0900B0366ED74E08EED93E00E944D
:1021C000A82922E030E0B701A6018EED93E00E943D
:1021D000BA2B8EED93E00E94E42985ED92E00E94F7
:1021E000521B6B017C0168EC74E08EED93E00E9461
:1021F000A82922E030E0B701A6018EED93E00E940D
:10220000BA2B8EED93E00E94E429CE0101960E9444
:10221000AD0F6AEB74E08EED93E00E94A829BE0139
:102220006F5F7F4F8EED93E00E94CD298EED93E09E
:102230000E94E429CE0101960E94092C0E948F0A77
:10224000F82E6CEA74E08EED93E00E94A8294AE033
:1022500050E06F2D8EED93E00E94C22A8EED93E048
:102260000E94E429E0909F02F090A0026EE974E0E1
:102270008EED93E00E94A8294AE050E0B7018EED70
:1022800093E00E94C92A8EED93E00E94E4292696ED
:102290000FB6F894DEBF0FBECDBFDF91CF91FF9098
:1022A000EF90DF90CF9008950E945A100E94C60DC3
:1022B0008EED93E00C94E429CF93C091A10281E0CC
:1022C000C827C093A1028EED93E00E94E42965E740
:1022D00072E08EED93E00E94A8296C2F70E04AE036
:1022E00050E08EED93E00E94AD2A8EED93E00E94C7
:1022F000E4298091A10281110E94541180E090E0B4
:10230000CF9108953F924F925F926F927F928F92FA
:102310009F92AF92BF92CF92DF92EF92FF920F9374
:102320001F93CF93DF93CDB7DEB72E970FB6F894F8
:10233000DEBF0FBECDBF61E082E092E00E94B82414
:102340008EEF91E00E94390ECE0107960E94AD0FEC
:1023500087EF92E00E94521B0E945B2E7B010E943D
:102360005F0A4B015C0180911601909117010E9458
:10237000430F9B01AC01C501B4010E948A2D0E944C
:102380005B2E6B0185ED92E00E94521B0E94602E35
:10239000862E9924939426E1322E31E2732E4CE25C
:1023A000642E56E3552E60E4462E74E6A72EB12C1B
:1023B0006AEC75E082E092E00E945123909239022B
:1023C00030923A0266E171E08EEF91E00E94A82916
:1023D0004AE050E0B7018EEF91E00E94AD2A6BE138
:1023E00071E08EEF91E00E94A8294AE050E0B6012A
:1023F0008EEF91E00E94AD2A9092390270923A02DB
:10240000BE01695F7F4FCE0101960E94A42C6DE052
:1024100071E08EEF91E00E94A8294AE050E0682D1B
:102420008EEF91E00E94C22A63E171E08EEF91E0AD
:102430000E94A829BE016F5F7F4F8EEF91E00E943E
:10244000CD29CE0101960E94092C9092390260920A
:102450003A021091C30200911A0160E071E08EEF20
:1024600091E00E94A8294AE050E0602F8EEF91E0B1
:102470000E94C22A66E071E08EEF91E00E94A829D6
:10248000612F70E04AE050E08EEF91E00E94AD2AAB
:102490009092390250923A0200919F021091A0024C
:1024A0006AEF70E08EEF91E00E94A8294AE050E0C8
:1024B000B8018EEF91E00E94C92A909239024092B1
:1024C0003A0268EF70E08EEF91E00E94A82900E1E7
:1024D00010E0BE01635F7F4FC8010E9477098D85C0
:1024E0009E85B5010E9438314AE050E08EEF91E0C0
:1024F0000E94AD2A62E471E08EEF91E00E94DB2938
:102500000E5F1F4F0A31110521F782E092E00E9411
:10251000982481114DCFCE0107960E94092C2E964A
:102520000FB6F894DEBF0FBECDBFDF91CF911F91E4
:102530000F91FF90EF90DF90CF90BF90AF909F9062
:102540008F907F906F905F904F903F9008958F9203
:102550009F92AF92BF92CF92DF92EF92FF926B0168
:102560007C0120E030E040E251E40E948D2F4B01DD
:102570005C01A70196016DEC7CEC84EA90E40E947A
:102580008A2D9B01AC01C501B4010E94F32D20E00E
:1025900030E04AE754E40E948D2F20E030E44CE123
:1025A00056E40E94F32D0E944D2F20E030E443E5D5
:1025B00055E40E94F32D2FE03FEC4BE55BE30E94D6
:1025C0008B2D9B01AC0160E070E080E89FE30E94EE
:1025D000F32D23E333E948E853E40E948A2DFF906A
:1025E000EF90DF90CF90BF90AF909F908F90089525
:1025F0004F925F926F927F928F929F92AF92BF9213
:10260000CF92DF92EF92FF92CF93DF93D82FC62F16
:10261000262F30E0A8EEB3E00E9493312B013C015D
:10262000812C912C5401C12CD12C76018414950459
:10263000A604B70494F48D2F0E94BB26AC01662734
:1026400057FD6095762FC40ED51EE61EF71E8FEF40
:10265000881A980AA80AB80AE9CFC701B6010E94E9
:102660008C2E6B017C0188EE93E0C89FB001C99F5E
:10267000700D1124882777FD8095982F0E948E2E4B
:102680009B01AC01C701B6010E94F32DDF91CF91F0
:10269000FF90EF90DF90CF90BF90AF909F908F9082
:1026A0007F906F905F904F900895CF92DF92EF925E
:1026B000FF926AE081E190E00E94F8129B01AC0178
:1026C00060E070EC8FE794E40E948A2D2DEC3CECE6
:1026D00044EA50E40E948D2F20E030E040E85AE3C5
:1026E0000E948D2F0E94A712AB01BC0185ED92E0E4
:1026F0000E94D51A6AE080E190E00E94F8122DEC69
:102700003CEC44EA50E40E948D2F20E030E040E8A9
:102710005AE30E948D2F26E636E646EB50E40E94EF
:10272000F32D20E030E04AE754E40E948D2F6B0146
:102730007C010E948A0FAB01BC0187EF92E00E94EE
:10274000D51AB701A60186EE92E0FF90EF90DF90D8
:10275000CF900C94D51ACF92DF92EF92FF92CF9345
:102760000E9455138091C30281110FC00E94292637
:10277000C0909B02D0909C02E0909D02F0909E023F
:10278000C616D706E806F90668F4C1E0C093C3028E
:102790000E94590F8091C302811104C00E945B0AFC
:1027A000C093C3020E94260FC0909702D090980257
:1027B000E0909902F0909A020E9429266C197D09F6
:1027C0008E099F0961387E4E8643910588F00E94EC
:1027D00029266093970270939802809399029093B0
:1027E0009A02CF91FF90EF90DF90CF900C94F20A75
:1027F000CF91FF90EF90DF90CF900895AF92BF926E
:10280000CF92DF92EF92FF920F931F93CF9380911D
:102810001B018F3F81F561E08EE090E00E94F8128D
:10282000AB01BC0184EC92E00E94D51AC0910A0170
:1028300084EC92E00E94521B0E945B2E882777FD59
:102840008095982F1F921F921F92CF93A12CB12C8D
:102850006501A394E12C14E0F12E00E010E020E0EB
:1028600030E0A9010E94C22B60931A010F900F90D3
:102870000F900F9002C080931A0160911A0184E5B5
:1028800092E00E94701F84E592E0CF911F910F911A
:10289000FF90EF90DF90CF90BF90AF900C945C1EB4
:1028A0008091A202882319F00E941E0E02C00E948D
:1028B000DB0D0C94FE1385E792E00E94F70C0E945A
:1028C00050146CE972E08EED93E00E94A8298EED21
:1028D00093E00E94E42980E090E00895CF93DF9395
:1028E000C0E9D1E0D093A002C0939F020E9450148F
:1028F0000E944B0E6AEF70E080E090E00E94582644
:10290000CC59DF4FCC318CE0D80761F7DF91CF9104
:102910000C94E8088EED93E00E94E4296CE471E0E9
:102920008EED93E00E94DB298EED93E00E94E42976
:102930006CE271E080E090E00E9458260C94000068
:102940000895CF93DF93C0E0D0E06FEFCE010E94F7
:102950004A362196C436D105C1F7DF91CF9108954B
:102960001F93CF93DF9300D01F92CDB7DEB7BE0188
:102970006D5F7F4F80E090E00E948B09FC01108129
:102980001B836CE175E08EED93E00E94A8294AE07C
:1029900050E0612F8EED93E00E94C22A8EED93E00D
:1029A0000E94E4298B81833069F00E94A11483E0A6
:1029B00090E09A838983BE016F5F7F4F80E090E053
:1029C0000E94BC090F900F900F90DF91CF911F9143
:1029D00008950E94A1148EED93E00E94E42965E819
:1029E00072E08EED93E00E94A8298EED93E00E94A4
:1029F000E4290E948A1480E090E008958091750295
:102A0000813311F40C94780B823331F48091A3025A
:102A1000882389F00C94C10B823711F40C94E914CB
:102A2000843611F40C945C11833729F480911003DF
:102A300081110C946E1480E090E008950F93CF9371
:102A4000DF9364E087EF92E00E94C11A64E086EEB3
:102A500092E00E94C11A64E085ED92E00E94C11AE2
:102A600064E084EC92E00E94C11A20E04AE069E050
:102A700084EA92E00E94331D69E871E08DE692E0FD
:102A80000E94772C69E871E087E692E00E94772C3B
:102A900023E04FE066E070E084E592E00E94F11DE3
:102AA00040E06FEF80E00E94671F60933C027093EC
:102AB0003D0280933E0290933F0240E06FEF84EB33
:102AC0000E94671F6093400270934102809342020C
:102AD0009093430240E06FEF8FEF0E94671F609377
:102AE000440270934502809346029093470240E06F
:102AF00068EC8FEF0E94671F609348027093490251
:102B000080934A0290934B0240E068E78FEF0E9467
:102B1000671F60934C0270934D0280934E02909316
:102B20004F0240E060E08FEF0E94671F6093500209
:102B300070935102809352029093530210920102BB
:102B400010920002CEEFD1E085EC91E0998388836A
:102B500008E027E046E06CE171E0CE010E94B11F81
:102B60008DEC91E099838883DF91CF910F91089547
:102B700084E592E00E94401E87E692E00E94092CC4
:102B80008DE692E00E94092C84EA92E00E94DA1C11
:102B900084EC92E00E94931A85ED92E00E94931AD1
:102BA00086EE92E00E94931A87EF92E00C94931ABB
:102BB000AF92BF92CF92DF92EF92FF920F931F934B
:102BC000CF93DF93EC01162F5A010E9429266B0147
:102BD0007C01A501662757FD6095762FC40ED51E92
:102BE000E61EF71E0E9429266C157D058E059F05A1
:102BF00028F584EA92E00E94FA1B892B99F384EA73
:102C000092E00E946D1B082F112371F0843124F48F
:102C10008A3011F08D3041F4602F772767FD709571
:102C20008EED93E00E94950988810813DBCFCE01D9
:102C300001962981222321F0EC01D4CF80E001C04C
:102C400081E0DF91CF911F910F91FF90EF90DF9086
:102C5000CF90BF90AF900895CF92DF92EF92FF9206
:102C60006B017C01809110038823B1F08EED93E01D
:102C70000E94E42969E874E08EED93E00E94A8299F
:102C80002AE030E0B701A6018EED93E00E94632AAE
:102C90008EED93E00E94E429B701A60184EA92E058
:102CA0000E94631D0E94420B40E757E160911003B0
:102CB0008AE591E0FF90EF90DF90CF900C94D815CB
:102CC00080911003882351F065E774E08EED93E066
:102CD0000E94A8298EED93E00E94E42960E875E245
:102CE00080E090E00E942C16811111C060E072EC2F
:102CF00081E090E00E942C1681110BC060E874E224
:102D000081E090E00E942C16811103C01CC081E07C
:102D100008956CE574E084EA92E00E94A82984EAB0
:102D200092E00E94E42940E757E16091100382E1BC
:102D300091E00E94D8150E94420B60E875E280E0A5
:102D400090E00C942C16089526E040E855E260E0EF
:102D500070E08EED93E00E94532880911003882349
:102D600091F08EED93E00E94E4296BE675E08EED24
:102D700093E00E94A8298EED93E00E94E4298EED55
:102D800093E00E94E4296FE575E08EED93E00E94E8
:102D9000A8298EED93E00E94E4290E94B0140E94BD
:102DA00060168093A3020E943A0B0E940D0A809144
:102DB000A302882319F080E691E002C089E891E03F
:102DC00090931901809318010E944B0E0E949C0D54
:102DD0006DE275E08EED93E00C94F8296FEF73E0EF
:102DE0008EED93E00E94A8298EED93E00E94E429E5
:102DF0000E94420B48EB5BE0609110038AE591E092
:102E00000E94D815682F70E04AE050E08EED93E004
:102E10000E94AD2A8EED93E00E94E42940E355E73D
:102E200061E084E691E00E94D815811105C00E94FE
:102E30003A0B80E090E0089581E090E00895AF9231
:102E4000BF92CF92DF92EF92FF920F931F93CF9397
:102E5000DF93CDB7DEB7C258D1090FB6F894DEBF05
:102E60000FBECDBFB82EA92E6E0125E6C20ED11C15
:102E7000ABE1EA2EF12C8601C7010E944236F60131
:102E800081936F01FFEFEF1AFF0A29E3E216F104C5
:102E900099F767EF73E08EED93E00E94A829B801DF
:102EA0008EED93E00E94DB298EED93E00E94E429F1
:102EB00061EE73E08EED93E00E94A8298EED93E021
:102EC0000E94E429F8018081882309F46AC0818185
:102ED0008F3F09F466C00E94EE16009709F46CC09B
:102EE0008EED93E00E94E4296AEB73E084EA92E0BD
:102EF0000E94A82984EA92E00E94E42940EA5FE067
:102F000061E082E191E00E94D815882309F44CC069
:102F1000AF92BF921F930F938BE691E09F938F9395
:102F20008E010F5F1F4F1F930F930E944E34F801C5
:102F300001900020E9F79F01215031097901E01A41
:102F4000F10A6EEA73E084EA92E00E94A8294AE05E
:102F500050E0B70184EA92E00E94AD2A84EA92E050
:102F60000E94E42940E757E161E08AE891E00E948D
:102F7000D8150FB6F894DEBF0FBECDBF8823B9F0C9
:102F8000B80184EA92E00E94DB2940E757E161E062
:102F90008CE891E00E94D81581110CC08CEF9FEF56
:102FA0000BC08FEF9FEF08C08EEF9FEF05C08DEF36
:102FB0009FEF02C081E090E0CE57DF4F0FB6F8944C
:102FC000DEBF0FBECDBFDF91CF911F910F91FF905C
:102FD000EF90DF90CF90BF90AF900895CF93DF93A5
:102FE0000E941F17EC01009719F483E991E013C0C8
:102FF0008130910519F48EEB91E00DC0CF3F8FEF3A
:10300000D80719F48CE991E006C0CF3F8FEFD807BD
:1030100044F486EA91E090931901809318010E948C
:103020004B0ECE01DF91CF910895CF92DF92EF92B8
:10303000FF920E944C0B81110CC08CEA91E090939E
:10304000190180931801FF90EF90DF90CF900C94BE
:103050004B0EC0909302D0909402E0909502F090B5
:1030600096020E9429266C197D098E099F096136F6
:103070007A4E8105910508F441C080919F0290919C
:10308000A0020E94EE177C018FEFE816F806ACF460
:103090008EED93E00E94E42965EA73E08EED93E003
:1030A0000E94A8298EED93E00E94E42980919F025E
:1030B0009091A0020E94EE177C018EED93E00E9499
:1030C000E4296CE973E08EED93E00E94A8294AE0C0
:1030D00050E0B7018EED93E00E94AD2A8EED93E0B3
:1030E0000E94E4290E943A0B0E94292660939302D1
:1030F000709394028093950290939602FF90EF90C4
:10310000DF90CF900895EF92FF920F931F93CF938C
:10311000DF9300D0CDB7DEB7B5E7EB2EB2E0FB2EE4
:103120000BE110E0F70161917F011A830983CE0161
:1031300001960E949C090F5F1F4F0933110591F7FB
:1031400064E471E08EED93E00E94A8298EED93E097
:103150000E94E42988EC91E00E94EE176FE371E091
:103160008EED93E00E94A8298EED93E00E94E42961
:1031700080E090E00F900F90DF91CF911F910F9121
:10318000FF90EF900895EF92FF920F931F93CF93CC
:10319000DF9300D0CDB7DEB77C018B011A82198294
:1031A000BE016F5F7F4F8AE190E00E94BC096CE432
:1031B00074E084EA92E00E94A82984EA92E00E94E6
:1031C000E42940ED57E060E082E191E00E94D815EB
:1031D000882309F46AC084EA92E00E94121C69E420
:1031E00074E084EA92E00E94A82984EA92E00E94B6
:1031F000E42948EE53E06091100382E191E00E94DF
:10320000D81561E374E084EA92E00E94A8296FE394
:1032100074E084EA92E00E94A829B70184EA92E06F
:103220000E94DB2961E474E084EA92E00E94A8290C
:1032300063E474E084EA92E00E94A82965E474E003
:1032400084EA92E00E94A829B80184EA92E00E94F0
:10325000DB2967E474E084EA92E00E94A82984EA0A
:1032600092E00E94E42940E25EE4609110038BE06A
:1032700091E00E94D8158823D9F061E274E084EAD5
:1032800092E00E94A82984EA92E00E94E42981E069
:1032900090E09A838983BE016F5F7F4F8AE190E05F
:1032A0000E94BC0981E090E005C08FEF9FEF02C053
:1032B0008EEF9FEF0F900F90DF91CF911F910F91A5
:1032C000FF90EF90089567E174E08EED93E00E9427
:1032D000A8298EED93E00E94E4290E94420B84EA23
:1032E00092E00E94FA1B892B49F084EA92E00E9446
:1032F0006D1BBC018EED93E00E9495098EED93E06D
:103300000E947027892B59F38EED93E00E94892744
:10331000682F84EA92E00E948E1BE1CFCF92DF9269
:10332000EF92FF92CF93DF93EC010E9429266B016D
:103330007C01CE01AA2797FDA095BA2FC80ED91EF1
:10334000EA1EFB1ED0E00E9429266C157D058E0525
:103350009F0530F58EED93E00E947027892B99F33D
:10336000C1E0CD0F8EED93E00E948927ED2FF0E0B4
:10337000EB58FD4F8083EC2FF0E0EC58FD4F80813F
:103380008A3059F0CD3169F08D3041F410828EEDE4
:1033900093E00E94CC27CD2F09C0CD2FDC2FD3CFB7
:1033A000CD2FEC2FF0E0EB58FD4F10828C2FDF91EA
:1033B000CF91FF90EF90DF90CF90089588EE98E046
:1033C000909374028093730248EE53E060E070E0E3
:1033D0008EED93E00E94BC2B8EED93E00E9470274F
:1033E000892B49F140E355E760E070E08EED93E012
:1033F0000E94BC2B80E395E70E948E198EED93E02E
:103400000E94CC2785E792E00E94610BE091730255
:10341000F09174020995892B69F78EED93E00E9473
:10342000E4296FE873E08EED93E00E94A8298EED09
:1034300093E00C94E42908950E94AB130E94501469
:103440008091A102882329F00E9454110E948211C8
:1034500002C00E944B0E0E94DE190C9415188EEDCE
:1034600093E00E94E42969EB71E08EED93E00E9405
:10347000A8298EED93E00E94E4290E94420B40E7C8
:1034800057E1609110038AE591E00E94D8158111FF
:103490000BC061EA71E08EED93E00E94A8298EEDE9
:1034A00093E00E94E42925C08EED93E00E94CC2792
:1034B00068EE73E080E090E00E9458266091670219
:1034C0007091680280916D0290916E020E94C31803
:1034D00097FF07C067E871E08EED93E00E94A8298E
:1034E00008C089EB91E090931901809318010E9424
:1034F0004B0E0C94C10B80917502813311F40C9426
:10350000860C823311F40C949D0C833311F40C94CB
:103510002F1A843311F40E946319853311F40C942B
:10352000B40C0C94E808FC0187819085009711F099
:103530000C9445320895FC01118212821382148288
:103540001582168240E050E060EC7FE741875287A9
:1035500063877487458756876787708B80E0908183
:10356000891770F4A781B08594E0899FA00DB11DE3
:1035700011241D921D921D921C9213978F5FEFCF05
:103580000895CF93DF93EC01688324E0629FC0012C
:1035900011240E94AD3198878F83892B09F41882FA
:1035A000CE01DF91CF910C949B1AAF92BF92CF9234
:1035B000DF92EF92FF920F931F93CF93DF93EC0173
:1035C0006A017B010F8118850115110509F45FC09F
:1035D0008A81580194E0899FA00CB11C1124F50147
:1035E00020813181428153816B817C818D819E81DB
:1035F0000E948A2D6B837C838D839E83F501C0821C
:10360000D182E282F382BA80F80184E0B89EE00DB4
:10361000F11D112420813181428153816B817C8194
:103620008D819E810E948B2D6B837C838D839E83F5
:10363000B394BA820881B01201C01A8219811111A3
:1036400005C0CD86DE86EF86F88A0AC029853A85D0
:103650004B855C85C701B6010E94EF2D87FF05C031
:10366000C986DA86EB86FC860EC02D853E854F85A1
:103670005889C701B6010E943E2F181624F4CD8642
:10368000DE86EF86F88A101710F41F5F1983DF912A
:10369000CF911F910F91FF90EF90DF90CF90BF904F
:1036A000AF900895CF93DF93EC016981662371F0A9
:1036B00070E080E090E00E948E2E9B01AC016B8157
:1036C0007C818D819E810E94F32D04C060E070E0BA
:1036D00080EC9FE7DF91CF910895209153033091C3
:1036E000540328173907B9F49091110380911203FC
:1036F000981789F0E0911103F0E0ED5EFC4F8081B6
:103700002091110330E02F5F3F4F2F733327209319
:10371000110390E008958FEF9FEF08951F93CF93CB
:10372000DF93DC015C968D919C915D97009749F445
:1037300081E090E013969C938E93129780E090E046
:103740003BC05196ED91FC91529750962C91509719
:10375000322F30951FB75E964C915E9741FB7727CD
:1037600070F941FD6095F8944081772311F0422B68
:1037700001C043234083EC012197F1F748E05081D9
:1037800060FF02C0522B01C053235083EC012197EC
:10379000F1F76695415099F78081772311F08323E3
:1037A00001C0822B80831FBF5C968D919C915D9799
:1037B0000197F1F781E090E0DF91CF911F9108959B
:1037C00020915303309154032817390781F49091C5
:1037D000110380911203981751F0E0911103F0E06A
:1037E000ED5EFC4F8081992787FD909508958FEFBE
:1037F0009FEF089520915303309154032817390700
:1038000071F4809112032091110390E0805C9F4F2E
:10381000821B910960E470E00E943831089580E0D5
:1038200090E00895209153033091540328173907ED
:1038300039F48FB7F89410921203109211038FBFCE
:103840000895E0915303F0915403E817F90769F4E0
:10385000A389B4899C918589809589238C93109242
:1038600054031092530381E0089580E00895CF93AC
:10387000DF93EC018A8D9B8D892BF1F080915303AE
:10388000909154038C179D07B9F0009711F00E9496
:10389000211C8E8D8E7F8E8F109212031092110339
:1038A000D0935403C0935303EB89FC8980819D8995
:1038B000892B808381E001C080E0DF91CF91089562
:1038C0001F920F920FB60F9211242F933F934F9395
:1038D0005F936F937F938F939F93AF93BF93EF9378
:1038E000FF93E0915303F0915403309709F451C0D2
:1038F000868DA685B785958581FF04C08C91892327
:1039000029F447C08C91892309F043C0A389B48965
:103910009C918589809589238C93868997890197C5
:10392000F1F7208D318DA685B785758558E040E08B
:10393000C9010197F1F7842F90E095958795482F5D
:103940006C91672309F04068515091F7868D81FD95
:1039500040958091120390E001968F7399272091F2
:103960001103281749F0A0911203B0E0AD5EBC4FDF
:103970004C938093120303C0868D8160868F828D65
:10398000938D0197F1F7A389B4898C919589892B3F
:103990008C93FF91EF91BF91AF919F918F917F9108
:1039A0006F915F914F913F912F910F900FBE0F90AC
:1039B0001F90189525ED31E0FC01318320830C9494
:1039C000211C1F93CF93DF93EC01162F6E8D66950C
:1039D000617081E06827812F0E943A2761E0812F82
:1039E0000E940127812F90E0FC01E15DFE4EE491F1
:1039F000E88BFC01ED5BFE4EE491F0E0EE0FFF1F63
:103A0000EF59FE4E859194919A8B898BDF91CF91DE
:103A10001F9108951F93CF93DF93EC01162F60E061
:103A2000812F0E9401278E8D81FD04C061E0812FCE
:103A30000E943A271C87812F90E0FC01E15DFE4E39
:103A4000E491ED87FC01ED5BFE4EE491F0E0EE0FBA
:103A5000FF1FE95AFE4E859194919F878E87DF91D3
:103A6000CF911F910895FF920F931F93CF93DF93F0
:103A7000EC01F62E522F1B821A8208EE13E020E092
:103A800030E00C831D832E833F8385ED91E0998385
:103A900088831F8A1E8A198E188E1B8E1A8E1D8E81
:103AA0001C8E8E8D8E7F50FB81F98E8F642FCE0100
:103AB0000E94E11C6F2DCE01DF91CF911F910F91DC
:103AC000FF900C940A1DCF93DF93EC019A01AB0198
:103AD0001B8E1A8E198E188E1F8A1E8A60E079E05E
:103AE0008DE390E00E946E31C9012430310520F051
:103AF000B9016350710902C061E070E07D8F6C8F85
:103B0000EC85E63108F068C0B901769567956431B7
:103B1000710518F06351710902C061E070E07F8B9C
:103B20006E8B069718F0C901059702C081E090E0FE
:103B3000998F888FC901880F991F820F931F9695BF
:103B40008795969587958D30910510F00C9702C05A
:103B500081E090E09B8F8A8F20916800E83050F0E0
:103B600091E0EE3008F490E081E001C0880F9A9572
:103B7000EAF701C084E0822B809368002C8528300E
:103B800038F02E3040F0263148F48CE690E008C042
:103B90008DE690E005C08BE690E002C080E090E00A
:103BA0009C8B8B8B283030F481E001C0880F2A95E4
:103BB000EAF70DC0822F90E02E3010F4089701C074
:103BC0000E9791E001C0990F8A95EAF7892F8D8BA6
:103BD0008C8D9D8D0197F1F7CE01DF91CF910C94E3
:103BE000371CFF920F931F93CF93DF93EC01F22EBC
:103BF000798368838B01000F111F060F171F1B832A
:103C00000A834C831D822B871C861D861E861F8679
:103C100050E0FA01ED5BFE4EE491F0E0EE0FFF1F85
:103C2000EF59FE4E85919491998B888BFA01E15D55
:103C3000FE4E44914A8BC8010E94AD319F838E8312
:103C4000009729F0A80160E070E00E94CE33F0FEFA
:103C500004C081E0888719860BC0F2FE06C081E0AF
:103C6000888782E089871A8605C0188681E089875F
:103C700082E08A87DF91CF911F910F91FF90089585
:103C8000CF93DF93EC018E819F81009711F00E940A
:103C9000453260E08C81DF91CF910C940127CF9366
:103CA000DF93EC0161E08C810E94012760E08C8150
:103CB000DF91CF910C943A27CF92DF92EF92FF924F
:103CC0000F931F93CF93DF93CDB7DEB729970FB62E
:103CD000F894DEBF0FBECDBF8C01DC0116968D912E
:103CE0009C911797892B09F49BC00E943526F801F7
:103CF000C484D584E684F7846C197D098E099F09F4
:103D0000623371058105910580F3F8948281938176
:103D10009A838983A681B7817D01EFEFEE1AFE0AAF
:103D20008C918987D8011B969C911B9750960D907A
:103D3000BC91A02DF801828991FF2EC09C91982BF7
:103D400098879C91809589238F838F818E8388E0CB
:103D50008D8358856F8149853D812E8189819A8126
:103D6000F7015C9347FD252F3A952C93262F39F0C8
:103D7000441F00C000006C93000000C0F2CF38E088
:103D800041916C930000019761F7F801B18BA08B12
:103D900049873D832E8338C09C91982B98879C91AE
:103DA000809589238F838F818C8388E08B835885CE
:103DB0006F8149853B812C8189819A81F7015C93D0
:103DC00047FD252F00C000C02C9300C000C000C0DC
:103DD00000C000C06C930000262F3A9541F0441FAC
:103DE000000000C000C000C000C000C0E8CF38E044
:103DF000419100C06C9300C0019709F7F801B18BA5
:103E0000A08B49873B832C839A83898378940E9473
:103E10003526D8011C966D937D938D939C931F97A7
:103E200029960FB6F894DEBF0FBECDBFDF91CF91BC
:103E30001F910F91FF90EF90DF90CF900895CF9258
:103E4000DF92EF92FF920F931F93CF93DF93FC01CA
:103E5000808191816817790788F5CA01AA27BB2755
:103E6000082FC32ED42EE52EFF241C2DD22FC58162
:103E7000CC2361F08C9FC0011124092FCC9E6001DE
:103E800011241D2D2C9F90011124D32F9B01220F53
:103E9000331F260F371F86819781820F931F20853E
:103EA000DC01A20FB11D0C932185DC01A20FB11D15
:103EB0001C932285FC01E20FF11DD083DF91CF918D
:103EC0001F910F91FF90EF90DF90CF900895962F64
:103ED00050E060E070E0592B682BCB01BA010895E7
:103EE000FF920F931F93CF93DF93EC01FF24F39482
:103EF000F60E2D81F21679F10E811F812150B9F055
:103F00006F3F59F430E040E050E06FEF7FEF80E02A
:103F100090E00E946E31B9010CC08F2D90E0982F77
:103F200088270197622F70E00E94243102C060E070
:103F300070E0F8018A819B81AF01401B510B48174B
:103F4000590740F44081469FC001479F900D1124BE
:103F50009193F0CFFD82DF91CF911F910F91FF9050
:103F600008950F93FC0113AE14AE15AE04960E9493
:103F70006F240F9108950F93FC010150040F84A941
:103F800096A9941718F0081728F402C0081750F0E3
:103F9000041740F42150260F83A995A9961720F401
:103FA000281720F480E007C0281720F481E02617A6
:103FB00010F0F8CF81E00F910895DB011496ED9198
:103FC000FC91159720E030E061E00994DB01149644
:103FD000ED91FC91159720E030E063E00994DB015E
:103FE0001496ED91FC91159720E030E040E064E0FC
:103FF0000994DB011496ED91FC91159720E030E0D7
:1040000041E064E00994DB011496ED91FC91159771
:1040100020E030E062E00994DB011496ED91FC9120
:10402000159720E030E065E00994DB011496ED91EE
:10403000FC91159766E00994AF92BF92CF92DF9200
:10404000EF92FF920F931F93CF93DF931F92CDB701
:10405000DEB75C018B017A0180E0F70144918111A8
:1040600009C04F3FD9F1B801C5010E940C20811150
:104070002EC039C04F3FB9F34E3FB9F1403F38F53C
:10408000403E30F04F70B801C5010E9403201FC0B0
:10409000403D30F04F70B801C5010E94E61F17C0C7
:1040A000403CB8F0B801C50149830E94EF1F498127
:1040B0004295407F4E5FC42ED12CC6010E942F2115
:1040C000B801C5010E94F91FC6010E942F2180E09E
:1040D00006C047FDFCCF842F90E0F7CF81E0FFEFD3
:1040E000EF1AFF0ABACF80E001C081E00F90DF91A4
:1040F000CF911F910F91FF90EF90DF90CF90BF90E5
:10410000AF900895860F911DFC0183A18F3F19F098
:10411000642F0C943A270895EF92FF920F931F9308
:10412000CF93DF937C01C0E0D0E087010C0F1D1F0F
:10413000F80183A18F3F41F061E00E94012761E017
:10414000F80183A10E943A272196CD30D10569F765
:10415000DF91CF911F910F91FF90EF9008958EBD49
:104160000DB407FEFDCF8EB50895CF92DF92EF928A
:10417000FF920F931F93CF93DF931F92CDB7DEB7BC
:104180006C017901062F10E0F8013197E730F10555
:1041900008F05AC0EC5CFF4F0C948D3149830E94AB
:1041A0008C2061E08DE00E94012760E08DE00E949C
:1041B0003A2761E08BE00E94012760E08BE00E94DB
:1041C0003A2761E08AE00E94012761E08AE00E94CC
:1041D0003A271CBC80E58CBD49814230A8F581E0BE
:1041E0008DBD32C061E004C0411106C041E062E013
:1041F000C6010E94822028C040E064E00E94822024
:1042000040E0F5CFFC0183A18F3FF1F060E0F0CFFB
:10421000842F0E94AF2018C04423B1F0F701819190
:104220007F0149830E94AF2049814150F5CF44234B
:1042300059F0F701849149830E94AF20FFEFEF1AF4
:10424000FF0A49814150F3CF81E00F90DF91CF9178
:104250001F910F91FF90EF90DF90CF9008952EE97E
:104260003FE0009729F0F9013197F1F70197F9CF75
:104270000895BF92CF92DF92EF92FF920F931F9318
:10428000CF93DF938C01EB01B42E690180E14817D5
:10429000B1F1841770F0EAE04E133CC042E0C8016F
:1042A0000E94DD1F44EA55E0BE01C8010E941C20A7
:1042B00031C0F1E14F1731F185E148132BC0EA809D
:1042C000FB804CE955E0C8010E941C20F7014481A5
:1042D000406BBE01C8010E940C2041E0BE01C80134
:1042E0000E940320AE01B801C7010E941D2588234A
:1042F00001F140E0BE01C8010E94E61F0BC043E986
:1043000055E002C048E855E0BE01C8010E941C20EB
:1043100081E010C096014B2DBE01C801DF91CF9105
:104320001F910F91FF90EF90DF90CF90BF900C9472
:10433000952580E0DF91CF911F910F91FF90EF9035
:10434000DF90CF90BF900895FC01E60FF11D84919E
:1043500090E0982F88273196E4918E0F911D089553
:10436000FC01849108950E94B021882311F08230CD
:1043700011F486E0089583E0089580E0089566E0F2
:104380000C94A42168E00C94A4210A96FC01849169
:1043900008950B96FC0184910895BF92CF92DF920D
:1043A000EF92FF920F931F93CF93DF93EC01E62ED2
:1043B0000C811D81C8010E94B021F82E8C819D8145
:1043C0000E94B321B82E21E0F21619F0CC24CA9431
:1043D00002C05FE0C52E8C819D810E94C521F82E10
:1043E0008C819D810E94C921D82E8C819D810E9443
:1043F000C221E0E6EE1538F4009729F0080F191FE6
:1044000041E6F42E10C08C819D810E94BF21F0E412
:10441000FE1538F4009729F0080F191F31E4F32E28
:1044200002C00F5E1F4FDE1440F4188A1B8A1C8ADC
:10443000198A1A8A80E090E050C0DF14B0F32B2D67
:1044400030E0F80184918F3F19F40F5F1F4F40C097
:10445000FE1036C08C819D810E94B02198012F5F93
:104460003F4FF801882311F0823091F484918B8BB7
:10447000F90124912C8BF8013396E491E88BF80133
:104480003496E491E98BF8013596E491EA8B16C0F5
:104490009491892F8F7082508A8B92959F70998BFF
:1044A000F9012491822F8F708C8B22952F702B8B8A
:1044B000F8013296E491E295EF70E88BC8010DC0E7
:1044C000F8013296E491EC210E0F111D020F131F1B
:1044D000FD1409F4AACFF394B4CFDF91CF911F91CB
:1044E0000F91FF90EF90DF90CF90BF9008954F9283
:1044F0005F927F928F929F92AF92BF92CF92DF9204
:10450000EF92FF920F931F93CF93DF931F92CDB73C
:10451000DEB72C01162F742E622F0E94CD216C0164
:10452000009709F43EC0F201848195810E94B32175
:10453000F82EF201838804899188910E8289781A75
:10454000172D101B282D412F692DC2010E94BB1F62
:10455000882321F1CF0CD11CF7E08F0E869486942E
:104560008694A82CB12C1715C9F0392D76018E2D03
:104570008C19881578F4F701049120E0412F632FFE
:10458000C20139830E94A724FFEFEF1AFF0A398185
:10459000385FEDCFCA0CDB1C1F5FE5CFF2018089CD
:1045A00001C080E00F90DF91CF911F910F91FF909C
:1045B000EF90DF90CF90BF90AF909F908F907F90C3
:1045C0005F904F9008950F931F93CF93DF9300D088
:1045D0001F92CDB7DEB78C01DC015596ED91FC91B1
:1045E00056972B834A83698309954A81480F2B810B
:1045F0006981C8010F900F900F90DF91CF911F91AB
:104600000F910C947722DC0114968D919C91159753
:10461000009709F43FC057962C915797FC01211140
:1046200008C03596E4915896EC935897FC013C9657
:1046300011C0213041F43F96E4915896EC9358977D
:10464000FC01709607C03D96E4915896EC935897FC
:10465000FC013E96849159968C93599758968C916B
:104660005897992787FD909559962C915997821BB9
:10467000910927FD93955A962C915A97203441F031
:10468000829FC0011124E6E096958795EA95E1F7AF
:104690005B968C9308952DEB31E2FC01368B258BD4
:1046A0000895CF93DF93EC018C819D818617970746
:1046B00049F07D836C83CE010E9403238DEB91E250
:1046C0009E8B8D8BDF91CF9108951F93CF93DF93B6
:1046D000EC011D821C821F821E82198681E0888760
:1046E00082E28A871F861E8680E090E02FEFFE011F
:1046F000E80FF91F23A301968E309105C1F711E051
:1047000018A3CE010E944B231F8B188E198E80E4B4
:104710008A8F1B8E8EED95E29AAB89ABDF91CF919C
:104720001F910895DB01ED91FC910994EF92FF92A6
:104730001F93CF93DF9300D0CDB7DEB77C01DC01B0
:10474000D196ED91FC91D29782E069837A830995A5
:1047500020E030E04AE069817A81C7010E9492231B
:10476000182FD701D196ED91FC91D29783E009954E
:10477000D701D196ED91FC91D29780E00995812FD8
:104780000F900F90DF91CF911F91FF90EF900895C0
:104790000F931F93CF93DF93EC018B01E9A9FAA943
:1047A00082E00995E9A9FAA981E0099520E030E0C5
:1047B00044E1B801CE010E9492239E012D5C3F4F3F
:1047C00047E1B801CE010E949223E9A9FAA980E04D
:1047D000DF91CF911F910F910994FF920F931F9337
:1047E000CF93DF93EC018B01E9A9FAA982E0099547
:1047F000E9A9FAA981E0099520E030E045E1B80196
:10480000CE010E949223F82E882341F09E012D5C58
:104810003F4F47E1B801CE010E949223E9A9FAA9CE
:1048200080E009958F2DDF91CF911F910F91FF901F
:104830000895CF93DF931F92CDB7DEB79E012F5F10
:104840003F4F46E40E94922389810F90DF91CF91E0
:104850000895CF93DF931F92CDB7DEB79E012F5FF0
:104860003F4F47E40E94922389810F90DF91CF91BF
:10487000089520E030E048E40C949223CF93DF9336
:10488000EC016A817B810E94192488836A817B8183
:10489000CE010E94292489836A817B81CE010E94F6
:1048A00039248B879E012D5C3F4F6A817B8147E1D4
:1048B000CE01DF91CF910C949223CF93DF93EC0143
:1048C0006A817B810E949623882329F0CE010E9471
:1048D0003E2481E001C080E0DF91CF910895CF9226
:1048E000DF92EF92FF920F93CF93DF9300D0CDB77B
:1048F000DEB76C017B012A8349830E946523F601A0
:10490000F382E282498145A32A8124A303A3C6013D
:104910000F900F90DF91CF910F91FF90EF90DF906C
:10492000CF900C945D24FC01628173810C94C823A8
:10493000CF93DF93EC01EE85FF85309709F0099561
:104940006A817B81CE01DF91CF910C94ED230F938F
:10495000FC0182819381648F458F278F068F9F0191
:10496000245E3F4F4BE3BC01CF010F910C94922387
:10497000FC0160A30895FC01128280818150838331
:1049800014820895FC0120818281820F82839181AB
:10499000891760F484818F5F84838381820F8917F4
:1049A00010F08FEF890F838381E0089580E00895F0
:1049B000DC011696ED91FC91179715968C919F014D
:1049C000280F311DC9011192E817F907E1F7089581
:1049D000FC0191E08381861708F490E021E04617FE
:1049E00008F020E0322F392B81E05281451708F47E
:1049F00080E083239223892B0895DC01FB01108240
:104A000012968C911297818315968C9115978150EF
:104A1000828313968C9183830895FB0141812381C6
:104A2000213029F0233031F468EF640F04C0642F83
:104A3000485F01C0642F0C94E824FC01CB01BA014B
:104A40002681378145810C941520DC011696ED9165
:104A5000FC91179712968C91481B477081E090E06B
:104A6000042E01C0880F0A94EAF7E60FF11D308189
:104A7000222311F0832B02C0809583238083089525
:104A8000FB014181DC0112962C911297421768F0CC
:104A900013962C911397241740F0608115962C9152
:104AA000621718F424810C9425250895CF92DF9283
:104AB000FF920F931F93CF93DF9300D0CDB7DEB754
:104AC0008C016B01FB01F2808381813039F070F041
:104AD000823039F0833041F020E001C021E030E045
:104AE00007C020E03FEF04C02FEFF9CF20E031E016
:104AF000F7FE08C0B601C80129833A830E94402509
:104B00003A812981F6018081830F80838181820F20
:104B10008183FF0C69F70F900F90DF91CF911F9168
:104B20000F91FF90DF90CF9008950F931F93CF9335
:104B3000DF938901FB01C281D3814233F9F068F42C
:104B4000453109F1473141F1443181F5CE010E94EF
:104B5000D824CE010E94BB2429C0463411F1473429
:104B600011F14B3319F5B901CE010E940D258823AF
:104B7000E9F0B801CE010E94562518C0B901CE0156
:104B80000E94402513C0CE010E94C224882381F0D8
:104B9000CE010E94D8240AC0B901CE010E94FD2492
:104BA00005C08D8101C08981F801808381E001C049
:104BB00080E0DF91CF911F910F91089508951F928A
:104BC0000F920FB60F9211242F933F938F939F93C1
:104BD000AF93BF938091D6039091D703A091D80350
:104BE000B091D9033091D50323E0230F2D3720F462
:104BF0000196A11DB11D05C026E8230F0296A11D37
:104C0000B11D2093D5038093D6039093D703A0932F
:104C1000D803B093D9038091DA039091DB03A0917C
:104C2000DC03B091DD030196A11DB11D8093DA0371
:104C30009093DB03A093DC03B093DD03BF91AF91AE
:104C40009F918F913F912F910F900FBE0F901F90CA
:104C500018952FB7F8946091D6037091D70380917F
:104C6000D8039091D9032FBF08953FB7F89480914E
:104C7000DA039091DB03A091DC03B091DD0326B54C
:104C8000A89B05C02F3F19F00196A11DB11D3FBF84
:104C90006627782F892F9A2F620F711D811D911D14
:104CA00042E0660F771F881F991F4A95D1F7089534
:104CB000CF92DF92EF92FF92CF93DF936B017C0153
:104CC0000E943526EB01C114D104E104F10489F0FE
:104CD0000E94892D0E9435266C1B7D0B683E734017
:104CE00090F381E0C81AD108E108F108C851DC4FFF
:104CF000EACFDF91CF91FF90EF90DF90CF900895B2
:104D0000789484B5826084BD84B5816084BD85B5A6
:104D1000826085BD85B5816085BDEEE6F0E080816D
:104D200081608083E1E8F0E010828081826080838E
:104D3000808181608083E0E8F0E080818160808311
:104D4000E1EBF0E0808184608083E0EBF0E0808143
:104D500081608083EAE7F0E08081846080838081E5
:104D6000826080838081816080838081806880838D
:104D70001092C10008958E3008F08E5087702091F7
:104D80002A0190E4299F90011124822B80937C00BA
:104D900080917A00806480937A0080917A0086FD09
:104DA000FCCF809178002091790090E0922B0895BB
:104DB000833081F028F4813099F08230A1F0089599
:104DC0008730A9F08830B9F08430D1F48091800028
:104DD0008F7D03C0809180008F778093800008953D
:104DE00084B58F7702C084B58F7D84BD089580918E
:104DF000B0008F7703C08091B0008F7D8093B000AA
:104E00000895CF93DF9390E0FC01E15DFE4E249185
:104E1000FC01ED5BFE4E8491882349F190E0880F00
:104E2000991FFC01E559FE4EA591B4918F599E4EF4
:104E3000FC01C591D4919FB7611108C0F8948C9181
:104E4000209582238C93888182230AC0623051F49A
:104E5000F8948C91322F309583238C938881822B08
:104E6000888304C0F8948C91822B8C939FBFDF9130
:104E7000CF9108950F931F93CF93DF931F92CDB7D8
:104E8000DEB7282F30E0F901E55EFE4E8491F9018E
:104E9000E15DFE4E1491F901ED5BFE4E049100239D
:104EA000C9F0882321F069830E94D8266981E02F08
:104EB000F0E0EE0FFF1FEF59FE4EA591B4919FB7A2
:104EC000F8948C91611103C01095812301C0812B4E
:104ED0008C939FBF0F90DF91CF911F910F910895F9
:104EE000FC01818D228D90E0805C9F4F821B910997
:104EF0008F7399270895FC01918D828D981731F059
:104F0000828DE80FF11D858D90E008958FEF9FEF62
:104F10000895FC01918D828D981761F0828DDF01DB
:104F2000A80FB11D5D968C91928D9F5F9F73928F9C
:104F300090E008958FEF9FEF08958DE099E2892B1F
:104F400049F080E090E0892B29F00E940D29811121
:104F50000C9400000895FC01848DDF01A80FB11DA1
:104F6000A35ABF4F2C91848D90E001968F7399279F
:104F7000848FA689B7892C93A089B1898C9180648C
:104F80008C93938D848D981306C00288F389E02D4D
:104F900080818F7D80830895CF93DF93EC01888D8E
:104FA0008823C9F0EA89FB89808185FD05C0A8892D
:104FB000B9898C9186FD0FC00FB607FCF5CF8081B3
:104FC00085FFF2CFA889B9898C9185FFEDCFCE01FD
:104FD0000E94AB27E7CFDF91CF910895CF92DF9268
:104FE000FF920F931F93CF93DF931F92CDB7DEB73E
:104FF0006C01DC015B969C915B975C968C915C9755
:10500000981307C05096ED91FC915197808185FDD2
:1050100032C0F601038D10E00F5F1F4F0F73112791
:10502000F02EF601848DF81211C00FB607FCF9CFEF
:10503000D6015096ED91FC915197808185FFF1CF7B
:10504000C60169830E94AB276981EBCF838DE80F8E
:10505000F11DE35AFF4F6083D6015B960C935B977B
:105060005296ED91FC91539780818062808381E01C
:1050700058968C930DC0D6015696ED91FC9157979A
:1050800060835096ED91FC9151978081806480837C
:1050900081E090E00F90DF91CF911F910F91FF90F1
:1050A000DF90CF900895BF92CF92DF92EF92FF9260
:1050B000CF93DF93EC016A017B01B22EE889F98975
:1050C00082E08083411581EE580761057105A1F0EA
:1050D00060E079E08DE390E0A70196010E944C31F9
:1050E0002150310941095109569547953795279522
:1050F000211580E1380798F0E889F989108260E885
:1051000074E88EE190E0A70196010E944C31215095
:105110003109410951095695479537952795EC85F1
:10512000FD853083EE85FF852083188EEC89FD890F
:10513000B082EA89FB89808180618083EA89FB896A
:10514000808188608083EA89FB8980818068808390
:10515000EA89FB8980818F7D8083DF91CF91FF90E9
:10516000EF90DF90CF90BF9008951F920F920FB6EF
:105170000F9211242F938F939F93EF93FF93E091BE
:10518000EE03F091EF038081E091F403F091F503D9
:1051900082FD12C090818091F7038F5F8F73209101
:1051A000F803821751F0E091F703F0E0E252FC4F70
:1051B000958F8093F70301C08081FF91EF919F91BC
:1051C0008F912F910F900FBE0F901F9018951F92E7
:1051D0000F920FB60F9211242F933F934F935F932B
:1051E0006F937F938F939F93AF93BF93EF93FF93AF
:1051F0008EED93E00E94AB27FF91EF91BF91AF91AD
:105200009F918F917F916F915F914F913F912F91DE
:105210000F900FBE0F901F9018958EED93E00E9497
:10522000702721E0892B09F420E0822F0895109245
:10523000E1031092E00388EE93E0A0E0B0E08093F9
:10524000E2039093E303A093E403B093E50385EEB8
:1052500091E09093DF038093DE0385EC90E09093E0
:10526000EB038093EA0384EC90E09093ED0380934A
:10527000EC0380EC90E09093EF038093EE0381ECDD
:1052800090E09093F1038093F00382EC90E0909390
:10529000F3038093F20386EC90E09093F503809300
:1052A000F4031092F7031092F8031092F90310928E
:1052B000FA03089508950E9480260E945A290E94A8
:1052C000A416CDE9D7E20E941C1A2097E1F30E94B0
:1052D0009D27F9CFCF92DF92EF92FF920F931F930A
:1052E000CF93DF936C017A01EB01E60EF71E00E02D
:1052F00010E0CE15DF0561F06991D601ED91FC91CA
:105300000190F081E02DC6010995080F191FF1CF1A
:10531000C801DF91CF911F910F91FF90EF90DF9027
:10532000CF9008956115710581F0DB010D9000208B
:10533000E9F7AD0141505109461B570BDC01ED91D6
:10534000FC910280F381E02D099480E090E00895C3
:10535000EF92FF920F931F93CF93DF938C01FB018A
:10536000C0E0D0E064917F018FEFE81AF80A66236D
:1053700061F0D801ED91FC910190F081E02DC80120
:105380000995C80FD91FF701EDCFCE01DF91CF915D
:105390001F910F91FF90EF900895DC01ED91FC912A
:1053A000DB0114964D915C9115976D917C91028073
:1053B000F381E02D09940C949229DC01ED91FC918C
:1053C0000190F081E02D09940F931F93CF93DF9309
:1053D000EC016DE00E94DD298C016AE0CE010E94A3
:1053E000DD29800F911FDF91CF911F910F910895BB
:1053F0000F931F93CF93DF93EC010E94A8298C0198
:10540000CE010E94E429800F911FDF91CF911F915F
:105410000F9108958F929F92AF92BF92CF92DF9299
:10542000EF92FF920F931F93CF93DF93CDB7DEB729
:10543000A1970FB6F894DEBF0FBECDBF7C01C42E7E
:10544000E52FCB01D22E19A221E02D1510F02AE074
:10545000D22E8E010F5D1F4F8D2C912CA12CB12CC3
:105460006C2D7E2FA50194010E944C318C2DD29E73
:1054700080191124015011098A3014F4805D01C093
:10548000895CF8018083211531054105510521F022
:10549000C22EE32FCA01E4CFB801C7010E949229AE
:1054A000A1960FB6F894DEBF0FBECDBFDF91CF91AE
:1054B0001F910F91FF90EF90DF90CF90BF90AF9032
:1054C0009F908F900895CF92DF92EF92FF920F936B
:1054D0001F93CF93DF93EC016A017B012115310506
:1054E00079F4E881F9810190F081E02D642FDF915A
:1054F000CF911F910F91FF90EF90DF90CF90099483
:105500002A303105E9F477FF1AC06DE20E94DD29E7
:105510008C0144275527BA014C195D096E097F0992
:105520002AE0CE010E940A2A800F911FDF91CF91BD
:105530001F910F91FF90EF90DF90CF9008952AE098
:10554000B701A601CE01DF91CF911F910F91FF907E
:10555000EF90DF90CF900C940A2A9A01AB01662756
:1055600057FD6095762F0C94632A2115310541F47F
:10557000DC01ED91FC910190F081E02D642F099404
:105580000C940A2A9A01462F50E060E070E00C94D7
:10559000B52A9A01AB0160E070E00C94B52A4F92F5
:1055A0005F926F927F928F929F92AF92BF92CF92B3
:1055B000DF92EF92FF920F931F93CF93DF93EC0153
:1055C0006A017B01B22E9A01AB01C701B6010E94AC
:1055D0003C30882319F061EF71E027C026013701C4
:1055E000E89477F82FEF3FEF4FE75FE7C301B20191
:1055F0000E943C3081110DC02FEF3FEF4FE75FE776
:10560000C301B2010E94EF2D18161CF465EF71E082
:105610000CC02FEF3FEF4FE75FE4C701B6010E94D8
:105620003E2F1816ACF469EF71E0CE01DF91CF91F7
:105630001F910F91FF90EF90DF90CF90BF90AF90B0
:105640009F908F907F906F905F904F900C949229D5
:105650002FEF3FEF4FE75FECC701B6010E94EF2D40
:1056600087FDE1CF20E030E0A901C701B6010E942B
:10567000EF2D87FF0AC06DE2CE010E94DD298C016B
:10568000F7FAF094F7F8F09402C000E010E0A12CD3
:1056900060E070E080E09FE3AB1441F020E030E098
:1056A00040E251E40E94F32DA394F6CF9B01AC019C
:1056B000C701B6010E948B2D6B017C010E94602EF8
:1056C0002B013C010E948C2E9B01AC01C701B6014D
:1056D0000E948A2D6B017C012AE0B301A201CE0158
:1056E0000E940A2A080F191FBB2039F068E571E0F3
:1056F000CE010E949229080F191F7B2C772041F1BF
:1057000020E030E040E251E4C701B6010E948D2F55
:105710006B017C010E945B2E4B01AA2497FCA09494
:10572000BA2C2AE030E0B501A401CE010E94632A20
:10573000080F191FC501B4010E948E2E9B01AC01F8
:10574000C701B6010E948A2D6B017C017A94D6CFE5
:10575000C801DF91CF911F910F91FF90EF90DF90E3
:10576000CF90BF90AF909F908F907F906F905F9001
:105770004F9008950C94CF2AFC014483558366838F
:10578000778308954F925F926F927F92AF92BF920C
:10579000CF92DF92EF92FF920F931F93CF93DF93FD
:1057A000CDB7DEB729013A01621B730B840B950B51
:1057B00029893A894B895C892A193B094C095D0979
:1057C000298B3A8B4B8B5C8B9B01AC0169897A8965
:1057D0008B899C890E941431E418F5080609170981
:1057E000A80197010E946E312A0D3B1D4C1D5D1DC5
:1057F000CA01B901DF91CF911F910F91FF90EF90F6
:10580000DF90CF90BF90AF907F906F905F904F9060
:105810000895FC01808191810C944532CF93DF93F0
:10582000EC0188819981009711F00E94453219821C
:1058300018821D821C821B821A82DF91CF910895EB
:105840000F931F93CF93DF93EC018B016F5F7F4F1B
:10585000888199810E94D432009731F0998388839E
:105860001B830A8381E001C080E0DF91CF911F910B
:105870000F910895CF93DF93EC0188819981892B53
:1058800029F08A819B818617970760F4CE010E94D8
:10589000202C882341F08C819D81892B19F4E8818B
:1058A000F981108281E0DF91CF910895EF92FF920C
:1058B0000F931F93CF93DF93EC017B018A01BA0111
:1058C0000E943A2C811104C0CE010E940E2C07C008
:1058D0001D830C83B701888199810E94D533CE0145
:1058E000DF91CF911F910F91FF90EF900895FC01F0
:1058F0001182108213821282158214826115710541
:1059000059F0FB0101900020E9F7AF014150510926
:10591000461B570B0C94562C0895CF93DF93EC0144
:10592000FB018617970761F0608171816115710530
:1059300029F0448155810E94562C02C00E940E2CF1
:10594000CE01DF91CF910895FC0111821082138264
:105950001282158214820C948D2CCF93DF93EC016C
:105960006115710561F0FB0101900020E9F7AF01BD
:1059700041505109461B570B0E94562C02C00E94F1
:105980000E2CCE01DF91CF9108950F931F93CF93EB
:10599000DF93CDB7DEB762970FB6F894DEBF0FBEC8
:1059A000CDBF8C01CB01F8011182108213821282CB
:1059B0001582148250E0BE016F5F7F4F0E94DC337E
:1059C000BE016F5F7F4FC8010E94AD2C62960FB67B
:1059D000F894DEBF0FBECDBFDF91CF911F910F9125
:1059E00008950F931F93CF93DF93CDB7DEB7A197A1
:1059F0000FB6F894DEBF0FBECDBF8C01CB01BA014C
:105A0000F80111821082138212821582148230E012
:105A1000AE014F5F5F4F0E940734BE016F5F7F4F43
:105A2000C8010E94AD2CA1960FB6F894DEBF0FBE40
:105A3000CDBFDF91CF911F910F910895EF92FF920B
:105A40000F931F93CF93DF93EC017B010C811D819A
:105A50006115710511F480E016C04115510591F0F2
:105A6000040F151FB8010E943A2C8823A1F3288146
:105A700039818C819D81B701820F931F0E94D5339C
:105A80001D830C8381E0DF91CF911F910F91FF90D7
:105A9000EF900895FB0144815581608171810C94E0
:105AA0001E2DCF93DF9300D0CDB7DEB769831A8266
:105AB00041E050E0BE016F5F7F4F0E941E2D0F90AE
:105AC0000F90DF91CF910895CF93DF93EC01611593
:105AD000710569F0FB0101900020E9F7AF01415029
