:100000000C947E070C94A6070C94A6070C94681D0C
:100010000C94681D0C94681D0C94A6070C94A607FC
:100020000C94A6070C94A6070C94A6070C94A6079C
:100030000C94A6070C94A6070C94A6070C94A6078C
:100040000C943A190C94A6070C9415180C94EF17FD
:100050000C94A6070C94A6070C94A6070C94A6076C
:100060000C94A6070C94A607EE1C261D281D371D10
:100070003D1D411D4A1D08000000BE922449123E4C
:10008000ABAAAA2ABECDCCCC4C3E00000080BEABB1
:10009000AAAAAA3E00000000BF000000803F0000A6
:1000A000000000084178D3BB4387D1133D190E3CB3
:1000B000C3BD4282AD2B3E68EC8276BED98FE1A9EA
:1000C0003E4C80EFFFBE01C4FF7F3F0000000000F8
:1000D00007634236B79BD8A71A39685618AEBAAB31
:1000E000558C1D3CB7CC5763BD6DEDFD753EF617C5
:1000F0007231BF000000803F53656E6420496E740A
:10010000657276616C3A20005669736974202776AF
:100110006169722D6D6F6E69746F722E636F6D27DA
:1001200020666F7220636F6E6669677572617469AD
:100130006F6E2064657461696C730A007641697240
:1001400020434F32204D6F6E69746F723A207632C1
:100150002E300A00446F6E650A00446562756720A0
:10016000496E666F2069733A20000A5265737461A4
:100170007274696E672E2E2E0A000A436F6E6669CE
:100180006775726174696F6E2072657365742E2E67
:100190002E0A004E6577204272696768746E657337
:1001A000732076616C75653A20004553502050727B
:1001B0006F78790A002A2A2A736C617665002A2AE8
:1001C0002A70726F705F73657472202273656E643B
:1001D0002E696E74657276616C222C2230222A2A76
:1001E0002A70726F705F7365747220226C6F67671C
:1001F00065722E736C6F77222C2231222A2A2A7084
:10020000726F705F6C69737420776966692E73739F
:1002100069642A2A2A70726F705F6A73657472202B
:100220002273657269616C2E64756D7022302A2AA2
:100230002A0D0A00653A00726561647900474F54DF
:100240002049500044657669636520696E690077CE
:100250006966692E737369643D007645535072690F
:100260006E6F003E00657370007465737400656F97
:100270006666007773690072636F00636F6F6C006E
:100280006865617400707078007070670070706DE0
:100290000070726F78790073696D00627266006237
:1002A00072670073656E644E6F7700666163746F8A
:1002B0007279006465627567006C74006D696E0028
:1002C0005761726D75702E2E2E00004841FCF3238D
:1002D000000000002A3A0024FA23001412362006F7
:1002E00011070E001F0F801F9F800F9F00079E00A9
:1002F00003FC0081F810FEF7F0FFFFF0FFFFF0F9BC
:10030000F9F001F80003FC00079E000F9F001F8F0B
:10031000801F0F80070E001D1D74310A00000700AA
:1003200000000700000007000000070000000700B1
:1003300000000700000007000000070000000700A1
:100340000000070000000700000007000000070091
:1003500000FFFFFFF8FFFFFFF8FFFFFFF8000700B7
:100360000000070000000700000007000000070071
:100370000000070000000700000007000000070061
:100380000000070000000700000007000000070051
:10039000000B0C180F02FA0FE00FC01FC01F801FC8
:1003A000803F003F003E007E007C007C00F8000D96
:1003B000060C110209FFF8FFF8FFF8FFF8FFF8FF3D
:1003C000F80706060F0500FEFEFEFEFEFE1127756D
:1003D0001502FD000F80000F00001F00001F00002D
:1003E0001E00003E00003E00003E00007C00007C3D
:1003F00000007C0000780000F80000F80000F00029
:1004000001F00001F00001F00003E00003E0000350
:10041000E00003C00007C00007C0000780000F8095
:10042000000F80000F80001F00001F00001F000051
:100430003E00003E00003E00003C00007C00007CCE
:1004400000007C0000F8000019238C1C020101FF51
:10045000800007FFE0000FFFF0001FFFF8001FFF04
:10046000FC003F81FC003F00FE007F007E007E001C
:100470007E007E003F007E003F00FE003F00FE0049
:100480003F00FE003F00FE003F80FE003F80FE0078
:100490003F80FE003F80FE003F80FE003F80FE0068
:1004A0003F80FE003F00FE003F00FE003F007E0058
:1004B0003F007E003F007E007F007F007E003F0007
:1004C000FE003F81FC001FFFFC001FFFF8000FFF34
:1004D000F00007FFE00001FF80000F23461C05002D
:1004E00000FE01FE07FE0FFE3FFEFFFEFFFEFEFECA
:1004F000FCFEF0FEC0FE00FE00FE00FE00FE00FE60
:1005000000FE00FE00FE00FE00FE00FE00FE00FEFB
:1005100000FE00FE00FE00FE00FE00FE00FE00FEEB
:1005200000FE00FE00FE19238C1C020100FFE0000B
:1005300003FFF80007FFFC000FFFFE001FFFFF0096
:100540003FC0FF003F803F803F003F807F003F80F3
:1005500000003F8000003F8000003F8000007F00DF
:1005600000007F000000FF000001FE000003FC000F
:100570000007FC00000FF800001FF000003FE00043
:10058000007FC00001FF000003FE000007FC000028
:100590000FF000003FE000007F800000FF0000003F
:1005A000FFFFFF80FFFFFF80FFFFFF80FFFFFF8057
:1005B000FFFFFF80FFFFFF801823691C020103FF7C
:1005C000800FFFE01FFFF03FFFF87FFFFC7F03FC81
:1005D000FE01FCFE00FCFE00FE0000FE0000FE002E
:1005E00001FC0001FC000FF800FFF000FFC000FF5D
:1005F0008000FFE000FFF80003FC0000FE0000FEAA
:1006000000007E00007F00007FFE007FFE007FFE76
:1006100000FEFF00FE7F01FC7FFFFC3FFFF81FFF95
:10062000F00FFFE003FF801A238C1C01000007FC81
:1006300000000FFC00001FFC00001FFC00003FFC3E
:1006400000003FFC00007FFC0000FDFC0000FDFC02
:100650000001F9FC0001F9FC0003F1FC0007F1FCCA
:100660000007E1FC000FC1FC000FC1FC001F81FC72
:10067000003F81FC003F01FC007E01FC00FE01FC0C
:1006800000FC01FC00FFFFFFC0FFFFFFC0FFFFFFFA
:10069000C0FFFFFFC0FFFFFFC0FFFFFFC00001FC66
:1006A000000001FC000001FC000001FC000001FC56
:1006B000000001FC000001FC001823691C02007FFF
:1006C000FFFC7FFFFC7FFFFC7FFFFC7FFFFC7FFFC9
:1006D000FC7F00007F00007F00007F00007F0000A3
:1006E0007F00007F1FC07F7FF07FFFF87FFFFC7FD0
:1006F000FFFC7FC1FE7F00FE7F007F7E007F000049
:100700007F00007F00007F00007F00007FFE007FF1
:10071000FE00FEFE00FEFF01FC7FFFFC7FFFF83FB6
:10072000FFF00FFFC007FF8019238C1C020100FFA0
:10073000C00003FFF00007FFF8000FFFFC001FFFE1
:10074000FE001FE0FE003FC07F003F807F007F0073
:1007500000007F0000007F0000007E000000FE1F00
:10076000C000FE7FF000FEFFF800FEFFFC00FFFF70
:10077000FE00FFE1FE00FFC0FF00FF807F00FF00E2
:100780003F00FF003F80FF003F80FF003F80FF00F1
:100790003F807F003F007F003F007F807F007F80A1
:1007A0007F003FC0FE001FFFFC001FFFFC000FFF8B
:1007B000F80007FFE00001FF80001823691C020019
:1007C000FFFFFFFFFFFFFFFFFFFFFFFFFFFFFFFF39
:1007D000FFFF00007F00007F0000FE0000FE000120
:1007E000FE0001FC0003FC0003F80007F80007F01E
:1007F000000FF0000FF0001FE0001FE0003FC000FE
:100800003FC0003F80007F80007F0000FF0000FFAE
:100810000001FE0001FE0003FC0003FC0007F800DD
:1008200007F8000FF8000FF00019238C1C020103D9
:10083000FFC0000FFFF0001FFFFC003FFFFE003F66
:10084000FFFE007FC1FF007F80FF007F007F007FF1
:10085000007F007F007F007F007F007F007F003FE0
:1008600080FE003FC1FC000FFFF80007FFE0000121
:10087000FFC0000FFFF0001FFFF8003FC1FE007F28
:1008800080FE007F007F00FE003F00FE003F00FE74
:10089000003F80FE003F80FE003F80FF007F80FF22
:1008A000007F007F80FF007FFFFF003FFFFE003FD3
:1008B000FFFC000FFFF80003FFE00019238C1C026F
:1008C0000101FFC00007FFE0000FFFF8001FFFFC61
:1008D000003FFFFC007F81FE007F00FE007E00FFE6
:1008E00000FE007F00FE007F00FE007F80FE007F94
:1008F00080FE007F80FE007F80FE00FF807F00FF83
:10090000807F83FF803FFFFF803FFFBF801FFFBFCF
:10091000800FFF3F8001F83F8000003F0000007F14
:100920000000007F0000007F007F00FE007F00FECF
:10093000007F01FE003F83FC001FFFFC001FFFF84B
:10094000000FFFF00007FFE00001FF80000718180C
:10095000100700FEFEFEFEFEFE000000000000008C
:100960000000000000FEFEFEFEFEFE00060A00FE85
:1009700007019E0337207FFE09FE08FE00000006E7
:10098000000001070706020080808080800080034D
:100990000303060105A0A0A005050506000250F806
:1009A00050F8500509090600FF2070A8A07028A87B
:1009B000702005070706000078A8B05068A89005C9
:1009C00007070600006090A040A890680103030696
:1009D00002058080800309090601FF204080808095
:1009E000808040200309090601FF8040202020204C
:1009F00020408005050506000220A870A8200505F6
:100A0000050600012020F820200204040601FEC093
:100A1000C04080030101060103E002020206020059
:100A2000C0C0050A0A0600FE080810102020404039
:100A30008080050707060000708898A8C8887005A0
:100A4000070706000020E020202020F80507070601
:100A50000000708808102040F805070706000070A5
:100A6000880830088870050707060000103050908D
:100A7000F81038050707060000F880F008088870AD
:100A80000507070600007080F08888887005070752
:100A9000060000F8080810202020050707060000BF
:100AA000708888708888700507070600007088883D
:100AB00088780870020505060200C0C000C0C002A8
:100AC00007070601FEC0C000C0C04080040707063B
:100AD000010010204080402010050303060002F8AA
:100AE00000F8040707060100804020102040800520
:100AF0000707060000708808102000200507070679
:100B000000007088B8A8B8807805070706000020A4
:100B1000505088F88888050707060000F08888F09C
:100B20008888F0050707060000708880808088703C
:100B3000050707060000F08888888888F005070701
:100B4000060000F88080F08080F8050707060000A6
:100B5000F88080F08080800507070600007088809C
:100B600098888870050707060000888888F88888B4
:100B700088050707060000F82020202020F8050738
:100B8000070600000808080888887005070706009F
:100B9000008890A0C0A0908805070706000080800C
:100BA00080808080F805070706000088D8A8A888FC
:100BB000888805070706000088C8A89888888805DF
:100BC0000707060000708888888888700507070670
:100BD0000000F08888F08080800508080600FF701B
:100BE00088888888A87008050707060000F08888AC
:100BF000F0888888050707060000708880700888DC
:100C000070050707060000F8202020202020050797
:100C1000070600008888888888887005070706000E
:100C20000088888850502020050707060000888823
:100C300088A8A8D888050707060000888850205093
:100C4000888805070706000088888850202020052E
:100C50000707060000F80810204080F8020909067E
:100C600002FFC080808080808080C0050A0A060163
:100C7000FE8080404020201010080802090906016B
:100C8000FFC040404040404040C005030306000410
:100C90002050880601010600FEFC02020206010641
:100CA00080400505050600007888889868050707D4
:100CB0000600008080F0888888F0050505060000A1
:100CC0007088808078050707060000080878888803
:100CD00088780505050600007088F8807804070705
:100CE0000601003040E0404040400507070600FE96
:100CF000788888887808700507070600008080F0EB
:100D0000888888880307070601004000C0404040EB
:100D1000E00309090600FE2000602020202020C0FA
:100D2000050707060000808090A0E0908803070771
:100D3000060100C04040404040E0050505060000B7
:100D4000F0A8A8A8A8050505060000B0C8888888EE
:100D500005050506000070888888700507070600ED
:100D6000FEF0888888F080800507070600FE7888F6
:100D70008888780808050505060000B0C8808080CE
:100D800005050506000078807008F00407070601D5
:100D9000004040E0404040300505050600008888DE
:100DA00088986805050506000088885050200505CC
:100DB00005060000A8A8A8A850050505060000889B
:100DC000502050880507070600FE88888888780824
:100DD00070050505060000F8102040F8030B0B060F
:100DE00001FE204040404080404040402001090931
:100DF0000602FF808080808080808080030B0B064D
:100E000001FE8040404040204040404080050202BA
:100E100006000368B00000000600004272696768BF
:100E2000746E65737320203A007350503A006D6EF3
:100E3000743A0074656D3A00704D543A00634D5435
:100E40003A00704D763A00634D763A006469663A2E
:100E500000634E543A00636D763A000000000024AF
:100E60000027002A0000000008000201000003041F
:100E7000070000000000000000FFE0FFD1AFFF32DC
:100E8000FFD0FFFEFFE0FFD1AEFFD0FFFEFFE0FF8F
:100E9000D11000FFFEFFD0FFE0FFC1FFD1AED58033
:100EA000A83FD300408D142000A1C8DA1281CFD909
:100EB000F1DB402EA4A6AFFFD0FFFE00000000250E
:100EC0000028002B00000000002300260029000459
:100ED00004040404040404020202020202030303E1
:100EE00003030301020408102040800102040810DB
:100EF00020010204081020001028002711241FBE22
:100F0000CFEFD8E0DEBFCDBF12E0A0E0B1E0E4EA71
:100F1000F7E602C005900D92A032B107D9F725E09F
:100F2000A0E2B2E001C01D92AB30B207E1F717E0DA
:100F3000CDE7D7E004C02197FE010E94F229CC370B
:100F4000D107C9F70E9496200C94C5330C94000079
:100F5000FC0187819085009711F00C94402D089535
:100F60002F923F924F925F926F927F928F929F92B9
:100F7000AF92BF92CF92DF92EF92FF920F931F93A7
:100F8000CF93DF931F92CDB7DEB71C01A62EDC01F5
:100F9000DC96BC90DC97DB96EC906C01B4E0CB0E59
:100FA000D11CDC015996ED91FC915A97C601099527
:100FB000F82EF10100851185C8010E94331A982E80
:100FC000D10118968D919C9119970E94361A682E1E
:100FD000B1E09B1203C02FE0922E02C099249A9494
:100FE000F101808591850E94291A882ED1011896D9
:100FF0008D919C9119970E94251A782EF101808578
:1010000091850E942D1AF0E6FA1538F4009729F020
:10101000080F191F91E6892E13C0D10118968D91E2
:101020009C9119970E94301AB0E4BA1538F40097D1
:1010300029F0080F191F81E4882E02C00F5E1F4F90
:101040007A1438F4F101148A178A108E158A168AD8
:101050009EC07814B8F3262D30E0F80184918F3FBC
:1010600019F40F5F1F4F5AC08A104FC0D101189654
:101070008D919C9119970E94331A98012F5F3F4FD1
:10108000F801882311F08230E1F48491D101579660
:101090008C935797F901249158962C935897F801FF
:1010A0003396E4915496EC935497F8013496E49176
:1010B0005596EC935597F8013596E4915696EC9336
:1010C00020C08491982F9F709250D10156969C9386
:1010D000569782958F7055968C935597F901249168
:1010E000822F8F7058968C93589722952F70579611
:1010F0002C935797F8013296E491E295EF7054964D
:10110000EC930115110579F442C0F8013296E4918F
:10111000E921C9018E0F911D080F191F871409F4C9
:1011200091CF83949ACFF101808591850E94361AE0
:10113000D10157963C91579758962C9158975596B0
:101140005C915597B21A56969C915697B91AFB0C1A
:101150009FEF920F9F0DD8964C91D897DA966C918D
:101160006F1518F0941728F402C0941768F09F15B3
:1011700058F4E50E9FEF930F9E0DF10147A951AD75
:101180005E1538F4941738F4F10184893FC080E08B
:101190003DC0941710F49E15B8F7080F111D395F64
:1011A000532E5694569456944F2C420E4101F0E221
:1011B0008F0E911C652C712CF41431F35E2D5801A7
:1011C0008A2D801B8515F0F4F5018491D1011696C6
:1011D0006D917C91179790965C9390979196FC9265
:1011E000919793961C92939792968C9394014BE3CC
:1011F000C60159830E94B719BFEFAB1ABB0A5981C8
:10120000585FDECF060D171DF394D6CFD101DB96C4
:101210002C91DB97082E000C990B820F911DDB9609
:101220008C9381E090E00F90DF91CF911F910F910F
:10123000FF90EF90DF90CF90BF90AF909F908F90F6
:101240007F906F905F904F903F902F900895CF9335
:10125000DF93FC016181662379F0EC0170E080E0AE
:1012600090E00E9400329B01AC016B817C818D81FA
:101270009E810E946C2A04C060E070E080EC9FE7D1
:10128000DF91CF910895AF92BF92CF92DF92EF920C
:10129000FF920F931F93CF93DF93FC01A780B0843D
:1012A000A114B10409F462C06A017B01EC018281DE
:1012B0008501F4E08F9F000D111D1124F80120819C
:1012C0003181428153816B817C818D819E810E941D
:1012D000FF296B837C838D839E83F801C082D1823A
:1012E000E282F3821A81F50184E0189FE00DF11D7E
:1012F000112420813181428153816B817C818D81D8
:101300009E810E94002A6B837C838D839E831F5F56
:101310001A83B8801B1101C01A821981111105C0EE
:10132000CD86DE86EF86F88A0AC029853A854B8508
:101330005C85C701B6010E94F93187FF05C0C986E7
:10134000DA86EB86FC860EC02D853E854F85588952
:10135000C701B6010E94142B181624F4CD86DE8630
:10136000EF86F88A1B1510F41F5F1983DF91CF9168
:101370001F910F91FF90EF90DF90CF90BF90AF90B3
:101380000895CF93DF93EC01688324E0629FC0014E
:1013900011240E94AB2C98878F83009709F4188240
:1013A00019821A821B821C821D821E8240E050E03C
:1013B00060EC7FE749875A876B877C874D875E871C
:1013C0006F87788B2881FC0180E0821731F01192C1
:1013D0001192119211928F5FF8CFDF91CF91089502
:1013E000EF92FF920F931F93CF93DF9300D0CDB76F
:1013F000DEB78C017B01FB0160819A838983CE017A
:1014000001960E948513F70161810F5F1F4F1A83B8
:101410000983CE0101960E948513C7010F900F909A
:10142000DF91CF911F910F91FF90EF9008950F934F
:101430001F93CF93DF9300D0CDB7DEB78B01FB01B5
:1014400060819A838983CE0101960E948513C80129
:101450000F900F90DF91CF911F910F910895AF9250
:10146000BF92CF92DF92EF92FF920F931F93CF9391
:10147000DF9300D0CDB7DEB78B016B0124E0C20E45
:10148000D11C7B015C01A61AB70A95012E0D3F1DE8
:10149000F70161917F013A832983CE0101960E9471
:1014A0008513EC14FD0489F7C8010F900F90DF91AC
:1014B000CF911F910F91FF90EF90DF90CF90BF9051
:1014C000AF900895CF92DF92EF92FF920F931F9308
:1014D000CF93DF93EB017B0124E0E20EF11C8B0143
:1014E0006C01C61AD70AC601800F911F0E941D33D6
:1014F000F80181938F01EE15FF05A9F7CE01DF9169
:10150000CF911F910F91FF90EF90DF90CF900895B2
:101510000F931F93CF93DF938C01EB010E941D3338
:101520008883C80101960E941D338983CE01DF9113
:10153000CF911F910F9108958F929F92AF92BF927A
:10154000CF92DF92EF92FF920F931F93CF93482F8A
:10155000C62F262F30E0A8EEB3E00E94B6334B0131
:101560005C0182EF840F4E3008F0482F47704064D2
:10157000C12CD12C760160E070E0CB01C814D904F5
:10158000EA04FB04F9F040937C0020917A00206487
:1015900020937A0020917A0026FDFCCF20917800DC
:1015A0005091790030E0352B8901330F220B330B3A
:1015B000600F711F821F931F2FEFC21AD20AE20A17
:1015C000F20ADCCF0E94FE316B017C0128EE33E091
:1015D000C29FC001C39F900D1124BC01990F880BBD
:1015E000990B0E9400329B01AC01C701B6010E9419
:1015F0006C2ACF911F910F91FF90EF90DF90CF90C9
:10160000BF90AF909F908F9008952F923F924F92EE
:101610005F926F927F928F929F92AF92BF92CF9282
:10162000DF92EF92FF920F931F93CF93DF931F925E
:10163000CDB7DEB781E08093CE039091E70391119F
:1016400006C08093E7038EEA93E00E94BB19609185
:10165000B0037091B1038FEF89839E012F5F3F4FDD
:101660004FE08EEA93E00E94B7198091E703811161
:1016700007C081E08093E7038EEA93E00E94BB19E4
:101680000091B0031091B103E091DF03F091E0030A
:1016900082E00995E091DF03F091E00381E0099594
:1016A00020E030E044E1B8018EEA93E00E94B719EF
:1016B00021EE33E047E1B8018EEA93E00E94B719CA
:1016C000E091DF03F091E00380E009951FE287E0FD
:1016D000382E96E4292E20E8422E2EEE522E26E3B6
:1016E000622E712C30E6832E3AEE932EA12CB12C73
:1016F00080910301813019F48BE699E002C08AECF5
:1017000092E00E944920409125025091260260916A
:10171000270270912802483E23E0520761057105B7
:1017200014F085E001C081E28093E5031093E603A5
:10173000413187E2580761057105ACF0CB01BA0170
:1017400028EE33E040E050E00E943333BA01A901B3
:101750008AEA93E00E94051F6CE771E08AEA93E051
:101760000E94C91709C0141615061606170624F498
:101770008AEA93E00E94051F8BE699E00E944920C7
:101780001092E5033092E60360910001709101012F
:101790008AEA93E00E94C9178091A70281111EC0B6
:1017A0002092E5033092E60360EC72E08AEA93E06F
:1017B0000E94CB178091250290912602A0912702CA
:1017C000B0912802892B8A2B8B2B41F40E942E1971
:1017D000613A7F408105910508F048C0E091BC0363
:1017E000F091BD03309719F08EEA93E00995E090EF
:1017F000B003F090B103E091DF03F091E00382E0E9
:101800000995E091DF03F091E00381E0099520E084
:1018100030E045E1B7018EEA93E00E94B719082F46
:10182000882341F021EE33E047E1B7018EEA93E0EF
:101830000E94B719E091DF03F091E00380E0099581
:10184000011156CF0F90DF91CF911F910F91FF9013
:10185000EF90DF90CF90BF90AF909F908F907F9050
:101860006F905F904F903F902F9008950E942E1997
:101870006B017C018AEC92E00E9449201092E50302
:101880001093E603C301B2016C197D098E099F090B
:10189000A50194010E949433BA01A9012AE08AEAC1
:1018A00093E00E9475178BE699E00E94492084E638
:1018B0008093E5031093E6036CEB72E08AEA93E011
:1018C0000E94CB178BCFAF92BF92CF92DF92EF9255
:1018D000FF920F931F93CF93DF9300D0CDB7DEB766
:1018E000C0902502D0902602E0902702F0902802B6
:1018F000C114D104E104F10409F472C02FEFC2163F
:10190000D206E206F206A9F44091020450910304C3
:1019100060E070E080910604909107040E94B02E70
:101920004FEF50E060E070E080E090E00E94F81D32
:1019300055C081E7C81687E1D806E104F104E0F458
:1019400090E1A92EB12C10E0BE016F5F7F4FC50161
:101950000E94880A89819A81092E000CAA0BBB0B70
:10196000C816D906EA06FB0640F01F5F22E0A20E69
:10197000B11C153049F701C011E08091250290910A
:101980002602A0912702B091280281379741A10534
:10199000B10558F484E0189FF0011124E851FC4F80
:1019A000C080D180E280F38004C0C12CD12C7601AC
:1019B000CA9400E0B701A601802F90E00E94F81DB4
:1019C0000F5F1017B8F7063048F440E050E0BA0156
:1019D000802F90E00E94F81D0F5FF5CF0E94471EF8
:1019E0000F900F90DF91CF911F910F91FF90EF908B
:1019F000DF90CF90BF90AF900895CF92DF92EF929B
:101A0000FF920F931F93CF93DF93C090AC02D090BF
:101A1000AD02E090AE02F090AF020E942E19DC0100
:101A2000CB018C199D09AE09BF09893E9340A105E0
:101A3000B10508F4AAC00E942E196093AC027093FD
:101A4000AD028093AE029093AF020E94630CC090EF
:101A5000A802D090A902E090AA02F090AB020E94E6
:101A60002E19DC01CB018C199D09AE09BF0981310A
:101A70009742A105B10508F488C00E942E19609311
:101A8000A8027093A9028093AA029093AB0280915E
:101A900024028F3F09F069C061E08EE090E00E946F
:101AA0009C0AAB01BC0183E494E00E9443098BE3F0
:101AB00090E00E941D33813019F0C8EED3E002C0DF
:101AC000C0E9D1E083E494E00E9427096B017C0126
:101AD00087EB90E00E941D338F3F79F0682F70E014
:101AE00080E090E00E94003220E030E040E251E4EB
:101AF0000E946C2A9B01AC0104C020E030E040E869
:101B00005FE3C701B6010E945F320E94DE2A6B309C
:101B100071053CF4662319F06093030128C081E04D
:101B200024C09B01C617D7070CF49E01C901330FCF
:101B3000AA0BBB0B9C01AD012B5031094109510986
:101B4000ADE6B0E00E9452338E01DD0F220B330B65
:101B5000A90198012B503109410951090E943333E1
:101B6000DA01C9010B96A11DB11D8093030180917B
:101B700003010E940820DF91CF911F910F91FF90E8
:101B8000EF90DF90CF900C94471EDF91CF911F9183
:101B90000F91FF90EF90DF90CF9008953F924F927A
:101BA0005F926F927F928F929F92AF92BF92CF92ED
:101BB000DF92EF92FF920F931F93CF93DF938C01ED
:101BC0000E9427092B013C01D80111963C90C0E0EE
:101BD000D0E0C12CD12C7601C315B8F5D8011796E9
:101BE000ED91FC911897CE01880F991F880F991FCE
:101BF000E80FF91F80809180A280B380A501940135
:101C0000C501B4010E94C12B81111FC0A50194011F
:101C1000C301B2010E94FF290E94DE2A9B0177FFC7
:101C200004C022273327261B370BB901330F880B3B
:101C3000990B0E9400329B01AC01C701B6010E94C2
:101C4000002A6B017C012196C7CFC701B601DF9145
:101C5000CF911F910F91FF90EF90DF90CF90BF90A9
:101C6000AF909F908F907F906F905F904F903F903C
:101C700008956FE771E08DE093E00E94C9178DE051
:101C800093E00E94BE1710922E0410922D04109221
:101C90002C0410922B0410922A04109229048DE92E
:101CA00091E09093300480932F0490911F0496311B
:101CB00008F057C02DEB30E030932A04209329041C
:101CC0002BE931E030932C0420932B042CE231E0FB
:101CD00030932E0420932D0420916800983050F00A
:101CE00031E09E3008F430E081E001C0880F3A9581
:101CF000EAF701C084E0822B80936800983038F0C6
:101D00009E3040F0963148F020E030E008C02DE6EB
:101D100030E005C02BE630E002C02CE630E0309326
:101D2000270420932604983030F481E001C0880F06
:101D30009A95EAF70EC0292F30E09E3018F428500B
:101D4000310902C02E50310981E001C0880F2A9567
:101D5000EAF78093280480912F0490913004019732
:101D6000F1F780912D0490912E04892B21F180911F
:101D7000CB029091CC0224E083319207E1F00097EE
:101D800011F00E94E21D809131048E7F8093310416
:101D90001092C9021092CA0283E194E09093CC029F
:101DA0008093CB02E0912604F091270490818091EA
:101DB0002804892B808361E082E00E94931861E00F
:101DC00082E00E94471881E08093A00210923602C0
:101DD0000E942E1960939C0270939D0280939E0234
:101DE00090939F020895BF92CF92DF92EF92FF925D
:101DF0000F931F93CF93DF93CDB7DEB728970FB61E
:101E0000F894DEBF0FBECDBF7C0162E172E0CE016F
:101E100001960E946017F7018081843629F48FE5CE
:101E200091E00E94F30E4CC0B12C6701F7012081B4
:101E3000822F022E000C990BC0970A97D8F42F839B
:101E400018860D811E810F5F1F4FB801CE010196CC
:101E50000E94C916882349F129813A818D819E818A
:101E6000BE01695F7F4F820F931F0E94B72E1E83B2
:101E70000D831BC089819A810E94873198878F8347
:101E800011E01B0D8B2D90E00896BE01695F7F4F1E
:101E9000880F991F0E94F00940E050E062E172E073
:101EA000CE0101960E940217B12EFFEFEF1AFF0A32
:101EB000F6018081882321F0F4E0FB1508F0B5CF0E
:101EC000CE0101960E94231728960FB6F894DEBF24
:101ED0000FBECDBFDF91CF911F910F91FF90EF907B
:101EE000DF90CF90BF900895CF92DF92EF92FF9254
:101EF0000F931F93CF93DF936C018B010E942E19D8
:101F00000D2C000CEE08FF08C60ED71EE81EF91EA9
:101F1000C0E00E942E196C157D058E059F0548F5C1
:101F2000D801ED91FC910480F581E02DC80109955F
:101F3000892B79F3D1E0DC0FD801ED91FC9106807B
:101F4000F781E02DC8010995EC2FF0E0E85CFD4F2A
:101F50008083ED2FF0E0E95CFD4F80818D3029F02A
:101F6000D33631F08A3011F404C0DC2FCD2FD1CF1D
:101F7000C3E6EC2FF0E0E85CFD4F10828C2FDF9180
:101F8000CF911F910F91FF90EF90DF90CF90089528
:101F90006DE871E08DE093E00E94C9178DE093E059
:101FA0000E94BE1783E194E00E94E21D61E082E09E
:101FB0000E94931860E082E00E9447181092A002ED
:101FC00008950E94C80F68EE73E080E090E00E94E0
:101FD000F4180C94390E61E372E088E090E00E94FE
:101FE0002F0A69E272E08AEB90E00E942F0A80914A
:101FF000310290913202A0913302B0913402809369
:102000002D0290932E02A0932F02B0933002809164
:10201000290290912A02A0912B02B0912C02809368
:10202000200290932102A0932202B09323021092E7
:102030003102109232021092330210923402109246
:10204000290210922A0210922B0210922C0208955B
:102050008F929F92AF92BF92CF92DF92EF92FF92B8
:102060000F931F93CF93DF93C090B802D090B90223
:10207000E090BA02F090BB020E942E19DC01CB0165
:102080008C199D09AE09BF0989399A43A105B1058B
:1020900008F4D4C10E942E196093B8027093B9025B
:1020A0008093BA029093BB026AE081E190E00E94C3
:1020B0009C0A9B01AC0160E070EC8FE794E40E9405
:1020C000FF292DEC3CEC44EA50E40E945F3220E012
:1020D00030E040E85AE30E945F326B017C0120E06F
:1020E00030E040E251E40E945F324B015C01A70105
:1020F00096016DEC7CEC84EA90E40E94FF299B0140
:10210000AC01C501B4010E946C2A20E030E04AE72E
:1021100054E40E945F3220E030E44CE156E40E9437
:102120006C2A0E94292B20E030E443E555E40E940C
:102130006C2A2FE03FEC4BE55BE30E94002A9B01F9
:10214000AC0160E070E080E89FE30E946C2A23E32A
:1021500033E948E853E40E94FF29AB01BC0184E560
:1021600094E00E9443096AE080E190E00E949C0AAA
:102170002DEC3CEC44EA50E40E945F3220E030E079
:1021800040E85AE30E945F3226E636E646EB50E42A
:102190000E946C2A20E030E04AE754E40E945F325B
:1021A0008B01D82FC92FC0902002D0902102E0903F
:1021B0002202F090230220E030E040E85FE3C70114
:1021C000B6010E94142B181644F0C0902902D0903A
:1021D0002A02E0902B02F0902C0220E030E040E850
:1021E0005FE3C701B6010E94F93187FD3DC084E578
:1021F00094E00E9427099B01AC01C701B6010E942F
:10220000FF296B017C0120E030E040E850E40E94AF
:10221000142B18168CF020E030E040E850ECC70199
:10222000B6010E94F93187FF0DC0C12CD12C90E876
:10223000E92E90ECF92E06C0C12CD12C80E8E82EB6
:1022400080E4F82E26E636E646EE5EE3C701B601E8
:102250000E945F329B01AC01B8018D2F9C2F0E9420
:10226000002A362F272F04C0302F212F8D2F9C2F8F
:10227000432F522FBC0186E794E00E944309A80136
:102280006D2F7C2F85E694E00E9443098091A70280
:10229000811107C00E942E1961387E4E8643910538
:1022A00000F1C0903102D0903202E0903302F09001
:1022B000340220E030E0A901C701B6010E94F931E3
:1022C000882309F4A2C086E794E00E942709A701A9
:1022D00096010E94142B18160CF47FC081E08093A5
:1022E000A70280910201C82FD0E0C0902D02D090AB
:1022F0002E02E0902F02F090300220E030E040E823
:102300005FE3C701B6010E94142B181644F0C09079
:102310003102D0903202E0903302F090340286E72E
:1023200094E00E9427099B01AC01C701B6010E94FD
:10233000FF296B017C01BE01DD0F880B990B0E9408
:1023400000329B01AC01C701B6010E946C2A27E252
:1023500038E846E250E40E94002A9B01AC0160E0AC
:1023600070E080E291E40E94712B0E94DE2A60936B
:102370002502709326028093270290932802C09032
:10238000B402D090B502E090B602F090B7020E947D
:102390002E19DC01CB018C199D09AE09BF098130D2
:1023A0009441A347BF4008F449C00E942E1960938E
:1023B000B4027093B5028093B6029093B702DF9196
:1023C000CF911F910F91FF90EF90DF90CF90BF9032
:1023D000AF909F908F900C94EB0F86E794E00E9453
:1023E000CE0D2FE832EC45E75DE30E94F93187FF1F
:1023F00075CF84E594E00E94CE0D2FE832EC45E7DE
:102400005DE30E94F93187FF69CF86E794E00E947F
:1024100027096093310270933202809333029093C4
:10242000340284E594E00E942709609329027093A6
:102430002A0280932B0290932C0250CFDF91CF91F0
:102440001F910F91FF90EF90DF90CF90BF90AF90D2
:102450009F908F900895CF92DF92EF92FF9280919C
:10246000A0028823A9F0C0909C02D0909D02E09029
:102470009E02F0909F020E942E19DC01CB018C1964
:102480009D09AE09BF0989399A43A105B10530F00C
:10249000FF90EF90DF90CF900C942810FF90EF907A
:1024A000DF90CF900895CF92DF92EF92FF92CF937B
:1024B000C090B002D090B102E090B202F090B302AE
:1024C0000E942E19DC01CB018C199D09AE09BF09B0
:1024D00089389341A105B10508F411C10E942E1954
:1024E0006093B0027093B1028093B2029093B302F2
:1024F00086E794E00E9427096B017C0166E57EE097
:102500008DE093E00E94CB17C701B6010E94371FF0
:102510008DE093E00E94BE1785E694E00E942709B3
:102520006B017C0161E57EE08DE093E00E94CB17BA
:10253000C701B6010E94371F8DE093E00E94BE17CD
:1025400085E694E00E9427096B017C0186E794E010
:102550000E9427099B01AC01C701B6010E94FF2917
:102560006B017C016CE47EE08DE093E00E94CB1770
:10257000C701B6010E94371F8DE093E00E94BE178D
:10258000C0903102D0903202E0903302F0903402D9
:1025900067E47EE08DE093E00E94CB17C701B601AF
:1025A0000E94371F8DE093E00E94BE17C0902D025D
:1025B000D0902E02E0902F02F090300262E47EE094
:1025C0008DE093E00E94CB17C701B6010E94371F30
:1025D0008DE093E00E94BE17C0902902D0902A029D
:1025E000E0902B02F0902C026DE37EE08DE093E012
:1025F0000E94CB17C701B6010E94371F8DE093E000
:102600000E94BE17C0902002D0902102E0902202CA
:10261000F090230268E37EE08DE093E00E94CB1708
:10262000C701B6010E94371F8DE093E00E94BE17DC
:1026300084E594E00E9427096B017C0163E37EE05E
:102640008DE093E00E94CB17C701B6010E94371FAF
:102650008DE093E00E94BE170E942E196B017C0151
:102660006EE27EE08DE093E00E94CB17C701B601D9
:1026700020E63AEE40E050E00E949433BA01A9010E
:102680002AE08DE093E00E9475178DE093E00E94B0
:10269000BE17C0902502D0902602E0902702F0904D
:1026A000280269E27EE08DE093E00E94CB17B7013B
:1026B000A6018DE093E00E94051F8DE093E00E944B
:1026C000BE17C09103016BE17EE08DE093E00E94B4
:1026D000CB174C2F50E060E070E02AE08DE093E0F3
:1026E0000E9475178DE093E00E94BE178DE093E085
:1026F000CF91FF90EF90DF90CF900C94BE17CF91C9
:10270000FF90EF90DF90CF900895EF92FF920F939C
:102710001F93CF93DF931F92CDB7DEB77C01FC01EF
:1027200000811181C80169830E941D336981681786
:1027300019F0C8010E942533C7010F90DF91CF9196
:102740001F910F91FF90EF9008956115710579F039
:10275000FB0101900020E9F73197AF01461B570BB1
:10276000DC01ED91FC910280F381E02D099480E081
:1027700090E008954F925F926F927F928F929F9216
:10278000AF92BF92CF92DF92EF92FF920F931F937F
:10279000CF93DF93CDB7DEB7C058D1090FB6F89409
:1027A000DEBF0FBECDBF8091250290912602A09181
:1027B0002702B0912802A9968CAF9DAFAEAFBFAFF4
:1027C000A997892B8A2B8B2B09F415C183E494E0FC
:1027D0000E942709C358DF4F688379838A839B83CC
:1027E000CD57D04084E594E00E9427092B013C019D
:1027F0000E94DE2AAD966CAF7DAF8EAF9FAFAD97D6
:102800008091310290913202A0913302B091340252
:10281000ED968CAF9DAFAEAFBFAFED97BC01CD01D4
:102820000E94DE2AE1966CAF7DAF8EAF9FAFE1973D
:1028300086E794E00E9427094B015C010E94DE2A92
:10284000E5966CAF7DAF8EAF9FAFE59785E694E0E0
:102850000E9427096B017C010E94DE2AE9966CAF79
:102860007DAF8EAF9FAFE997C358DF4F6881798105
:102870008A819B81CD57D0400E94DE2A7F936F933F
:10288000AB96AEADBFADAB97BD01BB0F880B990B3F
:102890000E9400329B01AC01C301B2010E94FF29DA
:1028A00020E030E048EC52E40E945F320E94DE2AD1
:1028B0007F936F93AB96BFADAB97BF93AA962FADA7
:1028C000AA972F93AF96AEADBFADAF97BD01BB0F2B
:1028D000880B990B0E9400329B01AC01ED966CAD08
:1028E0007DAD8EAD9FADED970E94FF2920E030E0D9
:1028F00048EC52E40E945F320E94DE2A7F936F937D
:10290000AF96BFADAF97BF93AE962FADAE972F9357
:10291000E396AEADBFADE397BD01BB0F880B990B3E
:102920000E9400329B01AC01C501B4010E94FF2945
:1029300020E030E048EC52E40E945F320E94DE2A40
:102940007F936F93E396BFADE397BF93E2962FAD6E
:10295000E2972F93E796AEADBFADE797BD01BB0FF2
:10296000880B990B0E9400329B01AC01C701B60194
:102970000E94FF2920E030E048EC52E40E945F32E0
:102980000E94DE2A7F936F93E796BFADE797BF93D0
:10299000E6962FADE6972F93A9963FADA9973F9363
:1029A000A8968FADA8978F93A7969FADA7979F9353
:1029B000A696AFADA697AF9387EC91E09F938F93C8
:1029C0008E010F5F1F4F1F930F930E94E62E0E94F0
:1029D0002E1960939C0270939D0280939E029093A7
:1029E0009F02B80183E194E00E94A5130FB6F8940A
:1029F000DEBF0FBECDBFC058DF4F0FB6F894DEBFAD
:102A00000FBECDBFDF91CF911F910F91FF90EF903F
:102A1000DF90CF90BF90AF909F908F907F906F90FE
:102A20005F904F900895CF92DF92EF92FF920F93B5
:102A30001F93CF93DF9300D0CDB7DEB780913702DD
:102A4000882309F450C08091250290912602A0911C
:102A50002702B0912802892B8A2B8B2B09F443C0C3
:102A6000BE016F5F7F4F85EB90E00E94880A8981ED
:102A70009A81029724F488E790E09A8389830981F8
:102A80001A81C090BC02D090BD02E090BE02F090CE
:102A9000BF020E942E199B01AC012C193D094E0961
:102AA0005F0969017A0128EE33E0D8010E94F82914
:102AB0006C157D058E059F05B0F48091A0028823DA
:102AC00019F00E94BA1305C00E94E10F81E08093C3
:102AD00035020E942E196093BC027093BD02809350
:102AE000BE029093BF020F900F90DF91CF911F9184
:102AF0000F91FF90EF90DF90CF900895CF92DF92EB
:102B0000EF92FF920F931F93CF93DF936C017A01A3
:102B10008B01C0E0D0E0CE15DF0589F0D8016D91C2
:102B20008D01D601ED91FC910190F081E02DC6015F
:102B30000995892B11F47E0102C02196ECCFC701C3
:102B4000DF91CF911F910F91FF90EF90DF90CF9089
:102B50000895FC01918D828D981761F0828DDF01BF
:102B6000A80FB11D5D968C91928D9F5F9F73928F80
:102B700090E008958FEF9FEF0895FC01918D828D75
:102B8000981731F0828DE80FF11D858D90E0089542
:102B90008FEF9FEF0895FC01918D228D892F90E09A
:102BA000805C9F4F821B91098F73992708958DE058
:102BB00093E00E94CB1521E0892B09F420E0822FBD
:102BC0000895FC01848DDF01A80FB11DA35ABF4FEA
:102BD0002C91848D90E001968F739927848FA6891C
:102BE000B7892C93A089B1898C9180648C93938D43
:102BF000848D981306C00288F389E02D80818F7D33
:102C000080830895EF92FF920F931F93CF93DF93EA
:102C1000EC0181E0888F9B8D8C8D981305C0E8892D
:102C2000F989808185FD24C0F62E0B8D10E00F5FA1
:102C30001F4F0F731127E02E8C8DE8120CC00FB6BA
:102C400007FCFACFE889F989808185FFF5CFCE01AD
:102C50000E94E115F1CF8B8DFE01E80FF11DE35AC3
:102C6000FF4FF0820B8FEA89FB898081806207C069
:102C7000EE89FF896083E889F98980818064808397
:102C800081E090E0DF91CF911F910F91FF90EF9045
:102C90000895CF93DF93EC01888D8823C9F0EA89EA
:102CA000FB89808185FD05C0A889B9898C9186FD45
:102CB0000FC00FB607FCF5CF808185FFF2CFA88942
:102CC000B9898C9185FFEDCFCE010E94E115E7CF48
:102CD000DF91CF91089580E090E0892B29F00E9448
:102CE000D71581110C94000008950895DC01169603
:102CF000ED91FC91179712968C91481B477081E0DB
:102D000090E001C0880F4A95EAF7E60FF11D308187
:102D1000222311F0832B02C08095832380830895A2
:102D200080E008950E94A22ECF93DF93FC012481BE
:102D30003581232B71F0FB01DC01CD91DC916081A9
:102D40007181CE010E94CC2E009719F08C1B9D0B37
:102D500002C08FEF9FEFDF91CF910895FB01448177
:102D60005581FC01248135812417350778F0808155
:102D70009181009759F0FB016081718161157105A6
:102D800029F00E94BE2E21E0892B09F020E0822F3D
:102D900008950F931F93CF93DF93EC01888199815E
:102DA000009729F02A813B812617370788F48B0189
:102DB0006F5F7F4F0E94D82D009761F099838883C1
:102DC0001B830A832C813D81232B11F4FC0110828B
:102DD00081E001C080E0DF91CF911F910F910895B4
:102DE000CF93DF93EC0188819981009711F00E94C5
:102DF000402D198218821D821C821B821A82DF914B
:102E0000CF910895EF92FF920F931F93CF93DF938B
:102E1000EC017B018A01BA010E94C916811104C02C
:102E2000CE010E94F01607C01D830C83B701888174
:102E300099810E94B72ECE01DF91CF911F910F9102
:102E4000FF90EF900895FC01808191810C94402DBA
:102E5000EF92FF920F931F93CF93DF93EC011982B0
:102E600018821B821A821D821C826115710509F16C
:102E70008B01CB010E94D3317C01BC01CE010E94A9
:102E8000C916811109C0CE01DF91CF911F910F9119
:102E9000FF90EF900C94F016FD82EC82B8018881CF
:102EA0009981DF91CF911F910F91FF90EF900C943A
:102EB000CC31DF91CF911F910F91FF90EF9008954A
:102EC000FC01118210821382128215821482611514
:102ED000710551F0FB0101900020E9F73197AF0136
:102EE000461B570B0C94021708954F925F926F92F6
:102EF0007F92EF92FF920F931F93CF93DF93CDB703
:102F0000DEB7A1970FB6F894DEBF0FBECDBF7C0130
:102F1000FA01CB0119A2223008F42AE08E010F5DDC
:102F20001F4F422E512C612C712CBF01A301920125
:102F30000E949433F901CA01015011096A3014F456
:102F4000605D01C0695CD8016C93232B242B252B79
:102F500061F7B801C7010E94A513A1960FB6F894B6
:102F6000DEBF0FBECDBFDF91CF911F910F91FF90BC
:102F7000EF907F906F905F904F90089560E172E0C6
:102F80000C94A513DC01ED91FC910190F081E02DF2
:102F900009940C94A513EF92FF920F931F93CF9374
:102FA000DF938C017B01C0E0D0E0F701EC0FFD1F47
:102FB0006491662361F0D801ED91FC910190F0815C
:102FC000E02DC8010995892B11F02196EECFCE0195
:102FD000DF91CF911F910F91FF90EF9008951F9275
:102FE0000F920FB60F9211242F933F934F935F933D
:102FF0006F937F938F939F93AF93BF93EF93FF93C1
:103000008DE093E00E94E115FF91EF91BF91AF91A8
:103010009F918F917F916F915F914F913F912F91F0
:103020000F900FBE0F901F9018951F920F920FB622
:103030000F9211242F938F939F93EF93FF93E0911F
:103040001D03F0911E038081E0912303F09124037E
:1030500082FD12C09081809126038F5F8F73209133
:103060002703821751F0E0912603F0E0E35FFC4F65
:10307000958F8093260301C08081FF91EF919F91EE
:103080008F912F910F900FBE0F901F90189590E089
:10309000FC01EB59F14F3491FC01ED51F14F2491BA
:1030A000FC01E153F14FE491EE2309F43BC03323DB
:1030B00039F1333091F038F43130A9F0323001F584
:1030C00084B58F7D12C0373091F03830A1F03430A4
:1030D000B9F4809180008F7D03C0809180008F774C
:1030E000809380000DC084B58F7784BD09C0809126
:1030F000B0008F7703C08091B0008F7D8093B000C7
:10310000F0E0EE0FFF1FE554F14FA591B4918FB79A
:10311000F894EC91611103C020952E2301C02E2B51
:103120002C938FBF0895CF93DF9390E0FC01ED5176
:10313000F14F2491FC01E153F14F8491882361F117
:1031400090E0880F991FFC01E55AF14FC591D49189
:10315000FC01E554F14FA591B491611109C09FB7ED
:10316000F8948881209582238883EC912E230BC0CC
:10317000623061F49FB7F8943881822F8095832361
:103180008883EC912E2B2C939FBF06C08FB7F894A9
:10319000E8812E2B28838FBFDF91CF9108953FB711
:1031A000F8948091C5029091C602A091C702B09197
:1031B000C80226B5A89B05C02F3F19F00196A11D96
:1031C000B11D3FBFBA2FA92F982F8827820F911DBD
:1031D000A11DB11DBC01CD0142E0660F771F881F04
:1031E000991F4A95D1F708958F929F92AF92BF92FF
:1031F000CF92DF92EF92FF926B017C010E94CF1879
:103200004B015C01C114D104E104F104F1F00E940E
:10321000CF18DC01CB0188199909AA09BB09883E9E
:103220009340A105B10570F321E0C21AD108E1086D
:10323000F10888EE880E83E0981EA11CB11CC11411
:10324000D104E104F10419F7DDCFFF90EF90DF9096
:10325000CF90BF90AF909F908F9008952FB7F89424
:103260006091C1027091C2028091C3029091C40228
:103270002FBF08951F920F920FB60F9211242F9314
:103280003F938F939F93AF93BF938091C10290918F
:10329000C202A091C302B091C4023091C00223E0E7
:1032A000230F2D3720F40196A11DB11D05C026E87E
:1032B000230F0296A11DB11D2093C0028093C1026D
:1032C0009093C202A093C302B093C4028091C5023E
:1032D0009091C602A091C702B091C8020196A11DAB
:1032E000B11D8093C5029093C602A093C702B0930C
:1032F000C802BF91AF919F918F913F912F910F90F5
:103300000FBE0F901F901895FB014181DC011296B2
:103310002C911297421768F013962C91139724174B
:1033200040F0608115962C91621718F424810C945A
:1033300076160895FC0180819281980F92832181F5
:10334000921760F494819F5F94839381890F821711
:1033500010F08FEF820F838381E0089580E008955D
:10336000FC01128280818150838314820895DB01E5
:10337000ED91FC910994EF92FF920F931F93CF93DD
:10338000DF931F92CDB7DEB78C01DC011296ED9072
:10339000FC901397D196ED91FC91D29782E009951C
:1033A00020E030E04AE0B701C8010E94B719F82ECA
:1033B000D801D196ED91FC91D29783E00995D8017F
:1033C000D196ED91FC91D29780E00995FF20A1F173
:1033D000F801628173819E012F5F3F4F46E4C8016F
:1033E0000E94B7198981D8018C9312966D917C91B6
:1033F00013979E012F5F3F4F47E4C8010E94B71902
:103400008981F80181836281738120E030E048E4A2
:10341000C8010E94B719D8011B968C931B9798017D
:103420002D5C3F4F12966D917C91139747E1C80137
:103430000E94B71981E001C080E00F90DF91CF9129
:103440001F910F91FF90EF9008950B96FC018491CE
:1034500008950A96FC018491089568E00C945C1D1F
:1034600066E00C945C1DFC01849108950E94331A5F
:10347000882321F0823011F083E0089586E00895DA
:103480002EE93FE0009729F0F9013197F1F7019714
:10349000F9CF08958EBD0DB407FEFDCF8EB508950A
:1034A000DB011496ED91FC91159720E030E065E08A
:1034B0000994DB011496ED91FC91159720E030E022
:1034C00062E00994DB011496ED91FC91159720E0E0
:1034D00030E063E00994CF92DF92EF92FF920F9376
:1034E0001F93CF93DF938C017B016A0180E0F6018B
:1034F000C49181110BC0CF3F09F44CC04C2FB701D0
:10350000C8010E94501A811143C049C0CF3F11F435
:103510004FEFF5CFCE3F09F444C0C03FC8F5C03EE1
:1035200038F04C2F4F70B701C8010E94591A30C0B3
:10353000C03D38F04C2F4F70B701C8010E94621A8D
:1035400027C0C03CF8F0D7011496ED91FC91159777
:1035500020E030E040E064E0C8010995C295C07FFA
:10356000CE5FD0E0CE010E94401AD7011496ED91B3
:10357000FC91159720E030E041E064E0C801099536
:10358000CE0104C0C7FD04C08C2F90E00E94401AF9
:1035900080E001C081E0BFEFCB1ADB0AA8CF80E05A
:1035A00001C081E0DF91CF911F910F91FF90EF90CB
:1035B000DF90CF9008952091CB023091CC02281754
:1035C000390771F49091CA028091C902981741F0AD
:1035D000E091CA02F0E0E353FD4F808190E008954E
:1035E0008FEF9FEF089508951F93CF93DF93DC0132
:1035F0005C962D913C915D972115310539F481E060
:1036000090E013969C938E9312973DC05196ED9146
:10361000FC91529750969C915097892F80951FB797
:103620005E964C915E9741FB772770F941FD60955E
:10363000F8944081772311F0492B01C0482340833F
:10364000E9012197F1F748E0508160FF02C0592B52
:1036500001C058235083E9012197F1F76695415045
:1036600099F7772321F090818923808303C080819B
:10367000982B90831FBF5C968D919C915D970197CD
:10368000F1F721E030E0C901DF91CF911F9108955A
:103690002091CB023091CC022817390771F4809128
:1036A000C9022091CA0290E0805C9F4F821B910961
:1036B00060E470E00E94DE29089580E090E00895C3
:1036C0002091CB023091CC0228173907B9F49091A0
:1036D000CA028091C902981789F0E091CA02F0E00D
:1036E000E353FD4F80812091CA0230E02F5F3F4FAE
:1036F0002F7333272093CA0290E008958FEF9FEF36
:1037000008958F929F92AF92BF92CF92DF92FF92D5
:103710000F931F93CF93DF9300D0CDB7DEB76C012B
:103720008B01F42E490120E1421709F467C02417E8
:1037300000F13AE0431729F18FE0481369C041E0F6
:10374000C6010E94621A40E0B801C6010E94591ADF
:1037500041E8B801C6010E94501AF4014081B80145
:10376000C6010E94501A40E0B801C6010E94621AC8
:1037700008C1A1E14A1709F444C0B5E14B1791F023
:1037800047C0DB011496ED91FC91159720E030E0E5
:1037900042E061E0099545E95EE0B801C6010E949A
:1037A0006B1A36C0FB01A280B3804DE85EE00E9438
:1037B0006B1AD50114964C91406BB801C6010E945A
:1037C000501A41E0B801C6010E94591AF50126813C
:1037D0003781D8011496ED91FC911597D501159676
:1037E0004C9166E0C6010995811102C080E0CAC013
:1037F00040E0B801C6010E94621A0AC044E85EE0D7
:1038000002C049E75EE0B801C6010E946B1AB9C068
:10381000D80112960D911C911397B2E3FB1609F48F
:1038200074C0BF15B8F0E5E1FE1609F47BC0F7E1FE
:10383000FF1609F48DC024E1F212A3C0D801169638
:10384000ED91FC91179715968C919F01280F311DD2
:10385000C90160C036E4F31609F48AC087E4F8169B
:1038600009F48AC0ABE3FA128CC0F4018181938120
:10387000913029F0933031F4482F885004C048E04B
:10388000480F01C0482F21E0D80113963C9138170A
:1038900008F420E031E0F8015281451708F430E0E7
:1038A00051E0481708F050E0822F852B382319F497
:1038B000252309F466C0D4011296FC90913051F092
:1038C00030F0923049F0933051F42FEF09C020E0EE
:1038D00031E007C021E004C020E03FEF02C020E05B
:1038E00030E0F7FE08C0B401C8012A8339830E9482
:1038F000841939812A81F4018081830F8083818139
:10390000820F8183FF0C69F73CC0B401C8010E949B
:10391000841937C01192E817F907E1F7C8010E942E
:10392000B0192FC0C8010E949A19882309F45ECFEC
:10393000D8011696ED91FC91179715968C919F01E1
:10394000280F311DC9011192E817F907E1F719C0D5
:10395000D4011C92F801828111968C931197858174
:10396000815012968C931297838113968C9309C081
:10397000D80115968C9103C0D80111968C91F40151
:10398000808381E00F900F90DF91CF911F910F9175
:10399000FF90DF90CF90BF90AF909F908F90089551
:1039A000860F911DFC0183A18F3F19F0642F0C94A9
:1039B00047180895EF92FF920F931F93CF938C01B6
:1039C000C42F7901862F90E0FC013197E730F10593
:1039D00008F06BC0EC5CFF4F0C94F229780183E295
:1039E000E80EF11C005D1F4FF70180818F3F41F011
:1039F00061E00E94931861E0F70180810E944718FE
:103A0000FFEFEF1AFF0AE016F10671F761E08DE0B3
:103A10000E94931860E08DE00E94471861E08BE0FF
:103A20000E94931860E08BE00E94471861E08AE0F2
:103A30000E94931861E08AE00E9447181CBC80E550
:103A40008CBDC23090F581E08DBD2FC061E004C017
:103A5000411106C041E062E0C8010E94D01C25C0AF
:103A600040E064E0C8010E94D01C40E0F4CFF801BF
:103A700083A18F3FD1F060E0EFCF842F0E944A1ADC
:103A800014C0CC2391F0F70181917F010E944A1A62
:103A9000C150F7CFCC2349F0F70184910E944A1A14
:103AA000FFEFEF1AFF0AC150F5CF81E0CF911F91D0
:103AB0000F91FF90EF900895FC01E60FF11D8491A6
:103AC00090E0982F88273196E4918E0F911D0895EC
:103AD0001F920F920FB60F9211242F933F934F9383
:103AE0005F936F937F938F939F93AF93BF93EF9366
:103AF000FF93E091CB02F091CC02309709F451C0D2
:103B0000968DA685B785858591FF04C09C918923F4
:103B100029F447C09C91892309F043C0A389B48943
:103B20009C918589809589238C93868997890197B3
:103B3000F1F7608D718DA685B785558538E020E059
:103B4000CB010197F1F7822F90E095958795282F6B
:103B50004C91452309F02068315091F7868D81FD05
:103B600020958091C90290E001968F73992730913A
:103B7000CA02381749F0A091C902B0E0A353BD4F63
:103B80002C938093C90203C0868D8160868F828DBD
:103B9000938D0197F1F7A389B4899C918589892B2D
:103BA0008C93FF91EF91BF91AF919F918F917F91F6
:103BB0006F915F914F913F912F910F900FBE0F909A
:103BC0001F901895E091CB02F091CC02E817F9070D
:103BD00069F4A389B4899C918589809589238C9304
:103BE0001092CC021092CB0281E0089580E00895FB
:103BF0008F929F92AF92BF92CF92DF92EF92FF92FD
:103C0000209100043091010482179307B8F54B010D
:103C1000AA24BB24F82DC52ED62EE72EFF24EC2D8A
:103C2000342F20910504222361F0829E400111244B
:103C3000F92DC29E60011124ED2D429FA001112497
:103C4000352FAC01440F551F840F951F409106047A
:103C500050910704840F951F20910804DC01A20FE6
:103C6000B11DFC9320910904DC01A20FB11DEC935E
:103C700020910A04FC01E20FF11D3083FF90EF90C8
:103C8000DF90CF90BF90AF909F908F9008950F934B
:103C90001F93CF93DF93CDB7DEB729970FB6F89474
:103CA000DEBF0FBECDBF8091060490910704892B23
:103CB00009F4A0C00E94CF1800910C0410910D04CB
:103CC00020910E0430910F04DC01CB01801B910B7D
:103CD000A20BB30BC297A105B10560F3F8948091D4
:103CE0000204909103049A838983E0910604F09181
:103CF0000704DF0111968081898790910B04E09180
:103D00001004F09111048091120491FF2EC0908153
:103D1000982B98879081809589238F838F818C83BE
:103D200088E08B8358856F8149853B812C8189810F
:103D30009A81508347FD252F3A952083262F39F00D
:103D4000441F00C000006083000000C0F2CF38E0D4
:103D50004D9160830000019761F7F0931104E093A7
:103D6000100449873B832C8338C09081982B988717
:103D70009081809589238F838F818E8388E08D83C6
:103D800058856F8149853D812E8189819A81508333
:103D900047FD252F00C000C0208300C000C000C028
:103DA00000C000C060830000262F3A9541F0441FF8
:103DB000000000C000C000C000C000C0E8CF38E074
:103DC0004D9100C0608300C0019709F7F093110482
:103DD000E093100449873D832E839A8389837894E6
:103DE0000E94CF1860930C0470930D0480930E040E
:103DF00090930F0429960FB6F894DEBF0FBECDBF87
:103E0000DF91CF911F910F910895CF92DF92EF92A2
:103E1000FF920F931F93CF93DF9377FF1DC06A012B
:103E20007B01EC016DE20E94C2178C0144275527EB
:103E3000BA014C195D096E097F092AE0CE010E9482
:103E40007517800F911FDF91CF911F910F91FF90F8
:103E5000EF90DF90CF9008952AE0DF91CF911F91EE
:103E60000F91FF90EF90DF90CF900C9475178F9289
:103E70009F92AF92BF92CF92DF92EF92FF92CF9339
:103E8000DF936B017C019B01AC010E94C12B882355
:103E900019F063E172E027C046015701E894B7F8D2
:103EA0002FEF3FEF4FE75FE7C501B4010E94C12B41
:103EB00081110DC02FEF3FEF4FE75FE7C501B40160
:103EC0000E94F93118161CF467E172E00CC02FEF64
:103ED0003FEF4FE75FE4C701B6010E94142B1816AD
:103EE00084F46BE172E08DE093E0DF91CF91FF907D
:103EF000EF90DF90CF90BF90AF909F908F900C94F9
:103F0000A5132FEF3FEF4FE75FECC701B6010E940B
:103F1000F93187FDE6CF20E030E0A901C701B60105
:103F20000E94F93187FF0BC06DE28DE093E00E94A3
:103F3000C217EC01F7FAF094F7F8F09402C0C0E071
:103F4000D0E02AE037ED43EA5BE3C701B6010E9407
:103F5000002A4B015C010E94E52A6B017C010E9452
:103F6000FE319B01AC01C501B4010E94FF294B0148
:103F70005C012AE0B701A6018DE093E00E9475176D
:103F8000C80FD91F6EE28DE093E00E94C217C80FE0
:103F9000D91F20E030E040E251E4C501B4010E94A5
:103FA0005F324B015C010E94E52A6B01E12CF12C90
:103FB0002AE0B701A6018DE093E00E947517C80FB3
:103FC000D91FC701B6010E94FE319B01AC01C5019A
:103FD000B4010E94FF2920E030E040E251E40E9459
:103FE0005F320E94E52AAB0160E070E02AE08DE0DC
:103FF00093E00E9475178C0F9D1FDF91CF91FF906A
:10400000EF90DF90CF90BF90AF909F908F900895EA
:104010001F93CF93DF9311E0180F2091050412171F
:10402000A1F1C0910604D09107042150B9F08F3F4F
:1040300059F430E040E050E06FEF7FEF80E090E037
:104040000E943333B9010CC0812F90E0982F88274C
:104050000197622F70E00E94CA2902C060E070E000
:10406000FE014091020450910304CF018C1B9D0B73
:104070008417950740F44081469FC001479F900DEB
:1040800011249193EECF10930504DF91CF911F91EE
:1040900008952091B2033091B3032817390709F42A
:1040A00044C09093B3038093B203009709F437C0E0
:1040B0002091C503FC01211107C03596E491E093DE
:1040C000C603FC013C960FC0213039F43F96E491C1
:1040D000E093C603FC01709606C03D96E491E09320
:1040E000C603FC013E9684918093C7038091C6036A
:1040F000082E000C990B2091C703821B910927FD04
:1041000093952091C803203441F0829FC00111246F
:1041100026E0969587952A95E1F78093C90380E973
:1041200096E19093C4038093C3030895CF93DF93E4
:10413000CDB7DEB768970FB6F894DEBF0FBECDBF20
:10414000789484B5826084BD84B5816084BD85B572
:10415000826085BD85B5816085BD80916E0081607E
:1041600080936E0010928100809181008260809324
:104170008100809181008160809381008091800026
:104180008160809380008091B10084608093B10051
:104190008091B00081608093B00080917A0084604B
:1041A00080937A0080917A00826080937A00809177
:1041B0007A00816080937A0080917A008068809391
:1041C0007A001092C100E0911D03F0911E0382E07D
:1041D0008083E0911903F0911A031082E0911B0390
:1041E000F0911C038FEC808310922503E091210352
:1041F000F091220386E08083E0911F03F091200379
:10420000808180618083E0911F03F0912003808191
:1042100088608083E0911F03F09120038081806893
:104220008083E0911F03F091200380818F7D808344
:1042300089EB90E00E941D33809302018F3F19F4B7
:1042400087E4809302011091020164E571E08DE042
:1042500093E00E94C917412F50E060E070E02AE02F
:104260008DE093E00E9475178DE093E00E94BE17E9
:104270006CE371E08DE093E00E94CB1768E071E0A1
:104280008DE093E00E94CB17BE01695F7F4F85EB05
:1042900090E00E94880A0F81188568EF70E08DE039
:1042A00093E00E94CB17A801110F660B770B8DE0EE
:1042B00093E00E94051F8DE093E00E94BE178AE301
:1042C00090E00E941D3380932402BE016F5F7F4FF8
:1042D00080E190E00E94880A89819A81019621F408
:1042E0008FE591E00E94F30E61E0809104040E944A
:1042F000931860E0809104040E94471898EEE92E1C
:1043000093E0F92E00E010E0F701419151916191A5
:1043100071917F01C8010E94F81D0F5F1F4F063089
:10432000110591F784E10E9408200E94471E109217
:104330003102109232021092330210923402109223
:10434000290210922A0210922B0210922C026DE286
:1043500072E088E090E00E94620A60912D02709104
:104360002E0280912F02909130029B01AC010E949D
:10437000C12B882341F010922D0210922E02109230
:104380002F021092300260E272E08AEB90E00E940D
:10439000620A609120027091210280912202909124
:1043A00023029B01AC010E94C12B882341F0109293
:1043B0002002109221021092220210922302809178
:1043C0003702882341F082E192E0909301018093CB
:1043D00000010E94050B0E942B120E94E10F01E0D8
:1043E0008091A002882361F08091A602811108C00B
:1043F0000E942E19613E73498440910508F0D9C38B
:104400000E942B120E94FD0C8091A50281110E9436
:1044100053120E94050B8DE093E00E94CB15892B6F
:1044200009F4A0C36DE073E080E395E70E94740F88
:10443000882309F497C368E372E0CE0107960E94CF
:10444000601768E372E08DE093E00E94C9178DE089
:1044500093E00E94BE1769EB72E0CE0101960E94C4
:104460002817BE016F5F7F4FCE0107960E94AE16E0
:10447000182FCE0101960E9423171123A1F02AE3E1
:1044800032E0C9012F5F3F4FFC0140814032C9F348
:104490000E94F30E0E94FD0C64E571E08DE093E054
:1044A0000E94CB1751C363EB72E0CE0101960E94CC
:1044B0002817BE016F5F7F4FCE0107960E94AE1690
:1044C000182FCE0101960E942317112321F140914C
:1044D000A502142F10271093A5028DE093E00E94EF
:1044E000BE176AE571E08DE093E00E94CB17412F83
:1044F00050E060E070E08DE093E00E94051F8DE0E9
:1045000093E00E94BE178091A502882309F41CC382
:104510000E94531219C36BEA72E0CE0101960E9409
:104520002817BE016F5F7F4FCE0107960E94AE161F
:10453000182FCE0101960E942317112319F1E12CA7
:10454000F12C6FEFC7010E942533FFEFEF1AFF0A2E
:104550002CE2E21621E0F206A1F76AE771E08DE0B5
:1045600093E00E94CB176AE671E08DE093E00E9431
:10457000CB176CE271E080E090E00E94F4180C949C
:104580000000E2C263EA72E0CE0101960E942817A1
:10459000BE016F5F7F4FCE0107960E94AE16182FA7
:1045A000CE0101960E942317112319F00E94BA131D
:1045B000CBC26FE972E0CE0101960E942817BE01BE
:1045C0006F5F7F4FCE0107960E94AE16182FCE0167
:1045D00001960E9423171123A1F12BE332E0C901B8
:1045E0002F5F3F4FFC0140814032C9F30E94873169
:1045F0008F3F91054CF48739910514F086E990E0DE
:1046000097FF02C080E090E0182F8093240263E9B6
:1046100071E08DE093E00E94CB17412F50E060E005
:1046200070E02AE08DE093E00E9475178DE093E042
:104630000E94BE17609124028AE390E00E94253315
:1046400083C26BE972E0CE0101960E942817BE0179
:104650006F5F7F4FCE0107960E94AE16182FCE01D6
:1046600001960E942317112359F08CE392E00E94D7
:1046700087318983BE016F5F7F4F87EB90E0A6C2D1
:1046800067E972E0CE0101960E942817BE016F5FB4
:104690007F4FCE0107960E94AE16182FCE010196CD
:1046A0000E942317112329F180E9C82EDD24D39419
:1046B000E12CF12CC0922502D0922602E092270232
:1046C000F09228020E94FD0C0E94050B6AEF70E038
:1046D00080E090E00E94F418F4E6CF0ED11CE11CBB
:1046E000F11C2CE1C2162CE0D206E104F10411F712
:1046F0002BC261E972E0CE0101960E942817BE012B
:104700006F5F7F4FCE0107960E94AE16182FCE0125
:1047100001960E942317112339F16AEA71E08DE0B6
:1047200093E00E94CB170E94E10F83E194E00E9486
:10473000481B892B49F083E194E00E94601B682F9D
:104740008DE093E00E9402168DE093E00E94CB156D
:10475000892B59F38DE093E00E94A915682F83E11E
:1047600094E00E94F41AE1CF6DE872E0CE01019668
:104770000E942817BE016F5F7F4FCE0107960E94EF
:10478000AE16182FCE0101960E942317112339F17E
:104790008BE392E0BC010196FB0120812032D1F332
:1047A000CE0101960E94601789819A81009719F0C5
:1047B0000E94A53103C060E070E0CB016093250248
:1047C000709326028093270290932802CE010196CF
:1047D0000E9423170E94630C0E94050BB5C169E873
:1047E00072E0CE0101960E942817BE016F5F7F4FD5
:1047F000CE0107960E94AE16182FCE0101960E9498
:104800002317112309F454C0EBE3F2E081918032C5
:10481000E9F3C0902D02D0902E02E0902F02F0908C
:10482000300220E030E040E85FE3C701B6010E94BB
:10483000142B181644F0C0903102D0903202E09050
:104840003302F090340286E794E00E9427099B012E
:10485000AC01C701B6010E94FF296B017C0118EC75
:10486000612F70E080E090E00E9400329B01AC017B
:10487000C701B6010E946C2A27E238E846E250E4FC
:104880000E94002A9B01AC0160E070E080E291E4AC
:104890000E94712B20E030E543E458E40E94F93196
:1048A00087FF04C01150E1F6198288C1198386C1BF
:1048B00065E872E0CE0101960E942817BE016F5F85
:1048C0007F4FCE0107960E94AE16182FCE0101969B
:1048D0000E942317112309F44BC02BE332E0590146
:1048E0002F5F3F4FF50180818032C9F386E794E066
:1048F0000E9427096B017C01C5010E948731BC0120
:10490000990F880B990B0E9400320E94192B27E205
:1049100038E846E250E40E94FF294B015C01809197
:104920000201682F70E080E090E00E9400329B015D
:10493000AC01C501B4010E945F32A70196010E943B
:10494000002A609331027093320280933302909375
:10495000340284E594E00E94270960932902709351
:104960002A0280932B0290932C020E94EB0FECC042
:1049700060E872E0CE0101960E942817BE016F5FC9
:104980007F4FCE0107960E94AE16182FCE010196DA
:104990000E942317112311F081E015C06BE772E02C
:1049A000CE0101960E942817BE016F5F7F4FCE0196
:1049B00007960E94AE16182FCE0101960E9423176B
:1049C000112321F080E00E942B27BEC067E772E030
:1049D000CE0101960E942817BE016F5F7F4FCE0166
:1049E00007960E94AE16182FCE0101960E9423173B
:1049F000112339F119821A821B821C82BE016F5F5A
:104A00007F4F84E090E00E942F0A19821A821B8255
:104A10001C82BE016F5F7F4F88E090E00E942F0AEA
:104A2000109231021092320210923302109234022C
:104A300010922D0210922E0210922F02109230022C
:104A400083C063E772E0CE0101960E942817BE0181
:104A50006F5F7F4FCE0107960E94AE16182FCE01D2
:104A600001960E9423171123A9F02BE332E0C9011C
:104A70002F5F3F4FFC0140814032C9F30E948731D4
:104A80009A838983BE016F5F7F4F85EB90E00E9420
:104A9000F0095AC06EE672E0CE0101960E94281716
:104AA000BE016F5F7F4FCE0107960E94AE16182F92
:104AB000CE0101960E942317112319F00E94C80FFE
:104AC00043C069E672E0CE0101960E942817BE013C
:104AD0006F5F7F4FCE0107960E94AE16182FCE0152
:104AE00001960E942317112319F00E9413152CC060
:104AF00065E672E0CE0101960E942817BE016F5F45
:104B00007F4FCE0107960E94AE16182FCE01019658
:104B10000E9423171123C1F08B859C85059728F0EF
:104B20006F8178856115710529F41092A10261EAFF
:104B300072E002C06C5F7F4F83E194E00E94C9176E
:104B400083E194E00E94BE1763E672E08DE093E09B
:104B50000E94CB178DE093E00E94BE17CE0107960E
:104B60000E9423178091A002882399F183E194E0A9
:104B70000E94481B892B69F10E942E1960939C02A8
:104B800070939D0280939E0290939F028091A00259
:104B90008823F9F083E194E00E94481B892BC9F037
:104BA00063E174E088EE93E00E94740F811116C0F7
:104BB00010C00E94C80F0093A60222CC1F5F109362
:104BC0000201BE016F5F7F4F89EB90E00E94170AE0
:104BD000BBCF0E9413150E946B1602CC68E372E0F3
:104BE000CE0143960E9460176AE572E0CE010196FD
:104BF0000E942817BE016F5F7F4FCE0143960E942F
:104C000094167C01CE0101960E942317F7FC7DC00B
:104C10000093370280913602811177C000933602EB
:104C20006EEB71E0CE010D960E942817809135023F
:104C3000882309F455C065EB71E0CE0101960E940E
:104C4000281718861F821A8619861C861B8669817A
:104C50007A816115710539F04D815E81CE0107962B
:104C60000E94021704C0CE0107960E94F01689899F
:104C70009A89CD84DE84EB84FC84C114D10409F4C8
:104C8000BAC00097A9F0E80EF91EB701CE01079649
:104C90000E94C916882309F4AEC02F8138858B8500
:104CA0009C85B601820F931F0E94B72EFC86EB866F
:104CB0006F8178856115710539F04B855C85CE0172
:104CC0000D960E94021704C0CE010D960E94F016A8
:104CD000CE0107960E942317CE0101960E9423174A
:104CE000ED84FE840E942E1960939C0270939D02B5
:104CF00080939E0290939F02B70183E194E00E940B
:104D0000A513CE010D960E9423176FE472E0CE0129
:104D100001960E942817BE016F5F7F4FCE01439618
:104D20000E94AE16182FCE0101960E942317111172
:104D30000093A40264E472E0CE0101960E94281759
:104D4000BE016F5F7F4FCE0143960E9494167C0197
:104D5000CE0101960E942317F7FC07C00E94BA13E8
:104D60008091350281110093A2026DE372E0CE01C1
:104D700001960E942817BE016F5F7F4FCE014396B8
:104D80000E9494167C01CE0101960E942317F7FE23
:104D90000093A30267E372E0CE0101960E942817F8
:104DA000BE016F5F7F4FCE0143960E9494167C0137
:104DB000CE0101960E942317F7FC08C08091A20241
:104DC000882321F01092A2020E94C80F64E372E0CF
:104DD0008DE093E00E94CB1768E372E08DE093E0F2
:104DE0000E94C9178DE093E00E94BE17CE01439642
:104DF0000E942317CBCECE0107960E94F01658CF03
:104E00008091060490910704009711F00E94402DB4
:104E100060E0809104040E94931880E491E09093F4
:104E200014048093130483E194E00E94E21D82E362
:104E300094E00E94A80783E494E00E94A80784E518
:104E400094E00E94A80785E694E00E94A80786E700
:104E500094E00C94A8073F924F925F926F927F92DA
:104E60008F929F92AF92BF92CF92DF92EF92FF927A
:104E70000F931F93CF93DF93CDB7DEB760970FB635
:104E8000F894DEBF0FBECDBF382E882319F00E94E4
:104E9000390E02C00E94C80F61E0809104040E9494
:104EA000931860E0809104040E94471800E010E02D
:104EB000332029F04FEF5FEF6FEF70E003C040E069
:104EC00050E0BA01C8010E94F81D0F5F1F4F063065
:104ED000110571F70E94471E85E694E00E9427099C
:104EE00069837A838B839C8384E594E00E942709FD
:104EF0006D837E838F839887412C512C320105E08E
:104F000010E085E694E00E9427094B015C019B01BB
:104F1000AC0169817A818B819C810E94FF2969871C
:104F20007A878B879C8784E594E00E9427096B0130
:104F30007C019B01AC016D817E818F8198850E94EF
:104F4000FF296D877E878F87988BB301A2018DE043
:104F500093E00E94051F6CE971E08DE093E00E94F0
:104F6000C91769857A858B859C850E94371F67EAFA
:104F700071E08DE093E00E94C9176D857E858F8575
:104F800098890E94371F63EB71E08DE093E00E94E7
:104F9000C917C501B4010E94371F6CEB71E08DE0A9
:104FA00093E00E94C917C701B6010E94371F8DE028
:104FB00093E00E94BE17C201B8010E94DE29892B2E
:104FC00019F431100E94E10F0E94281060EA7FE07E
:104FD00080E090E00E94F4188FEF481A580A680A9F
:104FE000780AEAEF4E1651046104710409F089CF82
:104FF00060960FB6F894DEBF0FBECDBFDF91CF91A4
:105000001F910F91FF90EF90DF90CF90BF90AF90E6
:105010009F908F907F906F905F904F903F900895FA
:10502000CF92DF92EF92FF921092100310920F0333
:1050300028EEC22E23E0D22EE12CF12CC0921103D7
:10504000D0921203E0921303F092140380E291E0F5
:1050500090930E0380930D0385EC90E090931A03D8
:105060008093190384EC90E090931C0380931B03BE
:1050700080EC90E090931E0380931D0381EC90E000
:105080009093200380931F0382EC90E0909322037F
:105090008093210386EC90E0909324038093230374
:1050A00010922603109227031092280310922903CE
:1050B00064E086E794E00E94C10964E085E694E03C
:1050C0000E94C10964E084E594E00E94C10964E0A3
:1050D00083E494E00E94C10964E082E394E00E94CA
:1050E000C1091092160410921504C0921704D092B0
:1050F0001804E0921904F0921A0480E491E090936D
:1051000014048093130410922A041092290410921C
:105110002C0410922B0410922E0410922D04109245
:10512000300410922F04609131046E7F6D7F609384
:1051300031046695617081E068278AE00E94471813
:1051400061E08AE00E949318EDEEFEE0E491E093C6
:105150002304E9EDFEE0E491F0E0EE0FFF1FE554DB
:10516000F14F85919491909325048093240460E0FD
:1051700089E00E9493188091310481FD04C061E0B0
:1051800089E00E94471889E080931F04ECEEFEE05E
:10519000E491E0932004E8EDFEE0E491F0E0EE0F0E
:1051A000FF1FEB53F14F85919491909322048093CC
:1051B000210486E090E0909301048093000482E152
:1051C00090E090930304809302048FE080930404A2
:1051D0001092050483E080930B0410920C0410924B
:1051E0000D0410920E0410920F04EEEDFEE0E49117
:1051F000F0E0EE0FFF1FE554F14F859194919093ED
:10520000110480931004E2EFFEE0E491E0931204B5
:1052100082E190E00E94AB2C9093070480930604F7
:10522000009729F022E1FC0111922A95E9F781E02B
:10523000809308041092090492E090930A0440E0DD
:105240005FEF60E070E04093E8035093E903609300
:10525000EA037093EB0340E05FEF6CE870E040938B
:10526000EC035093ED036093EE037093EF0340E083
:105270005FEF6FEF70E04093F0035093F1036093A2
:10528000F2037093F30340E058EC6FEF70E040934B
:10529000F4035093F5036093F6037093F70340E033
:1052A00058E76FEF70E04093F8035093F903609371
:1052B000FA037093FB0340E050E06FEF70E040931F
:1052C000FC035093FD036093FE037093FF03109261
:1052D000AD031092AC0320E331E03093AB03209395
:1052E000AA031092E5031092E6031092E7031092CE
:1052F000B3031092B2031092B5031092B40310924C
:10530000B7038093B60382E28093B8031092BD0383
:105310001092BC03E1EDF3E09FEF8EE08E0F9193CE
:105320008E13FDCF81E08093CE0320E936E13093E8
:10533000C4032093C3038093C5031092C603109245
:10534000C70380E48093C8031092C90385E796E100
:105350009093E0038093DF038CE091E09093B1039E
:105360008093B00386E08093D30387E08093D203D9
:1053700088E08093D1038EEA93E00E94BB1988E312
:1053800091E09093AB038093AA03FF90EF90DF909E
:10539000CF900895AA1BBB1B51E107C0AA1FBB1FDA
:1053A000A617B70710F0A61BB70B881F991F5A95B1
:1053B000A9F780959095BC01CD01089597FB072E24
:1053C00016F4009407D077FD09D00E94CA2907FC83
:1053D00005D03EF4909581959F4F08957095619505
:1053E0007F4F0895EE0FFF1F0590F491E02D099473
:1053F0000E94B633B7FF0895821B930B089550584F
:10540000BB27AA270E94172A0C94E3320E94D532A8
:1054100038F00E94DC3220F039F49F3F19F426F472
:105420000C94D2320EF4E095E7FB0C94CC32E92FC9
:105430000E94F43258F3BA1762077307840795077E
:1054400020F079F4A6F50C9416330EF4E0950B2EAB
:10545000BA2FA02D0B01B90190010C01CA01A001C6
:105460001124FF27591B99F0593F50F4503E68F121
:105470001A16F040A22F232F342F4427585FF3CF62
:10548000469537952795A795F0405395C9F77EF433
:105490001F16BA0B620B730B840BBAF09150A1F07C
:1054A000FF0FBB1F661F771F881FC2F70EC0BA0F02
:1054B000621F731F841F48F4879577956795B7958A
:1054C000F7959E3F08F0B0CF9395880F08F0992785
:1054D000EE0F9795879508950E94802A0C94E332E9
:1054E0000E94DC3258F00E94D53240F029F45F3F30
:1054F00029F00C94CC3251110C9417330C94D23205
:105500000E94F43268F39923B1F3552391F3951B6C
:10551000550BBB27AA2762177307840738F09F5FD4
:105520005F4F220F331F441FAA1FA9F335D00E2E41
:105530003AF0E0E832D091505040E695001CCAF7AE
:105540002BD0FE2F29D0660F771F881FBB1F261771
:1055500037074807AB07B0E809F0BB0B802DBF0148
:10556000FF2793585F4F3AF09E3F510578F00C9417
:10557000CC320C9417335F3FE4F3983ED4F3869516
:1055800077956795B795F7959F5FC9F7880F911D38
:105590009695879597F90895E1E0660F771F881F24
:1055A000BB1F621773078407BA0720F0621B730BD7
:1055B000840BBA0BEE1F88F7E09508950E94E52A48
:1055C0006894B1110C94173308950E94FC3288F04E
:1055D0009F5798F0B92F9927B751B0F0E1F0660FB7
:1055E000771F881F991F1AF0BA95C9F714C0B130F8
:1055F00091F00E941633B1E008950C941633672F92
:10560000782F8827B85F39F0B93FCCF38695779526
:105610006795B395D9F73EF490958095709561950F
:105620007F4F8F4F9F4F08950E943B3208F48FEFBA
:1056300008950E94292B29ED3BE54EED5EE30C9485
:105640005F3216F00C94002C0C94D23268940C94B7
:10565000CC320E94FC32A8F39923C1F3AEF3DF935E
:10566000CF931F930F93FF92C92FDD2788232AF032
:105670002197660F771F881FDAF720E030E040E8B7
:105680005FEB9FE3883920F0803E38F021968F77DA
:105690000E94002AE6E7F0E004C00E94002AE3EA44
:1056A000F0E00E940E2C8B01BE01EC01FB2E6F5727
:1056B00071097595771F880B990B0E94003228E1BC
:1056C00032E741E35FE30E947232AF2D9801AE01F1
:1056D000FF900F911F91CF91DF910E94172A0C9498
:1056E000E332FA01EE0FFF1F309621053105A1F1DB
:1056F0006115710561F48038BFE39B0749F1689437
:105700009038810561F08038BFEF9B0741F0992305
:105710004AF5FF3FE1053105210519F1E8940894A8
:10572000E795D901AA2329F4AB2FBE2FF85FD0F358
:1057300010C0FF5F70F4A695E0F7F73950F019F04C
:10574000FF3A38F49F779F930DD00F9007FC905845
:10575000089546F00C94D23260E070E080E89FE358
:1057600008954FE79F775F934F933F932F930E9446
:10577000292B2F913F914F915F910E945F320C94A2
:10578000CE2B0E943B32880B990B089529F416F01A
:105790000C94CC320C9416330C94D2320E94FC320E
:1057A000A8F39638A0F707F80F92E8942BE33AEAAB
:1057B00048EB5FE70E9475320F920F920F924DB740
:1057C0005EB70F920E94772CE0EDF0E00E940E2C65
:1057D0004F915F91EF91FF91E595EE1FFF1F49F00B
:1057E000FE57E0684427EE0F441FFA95E1F7419514
:1057F000550B0E94412C0F9007FE0C94352C0895F8
:105800009F3F31F0915020F4879577956795B79534
:10581000880F911D9695879597F90895DF93CF93FB
:105820001F930F93FF92EF92DF927B018C0168949C
:1058300006C0DA2EEF010E947232FE01E894A591B3
:105840002591359145915591A6F3EF010E94172AB4
:10585000FE019701A801DA9469F7DF90EF90FF90BD
:105860000F911F91CF91DF9108959B01AC0160E0F2
:1058700070E080E89FE30C946C2A0C94CC320C947A
:10588000002C0E94FC32D8F39923C9F3940F511DC8
:10589000A3F39150504094F059F0882332F0660FF2
:1058A000771F881F91505040C1F79E3F51052CF73C
:1058B000880F911D9695879597F908955F3FACF0F5
:1058C000983E9CF0BB27869577956795B79508F429
:1058D000B1609395C1F7BB0F58F711F460FFE8CFA3
:1058E0006F5F7F4F8F4F9F4FE3CF0C941733FA01B9
:1058F000DC01AA0FBB1F9B01AC01BF5728F4222774
:1059000033274427507820C0B75190F4AB2F0024A0
:10591000469537952795011CA395D2F3002071F089
:10592000220F331F441FB395DAF30ED00C94FF29D6
:1059300061307105A0E88A07B94630F49B01AC01DB
:105940006627772788279078309621F02083318347
:10595000428353830895CF93DF938230910510F4EF
:1059600082E090E0E0910905F0910A0520E030E046
:10597000C0E0D0E0309711F14081518148175907BC
:10598000C0F04817590761F482819381209719F07C
:105990009B838A832BC090930A058093090526C0B8
:1059A0002115310519F04217530718F49A01BE0169
:1059B000DF01EF010280F381E02DDCCF21153105FD
:1059C00009F1281B390B2430310590F412968D9182
:1059D0009C9113976115710521F0FB0193838283DC
:1059E00004C090930A0580930905FD01329644C0D6
:1059F000FD01E20FF31F81939193225031092D9302
:105A00003C933AC02091070530910805232B41F4BF
:105A1000209114013091150130930805209307055A
:105A200020911201309113012115310541F42DB758
:105A30003EB74091160150911701241B350BE091A0
:105A40000705F0910805E217F307A0F42E1B3F0BA2
:105A50002817390778F0AC014E5F5F4F24173507E0
:105A600048F04E0F5F1F5093080540930705819340
:105A7000919302C0E0E0F0E0CF01DF91CF91089573
:105A80000F931F93CF93DF93009709F48CC0FC0111
:105A90003297138212820091090510910A050115AF
:105AA000110581F420813181820F931F2091070518
:105AB000309108052817390779F5F0930805E09328
:105AC000070571C0D80140E050E0AE17BF0750F4A1
:105AD00012962D913C911397AD012115310509F1D5
