:100000000C94A5070C94CD070C94CD070C946F1796
:100010000C946F170C946F170C94CD070C94CD07AC
:100020000C94CD070C94CD070C94CD070C94CD0700
:100030000C94CD070C94CD070C94CD070C94CD07F0
:100040000C94600D0C94CD070C943B0C0C94150C87
:100050000C94CD070C94CD070C94CD070C94CD07D0
:100060000C94CD070C94CD07081640164216511675
:1000700057165B16641653656E6420496E7465727C
:1000800076616C3A2000566973697420277661693D
:10009000722D6D6F6E69746F722E636F6D2720669F
:1000A0006F7220636F6E66696775726174696F6ED7
:1000B0002064657461696C730A007641697220433B
:1000C0004F32204D6F6E69746F72204E4449523A20
:1000D0002076322E300A00646F6E650053657474AA
:1000E000696E672063757272656E7420434F3220AB
:1000F0006C6576656C206173203430302070706DD3
:100100000A0070706D0A00732C200043616C6962F4
:10011000726174696E673A00446F6E650A004465E7
:1001200062756720496E666F2069733A20000A4342
:100130006F6E66696775726174696F6E2072657340
:1001400065742E2E2E0A004E65772042726967680C
:10015000746E6573732076616C75653A2000455343
:10016000502050726F78790A005075742074686559
:1001700020646576696365206174206672657368C2
:10018000206169722E204F6E636520697420776F3D
:10019000726B656420666F722037206D696E7574AE
:1001A000657320616674657220697420737461726E
:1001B000747465642069742077696C6C2073746151
:1001C0007274207468652063616C6962726174691D
:1001D0006F6E2070726F6365647572652C2077682E
:1001E0006963682069732032206D696E7574657368
:1001F0002E20002A2A2A736C617665002A2A2A702A
:10020000726F705F73657472202273656E642E69FD
:100210006E74657276616C222C2230222A2A2A7032
:10022000726F705F7365747220226C6F676765729E
:100230002E736C6F77222C2231222A2A2A70726F39
:10024000705F6C69737420776966692E7373696473
:100250002A2A2A70726F705F6A7365747220227323
:10026000657269616C2E64756D7022302A2A2A0DC0
:100270000A00653A00726561647900474F5420496D
:10028000500044657669636520696E690077696628
:10029000692E737369643D007645535072696E6FC1
:1002A000003E00657370007465737400656F666668
:1002B000007773690072636F0070706D0070726F09
:1002C00078790073696D006272660062726700730C
:1002D000656E644E6F7700666163746F7279006457
:1002E00065627567006C7400FFE0FFD1AFFF32FFFD
:1002F000D0FFFEFFE0FFD1AEFFD0FFFEFFE0FFD159
:100300001000FFFEFFD0FFE0FFC1FFD1AED580A8F7
:100310003FD300408D142000A1C8DA1281CFD9F15B
:10032000DB402EA4A6AFFFD0FFFE0000000024009B
:1003300027002A0000000008000201000003040753
:1003400000000000000000004272696768746E657A
:10035000737320203A007350503A0043616C696215
:10036000726174696E6700736563005761726D75C1
:10037000702E2E2E00004841FCF323000000002ABE
:100380003A0024FA2300141236200611070E001F2B
:100390000F801F9F800F9F00079E0003FC0081F8C5
:1003A00010FEF7F0FFFFF0FFFFF0F9F9F001F800A1
:1003B00003FC00079E000F9F001F8F801F0F800708
:1003C0000E001D1D74310A00000700000007000028
:1003D0000007000000070000000700000007000001
:1003E00000070000000700000007000000070000F1
:1003F000000700000007000000070000FFFFFFF8F3
:10040000FFFFFFF8FFFFFFF80007000000070000F4
:1004100000070000000700000007000000070000C0
:1004200000070000000700000007000000070000B0
:100430000007000000070000000700000B0C180F69
:1004400002FA0FE00FC01FC01F801F803F003F0057
:100450003E007E007C007C00F8000D060C110209B5
:10046000FFF8FFF8FFF8FFF8FFF8FFF80706060FA0
:100470000500FEFEFEFEFEFE1127751502FD000FB3
:1004800080000F00001F00001F00001E00003E0043
:10049000003E00003E00007C00007C00007C00006C
:1004A000780000F80000F80000F00001F00001F012
:1004B0000001F00003E00003E00003E00003C000DF
:1004C00007C00007C0000780000F80000F80000FEA
:1004D00080001F00001F00001F00003E00003E00C3
:1004E000003E00003C00007C00007C00007C00001E
:1004F000F8000019238C1C020101FF800007FFE0B7
:10050000000FFFF0001FFFF8001FFFFC003F81FC01
:10051000003F00FE007F007E007E007E007E003FE8
:10052000007E003F00FE003F00FE003F00FE003F57
:1005300000FE003F80FE003F80FE003F80FE003F47
:1005400080FE003F80FE003F80FE003F80FE003FB7
:1005500000FE003F00FE003F007E003F007E003FA7
:10056000007E007F007F007E003F00FE003F81FC98
:10057000001FFFFC001FFFF8000FFFF00007FFE067
:100580000001FF80000F23461C050000FE01FE074E
:10059000FE0FFE3FFEFFFEFFFEFEFEFCFEF0FEC075
:1005A000FE00FE00FE00FE00FE00FE00FE00FE005B
:1005B000FE00FE00FE00FE00FE00FE00FE00FE004B
:1005C000FE00FE00FE00FE00FE00FE00FE00FE003B
:1005D000FE19238C1C020100FFE00003FFF8000756
:1005E000FFFC000FFFFE001FFFFF003FC0FF003FAA
:1005F000803F803F003F807F003F8000003F8000C1
:10060000003F8000003F8000007F0000007F00006E
:1006100000FF000001FE000003FC000007FC0000DA
:100620000FF800001FF000003FE000007FC0000155
:10063000FF000003FE000007FC00000FF000003F79
:10064000E000007F800000FF000000FFFFFF80FF50
:10065000FFFF80FFFFFF80FFFFFF80FFFFFF80FFA6
:10066000FFFF801823691C020103FF800FFFE01FBA
:10067000FFF03FFFF87FFFFC7F03FCFE01FCFE0064
:10068000FCFE00FE0000FE0000FE0001FC0001FC7C
:10069000000FF800FFF000FFC000FF8000FFE00047
:1006A000FFF80003FC0000FE0000FE00007E0000DA
:1006B0007F00007FFE007FFE007FFE00FEFF00FE49
:1006C0007F01FC7FFFFC3FFFF81FFFF00FFFE003FF
:1006D000FF801A238C1C01000007FC00000FFC00A7
:1006E000001FFC00001FFC00003FFC00003FFC005E
:1006F000007FFC0000FDFC0000FDFC0001F9FC0097
:1007000001F9FC0003F1FC0007F1FC0007E1FC002B
:100710000FC1FC000FC1FC001F81FC003F81FC00E9
:100720003F01FC007E01FC00FE01FC00FC01FC001E
:10073000FFFFFFC0FFFFFFC0FFFFFFC0FFFFFFC0C5
:10074000FFFFFFC0FFFFFFC00001FC000001FC0035
:100750000001FC000001FC000001FC000001FC00A5
:100760000001FC001823691C02007FFFFC7FFFFCD6
:100770007FFFFC7FFFFC7FFFFC7FFFFC7F00007F93
:1007800000007F00007F00007F00007F00007F1FCF
:10079000C07F7FF07FFFF87FFFFC7FFFFC7FC1FE03
:1007A0007F00FE7F007F7E007F00007F00007F00D3
:1007B000007F00007F00007FFE007FFE00FEFE0045
:1007C000FEFF01FC7FFFFC7FFFF83FFFF00FFFC043
:1007D00007FF8019238C1C020100FFC00003FFF0FB
:1007E0000007FFF8000FFFFC001FFFFE001FE0FEE8
:1007F000003FC07F003F807F007F0000007F00003F
:10080000007F0000007E000000FE1FC000FE7FF0A1
:1008100000FEFFF800FEFFFC00FFFFFE00FFE1FE10
:1008200000FFC0FF00FF807F00FF003F00FF003F90
:1008300080FF003F80FF003F80FF003F807F003F40
:10084000007F003F007F807F007F807F003FC0FEF1
:10085000001FFFFC001FFFFC000FFFF80007FFE078
:100860000001FF80001823691C0200FFFFFFFFFF4B
:10087000FFFFFFFFFFFFFFFFFFFFFFFFFF00007F06
:1008800000007F0000FE0000FE0001FE0001FC00F1
:1008900003FC0003F80007F80007F0000FF0000F5A
:1008A000F0001FE0001FE0003FC0003FC0003F809D
:1008B000007F80007F0000FF0000FF0001FE0001BC
:1008C000FE0003FC0003FC0007F80007F8000FF827
:1008D000000FF00019238C1C020103FFC0000FFF62
:1008E000F0001FFFFC003FFFFE003FFFFE007FC146
:1008F000FF007F80FF007F007F007F007F007F0080
:100900007F007F007F007F007F003F80FE003FC1AF
:10091000FC000FFFF80007FFE00001FFC0000FFF21
:10092000F0001FFFF8003FC1FE007F80FE007F0047
:100930007F00FE003F00FE003F00FE003F80FE0003
:100940003F80FE003F80FF007F80FF007F007F80B0
:10095000FF007FFFFF003FFFFE003FFFFC000FFF97
:10096000F80003FFE00019238C1C020101FFC00006
:1009700007FFE0000FFFF8001FFFFC003FFFFC0037
:100980007F81FE007F00FE007E00FF00FE007F00F2
:10099000FE007F00FE007F80FE007F80FE007F80E3
:1009A000FE007F80FE00FF807F00FF807F83FF804E
:1009B0003FFFFF803FFFBF801FFFBF800FFF3F80D3
:1009C00001F83F8000003F0000007F0000007F0032
:1009D00000007F007F00FE007F00FE007F01FE0020
:1009E0003F83FC001FFFFC001FFFF8000FFFF0001B
:1009F00007FFE00001FF8000071818100700FEFE47
:100A0000FEFEFEFE000000000000000000000000EE
:100A1000FEFEFEFEFEFE00060A00FE07019E0337F4
:100A2000207FFE09FE08FE00000006000001070707
:100A30000602008080808080008003030306010599
:100A4000A0A0A005050506000250F850F8500509C1
:100A5000090600FF2070A8A07028A87020050707CD
:100A600006000078A8B05068A890050707060000A7
:100A70006090A040A8906801030306020580808072
:100A80000309090601FF2040808080808040200308
:100A900009090601FF804020202020204080050514
:100AA0000506000220A870A8200505050600012003
:100AB00020F820200204040601FEC0C0408003018B
:100AC00001060103E0020202060200C0C0050A0A94
:100AD0000600FE080810102020404080800507070F
:100AE000060000708898A8C88870050707060000EF
:100AF00020E020202020F805070706000070880865
:100B0000102040F8050707060000708808300888A4
:100B10007005070706000010305090F810380507E0
:100B200007060000F880F00808887005070706002F
:100B3000007080F088888870050707060000F808B4
:100B4000081020202005070706000070888870889C
:100B5000887005070706000070888888780870028A
:100B60000505060200C0C000C0C00207070601FE5E
:100B7000C0C000C0C040800407070601001020402C
:100B800080402010050303060002F800F804070760
:100B90000601008040201020408005070706000065
:100BA000708808102000200507070600007088B82C
:100BB000A8B8807805070706000020505088F888FC
:100BC00088050707060000F08888F08888F0050788
:100BD000070600007088808080887005070706007F
:100BE00000F08888888888F0050707060000F880EC
:100BF00080F08080F8050707060000F88080F0800C
:100C00008080050707060000708880988888700536
:100C10000707060000888888F8888888050707067F
:100C20000000F82020202020F80507070600000813
:100C30000808088888700507070600008890A0C08B
:100C4000A09088050707060000808080808080F8DB
:100C500005070706000088D8A8A888888805070720
:100C600006000088C8A8988888880507070600003D
:100C700070888888888870050707060000F08888D3
:100C8000F08080800508080600FF7088888888A8A2
:100C90007008050707060000F08888F08888880536
:100CA000070706000070888070088870050707062F
:100CB0000000F820202020202005070706000088DB
:100CC000888888888870050707060000888888500B
:100CD000502020050707060000888888A8A8D88823
:100CE00005070706000088885020508888050707F8
:100CF000060000888888502020200507070600008D
:100D0000F80810204080F80209090602FFC0808020
:100D10008080808080C0050A0A0601FE80804040F5
:100D20002020101008080209090601FFC0404040B9
:100D300040404040C00503030600042050880601DF
:100D4000010600FEFC0202020601068040050505C0
:100D500006000078888898680507070600008080EC
:100D6000F0888888F0050505060000708880807886
:100D700005070706000008087888888878050505B3
:100D80000600007088F880780407070601003040EC
:100D9000E0404040400507070600FE7888888878D4
:100DA00008700507070600008080F088888888039F
:100DB00007070601004000C0404040E00309090663
:100DC00000FE2000602020202020C005070706002C
:100DD00000808090A0E09088030707060100C040D3
:100DE00040404040E0050505060000F0A8A8A8A87E
:100DF000050505060000B0C88888880505050600B9
:100E00000070888888700507070600FEF0888888CB
:100E1000F080800507070600FE7888888878080833
:100E2000050505060000B0C88080800505050600A0
:100E30000078807008F00407070601004040E04099
:100E4000404030050505060000888888986805053B
:100E5000050600008888505020050505060000A8FA
:100E6000A8A8A85005050506000088502050880550
:100E700007070600FE88888888780870050505063B
:100E80000000F8102040F8030B0B0601FE20404044
:100E900040408040404040200109090602FF808018
:100EA00080808080808080030B0B0601FE804040A4
:100EB000404020404040408005020206000368B0E8
:100EC0000000000600000A52657374617274696E56
:100ED000672E2E2E0A0000000000230026002900A5
:100EE00001020408102040800102040810200102C1
:100EF0000408102000000000250028002B00040436
:100F000004040404040402020202020203030303B1
:100F100003034572726F7220696E20636F6D6D7589
:100F20006E69636174696F6E207769746820434FDE
:100F3000322053656E736F720A002C200062616468
:100F40002063733A00001323F02211241FBECFEF59
:100F5000D8E0DEBFCDBF11E0A0E0B1E0E2E0FAE50D
:100F600002C005900D92AA3DB107D9F724E0AAED81
:100F7000B1E001C01D92AD39B207E1F717E0C4EA54
:100F8000D7E004C02197FE010E94B324C33AD107E1
:100F9000C9F70E94A21C0C94F42C0C940000CF9270
:100FA000DF92EF92FF920F931F93CF93DF936C0129
:100FB0007A018B01C0E0D0E0CE15DF0589F0D801C1
:100FC0006D918D01D601ED91FC910190F081E02DA4
:100FD000C6010995892B11F47E0102C02196ECCF40
:100FE000C701DF91CF911F910F91FF90EF90DF909C
:100FF000CF900895FC01918D828D981761F0828DBC
:10100000DF01A80FB11D5D968C91928D9F5F9F733C
:10101000928F90E008958FEF9FEF0895FC01918DDE
:10102000828D981731F0828DE80FF11D858D90E04B
:1010300008958FEF9FEF0895FC01918D228D892FE8
:1010400090E0805C9F4F821B91098F7399270895D0
:1010500085E093E00E941C0821E0892B09F420E040
:10106000822F0895FC01848DDF01A80FB11DA35AC2
:10107000BF4F2C91848D90E001968F739927848FB8
:10108000A689B7892C93A089B1898C9180648C93AF
:10109000938D848D981306C00288F389E02D80819A
:1010A0008F7D80830895EF92FF920F931F93CF93CC
:1010B000DF93EC0181E0888F9B8D8C8D981305C0A8
:1010C000E889F989808185FD24C0F62E0B8D10E01A
:1010D0000F5F1F4F0F731127E02E8C8DE8120CC08D
:1010E0000FB607FCFACFE889F989808185FFF5CF33
:1010F000CE010E943208F1CF8B8DFE01E80FF11D69
:10110000E35AFF4FF0820B8FEA89FB89808180626E
:1011100007C0EE89FF896083E889F989808180644E
:10112000808381E090E0DF91CF911F910F91FF903C
:10113000EF900895CF93DF93EC01888D8823C9F059
:10114000EA89FB89808185FD05C0A889B9898C91D0
:1011500086FD0FC00FB607FCF5CF808185FFF2CF6B
:10116000A889B9898C9185FFEDCFCE010E94320804
:10117000E7CFDF91CF91089580E090E0892B29F0AF
:101180000E94280881110C94000008950895DC0144
:101190001696ED91FC91179712968C91481B47700B
:1011A00081E090E001C0880F4A95EAF7E60FF11D53
:1011B0003081222311F0832B02C08095832380830A
:1011C0000895FB014181DC0112962C911297421780
:1011D00068F013962C911397241740F060811596B0
:1011E0002C91621718F424810C94C7080895FC010F
:1011F00080819281980F92832181921760F494816B
:101200009F5F94839381890F821710F08FEF820F75
:10121000838381E0089580E00895FC01128280813B
:10122000815083831482089580E00895FC01E60FC5
:10123000F11D849190E0982F88273196E4918E0FCC
:10124000911D08950E94D1278F929F92AF92BF92D5
:10125000CF92DF92FF920F931F93CF93DF9300D033
:10126000CDB7DEB76C018B01F42E490120E14217A6
:1012700009F467C0241700F13AE0431729F18FE021
:10128000481369C041E0C6010E94901640E0B801D1
:10129000C6010E94871641E8B801C6010E947E1669
:1012A000F4014081B801C6010E947E1640E0B801F9
:1012B000C6010E94901608C1A1E14A1709F444C072
:1012C000B5E14B1791F047C0DB011496ED91FC910D
:1012D000159720E030E042E061E0099544E053E0FA
:1012E000B801C6010E94991636C0FB01A280B380E6
:1012F0004CEF52E00E949916D50114964C91406B28
:10130000B801C6010E947E1641E0B801C6010E94E4
:101310008716F50126813781D8011496ED91FC914D
:101320001597D50115964C9166E0C6010995811176
:1013300002C080E0CAC040E0B801C6010E94901619
:101340000AC043EF52E002C048EE52E0B801C601C5
:101350000E949916B9C0D80112960D911C9113974D
:10136000B2E3FB1609F474C0BF15B8F0E5E1FE1650
:1013700009F47BC0F7E1FF1609F48DC024E1F212F5
:10138000A3C0D8011696ED91FC91179715968C91F4
:101390009F01280F311DC90160C036E4F31609F41E
:1013A0008AC087E4F81609F48AC0ABE3FA128CC04D
:1013B000F40181819381913029F0933031F4482FE9
:1013C000885004C048E0480F01C0482F21E0D801F0
:1013D00013963C91381708F420E031E0F80152816F
:1013E000451708F430E051E0481708F050E0822F2C
:1013F000852B382319F4252309F466C0D4011296ED
:10140000FC90913051F030F0923049F0933051F42B
:101410002FEF09C020E031E007C021E004C020E048
:101420003FEF02C020E030E0F7FE08C0B401C80181
:101430002A8339830E94E10839812A81F40180815D
:10144000830F80838181820F8183FF0C69F73CC009
:10145000B401C8010E94E10837C01192E817F907EA
:10146000E1F7C8010E940D092FC0C8010E94F708CA
:10147000882309F45ECFD8011696ED91FC91179759
:1014800015968C919F01280F311DC9011192E81703
:10149000F907E1F719C0D4011C92F8018281119675
:1014A0008C9311978581815012968C93129783812A
:1014B00013968C9309C0D80115968C9103C0D8015E
:1014C00011968C91F401808381E00F900F90DF9151
:1014D000CF911F910F91FF90DF90CF90BF90AF9071
:1014E0009F908F900895CF93DF93FC0124813581E5
:1014F000232B71F0FB01DC01CD91DC9160817181C6
:10150000CE010E94FB27009719F08C1B9D0B02C097
:101510008FEF9FEFDF91CF910895FB0144815581BB
:10152000FC01248135812417350778F08081918171
:10153000009759F0FB01608171816115710529F0F7
:101540000E94ED2721E0892B09F020E0822F0895E9
:101550000F931F93CF93DF93EC01888199810097BC
:1015600029F02A813B812617370788F48B016F5FAA
:101570007F4F0E940727009761F0998388831B8320
:101580000A832C813D81232B11F4FC01108281E020
:1015900001C080E0DF91CF911F910F910895CF930B
:1015A000DF93EC0188819981009711F00E946F26EA
:1015B000198218821D821C821B821A82DF91CF91B0
:1015C0000895EF92FF920F931F93CF93DF93EC0157
:1015D0007B018A01BA010E94A80A811104C0CE01D0
:1015E0000E94CF0A07C01D830C83B70188819981AF
:1015F0000E94E627CE01DF91CF911F910F91FF90BE
:10160000EF900895FC01808191810C946F26EF92F8
:10161000FF920F931F93CF93DF93EC0119821882EF
:101620001B821A821D821C826115710509F18B01D2
:10163000CB010E94022B7C01BC01CE010E94A80AB2
:10164000811109C0CE01DF91CF911F910F91FF90C1
:10165000EF900C94CF0AFD82EC82B80188819981C9
:10166000DF91CF911F910F91FF90EF900C94FB2A87
:10167000DF91CF911F910F91FF90EF900895FC01A2
:1016800011821082138212821582148261157105F3
:1016900051F0FB0101900020E9F73197AF01461BA3
:1016A000570B0C94E10A08954F925F926F927F92CC
:1016B000EF92FF920F931F93CF93DF93CDB7DEB7D7
:1016C000A1970FB6F894DEBF0FBECDBF7C01FA0123
:1016D000CB0119A2223008F42AE08E010F5D1F4FC2
:1016E000422E512C612C712CBF01A30192010E944A
:1016F000C32CF901CA01015011096A3014F4605D6C
:1017000001C0695CD8016C93232B242B252B61F736
:10171000B801C7010E945C14A1960FB6F894DEBF11
:101720000FBECDBFDF91CF911F910F91FF90EF9032
:101730007F906F905F904F90089560ED71E00C94F2
:101740005C14CF92DF92EF92FF920F931F93CF938F
:10175000DF93EC016A017B012115310579F4E88101
:10176000F9810190F081E02D642FDF91CF911F91DD
:101770000F91FF90EF90DF90CF9009942A303105C0
:1017800009F577FF1EC0E881F9810190F081E02D15
:101790006DE209958C0144275527BA014C195D0962
:1017A0006E097F092AE0CE010E94540B800F911F21
:1017B000DF91CF911F910F91FF90EF90DF90CF902D
:1017C00008952AE0B701A601CE01DF91CF911F91C4
:1017D0000F91FF90EF90DF90CF900C94540B0C94EE
:1017E0005C14EF92FF920F931F93CF93DF938C01C2
:1017F0007B01C0E0D0E0F701EC0FFD1F6491662390
:1018000061F0D801ED91FC910190F081E02DC801CB
:101810000995892B11F02196EECFCE01DF91CF9162
:101820001F910F91FF90EF9008951F920F920FB6A6
:101830000F9211242F933F934F935F936F937F9356
:101840008F939F93AF93BF93EF93FF9385E093E0C4
:101850000E943208FF91EF91BF91AF919F918F91BC
:101860007F916F915F914F913F912F910F900FBE9C
:101870000F901F9018951F920F920FB60F92112480
:101880002F938F939F93EF93FF93E0911503F09124
:1018900016038081E0911B03F0911C0382FD12C0AE
:1018A000908180911E038F5F8F7320911F03821799
:1018B00051F0E0911E03F0E0EB5FFC4F958F8093B9
:1018C0001E0301C08081FF91EF919F918F912F9115
:1018D0000F900FBE0F901F90189590E0FC01EC5CEC
:1018E000FC4F3491FC01E052F14F2491FC01E25095
:1018F000F14FE491EE2309F43BC0332339F1333047
:1019000091F038F43130A9F0323001F584B58F7D93
:1019100012C0373091F03830A1F03430B9F48091F2
:1019200080008F7D03C0809180008F77809380003E
:101930000DC084B58F7784BD09C08091B0008F77CA
:1019400003C08091B0008F7D8093B000F0E0EE0F77
:10195000FF1FEC50F14FA591B4918FB7F894EC9123
:10196000611103C020952E2301C02E2B2C938FBF15
:101970000895CF93DF9390E0FC01E052F14F249162
:10198000FC01E250F14F8491882361F190E0880FCF
:10199000991FFC01E65DFC4FC591D491FC01EC5010
:1019A000F14FA591B491611109C09FB7F894888156
:1019B000209582238883EC912E230BC0623061F442
:1019C0009FB7F8943881822F809583238883EC9188
:1019D0002E2B2C939FBF06C08FB7F894E8812E2B37
:1019E00028838FBFDF91CF9108953FB7F8948091FE
:1019F000570290915802A0915902B0915A0226B50F
:101A0000A89B05C02F3F19F00196A11DB11D3FBF36
:101A1000BA2FA92F982F8827820F911DA11DB11DC4
:101A2000BC01CD0142E0660F771F881F991F4A95C0
:101A3000D1F708958F929F92AF92BF92CF92DF928B
:101A4000EF92FF926B017C010E94F50C4B015C014F
:101A5000C114D104E104F104F1F00E94F50CDC01A1
:101A6000CB0188199909AA09BB09883E9340A105B1
:101A7000B10570F321E0C21AD108E108F10888EE3F
:101A8000880E83E0981EA11CB11CC114D104E1048E
:101A9000F10419F7DDCFFF90EF90DF90CF90BF906A
:101AA000AF909F908F9008952FB7F8946091530254
:101AB0007091540280915502909156022FBF089563
:101AC0001F920F920FB60F9211242F933F938F9373
:101AD0009F93AF93BF938091530290915402A09132
:101AE0005502B09156023091520223E0230F2D3758
:101AF00020F40196A11DB11D05C026E8230F029612
:101B0000A11DB11D20935202809353029093540261
:101B1000A0935502B09356028091570290915802BB
:101B2000A0915902B0915A020196A11DB11D809356
:101B3000570290935802A0935902B0935A02BF9152
:101B4000AF919F918F913F912F910F900FBE0F906A
:101B50001F901895DB01ED91FC910994EF92FF9293
:101B60000F931F93CF93DF931F92CDB7DEB78C01F6
:101B7000DC011296ED90FC901397D196ED91FC91BB
:101B8000D29782E0099520E030E04AE0B701C80131
:101B90000E94AA0DF82ED801D196ED91FC91D29712
:101BA00083E00995D801D196ED91FC91D29780E020
:101BB0000995FF20A1F1F801628173819E012F5FD9
:101BC0003F4F46E4C8010E94AA0D8981D8018C9339
:101BD00012966D917C9113979E012F5F3F4F47E4C2
:101BE000C8010E94AA0D8981F801818362817381F5
:101BF00020E030E048E4C8010E94AA0DD8011B96FD
:101C00008C931B9798012D5C3F4F12966D917C91A0
:101C1000139747E1C8010E94AA0D81E001C080E04E
:101C20000F90DF91CF911F910F91FF90EF9008954A
:101C30000B96FC01849108950A96FC018491089505
:101C400068E00C94160966E00C941609FC01849176
:101C500008950E94260E882321F0823011F083E03F
:101C6000089586E008952EE93FE0009729F0F901F4
:101C70003197F1F70197F9CF089508952F923F9288
:101C80004F925F926F927F928F929F92AF92BF928C
:101C9000CF92DF92EF92FF920F931F93CF93DF9338
:101CA0001F92CDB7DEB71C01A62EDC01DC96BC90DE
:101CB000DC97DB96EC906C01B4E0CB0ED11CDC0120
:101CC0005996ED91FC915A97C6010995F82EF101AC
:101CD00000851185C8010E94260E982ED101189604
:101CE0008D919C9119970E94290E682EB1E09B124C
:101CF00003C02FE0922E02C099249A94F1018085AE
:101D000091850E941C0E882ED10118968D919C9170
:101D100019970E94180E782EF101808591850E94F6
:101D2000200EF0E6FA1538F4009729F0080F191F75
:101D300091E6892E13C0D10118968D919C91199727
:101D40000E94230EB0E4BA1538F4009729F0080F6A
:101D5000191F81E4882E02C00F5E1F4F7A1438F4D9
:101D6000F101148A178A108E158A168A9EC078147B
:101D7000B8F3262D30E0F80184918F3F19F40F5FFE
:101D80001F4F5AC08A104FC0D10118968D919C9157
:101D900019970E94260E98012F5F3F4FF801882364
:101DA00011F08230E1F48491D10157968C935797CA
:101DB000F901249158962C935897F8013396E491A1
:101DC0005496EC935497F8013496E4915596EC931D
:101DD0005597F8013596E4915696EC9320C084917E
:101DE000982F9F709250D10156969C93569782954A
:101DF0008F7055968C935597F9012491822F8F708F
:101E000058968C93589722952F7057962C935797E6
:101E1000F8013296E491E295EF705496EC93011537
:101E2000110579F442C0F8013296E491E921C90123
:101E30008E0F911D080F191F871409F491CF8394F9
:101E40009ACFF101808591850E94290ED101579684
:101E50003C91579758962C91589755965C91559769
:101E6000B21A56969C915697B91AFB0C9FEF920F97
:101E70009F0DD8964C91D897DA966C916F1518F003
:101E8000941728F402C0941768F09F1558F4E50ED3
:101E90009FEF930F9E0DF10147A951AD5E1538F4E8
:101EA000941738F4F10184893FC080E03DC0941755
:101EB00010F49E15B8F7080F111D395F532E569474
:101EC000569456944F2C420E4101F0E28F0E911C15
:101ED000652C712CF41431F35E2D58018A2D801B72
:101EE0008515F0F4F5018491D10116966D917C91E0
:101EF000179790965C9390979196FC9291979396F2
:101F00001C92939792968C9394014BE3C60159834C
:101F10000E94AA0DBFEFAB1ABB0A5981585FDECFF2
:101F2000060D171DF394D6CFD101DB962C91DB97CC
:101F3000082E000C990B820F911DDB968C9381E08B
:101F400090E00F90DF91CF911F910F91FF90EF9054
:101F5000DF90CF90BF90AF909F908F907F906F90C9
:101F60005F904F903F902F9008952F923F924F9205
:101F70005F926F927F928F929F92AF92BF92CF9219
:101F8000DF92EF92FF920F931F93CF93DF931F92F5
:101F9000CDB7DEB781E08093D3029091EC0291112E
:101FA00006C08093EC0283EB92E00E94AE0D60913C
:101FB000B5027091B6028FEF89839E012F5F3F4F6C
:101FC0004FE083EB92E00E94AA0D8091EC02811118
:101FD00007C081E08093EC0283EB92E00E94AE0D9B
:101FE0000091B5021091B602E091E402F091E50291
:101FF00082E00995E091E402F091E50281E0099523
:1020000020E030E044E1B80183EB92E00E94AA0DA9
:1020100026EE32E047E1B80183EB92E00E94AA0D80
:10202000E091E402F091E50280E009951FE288EE7C
:10203000C82E83E0D82EE12CF12C07E094E1392E54
:1020400028E2222E30ED432E3BEF532E662463947C
:10205000712C80910301813019F486E19AE002C06D
:1020600085E793E00E94551C4091DC015091DD0111
:102070006091DE017091DF01483E23E05207610567
:10208000710514F085E001C081E28093EA021093AB
:10209000EB02413187E2580761057105ACF0CB01D5
:1020A000BA01A70196010E94622CBA01A9012AE097
:1020B00030E08FEA92E00E94A10B68E971E08FEABC
:1020C00092E00E94EF0B0BC01416150616061706B9
:1020D00034F42AE030E08FEA92E00E94A10B86E11E
:1020E0009AE00E94551C1092EA020093EB02609164
:1020F0000001709101018FEA92E00E94EF0B809144
:10210000DA0181113AC026E42093EA020093EB023F
:102110006BE673E08FEA92E00E94F10B8091DC01A4
:102120009091DD01A091DE01B091DF01892B8A2B16
:102130008B2B41F40E94540D613A7F40810591053B
:1021400008F063C08091DC019091DD01A091DE0177
:10215000B091DF018F3F9F4FAF4FBF4F71F486E1CA
:102160009AE00E94551C3092EA022092EB026BE545
:1021700073E08FEA92E00E94F10BE091C102F091CE
:10218000C202309719F083EB92E009958090B50276
:102190009090B602E091E402F091E50282E00995A8
:1021A000E091E402F091E50281E0099520E030E061
:1021B00045E1B40183EB92E00E94AA0DB82E88237A
:1021C00041F026EE32E047E1B40183EB92E00E9459
:1021D000AA0DE091E402F091E50280E00995B110CA
:1021E00038CF0F90DF91CF911F910F91FF90EF901B
:1021F000DF90CF90BF90AF909F908F907F906F9027
:102200005F904F903F902F9008950E94540D4B0186
:102210005C0185E793E00E94551C1092EA0210933E
:10222000EB02C301B201681979098A099B09A70168
:1022300096010E94C32CBA01A9012AE08FEA92E01C
:102240000E94540B86E19AE00E94551C84E680931C
:10225000EA021093EB0267E673E08FEA92E00E94D5
:10226000F10B70CFAF92BF92CF92DF92EF92FF92BD
:102270000F931F93CF93DF9300D0CDB7DEB7C090FD
:10228000DC01D090DD01E090DE01F090DF01C114AF
:10229000D104E104F10409F472C02FEFC216D20692
:1022A000E206F206A9F44091C7035091C80360E02A
:1022B00070E08091CB039091CC030E94DF274FEF19
:1022C00050E060E070E080E090E00E94221955C08C
:1022D00081E7C81687E1D806E104F104E0F490E153
:1022E000A92EB12C10E0BE016F5F7F4FC5010E9487
:1022F000FF1889819A81092E000CAA0BBB0BC81606
:10230000D906EA06FB0640F01F5F22E0A20EB11CD0
:10231000153049F701C011E08091DC019091DD0199
:10232000A091DE01B091DF0181379741A105B10590
:1023300058F484E0189FF0011124E351FD4FC08050
:10234000D180E280F38004C0C12CD12C7601CA94E4
:1023500000E0B701A601802F90E00E9422190F5FD4
:102360001017B8F7063048F440E050E0BA01802F6B
:1023700090E00E9422190F5FF5CF0E9471190F9013
:102380000F90DF91CF911F910F91FF90EF90DF9011
:10239000CF90BF90AF900895CF92DF92EF92FF92CF
:1023A0000F931F93CF93DF93C0906702D090680282
:1023B000E0906902F0906A020E94540DDC01CB01AA
:1023C0008C199D09AE09BF09893E9340A105B1054D
:1023D00008F4EAC00E94540D60936702709368028B
:1023E0008093690290936A020E943211C090630246
:1023F000D0906402E0906502F09066020E94540D55
:10240000DC01CB018C199D09AE09BF0981319742CE
:10241000A105B10508F4C8C00E94540D6093630281
:102420007093640280936502909366028091DB0151
:102430008F3F09F0A9C020E030E060E070E0CB0100
:10244000F0E4F0937C0040917A00406440937A007D
:1024500040917A0046FDFCCF40917800E0917900F0
:1024600050E05E2B6A01550FEE08FF086C0D7D1DD4
:102470008E1D9F1D2F5F3F4F283E43E0340709F715
:102480000E942D2B20E030E04AE754E40E942D25E5
:10249000AB01BC0188E094E00E94FF178BE390E061
:1024A0000E944C2C813019F0C8EED3E002C0C0E984
:1024B000D1E0609109046623A1F070E080E090E033
:1024C0000E942F2B9B01AC0160910B0470910C04B6
:1024D00080910D0490910E040E942D256B017C01CA
:1024E00006C0C12CD12C80ECE82E8FE7F82E87EBAC
:1024F00090E00E944C2C8F3F79F0682F70E080E0D4
:1025000090E00E942F2B20E030E040E251E40E9456
:102510002D259B01AC0104C020E030E040E85FE3E2
:10252000C701B6010E948E2B0E949F256B3071055A
:102530003CF4662319F06093030128C081E024C0B5
:102540009B01C617D7070CF49E01C901330FAA0BD4
:10255000BB0B9C01AD012B50310941095109ADE67E
:10256000B0E00E94812C8E01DD0F220B330BA901FC
:1025700098012B503109410951090E94622CDA015E
:10258000C9010B96A11DB11D809303018091030128
:102590000E94141CDF91CF911F910F91FF90EF903B
:1025A000DF90CF900C947119DF91CF911F910F9113
:1025B000FF90EF90DF90CF900895BF92CF92DF927F
:1025C000EF92FF920F931F93CF93DF93CDB7DEB7B8
:1025D00028970FB6F894DEBF0FBECDBF7C0162ED29
:1025E00071E0CE0101960E943F0BF7018081843695
:1025F00029F48BE791E00E94DD124CC0B12C6701F9
:10260000F7012081822F022E000C990BC0970A97A8
:10261000D8F42F8318860D811E810F5F1F4FB801DC
:10262000CE0101960E94A80A882349F129813A81A6
:102630008D819E81BE01695F7F4F820F931F0E9433
:10264000E6271E830D831BC089819A810E94B62ACA
:1026500098878F8311E01B0D8B2D90E00896BE01AB
:10266000695F7F4F880F991F0E94AC1840E050E0CF
:1026700062ED71E0CE0101960E94E10AB12EFFEFFA
:10268000EF1AFF0AF6018081882321F0F4E0FB15A0
:1026900008F0B5CFCE0101960E94020B28960FB626
:1026A000F894DEBF0FBECDBFDF91CF911F910F9188
:1026B000FF90EF90DF90CF90BF900895CF92DF9280
:1026C000EF92FF920F931F93CF93DF936C018B01D7
:1026D0000E94540D0D2C000CEE08FF08C60ED71EEC
:1026E000E81EF91EC0E00E94540D6C157D058E0594
:1026F0009F0548F5D801ED91FC910480F581E02D0E
:10270000C8010995892B79F3D1E0DC0FD801ED914F
:10271000FC910680F781E02DC8010995EC2FF0E0CF
:10272000ED51FE4F8083ED2FF0E0EE51FE4F8081A2
:102730008D3029F0D33631F08A3011F404C0DC2F0B
:10274000CD2FD1CFC3E6EC2FF0E0ED51FE4F10823C
:102750008C2FDF91CF911F910F91FF90EF90DF9021
:10276000CF9008956BE971E085E093E00E94EF0B54
:1027700085E093E00E949D0B88ED93E00E94E917AD
:1027800061E082E00E94B90C60E082E00E946D0C82
:1027900010924B0208950E94B21368EE73E080E03D
:1027A00090E00E941A0D6AEA71E085E093E00E94D1
:1027B000EF0B85E093E00E949D0B88ED93E00E9473
:1027C0002F1A61E082E00E94B90C61E082E00E9471
:1027D0006D0C81E080934B021092E1010E94540D38
:1027E00060934702709348028093490290934A0293
:1027F0000895CF92DF92EF92FF92CF93C0905B0249
:10280000D0905C02E0905D02F0905E020E94540D58
:10281000DC01CB018C199D09AE09BF0989389341B0
:10282000A105B10508F442C00E94540D60935B02FB
:1028300070935C0280935D0290935E02C090DC0115
:10284000D090DD01E090DE01F090DF0166E573E0FD
:1028500085E093E00E94F10B2AE030E0B701A60189
:1028600085E093E00E94A10B85E093E00E949D0B20
:10287000C091030168E473E085E093E00E94F10BEE
:102880004C2F50E060E070E02AE085E093E00E9489
:10289000540B85E093E00E949D0B85E093E0CF917F
:1028A000FF90EF90DF90CF900C949D0BCF91FF9015
:1028B000EF90DF90CF9008956115710579F0FB01DD
:1028C00001900020E9F73197AF01461B570BDC015F
:1028D000ED91FC910280F381E02D099480E090E07D
:1028E00008950F931F93CF93DF93CDB7DEB7C456F0
:1028F000D1090FB6F894DEBF0FBECDBF60910904B9
:10290000662391F070E080E090E00E942F2B9B0105
:10291000AC0160910B0470910C0480910D049091B6
:102920000E040E942D2504C060E070E080EC9FE75B
:102930000E949F257F936F938091DF018F938091F9
:10294000DE018F938091DD018F938091DC018F9365
:1029500088EB91E09F938F938E010F5F1F4F1F9322
:102960000F930E9415280E94540D609347027093A4
:1029700048028093490290934A02B80188ED93E09F
:102980000E945C140FB6F894DEBF0FBECDBFCC59C9
:10299000DF4F0FB6F894DEBF0FBECDBFDF91CF91F2
:1029A0001F910F910895CF92DF92EF92FF920F93B4
:1029B0001F93CF93DF9300D0CDB7DEB78091E201B4
:1029C000882309F450C08091DC019091DD01A09131
:1029D000DE01B091DF01892B8A2B8B2B09F443C0D8
:1029E000BE016F5F7F4F85EB90E00E94FF188981E9
:1029F0009A81029724F488E790E09A838983098179
:102A00001A81C0905F02D0906002E0906102F09065
:102A100062020E94540D9B01AC012C193D094E0924
:102A20005F0969017A0128EE33E0D8010E94B924D8
:102A30006C157D058E059F05B0F480914B028823AF
:102A400019F00E94711405C00E94CB1381E080939D
:102A5000E0010E94540D60935F02709360028093C6
:102A60006102909362020F900F90DF91CF911F91BE
:102A70000F91FF90EF90DF90CF9008958EBD0DB431
:102A800007FEFDCF8EB508952091AD023091AE02C4
:102A90002817390771F49091AB028091AC02981716
:102AA00041F0E091AB02F0E0E559FD4F808190E00C
:102AB00008958FEF9FEF089508951F93CF93DF93AD
:102AC000DC015C962D913C915D972115310539F41F
:102AD00081E090E013969C938E9312973DC051969F
:102AE000ED91FC91529750969C915097892F80952B
:102AF0001FB75E964C915E9741FB772770F941FDB9
:102B00006095F8944081772311F0492B01C0482348
:102B10004083E9012197F1F748E0508160FF02C04E
:102B2000592B01C058235083E9012197F1F766958D
:102B3000415099F7772321F090818923808303C046
:102B40008081982B90831FBF5C968D919C915D979F
:102B50000197F1F721E030E0C901DF91CF911F919A
:102B600008952091AD023091AE022817390771F413
:102B70008091AC022091AB0290E0805C9F4F821B61
:102B8000910960E470E00E949F24089580E090E045
:102B900008952091AD023091AE0228173907B9F49B
:102BA0009091AB028091AC02981789F0E091AB0252
:102BB000F0E0E559FD4F80812091AB0230E02F5FBE
:102BC0003F4F2F7333272093AB0290E008958FEF90
:102BD0009FEF0895860F911DFC0183A18F3F19F08F
:102BE000642F0C946D0C0895EF92FF920F931F9336
:102BF000CF938C01C42F7901862F90E0FC0131978F
:102C0000E730F10508F06BC0EC5CFF4F0C94B32487
:102C1000780183E2E80EF11C005D1F4FF70180810F
:102C20008F3F41F061E00E94B90C61E0F7018081C3
:102C30000E946D0CFFEFEF1AFF0AE016F10671F724
:102C400061E08DE00E94B90C60E08DE00E946D0CA7
:102C500061E08BE00E94B90C60E08BE00E946D0C9B
:102C600061E08AE00E94B90C61E08AE00E946D0C8C
:102C70001CBC80E58CBDC23090F581E08DBD2FC0BD
:102C800061E004C0411106C041E062E0C8010E9459
:102C9000EA1525C040E064E0C8010E94EA1540E062
:102CA000F4CFF80183A18F3FD1F060E0EFCF842F04
:102CB0000E943E1514C0CC2391F0F70181917F0151
:102CC0000E943E15C150F7CFCC2349F0F701849103
:102CD0000E943E15FFEFEF1AFF0AC150F5CF81E0C9
:102CE000CF911F910F91FF90EF900895FC01878184
:102CF0009085009711F00C946F260895DB011496CF
:102D0000ED91FC91159720E030E065E00994DB013E
:102D10001496ED91FC91159720E030E062E0099463
:102D2000DB011496ED91FC91159720E030E063E013
:102D30000994CF92DF92EF92FF920F931F93CF935C
:102D4000DF938C017B016A0180E0F601C49181115F
:102D50000BC0CF3F09F44CC04C2FB701C8010E94F3
:102D60007E16811143C049C0CF3F11F44FEFF5CF1C
:102D7000CE3F09F444C0C03FC8F5C03E38F04C2FE8
:102D80004F70B701C8010E94871630C0C03D38F0AF
:102D90004C2F4F70B701C8010E94901627C0C03C4D
:102DA000F8F0D7011496ED91FC91159720E030E0F2
:102DB00040E064E0C8010995C295C07FCE5FD0E0D5
:102DC000CE010E94330ED7011496ED91FC91159718
:102DD00020E030E041E064E0C8010995CE0104C084
:102DE000C7FD04C08C2F90E00E94330E80E001C02C
:102DF00081E0BFEFCB1ADB0AA8CF80E001C081E001
:102E0000DF91CF911F910F91FF90EF90DF90CF90C6
:102E100008950F931F93CF93DF93EC01162F042F88
:102E20001B821A8288EE93E0A0E0B0E08C839D8341
:102E3000AE83BF8387E491E0998388831F8A1E8ACB
:102E4000198E188E1B8E1A8E1D8E1C8E6E8D6E7FA7
:102E500020FB61F96E8F6695617081E06827842F91
:102E60000E946D0C61E0802F0E94B90C402F50E051
:102E7000FA01E052F14FE491E88BFA01E250F14F90
:102E8000E491F0E0EE0FFF1FEC50F14F859194912B
:102E90009A8B898B60E0812F0E94B90C8E8D81FD09
:102EA00004C061E0812F0E946D0C1C87612F70E0CF
:102EB000FB01E052F14FE491ED87FB01E250F14F4D
:102EC000E491F0E0EE0FFF1FEA52F14F85919491EB
:102ED0009F878E87DF91CF911F910F9108951F9249
:102EE0000F920FB60F9211242F933F934F935F933E
:102EF0006F937F938F939F93AF93BF93EF93FF93C2
:102F0000E091AD02F091AE02309709F451C0968D78
:102F1000A685B785858591FF04C09C91892329F4F6
:102F200047C09C91892309F043C0A389B4899C912F
:102F30008589809589238C93868997890197F1F7F4
:102F4000608D718DA685B785558538E020E0CB0171
:102F50000197F1F7822F90E095958795282F4C9156
:102F6000452309F02068315091F7868D81FD209529
:102F70008091AC0290E001968F7399273091AB025B
:102F8000381749F0A091AC02B0E0A559BD4F2C9381
:102F90008093AC0203C0868D8160868F828D938D75
:102FA0000197F1F7A389B4899C918589892B8C932A
:102FB000FF91EF91BF91AF919F918F917F916F9111
:102FC0005F914F913F912F910F900FBE0F901F90E7
:102FD0001895E091AD02F091AE02E817F90769F497
:102FE000A389B4899C918589809589238C931092BB
:102FF000AE021092AD0281E0089580E00895AF9294
:10300000BF92CF92DF92EF92FF920F931F93CF93D5
:10301000DF93FC01A780B084A114B10409F462C05D
:103020006A017B01EC0182818501F4E08F9F000D34
:10303000111D1124F80120813181428153816B815E
:103040007C818D819E810E94C0246B837C838D83D3
:103050009E83F801C082D182E282F3821A81F50157
:1030600084E0189FE00DF11D1124208131814281FF
:1030700053816B817C818D819E810E94C1246B83F1
:103080007C838D839E831F5F1A83B8801B1101C0D0
:103090001A821981111105C0CD86DE86EF86F88A65
:1030A0000AC029853A854B855C85C701B6010E9417
:1030B000282B87FF05C0C986DA86EB86FC860EC002
:1030C0002D853E854F855889C701B6010E94D525BB
:1030D000181624F4CD86DE86EF86F88A1B1510F4C8
:1030E0001F5F1983DF91CF911F910F91FF90EF9098
:1030F000DF90CF90BF90AF900895CF93DF93EC0116
:10310000688324E0629FC00111240E94DA25988719
:103110008F83009709F4188219821A821B821C82FD
:103120001D821E8240E050E060EC7FE749875A87AD
:103130006B877C874D875E876F87788B2881FC0142
:1031400080E0821731F011921192119211928F5FEB
:10315000F8CFDF91CF910895AF92BF92CF92DF92D7
:10316000EF92FF920F931F93CF93DF931F92CDB7F0
:10317000DEB75C017B018B016C0182E0C80ED11CC3
:10318000F80161918F01C50169830E944C2C69810E
:10319000681719F0C5010E94542CFFEFAF1ABF0A3F
:1031A000AC14BD0469F7C7010F90DF91CF911F9157
:1031B0000F91FF90EF90DF90CF90BF90AF90089568
:1031C000EF92FF920F931F93CF93DF931F92CDB790
:1031D000DEB78C017B01FB01608169830E944C2C6E
:1031E0006981681719F0C8010E94542CC7010F901B
:1031F000DF91CF911F910F91FF90EF9008950F9362
:103200001F93CF93DF938C01EB010E944C2C88839A
:10321000C80101960E944C2C8983CE01DF91CF9189
:103220001F910F91089566EC7EE085E093E00E9487
:10323000F10B6CE271E080E090E00E941A0D0C94BA
:10324000000008958F929F92AF92BF92CF92DF922B
:10325000EF92FF922091C5033091C6038217930726
:10326000B8F54B01AA24BB24F82DC52ED62EE72E87
:10327000FF24EC2D342F2091CA03222361F0829E7B
:1032800040011124F92DC29E60011124ED2D429FB1
:10329000A0011124352FAC01440F551F840F951F39
:1032A0004091CB035091CC03840F951F2091CD0307
:1032B000DC01A20FB11DFC932091CE03DC01A20F13
:1032C000B11DEC932091CF03FC01E20FF11D30837F
:1032D000FF90EF90DF90CF90BF90AF909F908F9036
:1032E00008950F931F93CF93DF93CDB7DEB7299740
:1032F0000FB6F894DEBF0FBECDBF8091CB03909187
:10330000CC03892B09F4A0C00E94F50C0091D103D5
:103310001091D2032091D3033091D403DC01CB016F
:10332000801B910BA20BB30BC297A105B10560F3F3
:10333000F8948091C7039091C8039A838983E091A0
:10334000CB03F091CC03DF011196808189879091A6
:10335000D003E091D503F091D6038091D70391FF7C
:103360002EC09081982B98879081809589238F8398
:103370008F818C8388E08B8358856F8149853B8161
:103380002C8189819A81508347FD252F3A9520838E
:10339000262F39F0441F00C000006083000000C0E9
:1033A000F2CF38E04D9160830000019761F7F09310
:1033B000D603E093D50349873B832C8338C09081A3
:1033C000982B98879081809589238F838F818E8316
:1033D00088E08D8358856F8149853D812E81898163
:1033E0009A81508347FD252F00C000C0208300C074
:1033F00000C000C000C000C060830000262F3A95C6
:1034000041F0441F000000C000C000C000C000C068
:10341000E8CF38E04D9100C0608300C0019709F704
:10342000F093D603E093D50349873D832E839A8397
:10343000898378940E94F50C6093D1037093D20332
:103440008093D3039093D40329960FB6F894DEBFEC
:103450000FBECDBFDF91CF911F910F910895CF93F4
:10346000DF93FC01138E128E118E108E178A168A2E
:103470008DE991E0958F848F8485863108F04DC069
:103480002DEB30E0378B268B2BE931E0318F208F0D
:103490002CE231E0338F228F90916800883050F019
:1034A00021E08E3008F420E081E001C0880F2A95E9
:1034B000EAF701C084E0892B8093680094859830F6
:1034C00038F09E3040F0963148F020E030E008C0FF
:1034D0002DE630E005C02BE630E002C02CE630E0FF
:1034E000348B238B983030F481E001C0880F9A959B
:1034F000EAF70EC0292F30E09E3018F42850310929
:1035000002C02E50310981E001C0880F2A95EAF7E8
:10351000858B848D958D0197F1F7828D938D892B05
:10352000E9F08091AD029091AE028E179F07B1F045
:10353000EF01009711F00E94E9178E8D8E7F8E8F1C
:103540001092AC021092AB02D093AE02C093AD02C7
:10355000EB89FC8990818D89892B8083DF91CF91C4
:1035600008952091C1033091C2032817390749F00B
:103570009093C2038093C103E091BF03F091C00315
:1035800009940895EF92FF920F931F93CF93DF93C7
:10359000EC018C01085E1F4F4991E090A203F0906E
:1035A000A30350E060E070E020E130E0C7010E943A
:1035B000A10B63ED71E0C7010E94EF0BC017D107AB
:1035C00059F78091A2039091A303DF91CF911F91AE
:1035D0000F91FF90EF900C949D0B8F929F92AF9262
:1035E000BF92EF92FF920F931F93CF93DF93CDB7CC
:1035F000DEB76F970FB6F894DEBF0FBECDBF7C016C
:103600008B0120E04091BA036091B903CE0101968D
:103610000E940917CE0101960E942F1AF7014191CD
:10362000BF0150E0CE0101960E94CF0764E670E032
:1036300080E090E00E941A0D5801F8E1AF0EB11C35
:103640007801CE0101960E94B115892B51F0CE016F
:1036500001960E94C915F70181937F01EA15FB05C8
:1036600081F7CE0101960E94E9178091BE0388235D
:1036700019F0C8010E94C21AF8018081863109F050
:1036800052C0818190E0E80FF91F4281F80120E0EB
:1036900030E00196BF01601B710B8617970724F07D
:1036A0005191250F311DF6CF21954217F1F1C80137
:1036B0000E94C21AF801818190E0E80FF91F828010
:1036C000912CA12CB12CF801E12CF12C01969F0139
:1036D000201B310B8217930724F02191E20EF11C7D
:1036E000F6CF0091A2031091A3036DE37FE0C80120
:1036F0000E94F10BE1944E2D50E060E070E020E17B
:1037000030E0C8010E94A10B6AE37FE0C8010E947B
:10371000F10B20E130E0B501A401C8010E94A10B2A
:10372000C8010E949D0B10E001C011E087E491E008
:103730009A838983CE0101960E94E917812F6F96A3
:103740000FB6F894DEBF0FBECDBFDF91CF911F91B2
:103750000F91FF90EF90BF90AF909F908F90089542
:10376000EF92FF920F931F93CF93DF93CDB7DEB706
:10377000A3970FB6F894DEBF0FBECDBF8093BE03F4
:1037800085E0EBE6F1E0DE015F9601900D928A950F
:10379000E1F7BE016F5F7F4FCE014F960E94ED1A99
:1037A000811116C062E17FE08091A2039091A30392
:1037B0000E94F10B8091A2039091A303DC01ED9193
:1037C000FC910284F385E02D099580E090E01FC014
:1037D0000C8110E0102F00278D81080F111D8091A2
:1037E000BE03882399F0E090A203F090A30365ED57
:1037F00071E0C7010E94EF0BA80160E070E02AE0D1
:10380000C7010E94540BC7010E949D0BC801A396DB
:103810000FB6F894DEBF0FBECDBFDF91CF911F91E1
:103820000F91FF90EF9008951F93CF93DF9311E0D6
:10383000180F2091CA031217A1F1C091CB03D091A8
:10384000CC032150B9F08F3F59F430E040E050E014
:103850006FEF7FEF80E090E00E94622CB9010CC016
:10386000812F90E0982F88270197622F70E00E94A7
:103870008B2402C060E070E0FE014091C7035091CC
:10388000C803CF018C1B9D0B8417950740F4408122
:10389000469FC001479F900D11249193EECF109346
:1038A000CA03DF91CF911F9108952091B702309103
:1038B000B8022817390709F444C09093B8028093DE
:1038C000B702009709F437C02091CA02FC01211108
:1038D00007C03596E491E093CB02FC013C960FC003
:1038E000213039F43F96E491E093CB02FC017096CD
:1038F00006C03D96E491E093CB02FC013E96849194
:103900008093CC028091CB02082E000C990B209161
:10391000CC02821B910927FD93952091CD02203482
:1039200041F0829FC001112426E0969587952A9543
:10393000E1F78093CE0284E199E09093C9028093ED
:10394000C8020895CF93DF93CDB7DEB7E1970FB6E6
:10395000F894DEBF0FBECDBF789484B5826084BD7D
:1039600084B5816084BD85B5826085BD85B5816083
:1039700085BD80916E00816080936E001092810001
:1039800080918100826080938100809181008160BC
:10399000809381008091800081608093800080917D
:1039A000B10084608093B1008091B0008160809309
:1039B000B00080917A00846080937A0080917A00D0
:1039C000826080937A0080917A00816080937A008F
:1039D00080917A00806880937A001092C100E09113
:1039E0001503F091160382E08083E0911103F091BA
:1039F00012031082E0911303F09114038FEC808383
:103A000010921D03E0911903F0911A0386E0808360
:103A1000E0911703F0911803808180618083E09129
:103A20001703F0911803808188608083E091170369
:103A3000F0911803808180688083E0911703F091F2
:103A4000180380818F7D808389EB90E00E944C2C4D
:103A5000809302018F3F19F487E480930201109153
:103A6000020160E771E085E093E00E94EF0B412FD7
:103A700050E060E070E02AE085E093E00E94540BA3
:103A800085E093E00E949D0B6AEB70E085E093E097
:103A90000E94F10B66E870E085E093E00E94F10B74
:103AA000BE01615E7F4F85EB90E00E94FF180F8D95
:103AB00018A166E770E085E093E00E94F10BA80191
:103AC000110F660B770B2AE030E085E093E00E944F
:103AD000A10B85E093E00E949D0B8AE390E00E9499
:103AE0004C2C8093DB01BE016F5F7F4F80E190E043
:103AF0000E94FF1889819A81019621F48BE791E059
:103B00000E94DD1261E08091C9030E94B90C60E05F
:103B10008091C9030E946D0C2DEEE22E22E0F22E60
:103B200000E010E0D7014D915D916D917D917D0197
:103B3000C8010E9422190F5F1F4F0630110591F72F
:103B400084E10E94141C0E9471198091E201882373
:103B500041F082ED91E090930101809300010E9479
:103B6000B50F0E94CB13CC24CA94DC2C7601809133
:103B70004B02882361F080915102811108C00E949C
:103B8000540D613E73498440910508F04AC3809109
:103B90004B028823B1F08090470290904802A09099
:103BA0004902B0904A020E94540DDC01CB018819F1
:103BB0009909AA09BB0989399A43A105B10508F4F5
:103BC00086C088ED93E00E94E9171092BE038091B1
:103BD000BB039091BC030E944C2CB82EF1E08F13D4
:103BE00013C082E090E00E94B11A0E94540D613A25
:103BF00078468640910508F41AC360E08091BB03C3
:103C00009091BC030E94542C8091BE030E94B01B73
:103C10008C01892B09F461C30E94540D603D7B4FD8
:103C20008140910508F44EC383E090E00E94B11AF0
:103C300081E08093BD03B80180E090E00E942D2BCD
:103C4000AB01BC0184EA93E00E94FF176091A503D9
:103C5000662309F483C370E080E090E00E942F2B7C
:103C60009B01AC016091A7037091A8038091A90307
:103C70009091AA030E942D250E949F258B0188ED1B
:103C800093E00E942F1A8091BD038093DA0188236C
:103C900069F0C801012E000CAA0BBB0B8093DC015C
:103CA0009093DD01A093DE01B093DF010F3F1F4F22
:103CB00041F4C092DC01D092DD01E092DE01F0928D
:103CC000DF0168EE73E080E090E00E941A0D0E9430
:103CD000CC118091500281110E94F9130E94B50FFE
:103CE00085E093E00E941C08892B09F48DC265E0F1
:103CF00073E080E395E70E945E13882309F484C291
:103D000063EE71E0CE014F960E943F0B63EE71E0CF
:103D100085E093E00E94EF0B85E093E00E949D0B0D
:103D200065EE72E0CE0101960E94070BBE016F5F47
:103D30007F4FCE014F960E948D0A182FCE0101961B
:103D40000E94020B1123A1F025EE31E0C9012F5F83
:103D50003F4FDC014C914032C9F30E94DD120E94BA
:103D6000CC1168E171E085E093E00E94F10B3EC266
:103D70006FED72E0CE0101960E94070BBE016F5FEE
:103D80007F4FCE014F960E948D0A182FCE010196CB
:103D90000E94020B112339F14091500281E0142F4F
:103DA00018271093500285E093E00E949D0B6EE16E
:103DB00071E085E093E00E94F10B412F50E060E05C
:103DC00070E02AE030E085E093E00E94A10B85E0FE
:103DD00093E00E949D0B80915002882309F406C253
:103DE0000E94F91303C267ED72E0CE0101960E94B2
:103DF000070BBE016F5F7F4FCE014F960E948D0A69
:103E0000182FCE0101960E94020B112399F000E0B9
:103E100010E06FEFC8010E94542C0F5F1F4F0C324F
:103E2000B1E01B07B1F76EE271E085E093E00E941C
:103E3000F10B56C16FEC72E0CE0101960E94070BA8
:103E4000BE016F5F7F4FCE014F960E948D0A182FE3
:103E5000CE0101960E94020B112319F00E947114E9
:103E6000C5C16BEC72E0CE0101960E94070BBE014A
:103E70006F5F7F4FCE014F960E948D0A182FCE01A3
:103E800001960E94020B1123A1F126EE31E0C90137
:103E90002F5F3F4FFC0140814032C9F30E94B62A98
:103EA0008F3F91054CF48739910514F086E990E035
:103EB00097FF02C080E090E0182F8093DB0167E459
:103EC00071E085E093E00E94F10B412F50E060E04B
:103ED00070E02AE085E093E00E94540B85E093E0D7
:103EE0000E949D0B6091DB018AE390E00E94542CBC
:103EF0007DC167EC72E0CE0101960E94070BBE0106
:103F00006F5F7F4FCE014F960E948D0A182FCE0112
:103F100001960E94020B112369F087EE91E00E9446
:103F2000B62A8983BE016F5F7F4F87EB90E00E94C6
:103F3000E0185CC163EC72E0CE0101960E94070BB1
:103F4000BE016F5F7F4FCE014F960E948D0A182FE2
:103F5000CE0101960E94020B112329F180E9882EDF
:103F600099249394A12CB12C8092DC019092DD01D4
:103F7000A092DE01B092DF010E94CC110E94B50F29
:103F80006AEF70E080E090E00E941A0DF4E68F0E78
:103F9000911CA11CB11C2CE182162CE09206A104FC
:103FA000B10411F723C16DEB72E0CE0101960E94BE
:103FB000070BBE016F5F7F4FCE014F960E948D0AA7
:103FC000182FCE0101960E94020B112339F16EE5E4
:103FD00071E085E093E00E94F10B0E94CB1388ED25
:103FE00093E00E94B115892B49F088ED93E00E947F
:103FF000C915682F85E093E00E94530885E093E09F
:104000000E941C08892B59F385E093E00E94FA076F
:10401000682F88ED93E00E945D15E1CF69EB72E0B7
:10402000CE0101960E94070BBE016F5F7F4FCE014C
:104030004F960E948D0A182FCE0101960E94020B06
:10404000112339F186EE91E0BC010196DB012C9140
:104050002032D1F3CE0101960E943F0B89819A81D3
:10406000009719F00E94D42A03C060E070E0CB01F1
:104070006093DC017093DD018093DE019093DF019A
:10408000CE0101960E94020B0E9432110E94B50FD0
:10409000ADC065EB72E0CE0101960E94070BBE0138
:1040A0006F5F7F4FCE014F960E948D0A182FCE0171
:1040B00001960E94020B1123B1F069E671E085E0E0
:1040C00093E00E94F10B85E093E00E949D0B81E05C
:1040D0008983BE016F5F7F4F88EB90E00E94E018FC
:1040E0000E94131983C061EB72E0CE0101960E9419
:1040F000070BBE016F5F7F4FCE014F960E948D0A66
:10410000182FCE0101960E94020B1123A9F026EE72
:1041100031E0C9012F5F3F4FFC0140814032C9F3BC
:104120000E94B62A9A838983BE016F5F7F4F85EB19
:1041300090E00E94AC185AC06CEA72E0CE01019681
:104140000E94070BBE016F5F7F4FCE014F960E940A
:104150008D0A182FCE0101960E94020B112319F02F
:104160000E94B21343C067EA72E0CE0101960E943A
:10417000070BBE016F5F7F4FCE014F960E948D0AE5
:10418000182FCE0101960E94020B112319F00E94F4
:10419000D3142CC063EA72E0CE0101960E94070B93
:1041A000BE016F5F7F4FCE014F960E948D0A182F80
:1041B000CE0101960E94020B1123C1F08BA19CA19C
:1041C000059728F06F8D78A16115710529F410927B
:1041D0004C026CE472E002C06C5F7F4F88ED93E0AC
:1041E0000E94EF0B88ED93E00E949D0B61EA72E064
:1041F00085E093E00E94F10B85E093E00E949D0B27
:10420000CE014F960E94020B80914B02882309F445
:1042100045C188ED93E00E94B115892B09F043C197
:104220003DC10E94B21381E080935102B0CC8091D5
:10423000C303811108C00E94540D61347E4785403C
:10424000910508F04DC08091BE030E94B01B5C0137
:104250000E94540D2B013C010091A2031091A30375
:104260006BE071E0C8010E94F10BC301B20128EEBE
:1042700033E040E050E00E94C32CBA01A9012AE0DB
:10428000C8010E94540B67E071E0C8010E94F10B65
:10429000A501BB0C660B770B2AE030E0C8010E9439
:1042A000A10B62E071E0C8010E94F10B8091A203B2
:1042B0009091A303DC01ED91FC910284F385E02D44
:1042C00009950BC00632E2E01E0709F0ADCC81E093
:1042D00090E00E94B11A1092BD030FEF1FEFCFCCF8
:1042E0006CED70E08091A2039091A3030E94F10B0A
:1042F0008091A2039091A303DC01ED91FC910284D3
:10430000F385E02D099597E0ECE1F1E0DE015F96A1
:1043100001900D929A95E1F7BE016F5F7F4FCE013C
:104320004F960E94ED1A482F50E060E070E02AE0BE
:1043300030E08091A2039091A3030E94A10B009111
:10434000A2031091A30367ED70E0C8010E94F10B76
:10435000C8010E949D0BB092C30375CF60E070E06E
:1043600080EC9FE789CC88ED93E00E94B115892B02
:1043700009F494C068ED73E088EE93E00E945E1348
:10438000882309F48BC063EE71E0CE018C960E9405
:104390003F0B68E972E0CE0101960E94070BBE0157
:1043A0006F5F7F4FCE018C960E94730A5C01CE0135
:1043B00001960E94020BB7FC07C01093E2018091A6
:1043C000E101882309F47BC06DE872E0CE0101961B
:1043D0000E94070BBE016F5F7F4FCE018C960E943B
:1043E0008D0A082FCE0101960E94020B0111109335
:1043F0004F0262E872E0CE0101960E94070BBE01F7
:104400006F5F7F4FCE018C960E94730A5C01CE01D4
:1044100001960E94020BB7FECAC06BE772E0CE01A4
:1044200001960E94070BBE016F5F7F4FCE018C96F5
:104430000E94730A5C01CE0101960E94020BB7FE36
:1044400010934E0265E772E0CE0101960E94070BC1
:10445000BE016F5F7F4FCE018C960E94730A5C0194
:10446000CE0101960E94020BB7FEABC062E772E07C
:1044700085E093E00E94F10B63EE71E085E093E04C
:104480000E94EF0B85E093E00E949D0BCE018C967D
:104490000E94020B80914B02811165CF0E94D314C0
:1044A0000E94BC0864CB0E94540D60934702709335
:1044B00048028093490290934A0211E0EBCF109397
:1044C000E1016CEF71E0CE0186960E94070B8091AE
:1044D000E001882309F455C063EF71E0CE01019635
:1044E0000E94070B18A21F8E1AA219A21CA21BA2BF
:1044F00069817A816115710539F04D815E81CE0146
:104500004F960E94E10A04C0CE014F960E94CF0A46
:104510008AA59BA58EA09FA0ABA0BCA081149104EE
:1045200009F459C00097A9F0A80EB91EB501CE0133
:104530004F960E94A80A882309F44DC02F8D38A1F8
:104540008BA19CA1B401820F931F0E94E627BCA2FD
:10455000ABA26F8D78A16115710539F04BA15CA1FB
:10456000CE0186960E94E10A04C0CE0186960E9482
:10457000CF0ACE014F960E94020BCE0101960E94F7
:10458000020BAEA0BFA00E94540D6093470270932F
:1045900048028093490290934A02B50188ED93E066
:1045A0000E945C14CE0186960E94020B0DCF0E94E1
:1045B00071148091E001882309F42FCF10934D02EC
:1045C0002CCF80914D02882309F450CF10924D02D8
:1045D0000E94B2134BCFCE014F960E94CF0AB9CFA3
:1045E00084EA93E00E9476168091CB039091CC03ED
:1045F000009711F00E946F2660E08091C9030E942D
:10460000B90C87E491E09093D9038093D80388EDA7
:1046100093E00E94E91787EF93E00E94761688E006
:1046200094E00C947616CF9310920803109207032F
:1046300088EE93E0A0E0B0E08093090390930A0332
:10464000A0930B03B0930C0387E291E090930603D1
:104650008093050385EC90E09093120380931103FF
:1046600084EC90E0909314038093130380EC90E02B
:10467000909316038093150381EC90E090931803B8
:104680008093170382EC90E090931A0380931903B0
:1046900086EC90E090931C0380931B0310921E0302
:1046A00010921F03109220031092210364E088E00F
:1046B00094E00E947D1864E087EF93E00E947D18EB
:1046C00020E04AE069E088ED93E00E94091786E067
:1046D00090E09093C6038093C50382E190E09093AD
:1046E000C8038093C7038FE08093C9031092CA0365
:1046F00083E08093D0031092D1031092D2031092E2
:10470000D3031092D403EDE0FFE0E491F0E0EE0F6C
:10471000FF1FEC50F14F859194919093D6038093B5
:10472000D503EFEEFEE0E491E093D70382E190E061
:104730000E94DA259093CC038093CB03009729F055
:1047400022E1FC0111922A95E9F7C1E0C093CD0363
:104750001092CE0382E08093CF0385E093E09093A4
:10476000A3038093A20362E084EA93E00E947D1891
:1047700080E699E7AEEFBFEF8093B5039093B60361
:10478000A093B703B093B80380E18093B90381E1AC
:104790008093BA0388EB90E09093BC038093BB03B3
:1047A0001092BD031092BE038DE39EE09093C00370
:1047B0008093BF031092C2031092C1031092C303EF
:1047C00083E48093C40380E09FEFA0E0B0E0809397
:1047D000ED029093EE02A093EF02B093F00280E01E
:1047E0009FEFACE8B0E08093F1029093F202A093C7
:1047F000F302B093F40280E09FEFAFEFB0E080935C
:10480000F5029093F602A093F702B093F80280E0CD
:1048100098ECAFEFB0E08093F9029093FA02A09386
:10482000FB02B093FC0280E098E7AFEFB0E080932A
:10483000FD029093FE02A093FF02B093000380E07C
:1048400090E0AFEFB0E08093010390930203A09358
:104850000303B09304031092B2021092B10287E5F1
:1048600091E09093B0028093AF021092EA0210920E
:10487000EB021092EC021092B8021092B702109262
:10488000BA021092B9021092BC02C093BB0282E23B
:104890008093BD021092C2021092C102E6EDF2E0D6
:1048A0009FEF8EE08E0F91938E13FDCF81E080936A
:1048B000D30224E139E03093C9022093C8028093E7
:1048C000CA021092CB021092CC0280E48093CD02F7
:1048D0001092CE0286EC98E09093E5028093E40279
:1048E0008CE091E09093B6028093B50286E08093CD
:1048F000D80287E08093D70288E08093D60283EBCA
:1049000092E00E94AE0D87E691E09093B002809312
:10491000AF02CF910895AA1BBB1B51E107C0AA1F8C
:10492000BB1FA617B70710F0A61BB70B881F991F50
:104930005A95A9F780959095BC01CD01089597FBF4
:10494000072E16F4009407D077FD09D00E948B241F
:1049500007FC05D03EF4909581959F4F0895709582
:1049600061957F4F0895EE0FFF1F0590F491E02DA4
:1049700009940E94E52CB7FF0895821B930B0895BC
:104980005058BB27AA270E94D8240C94122C0E94AE
:10499000042C38F00E940B2C20F039F49F3F19F4BE
:1049A00026F40C94012C0EF4E095E7FB0C94FB2B01
:1049B000E92F0E94232C58F3BA1762077307840764
:1049C000950720F079F4A6F50C94452C0EF4E095AB
:1049D0000B2EBA2FA02D0B01B90190010C01CA01B9
:1049E000A0011124FF27591B99F0593F50F4503E64
:1049F00068F11A16F040A22F232F342F4427585F56
:104A0000F3CF469537952795A795F0405395C9F76D
:104A10007EF41F16BA0B620B730B840BBAF0915025
:104A2000A1F0FF0FBB1F661F771F881FC2F70EC0C4
:104A3000BA0F621F731F841F48F487957795679597
:104A4000B795F7959E3F08F0B0CF9395880F08F083
:104A50009927EE0F9795879508950E9441250C940C
:104A6000122C0E940B2C58F00E94042C40F029F4C8
:104A70005F3F29F00C94FB2B51110C94462C0C94A5
:104A8000012C0E94232C68F39923B1F3552391F351
:104A9000951B550BBB27AA2762177307840738F0AD
:104AA0009F5F5F4F220F331F441FAA1FA9F335D00A
:104AB0000E2E3AF0E0E832D091505040E695001CBE
:104AC000CAF72BD0FE2F29D0660F771F881FBB1F78
:104AD000261737074807AB07B0E809F0BB0B802D56
:104AE000BF01FF2793585F4F3AF09E3F510578F082
:104AF0000C94FB2B0C94462C5F3FE4F3983ED4F3CC
:104B0000869577956795B795F7959F5FC9F7880F55
:104B1000911D9695879597F90895E1E0660F771FA7
:104B2000881FBB1F621773078407BA0720F0621B38
:104B3000730B840BBA0BEE1F88F7E09508950E9463
:104B4000A6256894B1110C94462C08950E942B2C34
:104B500088F09F5798F0B92F9927B751B0F0E1F03E
:104B6000660F771F881F991F1AF0BA95C9F714C0EE
:104B7000B13091F00E94452CB1E008950C94452C81
:104B8000672F782F8827B85F39F0B93FCCF3869527
:104B900077956795B395D9F73EF490958095709584
:104BA00061957F4F8F4F9F4F08950E946A2B08F4A5
:104BB0008FEF0895CF93DF938230910510F482E058
:104BC00090E0E0919B04F0919C0420E030E0C0E094
:104BD000D0E0309711F14081518148175907C0F05A
:104BE0004817590761F482819381209719F09B83BC
:104BF0008A832BC090939C0480939B0426C021152C
:104C0000310519F04217530718F49A01BE01DF016C
:104C1000EF010280F381E02DDCCF2115310509F190
:104C2000281B390B2430310590F412968D919C91FC
:104C300013976115710521F0FB019383828304C0F2
:104C400090939C0480939B04FD01329644C0FD0127
:104C5000E20FF31F81939193225031092D933C93DE
:104C60003AC02091990430919A04232B41F4209169
:104C700014013091150130939A04209399042091E6
:104C80001201309113012115310541F42DB73EB7C2
:104C90004091160150911701241B350BE0919904A6
:104CA000F0919A04E217F307A0F42E1B3F0B28178C
:104CB000390778F0AC014E5F5F4F2417350748F095
:104CC0004E0F5F1F50939A044093990481939193E0
:104CD00002C0E0E0F0E0CF01DF91CF9108950F93A3
:104CE0001F93CF93DF93009709F48CC0FC01329798
:104CF0001382128200919B0410919C0401151105EE
:104D000081F420813181820F931F20919904309189
:104D10009A042817390779F5F0939A04E0939904D7
:104D200071C0D80140E050E0AE17BF0750F41296B2
:104D30002D913C911397AD012115310509F1D90150
:104D4000F3CF9D01DA013383228360817181860F65
:104D5000971F8217930769F4EC0128813981260F88
:104D6000371F2E5F3F4F318320838A819B8193833E
:104D70008283452B29F4F0939C04E0939B0442C06A
:104D80001396FC93EE931297ED01499159919E0170
:104D9000240F351FE217F30771F480819181840F8E
:104DA000951F029611969C938E9382819381139600
:104DB0009C938E931297E0E0F0E0D80112968D91CB
:104DC0009C911397009719F0F8018C01F6CF8D9103
:104DD0009C9198012E5F3F4F820F931F2091990461
:104DE00030919A042817390769F4309729F4109202
:104DF0009C0410929B0402C01382128210939A04A6
:104E000000939904DF91CF911F910F910895A0E035
:104E1000B0E0EDE0F7E20C94902CEC01009721F467
:104E2000CB010E94DA25B8C0FC01E60FF71F9C01F8
:104E300022503109E217F30708F4ACC0D9010D91F3
:104E40001C91119706171707B0F00530110508F4EB
:104E50009FC0C80104978617970708F499C00250AD
:104E60001109061B170B019311936D937C93CF01CE
:104E70000E946F268DC05B01A01AB10A4C01800E02
:104E8000911EA0919B04B0919C0440E050E0E12C65
:104E9000F12C109709F44AC0A815B905D1F56D9009
:104EA0007C901197630182E0C80ED11CCA14DB0408
:104EB00080F1A3014A195B096A0182E0C80ED11C86
:104EC0001296BC9012971396AC91B5E0CB16D10414
:104ED00040F0B282A38351834083D9016D937C93C8
:104EE0000AC00E5F1F4FC301800F911FF90191830C
:104EF0008083EB2DFA2FE114F10431F0D7011396E2
:104F0000FC93EE93129744C0F0939C04E0939B04AF
:104F10003FC08D919C9111974817590708F4AC0137
:104F20007D0112960D90BC91A02DB3CF8091990474
:104F300090919A0488159905E1F446175707C8F42B
:104F40008091120190911301009741F48DB79EB7A3
:104F50004091160150911701841B950BE817F90732
:104F6000C8F4F0939A04E0939904F9017183608383
:104F70000FC0CB010E94DA257C01009759F0A801EF
:104F8000BE010E94D627CE010E946F26C70104C031
:104F9000CE0102C080E090E0CDB7DEB7EEE00C9429
:104FA000AC2C81E090E0F8940C94F42CFB01DC0133
:104FB00002C001900D9241505040D8F70895DC0195
:104FC00001C06D9341505040E0F70895FB01DC01B2
:104FD00001900D920020E1F70895FB01DC014150A2
:104FE000504030F08D910190801919F40020B9F7EC
:104FF000881B990B0895FB0151915523A9F0BF011E
:10500000DC014D9145174111E1F759F4CD010190B3
:10501000002049F04D9140154111C9F3FB014111A8
:10502000EFCF81E090E001970895AEE0B0E0EBE1D2
:10503000F8E20C949A2C0D891E8986E08C831A83E1
:1050400009838FEF9FE79E838D83AE01475E5F4F9D
:105050006F89788DCE0101960E9438282F8138857E
:10506000F801E20FF31F10822E96E4E00C94B62CA8
:10507000ACE0B0E0EEE3F8E20C948C2C7C016B0128
:105080008A01FC0117821682838181FFBDC1CE0196
:1050900001964C01F7019381F60193FD859193FFF1
:1050A00081916F01882309F4ABC1853239F493FDF6
:1050B000859193FF81916F01853229F4B70190E0CA
:1050C0000E94202AE7CF512C312C20E02032A0F47E
:1050D0008B3269F030F4803259F0833269F4206108
:1050E0002CC08D3239F0803339F4216026C0226023
:1050F000246023C0286021C027FD27C030ED380F71
:105100003A3078F426FF06C0FAE05F9E300D112495
:10511000532E13C08AE0389E300D1124332E2062A6
:105120000CC08E3221F426FD6BC1206406C08C3683
:1051300011F4206802C0883641F4F60193FD859190
:1051400093FF81916F018111C1CF982F9F7D95545D
:10515000933028F40C5F1F4FFFE3F9830DC08336B3
:1051600031F0833771F0833509F05BC022C0F8015C
:10517000808189830E5F1F4F44244394512C540136
:1051800015C03801F2E06F0E711CF801A080B180EB
:1051900026FF03C0652D70E002C06FEF7FEFC501F1
:1051A0002C870E94152A2C0183012C852F77222E13
:1051B00017C03801F2E06F0E711CF801A080B180B9
:1051C00026FF03C0652D70E002C06FEF7FEFC501C1
:1051D0002C870E940A2A2C012C852068222E83010C
:1051E00023FC1BC0832D90E048165906B0F4B7018C
:1051F00080E290E00E94202A3A94F4CFF50127FC47
:10520000859127FE81915F01B70190E00E94202ADD
:1052100031103A94F1E04F1A51084114510471F7DA
:10522000E5C0843611F0893639F5F80127FF07C04B
:1052300060817181828193810C5F1F4F08C0608102
:105240007181072E000C880B990B0E5F1F4F2F7674
:10525000722E97FF09C090958095709561957F4F4C
:105260008F4F9F4F2068722E2AE030E0A4010E94E9
:10527000582AA82EA81844C0853729F42F7EB22EAC
:105280002AE030E025C0F22FF97FBF2E8F36C1F023
:1052900018F4883579F0B4C0803719F0883721F0D8
:1052A000AFC02F2F2061B22EB4FE0DC08B2D8460B5
:1052B000B82E09C024FF0AC09F2F9660B92E06C0E1
:1052C00028E030E005C020E130E002C020E132E01B
:1052D000F801B7FE07C060817181828193810C5F04
:1052E0001F4F06C06081718180E090E00E5F1F4F0C
:1052F000A4010E94582AA82EA818FB2DFF777F2E04
:1053000076FE0BC0372D3E7FA51450F474FE0AC004
:1053100072FC08C0372D3E7E05C0BA2C372D03C065
:10532000BA2C01C0B52C34FF0DC0FE01EA0DF11DF1
:105330008081803311F4397E09C032FF06C0B394F6
:10534000B39404C0832F867809F0B39433FD13C05F
:1053500030FF06C05A2CB31418F4530C5B18B32C4E
:10536000B31468F4B70180E290E03C870E94202AE1
:10537000B3943C85F5CFB31410F43B1801C0312C25
:1053800034FF12C0B70180E390E03C870E94202ADE
:105390003C8532FF17C031FD03C088E790E002C0B2
:1053A00088E590E0B7010CC0832F867859F031FF73
:1053B00002C08BE201C080E237FD8DE2B70190E0D0
:1053C0000E94202AA51438F4B70180E390E00E94DF
:1053D000202A5A94F7CFAA94F401EA0DF11D808196
:1053E000B70190E00E94202AA110F5CF332009F4E4
:1053F00051CEB70180E290E00E94202A3A94F6CF85
:10540000F7018681978102C08FEF9FEF2C96E2E132
:105410000C94A82CFC010590615070400110D8F745
:10542000809590958E0F9F1F0895FC0161507040EC
:1054300001900110D8F7809590958E0F9F1F0895C9
:105440000F931F93CF93DF93FB01238121FD03C0B3
:105450008FEF9FEF28C022FF16C04681578124811D
:1054600035814217530744F4A081B1819D012F5F1C
:105470003F4F318320838C93268137812F5F3F4FAD
:105480003783268310C0EB01092F182F0084F18584
:10549000E02D0995892BE1F68E819F8101969F83EE
:1054A0008E83812F902FDF91CF911F910F910895BF
:1054B000FA01AA27283051F1203181F1E8946F9345
:1054C0006E7F6E5F7F4F8F4F9F4FAF4FB1E03ED0EB
:1054D000B4E03CD0670F781F891F9A1FA11D680F89
:1054E000791F8A1F911DA11D6A0F711D811D911DBC
:1054F000A11D20D009F468943F912AE0269F112431
:105500003019305D3193DEF6CF010895462F477094
:10551000405D4193B3E00FD0C9F7F6CF462F4F70EF
:10552000405D4A3318F0495D31FD4052419302D04D
:10553000A9F7EACFB4E0A6959795879577956795F3
:10554000BA95C9F700976105710508959B01AC01F3
:105550000A2E06945795479537952795BA95C9F71A
:10556000620F731F841F951FA01D0895FC018827DB
:105570009927E89421912032E9F3293010F02E3058
:10558000C8F32B3241F02D3239F4689404C00E94E4
:10559000202B820F911D219120532A30C0F31EF43D
:1055A000909581959F4F08951F93FC019927882717
:1055B000BC01E89411911032E9F3193010F01E305B
:1055C000C8F31B3251F01D3249F4689406C00E94A2
:1055D0000B2B610F711D811D911D119110531A30FC
:1055E000B0F33EF490958095709561957F4F8F4F05
:1055F0009F4F1F910895FB01DC0105900D92002043
:10560000E1F70895FC0105900020E9F78095909559
:105610008E0F9F1F0895592F482F372F262F660F63
:10562000771F881F991F660F771F881F991F620FAA
:10563000731F841F951F660F771F881F991F08957A
:105640007AE0979F902D879F802D910D11240895CA
:105650000E946A2B08F481E00895E89409C097FB42
:105660003EF490958095709561957F4F8F4F9F4F39
:105670009923A9F0F92F96E9BB279395F69587957D
:1056800077956795B795F111F8CFFAF4BB0F11F440
:1056900060FF1BC06F5F7F4F8F4F9F4F16C08823E7
:1056A00011F096E911C0772321F09EE8872F762F1D
:1056B00005C0662371F096E8862F70E060E02AF05E
:1056C0009A95660F771F881FDAF7880F969587954A
:1056D00097F90895990F0008550FAA0BE0E8FEEF1F
:1056E00016161706E807F907C0F012161306E407A6
:1056F000F50798F0621B730B840B950B39F40A269F
:1057000061F0232B242B252B21F408950A2609F47C
:10571000A140A6958FEF811D811D08950E94A12BA8
:105720000C94122C0E94042C38F00E940B2C20F0B8
:10573000952311F00C94FB2B0C94012C11240C9448
:10574000462C0E94232C70F3959FC1F3950F50E0D7
:10575000551F629FF001729FBB27F00DB11D639F23
:10576000AA27F00DB11DAA1F649F6627B00DA11DC9
:10577000661F829F2227B00DA11D621F739FB00D6F
:10578000A11D621F839FA00D611D221F749F3327DF
:10579000A00D611D231F849F600D211D822F762F78
:1057A0006A2F11249F5750409AF0F1F088234AF055
:1057B000EE0FFF1FBB1F661F771F881F91505040C1
:1057C000A9F79E3F510580F00C94FB2B0C94462CBE
:1057D0005F3FE4F3983ED4F3869577956795B79548
:1057E000F795E7959F5FC1F7FE2B880F911D969562
:1057F000879597F9089597F99F6780E870E060E0D2
:1058000008959FEF80EC089500240A941616170659
:1058100018060906089500240A94121613061406A1
:1058200005060895092E0394000C11F4882352F004
:10583000BB0F40F4BF2B11F460FF04C06F5F7F4FBC
:105840008F4F9F4F089557FD9058440F551F59F0A3
:105850005F3F71F04795880F97FB991F61F09F3F5D
:1058600079F087950895121613061406551FF2CF86
:105870004695F1DF08C0161617061806991FF1CFD6
:1058800086957105610508940895E894BB276627FD
:105890007727CB0197F90895F999FECF92BD81BD85
:1058A000F89A992780B50895262FF999FECF1FBA47
:1058B00092BD81BD20BD0FB6F894FA9AF99A0FBE39
:1058C00001960895052E97FB1EF400940E94792CF2
:1058D00057FD07D00E94C32C07FC03D04EF40C9454
:1058E000792C50954095309521953F4F4F4F5F4F04
:1058F000089590958095709561957F4F8F4F9F4F3C
:1059000008950E94E52CA59F900DB49F900DA49F33
:10591000800D911D112408952F923F924F925F9216
:105920006F927F928F929F92AF92BF92CF92DF92AF
:10593000EF92FF920F931F93CF93DF93CDB7DEB714
:10594000CA1BDB0B0FB6F894DEBF0FBECDBF0994A8
:105950002A88398848885F846E847D848C849B84FF
:10596000AA84B984C884DF80EE80FD800C811B810D
:10597000AA81B981CE0FD11D0FB6F894DEBF0FBE3C
:10598000CDBFED010895A1E21A2EAA1BBB1BFD019C
:105990000DC0AA1FBB1FEE1FFF1FA217B307E4070E
:1059A000F50720F0A21BB30BE40BF50B661F771F66
:1059B000881F991F1A9469F7609570958095909546
:1059C0009B01AC01BD01CF010895A29FB001B39F1F
:1059D000C001A39F700D811D1124911DB29F700DF8
:1059E000811D1124911D089517E0C4EAD7E004C079
:1059F000FE010E94B3242196C53AD107C9F7F89455
:025A0000FFCFD6
:105A02009401470A08400000008019042409040197
:105A1200F41500009D04800001000000061103033C
:105A2200019058000000005308CF071C08FA070E27
:105A3200089A08000000002209CF07220922092241
:105A4200092209000000005D15CF07B115C91544F0
:105A5200155C15000000003E0ECF0700000000227A
:105A620009CF07000000003E0ECF0704110101ED2F
:105A72004772616469656E743A20003730302031B4
:105A8200303030203133303020313630302031392F
:105A9200303020006E2F61002A2A0020455350200A
:105AA2005475726E204F46462000204553502054B4
:105AB20075726E206F6E200073656E644E6F772074
:105AC200434F322C256C642C4C494748542C256496
:0A5AD2000D0A002C007373733A00F4
:00000001FF
