:100000000C94C3070C94EB070C94EB070C94C01BE7
:100010000C94C01B0C94C01B0C94EB070C94EB07C6
:100020000C94EB070C94EB070C94EB070C94EB0788
:100030000C94EB070C94EB070C94EB070C94EB0778
:100040000C947B250C94EB070C9451280C9483287A
:100050000C94EB070C94EB070C94EB070C94EB0758
:100060000C94EB070C94EB07352059205B2069209A
:100070006F2073207E2008000000BE922449123EAB
:10008000ABAAAA2ABECDCCCC4C3E00000080BEABB1
:10009000AAAAAA3E00000000BF000000803F0000A6
:1000A000000000084178D3BB4387D1133D190E3CB3
:1000B000C3BD4282AD2B3E68EC8276BED98FE1A9EA
:1000C0003E4C80EFFFBE01C4FF7F3F0000000000F8
:1000D00007634236B79BD8A71A39685618AEBAAB31
:1000E000558C1D3CB7CC5763BD6DEDFD753EF617C5
:1000F0007231BF000000803F0A52657374617274F0
:10010000696E672E2E2E0A00736563005761726D4B
:1001100075702E2E2E004272696768746E65737357
:1001200020203A00436F756C64206E6F7420636FFB
:100130006E6E65637420746F20576966693A20009B
:1001400057696669206D6F64756C65206E6F7420E9
:10015000776F726B696E6700436F6E6E656374696B
:100160006E6720746F20576966692E2E2E004465D5
:1001700062756720496E666F2069733A20005748A0
:1001800049544500426F7820636F6C6F722073652D
:100190007420746F3A20000A436F6E666967757247
:1001A0006174696F6E2072657365742E2E2E0A005D
:1001B000446F6E650A004E65772042726967687405
:1001C0006E6573732076616C75653A20003E00732E
:1001D0006170200070706D0070726F7879006F74BC
:1001E000610073696D006772617900627267007403
:1001F0006573740075626976007562696B0074736B
:100200006B6579007265736574006465627567007B
:100210006C740077696669006573704F74613A2089
:1002200065786974006F00696E6974206661696C35
:100230006564004F5441205374617274005453201C
:100240005245533A200041542B43495053454E44A4
:100250003D0041542B43495053544152543D225484
:100260004350222C220035302E32332E3132342EA0
:100270003636003138342E3130362E3135332E318A
:10028000343900222C3830005341503A2000536555
:100290006E64205341503A005542493A200055427D
:1002A000493A005453204B45593A00464F554E4465
:1002B0000A005374617274696E6720576966692019
:1002C0004D6F64756C652E2E2E0A004553502050DC
:1002D000726F78790A0057494649204F4B210A002E
:1002E00041542B43574155544F434F4E4E3D310AD5
:1002F0000041542B43574A41505F4445463D00411D
:10030000540A0041542B43574D4F44455F444546E2
:100310003D310A007350503A00686F753A007465B9
:100320006D3A00704D763A00634D763A0064696626
:100330003A00634D543A00636D763A00566973692A
:10034000742027766169722D6D6F6E69746F722EDD
:10035000636F6D2720666F7220636F6E66696775C5
:10036000726174696F6E2064657461696C730A00F0
:100370007641697220434F32204D6F6E69746F72FF
:100380003A2076312E350A000A0A44454255470A7A
:100390000A00FFE0FFD1AFFF32FFD0FFFEFFE0FF1A
:1003A000D1AEFFD0FFFEFFE0FFD11000FFFEFFD077
:1003B000FFE0FFC1FFD1AED580A83FD300408D1430
:1003C0002000A1C8DA1281CFD9F1DB402EA4A6AF5C
:1003D000FFD0FFFE00060A00FE07019E0337207FC4
:1003E000FE09FE08FE0000000600000107070602E5
:1003F0000080808080800080030303060105A0A0A8
:10040000A005050506000250F850F8500509090638
:1004100000FF2070A8A07028A8702005070706001C
:100420000078A8B05068A890050707060000609003
:10043000A040A8906801030306020580808003099C
:10044000090601FF20408080808080402003090948
:100450000601FF8040202020202040800505050661
:10046000000220A870A8200505050600012020F83C
:1004700020200204040601FEC0C0408003010106E2
:100480000103E0020202060200C0C0050A0A0600DB
:10049000FE08081010202040408080050707060055
:1004A00000708898A8C8887005070706000020E03B
:1004B00020202020F805070706000070880810207B
:1004C00040F80507070600007088083008887005A6
:1004D000070706000010305090F81038050707068F
:1004E0000000F880F0080888700507070600007013
:1004F00080F088888870050707060000F808081053
:100500002020200507070600007088887088887002
:1005100005070706000070888888780870020505BE
:10052000060200C0C000C0C00207070601FEC0C02E
:1005300000C0C04080040707060100102040804032
:100540002010050303060002F800F804070706015F
:1005500000804020102040800507070600007088BA
:1005600008102000200507070600007088B8A8B80A
:10057000807805070706000020505088F888880515
:100580000707060000F08888F08888F0050707064E
:10059000000070888080808870050707060000F0E2
:1005A0008888888888F0050707060000F88080F0B2
:1005B0008080F8050707060000F88080F0808080C2
:1005C000050707060000708880988888700507076F
:1005D000060000888888F8888888050707060000D4
:1005E000F82020202020F80507070600000808084A
:1005F000088888700507070600008890A0C0A090B2
:1006000088050707060000808080808080F8050745
:100610000706000088D8A8A888888805070706006C
:100620000088C8A898888888050707060000708891
:100630008888888870050707060000F08888F080A1
:1006400080800508080600FF7088888888A87008E0
:10065000050707060000F08888F0888888050707E6
:100660000600007088807008887005070706000083
:10067000F820202020202005070706000088888811
:1006800088888870050707060000888888505020F1
:1006900020050707060000888888A8A8D8880507CD
:1006A0000706000088885020508888050707060044
:1006B0000088888850202020050707060000F808D9
:1006C00010204080F80209090602FFC08080808067
:1006D000808080C0050A0A0601FE808040402020FC
:1006E000101008080209090601FFC04040404040C0
:1006F0004040C0050303060004205088060101069F
:1007000000FEFC0202020601068040050505060007
:100710000078888898680507070600008080F088C0
:100720008888F00505050600007088808078050738
:1007300007060000080878888888780505050600FF
:10074000007088F880780407070601003040E04018
:100750004040400507070600FE78888888780870C2
:100760000507070600008080F0888888880307074F
:100770000601004000C0404040E00309090600FEB9
:100780002000602020202020C005070706000080F0
:100790008090A0E09088030707060100C040404019
:1007A0004040E0050505060000F0A8A8A8A805053A
:1007B00005060000B0C88888880505050600007099
:1007C000888888700507070600FEF0888888F08012
:1007D000800507070600FE788888887808080505E0
:1007E00005060000B0C88080800505050600007879
:1007F000807008F00407070601004040E0404040D8
:1008000030050505060000888888986805050506F6
:1008100000008888505020050505060000A8A8A8FB
:10082000A8500505050600008850205088050707D8
:100830000600FE888888887808700505050600008F
:10084000F8102040F8030B0B0601FE20404040400A
:100850008040404040200109090602FF80808080DE
:100860008080808080030B0B0601FE80404040406A
:1008700020404040408005020206000368B00000AE
:1008800000060000004841FCF323000000002A3A63
:100890000024FA2300141236200611070E001F0F41
:1008A000801F9F800F9F00079E0003FC0081F810AF
:1008B000FEF7F0FFFFF0FFFFF0F9F9F001F8000399
:1008C000FC00079E000F9F001F8F801F0F80070EE8
:1008D000001D1D74310A0000070000000700000021
:1008E00007000000070000000700000007000000EC
:1008F00007000000070000000700000007000000DC
:100900000700000007000000070000FFFFFFF8FFDE
:10091000FFFFF8FFFFFFF8000700000007000000DE
:1009200007000000070000000700000007000000AB
:10093000070000000700000007000000070000009B
:1009400007000000070000000700000B0C180F0252
:10095000FA0FE00FC01FC01F801F803F003F003E06
:10096000007E007C007C00F8000D060C110209FFDF
:10097000F8FFF8FFF8FFF8FFF8FFF80706060F0585
:1009800000FEFEFEFEFEFE1127751502FD000F8023
:10099000000F00001F00001F00001E00003E0000AE
:1009A0003E00003E00007C00007C00007C000078DF
:1009B0000000F80000F80000F00001F00001F00075
:1009C00001F00003E00003E00003E00003C00007C3
:1009D000C00007C0000780000F80000F80000F805C
:1009E000001F00001F00001F00003E00003E00002E
:1009F0003E00003C00007C00007C00007C0000F811
:100A0000000019238C1C020101FF800007FFE00099
:100A10000FFFF0001FFFF8001FFFFC003F81FC00EC
:100A20003F00FE007F007E007E007E007E003F00D3
:100A30007E003F00FE003F00FE003F00FE003F0042
:100A4000FE003F80FE003F80FE003F80FE003F80B2
:100A5000FE003F80FE003F80FE003F80FE003F0022
:100A6000FE003F00FE003F007E003F007E003F0092
:100A70007E007F007F007E003F00FE003F81FC0083
:100A80001FFFFC001FFFF8000FFFF00007FFE00052
:100A900001FF80000F23461C050000FE01FE07FE3B
:100AA0000FFE3FFEFFFEFFFEFEFEFCFEF0FEC0FE60
:100AB00000FE00FE00FE00FE00FE00FE00FE00FE46
:100AC00000FE00FE00FE00FE00FE00FE00FE00FE36
:100AD00000FE00FE00FE00FE00FE00FE00FE00FE26
:100AE00019238C1C020100FFE00003FFF80007FF40
:100AF000FC000FFFFE001FFFFF003FC0FF003F8014
:100B00003F803F003F807F003F8000003F8000002B
:100B10003F8000003F8000007F0000007F00000059
:100B2000FF000001FE000003FC000007FC00000FB6
:100B3000F800001FF000003FE000007FC00001FF50
:100B4000000003FE000007FC00000FF000003FE083
:100B500000007F800000FF000000FFFFFF80FFFF1C
:100B6000FF80FFFFFF80FFFFFF80FFFFFF80FFFF91
:100B7000FF801823691C020103FF800FFFE01FFFA5
:100B8000F03FFFF87FFFFC7F03FCFE01FCFE00FC52
:100B9000FE00FE0000FE0000FE0001FC0001FC0063
:100BA0000FF800FFF000FFC000FF8000FFE000FF33
:100BB000F80003FC0000FE0000FE00007E00007F45
:100BC00000007FFE007FFE007FFE00FEFF00FE7F34
:100BD00001FC7FFFFC3FFFF81FFFF00FFFE003FF6A
:100BE000801A238C1C01000007FC00000FFC000091
:100BF0001FFC00001FFC00003FFC00003FFC000049
:100C00007FFC0000FDFC0000FDFC0001F9FC000180
:100C1000F9FC0003F1FC0007F1FC0007E1FC000F08
:100C2000C1FC000FC1FC001F81FC003F81FC003FA4
:100C300001FC007E01FC00FE01FC00FC01FC00FF49
:100C4000FFFFC0FFFFFFC0FFFFFFC0FFFFFFC0FFB0
:100C5000FFFFC0FFFFFFC00001FC000001FC00001F
:100C600001FC000001FC000001FC000001FC000090
:100C700001FC001823691C02007FFFFC7FFFFC7F42
:100C8000FFFC7FFFFC7FFFFC7FFFFC7F00007F00FD
:100C9000007F00007F00007F00007F00007F1FC0FA
:100CA0007F7FF07FFFF87FFFFC7FFFFC7FC1FE7F2F
:100CB00000FE7F007F7E007F00007F00007F00003D
:100CC0007F00007F00007FFE007FFE00FEFE00FE32
:100CD000FF01FC7FFFFC7FFFF83FFFF00FFFC00725
:100CE000FF8019238C1C020100FFC00003FFF000ED
:100CF00007FFF8000FFFFC001FFFFE001FE0FE00D3
:100D00003FC07F003F807F007F0000007F00000029
:100D10007F0000007E000000FE1FC000FE7FF0008C
:100D2000FEFFF800FEFFFC00FFFFFE00FFE1FE00FB
:100D3000FFC0FF00FF807F00FF003F00FF003F80FB
:100D4000FF003F80FF003F80FF003F807F003F00AB
:100D50007F003F007F807F007F807F003FC0FE00DC
:100D60001FFFFC001FFFFC000FFFF80007FFE00063
:100D700001FF80001823691C0200FFFFFFFFFFFF37
:100D8000FFFFFFFFFFFFFFFFFFFFFFFF00007F00F0
:100D9000007F0000FE0000FE0001FE0001FC0003D9
:100DA000FC0003F80007F80007F0000FF0000FF058
:100DB000001FE0001FE0003FC0003FC0003F800078
:100DC0007F80007F0000FF0000FF0001FE0001FEA9
:100DD0000003FC0003FC0007F80007F8000FF80010
:100DE0000FF00019238C1C020103FFC0000FFFF05D
:100DF000001FFFFC003FFFFE003FFFFE007FC1FF22
:100E0000007F80FF007F007F007F007F007F007FEA
:100E1000007F007F007F007F003F80FE003FC1FC1D
:100E2000000FFFF80007FFE00001FFC0000FFFF018
:100E3000001FFFF8003FC1FE007F80FE007F007FA3
:100E400000FE003F00FE003F00FE003F80FE003F2E
:100E500080FE003F80FF007F80FF007F007F80FFDB
:100E6000007FFFFF003FFFFE003FFFFC000FFFF889
:100E70000003FFE00019238C1C020101FFC00007E2
:100E8000FFE0000FFFF8001FFFFC003FFFFC007FAA
:100E900081FE007F00FE007E00FF00FE007F00FE5E
:100EA000007F00FE007F80FE007F80FE007F80FECE
:100EB000007F80FE00FF807F00FF807F83FF803FF8
:100EC000FFFF803FFFBF801FFFBF800FFF3F8001FC
:100ED000F83F8000003F0000007F0000007F00001E
:100EE000007F007F00FE007F00FE007F01FE003FCC
:100EF00083FC001FFFFC001FFFF8000FFFF000073E
:100F0000FFE00001FF8000071818100700FEFEFE3A
:100F1000FEFEFE000000000000000000000000FED9
:100F2000FEFEFEFEFE0000000800020100000304B9
:100F3000070000000000000000010204081020402B
:100F40008001020408102001020408102004040497
:100F50000404040404020202020202030303030362
:100F600003000000002300260029000000000025E7
:100F70000028002B0000000000240027002A0000A9
:100F8000ED13B328921411241FBECFEFD8E0DEBFBB
:100F9000CDBF12E0A0E0B1E0E2E9FCE602C00590BE
:100FA0000D92A837B107D9F724E0A8E7B2E001C055
:100FB0001D92AC3DB207E1F71FE0C4E8DFE004C0DA
:100FC0002297FE010E94D530C038D107C9F70E9490
:100FD000F7280C943C360C940000CF93DF93EC017F
:100FE000262F4CAD6BAD04960E9469222BAD99273C
:100FF00087FD9095820F911D8BAF81E090E0DF918E
:10100000CF910895DC01ED91FC910190F081E02DEC
:101010000994FC01808191810C9449350F931F93B1
:10102000CF93DF9300D0CDB7DEB78B019A8389834E
:10103000CE0101960E940908F8018083C8010F9033
:101040000F90DF91CF911F910F910895CF92DF9272
:10105000EF92FF920F931F93CF93DF9300D000D0B6
:10106000CDB7DEB78C017B016C0184E0C80ED11CCA
:101070001A830983CE0101966B837C830E94090841
:10108000F70181937F010F5F1F4F6B817C810C15EE
:101090001D0571F7CB010F900F900F900F90DF910E
:1010A000CF911F910F91FF90EF90DF90CF90089517
:1010B000CF92DF92EF92FF920F931F93CF93DF9324
:1010C00000D000D0CDB7DEB78C017B016C018EE182
:1010D000C80ED11C1A830983CE0101966B837C83D1
:1010E0000E940908F70181937F010F5F1F4F6B81F9
:1010F0007C810C151D0571F7CB010F900F900F909F
:101100000F90DF91CF911F910F91FF90EF90DF90A3
:10111000CF900895EF92FF920F931F93CF93DF9399
:1011200000D0CDB7DEB77C018B019A838983CE01D5
:1011300001960E940908F8018083FFEFEF1AFF0A69
:10114000FA82E982CE0101960E940908F8018183A2
:10115000C8010F900F90DF91CF911F910F91FF90D9
:10116000EF9008950F931F93CF93DF931F92CDB706
:10117000DEB78C0169830E9409086981681729F02C
:10118000F801808191810E945135C8010F90DF9153
:10119000CF911F910F910895EF92FF920F931F939C
:1011A000CF93DF9300D0CDB7DEB77C018B01FB017D
:1011B00060819A838983CE0101960E94B208F8016A
:1011C0006181FFEFEF1AFF0AFA82E982CE010196F0
:1011D0000E94B208C8010F900F90DF91CF911F912C
:1011E0000F91FF90EF9008950F931F93CF93DF938C
:1011F00000D0CDB7DEB78B01FB0160819A83898374
:10120000CE0101960E94B208C8010F900F90DF91A5
:10121000CF911F910F910895EF92FF920F931F931B
:10122000CF93DF9300D0CDB7DEB707E913E087593E
:1012300093407C01C701800F911FF80161918F01DC
:101240009A838983CE0101960E94B208F3E00B399C
:101250001F0781F787E993E00F900F90DF91CF91FF
:101260001F910F91FF90EF90089580919B03811142
:1012700005C080EA9BEBADE0B0E004C088E99AE3EA
:10128000A0E0B0E08093270390932803A093290364
:10129000B0932A0367E973E084E090E00E94260897
:1012A00060919703709198038091990390919A03AC
:1012B0009B01AC010E94962F882341F01092970366
:1012C000109298031092990310929A0363E973E0C5
:1012D00088E090E00E942608609193037091940347
:1012E00080919503909196039B01AC010E94962FEB
:1012F000882341F010929303109294031092950367
:1013000010929603089584E090E00C940C09CF921B
:10131000DF92EF92FF920F931F93CF93DF93C090D2
:101320009303D0909403E0909503F090960300917E
:10133000970310919803D0919903C0919A03980153
:101340004D2F5C2FB601C7010E94982E18161CF471
:101350008601DE2DCF2DB8018D2F9C2FDF91CF91EF
:101360001F910F91FF90EF90DF90CF900895FF9223
:101370000F931F93CF93DF931F92CDB7DEB71982E0
:101380000CE010E0F12CBE016F5F7F4FC8010E949E
:101390000E08FC018081882331F08981F81618F449
:1013A0008F3F09F0F82E0F5F1F4F0031110559F7DD
:1013B0008F2D0F90DF91CF911F910F91FF90089586
:1013C000FF920F931F93CF93DF9300D01F92CDB75F
:1013D000DEB71B820CE010E0F12CBE016D5F7F4F89
:1013E000C8010E940E08FC018081882331F08B81A6
:1013F000F81618F48F3F09F0F82E0F5F1F4F0031D9
:10140000110559F72F2D30E02F5F3F4F3A83298385
:10141000BE016F5F7F4F8DE090E00E94CC0881E0BD
:101420008F0D0F900F900F90DF91CF911F910F9123
:10143000FF9008950F931F93CF93DF931F92CDB723
:10144000DEB70E9483090E94E0099091150189137B
:101450002AC00CE010E01982BE016F5F7F4FC80107
:101460000E94F4080F5F1F4F00311105A1F788E0BB
:1014700090E00E940C098091970390919803A091AD
:101480009903B0919A038093930390939403A0934C
:101490009503B093960310929703109298031092BD
:1014A000990310929A030F90DF91CF911F910F91A2
:1014B0000895CF92DF92EF92FF9282E893E00E942C
:1014C0009C1A6B017C0167E373E08BE394E00E945C
:1014D000442922E030E0B701A6018BE394E00E94AA
:1014E000362B8BE394E00E94722981E793E00E94FF
:1014F0009C1A6B017C0162E373E08BE394E00E9431
:10150000442922E030E0B701A6018BE394E00E9479
:10151000362B8BE394E00E94722981E793E00E94CE
:101520009C1A6B017C0182E893E00E949C1A9B014B
:10153000AC01C701B6010E94E42C6B017C016DE295
:1015400073E08BE394E00E94442922E030E0B7018D
:10155000A6018BE394E00E94362B8BE394E00E947B
:101560007229C0909703D0909803E0909903F0906F
:101570009A0368E273E08BE394E00E94442922E03E
:1015800030E0B701A6018BE394E00E94362B8BE399
:1015900094E00E947229C0909303D0909403E0904D
:1015A0009503F090960363E273E08BE394E00E946E
:1015B000442922E030E0B701A6018BE394E00E94C9
:1015C000362B8BE394E00E94722980E693E00E9420
:1015D0009C1A6B017C016EE173E08BE394E00E9446
:1015E000442922E030E0B701A6018BE394E00E9499
:1015F000362B8BE394E00E9472290E94B709F82EE3
:1016000069E173E08BE394E00E9444294AE050E0F2
:101610006F2D8BE394E00E943E2A8BE394E00E94BE
:101620007229E0902B03F0902C0364E173E08BE3CC
:1016300094E00E9444294AE050E0B7018BE394E033
:101640000E94452A8BE394E0FF90EF90DF90CF90CB
:101650000C94722961E082E00E949D2661E082E0A4
:101660000C94D62661E082E00E949D2660E082E034
:101670000C94D6260E94320B68EE73E080E090E076
:101680000E94F4250C942A0BCF93DF9300D0CDB7A2
:10169000DEB78AE190E09A838983CE0101960E94A9
:1016A000090891E0813009F090E0892F0F900F90A8
:1016B000DF91CF91089520E030E0FC014191CF010E
:1016C000442329F04232C9F72F5F3F4FF6CF81E024
:1016D0002630310509F080E008956F927F928F9255
:1016E0009F92AF92BF92CF92DF92EF92FF920F93B1
:1016F0001F93CF93DF93CDB7DEB7C654D1090FB692
:10170000F894DEBF0FBECDBF5C01762E672ECE01F2
:1017100001967C018CE3C82ED12C9E2C8F2C8E013F
:10172000075D1F4FDAA6C9A6C8010E940908F70184
:1017300081937F01FFEFCF1ADF0A84E6C816D10438
:1017400089F7B80184E690E00E94580829812F5F4C
:10175000223008F443C08BE394E00E9472296EE9C2
:1017600072E08BE394E00E944429692D782D8BE38D
:1017700094E00E9469296BE271E08BE394E00E949F
:101780006929B8018BE394E00E9469298BE394E016
:101790000E9472296F927F921F930F938F929F9254
:1017A0002DE231E03F932F93BF92AF920E945533C9
:1017B00068E972E08BE394E00E944429B5018BE371
:1017C00094E00E9469298BE394E00E9472290FB68D
:1017D000F894DEBF0FBECDBF81E001C080E0CA5BE0
:1017E000DF4F0FB6F894DEBF0FBECDBFDF91CF91B4
:1017F0001F910F91FF90EF90DF90CF90BF90AF902F
:101800009F908F907F906F900895BF92CF92DF92BC
:10181000EF92FF920F931F93CF93DF9300D0CDB73A
:10182000DEB77C01D62EC72E04EB10E01A830983A5
:10183000CE0101960E940908B82E8BE394E00E9425
:1018400072296EE872E08BE394E00E9444294AE03A
:1018500050E06B2D8BE394E00E943E2A8BE394E0F2
:101860000E9472291A830983CE0101960E940908F9
:10187000813009F5CF92DF9221E631E03F932F933B
:10188000FF92EF920E94553368E872E08BE394E098
:101890000E944429B7018BE394E00E9469298BE3FD
:1018A00094E00E9472290F900F900F900F900F906C
:1018B0000F9081E001C080E00F900F90DF91CF91F9
:1018C0001F910F91FF90EF90DF90CF90BF90089500
:1018D000EF92FF920F931F93CF93DF9300D0CDB77A
:1018E000DEB77B018C01E81AF90AC701800F911F4E
:1018F000F80121918F01222339F02983BE016F5F06
:101900007F4F0E94F408F1CF1A821982BE016F5FE7
:101910007F4F0E94CC080F900F90DF91CF911F91C5
:101920000F91FF90EF900895FC01019620812032E5
:10193000D9F3CF010895CF92DF92EF92FF920F93E8
:101940001F93CF93DF9300D000D000D0CDB7DEB788
:10195000BC01CE0101960E94ED2BCE0101960E94A2
:10196000D82C6B017C018B01CE0101960E947F2B4C
:101970000F3F11055CF4C6010739110514F086E923
:1019800090E08C0197FF02C000E010E000932E036E
:1019900066EB71E08BE394E00E9444294AE050E05A
:1019A000602F8BE394E00E943E2A8BE394E00E9438
:1019B000722960912E038AE390E00E94513580E005
:1019C00090E026960FB6F894DEBF0FBECDBFDF9134
:1019D000CF911F910F91FF90EF90DF90CF900895DE
:1019E0001F93CF93DF9300D0CDB7DEB78BE390E0AA
:1019F0009A838983CE0101960E9409088F3F11F4D2
:101A000011E001C01FEF8BE390E09A838983612F7F
:101A1000CE0101960E94B2088BE394E00E947229E5
:101A200064E871E08BE394E00E944429113039F4BA
:101A30006DE671E08BE394E00E94692906C06EE7D1
:101A400071E08BE394E00E9444298BE394E00E94D0
:101A5000722980E090E00F900F90DF91CF911F915D
:101A60000895DF92EF92FF920F931F93CF93DF932E
:101A700000D0CDB7DEB77C0100E110E0D12CBE0173
:101A80006F5F7F4FC8010E948A0829813A81E21660
:101A9000F30644F0D3940E5F1F4F85E0D812EFCFCA
:101AA00085E001C08D2D0F900F90DF91CF911F9198
:101AB0000F91FF90EF90DF9008955F926F927F9269
:101AC0008F929F92AF92BF92CF92DF92EF92FF924E
:101AD0000F931F93CF93DF93CDB7DEB72C970FB63D
:101AE000F894DEBF0FBECDBF8C016CE671E0CE0175
:101AF00001960E94ED2BF8018081843629F482E75B
:101B000091E00E945D0D4BC0812C7E01F7E0EF0E4D
:101B1000F11C6E018BE0C80ED11C5801F8016081E8
:101B2000862F992787FD9095C0970A9728F4CE01B4
:101B300001960E94922C29C0CE0101960E94D82CB9
:101B40006F83788789879A8755245394580C912CF2
:101B5000F8E08F0E911C880C991C37018E189F0895
:101B6000C401860D971DF30161913F019C878B870E
:101B7000C6010E94B2086C147D0491F76CE671E016
:101B8000CE0101960E94242C852C0F5F1F4FF5017A
:101B90008081882321F0F4E0F81508F0BECFCE0153
:101BA00001960E947F2B2C960FB6F894DEBF0FBED5
:101BB000CDBFDF91CF911F910F91FF90EF90DF90FC
:101BC000CF90BF90AF909F908F907F906F905F90DD
:101BD0000895CF93DF9300D0CDB7DEB7BE016F5F1E
:101BE0007F4F80E190E00E948A0889819A81019666
:101BF00021F482E791E00E945D0D0F900F90DF913C
:101C0000CF9108950F931F93CF93DF930E94E90D17
:101C10008EEC92E00E94B61D06EB12E0C0E0D0E030
:101C2000F80121913191419151918F01BE018EECCA
:101C300092E00E94861E2196C630D10589F764E1A4
:101C40008EEC92E00E94D71E8EEC92E0DF91CF9155
:101C50001F910F910C94C31DCF93C0911A0166E19F
:101C600071E08BE394E00E9444294AE050E06C2F3D
:101C70008BE394E00E943E2A8BE394E0CF910C9496
:101C800072290E94590A0E942C0E8BE394E00C9456
:101C90007229CF93C0912D0381E0C827C0932D03F3
:101CA0008BE394E00E9472296EE671E08BE394E08E
:101CB0000E9444296C2F70E04AE050E08BE394E0EE
:101CC0000E94292A8BE394E00E94722980912D03BF
:101CD00081110E94410E80E090E0CF910895CF9253
:101CE000DF92EF92FF92CF93DF9380912B0390913D
:101CF0002C03009781F10E94310DD82F84E0D89FEA
:101D0000F0011124EA54FD4FC080D180E280F380BD
:101D1000C0E06C2F70E0A70196018EEC92E00E946B
:101D2000861ECF5FDC17A8F7C63058F46C2F70E022
:101D300020E030E0A9018EEC92E00E94861ECF5F89
:101D4000F3CF8EEC92E0DF91CF91FF90EF90DF9098
:101D5000CF900C94C31DDF91CF91FF90EF90DF9057
:101D6000CF9008954F925F926F927F928F929F9241
:101D7000AF92BF92CF92DF92EF92FF920F931F9399
:101D8000CF93DF9380912D038111C0C061E08CE778
:101D900092E00E9454248091B502811107C081E035
:101DA0008093B5028CE792E00E94F3236FEF8CE7FB
:101DB00092E00E943D248091B502811107C081E02C
:101DC0008093B5028CE792E00E94F3238CE792E0C7
:101DD0000E942924CFE2D7E006E428EEC22E23E0B9
:101DE000D22EE12CF12C14E680911A01813019F4E5
:101DF00064ED73E002C064E878E08CE792E00E9452
:101E0000D72260912B0370912C03683E23E0720768
:101E100010F481E201C085E08093B302C093B40264
:101E20006115710531F04AE050E088E792E00E94C8
:101E3000452A64ED73E08CE792E00E94D72210926D
:101E4000B302D093B402609118017091190188E730
:101E500092E00E94692980914E03811117C000937E
:101E6000B302D093B4026CE071E088E792E00E9484
:101E7000442980912B0390912C03892B39F40E94E3
:101E8000C525613A7F408105910538F48CE792E0E1
:101E90000E942E248111A8CF39C040902703509072
:101EA00028036090290370902A030E94C5254B01E6
:101EB0005C0164E878E08CE792E00E94D7221092FF
:101EC000B302C093B402C301B201681979098A0947
:101ED0009B09A70196010E949230BA01A9012AE04C
:101EE00030E088E792E00E94312A64ED73E08CE7ED
:101EF00092E00E94D7221093B302C093B40268E02C
:101F000071E088E792E00E944429C0CFDF91CF9131
:101F10001F910F91FF90EF90DF90CF90BF90AF9007
:101F20009F908F907F906F905F904F900895CF9388
:101F3000DF93EC010E94440B882341F0D0931901F8
:101F4000C0931801DF91CF910C94B20EDF91CF9125
:101F50000895CF93DF9300D000D000D0CDB7DEB787
:101F6000BC01CE0101960E94ED2BCE0101960E948C
:101F7000D82C70932C0360932B03CE0101960E9402
:101F80007F2B0E946F0E0E94B20E26960FB6F89419
:101F9000DEBF0FBECDBFDF91CF91089520E030E0CE
:101FA0004EE852E40E944D2D23E032ED42E250E42F
:101FB0000E94E52C9B01AC0160E070E080E291E4BE
:101FC0000E944A2F0E94B52DCB010895CF92DF9237
:101FD000EF92FF920E9487096B017C0182E893E0F7
:101FE0000E949C1A9B01AC01C701B6010E94E42C1F
:101FF0000E94CE0F90932C0380932B03FF90EF90C1
:10200000DF90CF900895BC01882777FD8095982FA9
:102010000E94E82D0E949C2E23E032ED42E250E423
:102020000E94E42C20E030E04EE852E40E94E72ECB
:102030000895CF92DF92EF92FF9282E893E00E94A0
:102040009C1A6B017C0180911601909117010E94EE
:1020500003109B01AC01C701B6010E94E52C6B0186
:102060007C012091970330919803409199035091FE
:102070009A030E94982E181644F4C0929703D092A7
:102080009803E0929903F0929A03FF90EF90DF900B
:10209000CF900895CF92DF92EF92FF926B017C0177
:1020A00080E693E00E949C1A9B01AC0160E070E026
:1020B00088E292E40E94E42C2DEC3CEC4CE45FE3DB
:1020C0000E94E72E9B01AC01C701B6010E94E52CDE
:1020D000FF90EF90DF90CF9008958F929F92AF92F4
:1020E000BF92CF92DF92EF92FF926B017C0120E0D2
:1020F00030E040E251E40E94E72E4B015C01A70171
:1021000096016DEC7CEC84EA90E40E94E42C9B0147
:10211000AC01C501B4010E944D2D20E030E04AE73A
:1021200054E40E94E72E20E030E44CE156E40E94A3
:102130004D2D0E94A72E20E030E443E555E40E9497
:102140004D2D2FE03FEC4BE55BE30E94E52C9B011E
:10215000AC0160E070E080E89FE30E944D2D23E336
:1021600033E948E853E40E94E42CFF90EF90DF90BD
:10217000CF90BF90AF909F908F9008954F925F92B5
:102180006F927F928F929F92AF92BF92CF92DF9287
:10219000EF92FF92CF93DF93D82FC62F262F30E0F8
:1021A000A8EEB3E00E94D9302B013C01812C912C88
:1021B0005401C12CD12C760184149504A604B704D3
:1021C00094F48D2F0E945726AC01662757FD609529
:1021D000762FC40ED51EE61EF71E8FEF881A980ABA
:1021E000A80AB80AE9CFC701B6010E94E62D6B0123
:1021F0007C0188EE93E0C89FB001C99F700D112447
:10220000882777FD8095982F0E94E82D9B01AC01CF
:10221000C701B6010E944D2DDF91CF91FF90EF9045
:10222000DF90CF90BF90AF909F908F907F906F90F6
:102230005F904F900895CF92DF92EF92FF926AE005
:1022400081E190E00E94BE109B01AC0160E070EC67
:102250008FE794E40E94E42C2DEC3CEC44EA50E43B
:102260000E94E72E20E030E040E85AE30E94E72E8B
:102270000E946D10AB01BC0180E693E00E941F1A22
:102280006AE080E190E00E94BE102DEC3CEC44EA54
:1022900050E40E94E72E20E030E040E85AE30E943C
:1022A000E72E26E636E646EB50E40E944D2D20E070
:1022B00030E04AE754E40E94E72E6B017C010E9463
:1022C0004A10AB01BC0182E893E00E941F1AB701DB
:1022D000A60181E793E0FF90EF90DF90CF900C9400
:1022E0001F1ACF92DF92EF92FF920E941B118091F2
:1022F0004E0381110FC00E94C525C0902703D090C6
:102300002803E0902903F0902A03C616D706E806B2
:10231000F90658F40E94191080914E03811105C0EE
:102320000E94830981E080934E030E94E60FC090D3
:102330002303D0902403E0902503F09026030E940D
:10234000C5256C197D098E099F0961387E4E86432B
:10235000910580F00E94C5256093230370932403A8
:102360008093250390932603FF90EF90DF90CF900A
:102370000C941A0AFF90EF90DF90CF900895AF92DF
:10238000BF92CF92DF92EF92FF920F931F93CF9362
:10239000DF9300D0CDB7DEB780912E038F3F09F0D9
:1023A00055C061E08EE090E00E94BE10AB01BC0120
:1023B0008FE493E00E941F1A8BE390E09A83898355
:1023C000CE0101960E940908813019F400E911E05C
:1023D00002C008EE13E08FE493E00E949C1A0E9472
:1023E000B52D77FD10C08FE493E00E949C1A0E94E7
:1023F000B52D0617170754F08FE493E00E949C1A3E
:102400000E94B52D04C060E070E001C0B801780101
:102410000027F7FC0095102F882777FD8095982FCF
:1024200020910A011F921F921F922F93A12CB12C71
:102430006501A39420E030E0A9010E94382B60934D
:102440001A010F900F900F900F9002C080931A0105
:1024500060911A018EEC92E00E94D71E8EEC92E001
:102460000F900F90DF91CF911F910F91FF90EF9000
:10247000DF90CF90BF90AF900C94C31D0E946F0E61
:102480000C94BF110E945D0D0E943E1260EB71E042
:102490008BE394E00C944429CF93DF93C0E9D1E01F
:1024A000D0932C03C0932B030E943E120E94B20EC5
:1024B0006AEF70E080E090E00E94F425CC59DF4F95
:1024C000CC318CE0D80761F7DF91CF91089568EFA8
:1024D00070E08BE394E00E9444296CE271E080E0BC
:1024E00090E00E94F4250C9400000895CF93DF93B0
:1024F000C0E0D0E06FEFCE010E9451352196C43686
:10250000D105C1F7DF91CF9108950E94761267E956
:1025100071E08BE394E00E9444290E94671280E0FE
:1025200090E00895CF93DF9300D01F92CDB7DEB730
:10253000BE016D5F7F4F80E090E00E940E08FC01BD
:1025400080818B83833069F00E94761283E090E073
:102550009A838983BE016F5F7F4F80E090E00E9485
:10256000CC080F900F900F90DF91CF91089526E047
:1025700040E855E260E070E08BE394E00E94EF27D2
:1025800040E855E260E070E08FE293E00E94CA1CF0
:1025900080919B03882331F068E873E08BE394E03B
:1025A0000E94442960E773E08BE394E00E94442991
:1025B0006CE373E08BE394E00E9444290E94921242
:1025C0000E94020E0E94320B0E9435098CE691E0B7
:1025D0000C94970FCF92DF92EF92FF926B017C01E8
:1025E0000E94B52D882777FD8095982F0E94E82DB1
:1025F0009B01AC01C701B6010E94E42C20E030E051
:1026000040E251E40E94E72E0E94B52DCB01FF90DD
:10261000EF90DF90CF9008952F923F924F925F926C
:102620006F927F928F929F92AF92BF92CF92DF92E2
:10263000EF92FF920F931F93CF93DF93CDB7DEB747
:10264000AC970FB6F894DEBF0FBECDBF8BA79CA78B
:102650008B01BE016F5F7F4F8CE890E00E945808AD
:102660008BE394E00E94722963EA72E08BE394E0CA
:102670000E944429BE016F5F7F4F8BE394E00E946C
:1026800069298BE394E00E94722989818F5F8230EF
:1026900008F489C0209021033090220321143104D2
:1026A00019F0201A310A02C0212C312C80E693E067
:1026B0000E949C1A0E94EA128BA39CA380E693E0DE
:1026C0000E949C1A2B013C01C0909703D090980364
:1026D000E0909903F0909A03C701B6010E94EA12B4
:1026E0008DA39EA382E893E00E949C1A0E94EA12A6
:1026F0008FA398A782E893E00E949C1A4B015C018B
:1027000081E793E00E949C1A0E94EA1289A79AA787
:1027100081E793E00E949C1A6F8F78A389A39AA304
:102720003F922F928CA18F939BA19F93C301B201E3
:102730000E94B52D7F936F938EA18F939DA19F9340
:10274000C701B6010E94B52D7F936F9388A58F9323
:102750009FA19F93C501B4010E94B52D7F936F93F4
:102760008AA58F9399A59F936F8D78A189A19AA12E
:102770000E94B52D7F936F931F930F93CE01019607
:102780009F938F938BE891E09F938F938CA58F936A
:102790009BA59F930E9455330FB6F894DEBF0FBEE2
:1027A000CDBF81E001C080E0AC960FB6F894DEBFEB
:1027B0000FBECDBFDF91CF911F910F91FF90EF9092
:1027C000DF90CF90BF90AF909F908F907F906F9051
:1027D0005F904F903F902F900895EF92FF920F934C
:1027E000CF93DF9300D0CDB7DEB764E082E893E00B
:1027F0000E940B1A64E081E793E00E940B1A64E0E8
:1028000080E693E00E940B1A64E08FE493E00E945C
:102810000B1A20E04AE069E08FE293E00E949A1CE4
:102820008AE390E09A838983CE0101960E94090889
:1028300080932E0323E04FE066E070E08EEC92E0A0
:102840000E94581D40E06FEF80E00E94CE1E609312
:10285000B6027093B7028093B8029093B90240E039
:102860006FEF84EB0E94CE1E6093BA027093BB029E
:102870008093BC029093BD0240E06FEF8FEF0E9407
:10288000CE1E6093BE027093BF028093C0029093ED
:10289000C10240E068EC8FEF0E94CE1E6093C2023E
:1028A0007093C3028093C4029093C50240E068E72E
:1028B0008FEF0E94CE1E6093C6027093C702809372
:1028C000C8029093C90240E060E08FEF0E94CE1EE4
:1028D0006093CA027093CB028093CC029093CD0296
:1028E00010927B0210927A0248E7E42E42E0F42E26
:1028F0008DE392E0F7019183808308E027E046E0D2
:102900006CE171E0C7010E94181F85E492E0F701B5
:10291000918380830F900F90DF91CF910F91FF9063
:10292000EF9008958EEC92E00E94A71D8FE293E055
:102930000E94411C8FE493E00E94DD1980E693E041
:102940000E94DD1981E793E00E94DD1982E893E09F
:102950000C94DD198F929F92BF92CF92DF92EF92EB
:10296000FF920F931F93CF93DF9300D000D0CDB78A
:10297000DEB7182F092FB62E2C8339834A835B8349
:102980000E94C5256B017C012C8139814A815B81C4
:10299000C20ED31EE41EF51E812E902E0E94C52568
:1029A0006C157D058E059F0540F58FE293E00E9432
:1029B000531B892B99F38FE293E00E94B71A282FBB
:1029C000BB2081F0843124F48A3011F08D3051F431
:1029D000622F772767FD70958BE394E02C830E942C
:1029E00002082C81F40180812813D6CF81818823AD
:1029F00031F0FFEF8F1A9F0AD1CF80E001C081E054
:102A00000F900F900F900F90DF91CF911F910F912A
:102A1000FF90EF90DF90CF90BF909F908F900895A0
:102A200062EB72E08BE394E00E9444290E943A0B2F
:102A300028EB3BE040E050E060911B0188EE91E024
:102A40000E94AA14682F70E04AE050E08BE394E003
:102A50000E94292A8BE394E00E94722920E335E743
:102A600040E050E061E08EEE91E00E94AA148111F6
:102A700004C00E94320B80E008956BEA72E08BE3A1
:102A800094E00E94442981E00895AF92BF92CF92D2
:102A9000DF92EF92FF920F931F93CF93DF93CDB707
:102AA000DEB7C659D1090FB6F894DEBF0FBECDBF51
:102AB0007B016130710531F4BC01CE0101960E94A9
:102AC0000C1309C06230710509F07DC0BC01CE0154
:102AD00001960E946D0B811103C08FEF9FEF7EC0A6
:102AE000C12CD12CCE0101965C0191E0E916F104D4
:102AF00019F403E712E002C006E612E062E572E0B4
:102B00008FE293E00E944429B8018FE293E00E9493
:102B1000442963E872E08FE293E00E9444298FE247
:102B200093E00E94722920EA3FE040E050E061E03B
:102B300082E191E00E94AA14811108C0EFEFCE1A41
:102B4000DE0AF7E0CF16D10481F635C0F501019019
:102B50000020E9F78F01015011090A191B0966E4E9
:102B600072E08FE293E00E9444294AE050E0B8010D
:102B70008FE293E00E94452A8FE293E00E9472293F
:102B800020E737E140E050E061E085EF91E00E940E
:102B9000AA14882399F2B5018FE293E00E94692973
:102BA00020E737E140E050E061E087EF91E00E94EC
:102BB000AA14882319F281E090E0F7E0CF16D1043F
:102BC0006CF080E00BC0E3E0EE16F10409F088CF72
:102BD000BC01CE0101960E94050C7DCFCA56DF4F85
:102BE0000FB6F894DEBF0FBECDBFDF91CF911F911E
:102BF0000F91FF90EF90DF90CF90BF90AF9008952E
:102C00000F931F93CF93DF938C010E9410158111B6
:102C100027C00E941015811123C0C0E0D0E00E949F
:102C2000320B1093220300932103209719F48EEFA7
:102C300091E013C0C130D10519F482E392E00DC0D8
:102C4000CF3F8FEFD80719F487E092E006C0CF3F5F
:102C50008FEFD807B4F481E192E00E94970F11C082
:102C600061E070E0C8010E944515EC0162E070E08F
:102C7000C8010E94451563E070E0C8010E94451537
:102C8000CECFCE01DF91CF911F910F910895CF92BA
:102C9000DF92EF92FF920E94440B811108C087E1FE
:102CA00092E0FF90EF90DF90CF900C94970FC09040
:102CB0001D03D0901E03E0901F03F09020030E949C
:102CC000C5256C197D098E099F09613C744D8140B1
:102CD000910540F180912B0390912C030E940016E6
:102CE0007C018BE394E00E9472296DE372E08BE338
:102CF00094E00E9444294AE050E0B7018BE394E05D
:102D00000E94292A8BE394E00E9472290E94320BD0
:102D10000E94C52560931D0370931E0380931F03BB
:102D200090932003FF90EF90DF90CF90089563E39E
:102D300072E08BE394E00E9444298BE394E00E94CC
:102D400072290E941015811103C067E272E015C05C
:102D500065E272E08FE293E00E9444298FE293E003
:102D60000E94722920EE33E944E050E061E088EEF1
:102D700091E00E94AA1468E172E08BE394E00E9463
:102D800044298BE394E00E94722981E090E0089549
:102D90000F931F93CF93DF9300D0CDB7DEB78C0195
:102DA0001A821982BE016F5F7F4F8AE190E00E9414
:102DB000CC0863E073E08FE293E00E94442920E1B5
:102DC00037E240E050E060911B0182E191E00E9417
:102DD000AA14882309F457C08FE293E00E946A1B6B
:102DE0006FEF72E08FE293E00E94442928EE33E017
:102DF00040E050E060911B0182E191E00E94AA1442
:102E000061EF72E08FE293E00E944429B8018FE203
:102E100093E00E9469298FE293E00E947229C80121
:102E20000E945B0B20E23EE440E050E060911B0119
:102E3000882349F082E292E00E94AA1481110FC017
:102E40008EEF9FEF22C08BE091E00E94AA148823AE
:102E5000B9F360EE72E08FE293E00E94442981E0D2
:102E600090E09A838983BE016F5F7F4F8AE190E093
:102E70000E94CC0866ED72E08BE394E00E94442946
:102E800081E090E002C08FEF9FEF0F900F90DF91F5
:102E9000CF911F910F910895CF92DF92EF92FF9201
:102EA000CF93DF93EC010E94C5256B017C01CE011D
:102EB000AA2797FDA095BA2FC80ED91EEA1EFB1EA1
:102EC000C0E00E94C5256C157D058E059F0508F59F
:102ED0008BE394E00E940C27892B99F3D1E0DC0F5F
:102EE0008BE394E00E942527EC2FF0E0EF51FD4F9B
:102EF0008083ED2FF0E0E052FD4F80818D3029F08E
:102F0000DB3331F08A3011F404C0DC2FCD2FD9CF60
:102F1000CBE3EC2FF0E0EF51FD4F10828C2FDF91CF
:102F2000CF91FF90EF90DF90CF9008956BEC72E01F
:102F30008BE394E00E9444290E943A0B8FE293E0D5
:102F40000E94531B892B49F08FE293E00E94B71A2D
:102F5000BC018BE394E00E9402088BE394E00E94A2
:102F60000C27892B59F38BE394E00E942527682FC7
:102F70008FE293E00E94E11AE1CFCF93DF938BE3DE
:102F800094E00E94722968E571E08BE394E00E946E
:102F900044298BE394E00E9472290E943A0B20E1BD
:102FA00037E240E050E060911B0188EE91E00E9422
:102FB000AA14811107C060E471E08BE394E00E94E1
:102FC000442920C08BE394E00E94682768EE73E0F8
:102FD00080E090E00E94F42585EE92E00E94940C3F
:102FE0000E94C816EC0197FF13C064E271E08BE306
:102FF00094E00E9444294AE050E0BE018BE394E053
:103000000E94292A8BE394E0DF91CF910C947229DE
:103010008DE292E00E94970FDF91CF9108951F9368
:10302000CF93DF93CDB7DEB72C970FB6F894DEBF02
:103030000FBECDBF61EE72E0CE0107960E94ED2B70
:1030400061EE72E08BE394E00E9469298BE394E0E7
:103050000E94722963E172E0CE0101960E945D2C0C
:10306000BE016F5F7F4FCE0107960E94C92C182FBB
:10307000CE0101960E947F2B112319F00E94BD17EB
:1030800068C160E172E0CE0101960E945D2CBE0134
:103090006F5F7F4FCE0107960E94C92C182FCE017B
:1030A00001960E947F2B112339F083EE92E00E945B
:1030B000940C0E9442124DC16AE072E0CE0101966A
:1030C0000E945D2CBE016F5F7F4FCE0107960E946C
:1030D000C92C182FCE0101960E947F2B112319F0C5
:1030E0000E94490E36C164E072E0CE0101960E9452
:1030F0005D2CBE016F5F7F4FCE0107960E94C92CE9
:10310000182FCE0101960E947F2B112319F00E94E7
:1031100085121FC16EEF71E0CE0101960E945D2CF9
:10312000BE016F5F7F4FCE0107960E94C92C182FFA
:10313000CE0101960E947F2B112339F086EE92E09A
:103140000E94940C6CE870E01AC069EF71E0CE0147
:1031500001960E945D2CBE016F5F7F4FCE010796E6
:103160000E94C92C182FCE0101960E947F2B11239B
:1031700049F085EE92E00E94940C6CE370E00E94AE
:10318000680CE7C064EF71E0CE0101960E945D2CEF
:10319000BE016F5F7F4FCE0107960E94C92C182F8A
:1031A000CE0101960E947F2B112339F085EE92E02B
:1031B0000E94940C64E670E0E2CF6FEE71E0CE0105
:1031C00001960E945D2CBE016F5F7F4FCE01079676
:1031D0000E94C92C182FCE0101960E947F2B11232B
:1031E00029F087E392E00E940016B3C06BEE71E015
:1031F000CE0101960E945D2CBE016F5F7F4FCE0114
:1032000007960E94C92C182FCE0101960E947F2B91
:10321000112339F084EE92E00E94940C0E949B0CE2
:1032200098C066EE71E0CE0101960E945D2CBE0151
:103230006F5F7F4FCE0107960E94C92C182FCE01D9
:1032400001960E947F2B112319F00E94F00C81C07F
:1032500062EE71E0CE0101960E945D2CBE016F5FAF
:103260007F4FCE0107960E94C92C182FCE010196E0
:103270000E947F2B112319F00E944C126AC06EED40
:1032800071E0CE0101960E945D2CBE016F5F7F4F01
:10329000CE0107960E94C92C182FCE0101960E94DC
:1032A0007F2B112319F00E94971653C068ED71E02F
:1032B000CE0101960E945D2CBE016F5F7F4FCE0153
:1032C00007960E94C92C182FCE0101960E947F2BD1
:1032D00011110E94961764ED71E0CE0101960E94D3
:1032E0005D2CBE016F5F7F4FCE0107960E94C92CF7
:1032F000182FCE0101960E947F2B112339F084EE06
:1033000092E00E94940C0E94A90F23C06FEC71E020
:10331000CE0101960E945D2CBE016F5F7F4FCE01F2
:1033200007960E94C92C182FCE0101960E947F2B70
:10333000112379F08091E502992787FD9095C09738
:103340009A838983BE016F5F7F4F84EB90E00E9478
:10335000CC086DEC71E08BE394E00E9444298BE390
:1033600094E00E947229CE0107960E947F2B2C9632
:103370000FB6F894DEBF0FBECDBFDF91CF911F9186
:1033800008958BE394E00E940C27892B31F080E3B1
:1033900095E70E944C170C940F1808950E94711124
:1033A0000E943E1280912D0381110E94410E0E94C5
:1033B000B20E0E94C1190C944716FC0187819085BA
:1033C000009711F00C948B310895FC011182128248
:1033D000138214821582168240E050E060EC7FE791
:1033E0004187528763877487458756876787708BC5
:1033F00080E09081891770F4A781B08594E0899F5F
:10340000A00DB11D11241D921D921D921C921397A7
:103410008F5FEFCF0895CF93DF93EC01688324E0B3
:10342000629FC00111240E94F33098878F83892BFB
:1034300009F41882CE01DF91CF910C94E519AF9277
:10344000BF92CF92DF92EF92FF920F931F93CF9391
:10345000DF93EC016A017B010F81188501151105CD
:1034600009F45FC08A81580194E0899FA00CB11CC7
:103470001124F50120813181428153816B817C814E
:103480008D819E810E94E42C6B837C838D839E833F
:10349000F501C082D182E282F382BA80F80184E031
:1034A000B89EE00DF11D11242081318142815381AC
:1034B0006B817C818D819E810E94E52C6B837C8356
:1034C0008D839E83B394BA820881B01201C01A82A0
:1034D0001981111105C0CD86DE86EF86F88A0AC0F3
:1034E00029853A854B855C85C701B6010E94492D27
:1034F00087FF05C0C986DA86EB86FC860EC02D855F
:103500003E854F855889C701B6010E94982E18162E
:1035100024F4CD86DE86EF86F88A101710F41F5F3C
:103520001983DF91CF911F910F91FF90EF90DF9062
:10353000CF90BF90AF900895CF93DF93EC01698156
:10354000662371F070E080E090E00E94E82D9B011E
:10355000AC016B817C818D819E810E944D2D04C0C8
:1035600060E070E080EC9FE7DF91CF9108952091BB
:10357000B0033091B1032817390701F520919C035E
:1035800030919D0380919E0390919F0328173907E6
:10359000A9F0E0919C03F0919D03E056FC4F8081DF
:1035A00020919C0330919D032F5F3F4F2F70332755
:1035B00030939D0320939C0390E008958FEF9FEF3D
:1035C00008951F93CF93DF93DC015C968D919C91BE
:1035D0005D97009749F481E090E013969C938E9359
:1035E000129780E090E03BC05196ED91FC9152978C
:1035F00050962C915097322F30951FB75E964C9174
:103600005E9741FB772770F941FD6095F894408102
:10361000772311F0422B01C043234083EC01219713
:10362000F1F748E0508160FF02C0522B01C05323E4
:103630005083EC012197F1F76695415099F780810D
:10364000772311F0832301C0822B80831FBF5C96F8
:103650008D919C915D970197F1F781E090E0DF916A
:10366000CF911F9108952091B0033091B103281795
:103670003907B1F420919C0330919D0380919E0302
:1036800090919F032817390759F0E0919C03F0911E
:103690009D03E056FC4F8081992787FD9095089502
:1036A0008FEF9FEF08952091B0033091B103281759
:1036B000390769F480919E0390919F0320919C03A8
:1036C00030919D03821B930B8F709927089580E0A2
:1036D00090E008952091B0033091B1032817390785
:1036E00059F48FB7F89410929F0310929E03109292
:1036F0009D0310929C038FBF0895E091B003F09159
:10370000B103E817F90769F4A389B4899C91858905
:10371000809589238C931092B1031092B00381E0BD
:10372000089580E00895CF93DF93EC018A8D9B8DFF
:10373000892B11F18091B0039091B1038C179D07F3
:10374000D9F0009711F00E947D1B8E8D8E7F8E8F99
:1037500010929F0310929E0310929D0310929C035F
:10376000D093B103C093B003EB89FC8980819D891C
:10377000892B808381E001C080E0DF91CF910895A3
:103780001F920F920FB60F9211242F933F934F93D6
:103790005F936F937F938F939F93AF93BF93EF93B9
:1037A000FF93E091B003F091B103309709F458C052
:1037B000868DA685B785958581FF04C08C91892368
:1037C00029F44EC08C91892309F04AC0A389B48999
:1037D0009C918589809589238C9386899789019707
:1037E000F1F7208D318DA685B785758558E040E0CD
:1037F000C9010197F1F7842F90E095958795482F9F
:103800006C91672309F04068515091F7868D81FDD6
:10381000409580919E0390919F0301968F70992708
:1038200020919C0330919D038217930761F0A09132
:103830009E03B0919F03A056BC4F4C9390939F035F
:1038400080939E0303C0868D8160868F828D938DC9
:103850000197F1F7A389B4898C919589892B8C9371
:10386000FF91EF91BF91AF919F918F917F916F9158
:103870005F914F913F912F910F900FBE0F901F902E
:1038800018952DE432E0FC01318320830C947D1BDC
:103890001F93CF93DF93EC01162F6E8D66956170A9
:1038A00081E06827812F0E94D62661E0812F0E9447
:1038B0009D26812F90E0FC01E75CF04FE491E88BBE
:1038C000FC01E35BF04FE491F0E0EE0FFF1FE559E0
:1038D000F04F859194919A8B898BDF91CF911F91B5
:1038E00008951F93CF93DF93EC01162F60E0812F93
:1038F0000E949D268E8D81FD04C061E0812F0E9473
:10390000D6261C87812F90E0FC01E75CF04FE49104
:10391000ED87FC01E35BF04FE491F0E0EE0FFF1F59
:10392000EF59F04F859194919F878E87DF91CF91CA
:103930001F910895FF920F931F93CF93DF93EC0194
:10394000F62E522F1B821A8208EE13E020E030E0A0
:103950000C831D832E833F838DE492E099838883BB
:103960001F8A1E8A198E188E1B8E1A8E1D8E1C8E13
:103970008E8D8E7F50FB81F98E8F642FCE010E9439
:10398000481C6F2DCE01DF91CF911F910F91FF90B9
:103990000C94711CCF93DF93EC019A01AB011B8E49
:1039A0001A8E198E188E1F8A1E8A60E079E08DE3C8
:1039B00090E00E94B430C9012430310520F0B901F3
:1039C0006350710902C061E070E07D8F6C8FEC85FF
:1039D000E63108F068C0B9017695679564317105E4
:1039E00018F06351710902C061E070E07F8B6E8B4B
:1039F000069718F0C901059702C081E090E0998F01
:103A0000888FC901880F991F820F931F96958795FC
:103A1000969587958D30910510F00C9702C081E046
:103A200090E09B8F8A8F20916800E83050F091E001
:103A3000EE3008F490E081E001C0880F9A95EAF733
:103A400001C084E0822B809368002C85283038F0F8
:103A50002E3040F0263148F48CE690E008C08DE628
:103A600090E005C08BE690E002C080E090E09C8B87
:103A70008B8B283030F481E001C0880F2A95EAF75B
:103A80000DC0822F90E02E3010F4089701C00E97E1
:103A900091E001C0990F8A95EAF7892F8D8B8C8D63
:103AA0009D8D0197F1F7CE01DF91CF910C94931B7F
:103AB000FF920F931F93CF93DF93EC01F22E798344
:103AC00068838B01000F111F060F171F1B830A83CA
:103AD0004C831D822B871C861D861E861F8650E008
:103AE000FA01E35BF04FE491F0E0EE0FFF1FE559C0
:103AF000F04F85919491998B888BFA01E75CF04F98
:103B000044914A8BC8010E94F3309F838E830097B3
:103B100029F0A80160E070E00E942433F0FE04C0A8
:103B200081E0888719860BC0F2FE06C081E0888795
:103B300082E089871A8605C0188681E0898782E03D
:103B40008A87DF91CF911F910F91FF900895CF93B6
:103B5000DF93EC018E819F81009711F00E948B31E1
:103B600060E08C81DF91CF910C949D26CF93DF9301
:103B7000EC0161E08C810E949D2660E08C81DF91E8
:103B8000CF910C94D626CF92DF92EF92FF920F93B3
:103B90001F93CF93DF93CDB7DEB729970FB6F89475
:103BA000DEBF0FBECDBF8C01DC0116968D919C91BE
:103BB0001797892B09F49BC00E94D125F801C48472
:103BC000D584E684F7846C197D098E099F096233D8
:103BD00071058105910580F3F894828193819A8320
:103BE0008983A681B7817D01EFEFEE1AFE0A8C91E1
:103BF0008987D8011B969C911B9750960D90BC917C
:103C0000A02DF801828991FF2EC09C91982B988756
:103C10009C91809589238F838F818E8388E08D830B
:103C200058856F8149853D812E8189819A81F7016F
:103C30005C9347FD252F3A952C93262F39F0441F8E
:103C400000C000006C93000000C0F2CF38E041914A
:103C50006C930000019761F7F801B18BA08B498745
:103C60003D832E8338C09C91982B98879C9180959A
:103C700089238F838F818C8388E08B8358856F8124
:103C800049853B812C8189819A81F7015C9347FDAD
:103C9000252F00C000C02C9300C000C000C000C091
:103CA00000C06C930000262F3A9541F0441F00009D
:103CB00000C000C000C000C000C0E8CF38E04191A3
:103CC00000C06C9300C0019709F7F801B18BA08B7D
:103CD00049873B832C839A83898378940E94D125DA
:103CE000D8011C966D937D938D939C931F97299675
:103CF0000FB6F894DEBF0FBECDBFDF91CF911F91FD
:103D00000F91FF90EF90DF90CF900895CF92DF92C8
:103D1000EF92FF920F931F93CF93DF93FC0180816B
:103D200091816817790788F5CA01AA27BB27082F50
:103D3000C32ED42EE52EFF241C2DD22FC581CC23DB
:103D400061F08C9FC0011124092FCC9E60011124C9
:103D50001D2D2C9F90011124D32F9B01220F331F67
:103D6000260F371F86819781820F931F2085DC01E4
:103D7000A20FB11D0C932185DC01A20FB11D1C9374
:103D80002285FC01E20FF11DD083DF91CF911F91BD
:103D90000F91FF90EF90DF90CF900895962F50E015
:103DA00060E070E0592B682BCB01BA010895FF92B7
:103DB0000F931F93CF93DF93EC01FF24F394F60E40
:103DC0002D81F21679F10E811F812150B9F06F3FDC
:103DD00059F430E040E050E06FEF7FEF80E090E09A
:103DE0000E94B430B9010CC08F2D90E0982F882725
:103DF0000197622F70E00E947E3002C060E070E0A8
:103E0000F8018A819B81AF01401B510B481759076C
:103E100040F44081469FC001479F900D112491932B
:103E2000F0CFFD82DF91CF911F910F91FF90089508
:103E30000F93FC0113AE14AE15AE04960E94052438
:103E40000F9108950F93FC010150040F84A996A9C6
:103E5000941718F0081728F402C0081750F0041738
:103E600040F42150260F83A995A9961720F428170E
:103E700020F480E007C0281720F481E0261710F016
:103E8000F8CF81E00F910895DB011496ED91FC913C
:103E9000159720E030E061E00994DB011496ED9184
:103EA000FC91159720E030E063E00994DB01149663
:103EB000ED91FC91159720E030E040E064E009943A
:103EC000DB011496ED91FC91159720E030E041E084
:103ED00064E00994DB011496ED91FC91159720E0C4
:103EE00030E062E00994DB011496ED91FC911597A6
:103EF00020E030E065E00994DB011496ED91FC913F
:103F0000159766E00994AF92BF92CF92DF92EF923D
:103F1000FF920F931F93CF93DF931F92CDB7DEB71E
:103F20005C018B017A0180E0F7014491811109C0A5
:103F30004F3FD9F1B801C5010E94731F81112EC0F6
:103F400039C04F3FB9F34E3FB9F1403F38F5403EDD
:103F500030F04F70B801C5010E946A1F1FC0403D7C
:103F600030F04F70B801C5010E944D1F17C0403C92
:103F7000B8F0B801C50149830E94561F4981429596
:103F8000407F4E5FC42ED12CC6010E949620B801FE
:103F9000C5010E94601FC6010E94962080E006C0F5
:103FA00047FDFCCF842F90E0F7CF81E0FFEFEF1AC1
:103FB000FF0ABACF80E001C081E00F90DF91CF917E
:103FC0001F910F91FF90EF90DF90CF90BF90AF9037
:103FD0000895860F911DFC0183A18F3F19F0642F76
:103FE0000C94D6260895EF92FF920F931F93CF93D0
:103FF000DF937C01C0E0D0E087010C0F1D1FF801AA
:1040000083A18F3F41F061E00E949D2661E0F801AD
:1040100083A10E94D6262196CD30D10569F7DF9184
:10402000CF911F910F91FF90EF9008958EBD0DB429
:1040300007FEFDCF8EB50895CF92DF92EF92FF92EB
:104040000F931F93CF93DF931F92CDB7DEB76C0111
:104050007901062F10E0F8013197E730F10508F0FB
:104060005AC0EC5CFF4F0C94D33049830E94F31F7D
:1040700061E08DE00E949D2660E08DE00E94D626E2
:1040800061E08BE00E949D2660E08BE00E94D626D6
:1040900061E08AE00E949D2661E08AE00E94D626C7
:1040A0001CBC80E58CBD49814230A8F581E08DBD06
:1040B00032C061E004C0411106C041E062E0C601C7
:1040C0000E94E91F28C040E064E00E94E91F40E030
:1040D000F5CFFC0183A18F3FF1F060E0F0CF842F9A
:1040E0000E94162018C04423B1F0F70181917F018E
:1040F00049830E94162049814150F5CF442359F04D
:10410000F701849149830E941620FFEFEF1AFF0AFE
:1041100049814150F3CF81E00F90DF91CF911F9102
:104120000F91FF90EF90DF90CF9008952EE93FE040
:10413000009729F0F9013197F1F70197F9CF089528
:10414000BF92CF92DF92EF92FF920F931F93CF9384
:10415000DF938C01EB01B42E790180E1481709F45B
:1041600054C0841700F1EAE04E1721F1FFE04F132D
:1041700057C041E0C8010E944D1F40E0BE01C80188
:104180000E946A1F41E8BE01C8010E94731FF70127
:104190004081BE01C8010E94731F40E0BE01C801FA
:1041A0000E944D1F3BC081E1481791F1E5E14E1798
:1041B00061F036C042E0C8010E94441F4EEA53E05D
:1041C000BE01C8010E94831F2BC0CA80DB8046EA63
:1041D00053E0C8010E94831FF6014481406BBE0179
:1041E000C8010E94731F41E0BE01C8010E946A1FFE
:1041F000AE01B801C6010E94B924882301F140E054
:10420000BE01C8010E944D1F0BC04DE953E002C022
:1042100042E953E0BE01C8010E94831F81E010C043
:1042200097014B2DBE01C801DF91CF911F910F91D6
:10423000FF90EF90DF90CF90BF900C94312580E0FD
:10424000DF91CF911F910F91FF90EF90DF90CF9072
:10425000BF900895FC01E60FF11D849190E0982F26
:1042600088273196E4918E0F911D0895FC01849169
:1042700008950E943621882311F0823011F486E0DF
:10428000089583E0089580E0089566E00C942A2163
:1042900068E00C942A210A96FC01849108950B96FB
:1042A000FC0184910895BF92CF92DF92EF92FF922A
:1042B0000F931F93CF93DF93EC01E62E0C811D81AA
:1042C000C8010E943621F82E8C819D810E943921DF
:1042D000B82E21E0F21619F0CC24CA9402C05FE097
:1042E000C52E8C819D810E944B21F82E8C819D8151
:1042F0000E944F21D82E8C819D810E944821E0E6AA
:10430000EE1538F4009729F0080F191F41E6F42E36
:1043100010C08C819D810E944521F0E4FE1538F487
:10432000009729F0080F191F31E4F32E02C00F5E29
:104330001F4FDE1440F4188A1B8A1C8A198A1A8AB5
:1043400080E090E050C0DF14B0F32B2D30E0F80196
:1043500084918F3F19F40F5F1F4F40C0FE1036C08D
:104360008C819D810E94362198012F5F3F4FF8017B
:10437000882311F0823091F484918B8BF901249180
:104380002C8BF8013396E491E88BF8013496E49194
:10439000E98BF8013596E491EA8B16C09491892F48
:1043A0008F7082508A8B92959F70998BF90124911E
:1043B000822F8F708C8B22952F702B8BF801329669
:1043C000E491E295EF70E88BC8010DC0F8013296D8
:1043D000E491EC210E0F111D020F131FFD1409F4BF
:1043E000AACFF394B4CFDF91CF911F910F91FF909B
:1043F000EF90DF90CF90BF9008954F925F927F92A1
:104400008F929F92AF92BF92CF92DF92EF92FF92E4
:104410000F931F93CF93DF931F92CDB7DEB72C017D
:10442000162F742E622F0E9453216C01009709F4FD
:104430003EC0F201848195810E943921F82EF2015B
:10444000838804899188910E8289781A172D101B10
:10445000282D412F692DC2010E94221F882321F19E
:10446000CF0CD11CF7E08F0E869486948694A82CEE
:10447000B12C1715C9F0392D76018E2D8C198815A0
:1044800078F4F701049120E0412F632FC2013983B2
:104490000E944324FFEFEF1AFF0A3981385FEDCF06
:1044A000CA0CDB1C1F5FE5CFF201808901C080E0F0
:1044B0000F90DF91CF911F910F91FF90EF90DF90C0
:1044C000CF90BF90AF909F908F907F905F904F90D4
:1044D00008950F931F93CF93DF9300D01F92CDB712
:1044E000DEB78C01DC015596ED91FC9156972B833C
:1044F0004A83698309954A81480F2B816981C801E4
:104500000F900F900F90DF91CF911F910F910C940E
:10451000FD21DC0114968D919C911597009709F46B
:104520003FC057962C915797FC01211108C0359632
:10453000E4915896EC935897FC013C9611C02130B9
:1045400041F43F96E4915896EC935897FC0170968D
:1045500007C03D96E4915896EC935897FC013E961F
:10456000849159968C93599758968C91589799277E
:1045700087FD909559962C915997821B910927FD9B
:1045800093955A962C915A97203441F0829FC001FE
:104590001124E6E096958795EA95E1F75B968C9372
:1045A000089523E431E2FC01368B258B0895CF93E7
:1045B000DF93EC018C819D818617970749F07D83FD
:1045C0006C83CE010E94892283E491E29E8B8D8BC5
:1045D000DF91CF9108951F93CF93DF93EC011D825C
:1045E0001C821F821E82198681E0888782E28A8768
:1045F0001F861E8680E090E02FEFFE01E80FF91F76
:1046000023A301968E309105C1F711E018A3CE01C6
:104610000E94D1221F8B188E198E80E48A8F1B8EE8
:104620008AE795E29AAB89ABDF91CF911F9108950C
:10463000DB01ED91FC910994EF92FF921F93CF93D0
:10464000DF9300D0CDB7DEB77C01DC01D196ED91D0
:10465000FC91D29782E069837A83099520E030E06B
:104660004AE069817A81C7010E941823182FD70177
:10467000D196ED91FC91D29783E00995D701D1961F
:10468000ED91FC91D29780E00995812F0F900F90CA
:10469000DF91CF911F91FF90EF9008950F931F939B
:1046A000CF93DF93EC018B01E9A9FAA982E0099588
:1046B000E9A9FAA981E0099520E030E044E1B801D8
:1046C000CE010E9418239E012D5C3F4F47E1B801A7
:1046D000CE010E941823E9A9FAA980E0DF91CF91C9
:1046E0001F910F910994FF920F931F93CF93DF9324
:1046F000EC018B01E9A9FAA982E00995E9A9FAA9D7
:1047000081E0099520E030E045E1B801CE010E944A
:104710001823F82E882341F09E012D5C3F4F47E17E
:10472000B801CE010E941823E9A9FAA980E00995F1
:104730008F2DDF91CF911F910F91FF900895CF930F
:10474000DF931F92CDB7DEB749839E012F5F3F4FA6
:104750004FE00E9418230F90DF91CF910895CF93DF
:10476000DF931F92CDB7DEB79E012F5F3F4F46E428
:104770000E94182389810F90DF91CF910895CF93E4
:10478000DF931F92CDB7DEB79E012F5F3F4F47E407
:104790000E94182389810F90DF91CF91089520E026
:1047A00030E048E40C941823CF93DF93EC016A8146
:1047B0007B810E94AF2388836A817B81CE010E9426
:1047C000BF2389836A817B81CE010E94CF238B879F
:1047D0009E012D5C3F4F6A817B8147E1CE01DF91D5
:1047E000CF910C941823CF93DF93EC016A817B81E6
:1047F0000E941C23882329F0CE010E94D42381E04B
:1048000001C080E0DF91CF910895CF92DF92EF92C7
:10481000FF920F93CF93DF9300D0CDB7DEB76C013B
:104820007B012A8349830E94EB22F601F382E28214
:10483000498145A32A8124A303A3C6010F900F90A9
:10484000DF91CF910F91FF90EF90DF90CF900C947C
:10485000F323FC01628173810C944E23CF93DF9389
:10486000EC01EE85FF85309709F009956A817B811F
:10487000CE01DF91CF910C947323462FFC0162810E
:1048800073810C949F230F93FC0182819381648F29
:10489000458F278F068F9F01245E3F4F4BE3BC015E
:1048A000CF010F910C941823FC0160A30895FC0123
:1048B000128280818150838314820895FC012081BB
:1048C0008281820F82839181891760F484818F5F56
:1048D00084838381820F891710F08FEF890F838380
:1048E00081E0089580E00895DC011696ED91FC9139
:1048F000179715968C919F01280F311DC9011192B0
:10490000E817F907E1F70895FC0191E08381861724
:1049100008F490E021E0461708F020E0322F392B10
:1049200081E05281451708F480E083239223892B8C
:104930000895DC01FB01108212968C9112978183FD
:1049400015968C9115978150828313968C91838351
:104950000895FB0141812381213029F0233031F476
:1049600068EF640F04C0642F485F01C0642F0C948B
:104970008424FC01CB01BA012681378145810C9446
:104980007C1FDC011696ED91FC91179712968C9185
:10499000481B477081E090E0042E01C0880F0A9404
:1049A000EAF7E60FF11D3081222311F0832B02C0BC
:1049B0008095832380830895FB014181DC01129659
:1049C0002C911297421768F013962C911397241785
:1049D00040F0608115962C91621718F424810C9494
:1049E000C1240895CF92DF92FF920F931F93CF932C
:1049F000DF9300D0CDB7DEB78C016B01FB01F280F5
:104A00008381813039F070F0823039F0833041F0A9
:104A100020E001C021E030E007C020E03FEF04C00B
:104A20002FEFF9CF20E031E0F7FE08C0B601C80152
:104A300029833A830E94DC243A812981F60180810E
:104A4000830F80838181820F8183FF0C69F70F9030
:104A50000F90DF91CF911F910F91FF90DF90CF903A
:104A600008950F931F93CF93DF938901FB01C281B8
:104A7000D3814233F9F068F4453109F1473141F10E
:104A8000443181F5CE010E947424CE010E94572446
:104A900029C0463411F1473411F14B3319F5B901EE
:104AA000CE010E94A9248823E9F0B801CE010E941A
:104AB000F22418C0B901CE010E94DC2413C0CE013B
:104AC0000E945E24882381F0CE010E9474240AC0D3
:104AD000B901CE010E94992405C08D8101C0898150
:104AE000F801808381E001C080E0DF91CF911F91C8
:104AF0000F91089508951F920F920FB60F921124EF
:104B00002F933F938F939F93AF93BF9380913304E1
:104B100090913404A0913504B09136043091320460
:104B200023E0230F2D3720F40196A11DB11D05C0F0
:104B300026E8230F0296A11DB11D20933204809315
:104B4000330490933404A0933504B09336048091D9
:104B5000370490913804A0913904B0913A04019639
:104B6000A11DB11D8093370490933804A09339049C
:104B7000B0933A04BF91AF919F918F913F912F9144
:104B80000F900FBE0F901F9018952FB7F89460915B
:104B900033047091340480913504909136042FBF12
:104BA00008953FB7F8948091370490913804A0910C
:104BB0003904B0913A0426B5A89B05C02F3F19F0DF
:104BC0000196A11DB11D3FBF6627782F892F9A2F0F
:104BD000620F711D811D911D42E0660F771F881FB6
:104BE000991F4A95D1F70895CF92DF92EF92FF92E5
:104BF000CF93DF936B017C010E94D125EB01C1149F
:104C0000D104E104F10489F00E94E32C0E94D12533
:104C10006C1B7D0B683E734090F381E0C81AD1088D
:104C2000E108F108C851DC4FEACFDF91CF91FF9046
:104C3000EF90DF90CF900895789484B5826084BD22
:104C400084B5816084BD85B5826085BD85B5816090
:104C500085BDEEE6F0E0808181608083E1E8F0E0F0
:104C60001082808182608083808181608083E0E81F
:104C7000F0E0808181608083E1EBF0E080818460FE
:104C80008083E0EBF0E0808181608083EAE7F0E000
:104C90008081846080838081826080838081816064
:104CA00080838081806880831092C10008958E3057
:104CB00008F08E50877020912A0190E4299F90017E
:104CC0001124822B80937C0080917A0080648093F1
:104CD0007A0080917A0086FDFCCF80917800209147
:104CE000790090E0922B0895833081F028F4813090
:104CF00099F08230A1F008958730A9F08830B9F09A
:104D00008430D1F4809180008F7D03C08091800039
:104D10008F7780938000089584B58F7702C084B523
:104D20008F7D84BD08958091B0008F7703C08091FE
:104D3000B0008F7D8093B0000895CF93DF9390E013
:104D4000FC01E75CF04F2491FC01E35BF04F8491A0
:104D5000882349F190E0880F991FFC01EB58F04F30
:104D6000A591B4918559904FFC01C591D4919FB7FD
:104D7000611108C0F8948C91209582238C938881CE
:104D800082230AC0623051F4F8948C91322F30950E
:104D900083238C938881822B888304C0F8948C9120
:104DA000822B8C939FBFDF91CF9108950F931F9318
:104DB000CF93DF931F92CDB7DEB7282F30E0F901F4
:104DC000EB5DF04F8491F901E75CF04F1491F9012C
:104DD000E35BF04F04910023C9F0882321F069833D
:104DE0000E9474266981E02FF0E0EE0FFF1FE55965
:104DF000F04FA591B4919FB7F8948C91611103C0C5
:104E00001095812301C0812B8C939FBF0F90DF9160
:104E1000CF911F910F910895FC01818D228D90E01B
:104E2000805C9F4F821B91098F7399270895FC0125
:104E3000918D828D981731F0828DE80FF11D858D4F
:104E400090E008958FEF9FEF0895FC01918D828D82
:104E5000981761F0828DDF01A80FB11D5D968C91CE
:104E6000928D9F5F9F73928F90E008958FEF9FEFD9
:104E7000089589EA98E2892B49F080E090E0892B37
:104E800029F00E94A92881110C9400000895FC01CA
:104E9000848DDF01A80FB11DA35ABF4F2C91848DC3
:104EA00090E001968F739927848FA689B7892C93F8
:104EB000A089B1898C9180648C93938D848D981393
:104EC00006C00288F389E02D80818F7D808308955C
:104ED000CF93DF93EC01888D8823C9F0EA89FB89A1
:104EE000808185FD05C0A889B9898C9186FD0FC098
:104EF0000FB607FCF5CF808185FFF2CFA889B9896D
:104F00008C9185FFEDCFCE010E944727E7CFDF913F
:104F1000CF910895CF92DF92FF920F931F93CF937B
:104F2000DF931F92CDB7DEB76C01DC015B969C91DD
:104F30005B975C968C915C97981307C05096ED91A7
:104F4000FC915197808185FD32C0F601038D10E000
:104F50000F5F1F4F0F731127F02EF601848DF8128B
:104F600011C00FB607FCF9CFD6015096ED91FC9118
:104F70005197808185FFF1CFC60169830E94472741
:104F80006981EBCF838DE80FF11DE35AFF4F6083FA
:104F9000D6015B960C935B975296ED91FC915397DB
:104FA00080818062808381E058968C930DC0D60109
:104FB0005696ED91FC91579760835096ED91FC9138
:104FC000519780818064808381E090E00F90DF9131
:104FD000CF911F910F91FF90DF90CF900895BF92D6
:104FE000CF92DF92EF92FF92CF93DF93EC016A01B1
:104FF0007B01B22EE889F98982E08083411581EE38
:10500000580761057105A1F060E079E08DE390E05B
:10501000A70196010E94923021503109410951099E
:105020005695479537952795211580E1380798F0D3
:10503000E889F989108260E874E88EE190E0A701C0
:1050400096010E949230215031094109510956952B
:10505000479537952795EC85FD853083EE85FF854F
:105060002083188EEC89FD89B082EA89FB898081D2
:1050700080618083EA89FB89808188608083EA89F6
:10508000FB89808180688083EA89FB8980818F7DAC
:105090008083DF91CF91FF90EF90DF90CF90BF9012
:1050A00008951F920F920FB60F9211242F938F9392
:1050B0009F93EF93FF93E0914B04F0914C04808118
:1050C000E0915104F091520482FD12C090818091D0
:1050D00054048F5F8F7320915504821751F0E09133
:1050E0005404F0E0E55CFB4F958F8093540401C0BD
:1050F0008081FF91EF919F918F912F910F900FBE23
:105100000F901F9018951F920F920FB60F921124B7
:105110002F933F934F935F936F937F938F939F93BF
:10512000AF93BF93EF93FF938BE394E00E944727E5
:10513000FF91EF91BF91AF919F918F917F916F916F
:105140005F914F913F912F910F900FBE0F901F9045
:1051500018958BE394E00E940C2721E0892B09F439
:1051600020E0822F089510923E0410923D0488EEB4
:1051700093E0A0E0B0E080933F0490934004A093BC
:105180004104B09342048DE592E090933C048093F7
:105190003B0485EC90E0909348048093470484ECB2
:1051A00090E090934A048093490480EC90E09093BF
:1051B0004C0480934B0481EC90E090934E048093D8
:1051C0004D0482EC90E09093500480934F0486EC61
:1051D00090E09093520480935104109254041092E2
:1051E00055041092560410925704089508950E9491
:1051F0001C260E94F6280E94B712C9E3D7E20E943B
:10520000CE192097E1F30E943927F9CFCF92DF9290
:10521000EF92FF920F931F93CF93DF936C017A016C
:10522000EB01E60EF71E00E010E0CE15DF0561F0A1
:105230006991D601ED91FC910190F081E02DC601BC
:105240000995080F191FF1CFC801DF91CF911F9168
:105250000F91FF90EF90DF90CF9008956115710549
:1052600081F0DB010D900020E9F7AD0141505109BB
:10527000461B570BDC01ED91FC910280F381E02D80
:10528000099480E090E00895EF92FF920F931F93AE
:10529000CF93DF938C01FB01C0E0D0E064917F01EC
:1052A0008FEFE81AF80A662361F0D801ED91FC91BE
:1052B0000190F081E02DC8010995C80FD91FF701B1
:1052C000EDCFCE01DF91CF911F910F91FF90EF9025
:1052D00008950C942E29DC01ED91FC910190F08150
:1052E000E02D09940F931F93CF93DF93EC016DE0B2
:1052F0000E946B298C016AE0CE010E946B29800F0D
:10530000911FDF91CF911F910F9108958F929F92DE
:10531000AF92BF92CF92DF92EF92FF920F931F93C3
:10532000CF93DF93CDB7DEB7A1970FB6F894DEBF6A
:105330000FBECDBF7C01C42EE52FCB01D22E19A20A
:1053400021E02D1510F02AE0D22E8E010F5D1F4FA7
:105350008D2C912CA12CB12C6C2D7E2FA5019401AC
:105360000E9492308C2DD29E801911240150110977
:105370008A3014F4805D01C0895CF80180832115B6
:1053800031054105510521F0C22EE32FCA01E4CFBA
:10539000B801C7010E942E29A1960FB6F894DEBF6E
:1053A0000FBECDBFDF91CF911F910F91FF90EF9076
:1053B000DF90CF90BF90AF909F908F900895CF9245
:1053C000DF92EF92FF920F931F93CF93DF93EC0145
:1053D0006A017B012115310579F4E881F981019099
:1053E000F081E02D642FDF91CF911F910F91FF90FD
:1053F000EF90DF90CF9009942A303105E9F477FFE0
:105400001AC06DE20E946B298C0144275527BA010E
:105410004C195D096E097F092AE0CE010E94862998
:10542000800F911FDF91CF911F910F91FF90EF900F
:10543000DF90CF9008952AE0B701A601CE01DF9159
:10544000CF911F910F91FF90EF90DF90CF900C9430
:1054500086299A01AB01662757FD6095762F0C943B
:10546000DF292115310541F4DC01ED91FC9101901A
:10547000F081E02D642F09940C9486299A01462F1F
:1054800050E060E070E00C94312A9A01AB0160E0DA
:1054900070E00C94312A4F925F926F927F928F92BC
:1054A0009F92AF92BF92CF92DF92EF92FF920F93B3
:1054B0001F93CF93DF93EC016A017B01B22E9A0117
:1054C000AB01C701B6010E94962F882319F069E647
:1054D00072E027C026013701E89477F82FEF3FEFFD
:1054E0004FE75FE7C301B2010E94962F81110DC003
:1054F0002FEF3FEF4FE75FE7C301B2010E94492D55
:1055000018161CF46DE672E00CC02FEF3FEF4FE76A
:105510005FE4C701B6010E94982E1816ACF461E74B
:1055200072E0CE01DF91CF911F910F91FF90EF902C
:10553000DF90CF90BF90AF909F908F907F906F90B3
:105540005F904F900C942E292FEF3FEF4FE75FECC9
:10555000C701B6010E94492D87FDE1CF20E030E070
:10556000A901C701B6010E94492D87FF0AC06DE25B
:10557000CE010E946B298C01F7FAF094F7F8F094B1
:1055800002C000E010E0A12C60E070E080E09FE34A
:10559000AB1441F020E030E040E251E40E944D2D98
:1055A000A394F6CF9B01AC01C701B6010E94E52C84
:1055B0006B017C010E94BA2D2B013C010E94E62D5B
:1055C0009B01AC01C701B6010E94E42C6B017C0178
:1055D0002AE0B301A201CE010E948629080F191FFB
:1055E000BB2039F065E772E0CE010E942E29080F3A
:1055F000191F7B2C772041F120E030E040E251E49C
:10560000C701B6010E94E72E6B017C010E94B52DF7
:105610004B01AA2497FCA094BA2C2AE030E0B501F3
:10562000A401CE010E94DF29080F191FC501B40192
:105630000E94E82D9B01AC01C701B6010E94E42C39
:105640006B017C017A94D6CFC801DF91CF911F9175
:105650000F91FF90EF90DF90CF90BF90AF909F9011
:105660008F907F906F905F904F9008950C944B2A8D
:105670004F925F926F927F92AF92BF92CF92DF92E2
:10568000EF92FF920F931F93CF93DF93CDB7DEB7C7
:1056900029013A01621B730B840B950B29893A8906
:1056A0004B895C892A193B094C095D09298B3A8B86
:1056B0004B8B5C8B9B01AC0169897A898B899C89B6
:1056C0000E946E30E418F50806091709A801970131
:1056D0000E94B4302A0D3B1D4C1D5D1DCA01B9014D
:1056E000DF91CF911F910F91FF90EF90DF90CF90BE
:1056F000BF90AF907F906F905F904F900895FC01A6
:10570000808191810C948B31CF93DF93EC01888160
:105710009981009711F00E948B31198218821D82A5
:105720001C821B821A82DF91CF9108950F931F93E1
:10573000CF93DF93EC018B016F5F7F4F888199815D
:105740000E941A32009731F0998388831B830A8361
:1057500081E001C080E0DF91CF911F910F9108950A
:10576000CF93DF93EC0188819981892B29F08A817D
:105770009B818617970760F4CE010E94962B8823A1
:1057800041F08C819D81892B19F4E881F981108287
:1057900081E0DF91CF910895EF92FF920F931F93D5
:1057A000CF93DF93EC017B018A01BA010E94B02BF9
:1057B000811104C0CE010E94842B07C01D830C837D
:1057C000B701888199810E942B33CE01DF91CF915F
:1057D0001F910F91FF90EF900895FC0111821082AC
:1057E00013821282158214826115710559F0FB0132
:1057F00001900020E9F7AF0141505109461B570BBA
:105800000C94CC2B0895EF92FF920F931F93CF939C
:10581000DF93EC017B018A01BA010E94B02B811158
:1058200004C0CE010E94842B07C01D830C83B701E6
:10583000888199810E940B33CE01DF91CF911F9116
:105840000F91FF90EF900895CF93DF93EC016115D6
:10585000710561F0FB0101900020E9F7AF014150B3
:105860005109461B570B0E94CC2B02C00E94842B6F
:10587000CE01DF91CF9108950F931F93CF93DF93C4
:1058800000D0CDB7DEB78C016115710561F0CB0199
:1058900069837A830E941233AC0169817A81C801DD
:1058A0000E94032C02C00E94842BC8010F900F900D
:1058B000DF91CF911F910F910895FC011182108209
:1058C00013821282158214820C943C2CEF92FF9268
:1058D0000F931F93CF93DF93EC017B010C811D810C
:1058E0006115710511F480E016C04115510591F064
:1058F000040F151FB8010E94B02B8823A1F3288143
:1059000039818C819D81B701820F931F0E942B33B7
:105910001D830C8381E0DF91CF911F910F91FF9048
:10592000EF900895CF93DF9300D0CDB7DEB76983B2
:105930001A8241E050E0BE016F5F7F4F0E94662CEB
:105940000F900F90DF91CF910895FA01DB0114962B
:105950004D915C911597DC0114962D913C91159712
:10596000241B350B2E173F0788F08D919C910097D3
:1059700069F0DB016D917C916115710539F08E0F35
:105980009F1F0E94323321E0892B09F020E0822FF3
:105990000895FC0144815581FB0124813581421722
:1059A000530720F040E050E00C94A52C80E00895CF
:1059B000FC0180819181009711F00C94E43260E049
:1059C00070E0CB01089508955058BB27AA270ED048
:1059D00075C166D130F06BD120F031F49F3F11F4E6
:1059E0001EF45BC10EF4E095E7FB51C1E92F77D1BE
:1059F00080F3BA17620773078407950718F071F4EC
:105A00009EF58FC10EF4E0950B2EBA2FA02D0B0141
:105A1000B90190010C01CA01A0011124FF27591BF3
:105A200099F0593F50F4503E68F11A16F040A22FF9
:105A3000232F342F4427585FF3CF4695379527956A
:105A4000A795F0405395C9F77EF41F16BA0B620B69
:105A5000730B840BBAF09150A1F0FF0FBB1F661FB0
:105A6000771F881FC2F70EC0BA0F621F731F841FF3
:105A700048F4879577956795B795F7959E3F08F019
:105A8000B3CF9395880F08F09927EE0F97958795D8
:105A90000895D9D008F481E008950CD00FC107D142
:105AA00040F0FED030F021F45F3F19F0F0C051110A
:105AB00039C1F3C014D198F39923C9F35523B1F335
:105AC000951B550BBB27AA2762177307840738F06D
:105AD0009F5F5F4F220F331F441FAA1FA9F333D0CC
