:100000000C9465070C948D070C948D070C94741751
:100010000C9474170C9474170C948D070C948D0722
:100020000C948D070C948D070C948D070C948D0700
:100030000C948D070C948D070C948D070C948D07F0
:100040000C942A210C948D070C9400240C943224D7
:100050000C948D070C948D070C948D070C948D07D0
:100060000C948D070C948D07E41B081C0A1C181CAB
:100070001E1C221C2D1C0A52657374617274696EF9
:10008000672E2E2E0A00736563005761726D7570BE
:100090002E2E2E004272696768746E65737320207D
:1000A0003A00436F756C64206E6F7420636F6E6EE0
:1000B00065637420746F20576966693A2000576938
:1000C0006669206D6F64756C65206E6F7420776F44
:1000D000726B696E670A00436F6E6E656374696E5A
:1000E0006720746F20576966692E2E2E0A004465BA
:1000F00062756720496E666F2069733A20000A4373
:100100006F6E66696775726174696F6E2072657370
:1001100065742E2E2E0A00446F6E650A004E6577B8
:10012000204272696768746E6573732076616C75BE
:10013000653A20003E00736170200077736900709B
:10014000706D0070726F787900627266006272671B
:1001500000746573740075626976007562696B007E
:1001600074736B657900726573657400646562759C
:1001700067006C74007769666900545320524553D8
:100180003A200041542B43495053454E443D0041D1
:10019000542B43495053544152543D22544350220E
:1001A0002C220035302E32332E3132342E363600AA
:1001B0003138342E3130362E3135332E313439004A
:1001C000222C3830005341503A200053656E642091
:1001D0005341503A005542493A20005542493A00AD
:1001E0005453204B45593A00464F554E440A00534C
:1001F00074617274696E672057696669204D6F6417
:10020000756C652E2E2E0A004553502050726F7863
:10021000790A0057494649204F4B210A0041542B87
:1002200043574155544F434F4E4E3D310A004154C0
:100230002B43574A41505F4445463D0041540A0014
:1002400041542B43574D4F44455F4445463D310A89
:10025000007350503A004E6F205769466920636F13
:100260006E66696775726174696F6E0A0053656EB8
:100270006420496E74657276616C3A200056697329
:1002800069742027766169722D6D6F6E69746F7263
:100290002E636F6D2720666F7220636F6E666967CD
:1002A00075726174696F6E2064657461696C730A3C
:1002B000007641697220434F32204D6F6E69746F32
:1002C00072204E4449523A2076312E31310A000ACA
:1002D0000A4465470A0A00FFE0FFD1AFFF32FFD0B2
:1002E000FFFEFFE0FFD1AEFFD0FFFEFFE0FFD11029
:1002F00000FFFEFFD0FFE0FFC1FFD1AED580A83FD9
:10030000D300408D142000A1C8DA1281CFD9F1DBCF
:10031000402EA4A6AFFFD0FFFE00060A00FE070194
:100320009E0337207FFE09FE08FE00000006000045
:10033000010707060200808080808000800303039D
:10034000060105A0A0A005050506000250F850F81A
:10035000500509090600FF2070A8A07028A8702089
:1003600005070706000078A8B05068A890050707A1
:100370000600006090A040A89068010303060205F3
:100380008080800309090601FF20408080808080F2
:1003900040200309090601FF804020202020204042
:1003A0008005050506000220A870A82005050506A1
:1003B00000012020F820200204040601FEC0C040F5
:1003C00080030101060103E0020202060200C0C030
:1003D000050A0A0600FE0808101020204040808010
:1003E000050707060000708898A8C88870050707E9
:1003F00006000020E020202020F805070706000066
:10040000708808102040F80507070600007088086B
:100410003008887005070706000010305090F8106B
:1004200038050707060000F880F0080888700507FF
:10043000070600007080F0888888700507070600AE
:1004400000F8080810202020050707060000708823
:10045000887088887005070706000070888888788B
:100460000870020505060200C0C000C0C0020707F0
:100470000601FEC0C000C0C040800407070601009E
:1004800010204080402010050303060002F800F809
:100490000407070601008040201020408005070760
:1004A00006000070880810200020050707060000DD
:1004B0007088B8A8B880780507070600002050505B
:1004C00088F88888050707060000F08888F0888883
:1004D000F005070706000070888080808870050797
:1004E00007060000F08888888888F005070706005E
:1004F00000F88080F08080F8050707060000F8808B
:1005000080F080808005070706000070888098884A
:100510008870050707060000888888F8888888059D
:100520000707060000F82020202020F8050707060E
:10053000000008080808888870050707060000887A
:1005400090A0C0A0908805070706000080808080EA
:100550008080F805070706000088D8A8A888888842
:1005600005070706000088C8A89888888805070737
:1005700006000070888888888870050707060000D4
:10058000F08888F08080800508080600FF70888861
:100590008888A87008050707060000F08888F0889A
:1005A0008888050707060000708880700888700535
:1005B0000707060000F82020202020200507070656
:1005C00000008888888888887005070706000088EA
:1005D000888850502020050707060000888888A8D2
:1005E000A8D888050707060000888850205088880A
:1005F0000507070600008888885020202005070787
:10060000060000F80810204080F80209090602FFE1
:10061000C080808080808080C0050A0A0601FE803C
:100620008040402020101008080209090601FFC080
:1006300040404040404040C00503030600042050B5
:10064000880601010600FEFC020202060106804047
:1006500005050506000078888898680507070600E4
:10066000008080F0888888F0050505060000708805
:100670008080780507070600000808788888887851
:100680000505050600007088F88078040707060154
:10069000003040E0404040400507070600FE7888F3
:1006A00088887808700507070600008080F0888831
:1006B00088880307070601004000C0404040E0036F
:1006C00009090600FE2000602020202020C0050728
:1006D00007060000808090A0E090880307070601CD
:1006E00000C04040404040E0050505060000F0A87D
:1006F000A8A8A8050505060000B0C88888880505D3
:100700000506000070888888700507070600FEF05F
:10071000888888F080800507070600FE788888882A
:10072000780808050505060000B0C880808005052A
:100730000506000078807008F004070706010040F5
:1007400040E0404040300505050600008888889854
:100750006805050506000088885050200505050637
:100760000000A8A8A8A8500505050600008850208C
:1007700050880507070600FE888888887808700575
:100780000505060000F8102040F8030B0B0601FEDB
:10079000204040404080404040402001090906027E
:1007A000FF808080808080808080030B0B0601FEAC
:1007B000804040404020404040408005020206000A
:1007C0000368B0000000060000004841FCF323006D
:1007D0000000002A3A0024FA2300141236200611E1
:1007E000070E001F0F801F9F800F9F00079E0003B2
:1007F000FC0081F810FEF7F0FFFFF0FFFFF0F9F9C1
:10080000F001F80003FC00079E000F9F001F8F807F
:100810001F0F80070E001D1D74310A000007000025
:1008200000070000000700000007000000070000AC
:10083000000700000007000000070000000700009C
:10084000000700000007000000070000000700008C
:10085000FFFFFFF8FFFFFFF8FFFFFFF800070000B2
:10086000000700000007000000070000000700006C
:10087000000700000007000000070000000700005C
:10088000000700000007000000070000000700004C
:100890000B0C180F02FA0FE00FC01FC01F801F8043
:1008A0003F003F003E007E007C007C00F8000D060B
:1008B0000C110209FFF8FFF8FFF8FFF8FFF8FFF846
:1008C0000706060F0500FEFEFEFEFEFE112775154B
:1008D00002FD000F80000F00001F00001F00001E1F
:1008E00000003E00003E00003E00007C00007C0056
:1008F000007C0000780000F80000F80000F0000123
:10090000F00001F00001F00003E00003E00003E06C
:100910000003C00007C00007C0000780000F800070
:100920000F80000F80001F00001F00001F00003E0E
:1009300000003E00003E00003C00007C00007C0007
:10094000007C0000F8000019238C1C020101FF80CC
:100950000007FFE0000FFFF0001FFFF8001FFFFC83
:10096000003F81FC003F00FE007F007E007E007E95
:10097000007E003F007E003F00FE003F00FE003F83
:1009800000FE003F00FE003F80FE003F80FE003F73
:1009900080FE003F80FE003F80FE003F80FE003F63
:1009A00080FE003F00FE003F00FE003F007E003F53
:1009B000007E003F007E007F007F007E003F00FE43
:1009C000003F81FC001FFFFC001FFFF8000FFFF03D
:1009D0000007FFE00001FF80000F23461C05000018
:1009E000FE01FE07FE0FFE3FFEFFFEFFFEFEFEFCC9
:1009F000FEF0FEC0FE00FE00FE00FE00FE00FE0057
:100A0000FE00FE00FE00FE00FE00FE00FE00FE00F6
:100A1000FE00FE00FE00FE00FE00FE00FE00FE00E6
:100A2000FE00FE00FE19238C1C020100FFE0000303
:100A3000FFF80007FFFC000FFFFE001FFFFF003F55
:100A4000C0FF003F803F803F003F807F003F80002D
:100A5000003F8000003F8000003F8000007F0000DA
:100A6000007F000000FF000001FE000003FC00000A
:100A700007FC00000FF800001FF000003FE000003E
:100A80007FC00001FF000003FE000007FC00000F14
:100A9000F000003FE000007F800000FF000000FF4A
:100AA000FFFF80FFFFFF80FFFFFF80FFFFFF80FF52
:100AB000FFFF80FFFFFF801823691C020103FF80F6
:100AC0000FFFE01FFFF03FFFF87FFFFC7F03FCFEFE
:100AD00001FCFE00FCFE00FE0000FE0000FE000126
:100AE000FC0001FC000FF800FFF000FFC000FF80D9
:100AF00000FFE000FFF80003FC0000FE0000FE0025
:100B0000007E00007F00007FFE007FFE007FFE0071
:100B1000FEFF00FE7F01FC7FFFFC3FFFF81FFFF0A0
:100B20000FFFE003FF801A238C1C01000007FC006C
:100B3000000FFC00001FFC00001FFC00003FFC0039
:100B4000003FFC00007FFC0000FDFC0000FDFC00FD
:100B500001F9FC0001F9FC0003F1FC0007F1FC00C5
:100B600007E1FC000FC1FC000FC1FC001F81FC006D
:100B70003F81FC003F01FC007E01FC00FE01FC0007
:100B8000FC01FC00FFFFFFC0FFFFFFC0FFFFFFC035
:100B9000FFFFFFC0FFFFFFC0FFFFFFC00001FC0021
:100BA0000001FC000001FC000001FC000001FC0051
:100BB0000001FC000001FC001823691C02007FFFFB
:100BC000FC7FFFFC7FFFFC7FFFFC7FFFFC7FFFFCC7
:100BD0007F00007F00007F00007F00007F00007F1B
:100BE00000007F1FC07F7FF07FFFF87FFFFC7FFF4B
:100BF000FC7FC1FE7F00FE7F007F7E007F00007FC4
:100C000000007F00007F00007F00007FFE007FFE6D
:100C100000FEFE00FEFF01FC7FFFFC7FFFF83FFFB0
:100C2000F00FFFC007FF8019238C1C020100FFC0DA
:100C30000003FFF00007FFF8000FFFFC001FFFFE9E
:100C4000001FE0FE003FC07F003F807F007F00006C
:100C5000007F0000007F0000007E000000FE1FC03B
:100C600000FE7FF000FEFFF800FEFFFC00FFFFFE2D
:100C700000FFE1FE00FFC0FF00FF807F00FF003F9C
:100C800000FF003F80FF003F80FF003F80FF003FEC
:100C9000807F003F007F003F007F807F007F807F5C
:100CA000003FC0FE001FFFFC001FFFFC000FFFF80D
:100CB0000007FFE00001FF80001823691C0200FF0D
:100CC000FFFFFFFFFFFFFFFFFFFFFFFFFFFFFFFF34
:100CD000FF00007F00007F0000FE0000FE0001FE1C
:100CE0000001FC0003FC0003F80007F80007F00017
:100CF0000FF0000FF0001FE0001FE0003FC0003FBA
:100D0000C0003F80007F80007F0000FF0000FF00E8
:100D100001FE0001FE0003FC0003FC0007F80007D1
:100D2000F8000FF8000FF00019238C1C020103FFDC
:100D3000C0000FFFF0001FFFFC003FFFFE003FFF61
:100D4000FE007FC1FF007F80FF007F007F007F00EB
:100D50007F007F007F007F007F007F007F003F805B
:100D6000FE003FC1FC000FFFF80007FFE00001FF9D
:100D7000C0000FFFF0001FFFF8003FC1FE007F80A2
:100D8000FE007F007F00FE003F00FE003F00FE00EF
:100D90003F80FE003F80FE003F80FF007F80FF001D
:100DA0007F007F80FF007FFFFF003FFFFE003FFFCF
:100DB000FC000FFFF80003FFE00019238C1C020168
:100DC00001FFC00007FFE0000FFFF8001FFFFC005D
:100DD0003FFFFC007F81FE007F00FE007E00FF00E1
:100DE000FE007F00FE007F00FE007F80FE007F800F
:100DF000FE007F80FE007F80FE00FF807F00FF807E
:100E00007F83FF803FFFFF803FFFBF801FFFBF80CA
:100E10000FFF3F8001F83F8000003F0000007F008F
:100E200000007F0000007F007F00FE007F00FE00CA
:100E30007F01FE003F83FC001FFFFC001FFFF80046
:100E40000FFFF00007FFE00001FF800007181810F7
:100E50000700FEFEFEFEFEFE000000000000000097
:100E600000000000FEFEFEFEFEFE00000008000284
:100E70000100000304070000000000000000010260
:100E80000408102040800102040810200102040818
:100E900010200404040404040404020202020202F6
:100EA00003030303030300000000230026002900BE
:100EB00000000000250028002B0000000000240096
:100EC00027002A00B00E6224390F11241FBECFEF75
:100ED000D8E0DEBFCDBF12E0A0E0B1E0EAE9FFE577
:100EE00002C005900D92A035B107D9F724E0A0E526
:100EF000B2E001C01D92A93CB207E1F71EE0C8ECC8
:100F0000DEE004C02297FE010E942C2AC43CD107D7
:100F1000C9F70E94A6240C94C02F0C940000CF9314
:100F2000DF93EC01262F4CAD6BAD04960E94181E8A
:100F30002BAD992787FD9095820F911D8BAF81E096
:100F400090E0DF91CF9108950C94CD2ECF92DF9257
:100F5000EF92FF920F931F93CF93DF9300D0CDB703
:100F6000DEB76C018B017C018EE1E80EF11CC6013D
:100F700069837A830E94CD2EF80181938F01FFEF60
:100F8000CF1ADF0A69817A81CE14DF0481F7CB01A1
:100F90000F900F90DF91CF911F910F91FF90EF90E5
:100FA000DF90CF9008950F931F93CF93DF938C0121
:100FB000EB010E94CD2E8883C80101960E94CD2EA0
:100FC0008983CE01DF91CF911F910F910895DC01AC
:100FD000ED91FC910190F081E02D0994EF92FF9248
:100FE0000F931F93CF93DF931F92CDB7DEB77C0192
:100FF000FC0100811181C80169830E94CD2E6981A5
:10100000681719F0C8010E94D52EC7010F90DF9113
:10101000CF911F910F91FF90EF900895EF92FF9263
:101020000F931F93CF93DF9300D0CDB7DEB77C0132
:101030008B01FB0160819A838983CE0101960E9416
:10104000EE07F8016181FFEFEF1AFF0AFA82E982E9
:10105000CE0101960E94EE07C8010F900F90DF911C
:10106000CF911F910F91FF90EF9008950F931F93D1
:10107000CF93DF9300D0CDB7DEB78B01FB0160814A
:101080009A838983CE0101960E94EE07C8010F90D2
:101090000F90DF91CF911F910F910895CF93DF9320
:1010A000C0911403D091150361E572E088E294E0E9
:1010B0000E94F3244AE050E0BE0188E294E00E94DE
:1010C000E42588E294E0DF91CF910C94212540E85B
:1010D00055E260E070E088E193E00E94771861E0FB
:1010E00082E00E944C2261E082E00C94852288E13B
:1010F00093E00E94051961E082E00E944C2260E0CA
:1011000082E00C9485220E94770868EE73E080E00C
:1011100090E00E94A3210C9467088AE190E00E946D
:10112000A40791E0813009F090E0892F08958F9213
:101130009F92AF92BF92CF92DF92EF92FF920F9366
:101140001F93CF93DF93CDB7DEB7C654D1090FB647
:10115000F894DEBF0FBECDBF6C01962E872E8E0198
:101160000F5F1F4F8CE3E82EF12CB02EA12EC7018C
:101170000E94CD2EF80181938F01FFEFEF1AFF0A35
:1011800084E6E816F10499F78E01075D1F4FB80158
:1011900084E690E00E94A60729812F5F223008F4A0
:1011A00043C088E294E00E9421256BED71E088E263
:1011B00094E00E94F3246B2D7A2D88E294E00E9443
:1011C00018256DE271E088E294E00E941825B801CC
:1011D00088E294E00E94182588E294E00E9421258C
:1011E0008F929F921F930F93AF92BF922FE231E0A5
:1011F0003F932F93DF92CF920E94D92C65ED71E03F
:1012000088E294E00E94F324B60188E294E00E9410
:10121000182588E294E00E9421250FB6F894DEBFDD
:101220000FBECDBF81E001C080E0CA5BDF4F0FB6CB
:10123000F894DEBF0FBECDBFDF91CF911F910F910C
:10124000FF90EF90DF90CF90BF90AF909F908F90E6
:101250000895FF920F931F93CF93DF93D82FC92F39
:10126000162F072F84EB90E00E94A407F82E88E247
:1012700094E00E9421256BEC71E088E294E00E94EA
:10128000F3244AE050E06F2D88E294E00E94DD25CF
:1012900088E294E00E94212584EB90E00E94A4075C
:1012A000813011F50F931F9323E631E03F932F9385
:1012B000CF93DF930E94D92C65EC71E088E294E033
:1012C0000E94F3246D2F7C2F88E294E00E94182561
:1012D00088E294E00E9421250F900F900F900F90CC
:1012E0000F900F9081E001C080E0DF91CF911F91BE
:1012F0000F91FF900895EF92FF920F931F93CF935A
:10130000DF9300D0CDB7DEB77B018C01E81AF90A74
:10131000C701800F911FF80121918F01222339F01D
:101320002983BE016F5F7F4F0E943608F1CF1A827A
:101330001982BE016F5F7F4F0E940E080F900F90C1
:10134000DF91CF911F910F91FF90EF900895FC01D5
:10135000019620812032D9F3CF010895CF93DF93F6
:1013600000D0CDB7DEB70E94422C9A838983BE019C
:101370006F5F7F4F85EB90E00E940E080F900F90FB
:10138000DF91CF910895CF93DF930E94422CEC011F
:101390008F3F91054CF48739910514F0C6E9D0E0F0
:1013A000D7FF02C0C0E0D0E0C09317036DE171E049
:1013B00088E294E00E94F3244AE050E06C2F88E237
:1013C00094E00E94DD2588E294E00E94212560914E
:1013D00017038AE390E00E94D52E80E090E0DF9131
:1013E000CF910895DF92EF92FF920F931F93CF93C7
:1013F000DF9300D0CDB7DEB77C0100E110E0D12C47
:10140000BE016F5F7F4FC8010E94D30729813A81D7
:10141000E216F30644F0D3940E5F1F4F85E0D81216
:10142000EFCF85E001C08D2D0F900F90DF91CF9110
:101430001F910F91FF90EF90DF900895CF92DF9270
:10144000EF92FF920F931F93CF93DF93CDB7DEB749
:1014500028970FB6F894DEBF0FBECDBF8C016EE6A5
:1014600071E0CE0101960E949F26F80180818436AA
:1014700029F48FE691E00E941E0A35C0D12C780134
:10148000F8016081262F332727FD3095205331093D
:101490002A30310528F4CE0101960E9444271AC053
:1014A00089819A810E94422C98878F83CC24C3948F
:1014B000CD0C8D2D90E00896BE01695F7F4F880F9F
:1014C000991F0E940E086EE671E0CE0101960E94FF
:1014D000D626DC2C0F5F1F4FF7018081882319F07F
:1014E000F4E0FD1560F6CE0101960E9431262896A3
:1014F0000FB6F894DEBF0FBECDBFDF91CF911F9125
:101500000F91FF90EF90DF90CF900895CF93DF93EE
:1015100000D0CDB7DEB7BE016F5F7F4F80E190E0B6
:101520000E94D30789819A81019621F48FE691E088
:101530000E941E0A0F900F90DF91CF9108950F9394
:101540001F93CF93DF930E94860A8AEA92E00E945B
:10155000651902E912E0C0E0D0E0F8012191319173
:10156000419151918F01BE018AEA92E00E94351AA1
:101570002196C630D10589F764E18AEA92E00E949B
:10158000861A8AEA92E0DF91CF911F910F910C9415
:101590007219CF93C091170164E970E088E294E07A
:1015A0000E94F3244AE050E06C2F88E294E00E940D
:1015B000DD2588E294E0CF910C94212587EB90E023
:1015C0000E94A4078F3F69F0682F70E080E090E0F0
:1015D0000E949A2820E030E040E251E40E94FF2778
:1015E000089560E070E080E89FE30895CF92DF9275
:1015F000EF92FF92CF93DF938091140390911503A4
:10160000009781F10E94F209D82F84E0D89FF00161
:101610001124EE56FD4FC080D180E280F380C0E0FF
:101620006C2F70E0A70196018AEA92E00E94351AB9
:10163000CF5FDC17A8F7C63058F46C2F70E020E0BD
:1016400030E0A9018AEA92E00E94351ACF5FF3CF19
:101650008AEA92E0DF91CF91FF90EF90DF90CF90F8
:101660000C947219DF91CF91FF90EF90DF90CF90A3
:1016700008954F925F926F927F928F929F92AF9256
:10168000BF92CF92DF92EF92FF920F931F93CF936F
:10169000DF9361E084E592E00E94032080918D0257
:1016A000811107C081E080938D0284E592E00E9461
:1016B000A21F6FEF84E592E00E94EC1F80918D02E3
:1016C000811107C081E080938D0284E592E00E9441
:1016D000A21F84E592E00E94D81FCFE2D7E006E483
:1016E00030ED832E3BEF932EAA24A394B12C48EE29
:1016F000C42E43E0D42EE12CF12C14E68091170186
:10170000813019F469E173E002C069EC77E084E5A7
:1017100092E00E94861E6091140370911503683E4A
:1017200023E0720710F481E201C085E080938B0210
:10173000C0938C026115710531F04AE050E080E5FC
:1017400092E00E94E42569E173E084E592E00E9462
:10175000861E10928B02D0938C02609115017091BD
:10176000160180E592E00E941825809159038111AD
:1017700017C000938B02D0938C026AE870E080E57A
:1017800092E00E94F3248091140390911503892B19
:1017900039F40E947421613A7F4081059105B8F4C3
:1017A00084E592E00E94DD1F8111A8CFDF91CF91E7
:1017B0001F910F91FF90EF90DF90CF90BF90AF906F
:1017C0009F908F907F906F905F904F9008950E94B0
:1017D00074212B013C0169EC77E084E592E00E94E2
:1017E000861E10928B02C0938C02C501B40164194D
:1017F000750986099709A70196010E94E929BA018E
:10180000A9012AE030E080E592E00E94D02569E15C
:1018100073E084E592E00E94861E10938B02C093D1
:101820008C0266E870E080E592E00E94F324B8CF75
:10183000CF93DF93EC010E948D08882341F0D09371
:101840001601C0931501DF91CF910C94390BDF91F4
:10185000CF9108950F931F93CF93DF9300D0CDB70F
:10186000DEB726E040E855E260E070E088E294E010
:101870000E949E2380915A03882331F06FEC72E01E
:1018800088E294E00E94F32461EB72E088E294E045
:101890000E94F3246DE772E088E294E00E94F32452
:1018A000BE016F5F7F4F85EB90E00E94D3070981F7
:1018B0001A816DE672E088E294E00E94F3244AE027
:1018C00050E0B80188E294E00E94C82588E294E0E4
:1018D0000E9421250E948D08811106C066E572E0F4
:1018E00088E294E00E94F3248AE390E00E94A40737
:1018F000809317030E949F0A0E9477088EE691E06A
:101900000E94180C0F900F90DF91CF911F910F91B3
:101910000895CF93DF9300D000D000D0CDB7DEB7CD
:10192000BC01CE0101960E949F26CE0101960E9425
:101930008A277093150360931403CE0101960E94C9
:1019400031260E94F60A0E94390B26960FB6F894AB
:10195000DEBF0FBECDBFDF91CF9108954F925F9252
:101960006F927F928F929F92AF92BF92CF92DF92AF
:10197000EF92FF92CF93DF93D82FC62F262F30E020
:10198000A8EEB3E00E94302A2B013C01812C912C5F
:101990005401C12CD12C760184149504A604B704FB
:1019A00094F48D2F0E940622AC01662757FD6095A6
:1019B000762FC40ED51EE61EF71E8FEF881A980AE2
:1019C000A80AB80AE9CFC701B6010E9498286B019E
:1019D0007C0188EE93E0C89FB001C99F700D11246F
:1019E000882777FD8095982F0E949A289B01AC014B
:1019F000C701B6010E94FF27DF91CF91FF90EF90C2
:101A0000DF90CF90BF90AF909F908F907F906F901E
:101A10005F904F900895AF92BF92CF92DF92EF9276
:101A2000FF920F931F93CF93DF93809117038F3F04
:101A300009F055C061E08EE090E00E94AE0CAB0171
:101A4000BC0188E493E00E94F7158BE390E00E94CC
:101A5000CD2E813019F4C0E9D1E002C0C8EED3E048
:101A600088E493E00E9474166B017C010E94DE0AF8
:101A70009B01AC01C701B6010E944E290E94672854
:101A80006B3071053CF4662319F06093170129C08F
:101A900081E025C07E010027F7FC0095102FC617B6
:101AA000D7070CF4BE01882777FD8095982F2091E9
:101AB0000A011F921F921F922F935BE0A52EB12C5B
:101AC000C12CD12C2BE030E040E050E00E94EA2510
:101AD000609317010F900F900F900F9002C08093AA
:101AE0001701609117018AEA92E00E94861A8AEA39
:101AF00092E0DF91CF911F910F91FF90EF90DF90D7
:101B0000CF90BF90AF900C947219CF92DF92EF926A
:101B1000FF92C0908E02D0908F02E0909002F090E1
:101B200091020E9474216C197D098E099F09693800
:101B300073418105910590F00E94742160938E029B
:101B400070938F0280939002909391020E94F60A04
:101B5000FF90EF90DF90CF900C940B0DFF90EF90E3
:101B6000DF90CF9008950E941E0A0E94850D67E1C4
:101B700071E088E294E00C94F32466E770E088E278
:101B800094E00E94F3246CE271E080E090E00E9417
:101B9000A3210C9400000895CF93DF93C0E0D0E020
:101BA0006FEFCE010E94D52E2196CC3281E0D8076E
:101BB000B9F7DF91CF9108950E94CC0D6EEF70E0E0
:101BC00088E294E00E94F3240E94BD0D80E090E042
:101BD0000895CF92DF92EF92FF926B017C010E94F9
:101BE0006728882777FD8095982F0E949A289B0167
:101BF000AC01C701B6010E94962720E030E040E228
:101C000051E40E944E290E946728CB01FF90EF907B
:101C1000DF90CF9008952F923F924F925F926F92F4
:101C20007F928F929F92AF92BF92CF92DF92EF926C
:101C3000FF920F931F93CF93DF93CDB7DEB76E97CD
:101C40000FB6F894DEBF0FBECDBFD82EC92E7B01D4
:101C50008E010F5F1F4FB8018CE890E00E94A6072D
:101C600089818F5F823008F461C088E294E00E942D
:101C7000212560EE71E088E294E00E94F324B8012F
:101C800088E294E00E94182588E294E00E942125D1
:101C90008091FD029091FE02009761F0B701681BF0
:101CA000790B882777FD8095982F0E949A28AB01A1
:101CB000BC0103C040E050E0BA0187E393E00E941A
:101CC000F71588E493E00E9474162B013C0187E32A
:101CD00093E00E9474160E94E90D382E292E87E3A6
:101CE00093E00E9474164B015C01C301B2010E9493
:101CF00067287F936F932F923F92C501B4010E9492
:101D000067287F936F93FF92EF921F930F9388E85A
:101D100091E09F938F93CF92DF920E94D92C0FB6C0
:101D2000F894DEBF0FBECDBF81E001C080E06E96AB
:101D30000FB6F894DEBF0FBECDBFDF91CF911F91DC
:101D40000F91FF90EF90DF90CF90BF90AF909F905A
:101D50008F907F906F905F904F903F902F9008955D
:101D60000F93CF93DF9364E088E493E00E94E31540
:101D700064E087E393E00E94E31520E04AE069E035
:101D800088E193E00E94471862E083E093E00E94BC
:101D9000E31523E04FE066E070E08AEA92E00E94FB
:101DA000071940E06FEF80E00E947D1A6093920275
:101DB00070939302809394029093950240E06FEFAA
:101DC0008CE80E947D1A609396027093970280932C
:101DD00098029093990240E06FEF8FEF0E947D1A76
:101DE00060939A0270939B0280939C0290939D0251
:101DF00040E068EC8FEF0E947D1A60939E02709322
:101E00009F028093A0029093A10240E068E78FEFC9
:101E10000E947D1A6093A2027093A3028093A40291
:101E20009093A50240E060E08FEF0E947D1A6093DE
:101E3000A6027093A7028093A8029093A902109221
:101E4000530210925202C0E5D2E082E192E09983FF
:101E5000888308E027E046E069E171E0CE010E9456
:101E6000C71A8AE192E099838883DF91CF910F911D
:101E700008958AEA92E00E94561983E093E00E9456
:101E8000B51588E193E00E94EE1787E393E00E9486
:101E9000B51588E493E00C94B515EF92FF920F937B
:101EA0001F93CF93DF93CDB7DEB7C254D1090FB6DE
:101EB000F894DEBF0FBECDBF20E041E160E1CE016E
:101EC00001960E94471885E0E8E2F1E0DE01DE9627
:101ED00001900D928A95E1F740E855E260E070E0EC
:101EE000CE0101960E947718E981FA814EAD50E04B
:101EF0000280F381E02DBE01615C7F4FCE0101962F
:101F0000099564E670E080E090E00E94A3218E01D4
:101F1000005E1F4F7E0188E3E80EF11CCE010196A2
:101F20000E941D17892B51F0CE0101960E948F1639
:101F3000F80181938F01EE15FF0581F70BA110E0E9
:101F4000102F00278CA1080F111DB80180E090E030
:101F50000E949828AB01BC0183E093E00E94F71532
:101F6000CE0101960E940519CE0101960E94EE173E
:101F7000C801CE5BDF4F0FB6F894DEBF0FBECDBFFA
:101F8000DF91CF911F910F91FF90EF900895CF9225
:101F9000DF92EF92FF92C090FF02D0900003E0909A
:101FA0000103F09002030E9474216C197D098E09CF
:101FB0009F09613177428105910528F480911403CE
:101FC0009091150328C00E9474216093FF027093C2
:101FD000000380930103909302030E944D0F7C0144
:101FE0000E947421603D7B4F8140910550F486E250
:101FF000E81682E0F80629F41092590380E090E098
:102000000AC081E08093590383E093E00E94741634
:102010000E946728CB01FF90EF90DF90CF9008954A
:10202000CF93DF930E944D0FEC016EEB71E088E2DD
:1020300094E00E9418254AE050E0BE0188E294E056
:102040000E94C82588E294E0DF91CF910C9421256D
:102050000E944E080E9410100E94C90A88E294E073
:102060000C942125CF93C091160381E0C827C0931B
:10207000160388E294E00E9421256EEE70E088E26B
:1020800094E00E94F3246C2F70E04AE050E088E274
:1020900094E00E94C82588E294E00E942125809166
:1020A000160381110E94281080E090E0CF910895DE
:1020B0008F929F92BF92CF92DF92EF92FF920F93F7
:1020C0001F93CF93DF9300D000D0CDB7DEB7182F8A
:1020D000092FB62E2C8339834A835B830E94742197
:1020E0006B017C012C8139814A815B81C20ED31E38
:1020F000E41EF51E812E902E0E9474216C157D0524
:102100008E059F0540F588E193E00E941D17892BFD
:1021100099F388E193E00E948F16282FBB2081F06D
:10212000843124F48A3011F08D3051F4622F7727F6
:1021300067FD709588E294E02C830E94E7072C816C
:10214000F40180812813D6CF8181882331F0FFEFFD
:102150008F1A9F0AD1CF80E001C081E00F900F90CD
:102160000F900F90DF91CF911F910F91FF90EF9003
:10217000DF90CF90BF909F908F9008956FEE71E0A9
:1021800088E294E00E94F3240E94830828EB3BE05D
:1021900040E050E0609118018BEC91E00E945810F3
:1021A000682F70E04AE050E088E294E00E94C82581
:1021B00088E294E00E94212520E335E740E050E0EA
:1021C00061E081ED91E00E945810811104C00E94ED
:1021D000770880E0089568EE71E088E294E00E945C
:1021E000F32481E008958F929F92AF92BF92CF9295
:1021F000DF92EF92FF920F931F93CF93DF93CDB7B0
:10220000DEB7C659D1090FB6F894DEBF0FBECDBFF9
:102210007B016130710541F4BC01CE0101960E9441
:102220000B0E81110FC00BC06230710509F07EC02A
:10223000BC01CE0101960E949708811181C08FEFE9
:102240009FEF82C077E0A72EB12CC12CD12CCE01FC
:1022500001964C0191E0E916F10419F400EB11E04C
:1022600002C003EA11E06FE871E088E193E00E94A8
:10227000F324B80188E193E00E94F32460EC71E05C
:1022800088E193E00E94F32488E193E00E942125F5
:1022900020EA3FE040E050E061E082E191E00E940E
:1022A0005810811107C0EFEFCE1ADE0ACA14DB0402
:1022B0008CF235C0F40101900020E9F78F01015044
:1022C00011090819190963E871E088E193E00E9497
:1022D000F3244AE050E0B80188E193E00E94E4254D
:1022E00088E193E00E94212520E737E140E050E0BB
:1022F00061E088ED91E00E9458108823A1F2B401BA
:1023000088E193E00E94182520E83EE340E050E099
:1023100061E08AED91E00E945810882321F281E06B
:1023200090E0CA14DB0484F080E00EC0E3E0EE1617
:10233000F10431F4BC01CE0101960E9429097DCF40
:10234000AA24A394B12C81CFCA56DF4F0FB6F894BC
:10235000DEBF0FBECDBFDF91CF911F910F91FF90D8
:10236000EF90DF90CF90BF90AF909F908F900895A7
:10237000AF92BF92CF92DF92EF92FF920F931F9393
:10238000CF93DF9300D0CDB7DEB77C010E94BE10A3
:10239000811149C00E94BE10811145C000E010E0CB
:1023A0000E947708F092FE02E092FD0201301105D2
:1023B00041F081E0A816B10421F081E0C816D104F3
:1023C00081F487E092E00E94180C81E090E09A830B
:1023D0008983BE016F5F7F4F8AE190E00E940E0803
:1023E00035C00115110531F0A114B10419F0C11463
:1023F000D10419F481EE91E013C00F3F8FEF18075D
:1024000031F0AB20A09419F0CD20C09419F48AEEDD
:1024100091E006C00F3F8FEF1807C4F481EF91E001
:102420000E94180C13C061E070E0C7010E94F31015
:102430008C0162E070E0C7010E94F3105C0163E070
:1024400070E0C7010E94F3106C01AACFC8010F9081
:102450000F90DF91CF911F910F91FF90EF90DF9040
:10246000CF90BF90AF9008958F929F92AF92BF92FE
:10247000CF92DF92EF92FF920F931F93CF93DF9350
:1024800000D0CDB7DEB70E948D08811105C087EF5F
:1024900091E00E94180C58C080911403909115038C
:1024A000892B09F451C0BE016F5F7F4F85EB90E02F
:1024B0000E94D30789819A81029724F488E790E0EB
:1024C0009A83898309811A818090F9029090FA0297
:1024D000A090FB02B090FC020E9474216B017C0171
:1024E000C818D908EA08FB0828EE33E0D8010E9492
:1024F0003F2A6C157D058E059F0530F580911403EC
:10250000909115030E94B8117C0188E294E00E942A
:1025100021256AE771E088E294E00E94F3244AE012
:1025200050E0B70188E294E00E94C82588E294E078
:102530000E9421250E9474216093F9027093FA028F
:102540008093FB029093FC020F900F90DF91CF914C
:102550001F910F91FF90EF90DF90CF90BF90AF90C1
:102560009F908F9008950F931F93CF93DF9300D088
:10257000CDB7DEB78C011A821982BE016F5F7F4F23
:102580008AE190E00E940E0860E472E088E193E046
:102590000E94F32420E137E240E050E0609118010E
:1025A00082E191E00E945810882309F449C088E133
:1025B00093E00E9402176CE372E088E193E00E94CE
:1025C000F32428EE33E040E050E06091180182E10E
:1025D00091E00E9458106EE272E088E193E00E9460
:1025E000F324B80188E193E00E94182588E193E084
:1025F0000E94212520E23EE440E050E06091180175
:102600008BE091E00E9458108823E9F06DE172E0C0
:1026100088E193E00E94F32481E090E09A8389832B
:10262000BE016F5F7F4F8AE190E00E940E0863E178
:1026300072E088E294E00E94F32481E090E005C01B
:102640008FEF9FEF02C08EEF9FEF0F900F90DF9103
:10265000CF911F910F910895CF92DF92EF92FF9249
:10266000CF93DF93EC010E9474216B017C01CE01BA
:10267000AA2797FDA095BA2FC80ED91EEA1EFB1EE9
:10268000C0E00E9474216C157D058E059F0508F53C
:1026900088E294E00E94BB22892B99F3D1E0DC0F01
:1026A00088E294E00E94D422EC2FF0E0E354FD4F46
:1026B0008083ED2FF0E0E454FD4F80818D3029F0D0
:1026C000DB3331F08A3011F404C0DC2FCD2FD9CFA9
:1026D000CBE3EC2FF0E0E354FD4F10828C2FDF9121
:1026E000CF91FF90EF90DF90CF90089568E072E077
:1026F00088E294E00E94F3240E94830888E193E03A
:102700000E941D17892B49F088E193E00E948F16E3
:10271000BC0188E294E00E94E70788E294E00E940E
:10272000BB22892B59F388E294E00E94D422682FBF
:1027300088E193E00E94B016E1CFCF93DF9388E267
:1027400094E00E94212567ED70E088E294E00E9409
:10275000F3240E94830820E137E240E050E06091DA
:1027600018018BEC91E00E945810811108C06EEBAB
:1027700070E088E294E0DF91CF910C94F32488E23A
:1027800094E00E94172368EE73E080E090E00E94DE
:10279000A32181EC92E00E94A7090E94B312EC01F0
:1027A00097FF13C062EA70E088E294E00E94F3248D
:1027B0004AE050E0BE0188E294E00E94C82588E229
:1027C00094E0DF91CF910C94212582E092E00E9469
:1027D000180CDF91CF9108951F93CF93DF93CDB75E
:1027E000DEB72C970FB6F894DEBF0FBECDBF6DEBF2
:1027F00072E0CE0107960E949F266DEB72E088E2A0
:1028000094E00E94182588E294E00E94212565E763
:1028100071E0CE0101960E940F27BE016F5F7F4FCE
:10282000CE0107960E947B27182FCE0101960E94A9
:102830003126112319F00E949D1359C162E771E0FE
:10284000CE0101960E940F27BE016F5F7F4FCE0120
:1028500007960E947B27182FCE0101960E943126F1
:10286000112339F08FEB92E00E94A7090E94B30D6B
:102870003EC16CE671E0CE0101960E940F27BE01B9
:102880006F5F7F4FCE0107960E947B27182FCE01E6
:1028900001960E943126112319F00E94321027C19F
:1028A00066E671E0CE0101960E940F27BE016F5FC0
:1028B0007F4FCE0107960E947B27182FCE010196ED
:1028C0000E943126112319F00E94DC0D10C160E630
:1028D00071E0CE0101960E940F27BE016F5F7F4F0E
:1028E000CE0107960E947B27182FCE0101960E94E9
:1028F0003126112339F082EC92E00E94A7096CE89E
:1029000070E01AC06BE571E0CE0101960E940F27BE
:10291000BE016F5F7F4FCE0107960E947B27182F65
:10292000CE0101960E943126112349F081EC92E0FC
:102930000E94A7096CE370E00E947B09D8C066E59D
:1029400071E0CE0101960E940F27BE016F5F7F4F9D
:10295000CE0107960E947B27182FCE0101960E9478
:102960003126112339F081EC92E00E94A70964E638
:1029700070E0E2CF61E571E0CE0101960E940F2781
:10298000BE016F5F7F4FCE0107960E947B27182FF5
:10299000CE0101960E943126112329F087E392E0AF
:1029A0000E94B811A4C06DE471E0CE0101960E94AE
:1029B0000F27BE016F5F7F4FCE0107960E947B27D6
:1029C000182FCE0101960E943126112339F080EC98
:1029D00092E00E94A7090E94C30989C069E471E0DE
:1029E000CE0101960E940F27BE016F5F7F4FCE017F
:1029F00007960E947B27182FCE0101960E94312650
:102A0000112359F081EC92E00E94422C8983BE018F
:102A10006F5F7F4F87EB90E068C063E471E0CE01A9
:102A200001960E940F27BE016F5F7F4FCE01079670
:102A30000E947B27182FCE0101960E94312611118A
:102A40000E9476136FE371E0CE0101960E940F277A
:102A5000BE016F5F7F4FCE0107960E947B27182F24
:102A6000CE0101960E943126112339F080EC92E0CC
:102A70000E94A7090E94890C3AC06BE371E0CE0165
:102A800001960E940F27BE016F5F7F4FCE01079610
:102A90000E947B27182FCE0101960E943126112318
:102AA00039F080EC92E00E94A7090E94AE091FC095
:102AB00066E371E0CE0101960E940F27BE016F5FB1
:102AC0007F4FCE0107960E947B27182FCE010196DB
:102AD0000E943126112359F08091C10280538983CD
:102AE000BE016F5F7F4F84EB90E00E94360864E385
:102AF00071E088E294E00E94F32488E294E00E946E
:102B00002125CE0107960E9431262C960FB6F89407
:102B1000DEBF0FBECDBFDF91CF911F91089588E238
:102B200094E00E94BB22892B31F080E395E70E945C
:102B30002C130C94EC1308950E94C70F9093150367
:102B40008093140368EB7BE080E090E00E94A32177
:102B50000E94850D8091160381110E9428100E9409
:102B6000390B0E948F150C943412FC0187819085DB
:102B7000009711F00C94E92A0895FC011182128249
:102B8000138214821582168240E050E060EC7FE7E9
:102B90004187528763877487458756876787708B1D
:102BA00080E09081891770F4A781B08594E0899FB7
:102BB000A00DB11D11241D921D921D921C92139700
:102BC0008F5FEFCF0895CF93DF93EC01688324E00C
:102BD000629FC00111240E94512A98878F83892BFC
:102BE00009F41882CE01DF91CF910C94BD15AF92FC
:102BF000BF92CF92DF92EF92FF920F931F93CF93EA
:102C0000DF93EC016A017B010F8118850115110525
:102C100009F45FC08A81580194E0899FA00CB11C1F
:102C20001124F50120813181428153816B817C81A6
:102C30008D819E810E9496276B837C838D839E83EA
:102C4000F501C082D182E282F382BA80F80184E089
:102C5000B89EE00DF11D1124208131814281538104
:102C60006B817C818D819E810E9497276B837C8301
:102C70008D839E83B394BA820881B01201C01A82F8
:102C80001981111105C0CD86DE86EF86F88A0AC04B
:102C900029853A854B855C85C701B6010E94FB27D3
:102CA00087FF05C0C986DA86EB86FC860EC02D85B7
:102CB0003E854F855889C701B6010E944A291816DA
:102CC00024F4CD86DE86EF86F88A101710F41F5F95
:102CD0001983DF91CF911F910F91FF90EF90DF90BB
:102CE000CF90BF90AF900895CF93DF93EC016981AF
:102CF000662371F070E080E090E00E949A289B01CA
:102D0000AC016B817C818D819E810E94FF2704C074
:102D100060E070E080EC9FE7DF91CF910895209113
:102D20009D0330919E0328173907B9F490915B03F6
:102D300080915C03981789F0E0915B03F0E0E35A1F
:102D4000FC4F808120915B0330E02F5F3F4F2F735A
:102D5000332720935B0390E008958FEF9FEF089552
:102D60001F93CF93DF93DC015C968D919C915D97CF
:102D7000009749F481E090E013969C938E9312970C
:102D800080E090E03BC05196ED91FC9152975096B7
:102D90002C915097322F30951FB75E964C915E97CD
:102DA00041FB772770F941FD6095F89440817723C6
:102DB00011F0422B01C043234083EC012197F1F72E
:102DC00048E0508160FF02C0522B01C05323508362
:102DD000EC012197F1F76695415099F780817723AF
:102DE00011F0832301C0822B80831FBF5C968D91DD
:102DF0009C915D970197F1F781E090E0DF91CF9191
:102E00001F910895089520919D0330919E032817E6
:102E1000390781F490915B0380915C03981751F01E
:102E2000E0915B03F0E0E35AFC4F8081992787FD36
:102E3000909508958FEF9FEF089520919D03309115
:102E40009E032817390771F480915C0320915B037E
:102E500090E0805C9F4F821B910960E470E00E94CB
:102E6000D529089580E090E00895E0919D03F091C8
:102E70009E03E817F90769F4A389B4899C918589B1
:102E8000809589238C9310929E0310929D0381E07C
:102E9000089580E00895CF93DF93EC018A8D9B8D98
:102EA000892BF1F080919D0390919E038C179D07D3
:102EB000B9F0009711F00E9435178E8D8E7F8E8F9E
:102EC00010925C0310925B03D0939E03C0939D030A
:102ED000EB89FC8980819D89892B808381E001C0F9
:102EE00080E0DF91CF9108951F920F920FB60F925D
:102EF00011242F933F934F935F936F937F938F93FF
:102F00009F93AF93BF93EF93FF93E0919D03F09155
:102F10009E03309709F451C0868DA685B7859585A7
:102F200081FF04C08C91892329F447C08C918923A7
:102F300009F043C0A389B4899C9185898095892330
:102F40008C93868997890197F1F7208D318DA6851D
:102F5000B785758558E040E0C9010197F1F7842FE6
:102F600090E095958795482F6C91672309F040680C
:102F7000515091F7868D81FD409580915C0390E0E2
:102F800001968F73992720915B03281749F0A09130
:102F90005C03B0E0A35ABC4F4C9380935C0303C026
:102FA000868D8160868F828D938D0197F1F7A3893D
:102FB000B4898C919589892B8C93FF91EF91BF9166
:102FC000AF919F918F917F916F915F914F913F91C1
:102FD0002F910F900FBE0F901F90189522E232E0B4
:102FE000FC01318320830C9435171F93CF93DF931B
:102FF000EC01162F6E8D6695617081E06827812F38
:103000000E94852261E0812F0E944C22812F90E056
:10301000FC01E258F14FE491E88BFC01EE56F14FD0
:10302000E491F0E0EE0FFF1FE055F14F8591949190
:103030009A8B898BDF91CF911F9108951F93CF9326
:10304000DF93EC01162F60E0812F0E944C228E8DC1
:1030500081FD04C061E0812F0E9485221C87812FA1
:1030600090E0FC01E258F14FE491ED87FC01EE564F
:10307000F14FE491F0E0EE0FFF1FEA55F14F85911B
:1030800094919F878E87DF91CF911F910895FF9232
:103090000F931F93CF93DF93EC01F62E522F1B82D9
:1030A0001A8208EE13E020E030E00C831D832E83AB
:1030B0003F8382E292E0998388831F8A1E8A198E59
:1030C000188E1B8E1A8E1D8E1C8E8E8D8E7F50FB41
:1030D00081F98E8F642FCE010E94F5176F2DCE01DE
:1030E000DF91CF911F910F91FF900C941E18CF93F9
:1030F000DF93EC019A01AB011B8E1A8E198E188E8C
:103100001F8A1E8A60E079E08DE390E00E940B2A1E
:10311000C9012430310520F0B9016350710902C0A2
:1031200061E070E07D8F6C8FEC85E63108F068C05F
:10313000B901769567956431710518F0635171098D
:1031400002C061E070E07F8B6E8B069718F0C901BA
:10315000059702C081E090E0998F888FC901880FA0
:10316000991F820F931F96958795969587958D3019
:10317000910510F00C9702C081E090E09B8F8A8F40
:1031800020916800E83050F091E0EE3008F490E0D3
:1031900081E001C0880F9A95EAF701C084E0822B94
:1031A000809368002C85283038F02E3040F026318E
:1031B00048F48CE690E008C08DE690E005C08BE610
:1031C00090E002C080E090E09C8B8B8B283030F444
:1031D00081E001C0880F2A95EAF70DC0822F90E0A8
:1031E0002E3010F4089701C00E9791E001C0990F9E
:1031F0008A95EAF7892F8D8B8C8D9D8D0197F1F73C
:10320000CE01DF91CF910C944B170C943517FF92A0
:103210000F931F93CF93DF93EC01F22E7983688392
:103220008B01000F111F060F171F1B830A834C838E
:103230001D822B871C861D861E861F8650E0FA0184
:10324000EE56F14FE491F0E0EE0FFF1FE055F14F25
:1032500085919491998B888BFA01E258F14F4491B2
:103260004A8BC8010E94512A9F838E83009729F0C0
:10327000A80160E070E00E94A02CF0FE04C081E094
:10328000888719860BC0F2FE06C081E0888782E03D
:1032900089871A8605C0188681E0898782E08A8737
:1032A000DF91CF911F910F91FF900895CF93DF93FE
:1032B000EC018E819F81009711F00E94E92A60E065
:1032C0008C81DF91CF910C944C22CF93DF93EC0152
:1032D00061E08C810E944C2260E08C81DF91CF9173
:1032E0000C948522CF92DF92EF92FF920F931F935F
:1032F000CF93DF93CDB7DEB729970FB6F894DEBF33
:103300000FBECDBF8C01DC0116968D919C91179755
:10331000892B09F49BC00E948021F801C484D584C4
:10332000E684F7846C197D098E099F096233710563
:103330008105910580F3F894828193819A83898332
:10334000A681B7817D01EFEFEE1AFE0A8C91898785
:10335000D8011B969C911B9750960D90BC91A02D67
:10336000F801828991FF2EC09C91982B98879C919F
:10337000809589238F838F818E8388E08D83588504
:103380006F8149853D812E8189819A81F7015C9306
:1033900047FD252F3A952C93262F39F0441F00C066
:1033A00000006C93000000C0F2CF38E041916C93B4
:1033B0000000019761F7F801B18BA08B49873D832D
:1033C0002E8338C09C91982B98879C918095892357
:1033D0008F838F818C8388E08B8358856F814985AB
:1033E0003B812C8189819A81F7015C9347FD252FD0
:1033F00000C000C02C9300C000C000C000C000C0CE
:103400006C930000262F3A9541F0441F000000C045
:1034100000C000C000C000C0E8CF38E0419100C04B
:103420006C9300C0019709F7F801B18BA08B498715
:103430003B832C839A83898378940E948021D801CE
:103440001C966D937D938D939C931F9729960FB631
:10345000F894DEBF0FBECDBFDF91CF911F910F91CA
:10346000FF90EF90DF90CF900895CF92DF92EF9290
:10347000FF920F931F93CF93DF93FC018081918183
:103480006817790788F5CA01AA27BB27082FC32E1A
:10349000D42EE52EFF241C2DD22FC581CC2361F024
:1034A0008C9FC0011124092FCC9E600111241D2D79
:1034B0002C9F90011124D32F9B01220F331F260F25
:1034C000371F86819781820F931F2085DC01A20F11
:1034D000B11D0C932185DC01A20FB11D1C93228527
:1034E000FC01E20FF11DD083DF91CF911F910F916D
:1034F000FF90EF90DF90CF900895962F50E060E01E
:1035000070E0592B682BCB01BA010895FF920F93FD
:103510001F93CF93DF93EC01FF24F394F60E2D81DC
:10352000F21679F10E811F812150B9F06F3F59F4E5
:1035300030E040E050E06FEF7FEF80E090E00E94ED
:103540000B2AB9010CC08F2D90E0982F8827019786
:10355000622F70E00E94C12902C060E070E0F801B3
:103560008A819B81AF01401B510B4817590740F4DA
:103570004081469FC001479F900D11249193F0CF49
:10358000FD82DF91CF911F910F91FF9008950F93CE
:10359000FC0113AE14AE15AE04960E94B41F0F9139
:1035A00008950F93FC010150040F84A996A9941764
:1035B00018F0081728F402C0081750F0041740F458
:1035C0002150260F83A995A9961720F4281720F4D7
:1035D00080E007C0281720F481E0261710F0F8CF0C
:1035E00081E00F910895DB011496ED91FC91159700
:1035F00020E030E061E00994DB011496ED91FC914C
:10360000159720E030E063E00994DB011496ED911A
:10361000FC91159720E030E040E064E00994DB0184
:103620001496ED91FC91159720E030E041E064E0C4
:103630000994DB011496ED91FC91159720E030E0A0
:1036400062E00994DB011496ED91FC91159720E05E
:1036500030E065E00994DB011496ED91FC9115973B
:1036600066E00994AF92BF92CF92DF92EF92FF9201
:103670000F931F93CF93DF931F92CDB7DEB75C01FB
:103680008B017A0180E0F7014491811109C04F3F1D
:10369000D9F1B801C5010E94221B81112EC039C089
:1036A0004F3FB9F34E3FB9F1403F38F5403E30F05F
:1036B0004F70B801C5010E94191B1FC0403D30F07A
:1036C0004F70B801C5010E94FC1A17C0403CB8F009
:1036D000B801C50149830E94051B49814295407F7D
:1036E0004E5FC42ED12CC6010E94451CB801C501F5
:1036F0000E940F1BC6010E94451C80E006C047FDCA
:10370000FCCF842F90E0F7CF81E0FFEFEF1AFF0AA4
:10371000BACF80E001C081E00F90DF91CF911F917F
:103720000F91FF90EF90DF90CF90BF90AF900895F2
:10373000860F911DFC0183A18F3F19F0642F0C941B
:1037400085220895EF92FF920F931F93CF93DF93FB
:103750007C01C0E0D0E087010C0F1D1FF80183A1A0
:103760008F3F41F061E00E944C2261E0F80183A1AB
:103770000E9485222196CD30D10569F7DF91CF9146
:103780001F910F91FF90EF9008958EBD0DB407FE2D
:10379000FDCF8EB50895CF92DF92EF92FF920F93F7
:1037A0001F93CF93DF931F92CDB7DEB76C017901E2
:1037B000062F10E0F8013197E730F10508F05AC004
:1037C000EC5CFF4F0C942A2A49830E94A21B61E003
:1037D0008DE00E944C2260E08DE00E94852261E035
:1037E0008BE00E944C2260E08BE00E94852261E029
:1037F0008AE00E944C2261E08AE00E9485221CBC83
:1038000080E58CBD49814230A8F581E08DBD32C094
:1038100061E004C0411106C041E062E0C6010E94BF
:10382000981B28C040E064E00E94981B40E0F5CF60
:10383000FC0183A18F3FF1F060E0F0CF842F0E9464
:10384000C51B18C04423B1F0F70181917F01498362
:103850000E94C51B49814150F5CF442359F0F7011F
:10386000849149830E94C51BFFEFEF1AFF0A49812B
:103870004150F3CF81E00F90DF91CF911F910F91D5
:10388000FF90EF90DF90CF9008952EE93FE00097F2
:1038900029F0F9013197F1F70197F9CF0895BF9217
:1038A000CF92DF92EF92FF920F931F93CF93DF930C
:1038B0008C01EB01B42E790180E1481709F454C062
:1038C000841700F1EAE04E1721F1FFE04F1357C0D3
:1038D00041E0C8010E94FC1A40E0BE01C8010E94FC
:1038E000191B41E8BE01C8010E94221BF70140815B
:1038F000BE01C8010E94221B40E0BE01C8010E9417
:10390000FC1A3BC081E1481791F1E5E14E1761F0E7
:1039100036C042E0C8010E94F31A43EF52E0BE01F4
:10392000C8010E94321B2BC0CA80DB804BEE52E0E4
:10393000C8010E94321BF6014481406BBE01C801E0
:103940000E94221B41E0BE01C8010E94191BAE016A
:10395000B801C6010E946820882301F140E0BE0141
:10396000C8010E94FC1A0BC042EE52E002C047EDB3
:1039700052E0BE01C8010E94321B81E010C09701D5
:103980004B2DBE01C801DF91CF911F910F91FF9088
:10399000EF90DF90CF90BF900C94E02080E0DF911B
:1039A000CF911F910F91FF90EF90DF90CF90BF903C
:1039B0000895FC01E60FF11D849190E0982F88276F
:1039C0003196E4918E0F911D0895FC018491089524
:1039D0000E94E51C882311F0823011F486E00895DE
:1039E00083E0089580E0089566E00C94D91C68E0B7
:1039F0000C94D91C0A96FC01849108950B96FC0145
:103A000084910895BF92CF92DF92EF92FF920F932D
:103A10001F93CF93DF93EC01E62E0C811D81C8012B
:103A20000E94E51CF82E8C819D810E94E81CB82E16
:103A300021E0F21619F0CC24CA9402C05FE0C52E32
:103A40008C819D810E94FA1CF82E8C819D810E94A0
:103A5000FE1CD82E8C819D810E94F71CE0E6EE159D
:103A600038F4009729F0080F191F41E6F42E10C012
:103A70008C819D810E94F41CF0E4FE1538F40097BF
:103A800029F0080F191F31E4F32E02C00F5E1F4FFB
:103A9000DE1440F4188A1B8A1C8A198A1A8A80E06C
:103AA00090E050C0DF14B0F32B2D30E0F80184918A
:103AB0008F3F19F40F5F1F4F40C0FE1036C08C813E
:103AC0009D810E94E51C98012F5F3F4FF8018823DC
:103AD00011F0823091F484918B8BF90124912C8B1D
:103AE000F8013396E491E88BF8013496E491E98B80
:103AF000F8013596E491EA8B16C09491892F8F7066
:103B000082508A8B92959F70998BF9012491822F14
:103B10008F708C8B22952F702B8BF8013296E4914D
:103B2000E295EF70E88BC8010DC0F8013296E49180
:103B3000EC210E0F111D020F131FFD1409F4AACF63
:103B4000F394B4CFDF91CF911F910F91FF90EF903D
:103B5000DF90CF90BF9008954F925F927F928F92A7
:103B60009F92AF92BF92CF92DF92EF92FF920F930C
:103B70001F93CF93DF931F92CDB7DEB72C01162F83
:103B8000742E622F0E94021D6C01009709F43EC042
:103B9000F201848195810E94E81CF82EF20183884D
:103BA00004899188910E8289781A172D101B282D6F
:103BB000412F692DC2010E94D11A882321F1CF0C17
:103BC000D11CF7E08F0E869486948694A82CB12C95
:103BD0001715C9F0392D76018E2D8C19881578F4BA
:103BE000F701049120E0412F632FC20139830E9425
:103BF000F21FFFEFEF1AFF0A3981385FEDCFCA0CD1
:103C0000DB1C1F5FE5CFF201808901C080E00F90CF
:103C1000DF91CF911F910F91FF90EF90DF90CF90A8
:103C2000BF90AF909F908F907F905F904F9008953E
:103C30000F931F93CF93DF9300D01F92CDB7DEB7C2
:103C40008C01DC015596ED91FC9156972B834A83AC
:103C5000698309954A81480F2B816981C8010F90BA
:103C60000F900F90DF91CF911F910F910C94AC1D8D
:103C7000DC0114968D919C911597009709F43FC033
:103C800057962C915797FC01211108C03596E49165
:103C90005896EC935897FC013C9611C0213041F4A2
:103CA0003F96E4915896EC935897FC01709607C0A4
:103CB0003D96E4915896EC935897FC013E9684917A
:103CC00059968C93599758968C915897992787FDB8
:103CD000909559962C915997821B910927FD9395A0
:103CE0005A962C915A97203441F0829FC00111249A
:103CF000E6E096958795EA95E1F75B968C930895B3
:103D000022EF3CE1FC01368B258B0895CF93DF93A6
:103D1000EC018C819D818617970749F07D836C8328
:103D2000CE010E94381E82EF9CE19E8B8D8BDF912D
:103D3000CF9108951F93CF93DF93EC011D821C82D6
:103D40001F821E82198681E0888782E28A871F8609
:103D50001E8680E090E02FEFFE01E80FF91F23A3FD
:103D600001968E309105C1F711E018A3CE010E9493
:103D7000801E1F8B188E198E80E48A8F1B8E89E21D
:103D800091E29AAB89ABDF91CF911F910895DB014E
:103D9000ED91FC910994EF92FF921F93CF93DF93E3
:103DA00000D0CDB7DEB77C01DC01D196ED91FC915E
:103DB000D29782E069837A83099520E030E04AE077
:103DC00069817A81C7010E94C71E182FD701D19639
:103DD000ED91FC91D29783E00995D701D196ED91B1
:103DE000FC91D29780E00995812F0F900F90DF9181
:103DF000CF911F91FF90EF9008950F931F93CF9352
:103E0000DF93EC018B01E9A9FAA982E00995E9A900
:103E1000FAA981E0099520E030E044E1B801CE0143
:103E20000E94C71E9E012D5C3F4F47E1B801CE01A5
:103E30000E94C71EE9A9FAA980E0DF91CF911F91E6
:103E40000F910994FF920F931F93CF93DF93EC018F
:103E50008B01E9A9FAA982E00995E9A9FAA981E00B
:103E6000099520E030E045E1B801CE010E94C71E6F
:103E7000F82E882341F09E012D5C3F4F47E1B801A9
:103E8000CE010E94C71EE9A9FAA980E009958F2DED
:103E9000DF91CF911F910F91FF900895CF93DF9302
:103EA0001F92CDB7DEB749839E012F5F3F4F4FE092
:103EB0000E94C71E0F90DF91CF910895CF93DF939B
:103EC0001F92CDB7DEB79E012F5F3F4F46E40E94A1
:103ED000C71E89810F90DF91CF910895CF93DF9313
:103EE0001F92CDB7DEB79E012F5F3F4F47E40E9480
:103EF000C71E89810F90DF91CF91089520E030E0B7
:103F000048E40C94C71ECF93DF93EC016A817B8158
:103F10000E945E1F88836A817B81CE010E946E1F92
:103F200089836A817B81CE010E947E1F8B879E01DF
:103F30002D5C3F4F6A817B8147E1CE01DF91CF91BC
:103F40000C94C71ECF93DF93EC016A817B810E94A2
:103F5000CB1E882329F0CE010E94831F81E001C07F
:103F600080E0DF91CF910895CF92DF92EF92FF92A0
:103F70000F93CF93DF9300D0CDB7DEB76C017B01F9
:103F80002A8349830E949A1EF601F382E2824981C4
:103F900045A32A8124A303A3C6010F900F90DF91AC
:103FA000CF910F91FF90EF90DF90CF900C94A21FD4
:103FB000FC01628173810C94FD1ECF93DF93EC01B1
:103FC000EE85FF85309709F009956A817B81CE01E6
:103FD000DF91CF910C94221F462FFC0162817381E7
:103FE0000C944E1F0F93FC0182819381648F458F47
:103FF000278F068F9F01245E3F4F4BE3BC01CF010B
:104000000F910C94C71EFC0160A30895FC0112825D
:1040100080818150838314820895FC0120818281F4
:10402000820F82839181891760F484818F5F8483FA
:104030008381820F891710F08FEF890F838381E0CE
:10404000089580E00895DC011696ED91FC91179794
:1040500015968C919F01280F311DC9011192E81707
:10406000F907E1F70895FC0191E08381861708F4D0
:1040700090E021E0461708F020E0322F392B81E054
:104080005281451708F480E083239223892B0895F9
:10409000DC01FB01108212968C9112978183159698
:1040A0008C9115978150828313968C918383089508
:1040B000FB0141812381213029F0233031F468EF65
:1040C000640F04C0642F485F01C0642F0C94332038
:1040D000FC01CB01BA012681378145810C942B1B51
:1040E000DC011696ED91FC91179712968C91481B66
:1040F000477081E090E0042E01C0880F0A94EAF72F
:10410000E60FF11D3081222311F0832B02C0809530
:10411000832380830895FB014181DC0112962C9159
:104120001297421768F013962C911397241740F0BA
:10413000608115962C91621718F424810C947020DC
:104140000895CF92DF92FF920F931F93CF93DF9347
:1041500000D0CDB7DEB78C016B01FB01F28083810B
:10416000813039F070F0823039F0833041F020E056
:1041700001C021E030E007C020E03FEF04C02FEF96
:10418000F9CF20E031E0F7FE08C0B601C80129836D
:104190003A830E948B203A812981F6018081830F26
:1041A00080838181820F8183FF0C69F70F900F90CC
:1041B000DF91CF911F910F91FF90DF90CF900895E5
:1041C0000F931F93CF93DF938901FB01C281D381AA
:1041D0004233F9F068F4453109F1473141F1443196
:1041E00081F5CE010E942320CE010E94062029C025
:1041F000463411F1473411F14B3319F5B901CE01B1
:104200000E9458208823E9F0B801CE010E94A12025
:1042100018C0B901CE010E948B2013C0CE010E94AC
:104220000D20882381F0CE010E9423200AC0B9010D
:10423000CE010E94482005C08D8101C08981F8010E
:10424000808381E001C080E0DF91CF911F910F91C9
:10425000089508951F920F920FB60F9211242F9375
:104260003F938F939F93AF93BF938091200490913E
:104270002104A0912204B091230430911F0423E073
:10428000230F2D3720F40196A11DB11D05C026E88E
:10429000230F0296A11DB11D20931F0480932004BB
:1042A00090932104A0932204B093230480912404CA
:1042B00090912504A0912604B09127040196A11D98
:1042C000B11D8093240490932504A0932604B093F9
:1042D0002704BF91AF919F918F913F912F910F90A4
:1042E0000FBE0F901F9018952FB7F894609120047F
:1042F0007091210480912204909123042FBF08958E
:104300003FB7F8948091240490912504A09126044D
:10431000B091270426B5A89B05C02F3F19F0019640
:10432000A11DB11D3FBF6627782F892F9A2F620FDD
:10433000711D811D911D42E0660F771F881F991F17
:104340004A95D1F70895CF92DF92EF92FF92CF93E3
:10435000DF936B017C010E948021EB01C114D10429
:10436000E104F10489F00E9495270E9480216C1BD2
:104370007D0B683E734090F381E0C81AD108E108D4
:10438000F108C851DC4FEACFDF91CF91FF90EF9059
:10439000DF90CF900895789484B5826084BD84B511
:1043A000816084BD85B5826085BD85B5816085BD30
:1043B000EEE6F0E0808181608083E1E8F0E0108249
:1043C000808182608083808181608083E0E8F0E08A
:1043D000808181608083E1EBF0E080818460808374
:1043E000E0EBF0E0808181608083EAE7F0E08081AB
:1043F000846080838081826080838081816080830B
:104400008081806880831092C10008958E3008F00A
:104410008E5087702091270190E4299F90011124EC
:10442000822B80937C0080917A00806480937A0054
:1044300080917A0086FDFCCF8091780020917900F0
:1044400090E0922B0895833081F028F4813099F028
:104450008230A1F008958730A9F08830B9F0843017
:10446000D1F4809180008F7D03C0809180008F7790
:1044700080938000089584B58F7702C084B58F7DC6
:1044800084BD08958091B0008F7703C08091B00003
:104490008F7D8093B0000895CF93DF9390E0FC016F
:1044A000E258F14F2491FC01EE56F14F849188239C
:1044B00049F190E0880F991FFC01E654F14FA59156
:1044C000B4918055914FFC01C591D4919FB7611172
:1044D00008C0F8948C91209582238C938881822344
:1044E0000AC0623051F4F8948C91322F30958323B6
:1044F0008C938881822B888304C0F8948C91822BC2
:104500008C939FBFDF91CF9108950F931F93CF930B
:10451000DF931F92CDB7DEB7282F30E0F901E659BF
:10452000F14F8491F901E258F14F1491F901EE56DF
:10453000F14F04910023C9F0882321F069830E9480
:1045400023226981E02FF0E0EE0FFF1FE055F14FCD
:10455000A591B4919FB7F8948C91611103C0109507
:10456000812301C0812B8C939FBF0F90DF91CF914E
:104570001F910F910895FC01818D228D90E0805C48
:104580009F4F821B91098F7399270895FC01918D8C
:10459000828D981731F0828DE80FF11D858D90E0A6
:1045A00008958FEF9FEF0895FC01918D828D9817EC
:1045B00061F0828DDF01A80FB11D5D968C91928D07
:1045C0009F5F9F73928F90E008958FEF9FEF089504
:1045D00088E594E2892B49F080E090E0892B29F06E
:1045E0000E94582481110C9400000895FC01848DD0
:1045F000DF01A80FB11DA35ABF4F2C91848D90E00D
:1046000001968F739927848FA689B7892C93A089E7
:10461000B1898C9180648C93938D848D981306C09E
:104620000288F389E02D80818F7D80830895CF9368
:10463000DF93EC01888D8823C9F0EA89FB898081AA
:1046400085FD05C0A889B9898C9186FD0FC00FB67C
:1046500007FCF5CF808185FFF2CFA889B9898C91BD
:1046600085FFEDCFCE010E94F622E7CFDF91CF91FB
:104670000895CF92DF92FF920F931F93CF93DF9312
:104680001F92CDB7DEB76C0181E0D60158968C93AE
:1046900058975B969C915B975C968C915C9798136E
:1046A00007C05096ED91FC915197808185FD2EC0F9
:1046B000F601038D10E00F5F1F4F0F731127F02ECF
:1046C000F601848DF81211C00FB607FCF9CFD601A0
:1046D0005096ED91FC915197808185FFF1CFC601F5
:1046E00069830E94F6226981EBCF838DE80FF11D6B
:1046F000E35AFF4F6083D6015B960C935B9752960B
:10470000ED91FC915397808180620CC0D601569642
:10471000ED91FC91579760835096ED91FC915197E4
:1047200080818064808381E090E00F90DF91CF9161
:104730001F910F91FF90DF90CF900895BF92CF927D
:10474000DF92EF92FF92CF93DF93EC016A017B013E
:10475000B22EE889F98982E08083411581EE5807FD
:1047600061057105A1F060E079E08DE390E0A701BB
:1047700096010E94E92921503109410951095695B4
:10478000479537952795211580E1380798F0E889F6
:10479000F989108260E874E88EE190E0A701960143
:1047A0000E94E9292150310941095109569547953F
:1047B00037952795EC85FD853083EE85FF85208331
:1047C000188EEC89FD89B082EA89FB89808180613D
:1047D0008083EA89FB89808188608083EA89FB89FC
:1047E000808180688083EA89FB8980818F7D8083D6
:1047F000DF91CF91FF90EF90DF90CF90BF90089521
:104800001F920F920FB60F9211242F938F939F93A5
:10481000EF93FF93E0913804F09139048081E091A7
:104820003E04F0913F0482FD12C0908180914104CA
:104830008F5F8F7320914204821751F0E091410401
:10484000F0E0E85DFB4F958F8093410401C08081CB
:10485000FF91EF919F918F912F910F900FBE0F902D
:104860001F9018951F920F920FB60F9211242F933D
:104870003F934F935F936F937F938F939F93AF93E8
:10488000BF93EF93FF9388E294E00E94F622FF919A
:10489000EF91BF91AF919F918F917F916F915F91B8
:1048A0004F913F912F910F900FBE0F901F90189531
:1048B00088E294E00E94BB2221E0892B09F420E0E9
:1048C000822F089510922B0410922A0488EE93E010
:1048D000A0E0B0E080932C0490932D04A0932E04CC
:1048E000B0932F0482E392E09093290480932804EC
:1048F00085EC90E0909335048093340484EC90E050
:10490000909337048093360480EC90E090933904C0
:104910008093380481EC90E090933B0480933A04B8
:1049200082EC90E090933D0480933C0486EC90E010
:1049300090933F0480933E041092410410924204ED
:104940001092430410924404089508950E94CB21CC
:104950000E94A5240E942A0CC8EED2E20E949C1557
:104960002097E1F30E94E822F9CFCF92DF92EF92F5
:10497000FF920F931F93CF93DF936C017A01EB01AA
:10498000E60EF71E00E010E0CE15DF0561F069913C
:10499000D601ED91FC910190F081E02DC6010995C1
:1049A000080F191FF1CFC801DF91CF911F910F910F
:1049B000FF90EF90DF90CF9008956115710581F021
:1049C000DB010D900020E9F7AD0141505109461B74
:1049D000570BDC01ED91FC910280F381E02D0994ED
:1049E00080E090E00895EF92FF920F931F93CF9392
:1049F000DF938C01FB01C0E0D0E064917F018FEF79
:104A0000E81AF80A662361F0D801ED91FC91019053
:104A1000F081E02DC8010995C80FD91FF701EDCF2E
:104A2000CE01DF91CF911F910F91FF90EF900895EC
:104A30000C94DD24DC01ED91FC910190F081E02DDE
:104A400009946EE372E00C94DD248F929F92AF92F2
:104A5000BF92CF92DF92EF92FF920F931F93CF936B
:104A6000DF93CDB7DEB7A1970FB6F894DEBF0FBEC8
:104A7000CDBF7C01C42EE52FCB01D22E19A221E09F
:104A80002D1510F02AE0D22E8E010F5D1F4F8D2CB8
:104A9000912CA12CB12C6C2D7E2FA50194010E948C
:104AA000E9298C2DD29E80191124015011098A30D8
:104AB00014F4805D01C0895CF80180832115310503
:104AC0004105510521F0C22EE32FCA01E4CFB80100
:104AD000C7010E94DD24A1960FB6F894DEBF0FBE79
:104AE000CDBFDF91CF911F910F91FF90EF90DF909D
:104AF000CF90BF90AF909F908F900895CF92DF920C
:104B0000EF92FF920F931F93CF93DF93EC016A0113
:104B10007B012115310579F4E881F9810190F0815B
:104B2000E02D642FDF91CF911F910F91FF90EF90B7
:104B3000DF90CF9009942A303105E9F477FF1AC04D
:104B40006DE20E941A258C0144275527BA014C19A1
:104B50005D096E097F092AE0CE010E942525800F9C
:104B6000911FDF91CF911F910F91FF90EF90DF90F8
:104B7000CF9008952AE0B701A601CE01DF91CF9131
:104B80001F910F91FF90EF90DF90CF900C9425250F
:104B90009A01AB01662757FD6095762F0C947E2510
:104BA0002115310541F4DC01ED91FC910190F0817A
:104BB000E02D642F09940C9425259A01462F50E08E
:104BC00060E070E00C94D0259A01AB0160E070E0E9
:104BD0000C94D0254F925F926F927F92AF92BF92CA
:104BE000CF92DF92EF92FF920F931F93CF93DF93B9
:104BF000CDB7DEB729013A01621B730B840B950B0D
:104C000029893A894B895C892A193B094C095D0934
:104C1000298B3A8B4B8B5C8B9B01AC0169897A8920
:104C20008B899C890E94B129E418F50806091709A7
:104C3000A80197010E940B2A2A0D3B1D4C1D5D1DEA
:104C4000CA01B901DF91CF911F910F91FF90EF90B1
:104C5000DF90CF90BF90AF907F906F905F904F901C
:104C60000895FC01808191810C94E92ACF93DF9310
:104C7000EC0188819981009711F00E94E92A19823C
:104C800018821D821C821B821A82DF91CF910895A7
:104C90000F931F93CF93DF93EC018B016F5F7F4FD7
:104CA000888199810E94782B009731F099838883BD
:104CB0001B830A8381E001C080E0DF91CF911F91C7
:104CC0000F910895CF93DF93EC0188819981892B0F
:104CD00029F08A819B818617970760F4CE010E9494
:104CE0004826882341F08C819D81892B19F4E88125
:104CF000F981108281E0DF91CF910895EF92FF92C8
:104D00000F931F93CF93DF93EC017B018A01BA01CC
:104D10000E946226811104C0CE010E94362607C07F
:104D20001D830C83B701888199810E94A72CCE0135
:104D3000DF91CF911F910F91FF90EF900895FC01AB
:104D400011821082138212821582148261157105FC
:104D500059F0FB0101900020E9F7AF0141505109E2
:104D6000461B570B0C947E260895EF92FF920F93EB
:104D70001F93CF93DF93EC017B018A01BA010E945C
:104D80006226811104C0CE010E94362607C01D8311
:104D90000C83B701888199810E94872CCE01DF9115
:104DA000CF911F910F91FF90EF900895CF93DF93D4
:104DB000EC016115710561F0FB0101900020E9F73C
:104DC000AF0141505109461B570B0E947E2602C07D
:104DD0000E943626CE01DF91CF9108950F931F9345
:104DE000CF93DF9300D0CDB7DEB78C01611571058D
:104DF00061F0CB0169837A830E948E2CAC016981BA
:104E00007A81C8010E94B52602C00E943626C801D8
:104E10000F900F90DF91CF911F910F910895FC019A
:104E20001182108213821282158214820C94EE2653
:104E3000EF92FF920F931F93CF93DF93EC017B01CF
:104E40000C811D816115710511F480E016C04115BA
:104E5000510591F0040F151FB8010E9462268823A6
:104E6000A1F3288139818C819D81B701820F931F25
:104E70000E94A72C1D830C8381E0DF91CF911F91AD
:104E80000F91FF90EF900895CF93DF9300D0CDB7AF
:104E9000DEB769831A8241E050E0BE016F5F7F4F49
:104EA0000E9418270F900F90DF91CF910895FA017B
:104EB000DB0114964D915C911597DC0114962D91B0
:104EC0003C911597241B350B2E173F0788F08D91C9
:104ED0009C91009769F0DB016D917C9161157105E2
:104EE00039F08E0F9F1F0E94AE2C21E0892B09F014
:104EF00020E0822F0895FC0144815581FB0124812B
:104F000035814217530720F040E050E00C945727BA
:104F100080E00895FC0180819181009711F00C944C
:104F2000602C60E070E0CB01089508955058BB27D5
:104F3000AA270ED075C166D130F06BD120F031F4C4
:104F40009F3F11F41EF45BC10EF4E095E7FB51C1E5
:104F5000E92F77D180F3BA176207730784079507A3
:104F600018F071F49EF58FC10EF4E0950B2EBA2F58
:104F7000A02D0B01B90190010C01CA01A00111245F
:104F8000FF27591B99F0593F50F4503E68F11A160B
:104F9000F040A22F232F342F4427585FF3CF46959C
:104FA00037952795A795F0405395C9F77EF41F16BE
:104FB000BA0B620B730B840BBAF09150A1F0FF0F88
:104FC000BB1F661F771F881FC2F70EC0BA0F621F74
:104FD000731F841F48F4879577956795B795F79564
:104FE0009E3F08F0B3CF9395880F08F09927EE0FF6
:104FF000979587950895D9D008F481E008950CD04D
:105000000FC107D140F0FED030F021F45F3F19F01E
:10501000F0C0511139C1F3C014D198F39923C9F3E9
:105020005523B1F3951B550BBB27AA2762177307AE
:10503000840738F09F5F5F4F220F331F441FAA1F62
:10504000A9F333D00E2E3AF0E0E830D09150504022
:10505000E695001CCAF729D0FE2F27D0660F771FD0
:10506000881FBB1F261737074807AB07B0E809F0B2
:10507000BB0B802DBF01FF2793585F4F2AF09E3F47
:10508000510568F0B6C000C15F3FECF3983EDCF319
:10509000869577956795B795F7959F5FC9F7880FC0
:1050A000911D9695879597F90895E1E0660F771F12
:1050B000881FBB1F621773078407BA0720F0621BA3
:1050C000730B840BBA0BEE1F88F7E095089504D09C
:1050D0006894B111D9C00895BCD088F09F5790F062
:1050E000B92F9927B751A0F0D1F0660F771F881F0D
:1050F000991F1AF0BA95C9F712C0B13081F0C3D028
:10510000B1E00895C0C0672F782F8827B85F39F0C5
:10511000B93FCCF3869577956795B395D9F73EF46B
:1051200090958095709561957F4F8F4F9F4F089513
:10513000E89409C097FB3EF4909580957095619531
:105140007F4F8F4F9F4F9923A9F0F92F96E9BB27E7
:105150009395F695879577956795B795F111F8CF63
:10516000FAF4BB0F11F460FF1BC06F5F7F4F8F4FCE
:105170009F4F16C0882311F096E911C0772321F0C4
:105180009EE8872F762F05C0662371F096E8862F5C
:1051900070E060E02AF09A95660F771F881FDAF7B3
:1051A000880F9695879597F90895990F0008550FE0
:1051B000AA0BE0E8FEEF16161706E807F907C0F09D
:1051C00012161306E407F50798F0621B730B840BA5
:1051D000950B39F40A2661F0232B242B252B21F47F
:1051E00008950A2609F4A140A6958FEF811D811D1F
:1051F000089597F99F6780E870E060E008959FEF59
:1052000080EC089500240A9416161706180609065D
:10521000089500240A94121613061406050608952C
:10522000092E0394000C11F4882352F0BB0F40F4B4
:10523000BF2B11F460FF04C06F5F7F4F8F4F9F4FF4
:10524000089557FD9058440F551F59F05F3F71F076
:105250004795880F97FB991F61F09F3F79F08795DD
:105260000895121613061406551FF2CF4695F1DF66
:1052700008C0161617061806991FF1CF86957105F6
:10528000610508940895E894BB2766277727CB012A
:1052900097F908958ADF08F48FEF08950BD0C0CFF7
:1052A000B1DF28F0B6DF18F0952309F0A2CFA7CF21
:1052B0001124EACFC6DFA0F3959FD1F3950F50E0FC
:1052C000551F629FF001729FBB27F00DB11D639FB8
:1052D000AA27F00DB11DAA1F649F6627B00DA11D5E
:1052E000661F829F2227B00DA11D621F739FB00D04
:1052F000A11D621F839FA00D611D221F749F332774
:10530000A00D611D231F849F600D211D822F762F0C
:105310006A2F11249F5750408AF0E1F088234AF009
:10532000EE0FFF1FBB1F661F771F881F9150504055
:10533000A9F79E3F510570F05CCFA6CF5F3FECF31D
:10534000983EDCF3869577956795B795F795E79541
:105350009F5FC1F7FE2B880F911D9695879597F952
:105360000895DB018F939F930E94462ABF91AF91CE
:10537000A29F800D911DA39F900DB29F900D1124AF
:105380000895AA1BBB1B51E107C0AA1FBB1FA6178C
:10539000B70710F0A61BB70B881F991F5A95A9F7DE
:1053A00080959095BC01CD01089597FB072E16F4CA
:1053B000009407D077FD09D00E94C12907FC05D0D1
:1053C0003EF4909581959F4F0895709561957F4F1C
:1053D0000895A1E21A2EAA1BBB1BFD010DC0AA1F36
:1053E000BB1FEE1FFF1FA217B307E407F50720F04E
:1053F000A21BB30BE40BF50B661F771F881F991FC9
:105400001A9469F760957095809590959B01AC0111
:10541000BD01CF010895052E97FB1EF400940E9454
:10542000222A57FD07D00E94E92907FC03D04EF439
:105430000C94222A50954095309521953F4F4F4F1F
:105440005F4F089590958095709561957F4F8F4F30
:105450009F4F0895EE0FFF1F0590F491E02D0994E2
:10546000A29FB001B39FC001A39F700D811D1124A5
:10547000911DB29F700D811D1124911D08950E94F0
:10548000302AB7FF0895821B930B08950E94302A9B
:10549000A59F900DB49F900DA49F800D911D112488
:1054A0000895CF93DF938230910510F482E090E06D
:1054B000E091C704F091C80420E030E0A0E0B0E043
:1054C000309739F14081518148175907B8F0481792
:1054D000590771F482819381109729F013969C9358
:1054E0008E9312972CC09093C8048093C70427C052
:1054F0002115310531F04217530718F0A901DB01DE
:1055000001C0EF019A01BD01DF010280F381E02DAE
:10551000D7CF21153105F9F0281B390B243031057F
:1055200080F48A819B816115710521F0FB019383D1
:10553000828304C09093C8048093C704FE0132960E
:1055400044C0FE01E20FF31F819391932250310971
:10555000398328833AC02091C5043091C604232B97
:1055600041F420910201309103013093C60420934D
:10557000C50420910001309101012115310541F44C
:105580002DB73EB74091040150910501241B350B06
:10559000E091C504F091C604E217F307A0F42E1BB6
:1055A0003F0B2817390778F0AC014E5F5F4F241787
:1055B000350748F04E0F5F1F5093C6044093C50453
:1055C0008193919302C0E0E0F0E0CF01DF91CF91B1
:1055D0000895CF93DF93009709F487C0FC013297B9
:1055E00013821282C091C704D091C804209781F41D
:1055F00020813181280F391F8091C5049091C60404
:105600008217930779F5F093C604E093C5046DC043
:10561000DE0120E030E0AE17BF0750F412964D9146
:105620005C9113979D014115510509F1DA01F3CF02
:10563000B383A28340815181840F951F8A179B07F2
:1056400071F48D919C911197840F951F029691830F
:10565000808312968D919C91139793838283211559
:10566000310529F4F093C804E093C7043EC0D90182
:105670001396FC93EE9312974D915D91A40FB51F75
:10568000EA17FB0779F480819181840F951F0296B8
:10569000D90111969C938E938281938113969C934A
:1056A0008E931297E0E0F0E08A819B81009719F0D9
:1056B000FE01EC01F9CFCE01029628813981820FDB
:1056C000931F2091C5043091C6042817390769F447
:1056D000309729F41092C8041092C70402C01382B4
:1056E0001282D093C604C093C504DF91CF91089570
:1056F000A0E0B0E0EEE7FBE20C948D2FEC01CB01D3
:10570000209719F40E94512AB8C0FE01E60FF71F36
:105710009E0122503109E217F30708F4ACC0D90109
:105720000D911C91119706171707B8F00530110558
:1057300008F49FC0A801445051094617570708F4C0
:1057400098C002501109061B170B019311936D931A
:105750007C93CF010E94E92A8CC05B01A01AB10A98
:105760004E01800E911EA091C704B091C804612C17
:10577000712C60E070E0109709F449C0A815B905D4
:10578000C9F5ED90FC901197670142E0C40ED11C61
:10579000CA14DB0478F147018A189B08640142E0CF
:1057A000C40ED11C1296BC9012971396AC91B5E022
:1057B000CB16D10440F0B282A38391828082D901BA
:1057C0008D939C9309C00E5F1F4F0E0D1F1DF90195
:1057D00011830083EB2DFA2F6115710531F0DB0188
:1057E0001396FC93EE93129744C0F093C804E09391
:1057F000C7043FC06D917C9111976616770608F437
:105800003B01BD0112960D90BC91A02DB4CF6091CB
:10581000C5047091C60468157905E9F4681679061F
:10582000D0F440910001509101014115510541F41E
:105830004DB75EB76091040170910501461B570B8F
:10584000E417F507C0F4F093C604E093C504F9012A
:10585000918380830EC00E94512A7C01009759F0E9
:10586000A801BE010E94972CCE010E94E92AC7011F
:1058700004C0CE0102C080E090E0CDB7DEB7EEE01C
:105880000C94A92FFC0188279927E89421912032B4
:10589000E9F3293010F02E30C8F32B3241F02D32CD
:1058A00039F4689404C00E94D12C820F911D21917B
:1058B00020532A30C0F31EF4909581959F4F089590
:1058C0001F93FC0199278827BC01E894119110329D
:1058D000E9F3193010F01E30C8F31B3251F01D32BD
:1058E00049F4689406C00E94BC2C610F711D811D93
:1058F000911D119110531A30B0F33EF4909580959C
:10590000709561957F4F8F4F9F4F1F910895FB01B9
:10591000DC0105900D920020E1F70895FC0105904F
:105920000020E9F7809590958E0F9F1F0895FB0149
:10593000DC0102C001900D9241505040D8F708950B
:10594000DC0101C06D9341505040E0F70895FB0128
:10595000DC0101900D920020E1F70895FB01DC01CC
:105960004150504030F08D910190801919F4002081
:10597000B9F7881B990B0895592F482F372F262FD9
:10598000660F771F881F991F660F771F881F991F43
:10599000620F731F841F951F660F771F881F991F43
:1059A00008957AE0979F902D879F802D910D112467
:1059B0000895AEE0B0E0EFEDFCE20C94972F0D8976
:1059C0001E8986E08C831A8309838FEF9FE79E836D
:1059D0008D83AE01475E5F4F6F89788DCE01019652
:1059E0000E94FB2CEF81F885E00FF11F10822E96AC
:1059F000E4E00C94B32FACE0B0E0E1E0FDE20C9405
:105A0000892F7C016B018A01FC0117821682838138
:105A100081FFBDC1CE0101964C01F7019381F601D2
:105A200093FD859193FF81916F01882309F4ABC1A8
:105A3000853239F493FD859193FF81916F01853211
:105A400029F4B70190E00E94F92EE7CF512C312CB8
:105A500020E02032A0F48B3269F030F4803259F02B
:105A6000833269F420612CC08D3239F0803339F4EF
:105A7000216026C02260246023C0286021C027FD49
:105A800027C030ED380F3A3078F426FF06C0FAE030
:105A90005F9E300D1124532E13C08AE0389E300DC6
:105AA0001124332E20620CC08E3221F426FD6BC1EE
:105AB000206406C08C3611F4206802C0883641F498
:105AC000F60193FD859193FF81916F018111C1CF03
:105AD000982F9F7D9554933028F40C5F1F4FFFE360
