:100000000C94AC070C94D4070C94D4070C94191CD2
:100010000C94191C0C94191C0C94D4070C94D40740
:100020000C94D4070C94D4070C94D4070C94D407E4
:100030000C94D4070C94D4070C94D4070C94D407D4
:100040000C94CF250C94D4070C94A5280C94D72895
:100050000C94D4070C94D4070C94D4070C94D407B4
:100060000C94D4070C94D4078920AD20AF20BD2078
:10007000C320C720D22008000000BE922449123EAF
:10008000ABAAAA2ABECDCCCC4C3E00000080BEABB1
:10009000AAAAAA3E00000000BF000000803F0000A6
:1000A000000000084178D3BB4387D1133D190E3CB3
:1000B000C3BD4282AD2B3E68EC8276BED98FE1A9EA
:1000C0003E4C80EFFFBE01C4FF7F3F0000000000F8
:1000D00007634236B79BD8A71A39685618AEBAAB31
:1000E000558C1D3CB7CC5763BD6DEDFD753EF617C5
:1000F0007231BF000000803F0A52657374617274F0
:10010000696E672E2E2E0A00736563005761726D4B
:1001100075702E2E2E004272696768746E65737357
:1001200020203A00436F756C64206E6F7420636FFB
:100130006E6E65637420746F20576966693A20009B
:1001400057696669206D6F64756C65206E6F7420E9
:10015000776F726B696E670A00436F6E6E656374CA
:10016000696E6720746F20576966692E2E2E0A000B
:10017000446562756720496E666F2069733A200096
:100180000A436F6E66696775726174696F6E20727B
:10019000657365742E2E2E0A00446F6E650A003E4C
:1001A0000073617020007773690072636F00707074
:1001B000780070706D0070726F78790062726600FE
:1001C000746573740075626976007562696B00749A
:1001D000736B657900726573657400646562756739
:1001E000006C740077696669005453205245533A95
:1001F000200041542B43495053454E443D00415447
:100200002B43495053544152543D22544350222CC5
:10021000220035302E32332E3132342E3636003134
:1002200038342E3130362E3135332E3134390022E8
:100230002C3830005341503A200053656E642053EF
:1002400041503A005542493A20005542493A00543B
:1002500053204B45593A00464F554E440A005374BB
:10026000617274696E672057696669204D6F6475A5
:100270006C652E2E2E0A004553502050726F7879EF
:100280000A0057494649204F4B210A0041542B434D
:10029000574155544F434F4E4E3D310A0041542B68
:1002A00043574A41505F4445463D0041540A00418E
:1002B000542B43574D4F44455F4445463D310A005A
:1002C0007350503A00686F753A0074656D3A00706B
:1002D0004D763A00634D763A006469663A00634EA3
:1002E000543A00636D763A004E6F20576946692094
:1002F000636F6E66696775726174696F6E0A005329
:10030000656E6420496E74657276616C3A200056A1
:10031000697369742027766169722D6D6F6E6974D7
:100320006F722E636F6D2720666F7220636F6E662B
:10033000696775726174696F6E2064657461696C58
:10034000730A007641697220434F32204D6F6E6907
:10035000746F723A2076312E31310A000A0A4465F0
:10036000470A0A00FFE0FFD1AFFF32FFD0FFFEFFD8
:10037000E0FFD1AEFFD0FFFEFFE0FFD11000FFFE97
:10038000FFD0FFE0FFC1FFD1AED580A83FD3004032
:100390008D142000A1C8DA1281CFD9F1DB402EA440
:1003A000A6AFFFD0FFFE00060A00FE07019E03373E
:1003B000207FFE09FE08FE0000000600000107077E
:1003C0000602008080808080008003030306010510
:1003D000A0A0A005050506000250F850F850050938
:1003E000090600FF2070A8A07028A8702005070744
:1003F00006000078A8B05068A8900507070600001E
:100400006090A040A89068010303060205808080E8
:100410000309090601FF204080808080804020037E
:1004200009090601FF80402020202020408005058A
:100430000506000220A870A8200505050600012079
:1004400020F820200204040601FEC0C04080030101
:1004500001060103E0020202060200C0C0050A0A0A
:100460000600FE0808101020204040808005070785
:10047000060000708898A8C8887005070706000065
:1004800020E020202020F8050707060000708808DB
:10049000102040F80507070600007088083008881B
:1004A0007005070706000010305090F81038050757
:1004B00007060000F880F0080888700507070600A6
:1004C000007080F088888870050707060000F8082B
:1004D0000810202020050707060000708888708813
:1004E0008870050707060000708888887808700201
:1004F0000505060200C0C000C0C00207070601FED5
:10050000C0C000C0C04080040707060100102040A2
:1005100080402010050303060002F800F8040707D6
:1005200006010080402010204080050707060000DB
:10053000708808102000200507070600007088B8A2
:10054000A8B8807805070706000020505088F88872
:1005500088050707060000F08888F08888F00507FE
:1005600007060000708880808088700507070600F5
:1005700000F08888888888F0050707060000F88062
:1005800080F08080F8050707060000F88080F08082
:1005900080800507070600007088809888887005AD
:1005A0000707060000888888F888888805070706F6
:1005B0000000F82020202020F8050707060000088A
:1005C0000808088888700507070600008890A0C002
:1005D000A09088050707060000808080808080F852
:1005E00005070706000088D8A8A888888805070797
:1005F00006000088C8A898888888050707060000B4
:1006000070888888888870050707060000F0888849
:10061000F08080800508080600FF7088888888A818
:100620007008050707060000F08888F088888805AC
:1006300007070600007088807008887005070706A5
:100640000000F82020202020200507070600008851
:100650008888888888700507070600008888885081
:10066000502020050707060000888888A8A8D88899
:10067000050707060000888850205088880507076E
:100680000600008888885020202005070706000003
:10069000F80810204080F80209090602FFC0808097
:1006A0008080808080C0050A0A0601FE808040406C
:1006B0002020101008080209090601FFC040404030
:1006C00040404040C0050303060004205088060156
:1006D000010600FEFC020202060106804005050537
:1006E0000600007888889868050707060000808063
:1006F000F0888888F00505050600007088808078FD
:100700000507070600000808788888887805050529
:100710000600007088F88078040707060100304062
:10072000E0404040400507070600FE78888888784A
:1007300008700507070600008080F0888888880315
:1007400007070601004000C0404040E003090906D9
:1007500000FE2000602020202020C00507070600A2
:1007600000808090A0E09088030707060100C04049
:1007700040404040E0050505060000F0A8A8A8A8F4
:10078000050505060000B0C888888805050506002F
:100790000070888888700507070600FEF088888842
:1007A000F080800507070600FE78888888780808AA
:1007B000050505060000B0C8808080050505060017
:1007C0000078807008F00407070601004040E04010
:1007D00040403005050506000088888898680505B2
:1007E000050600008888505020050505060000A871
:1007F000A8A8A850050505060000885020508805C7
:1008000007070600FE8888888878087005050506B1
:100810000000F8102040F8030B0B0601FE204040BA
:1008200040408040404040200109090602FF80808E
:1008300080808080808080030B0B0601FE8040401A
:10084000404020404040408005020206000368B05E
:10085000000000060000004841FCF32300000000F7
:100860002A3A0024FA2300141236200611070E003B
:100870001F0F801F9F800F9F00079E0003FC0081B9
:10088000F810FEF7F0FFFFF0FFFFF0F9F9F001F8C4
:100890000003FC00079E000F9F001F8F801F0F802A
:1008A000070E001D1D74310A00000700000007003C
:1008B000000007000000070000000700000007001C
:1008C000000007000000070000000700000007000C
:1008D00000000700000007000000070000FFFFFF06
:1008E000F8FFFFFFF8FFFFFFF80007000000070018
:1008F00000000700000007000000070000000700DC
:1009000000000700000007000000070000000700CB
:10091000000007000000070000000700000B0C1893
:100920000F02FA0FE00FC01FC01F801F803F003F63
:10093000003E007E007C007C00F8000D060C1102D9
:1009400009FFF8FFF8FFF8FFF8FFF8FFF8070606C1
:100950000F0500FEFEFEFEFEFE1127751502FD00CE
:100960000F80000F00001F00001F00001E00003E4F
:1009700000003E00003E00007C00007C00007C0087
:1009800000780000F80000F80000F00001F000011D
:10099000F00001F00003E00003E00003E00003C00A
:1009A0000007C00007C0000780000F80000F800014
:1009B0000F80001F00001F00001F00003E00003ECF
:1009C00000003E00003C00007C00007C00007C0039
:1009D00000F8000019238C1C020101FF800007FFB2
:1009E000E0000FFFF0001FFFF8001FFFFC003F8139
:1009F000FC003F00FE007F007E007E007E007E0047
:100A00003F007E003F00FE003F00FE003F00FE0072
:100A10003F00FE003F80FE003F80FE003F80FE0062
:100A20003F80FE003F80FE003F80FE003F80FE00D2
:100A30003F00FE003F00FE003F007E003F007E00C2
:100A40003F007E007F007F007E003F00FE003F8170
:100A5000FC001FFFFC001FFFF8000FFFF00007FF66
:100A6000E00001FF80000F23461C050000FE01FE90
:100A700007FE0FFE3FFEFFFEFFFEFEFEFCFEF0FE49
:100A8000C0FE00FE00FE00FE00FE00FE00FE00FEB6
:100A900000FE00FE00FE00FE00FE00FE00FE00FE66
:100AA00000FE00FE00FE00FE00FE00FE00FE00FE56
:100AB00000FE19238C1C020100FFE00003FFF80078
:100AC00007FFFC000FFFFE001FFFFF003FC0FF00FD
:100AD0003F803F803F003F807F003F8000003F809D
:100AE00000003F8000003F8000007F0000007F008A
:100AF0000000FF000001FE000003FC000007FC00F6
:100B0000000FF800001FF000003FE000007FC00071
:100B100001FF000003FE000007FC00000FF00000D2
:100B20003FE000007F800000FF000000FFFFFF802B
:100B3000FFFFFF80FFFFFF80FFFFFF80FFFFFF80C1
:100B4000FFFFFF801823691C020103FF800FFFE0F5
:100B50001FFFF03FFFF87FFFFC7F03FCFE01FCFE60
:100B600000FCFE00FE0000FE0000FE0001FC000193
:100B7000FC000FF800FFF000FFC000FF8000FFE066
:100B800000FFF80003FC0000FE0000FE00007E00F5
:100B9000007F00007FFE007FFE007FFE00FEFF0062
:100BA000FE7F01FC7FFFFC3FFFF81FFFF00FFFE01F
:100BB00003FF801A238C1C01000007FC00000FFCBF
:100BC00000001FFC00001FFC00003FFC00003FFC79
:100BD00000007FFC0000FDFC0000FDFC0001F9FCB2
:100BE0000001F9FC0003F1FC0007F1FC0007E1FC47
:100BF000000FC1FC000FC1FC001F81FC003F81FC05
:100C0000003F01FC007E01FC00FE01FC00FC01FC39
:100C100000FFFFFFC0FFFFFFC0FFFFFFC0FFFFFFA0
:100C2000C0FFFFFFC0FFFFFFC00001FC000001FC90
:100C3000000001FC000001FC000001FC000001FCC0
:100C4000000001FC001823691C02007FFFFC7FFFED
:100C5000FC7FFFFC7FFFFC7FFFFC7FFFFC7F000031
:100C60007F00007F00007F00007F00007F00007F8A
:100C70001FC07F7FF07FFFF87FFFFC7FFFFC7FC1FD
:100C8000FE7F00FE7F007F7E007F00007F00007FF0
:100C900000007F00007F00007FFE007FFE00FEFE60
:100CA00000FEFF01FC7FFFFC7FFFF83FFFF00FFF1E
:100CB000C007FF8019238C1C020100FFC00003FF46
:100CC000F00007FFF8000FFFFC001FFFFE001FE011
:100CD000FE003FC07F003F807F007F0000007F005C
:100CE00000007F0000007E000000FE1FC000FE7FAD
:100CF000F000FEFFF800FEFFFC00FFFFFE00FFE13A
:100D0000FE00FFC0FF00FF807F00FF003F00FF00EC
:100D10003F80FF003F80FF003F80FF003F807F005B
:100D20003F007F003F007F807F007F807F003FC0CB
:100D3000FE001FFFFC001FFFFC000FFFF80007FF75
:100D4000E00001FF80001823691C0200FFFFFFFF85
:100D5000FFFFFFFFFFFFFFFFFFFFFFFFFFFF0000A1
:100D60007F00007F0000FE0000FE0001FE0001FC8D
:100D70000003FC0003F80007F80007F0000FF00084
:100D80000FF0001FE0001FE0003FC0003FC0003F29
:100D900080007F80007F0000FF0000FF0001FE0058
:100DA00001FE0003FC0003FC0007F80007F8000F39
:100DB000F8000FF00019238C1C020103FFC0000F84
:100DC000FFF0001FFFFC003FFFFE003FFFFE007F23
:100DD000C1FF007F80FF007F007F007F007F007FDA
:100DE000007F007F007F007F007F003F80FE003F8C
:100DF000C1FC000FFFF80007FFE00001FFC0000F7B
:100E0000FFF0001FFFF8003FC1FE007F80FE007F63
:100E1000007F00FE003F00FE003F00FE003F80FE1E
:100E2000003F80FE003F80FF007F80FF007F007F4B
:100E300080FF007FFFFF003FFFFE003FFFFC000F31
:100E4000FFF80003FFE00019238C1C020101FFC022
:100E50000007FFE0000FFFF8001FFFFC003FFFFC52
:100E6000007F81FE007F00FE007E00FF00FE007F0D
:100E700000FE007F00FE007F80FE007F80FE007F7E
:100E800080FE007F80FE00FF807F00FF807F83FF69
:100E9000803FFFFF803FFFBF801FFFBF800FFF3FEE
:100EA0008001F83F8000003F0000007F0000007FCD
:100EB0000000007F007F00FE007F00FE007F01FE3B
:100EC000003F83FC001FFFFC001FFFF8000FFFF036
:100ED0000007FFE00001FF8000071818100700FE60
:100EE000FEFEFEFEFE00000000000000000000000C
:100EF00000FEFEFEFEFEFE000000080002010000F3
:100F000003040700000000000000000102040810B4
:100F1000204080010204081020010204081020046F
:100F20000404040404040402020202020203030390
:100F30000303030000000023002600290000000036
:100F400000250028002B0000000000240027002AB4
:100F5000000041140729D41411241FBECFEFD8E09C
:100F6000DEBFCDBF12E0A0E0B1E0ECE9FDE602C0DB
:100F700005900D92A437B107D9F725E0A4E7B2E0B8
:100F800001C01D92AF31B207E1F71FE0C6E5DFE017
:100F900004C02297FE010E942D31C235D107C9F746
:100FA0000E944B290C94C1360C940000CF93DF9320
:100FB000EC01262F4CAD6BAD04960E94BD222BADEB
:100FC000992787FD9095820F911D8BAF81E090E06E
:100FD000DF91CF910895DC01ED91FC910190F081BA
:100FE000E02D0994FC01808191810C94CE35EF9223
:100FF000FF920F931F93CF93DF9300D0CDB7DEB74F
:101000007C018B019A838983CE0101960E94F207AD
:10101000F8018083FFEFEF1AFF0AFA82E982CE011E
:1010200001960E94F207F8018183C8010F900F908A
:10103000DF91CF911F910F91FF90EF900895CF9284
:10104000DF92EF92FF920F931F93CF93DF9300D025
:1010500000D0CDB7DEB78C017B016C0184E0C80EF7
:10106000D11C1A830983CE0101966B837C830E9475
:10107000F207F70181937F010F5F1F4F6B817C8126
:101080000C151D0571F7CB010F900F900F900F906D
:10109000DF91CF911F910F91FF90EF90DF90CF9054
:1010A0000895CF92DF92EF92FF920F931F93CF9309
:1010B000DF9300D000D0CDB7DEB78C017B016C018F
:1010C0008EE1C80ED11C1A830983CE0101966B8371
:1010D0007C830E94F207F70181937F010F5F1F4F0E
:1010E0006B817C810C151D0571F7CB010F900F9062
:1010F0000F900F90DF91CF911F910F91FF90EF9084
:10110000DF90CF9008950F931F93CF93DF931F929B
:10111000CDB7DEB78C0169830E94F2076981681739
:1011200029F0F801808191810E94D635C8010F9085
:10113000DF91CF911F910F910895BF92CF92DF92CF
:10114000EF92FF920F931F93CF93DF9300D01F92E4
:10115000CDB7DEB78C01B62EE62EF72E6C0184E0FB
:10116000C80ED11CF70161917F011A830983CE015A
:1011700001967B830E9483080F5F1F4F7B810C15B4
:101180001D0581F78B2D972F0F900F900F90DF91FA
:10119000CF911F910F91FF90EF90DF90CF90BF9074
:1011A00008950F931F93CF93DF9300D0CDB7DEB791
:1011B0008B01FB0160819A838983CE0101960E9495
:1011C0008308C8010F900F90DF91CF911F910F916D
:1011D0000895EF92FF920F931F93CF93DF9300D068
:1011E000CDB7DEB77C018B01FB0160819A838983D7
:1011F000CE0101960E948308F8016181FFEFEF1A8A
:10120000FF0AFA82E982CE0101960E948308C80192
:101210000F900F90DF91CF911F910F91FF90EF9062
:1012200008958091B003811105C080EA9BEBADE089
:10123000B0E004C088E99AE3A0E0B0E080932B031B
:1012400090932C03A0932D03B0932E036BEA73E0CD
:1012500084E090E00E941F086091AB037091AC03A2
:101260008091AD039091AE039B01AC010E94DA2FF7
:10127000882341F01092AB031092AC031092AD039F
:101280001092AE0367EA73E088E090E00E941F08C6
:101290006091A7037091A8038091A9039091AA037C
:1012A0009B01AC010E94DA2F882341F01092A70322
:1012B0001092A8031092A9031092AA0308956BEA52
:1012C00073E084E090E00C949D08CF92DF92EF925F
:1012D000FF920F931F93CF93DF93C090A703D090FB
:1012E000A803E090A903F090AA030091AB0310912A
:1012F000AC03D091AD03C091AE0398014D2F5C2F8C
:10130000B601C7010E94DC2E18161CF48601DE2DE2
:10131000CF2DB8018D2F9C2FDF91CF911F910F9171
:10132000FF90EF90DF90CF900895FF920F931F935F
:10133000CF93DF9300D0CDB7DEB70CE010E0F12CF7
:101340001A830983CE0101960E94F2079FEF980F3E
:101350009E3F18F4F81608F4F82E0F5F1F4F003167
:10136000110571F78F2D0F900F90DF91CF911F9185
:101370000F91FF900895FF920F931F93CF93DF93E8
:1013800000D0CDB7DEB70CE010E0F12C1A83098352
:10139000CE0101960E94F2079FEF980F9E3F18F42E
:1013A000F81608F4F82E0F5F1F4F0031110571F782
:1013B0002F2D30E02F5F3F4F3A832983BE016F5FAF
:1013C0007F4F8DE090E00E94E90881E08F0D0F9043
:1013D0000F90DF91CF911F910F91FF9008950F9380
:1013E0001F93CF93DF931F92CDB7DEB70E945F09A3
:1013F0000E94BB099091150189132CC00CE010E0EC
:101400001982BE016F5F7F4FC8010E94D1080F5F34
:101410001F4F00311105A1F76BEA73E088E090E0FF
:101420000E949D088091AB039091AC03A091AD0305
:10143000B091AE038093A7039093A803A093A90350
:10144000B093AA031092AB031092AC031092AD03B9
:101450001092AE030F90DF91CF911F910F910895DD
:10146000CF92DF92EF92FF9286E993E00E94191BE0
:101470006B017C0163EE72E08EE794E00E94982994
:1014800022E030E0B701A6018EE794E00E947A2BBB
:101490008EE794E00E94C62985E893E00E94191B1C
:1014A0006B017C016EED72E08EE794E00E9498295A
:1014B00022E030E0B701A6018EE794E00E947A2B8B
:1014C0008EE794E00E94C62985E893E00E94191BEC
:1014D0006B017C0186E993E00E94191B9B01AC0122
:1014E000C701B6010E94282D6B017C0169ED72E0F5
:1014F0008EE794E00E94982922E030E0B701A6012F
:101500008EE794E00E947A2B8EE794E00E94C62931
:10151000C090AB03D090AC03E090AD03F090AE036D
:1015200064ED72E08EE794E00E94982922E030E0BA
:10153000B701A6018EE794E00E947A2B8EE794E033
:101540000E94C629C090A703D090A803E090A903E9
:10155000F090AA036FEC72E08EE794E00E94982965
:1015600022E030E0B701A6018EE794E00E947A2BDA
:101570008EE794E00E94C62984E793E00E94191B3D
:101580006B017C016AEC72E08EE794E00E9498297E
:1015900022E030E0B701A6018EE794E00E947A2BAA
:1015A0008EE794E00E94C6290E949509F82E65EC0A
:1015B00072E08EE794E00E9498294AE050E06F2D97
:1015C0008EE794E00E94822A8EE794E00E94C6296A
:1015D000E0902F03F090300360EC72E08EE794E02F
:1015E0000E9498294AE050E0B7018EE794E00E94FB
:1015F000892A8EE794E0FF90EF90DF90CF900C94D3
:10160000C62940E855E260E070E083E393E00E9481
:101610001C1D61E082E00E94F12661E082E00C94F2
:101620002A2783E393E00E94AA1D61E082E00E94E2
:10163000F12660E082E00C942A270E94110B68EEEC
:1016400073E080E090E00E9448260C94010BCF9359
:10165000DF9300D0CDB7DEB78AE190E09A8389832B
:10166000CE0101960E94F20791E0813009F090E0EE
:10167000892F0F900F90DF91CF9108956F927F92F5
:101680008F929F92AF92BF92CF92DF92EF92FF9292
:101690000F931F93CF93DF93CDB7DEB7C654D10915
:1016A0000FB6F894DEBF0FBECDBF5C01762E672E5D
:1016B000CE0101967C018CE3C82ED12C9E2C8F2C60
:1016C0008E01075D1F4FDAA6C9A6C8010E94F20766
:1016D000F70181937F01FFEFCF1ADF0A84E6C81676
:1016E000D10489F7B80184E690E00E94510829816D
:1016F0002F5F223008F443C08EE794E00E94C62991
:101700006AE472E08EE794E00E949829692D782DB2
:101710008EE794E00E94BD296BE271E08EE794E0D1
:101720000E94BD29B8018EE794E00E94BD298EE792
:1017300094E00E94C6296F927F921F930F938F921D
:101740009F922DE231E03F932F93BF92AF920E9480
:10175000DA3364E472E08EE794E00E949829B501E0
:101760008EE794E00E94BD298EE794E00E94C6298E
:101770000FB6F894DEBF0FBECDBF81E001C080E0A0
:10178000CA5BDF4F0FB6F894DEBF0FBECDBFDF914F
:10179000CF911F910F91FF90EF90DF90CF90BF906E
:1017A000AF909F908F907F906F900895BF92CF924F
:1017B000DF92EF92FF920F931F93CF93DF9300D0AE
:1017C000CDB7DEB77C01D62EC72E04EB10E01A830E
:1017D0000983CE0101960E94F207B82E8EE794E0AD
:1017E0000E94C6296AE372E08EE794E00E9498297D
:1017F0004AE050E06B2D8EE794E00E94822A8EE74B
:1018000094E00E94C6291A830983CE0101960E94A2
:10181000F207813009F5CF92DF9221E631E03F9364
:101820002F93FF92EF920E94DA3364E372E08EE727
:1018300094E00E949829B7018EE794E00E94BD29A8
:101840008EE794E00E94C6290F900F900F900F90A2
:101850000F900F9081E001C080E00F900F90DF911A
:10186000CF911F910F91FF90EF90DF90CF90BF909D
:101870000895EF92FF920F931F93CF93DF9300D0C1
:10188000CDB7DEB77B018C01E81AF90AC701800FDA
:10189000911FF80121918F01222339F02983BE0184
:1018A0006F5F7F4F0E94D108F1CF1A821982BE016B
:1018B0006F5F7F4F0E94E9080F900F90DF91CF91EB
:1018C0001F910F91FF90EF900895FC0101962081E8
:1018D0002032D9F3CF010895CF93DF9300D0CDB755
:1018E000DEB70E9443339A838983BE016F5F7F4FC7
:1018F00085EB90E00E94E9080F900F90DF91CF9167
:101900000895CF93DF9300D000D0CDB7DEB7198212
:101910001A821B821C82BE016F5F7F4F84E090E0C1
:101920000E949D0819821A821B821C82BE016F5F71
:101930007F4F88E090E00E949D081092AB031092C8
:10194000AC031092AD031092AE031092A703109255
:10195000A8031092A9031092AA030F900F900F9062
:101960000F90DF91CF910895DF92EF92FF920F9346
:101970001F93CF93DF9300D0CDB7DEB77C0100E19A
:1019800010E0D12CBE016F5F7F4FC8010E94F707A6
:1019900029813A81E216F30644F0D3940E5F1F4F7B
:1019A00085E0D812EFCF85E001C08D2D0F900F900C
:1019B000DF91CF911F910F91FF90EF90DF900895ED
:1019C000CF92DF92EF92FF920F931F93CF93DF930B
:1019D000CDB7DEB728970FB6F894DEBF0FBECDBFE8
:1019E0008C016CE671E0CE0101960E94312CF80169
:1019F0008081843629F48DE691E00E94E00C35C0A8
:101A0000D12C7801F8016081262F332727FD3095EE
:101A1000205331092A30310528F4CE0101960E9465
:101A2000D62C1AC089819A810E94433398878F836C
:101A3000CC24C394CD0C8D2D90E00896BE01695F37
:101A40007F4F880F991F0E94E9086CE671E0CE0174
:101A500001960E94682CDC2C0F5F1F4FF7018081DC
:101A6000882319F0F4E0FD1560F6CE0101960E947E
:101A7000C32B28960FB6F894DEBF0FBECDBFDF9103
:101A8000CF911F910F91FF90EF90DF90CF9008952D
:101A9000CF93DF9300D0CDB7DEB7BE016F5F7F4F2E
:101AA00080E190E00E94F70789819A81019621F4F4
:101AB0008DE691E00E94E00C0F900F90DF91CF91A6
:101AC00008950F931F93CF93DF930E94480D8EECE0
:101AD00092E00E940A1E06EB12E0C0E0D0E0F8019E
:101AE00021913191419151918F01BE018EEC92E093
:101AF0000E94DA1E2196C630D10589F764E18EEC8A
:101B000092E00E942B1F8EEC92E0DF91CF911F910B
:101B10000F910C94171ECF93C0911A0166E171E0EA
:101B20008EE794E00E9498294AE050E06C2F8EE7FF
:101B300094E00E94822A8EE794E0CF910C94C6290B
:101B40000E94300A0E948B0D8EE794E00C94C62907
:101B5000CF93C091310381E0C827C09331038EE752
:101B600094E00E94C62960E771E08EE794E00E944D
:101B700098296C2F70E04AE050E08EE794E00E94D4
:101B80006D2A8EE794E00E94C6298091310381116D
:101B90000E94A00D80E090E0CF910895CF93DF9355
:101BA00000D0CDB7DEB787EB90E09A838983CE0172
:101BB00001960E94F2078F3F69F0682F70E080E085
:101BC00090E00E942C2E20E030E040E251E40E94A0
:101BD000912D04C060E070E080E89FE30F900F90CB
:101BE000DF91CF910895CF92DF92EF92FF92CF9342
:101BF000DF9380912F0390913003009781F10E9431
:101C0000B40CD82F84E0D89FF0011124EA54FD4F82
:101C1000C080D180E280F380C0E06C2F70E0A7012B
:101C200096018EEC92E00E94DA1ECF5FDC17A8F7D7
:101C3000C63058F46C2F70E020E030E0A9018EEC43
:101C400092E00E94DA1ECF5FF3CF8EEC92E0DF913C
:101C5000CF91FF90EF90DF90CF900C94171EDF9103
:101C6000CF91FF90EF90DF90CF9008954F925F92C9
:101C70006F927F928F929F92AF92BF92CF92DF929C
:101C8000EF92FF920F931F93CF93DF9361E088E76A
:101C900092E00E94A8248091B102811107C081E0E6
:101CA0008093B10288E792E00E9447246FEF88E7B3
:101CB00092E00E9491248091B102811107C081E0DD
:101CC0008093B10288E792E00E94472488E792E07F
:101CD0000E947D24CFE2D7E006E438EEC32E33E045
:101CE000D32EE12CF12C14E680911A01813019F4E5
:101CF00066EA73E002C066E578E088E792E00E9459
:101D00002B2360912F0370913003683E23E072070C
:101D100010F481E201C085E08093AF02C093B0026D
:101D20006115710531F04AE050E084E792E00E94CD
:101D3000892A66EA73E088E792E00E942B231092DA
:101D4000AF02D093B002609118017091190184E73D
:101D500092E00E94BD298091AF03811117C00093CA
:101D6000AF02D093B0026CE071E084E792E00E9491
:101D7000982980912F0390913003892B39F40E9488
:101D80001926613A7F4081059105B8F488E792E011
:101D90000E9482248111A8CFDF91CF911F910F91D2
:101DA000FF90EF90DF90CF90BF90AF909F908F907B
:101DB0007F906F905F904F90089540902B035090CC
:101DC0002C0360902D0370902E030E9419264B0166
:101DD0005C0166E578E088E792E00E942B23109290
:101DE000AF02C093B002C301B201681979098A0930
:101DF0009B09A70196010E94EA30BA01A9012AE0D5
:101E000030E084E792E00E94752A66EA73E088E792
:101E100092E00E942B231093AF02C093B00268E0BF
:101E200071E084E792E00E949829B0CFCF93DF93CE
:101E3000EC010E94270B882341F0D0931901C09335
:101E40001801DF91CF910C94360EDF91CF91089558
:101E50000F931F93CF93DF9300D000D0CDB7DEB7A1
:101E600026E040E855E260E070E08EE794E00E94F2
:101E700043288091B003882331F06CE573E08EE74E
:101E800094E00E94982963E473E08EE794E00E9456
:101E900098296FE073E08EE794E00E949829BE01D4
:101EA0006D5F7F4F85EB90E00E94F7070B811C81EF
:101EB0006FEF72E08EE794E00E9498294AE050E0CC
:101EC000B8018EE794E00E946D2A8EE794E00E94AC
:101ED000C6290E94270B811106C068EE72E08EE7CA
:101EE00094E00E9498298AE390E09A838983CE0146
:101EF00001960E94F207809332030E94610D0E94B6
:101F0000110B0E9411098CE691E00E94160F0F90B0
:101F10000F900F900F90DF91CF911F910F91089527
:101F2000CF93DF9300D000D000D0CDB7DEB7BC0197
:101F3000CE0101960E94312CCE0101960E941C2DEB
:101F40007093300360932F03CE0101960E94C32B40
:101F50000E94F30D0E94360E26960FB6F894DEBF4F
:101F60000FBECDBFDF91CF91089520E030E04EE865
:101F700052E40E94912D23E032ED42E250E40E94AF
:101F8000292D9B01AC0160E070E080E291E40E94A9
:101F90008E2F0E94F92DCB010895CF92DF92EF9200
:101FA000FF920E9465096B017C0186E993E00E9423
:101FB000191B9B01AC01C701B6010E94282D0E948C
:101FC000B50F9093300380932F03FF90EF90DF9035
:101FD000CF900895BC01882777FD8095982F0E94A7
:101FE0002C2E0E94E02E23E032ED42E250E40E94CB
:101FF000282D20E030E04EE852E40E942B2F089577
:102000008F929F92AF92BF92CF92DF92EF92FF9208
:1020100086E993E00E94191B6B017C0180911601F7
:10202000909117010E94EA0F9B01AC01C701B60114
:102030000E94292D6B017C012091AB033091AC03F0
:102040004091AD035091AE030E94DC2E18169CF512
:102050008090230390902403A0902503B090260342
:1020600081149104A104B10459F40E9419266093CB
:1020700023037093240380932503909326031BC0AE
:102080000E941926681979098A099B0961367A4ED6
:102090008105910580F0C092AB03D092AC03E09231
:1020A000AD03F092AE03109223031092240310921A
:1020B000250310922603FF90EF90DF90CF90BF9002
:1020C000AF909F908F9008950F931F93CF93DF93BE
:1020D00000D000D0CDB7DEB78C0186E993E00E9436
:1020E000191B9B01AC01C80129833A834B835C8394
:1020F0000E9443330E94EA0F29813A814B815C811F
:102100000E94292D6093AB037093AC038093AD03C1
:102110009093AE030F900F900F900F90DF91CF919F
:102120001F910F910C945F09CF92DF92EF92FF9273
:102130006B017C0184E793E00E94191B20E030E0F2
:1021400048E051E40E94DC2E1816ACF484E793E0DA
:102150000E94191B9B01AC0160E070E088E192E4F1
:102160000E94282D2AE939E949E15FE30E942B2FDB
:102170009B01AC0104C02AE939E94DE851E4C701EB
:10218000B6010E94292DFF90EF90DF90CF90089527
:102190008F929F92AF92BF92CF92DF92EF92FF9277
:1021A0006B017C0120E030E040E251E40E942B2FE3
:1021B0004B015C01A70196016DEC7CEC84EA90E494
:1021C0000E94282D9B01AC01C501B4010E94912DF4
:1021D00020E030E04AE754E40E942B2F20E030E476
:1021E0004CE156E40E94912D0E94EB2E20E030E459
:1021F00043E555E40E94912D2FE03FEC4BE55BE376
:102200000E94292D9B01AC0160E070E080E89FE313
:102210000E94912D23E333E948E853E40E94282DDE
:10222000FF90EF90DF90CF90BF90AF909F908F90F6
:1022300008954F925F926F927F928F929F92AF928A
:10224000BF92CF92DF92EF92FF92CF93DF93D82F7E
:10225000C62F262F30E0A8EEB3E00E9431312B01CB
:102260003C01812C912C5401C12CD12C7601841479
:102270009504A604B70494F48D2F0E94AB26AC01FC
:10228000662757FD6095762FC40ED51EE61EF71EF5
:102290008FEF881A980AA80AB80AE9CFC701B601D1
:1022A0000E942A2E6B017C0188EE93E0C89FB0014A
:1022B000C99F700D1124882777FD8095982F0E9463
:1022C0002C2E9B01AC01C701B6010E94912DDF911C
:1022D000CF91FF90EF90DF90CF90BF90AF909F9005
:1022E0008F907F906F905F904F900895CF92DF9284
:1022F000EF92FF926AE081E190E00E9419119B0148
:10230000AC0160E070EC8FE794E40E94282D2DEC86
:102310003CEC44EA50E40E942B2F20E030E040E8FF
:102320005AE30E942B2F0E94C810AB01BC0184E726
:1023300093E00E949C1A6AE080E190E00E941911EB
:102340002DEC3CEC44EA50E40E942B2F20E030E0DE
:1023500040E85AE30E942B2F26E636E646EB50E48F
:102360000E94912D20E030E04AE754E40E942B2F98
:102370006B017C010E949410AB01BC0186E993E0E3
:102380000E949C1AB701A60185E893E0FF90EF90A8
:10239000DF90CF900C949C1ACF92DF92EF92FF9235
:1023A0000E9476118091AF0381110FC00E941926FF
:1023B000C0902B03D0902C03E0902D03F0902E03BF
:1023C000C616D706E806F90658F40E940010809158
:1023D000AF03811105C00E945F0981E08093AF03C4
:1023E0000E94CD0FC0902703D0902803E0902903CE
:1023F000F0902A030E9419266C197D098E099F0905
:1024000061387E4E8643910580F00E9419266093C4
:102410002703709328038093290390932A03FF9046
:10242000EF90DF90CF900C94EF09FF90EF90DF904A
:10243000CF9008956F927F92AF92BF92CF92DF922A
:10244000EF92FF920F931F93CF93DF9300D0CDB7FE
:10245000DEB7809132038F3F09F05DC061E08EE00E
:1024600090E00E941911AB01BC0183E693E00E9449
:102470009C1A8BE390E09A838983CE0101960E9497
:10248000F207813029F460E9662E7724739404C042
:1024900058EE652E53E0752E83E693E00E94191BDB
:1024A0006B017C010E94CE0D9B01AC01C701B601FE
:1024B0000E942B2F0E94F92D6B3071053CF466238E
:1024C00019F060931A0129C081E025C0730100272B
:1024D000F7FC0095102F661677060CF4B3018827D9
:1024E00077FD8095982F20910A011F921F921F92CD
:1024F0002F934BE0A42EB12CC12CD12C2BE030E03B
:1025000040E050E00E947C2B60931A010F900F90E6
:102510000F900F9002C080931A0160911A018EEC07
:1025200092E00E942B1F8EEC92E00F900F90DF91B3
:10253000CF911F910F91FF90EF90DF90CF90BF90C0
:10254000AF907F906F900C94171ECF92DF92EF9216
:10255000FF92C090B202D090B302E090B402F0902B
:10256000B5020E9419266C197D098E099F096938E8
:1025700073418105910590F00E9419266093B20283
:102580007093B3028093B4029093B5020E94F30D4E
:10259000FF90EF90DF90CF900C941A12FF90EF9085
:1025A000DF90CF9008950E94E00C0E94A51269E987
:1025B00071E08EE794E00C94982968EF70E08EE764
:1025C00094E00E9498296CE271E080E090E00E9423
:1025D00048260C9400000895CF93DF93C0E0D0E02C
:1025E0006FEFCE010E94D6352196CC3281E0D8071C
:1025F000B9F7DF91CF9108950E94EC1260E871E085
:102600008EE794E00E9498290E94DD1280E090E01D
:102610000895CF92DF92EF92FF926B017C010E94AE
:10262000F92D882777FD8095982F0E942C2E9B01ED
:10263000AC01C701B6010E94282D20E030E040E245
:1026400051E40E942B2F0E94F92DCB01FF90EF90B7
:10265000DF90CF9008952F923F924F925F926F92AA
:102660007F928F929F92AF92BF92CF92DF92EF9222
:10267000FF920F931F93CF93DF93CDB7DEB7E4970D
:102680000FB6F894DEBF0FBECDBF89AB9AAB8B01FE
:10269000BE016F5F7F4F8CE890E00E9451088981F6
:1026A0008F5F823008F4D3C08EE794E00E94C62981
:1026B0006FE472E08EE794E00E949829BE016F5F9C
:1026C0007F4F8EE794E00E94BD298EE794E00E9440
:1026D000C6298091210390912203009761F0B801EF
:1026E000681B790B882777FD8095982F0E942C2EE8
:1026F000AB01BC0103C040E050E0BA0182E593E0C9
:102700000E949C1A83E693E00E94191B6F8F78A3A6
:1027100089A39AA382E593E00E94191B0E940913E2
:102720001C0182E593E00E94191B2B013C0184E708
:1027300093E00E94191B0E9409138BA79CA784E7B2
:1027400093E00E94191B6BA37CA38DA39EA3C09052
:10275000AB03D090AC03E090AD03F090AE03C701A3
:10276000B6010E9409138DA79EA786E993E00E94F7
:10277000191B0E9409138FA798AB86E993E00E946A
:10278000191B4B015C0185E893E00E94191B0E9414
:1027900009139C0185E893E02BAB3CAB0E94191B0D
:1027A0006FA378A789A79AA76F8D78A189A19AA10D
:1027B0000E94F92D7F936F933F922F92C301B20134
:1027C0000E94F92D7F936F938CA58F939BA59F9368
:1027D0006BA17CA18DA19EA10E94F92D7F936F9387
:1027E0008EA58F939DA59F93C701B6010E94F92DD9
:1027F0007F936F9388A98F939FA59F93C501B40181
:102800000E94F92D7F936F933CA93F932BA92F939F
:102810006FA178A589A59AA50E94F92D7F936F9342
:102820001F930F93CE0101969F938F9386E891E0BB
:102830009F938F938AA98F9399A99F930E94DA33CC
:102840000FB6F894DEBF0FBECDBF81E001C080E0BF
:10285000E4960FB6F894DEBF0FBECDBFDF91CF91E7
:102860001F910F91FF90EF90DF90CF90BF90AF90AE
:102870009F908F907F906F905F904F903F902F90A0
:1028800008950F93CF93DF9364E086E993E00E946D
:10289000881A64E085E893E00E94881A64E084E77F
:1028A00093E00E94881A64E083E693E00E94881A0D
:1028B00064E082E593E00E94881A20E04AE069E043
:1028C00083E393E00E94EC1C23E04FE066E070E0BD
:1028D0008EEC92E00E94AC1D40E06FEF80E00E9421
:1028E000221F6093B6027093B7028093B802909350
:1028F000B90240E06FEF8CE80E94221F6093BA0299
:102900007093BB028093BC029093BD0240E06FEFD6
:102910008FEF0E94221F6093BE027093BF028093CC
:10292000C0029093C10240E068EC8FEF0E94221F2A
:102930006093C2027093C3028093C4029093C50255
:1029400040E068E78FEF0E94221F6093C6027093F9
:10295000C7028093C8029093C90240E060E08FEF05
:102960000E94221F6093CA027093CB028093CC0214
:102970009093CD021092770210927602C4E7D2E0D3
:1029800087E392E09983888308E027E046E06CE1E2
:1029900071E0CE010E946C1F8FE392E099838883DF
:1029A000DF91CF910F9108958EEC92E00E94FB1D74
:1029B00083E393E00E94931C82E593E00E945A1AFD
:1029C00083E693E00E945A1A84E793E00E945A1A21
:1029D00085E893E00E945A1A86E993E00C945A1A0B
:1029E0008F929F92BF92CF92DF92EF92FF920F93BE
:1029F0001F93CF93DF9300D000D0CDB7DEB7182F51
:102A0000092FB62E2C8339834A835B830E941926B3
:102A10006B017C012C8139814A815B81C20ED31EFE
:102A2000E41EF51E812E902E0E9419266C157D0540
:102A30008E059F0540F583E393E00E94C21B892B1E
:102A400099F383E393E00E94341B282FBB2081F08D
:102A5000843124F48A3011F08D3051F4622F7727BD
:102A600067FD70958EE794E02C830E94EB072C8124
:102A7000F40180812813D6CF8181882331F0FFEFC4
:102A80008F1A9F0AD1CF80E001C081E00F900F9094
:102A90000F900F90DF91CF911F910F91FF90EF90CA
:102AA000DF90CF90BF909F908F9008956EE572E079
:102AB0008EE794E00E9498290E941D0B28EB3BE0D2
:102AC00040E050E060911B0180EF91E00E94F01423
:102AD000682F70E04AE050E08EE794E00E946D2A93
:102AE0008EE794E00E94C62920E335E740E050E0FD
:102AF00061E086EF91E00E94F014811104C00E9411
:102B0000110B80E0089567E572E08EE794E00E9483
:102B1000982981E008958F929F92AF92BF92CF92B1
:102B2000DF92EF92FF920F931F93CF93DF93CDB776
:102B3000DEB7C659D1090FB6F894DEBF0FBECDBFC0
:102B40007B016130710541F4BC01CE0101960E9408
:102B50002B1381110FC00BC06230710509F07EC0CC
:102B6000BC01CE0101960E943E0B811181C08FEF06
:102B70009FEF82C077E0A72EB12CC12CD12CCE01C3
:102B800001964C0191E0E916F10419F40FE112E00D
:102B900002C002E112E06EEF71E083E393E00E9475
:102BA0009829B80183E393E00E9498296FE272E0CC
:102BB00083E393E00E94982983E393E00E94C6296F
:102BC00020EA3FE040E050E061E082E191E00E94D5
:102BD000F014811107C0EFEFCE1ADE0ACA14DB042D
:102BE0008CF235C0F40101900020E9F78F0101500B
:102BF00011090819190962EF71E083E393E00E945B
:102C000098294AE050E0B80183E393E00E94892AC2
:102C100083E393E00E94C62920E737E140E050E0DB
:102C200061E08DEF91E00E94F0148823A1F2B401DD
:102C300083E393E00E94BD2920E83EE340E050E0BA
:102C400061E08FEF91E00E94F014882321F281E08F
:102C500090E0CA14DB0484F080E00EC0E3E0EE16DE
:102C6000F10431F4BC01CE0101960E94D60B7DCF58
:102C7000AA24A394B12C81CFCA56DF4F0FB6F89483
:102C8000DEBF0FBECDBFDF91CF911F910F91FF909F
:102C9000EF90DF90CF90BF90AF909F908F9008956E
:102CA000AF92BF92CF92DF92EF92FF920F931F935A
:102CB000CF93DF9300D0CDB7DEB77C010E945615CD
:102CC000811149C00E945615811145C000E010E0F5
:102CD0000E94110BF0922203E092210301301105B2
:102CE00041F081E0A816B10421F081E0C816D104BA
:102CF00081F48CE292E00E94160F81E090E09A83CA
:102D00008983BE016F5F7F4F8AE190E00E94E908EE
:102D100035C00115110531F0A114B10419F0C11429
:102D2000D10419F486E092E013C00F3F8FEF18072B
:102D300031F0AB20A09419F0CD20C09419F48FE0AD
:102D400092E006C00F3F8FEF1807C4F486E192E0CF
:102D50000E94160F13C061E070E0C7010E948B153E
:102D60008C0162E070E0C7010E948B155C0163E09A
:102D700070E0C7010E948B156C01AACFC8010F90AB
:102D80000F90DF91CF911F910F91FF90EF90DF9007
:102D9000CF90BF90AF9008958F929F92AF92BF92C5
:102DA000CF92DF92EF92FF920F931F93CF93DF9317
:102DB00000D0CDB7DEB70E94270B811105C08CE192
:102DC00092E00E94160F58C080912F03909130031B
:102DD000892B09F451C0BE016F5F7F4F85EB90E0F6
:102DE0000E94F70789819A81029724F488E790E08E
:102DF0009A83898309811A8180901D0390901E0314
:102E0000A0901F03B09020030E9419266B017C0143
:102E1000C818D908EA08FB0828EE33E0D8010E9458
:102E200040316C157D058E059F0530F580912F038F
:102E3000909130030E9450167C018EE794E00E942E
:102E4000C62969EE71E08EE794E00E9498294AE075
:102E500050E0B7018EE794E00E946D2A8EE794E07F
:102E60000E94C6290E94192660931D0370931E03B9
:102E700080931F03909320030F900F90DF91CF91C9
:102E80001F910F91FF90EF90DF90CF90BF90AF9088
:102E90009F908F9008950F931F93CF93DF9300D04F
:102EA000CDB7DEB78C011A821982BE016F5F7F4FEA
:102EB0008AE190E00E94E9086FEA72E083E393E020
:102EC0000E94982920E137E240E050E060911B0128
:102ED00082E191E00E94F014882309F449C083E361
:102EE00093E00E94A71B6BEA72E083E393E00E94E9
:102EF000982928EE33E040E050E060911B0182E128
:102F000091E00E94F0146DE972E083E393E00E9487
:102F10009829B80183E393E00E94BD2983E393E0FD
:102F20000E94C62920E23EE440E050E060911B018F
:102F30008BE091E00E94F0148823E9F06CE872E0E5
:102F400083E393E00E94982981E090E09A8389834B
:102F5000BE016F5F7F4F8AE190E00E94E90862E85E
:102F600072E08EE794E00E94982981E090E005C02D
:102F70008FEF9FEF02C08EEF9FEF0F900F90DF91CA
:102F8000CF911F910F910895CF92DF92EF92FF9210
:102F9000CF93DF93EC010E9419266B017C01CE01D7
:102FA000AA2797FDA095BA2FC80ED91EEA1EFB1EB0
:102FB000C0E00E9419266C157D058E059F0508F559
:102FC0008EE794E00E946027892B99F3D1E0DC0F13
:102FD0008EE794E00E947927EC2FF0E0EF51FD4F4F
:102FE0008083ED2FF0E0E052FD4F80818D3029F09D
:102FF000DB3331F08A3011F404C0DC2FCD2FD9CF70
:10300000CBE3EC2FF0E0EF51FD4F10828C2FDF91DE
:10301000CF91FF90EF90DF90CF90089567E772E037
:103020008EE794E00E9498290E941D0B83E393E0B1
:103030000E94C21B892B49F083E393E00E94341B5A
:10304000BC018EE794E00E94EB078EE794E00E94BB
:103050006027892B59F38EE794E00E947927682F27
:1030600083E393E00E94551BE1CFCF93DF938EE77C
:1030700094E00E94C62969E571E08EE794E00E9421
:1030800098290E941D0B20E137E240E050E060915A
:103090001B0180EF91E00E94F014811108C060E4F0
:1030A00071E08EE794E0DF91CF910C9498298EE740
:1030B00094E00E94BC2768EE73E080E090E00E94FC
:1030C000482685EE92E00E94650C0E944B17EC01A9
:1030D00097FF13C064E271E08EE794E00E949829A4
:1030E0004AE050E0BE018EE794E00E946D2A8EE730
:1030F00094E0DF91CF910C94C62987E292E00E9480
:10310000160FDF91CF9108951F93CF93DF93CDB723
:10311000DEB72C970FB6F894DEBF0FBECDBF61EEC1
:1031200072E0CE0107960E94312C61EE72E08EE7CC
:1031300094E00E94BD298EE794E00E94C62964EEC7
:1031400071E0CE0101960E94A12CBE016F5F7F4FFE
:10315000CE0107960E940D2D182FCE0101960E94D8
:10316000C32B112319F00E94351870C161EE71E074
:10317000CE0101960E94A12CBE016F5F7F4FCE0150
:1031800007960E940D2D182FCE0101960E94C32B89
:10319000112339F083EE92E00E94650C0E94D31255
:1031A00055C16BED71E0CE0101960E94A12CBE01CC
:1031B0006F5F7F4FCE0107960E940D2D182FCE0115
:1031C00001960E94C32B112319F00E94A80D3EC145
:1031D00065ED71E0CE0101960E94A12CBE016F5FEA
:1031E0007F4FCE0107960E940D2D182FCE0101961C
:1031F0000E94C32B112319F00E94FC1227C16FEC0F
:1032000071E0CE0101960E94A12CBE016F5F7F4F3D
:10321000CE0107960E940D2D182FCE0101960E9417
:10322000C32B112339F086EE92E00E94650C6CE806
:1032300070E01AC06AEC71E0CE0101960E94A12CE8
:10324000BE016F5F7F4FCE0107960E940D2D182F94
:10325000CE0101960E94C32B112349F085EE92E026
:103260000E94650C6CE370E00E94390CEFC065ECC5
:1032700071E0CE0101960E94A12CBE016F5F7F4FCD
:10328000CE0107960E940D2D182FCE0101960E94A7
:10329000C32B112339F085EE92E00E94650C64E6A1
:1032A00070E0E2CF60EC71E0CE0101960E94A12CAB
:1032B000BE016F5F7F4FCE0107960E940D2D182F24
:1032C000CE0101960E94C32B112329F087E392E0DF
:1032D0000E945016BBC06CEB71E0CE0101960E94BB
:1032E000A12CBE016F5F7F4FCE0107960E940D2D6E
:1032F000182FCE0101960E94C32B112359F085EEA1
:1033000092E00E9443338983BE016F5F7F4F87EB5A
:1033100090E09AC066EB71E0CE0101960E94A12C6C
:10332000BE016F5F7F4FCE0107960E940D2D182FB3
:10333000CE0101960E94C32B11110E940E1862EB60
:1033400071E0CE0101960E94A12CBE016F5F7F4FFC
:10335000CE0107960E940D2D182FCE0101960E94D6
:10336000C32B112339F084EE92E00E94650C0E9479
:10337000900F6CC06EEA71E0CE0101960E94A12C04
:10338000BE016F5F7F4FCE0107960E940D2D182F53
:10339000CE0101960E94C32B112339F084EE92E0F6
:1033A0000E94650C0E94641051C06AEA71E0CE016F
:1033B00001960E94A12CBE016F5F7F4FCE01079640
:1033C0000E940D2D182FCE0101960E94C32B1123B0
:1033D00019F00E94810C3AC066EA71E0CE010196B4
:1033E0000E94A12CBE016F5F7F4FCE0107960E9405
:1033F0000D2D182FCE0101960E94C32B112339F0F9
:1034000084EE92E00E94650C0E946C0C1FC061EA81
:1034100071E0CE0101960E94A12CBE016F5F7F4F2B
:10342000CE0107960E940D2D182FCE0101960E9405
:10343000C32B112359F08091E50280538983BE018B
:103440006F5F7F4F84EB90E00E94D1086FE971E0DD
:103450008EE794E00E9498298EE794E00E94C629A6
:10346000CE0107960E94C32B2C960FB6F894DEBFB0
:103470000FBECDBFDF91CF911F9108958EE794E0ED
:103480000E946027892B31F080E395E70E94C417E2
:103490000C94841808950E94CC110E94A51280916A
:1034A000310381110E94A00D0E94360E0E943E1A27
:1034B0000C94CC16FC0187819085009711F00C9438
:1034C000EA310895FC01118212821382148215825E
:1034D000168240E050E060EC7FE7418752876387C7
:1034E0007487458756876787708B80E0908189173E
:1034F00070F4A781B08594E0899FA00DB11D1124BF
:103500001D921D921D921C9213978F5FEFCF08950D
:10351000CF93DF93EC01688324E0629FC001112404
:103520000E94523198878F83892B09F41882CE012B
:10353000DF91CF910C94621AAF92BF92CF92DF923B
:10354000EF92FF920F931F93CF93DF93EC016A01E9
:103550007B010F8118850115110509F45FC08A816F
:10356000580194E0899FA00CB11C1124F501208121
:103570003181428153816B817C818D819E810E944A
:10358000282D6B837C838D839E83F501C082D1823D
:10359000E282F382BA80F80184E0B89EE00DF11D6A
:1035A000112420813181428153816B817C818D8105
:1035B0009E810E94292D6B837C838D839E83B3948F
:1035C000BA820881B01201C01A821981111105C096
:1035D000CD86DE86EF86F88A0AC029853A854B8536
:1035E0005C85C701B6010E948D2D87FF05C0C98685
:1035F000DA86EB86FC860EC02D853E854F85588980
:10360000C701B6010E94DC2E181624F4CD86DE8692
:10361000EF86F88A101710F41F5F1983DF91CF919E
:103620001F910F91FF90EF90DF90CF90BF90AF90E0
:103630000895CF93DF93EC016981662371F070E008
:1036400080E090E00E942C2E9B01AC016B817C817C
:103650008D819E810E94912D04C060E070E080EC1D
:103660009FE7DF91CF9108952091F3033091F40308
:1036700028173907B9F49091B1038091B2039817D4
:1036800089F0E091B103F0E0ED54FC4F808120918E
:10369000B10330E02F5F3F4F2F7333272093B103E7
:1036A00090E008958FEF9FEF08951F93CF93DF93DE
:1036B000DC015C968D919C915D97009749F481E0C7
:1036C00090E013969C938E93129780E090E03BC01D
:1036D0005196ED91FC91529750962C915097322F24
:1036E00030951FB75E964C915E9741FB772770F936
:1036F00041FD6095F8944081772311F0422B01C081
:1037000043234083EC012197F1F748E0508160FFAB
:1037100002C0522B01C053235083EC012197F1F7D3
:103720006695415099F78081772311F0832301C07A
:10373000822B80831FBF5C968D919C915D97019732
:10374000F1F781E090E0DF91CF911F910895089506
:103750002091F3033091F4032817390781F49091F5
:10376000B1038091B203981751F0E091B103F0E0FA
:10377000ED54FC4F8081992787FD909508958FEF38
:103780009FEF08952091F3033091F4032817390730
:1037900071F48091B2032091B10390E0805C9F4F5F
:1037A000821B910960E470E00E94D630089580E0A9
:1037B00090E00895E091F303F091F403E817F9071E
:1037C00069F4A389B4899C918589809589238C9318
:1037D0001092F4031092F30381E0089580E00895BD
:1037E000CF93DF93EC018A8D9B8D892BF1F0809133
:1037F000F3039091F4038C179D07B9F0009711F033
:103800000E94DA1B8E8D8E7F8E8F1092B2031092E3
:10381000B103D093F403C093F303EB89FC89808157
:103820009D89892B808381E001C080E0DF91CF9169
:1038300008951F920F920FB60F9211242F933F936A
:103840004F935F936F937F938F939F93AF93BF93A8
:10385000EF93FF93E091F303F091F403309709F4B1
:1038600051C0868DA685B785958581FF04C08C9152
:10387000892329F447C08C91892309F043C0A38987
:10388000B4899C918589809589238C9386899789B1
:103890000197F1F7208D318DA685B785758558E0A4
:1038A00040E0C9010197F1F7842F90E09595879545
:1038B000482F6C91672309F04068515091F7868D2D
:1038C00081FD40958091B20390E001968F73992716
:1038D0002091B103281749F0A091B203B0E0AD5494
:1038E000BC4F4C938093B20303C0868D8160868F5A
:1038F000828D938D0197F1F7A389B4898C91958975
:10390000892B8C93FF91EF91BF91AF919F918F91F4
:103910007F916F915F914F913F912F910F900FBECB
:103920000F901F90189527E432E0FC01318320832B
:103930000C94DA1B1F93CF93DF93EC01162F6E8D3F
:103940006695617081E06827812F0E942A2761E0D7
:10395000812F0E94F126812F90E0FC01E55FF04F5E
:10396000E491E88BFC01E15EF04FE491F0E0EE0FB2
:10397000FF1FE35CF04F859194919A8B898BDF91C7
:10398000CF911F9108951F93CF93DF93EC01162FD2
:1039900060E0812F0E94F1268E8D81FD04C061E0E0
:1039A000812F0E942A271C87812F90E0FC01E55F70
:1039B000F04FE491ED87FC01E15EF04FE491F0E01F
:1039C000EE0FFF1FED5CF04F859194919F878E87DE
:1039D000DF91CF911F910895FF920F931F93CF9383
:1039E000DF93EC01F62E522F1B821A8208EE13E0B1
:1039F00020E030E00C831D832E833F8387E492E038
:103A0000998388831F8A1E8A198E188E1B8E1A8EA0
:103A10001D8E1C8E8E8D8E7F50FB81F98E8F642FB4
:103A2000CE010E949A1C6F2DCE01DF91CF911F9184
:103A30000F91FF900C94C31CCF93DF93EC019A017C
:103A4000AB011B8E1A8E198E188E1F8A1E8A60E09B
:103A500079E08DE390E00E940C31C90124303105FA
:103A600020F0B9016350710902C061E070E07D8F00
:103A70006C8FEC85E63108F068C0B90176956795E2
:103A80006431710518F06351710902C061E070E0A2
:103A90007F8B6E8B069718F0C901059702C081E0F5
:103AA00090E0998F888FC901880F991F820F931F0B
:103AB00096958795969587958D30910510F00C9782
:103AC00002C081E090E09B8F8A8F20916800E830EF
:103AD00050F091E0EE3008F490E081E001C0880FF2
:103AE0009A95EAF701C084E0822B809368002C85C8
:103AF000283038F02E3040F0263148F48CE690E043
:103B000008C08DE690E005C08BE690E002C080E042
:103B100090E09C8B8B8B283030F481E001C0880FC3
:103B20002A95EAF70DC0822F90E02E3010F4089706
:103B300001C00E9791E001C0990F8A95EAF7892F8D
:103B40008D8B8C8D9D8D0197F1F7CE01DF91CF91FB
:103B50000C94F01B0C94DA1BFF920F931F93CF93DE
:103B6000DF93EC01F22E798368838B01000F111F24
:103B7000060F171F1B830A834C831D822B871C860D
:103B80001D861E861F8650E0FA01E15EF04FE4912B
:103B9000F0E0EE0FFF1FE35CF04F85919491998B5D
:103BA000888BFA01E55FF04F44914A8BC8010E946F
:103BB00052319F838E83009729F0A80160E070E066
:103BC0000E94A133F0FE04C081E0888719860BC0F3
:103BD000F2FE06C081E0888782E089871A8605C0E8
:103BE000188681E0898782E08A87DF91CF911F91D3
:103BF0000F91FF900895CF93DF93EC018E819F8109
:103C0000009711F00E94EA3160E08C81DF91CF9142
:103C10000C94F126CF93DF93EC0161E08C810E943C
:103C2000F12660E08C81DF91CF910C942A27CF920E
:103C3000DF92EF92FF920F931F93CF93DF93CDB755
:103C4000DEB729970FB6F894DEBF0FBECDBF8C014B
:103C5000DC0116968D919C911797892B09F49BC0D6
:103C60000E942526F801C484D584E684F7846C1963
:103C70007D098E099F09623371058105910580F3E5
:103C8000F894828193819A838983A681B7817D018B
:103C9000EFEFEE1AFE0A8C918987D8011B969C9152
:103CA0001B9750960D90BC91A02DF801828991FF31
:103CB0002EC09C91982B98879C91809589238F8307
:103CC0008F818E8388E08D8358856F8149853D8102
:103CD0002E8189819A81F7015C9347FD252F3A95C2
:103CE0002C93262F39F0441F00C000006C93000075
:103CF00000C0F2CF38E041916C930000019761F76A
:103D0000F801B18BA08B49873D832E8338C09C91ED
:103D1000982B98879C91809589238F838F818C83A2
:103D200088E08B8358856F8149853B812C8189810F
:103D30009A81F7015C9347FD252F00C000C02C93AA
:103D400000C000C000C000C000C06C930000262F5F
:103D50003A9541F0441F000000C000C000C000C000
:103D600000C0E8CF38E0419100C06C9300C00197DB
:103D700009F7F801B18BA08B49873B832C839A8389
:103D8000898378940E942526D8011C966D937D9393
:103D90008D939C931F9729960FB6F894DEBF0FBEA4
:103DA000CDBFDF91CF911F910F91FF90EF90DF90EA
:103DB000CF900895CF92DF92EF92FF920F931F93CF
:103DC000CF93DF93FC01808191816817790788F593
:103DD000CA01AA27BB27082FC32ED42EE52EFF2405
:103DE0001C2DD22FC581CC2361F08C9FC0011124E2
:103DF000092FCC9E600111241D2D2C9F90011124B0
:103E0000D32F9B01220F331F260F371F86819781E7
:103E1000820F931F2085DC01A20FB11D0C93218519
:103E2000DC01A20FB11D1C932285FC01E20FF11DE4
:103E3000D083DF91CF911F910F91FF90EF90DF9092
:103E4000CF900895962F50E060E070E0592B682BDA
:103E5000CB01BA010895FF920F931F93CF93DF9385
:103E6000EC01FF24F394F60E2D81F21679F10E8108
:103E70001F812150B9F06F3F59F430E040E050E02D
:103E80006FEF7FEF80E090E00E940C31B9010CC031
:103E90008F2D90E0982F88270197622F70E00E9465
:103EA000C23002C060E070E0F8018A819B81AF01FE
:103EB000401B510B4817590740F44081469FC001F1
:103EC000479F900D11249193F0CFFD82DF91CF9108
:103ED0001F910F91FF9008950F93FC0113AE14AE44
:103EE00015AE04960E9459240F9108950F93FC017A
:103EF0000150040F84A996A9941718F0081728F404
:103F000002C0081750F0041740F42150260F83A96F
:103F100095A9961720F4281720F480E007C02817E9
:103F200020F481E0261710F0F8CF81E00F9108957A
:103F3000DB011496ED91FC91159720E030E061E0F3
:103F40000994DB011496ED91FC91159720E030E087
:103F500063E00994DB011496ED91FC91159720E044
:103F600030E040E064E00994DB011496ED91FC91AF
:103F7000159720E030E041E064E00994DB011496FD
:103F8000ED91FC91159720E030E062E00994DB01AF
:103F90001496ED91FC91159720E030E065E00994CE
:103FA000DB011496ED91FC91159766E00994AF92B0
:103FB000BF92CF92DF92EF92FF920F931F93CF9316
:103FC000DF931F92CDB7DEB75C018B017A0180E0F1
:103FD000F7014491811109C04F3FD9F1B801C501E2
:103FE0000E94C71F81112EC039C04F3FB9F34E3F09
:103FF000B9F1403F38F5403E30F04F70B801C5018F
:104000000E94BE1F1FC0403D30F04F70B801C50177
:104010000E94A11F17C0403CB8F0B801C5014983F8
:104020000E94AA1F49814295407F4E5FC42ED12C29
:10403000C6010E94EA20B801C5010E94B41FC60152
:104040000E94EA2080E006C047FDFCCF842F90E06C
:10405000F7CF81E0FFEFEF1AFF0ABACF80E001C08F
:1040600081E00F90DF91CF911F910F91FF90EF9022
:10407000DF90CF90BF90AF900895860F911DFC0107
:1040800083A18F3F19F0642F0C942A270895EF9293
:10409000FF920F931F93CF93DF937C01C0E0D0E09A
:1040A00087010C0F1D1FF80183A18F3F41F061E0D4
:1040B0000E94F12661E0F80183A10E942A2721963F
:1040C000CD30D10569F7DF91CF911F910F91FF900E
:1040D000EF9008958EBD0DB407FEFDCF8EB5089507
:1040E000CF92DF92EF92FF920F931F93CF93DF93C4
:1040F0001F92CDB7DEB76C017901062F10E0F801F1
:104100003197E730F10508F05AC0EC5CFF4F0C9492
:104110002B3149830E94472061E08DE00E94F12607
:1041200060E08DE00E942A2761E08BE00E94F1268A
:1041300060E08BE00E942A2761E08AE00E94F1267D
:1041400061E08AE00E942A271CBC80E58CBD498181
:104150004230A8F581E08DBD32C061E004C041115C
:1041600006C041E062E0C6010E943D2028C040E058
:1041700064E00E943D2040E0F5CFFC0183A18F3F29
:10418000F1F060E0F0CF842F0E946A2018C0442331
:10419000B1F0F70181917F0149830E946A20498132
:1041A0004150F5CF442359F0F701849149830E948F
:1041B0006A20FFEFEF1AFF0A49814150F3CF81E0F7
:1041C0000F90DF91CF911F910F91FF90EF90DF90B3
:1041D000CF9008952EE93FE0009729F0F90131973B
:1041E000F1F70197F9CF0895BF92CF92DF92EF9246
:1041F000FF920F931F93CF93DF938C01EB01B42EAB
:10420000790180E1481709F454C0841700F1EAE00D
:104210004E1721F1FFE04F1357C041E0C8010E9443
:10422000A11F40E0BE01C8010E94BE1F41E8BE01BF
:10423000C8010E94C71FF7014081BE01C8010E944A
:10424000C71F40E0BE01C8010E94A11F3BC081E121
:10425000481791F1E5E14E1761F036C042E0C80120
:104260000E94981F40E853E0BE01C8010E94D71F7A
:104270002BC0CA80DB8048E753E0C8010E94D71FEB
:10428000F6014481406BBE01C8010E94C71F41E096
:10429000BE01C8010E94BE1FAE01B801C6010E9446
:1042A0000D25882301F140E0BE01C8010E94A11F35
:1042B0000BC04FE653E002C044E653E0BE01C80124
:1042C0000E94D71F81E010C097014B2DBE01C8018D
:1042D000DF91CF911F910F91FF90EF90DF90CF90E2
:1042E000BF900C94852580E0DF91CF911F910F91B5
:1042F000FF90EF90DF90CF90BF900895FC01E60F04
:10430000F11D849190E0982F88273196E4918E0FCB
:10431000911D0895FC01849108950E948A218823AB
:1043200011F0823011F486E0089583E0089580E072
:10433000089566E00C947E2168E00C947E210A9634
:10434000FC01849108950B96FC0184910895BF921D
:10435000CF92DF92EF92FF920F931F93CF93DF9351
:10436000EC01E62E0C811D81C8010E948A21F82EE5
:104370008C819D810E948D21B82E21E0F21619F0CA
:10438000CC24CA9402C05FE0C52E8C819D810E941E
:104390009F21F82E8C819D810E94A321D82E8C8193
:1043A0009D810E949C21E0E6EE1538F4009729F0EB
:1043B000080F191F41E6F42E10C08C819D810E94C8
:1043C0009921F0E4FE1538F4009729F0080F191F21
:1043D00031E4F32E02C00F5E1F4FDE1440F4188A42
:1043E0001B8A1C8A198A1A8A80E090E050C0DF1468
:1043F000B0F32B2D30E0F80184918F3F19F40F5F5B
:104400001F4F40C0FE1036C08C819D810E948A21C2
:1044100098012F5F3F4FF801882311F0823091F40B
:1044200084918B8BF90124912C8BF8013396E491C4
:10443000E88BF8013496E491E98BF8013596E49124
:10444000EA8B16C09491892F8F7082508A8B929537
:104450009F70998BF9012491822F8F708C8B2295FC
:104460002F702B8BF8013296E491E295EF70E88B78
:10447000C8010DC0F8013296E491EC210E0F111D18
:10448000020F131FFD1409F4AACFF394B4CFDF91E8
:10449000CF911F910F91FF90EF90DF90CF90BF9041
:1044A00008954F925F927F928F929F92AF92BF92A8
:1044B000CF92DF92EF92FF920F931F93CF93DF93F0
:1044C0001F92CDB7DEB72C01162F742E622F0E94DB
:1044D000A7216C01009709F43EC0F2018481958107
:1044E0000E948D21F82EF201838804899188910E13
:1044F0008289781A172D101B282D412F692DC20192
:104500000E94761F882321F1CF0CD11CF7E08F0E7B
:10451000869486948694A82CB12C1715C9F0392D51
:1045200076018E2D8C19881578F4F701049120E01E
:10453000412F632FC20139830E949724FFEFEF1AA6
:10454000FF0A3981385FEDCFCA0CDB1C1F5FE5CF56
:10455000F201808901C080E00F90DF91CF911F911F
:104560000F91FF90EF90DF90CF90BF90AF909F9012
:104570008F907F905F904F9008950F931F93CF93EC
:10458000DF9300D01F92CDB7DEB78C01DC015596CA
:10459000ED91FC9156972B834A83698309954A8153
:1045A000480F2B816981C8010F900F900F90DF9108
:1045B000CF911F910F910C945122DC0114968D9193
:1045C0009C911597009709F43FC057962C915797E7
:1045D000FC01211108C03596E4915896EC93589748
:1045E000FC013C9611C0213041F43F96E49158966D
:1045F000EC935897FC01709607C03D96E49158964D
:10460000EC935897FC013E96849159968C93599758
:1046100058968C915897992787FD909559962C918B
:104620005997821B910927FD93955A962C915A9779
:10463000203441F0829FC0011124E6E096958795D1
:10464000EA95E1F75B968C93089527E931E2FC0146
:10465000368B258B0895CF93DF93EC018C819D8160
:104660008617970749F07D836C83CE010E94DD2277
:1046700087E991E29E8B8D8BDF91CF9108951F93F7
:10468000CF93DF93EC011D821C821F821E8219864C
:1046900081E0888782E28A871F861E8680E090E01C
:1046A0002FEFFE01E80FF91F23A301968E3091052D
:1046B000C1F711E018A3CE010E9425231F8B188E8D
:1046C000198E80E48A8F1B8E8EEC95E29AAB89ABB3
:1046D000DF91CF911F910895DB01ED91FC91099439
:1046E000EF92FF921F93CF93DF9300D0CDB7DEB749
:1046F0007C01DC01D196ED91FC91D29782E0698337
:104700007A83099520E030E04AE069817A81C70127
:104710000E946C23182FD701D196ED91FC91D2976E
:1047200083E00995D701D196ED91FC91D29780E075
:104730000995812F0F900F90DF91CF911F91FF90DE
:10474000EF9008950F931F93CF93DF93EC018B01AC
:10475000E9A9FAA982E00995E9A9FAA981E00995F0
:1047600020E030E044E1B801CE010E946C239E01BC
:104770002D5C3F4F47E1B801CE010E946C23E9A9AF
:10478000FAA980E0DF91CF911F910F910994FF92D8
:104790000F931F93CF93DF93EC018B01E9A9FAA943
:1047A00082E00995E9A9FAA981E0099520E030E0C5
:1047B00045E1B801CE010E946C23F82E882341F018
:1047C0009E012D5C3F4F47E1B801CE010E946C2352
:1047D000E9A9FAA980E009958F2DDF91CF911F916A
:1047E0000F91FF900895CF93DF931F92CDB7DEB75F
:1047F00049839E012F5F3F4F4FE00E946C230F9033
:10480000DF91CF910895CF93DF931F92CDB7DEB79D
:104810009E012F5F3F4F46E40E946C2389810F90D9
:10482000DF91CF910895CF93DF931F92CDB7DEB77D
:104830009E012F5F3F4F47E40E946C2389810F90B8
:10484000DF91CF91089520E030E048E40C946C2390
:10485000CF93DF93EC016A817B810E9403248883DC
:104860006A817B81CE010E94132489836A817B81C6
:10487000CE010E9423248B879E012D5C3F4F6A81CD
:104880007B8147E1CE01DF91CF910C946C23CF93D4
:10489000DF93EC016A817B810E947023882329F0D9
:1048A000CE010E94282481E001C080E0DF91CF91F9
:1048B0000895CF92DF92EF92FF920F93CF93DF9301
:1048C00000D0CDB7DEB76C017B012A8349830E94FB
:1048D0003F23F601F382E282498145A32A8124A382
:1048E00003A3C6010F900F90DF91CF910F91FF901E
:1048F000EF90DF90CF900C944724FC01628173818C
:104900000C94A223CF93DF93EC01EE85FF853097C3
:1049100009F009956A817B81CE01DF91CF910C94DA
:10492000C723462FFC01628173810C94F3230F93FC
:10493000FC0182819381648F458F278F068F9F01B1
:10494000245E3F4F4BE3BC01CF010F910C946C23CD
:10495000FC0160A30895FC01128280818150838351
:1049600014820895FC0120818281820F82839181CB
:10497000891760F484818F5F84838381820F891714
:1049800010F08FEF890F838381E0089580E0089510
:10499000DC011696ED91FC91179715968C919F016D
:1049A000280F311DC9011192E817F907E1F70895A1
:1049B000FC0191E08381861708F490E021E046171E
:1049C00008F020E0322F392B81E05281451708F49E
:1049D00080E083239223892B0895DC01FB01108260
:1049E00012968C911297818315968C911597815010
:1049F000828313968C9183830895FB0141812381E7
:104A0000213029F0233031F468EF640F04C0642FA3
:104A1000485F01C0642F0C94D824FC01CB01BA017B
:104A20002681378145810C94D01FDC011696ED91CB
:104A3000FC91179712968C91481B477081E090E08B
:104A4000042E01C0880F0A94EAF7E60FF11D3081A9
:104A5000222311F0832B02C0809583238083089545
:104A6000FB014181DC0112962C911297421768F0EC
:104A700013962C911397241740F0608115962C9172
:104A8000621718F424810C9415250895CF92DF92B3
:104A9000FF920F931F93CF93DF9300D0CDB7DEB774
:104AA0008C016B01FB01F2808381813039F070F061
:104AB000823039F0833041F020E001C021E030E065
:104AC00007C020E03FEF04C02FEFF9CF20E031E036
:104AD000F7FE08C0B601C80129833A830E94302539
:104AE0003A812981F6018081830F80838181820F41
:104AF0008183FF0C69F70F900F90DF91CF911F9189
:104B00000F91FF90DF90CF9008950F931F93CF9355
:104B1000DF938901FB01C281D3814233F9F068F44C
:104B2000453109F1473141F1443181F5CE010E940F
:104B3000C824CE010E94AB2429C0463411F1473469
:104B400011F14B3319F5B901CE010E94FD248823E0
:104B5000E9F0B801CE010E94462518C0B901CE0186
:104B60000E94302513C0CE010E94B224882381F018
:104B7000CE010E94C8240AC0B901CE010E94ED24D2
:104B800005C08D8101C08981F801808381E001C069
:104B900080E0DF91CF911F910F91089508951F92AA
:104BA0000F920FB60F9211242F933F938F939F93E1
:104BB000AF93BF938091760490917704A09178048D
:104BC000B09179043091750423E0230F2D3720F440
:104BD0000196A11DB11D05C026E8230F0296A11D57
:104BE000B11D209375048093760490937704A0936D
:104BF0007804B093790480917A0490917B04A09119
:104C00007C04B0917D040196A11DB11D80937A04AE
:104C100090937B04A0937C04B0937D04BF91AF91EB
:104C20009F918F913F912F910F900FBE0F901F90EA
:104C300018952FB7F894609176047091770480915D
:104C40007804909179042FBF08953FB7F89480912C
:104C50007A0490917B04A0917C04B0917D0426B5E8
:104C6000A89B05C02F3F19F00196A11DB11D3FBFA4
:104C70006627782F892F9A2F620F711D811D911D34
:104C800042E0660F771F881F991F4A95D1F7089554
:104C9000CF92DF92EF92FF92CF93DF936B017C0173
:104CA0000E942526EB01C114D104E104F10489F02E
:104CB0000E94272D0E9425266C1B7D0B683E7340A9
:104CC00090F381E0C81AD108E108F108C851DC4F1F
:104CD000EACFDF91CF91FF90EF90DF90CF900895D2
:104CE000789484B5826084BD84B5816084BD85B5C7
:104CF000826085BD85B5816085BDEEE6F0E080818E
:104D000081608083E1E8F0E01082808182608083AE
:104D1000808181608083E0E8F0E080818160808331
:104D2000E1EBF0E0808184608083E0EBF0E0808163
:104D300081608083EAE7F0E0808184608083808105
:104D400082608083808181608083808180688083AD
:104D50001092C10008958E3008F08E508770209117
:104D60002A0190E4299F90011124822B80937C00DA
:104D700080917A00806480937A0080917A0086FD29
:104D8000FCCF809178002091790090E0922B0895DB
:104D9000833081F028F4813099F08230A1F00895B9
:104DA0008730A9F08830B9F08430D1F48091800048
:104DB0008F7D03C0809180008F778093800008955D
:104DC00084B58F7702C084B58F7D84BD08958091AE
:104DD000B0008F7703C08091B0008F7D8093B000CA
:104DE0000895CF93DF9390E0FC01E55FF04F2491AD
:104DF000FC01E15EF04F8491882349F190E0880F37
:104E0000991FFC01E95BF04FA591B491835C904F31
:104E1000FC01C591D4919FB7611108C0F8948C91A1
:104E2000209582238C93888182230AC0623051F4BA
:104E3000F8948C91322F309583238C938881822B28
:104E4000888304C0F8948C91822B8C939FBFDF9150
:104E5000CF9108950F931F93CF93DF931F92CDB7F8
:104E6000DEB7282F30E0F901E950F14F8491F901C4
:104E7000E55FF04F1491F901E15EF04F04910023DA
:104E8000C9F0882321F069830E94C8266981E02F38
:104E9000F0E0EE0FFF1FE35CF04FA591B4919FB7D8
:104EA000F8948C91611103C01095812301C0812B6E
:104EB0008C939FBF0F90DF91CF911F910F91089519
:104EC000FC01818D228D90E0805C9F4F821B9109B7
:104ED0008F7399270895FC01918D828D981731F079
:104EE000828DE80FF11D858D90E008958FEF9FEF83
:104EF0000895FC01918D828D981761F0828DDF01FC
:104F0000A80FB11D5D968C91928D9F5F9F73928FBC
:104F100090E008958FEF9FEF08958DEF98E2892B31
:104F200049F080E090E0892B29F00E94FD28811152
:104F30000C9400000895FC01848DDF01A80FB11DC1
:104F4000A35ABF4F2C91848D90E001968F739927BF
:104F5000848FA689B7892C93A089B1898C918064AC
:104F60008C93938D848D981306C00288F389E02D6D
:104F700080818F7D80830895CF93DF93EC01888DAE
:104F80008823C9F0EA89FB89808185FD05C0A8894D
:104F9000B9898C9186FD0FC00FB607FCF5CF8081D3
:104FA00085FFF2CFA889B9898C9185FFEDCFCE011D
:104FB0000E949B27E7CFDF91CF910895CF92DF9298
:104FC000FF920F931F93CF93DF931F92CDB7DEB75E
:104FD0006C0181E0D60158968C9358975B969C9112
:104FE0005B975C968C915C97981307C05096ED91F7
:104FF000FC915197808185FD2EC0F601038D10E054
:105000000F5F1F4F0F731127F02EF601848DF812DA
:1050100011C00FB607FCF9CFD6015096ED91FC9167
:105020005197808185FFF1CFC60169830E949B273C
:105030006981EBCF838DE80FF11DE35AFF4F608349
:10504000D6015B960C935B975296ED91FC9153972A
:10505000808180620CC0D6015696ED91FC915797E5
:1050600060835096ED91FC9151978081806480839C
:1050700081E090E00F90DF91CF911F910F91FF9011
:10508000DF90CF900895BF92CF92DF92EF92FF9280
:10509000CF93DF93EC016A017B01B22EE889F98995
:1050A00082E08083411581EE580761057105A1F00A
:1050B00060E079E08DE390E0A70196010E94EA307C
:1050C0002150310941095109569547953795279542
:1050D000211580E1380798F0E889F989108260E8A5
:1050E00074E88EE190E0A70196010E94EA30215019
:1050F0003109410951095695479537952795EC8512
:10510000FD853083EE85FF852083188EEC89FD892F
:10511000B082EA89FB89808180618083EA89FB898A
:10512000808188608083EA89FB89808180688083B0
:10513000EA89FB8980818F7D8083DF91CF91FF9009
:10514000EF90DF90CF90BF9008951F920F920FB60F
:105150000F9211242F938F939F93EF93FF93E091DE
:105160008E04F0918F048081E0919404F091950475
:1051700082FD12C09081809197048F5F8F73209180
:105180009804821751F0E0919704F0E0E258FB4F49
:10519000958F8093970401C08081FF91EF919F913B
:1051A0008F912F910F900FBE0F901F9018951F9207
:1051B0000F920FB60F9211242F933F934F935F934B
:1051C0006F937F938F939F93AF93BF93EF93FF93CF
:1051D0008EE794E00E949B27FF91EF91BF91AF91E2
:1051E0009F918F917F916F915F914F913F912F91FF
:1051F0000F900FBE0F901F9018958EE794E00E94BD
:10520000602721E0892B09F420E0822F0895109275
:1052100081041092800488EE93E0A0E0B0E08093D7
:10522000820490938304A0938404B093850487E55B
:1052300092E090937F0480937E0485EC90E09093BD
:105240008B0480938A0484EC90E090938D04809387
:105250008C0480EC90E090938F0480938E0481EC1A
:1052600090E0909391048093900482EC90E090936E
:1052700093048093920486EC90E09093950480933D
:10528000940410929704109298041092990410922A
:105290009A04089508950E9470260E944A290E9447
:1052A000280FCDE8D7E20E944B1A2097E1F30E9425
:1052B0008D27F9CFCF92DF92EF92FF920F931F933A
:1052C000CF93DF936C017A01EB01E60EF71E00E04D
:1052D00010E0CE15DF0561F06991D601ED91FC91EA
:1052E0000190F081E02DC6010995080F191FF1CF3B
:1052F000C801DF91CF911F910F91FF90EF90DF9048
:10530000CF9008956115710581F0DB010D900020AB
:10531000E9F7AD0141505109461B570BDC01ED91F6
:10532000FC910280F381E02D099480E090E00895E3
:10533000EF92FF920F931F93CF93DF938C01FB01AA
:10534000C0E0D0E064917F018FEFE81AF80A66238D
:1053500061F0D801ED91FC910190F081E02DC80140
:105360000995C80FD91FF701EDCFCE01DF91CF917D
:105370001F910F91FF90EF9008950C948229DC010A
:10538000ED91FC910190F081E02D099463E672E0CB
:105390000C9482298F929F92AF92BF92CF92DF920C
:1053A000EF92FF920F931F93CF93DF93CDB7DEB7AA
:1053B000A1970FB6F894DEBF0FBECDBF7C01C42EFF
:1053C000E52FCB01D22E19A221E02D1510F02AE0F5
:1053D000D22E8E010F5D1F4F8D2C912CA12CB12C44
:1053E0006C2D7E2FA50194010E94EA308C2DD29E57
:1053F00080191124015011098A3014F4805D01C014
:10540000895CF8018083211531054105510521F0A2
:10541000C22EE32FCA01E4CFB801C7010E9482293E
:10542000A1960FB6F894DEBF0FBECDBFDF91CF912E
:105430001F910F91FF90EF90DF90CF90BF90AF90B2
:105440009F908F900895CF92DF92EF92FF920F93EB
:105450001F93CF93DF93EC016A017B012115310586
:1054600079F4E881F9810190F081E02D642FDF91DA
:10547000CF911F910F91FF90EF90DF90CF90099403
:105480002A303105E9F477FF1AC06DE20E94BF2986
:105490008C0144275527BA014C195D096E097F0913
:1054A0002AE0CE010E94CA29800F911FDF91CF917F
:1054B0001F910F91FF90EF90DF90CF9008952AE019
:1054C000B701A601CE01DF91CF911F910F91FF90FF
:1054D000EF90DF90CF900C94CA299A01AB01662718
:1054E00057FD6095762F0C94232A2115310541F440
:1054F000DC01ED91FC910190F081E02D642F099485
:105500000C94CA299A01462F50E060E070E00C9498
:10551000752A9A01AB0160E070E00C94752A4F92F5
:105520005F926F927F928F929F92AF92BF92CF9233
:10553000DF92EF92FF920F931F93CF93DF93EC01D3
:105540006A017B01B22E9A01AB01C701B6010E942C
:10555000DA2F882319F066E672E027C026013701AA
:10556000E89477F82FEF3FEF4FE75FE7C301B20111
:105570000E94DA2F81110DC02FEF3FEF4FE75FE759
:10558000C301B2010E948D2D18161CF46AE672E068
:105590000CC02FEF3FEF4FE75FE4C701B6010E9459
:1055A000DC2E1816ACF46EE672E0CE01DF91CF91DE
:1055B0001F910F91FF90EF90DF90CF90BF90AF9031
:1055C0009F908F907F906F905F904F900C94822966
:1055D0002FEF3FEF4FE75FECC701B6010E948D2D23
:1055E00087FDE1CF20E030E0A901C701B6010E94AC
:1055F0008D2D87FF0AC06DE2CE010E94BF298C016C
:10560000F7FAF094F7F8F09402C000E010E0A12C53
:1056100060E070E080E09FE3AB1441F020E030E018
:1056200040E251E40E94912DA394F6CF9B01AC017E
:10563000C701B6010E94292D6B017C010E94FE2D3D
:105640002B013C010E942A2E9B01AC01C701B6012F
:105650000E94282D6B017C012AE0B301A201CE013A
:105660000E94CA29080F191FBB2039F062E772E0B7
:10567000CE010E948229080F191F7B2C772041F14F
:1056800020E030E040E251E4C701B6010E942B2F38
:105690006B017C010E94F92D4B01AA2497FCA09478
:1056A000BA2C2AE030E0B501A401CE010E94232AE1
:1056B000080F191FC501B4010E942C2E9B01AC01DB
:1056C000C701B6010E94282D6B017C017A94D6CFC8
:1056D000C801DF91CF911F910F91FF90EF90DF9064
:1056E000CF90BF90AF909F908F907F906F905F9082
:1056F0004F9008950C948F2A4F925F926F927F92F1
:10570000AF92BF92CF92DF92EF92FF920F931F93CF
:10571000CF93DF93CDB7DEB729013A01621B730B3C
:10572000840B950B29893A894B895C892A193B0995
:105730004C095D09298B3A8B4B8B5C8B9B01AC012F
:1057400069897A898B899C890E94B230E418F508AE
:1057500006091709A80197010E940C312A0D3B1D6B
:105760004C1D5D1DCA01B901DF91CF911F910F91B1
:10577000FF90EF90DF90CF90BF90AF907F906F90B1
:105780005F904F900895FC01808191810C94EA31E3
:10579000CF93DF93EC0188819981009711F00E94EB
:1057A000EA31198218821D821C821B821A82DF91C3
:1057B000CF9108950F931F93CF93DF93EC018B014B
:1057C0006F5F7F4F888199810E947932009731F015
:1057D000998388831B830A8381E001C080E0DF9185
:1057E000CF911F910F910895CF93DF93EC018881A2
:1057F0009981892B29F08A819B818617970760F40C
:10580000CE010E94DA2B882341F08C819D81892B67
:1058100019F4E881F981108281E0DF91CF91089538
:10582000EF92FF920F931F93CF93DF93EC017B01D5
:105830008A01BA010E94F42B811104C0CE010E949A
:10584000C82B07C01D830C83B701888199810E94F2
:10585000A833CE01DF91CF911F910F91FF90EF9070
:105860000895FC0111821082138212821582148223
:105870006115710559F0FB0101900020E9F7AF01B6
:1058800041505109461B570B0C94102C0895EF9270
:10589000FF920F931F93CF93DF93EC017B018A015B
:1058A000BA010E94F42B811104C0CE010E94C82BC2
:1058B00007C01D830C83B701888199810E948833BA
:1058C000CE01DF91CF911F910F91FF90EF9008953E
:1058D000CF93DF93EC016115710561F0FB0101903D
:1058E0000020E9F7AF0141505109461B570B0E94B8
:1058F000102C02C00E94C82BCE01DF91CF910895D9
:105900000F931F93CF93DF9300D0CDB7DEB78C01F9
:105910006115710561F0CB0169837A830E948F3331
:10592000AC0169817A81C8010E94472C02C00E94A3
:10593000C82BC8010F900F90DF91CF911F910F914D
:105940000895FC0111821082138212821582148242
:105950000C94802CEF92FF920F931F93CF93DF93C1
:10596000EC017B010C811D816115710511F480E052
:1059700016C04115510591F0040F151FB8010E9482
:10598000F42B8823A1F3288139818C819D81B70173
:10599000820F931F0E94A8331D830C8381E0DF9147
:1059A000CF911F910F91FF90EF900895CF93DF93C8
:1059B00000D0CDB7DEB769831A8241E050E0BE0166
:1059C0006F5F7F4F0E94AA2C0F900F90DF91CF91B5
:1059D0000895FA01DB0114964D915C911597DC0155
:1059E00014962D913C911597241B350B2E173F07CC
:1059F00088F08D919C91009769F0DB016D917C910D
:105A00006115710539F08E0F9F1F0E94AF3321E0A1
:105A1000892B09F020E0822F0895FC0144815581F3
:105A2000FB01248135814217530720F040E050E00C
:105A30000C94E92C80E00895FC018081918100970D
:105A400011F00C94613360E070E0CB01089508958B
:105A50005058BB27AA270ED075C166D130F06BD144
:105A600020F031F49F3F11F41EF45BC10EF4E09579
:105A7000E7FB51C1E92F77D180F3BA1762077307AB
:105A80008407950718F071F49EF58FC10EF4E09528
:105A90000B2EBA2FA02D0B01B90190010C01CA01E8
:105AA000A0011124FF27591B99F0593F50F4503E93
:105AB00068F11A16F040A22F232F342F4427585F85
:105AC000F3CF469537952795A795F0405395C9F79D
:105AD0007EF41F16BA0B620B730B840BBAF0915055
