:100000000C94C6070C94EE070C94EE070C94151C88
:100010000C94151C0C94151C0C94EE070C94322EA9
:100020000C94EE070C94EE070C94EE070C94EE077C
:100030000C94EE070C94EE070C94EE070C94EE076C
:100040000C943F260C94EE070C9415290C94472928
:100050000C94EE070C94EE070C94EE070C94EE074C
:100060000C94EE070C94EE07F9201D211F212D2181
:1000700033213721422108000000BE922449123E5C
:10008000ABAAAA2ABECDCCCC4C3E00000080BEABB1
:10009000AAAAAA3E00000000BF000000803F0000A6
:1000A000000000084178D3BB4387D1133D190E3CB3
:1000B000C3BD4282AD2B3E68EC8276BED98FE1A9EA
:1000C0003E4C80EFFFBE01C4FF7F3F0000000000F8
:1000D00007634236B79BD8A71A39685618AEBAAB31
:1000E000558C1D3CB7CC5763BD6DEDFD753EF617C5
:1000F0007231BF000000803F0A52657374617274F0
:10010000696E672E2E2E0A00736563005761726D4B
:1001100075702E2E2E004272696768746E65737357
:1001200020203A00436F756C64206E6F7420636FFB
:100130006E6E65637420746F20576966693A20009B
:1001400057696669206D6F64756C65206E6F7420E9
:10015000776F726B696E6700436F6E6E656374696B
:100160006E6720746F20576966692E2E2E004465D5
:1001700062756720496E666F2069733A20005748A0
:1001800049544500426F7820636F6C6F722073652D
:100190007420746F3A20000A436F6E666967757247
:1001A0006174696F6E2072657365742E2E2E0A005D
:1001B000446F6E650A004E65772042726967687405
:1001C0006E6573732076616C75653A20003E00623F
:1001D00065657000736170200070706D0070726FE3
:1001E0007879006F74610073696D006772617900DE
:1001F0006272670074657374007562697600756277
:10020000696B0074736B6579007265736574006463
:1002100065627567006C7400776966690065737064
:100220004F74613A2065786974006F00696E697473
:10023000206661696C6564004F544120537461729B
:1002400074005453205245533A200041542B4349E3
:100250005053454E443D0041542B43495053544163
:1002600052543D22544350222C220035302E32333A
:100270002E3132342E3636003138342E3130362E8F
:100280003135332E31343900222C3830005341506F
:100290003A200053656E64205341503A005542495C
:1002A0003A20005542493A005453204B45593A00F0
:1002B000464F554E440A005374617274696E67204C
:1002C00057696669204D6F64756C652E2E2E0A0085
:1002D0004553502050726F78790A0057494649209B
:1002E0004F4B210A0041542B43574155544F434F24
:1002F0004E4E3D310A0041542B43574A41505F4412
:1003000045463D0041540A0041542B43574D4F444C
:10031000455F4445463D310A007350503A00686FCE
:10032000753A0074656D3A00704D763A00634D760B
:100330003A006469663A00634D543A00636D763A58
:100340000056697369742027766169722D6D6F6E2E
:1003500069746F722E636F6D2720666F7220636FF2
:100360006E66696775726174696F6E206465746129
:10037000696C730A007641697220434F32204D6FD9
:100380006E69746F723A2076312E360A000A0A447A
:10039000454255470A0A00FFE0FFD1AFFF32FFD0C8
:1003A000FFFEFFE0FFD1AEFFD0FFFEFFE0FFD11068
:1003B00000FFFEFFD0FFE0FFC1FFD1AED580A83F18
:1003C000D300408D142000A1C8DA1281CFD9F1DB0F
:1003D000402EA4A6AFFFD0FFFE00060A00FE0701D4
:1003E0009E0337207FFE09FE08FE00000006000085
:1003F00001070706020080808080800080030303DD
:10040000060105A0A0A005050506000250F850F859
:10041000500509090600FF2070A8A07028A87020C8
:1004200005070706000078A8B05068A890050707E0
:100430000600006090A040A8906801030306020532
:100440008080800309090601FF2040808080808031
:1004500040200309090601FF804020202020204081
:100460008005050506000220A870A82005050506E0
:1004700000012020F820200204040601FEC0C04034
:1004800080030101060103E0020202060200C0C06F
:10049000050A0A0600FE080810102020404080804F
:1004A000050707060000708898A8C8887005070728
:1004B00006000020E020202020F8050707060000A5
:1004C000708808102040F8050707060000708808AB
:1004D0003008887005070706000010305090F810AB
:1004E00038050707060000F880F00808887005073F
:1004F000070600007080F0888888700507070600EE
:1005000000F8080810202020050707060000708862
:1005100088708888700507070600007088888878CA
:100520000870020505060200C0C000C0C00207072F
:100530000601FEC0C000C0C04080040707060100DD
:1005400010204080402010050303060002F800F848
:10055000040707060100804020102040800507079F
:10056000060000708808102000200507070600001C
:100570007088B8A8B880780507070600002050509A
:1005800088F88888050707060000F08888F08888C2
:10059000F0050707060000708880808088700507D6
:1005A00007060000F08888888888F005070706009D
:1005B00000F88080F08080F8050707060000F880CA
:1005C00080F080808005070706000070888098888A
:1005D0008870050707060000888888F888888805DD
:1005E0000707060000F82020202020F8050707064E
:1005F00000000808080888887005070706000088BA
:1006000090A0C0A090880507070600008080808029
:100610008080F805070706000088D8A8A888888881
:1006200005070706000088C8A89888888805070776
:100630000600007088888888887005070706000013
:10064000F08888F08080800508080600FF708888A0
:100650008888A87008050707060000F08888F088D9
:100660008888050707060000708880700888700574
:100670000707060000F82020202020200507070695
:100680000000888888888888700507070600008829
:10069000888850502020050707060000888888A811
:1006A000A8D8880507070600008888502050888849
:1006B00005070706000088888850202020050707C6
:1006C000060000F80810204080F80209090602FF21
:1006D000C080808080808080C0050A0A0601FE807C
:1006E0008040402020101008080209090601FFC0C0
:1006F00040404040404040C00503030600042050F5
:10070000880601010600FEFC020202060106804086
:100710000505050600007888889868050707060023
:10072000008080F0888888F0050505060000708844
:100730008080780507070600000808788888887890
:100740000505050600007088F88078040707060193
:10075000003040E0404040400507070600FE788832
:1007600088887808700507070600008080F0888870
:1007700088880307070601004000C0404040E003AE
:1007800009090600FE2000602020202020C0050767
:1007900007060000808090A0E0908803070706010C
:1007A00000C04040404040E0050505060000F0A8BC
:1007B000A8A8A8050505060000B0C8888888050512
:1007C0000506000070888888700507070600FEF09F
:1007D000888888F080800507070600FE788888886A
:1007E000780808050505060000B0C880808005056A
:1007F0000506000078807008F00407070601004035
:1008000040E0404040300505050600008888889893
:100810006805050506000088885050200505050676
:100820000000A8A8A8A850050505060000885020CB
:1008300050880507070600FE8888888878087005B4
:100840000505060000F8102040F8030B0B0601FE1A
:1008500020404040408040404040200109090602BD
:10086000FF808080808080808080030B0B0601FEEB
:100870008040404040204040404080050202060049
:100880000368B0000000060000004841FCF32300AC
:100890000000002A3A0024FA230014123620061120
:1008A000070E001F0F801F9F800F9F00079E0003F1
:1008B000FC0081F810FEF7F0FFFFF0FFFFF0F9F900
:1008C000F001F80003FC00079E000F9F001F8F80BF
:1008D0001F0F80070E001D1D74310A000007000065
:1008E00000070000000700000007000000070000EC
:1008F00000070000000700000007000000070000DC
:1009000000070000000700000007000000070000CB
:10091000FFFFFFF8FFFFFFF8FFFFFFF800070000F1
:1009200000070000000700000007000000070000AB
:10093000000700000007000000070000000700009B
:10094000000700000007000000070000000700008B
:100950000B0C180F02FA0FE00FC01FC01F801F8082
:100960003F003F003E007E007C007C00F8000D064A
:100970000C110209FFF8FFF8FFF8FFF8FFF8FFF885
:100980000706060F0500FEFEFEFEFEFE112775158A
:1009900002FD000F80000F00001F00001F00001E5E
:1009A00000003E00003E00003E00007C00007C0095
:1009B000007C0000780000F80000F80000F0000162
:1009C000F00001F00001F00003E00003E00003E0AC
:1009D0000003C00007C00007C0000780000F8000B0
:1009E0000F80000F80001F00001F00001F00003E4E
:1009F00000003E00003E00003C00007C00007C0047
:100A0000007C0000F8000019238C1C020101FF800B
:100A10000007FFE0000FFFF0001FFFF8001FFFFCC2
:100A2000003F81FC003F00FE007F007E007E007ED4
:100A3000007E003F007E003F00FE003F00FE003FC2
:100A400000FE003F00FE003F80FE003F80FE003FB2
:100A500080FE003F80FE003F80FE003F80FE003FA2
:100A600080FE003F00FE003F00FE003F007E003F92
:100A7000007E003F007E007F007F007E003F00FE82
:100A8000003F81FC001FFFFC001FFFF8000FFFF07C
:100A90000007FFE00001FF80000F23461C05000057
:100AA000FE01FE07FE0FFE3FFEFFFEFFFEFEFEFC08
:100AB000FEF0FEC0FE00FE00FE00FE00FE00FE0096
:100AC000FE00FE00FE00FE00FE00FE00FE00FE0036
:100AD000FE00FE00FE00FE00FE00FE00FE00FE0026
:100AE000FE00FE00FE19238C1C020100FFE0000343
:100AF000FFF80007FFFC000FFFFE001FFFFF003F95
:100B0000C0FF003F803F803F003F807F003F80006C
:100B1000003F8000003F8000003F8000007F000019
:100B2000007F000000FF000001FE000003FC000049
:100B300007FC00000FF800001FF000003FE000007D
:100B40007FC00001FF000003FE000007FC00000F53
:100B5000F000003FE000007F800000FF000000FF89
:100B6000FFFF80FFFFFF80FFFFFF80FFFFFF80FF91
:100B7000FFFF80FFFFFF801823691C020103FF8035
:100B80000FFFE01FFFF03FFFF87FFFFC7F03FCFE3D
:100B900001FCFE00FCFE00FE0000FE0000FE000165
:100BA000FC0001FC000FF800FFF000FFC000FF8018
:100BB00000FFE000FFF80003FC0000FE0000FE0064
:100BC000007E00007F00007FFE007FFE007FFE00B1
:100BD000FEFF00FE7F01FC7FFFFC3FFFF81FFFF0E0
:100BE0000FFFE003FF801A238C1C01000007FC00AC
:100BF000000FFC00001FFC00001FFC00003FFC0079
:100C0000003FFC00007FFC0000FDFC0000FDFC003C
:100C100001F9FC0001F9FC0003F1FC0007F1FC0004
:100C200007E1FC000FC1FC000FC1FC001F81FC00AC
:100C30003F81FC003F01FC007E01FC00FE01FC0046
:100C4000FC01FC00FFFFFFC0FFFFFFC0FFFFFFC074
:100C5000FFFFFFC0FFFFFFC0FFFFFFC00001FC0060
:100C60000001FC000001FC000001FC000001FC0090
:100C70000001FC000001FC001823691C02007FFF3A
:100C8000FC7FFFFC7FFFFC7FFFFC7FFFFC7FFFFC06
:100C90007F00007F00007F00007F00007F00007F5A
:100CA00000007F1FC07F7FF07FFFF87FFFFC7FFF8A
:100CB000FC7FC1FE7F00FE7F007F7E007F00007F03
:100CC00000007F00007F00007F00007FFE007FFEAD
:100CD00000FEFE00FEFF01FC7FFFFC7FFFF83FFFF0
:100CE000F00FFFC007FF8019238C1C020100FFC01A
:100CF0000003FFF00007FFF8000FFFFC001FFFFEDE
:100D0000001FE0FE003FC07F003F807F007F0000AB
:100D1000007F0000007F0000007E000000FE1FC07A
:100D200000FE7FF000FEFFF800FEFFFC00FFFFFE6C
:100D300000FFE1FE00FFC0FF00FF807F00FF003FDB
:100D400000FF003F80FF003F80FF003F80FF003F2B
:100D5000807F003F007F003F007F807F007F807F9B
:100D6000003FC0FE001FFFFC001FFFFC000FFFF84C
:100D70000007FFE00001FF80001823691C0200FF4C
:100D8000FFFFFFFFFFFFFFFFFFFFFFFFFFFFFFFF73
:100D9000FF00007F00007F0000FE0000FE0001FE5B
:100DA0000001FC0003FC0003F80007F80007F00056
:100DB0000FF0000FF0001FE0001FE0003FC0003FF9
:100DC000C0003F80007F80007F0000FF0000FF0028
:100DD00001FE0001FE0003FC0003FC0007F8000711
:100DE000F8000FF8000FF00019238C1C020103FF1C
:100DF000C0000FFFF0001FFFFC003FFFFE003FFFA1
:100E0000FE007FC1FF007F80FF007F007F007F002A
:100E10007F007F007F007F007F007F007F003F809A
:100E2000FE003FC1FC000FFFF80007FFE00001FFDC
:100E3000C0000FFFF0001FFFF8003FC1FE007F80E1
:100E4000FE007F007F00FE003F00FE003F00FE002E
:100E50003F80FE003F80FE003F80FF007F80FF005C
:100E60007F007F80FF007FFFFF003FFFFE003FFF0E
:100E7000FC000FFFF80003FFE00019238C1C0201A7
:100E800001FFC00007FFE0000FFFF8001FFFFC009C
:100E90003FFFFC007F81FE007F00FE007E00FF0020
:100EA000FE007F00FE007F00FE007F80FE007F804E
:100EB000FE007F80FE007F80FE00FF807F00FF80BD
:100EC0007F83FF803FFFFF803FFFBF801FFFBF800A
:100ED0000FFF3F8001F83F8000003F0000007F00CF
:100EE00000007F0000007F007F00FE007F00FE000A
:100EF0007F01FE003F83FC001FFFFC001FFFF80086
:100F00000FFFF00007FFE00001FF80000718181036
:100F10000700FEFEFEFEFEFE0000000000000000D6
:100F200000000000FEFEFEFEFEFE000000080002C3
:100F3000010000030407000000000000000001029F
:100F40000408102040800102040810200102040857
:100F50001020040404040404040402020202020235
:100F600003030303030300000000230026002900FD
:100F700000000000250028002B00000000002400D5
:100F800027002A00020038147729EC1411241FBE10
:100F9000CFEFD8E0DEBFCDBF12E0A0E0B1E0E6E6E3
:100FA000F3E702C005900D92A037B107D9F725E00D
:100FB000A0E7B2E001C01D92A931B207E1F71FE03E
:100FC000CAE8DFE004C02297FE010E943F34C63821
:100FD000D107C9F70E94BB290C94A6390C940000D4
:100FE000CF93DF93EC01262F4CAD6BAD04960E949E
:100FF0002D232BAD992787FD9095820F911D8BAFE7
:1010000081E090E0DF91CF910895DC01ED91FC91BA
:101010000190F081E02D0994FC01808191810C9474
:10102000B3380F931F93CF93DF9300D0CDB7DEB7C4
:101030008B019A838983CE0101960E940C08F801E6
:101040008083C8010F900F90DF91CF911F910F9176
:101050000895CF92DF92EF92FF920F931F93CF9359
:10106000DF9300D000D0CDB7DEB78C017B016C01DF
:1010700084E0C80ED11C1A830983CE0101966B83CC
:101080007C830E940C08F70181937F010F5F1F4F43
:101090006B817C810C151D0571F7CB010F900F90B2
:1010A0000F900F90DF91CF911F910F91FF90EF90D4
:1010B000DF90CF900895CF92DF92EF92FF920F933F
:1010C0001F93CF93DF9300D000D0CDB7DEB78C0154
:1010D0007B016C018EE1C80ED11C1A830983CE01FD
:1010E00001966B837C830E940C08F70181937F013A
:1010F0000F5F1F4F6B817C810C151D0571F7CB01B4
:101100000F900F900F900F90DF91CF911F910F9143
:10111000FF90EF90DF90CF900895EF92FF920F93A2
:101120001F93CF93DF9300D0CDB7DEB77C018B0147
:101130009A838983CE0101960E940C08F80180836E
:10114000FFEFEF1AFF0AFA82E982CE0101960E94B0
:101150000C08F8018183C8010F900F90DF91CF91A7
:101160001F910F91FF90EF9008950F931F93CF93CE
:10117000DF931F92CDB7DEB78C0169830E940C0804
:101180006981681729F0F801808191810E94BB383C
:10119000C8010F90DF91CF911F910F910895EF92A9
:1011A000FF920F931F93CF93DF9300D0CDB7DEB79D
:1011B0007C018B01FB0160819A838983CE010196BA
:1011C0000E94B508F8016181FFEFEF1AFF0AFA8269
:1011D000E982CE0101960E94B508C8010F900F90D8
:1011E000DF91CF911F910F91FF90EF9008950F9392
:1011F0001F93CF93DF9300D0CDB7DEB78B01FB01F8
:1012000060819A838983CE0101960E94B508C80146
:101210000F900F90DF91CF911F910F910895EF9252
:10122000FF920F931F93CF93DF9300D0CDB7DEB71C
:1012300001E913E0815993407C01C701800F911FA0
:10124000F80161918F019A838983CE0101960E94F2
:10125000B508F3E005391F0781F781E993E00F90A6
:101260000F90DF91CF911F910F91FF90EF90089514
:1012700080919503811105C080EA9BEBADE0B0E061
:1012800004C088E99AE3A0E0B0E080931F03909344
:101290002003A0932103B093220361E973E084E06B
:1012A00090E00E94290860919103709192038091CF
:1012B0009303909194039B01AC010E94EC3288232C
:1012C00041F01092910310929203109293031092A6
:1012D00094036DE873E088E090E00E942908609133
:1012E0008D0370918E0380918F03909190039B01E9
:1012F000AC010E94EC32882341F010928D031092D1
:101300008E0310928F0310929003089584E090E072
:101310000C940F09CF92DF92EF92FF920F931F93DD
:10132000CF93DF93C0908D03D0908E03E0908F0316
:10133000F09090030091910310919203D091930348
:10134000C091940398014D2F5C2FB601C7010E94F4
:10135000EE3118161CF48601DE2DCF2DB8018D2F2D
:101360009C2FDF91CF911F910F91FF90EF90DF9015
:10137000CF900895FF920F931F93CF93DF931F9207
:10138000CDB7DEB719820CE010E0F12CBE016F5F23
:101390007F4FC8010E941108FC018081882331F031
:1013A0008981F81618F48F3F09F0F82E0F5F1F4F50
:1013B0000031110559F78F2D0F90DF91CF911F91BB
:1013C0000F91FF900895FF920F931F93CF93DF9398
:1013D00000D01F92CDB7DEB71B820CE010E0F12CDD
:1013E000BE016D5F7F4FC8010E941108FC01808122
:1013F000882331F08B81F81618F48F3F09F0F82E0E
:101400000F5F1F4F0031110559F72F2D30E02F5F6F
:101410003F4F3A832983BE016F5F7F4F8DE090E09D
:101420000E94CF0881E08F0D0F900F900F90DF91F9
:10143000CF911F910F91FF9008950F931F93CF931A
:10144000DF931F92CDB7DEB70E9486090E94E309A1
:101450009091150189132AC00CE010E01982BE0199
:101460006F5F7F4FC8010E94F7080F5F1F4F003169
:101470001105A1F788E090E00E940F098091910387
:1014800090919203A0919303B091940380938D0364
:1014900090938E03A0938F03B093900310929103C7
:1014A0001092920310929303109294030F90DF9185
:1014B000CF911F910F910895CF92DF92EF92FF92FB
:1014C0008CE793E00E94071B6B017C016CE373E0E7
:1014D00083E694E00E940A2A22E030E0B701A601E8
:1014E00083E694E00E94EC2B83E694E00E94382A85
:1014F0008BE693E00E94071B6B017C0167E373E0BE
:1015000083E694E00E940A2A22E030E0B701A601B7
:1015100083E694E00E94EC2B83E694E00E94382A54
:101520008BE693E00E94071B6B017C018CE793E044
:101530000E94071B9B01AC01C701B6010E943A3013
:101540006B017C0162E373E083E694E00E940A2A67
:1015500022E030E0B701A60183E694E00E94EC2B84
:1015600083E694E00E94382AC0909103D0909203C1
:10157000E0909303F09094036DE273E083E694E0CF
:101580000E940A2A22E030E0B701A60183E694E037
:101590000E94EC2B83E694E00E94382AC0908D03D1
:1015A000D0908E03E0908F03F090900368E273E098
:1015B00083E694E00E940A2A22E030E0B701A60107
:1015C00083E694E00E94EC2B83E694E00E94382AA4
:1015D0008AE593E00E94071B6B017C0163E273E0E4
:1015E00083E694E00E940A2A22E030E0B701A601D7
:1015F00083E694E00E94EC2B83E694E00E94382A74
:101600000E94BA09F82E6EE173E083E694E00E942E
:101610000A2A4AE050E06F2D83E694E00E94F42A03
:1016200083E694E00E94382AE0902503F090260398
:1016300069E173E083E694E00E940A2A4AE050E000
:10164000B70183E694E00E94FB2A83E694E0FF90D2
:10165000EF90DF90CF900C94382A61E082E00E94F6
:10166000612761E082E00C949A2761E082E00E94A9
:10167000612760E082E00C949A270E94350B68EEA7
:1016800073E080E090E00E94B8260C942D0BCF937D
:10169000DF9300D0CDB7DEB78AE190E09A838983EB
:1016A000CE0101960E940C0891E0813009F090E093
:1016B000892F0F900F90DF91CF9108956F927F92B5
:1016C0008F929F92AF92BF92CF92DF92EF92FF9252
:1016D0000F931F93CF93DF93CDB7DEB7C654D109D5
:1016E0000FB6F894DEBF0FBECDBF5C01762E672E1D
:1016F000CE0101967C018CE3C82ED12C9E2C8F2C20
:101700008E01075D1F4FDAA6C9A6C8010E940C080A
:10171000F70181937F01FFEFCF1ADF0A84E6C81635
:10172000D10489F7B80184E690E00E945B08298122
:101730002F5F223008F443C083E694E00E94382AE9
:1017400063EA72E083E694E00E940A2A692D782D0C
:1017500083E694E00E942F2A6CE271E083E694E035
:101760000E942F2AB80183E694E00E942F2A83E684
:1017700094E00E94382A6F927F921F930F938F926A
:101780009F922EE231E03F932F93BF92AF920E943F
:10179000BF366DE972E083E694E00E940A2AB50143
:1017A00083E694E00E942F2A83E694E00E94382A80
:1017B0000FB6F894DEBF0FBECDBF81E001C080E060
:1017C000CA5BDF4F0FB6F894DEBF0FBECDBFDF910F
:1017D000CF911F910F91FF90EF90DF90CF90BF902E
:1017E000AF909F908F907F906F900895BF92CF920F
:1017F000DF92EF92FF920F931F93CF93DF9300D06E
:10180000CDB7DEB77C01D62EC72E04EB10E01A83CD
:101810000983CE0101960E940C08B82E83E694E05D
:101820000E94382A63E972E083E694E00E940A2A63
:101830004AE050E06B2D83E694E00E94F42A83E6B0
:1018400094E00E94382A1A830983CE0101960E94EF
:101850000C08813009F5CF92DF9222E631E03F9308
:101860002F93FF92EF920E94BF366DE872E083E6FD
:1018700094E00E940A2AB70183E694E00E942F2A8E
:1018800083E694E00E94382A0F900F900F900F90FB
:101890000F900F9081E001C080E00F900F90DF91DA
:1018A000CF911F910F91FF90EF90DF90CF90BF905D
:1018B000089522E330E040E050E068EC70E082E11F
:1018C0000E94EE2B68EC70E080E090E00E94B82669
:1018D00022E330E040E050E066E970E082E10E94FF
:1018E000EE2B68EC70E080E090E00E94B82622E3E6
:1018F00030E040E050E064E670E082E10E94EE2BD0
:1019000068EC70E080E090E00E94B82622E330E0CE
:1019100040E050E066E470E082E10E94EE2B68EC6B
:1019200070E080E090E00C94B826809125039091BF
:1019300026038930974030F080911A01823010F0F0
:101940000C94590C0895EF92FF920F931F93CF932D
:10195000DF9300D0CDB7DEB77B018C01E81AF90A1E
:10196000C701800F911FF80121918F01222339F0C7
:101970002983BE016F5F7F4F0E94F708F1CF1A8263
:101980001982BE016F5F7F4F0E94CF080F900F90AA
:10199000DF91CF911F910F91FF90EF900895FC017F
:1019A000019620812032D9F3CF010895CF92DF92A2
:1019B000EF92FF920F931F93CF93DF9300D000D04D
:1019C00000D0CDB7DEB7BC01CE0101960E94432FF7
:1019D000CE0101960E942E306B017C018B01CE015D
:1019E00001960E94D52E0F3F11055CF4C601073900
:1019F000110514F086E990E08C0197FF02C000E029
:101A000010E00093280366EB71E083E694E00E9407
:101A10000A2A4AE050E0602F83E694E00E94F42A0C
:101A200083E694E00E94382A609128038AE390E0DC
:101A30000E94BB3880E090E026960FB6F894DEBF97
:101A40000FBECDBFDF91CF911F910F91FF90EF900F
:101A5000DF90CF9008951F93CF93DF9300D0CDB741
:101A6000DEB78BE390E09A838983CE0101960E94D2
:101A70000C088F3F11F411E001C01FEF8BE390E0E1
:101A80009A838983612FCE0101960E94B50883E66F
:101A900094E00E94382A64E871E083E694E00E94B2
:101AA0000A2A113039F46EE671E083E694E00E9470
:101AB0002F2A06C06EE771E083E694E00E940A2AAE
:101AC00083E694E00E94382A80E090E00F900F9027
:101AD000DF91CF911F910895DF92EF92FF920F93C4
:101AE0001F93CF93DF9300D0CDB7DEB77C0100E129
:101AF00010E0D12CBE016F5F7F4FC8010E948D089E
:101B000029813A81E216F30644F0D3940E5F1F4F09
:101B100085E0D812EFCF85E001C08D2D0F900F909A
:101B2000DF91CF911F910F91FF90EF90DF9008957B
:101B30005F926F927F928F929F92AF92BF92CF925D
:101B4000DF92EF92FF920F931F93CF93DF93CDB766
:101B5000DEB72C970FB6F894DEBF0FBECDBF8C0159
:101B60006DE671E0CE0101960E94432FF80180815D
:101B7000843629F483E791E00E94980D4BC0812CB4
:101B80007E01F7E0EF0EF11C6E018BE0C80ED11C58
:101B90005801F8016081862F992787FD9095C0979D
:101BA0000A9728F4CE0101960E94E82F29C0CE01A1
:101BB00001960E942E306F83788789879A875524F3
:101BC0005394580C912CF8E08F0E911C880C991CA2
:101BD00037018E189F08C401860D971DF30161918E
:101BE0003F019C878B87C6010E94B5086C147D0459
:101BF00091F76DE671E0CE0101960E947A2F852C57
:101C00000F5F1F4FF5018081882321F0F4E0F81564
:101C100008F0BECFCE0101960E94D52E2C960FB6AD
:101C2000F894DEBF0FBECDBFDF91CF911F910F9112
:101C3000FF90EF90DF90CF90BF90AF909F908F90EC
:101C40007F906F905F900895CF93DF9300D0CDB7D2
:101C5000DEB7BE016F5F7F4F80E190E00E948D088C
:101C600089819A81019621F483E791E00E94980D81
:101C70000F900F90DF91CF9108950F931F93CF9303
:101C8000DF930E94240E86EC92E00E947A1E0EEAF8
:101C900012E0C0E0D0E0F8012191319141915191E1
:101CA0008F01BE0186EC92E00E944A1F2196C63049
:101CB000D10589F764E186EC92E00E949B1F86ECD7
:101CC00092E0DF91CF911F910F910C94871ECF93DB
:101CD000C0911A0166E171E083E694E00E940A2A4D
:101CE0004AE050E06C2F83E694E00E94F42A83E6F9
:101CF00094E0CF910C94382A0E945C0A0E94670EEF
:101D000083E694E00C94382ACF93C091270381E0B6
:101D1000C827C093270383E694E00E94382A6EE622
:101D200071E083E694E00E940A2A6C2F70E04AE09A
:101D300050E083E694E00E94DF2A83E694E00E946C
:101D4000382A8091270381110E947C0E80E090E068
:101D5000CF910895CF92DF92EF92FF92CF93DF93CE
:101D60008091250390912603009781F10E946C0DCC
:101D7000D82F84E0D89FF0011124E255FD4FC08098
:101D8000D180E280F380C0E06C2F70E0A701960163
:101D900086EC92E00E944A1FCF5FDC17A8F7C6309E
:101DA00058F46C2F70E020E030E0A90186EC92E05E
:101DB0000E944A1FCF5FF3CF86EC92E0DF91CF9174
:101DC000FF90EF90DF90CF900C94871EDF91CF9122
:101DD000FF90EF90DF90CF9008954F925F926F92B7
:101DE0007F928F929F92AF92BF92CF92DF92EF92AB
:101DF000FF920F931F93CF93DF938091270381115D
:101E0000C0C061E084E792E00E9418258091AD0295
:101E1000811107C081E08093AD0284E792E00E94C7
:101E2000B7246FEF84E792E00E9401258091AD0214
:101E3000811107C081E08093AD0284E792E00E94A7
:101E4000B72484E792E00E94ED24CFE2D7E006E4D5
:101E500028EEC22E23E0D22EE12CF12C14E6809144
:101E60001A01813019F469ED73E002C069E878E085
:101E700084E792E00E949B236091250370912603E2
:101E8000683E23E0720710F481E201C085E0809390
:101E9000AB02C093AC026115710531F04AE050E02D
:101EA00080E792E00E94FB2A69ED73E084E792E00C
:101EB0000E949B231092AB02D093AC026091180158
:101EC0007091190180E792E00E942F2A80914803C7
:101ED000811117C00093AB02D093AC026CE071E0AB
:101EE00080E792E00E940A2A8091250390912603C0
:101EF000892B39F40E948926613A7F40810591053A
:101F000038F484E792E00E94F2248111A8CF39C00E
:101F100040901F0350902003609021037090220393
:101F20000E9489264B015C0169E878E084E792E031
:101F30000E949B231092AB02C093AC02C301B2017A
:101F4000681979098A099B09A70196010E94FC3347
:101F5000BA01A9012AE030E080E792E00E94E72A76
:101F600069ED73E084E792E00E949B231093AB023B
:101F7000C093AC0268E071E080E792E00E940A2A18
:101F8000C0CFDF91CF911F910F91FF90EF90DF9025
:101F9000CF90BF90AF909F908F907F906F905F9009
:101FA0004F900895CF93DF93EC010E94470B882355
:101FB00041F0D0931901C0931801DF91CF910C9497
:101FC000ED0EDF91CF910895CF93DF9300D000D035
:101FD00000D0CDB7DEB7BC01CE0101960E94432FE1
:101FE000CE0101960E942E30709326036093250344
:101FF000CE0101960E94D52E0E94AA0E0E94ED0EDF
:1020000026960FB6F894DEBF0FBECDBFDF91CF91FD
:10201000089520E030E04EE852E40E94A33023E02F
:1020200032ED42E250E40E943B309B01AC0160E0A3
:1020300070E080E291E40E94A0320E940B31CB015B
:102040000895CF92DF92EF92FF920E948A096B016E
:102050007C018CE793E00E94071B9B01AC01C70148
:10206000B6010E943A300E94091090932603809393
:102070002503FF90EF90DF90CF900895BC01882753
:1020800077FD8095982F0E943E310E94F23123E027
:1020900032ED42E250E40E943A3020E030E04EE877
:1020A00052E40E943D320895CF92DF92EF92FF9268
:1020B0008CE793E00E94071B6B017C018091160165
:1020C000909117010E943E109B01AC01C701B6011F
:1020D0000E943B306B017C0120919103309192036F
:1020E00040919303509194030E94EE31181644F4EA
:1020F000C0929103D0929203E0929303F0929403E2
:10210000FF90EF90DF90CF900895CF92DF92EF9203
:10211000FF926B017C018AE593E00E94071B9B0103
:10212000AC0160E070E088E292E40E943A302DEC6D
:102130003CEC4CE45FE30E943D329B01AC01C701E3
:10214000B6010E943B30FF90EF90DF90CF90089552
:102150008F929F92AF92BF92CF92DF92EF92FF92B7
:102160006B017C0120E030E040E251E40E943D320E
:102170004B015C01A70196016DEC7CEC84EA90E4D4
:102180000E943A309B01AC01C501B4010E94A3300A
:1021900020E030E04AE754E40E943D3220E030E4A1
:1021A0004CE156E40E94A3300E94FD3120E030E46F
:1021B00043E555E40E94A3302FE03FEC4BE55BE3A1
:1021C0000E943B309B01AC0160E070E080E89FE33F
:1021D0000E94A33023E333E948E853E40E943A30F5
:1021E000FF90EF90DF90CF90BF90AF909F908F9037
:1021F00008954F925F926F927F928F929F92AF92CB
:10220000BF92CF92DF92EF92FF92CF93DF93D82FBE
:10221000C62F262F30E0A8EEB3E00E9443342B01F6
:102220003C01812C912C5401C12CD12C76018414B9
:102230009504A604B70494F48D2F0E941B27AC01CB
:10224000662757FD6095762FC40ED51EE61EF71E35
:102250008FEF881A980AA80AB80AE9CFC701B60111
:102260000E943C316B017C0188EE93E0C89FB00175
:10227000C99F700D1124882777FD8095982F0E94A3
:102280003E319B01AC01C701B6010E94A330DF9132
:10229000CF91FF90EF90DF90CF90BF90AF909F9045
:1022A0008F907F906F905F904F900895CF92DF92C4
:1022B000EF92FF926AE081E190E00E94F9109B01A9
:1022C000AC0160E070EC8FE794E40E943A302DECB2
:1022D0003CEC44EA50E40E943D3220E030E040E82B
:1022E0005AE30E943D320E94A810AB01BC018AE56E
:1022F00093E00E948A1A6AE080E190E00E94F9105F
:102300002DEC3CEC44EA50E40E943D3220E030E009
:1023100040E85AE30E943D3226E636E646EB50E4BA
:102320000E94A33020E030E04AE754E40E943D32AE
:102330006B017C010E948510AB01BC018CE793E02E
:102340000E948A1AB701A6018BE693E0FF90EF90F6
:10235000DF90CF900C948A1ACF92DF92EF92FF9287
:102360000E9456118091480381110FC00E94892656
:10237000C0901F03D0902003E0902103F09022032F
:10238000C616D706E806F90658F40E945410809144
:102390004803811105C00E94860981E080934803AB
:1023A0000E942110C0901B03D0901C03E0901D03DD
:1023B000F0901E030E9489266C197D098E099F09E1
:1023C00061387E4E8643910580F00E948926609395
:1023D0001B0370931C0380931D0390931E03FF90B7
:1023E000EF90DF90CF900C941D0AFF90EF90DF905C
:1023F000CF900895AF92BF92CF92DF92EF92FF926B
:102400000F931F93CF93DF9300D0CDB7DEB78091AA
:1024100028038F3F09F055C061E08EE090E00E94F4
:10242000F910AB01BC0189E493E00E948A1A8BE3A6
:1024300090E09A838983CE0101960E940C08813036
:1024400019F400E911E002C008EE13E089E493E01A
:102450000E94071B0E940B3177FD10C089E493E0B6
:102460000E94071B0E940B310617170754F089E4DE
:1024700093E00E94071B0E940B3104C060E070E0F3
:1024800001C0B80178010027F7FC0095102F8827BC
:1024900077FD8095982F20910A011F921F921F921D
:1024A0002F93A12CB12C6501A39420E030E0A90169
:1024B0000E948E2E60931A010F900F900F900F9034
:1024C00002C080931A0160911A0186EC92E00E948A
:1024D0009B1F86EC92E00F900F90DF91CF911F91A0
:1024E0000F91FF90EF90DF90CF90BF90AF900C9442
:1024F000871E0E94AA0E0C94FA110E94980D0E9449
:10250000791260EB71E083E694E00C940A2ACF9391
:10251000DF93C0E9D1E0D0932603C09325030E9446
:1025200079120E94ED0E6AEF70E080E090E00E9468
:10253000B826CC59DF4FCC318CE0D80761F7DF915A
:10254000CF91089568EF70E083E694E00E940A2A34
:102550006CE271E080E090E00E94B8260C940000EC
:102560000895CF93DF93C0E0D0E06FEFCE010E94DB
:10257000BB382196C436D105C1F7DF91CF910895BC
:102580000E94B11267E971E083E694E00E940A2A92
:102590000E94A21280E090E00895CF93DF9300D0D4
:1025A0001F92CDB7DEB7BE016D5F7F4F80E090E038
:1025B0000E941108FC0180818B83833069F00E94A6
:1025C000B11283E090E09A838983BE016F5F7F4FF1
:1025D00080E090E00E94CF080F900F900F90DF9165
:1025E000CF91089526E040E855E260E070E083E690
:1025F00094E00E94B32840E855E260E070E089E290
:1026000093E00E94181D80919503882331F06DE8B6
:1026100073E083E694E00E940A2A65E773E083E6AC
:1026200094E00E940A2A61E473E083E694E00E9449
:102630000A2A0E94CD120E943D0E0E94350B0E9474
:1026400038098DE691E00E94D20F0E94590C65E98D
:102650007CE080912303909124030E94B41D80911B
:102660002303909124030C94B81DCF92DF92EF9234
:10267000FF926B017C010E940B31882777FD8095CA
:10268000982F0E943E319B01AC01C701B6010E9408
:102690003A3020E030E040E251E40E943D320E94B6
:1026A0000B31CB01FF90EF90DF90CF9008952F92E8
:1026B0003F924F925F926F927F928F929F92AF92D2
:1026C000BF92CF92DF92EF92FF920F931F93CF931F
:1026D000DF93CDB7DEB7AC970FB6F894DEBF0FBE71
:1026E000CDBF8BA79CA78B01BE016F5F7F4F8CE88E
:1026F00090E00E945B0883E694E00E94382A68EA32
:1027000072E083E694E00E940A2ABE016F5F7F4F69
:1027100083E694E00E942F2A83E694E00E94382A00
:1027200089818F5F823008F489C02090190330902E
:102730001A032114310419F0201A310A02C0212C85
:10274000312C8AE593E00E94071B0E9435138BA36E
:102750009CA38AE593E00E94071B2B013C01C090DB
:102760009103D0909203E0909303F0909403C701FB
:10277000B6010E9435138DA39EA38CE793E00E94BF
:10278000071B0E9435138FA398A78CE793E00E9444
:10279000071B4B015C018BE693E00E94071B0E9424
:1027A000351389A79AA78BE693E00E94071B6F8FCA
:1027B00078A389A39AA33F922F928CA18F939BA178
:1027C0009F93C301B2010E940B317F936F938EA13F
:1027D0008F939DA19F93C701B6010E940B317F93F8
:1027E0006F9388A58F939FA19F93C501B4010E9409
:1027F0000B317F936F938AA58F9399A59F936F8DCC
:1028000078A189A19AA10E940B317F936F931F93A6
:102810000F93CE0101969F938F938CE891E09F9345
:102820008F938CA58F939BA59F930E94BF360FB665
:10283000F894DEBF0FBECDBF81E001C080E0AC9652
:102840000FB6F894DEBF0FBECDBFDF91CF911F91C1
:102850000F91FF90EF90DF90CF90BF90AF909F903F
:102860008F907F906F905F904F903F902F90089542
:10287000EF92FF920F93CF93DF9300D0CDB7DEB7E7
:1028800064E08CE793E00E94761A64E08BE693E0C4
:102890000E94761A64E08AE593E00E94761A64E06A
:1028A00089E493E00E94761A20E04AE069E089E238
:1028B00093E00E94E81C8AE390E09A838983CE012A
:1028C00001960E940C088093280380E190E00E940A
:1028D000CA297C0140EE53E964E070E00E94A61D25
:1028E000F0922403E092230323E04FE066E070E0DF
:1028F00086EC92E00E941C1E40E06FEF80E00E9498
:10290000921F6093AE027093AF028093B0029093D7
:10291000B10240E06FEF84EB0E94921F6093B2021D
:102920007093B3028093B4029093B50240E06FEFCE
:102930008FEF0E94921F6093B6027093B70280934C
:10294000B8029093B90240E068EC8FEF0E94921FAA
:102950006093BA027093BB028093BC029093BD0255
:1029600040E068E78FEF0E94921F6093BE02709371
:10297000BF028093C0029093C10240E060E08FEFFD
:102980000E94921F6093C2027093C3028093C4029C
:102990009093C502109273021092720240E7E42EE7
:1029A00042E0F42E83E392E0F7019183808308E014
:1029B00027E046E06CE171E0C7010E94DC1F8BE379
:1029C00092E0F701918380830F900F90DF91CF9178
:1029D0000F91FF90EF90089586EC92E00E946B1E9D
:1029E00089E293E00E948F1C89E493E00E94481AD8
:1029F0008AE593E00E94481A8BE693E00E94481A09
:102A00008CE793E00C94481A8F929F92BF92CF92DA
:102A1000DF92EF92FF920F931F93CF93DF9300D03B
:102A200000D0CDB7DEB7182F092FB62E2C833983EF
:102A30004A835B830E9489266B017C012C8139814A
:102A40004A815B81C20ED31EE41EF51E812E902E9C
:102A50000E9489266C157D058E059F0540F589E24B
:102A600093E00E94AF1B892B99F389E293E00E94C7
:102A7000221B282FBB2081F0843124F48A3011F0EE
:102A80008D3051F4622F772767FD709583E694E0CF
:102A90002C830E9405082C81F40180812813D6CF55
:102AA0008181882331F0FFEF8F1A9F0AD1CF80E018
:102AB00001C081E00F900F900F900F90DF91CF91A8
:102AC0001F910F91FF90EF90DF90CF90BF909F905C
:102AD0008F90089567EB72E083E694E00E940A2AE3
:102AE0000E943D0B28EB3BE040E050E060911B0171
:102AF00089EE91E00E940415682F70E04AE050E0F2
:102B000083E694E00E94DF2A83E694E00E94382A5C
:102B100020E335E740E050E061E08FEE91E00E9475
:102B20000415811104C00E94350B80E0089560EB0C
:102B300072E083E694E00E940A2A81E00895AF9251
:102B4000BF92CF92DF92EF92FF920F931F93CF939A
:102B5000DF93CDB7DEB7C659D1090FB6F894DEBF03
:102B60000FBECDBF7B016130710531F4BC01CE01D8
:102B700001960E94571309C06230710509F07DC0AB
:102B8000BC01CE0101960E945E0B811103C08FEF44
:102B90009FEF7EC0C12CD12CCE0101965C0191E04B
:102BA000E916F10419F408E712E002C00BE612E09E
:102BB00067E572E089E293E00E940A2AB80189E29F
:102BC00093E00E940A2A68E872E089E293E00E949A
:102BD0000A2A89E293E00E94382A20EA3FE040E096
:102BE00050E061E082E191E00E940415811108C08B
:102BF000EFEFCE1ADE0AF7E0CF16D10481F635C02A
:102C0000F50101900020E9F78F01015011090A191F
:102C10001B096BE472E089E293E00E940A2A4AE011
:102C200050E0B80189E293E00E94FB2A89E293E038
:102C30000E94382A20E737E140E050E061E086EF6B
:102C400091E00E940415882399F2B50189E293E08E
:102C50000E942F2A20E737E140E050E061E088EF52
:102C600091E00E940415882319F281E090E0F7E0DA
:102C7000CF16D1046CF080E00BC0E3E0EE16F10457
:102C800009F088CFBC01CE0101960E94F60B7DCFE2
:102C9000CA56DF4F0FB6F894DEBF0FBECDBFDF912F
:102CA000CF911F910F91FF90EF90DF90CF90BF9049
:102CB000AF9008950F931F93CF93DF938C010E94E1
:102CC0006A15811127C00E946A15811123C0C0E0D6
:102CD000D0E00E94350B10931A030093190320973C
:102CE00019F48FEF91E013C0C130D10519F488E2D7
:102CF00092E00DC0CF3F8FEFD80719F488E092E043
:102D000006C0CF3F8FEFD807B4F482E192E00E9473
:102D1000D20F11C061E070E0C8010E949F15EC0164
:102D200062E070E0C8010E949F1563E070E0C80196
:102D30000E949F15CECFCE01DF91CF911F910F91B1
:102D40000895CF92DF92EF92FF920E94470B81117C
:102D500008C088E192E0FF90EF90DF90CF900C9454
:102D6000D20FC0901503D0901603E0901703F09097
:102D700018030E9489266C197D098E099F09613C00
:102D8000744D8140910540F1809125039091260377
:102D90000E945A167C0183E694E00E94382A62E47D
:102DA00072E083E694E00E940A2A4AE050E0B7010C
:102DB00083E694E00E94DF2A83E694E00E94382AAA
:102DC0000E94350B0E9489266093150370931603A9
:102DD0008093170390931803FF90EF90DF90CF90AC
:102DE000089568E372E083E694E00E940A2A83E68D
:102DF00094E00E94382A0E946A15811103C06CE297
:102E000072E015C06AE272E089E293E00E940A2A49
:102E100089E293E00E94382A20EE33E944E050E052
:102E200061E089EE91E00E9404156DE172E083E6B5
:102E300094E00E940A2A83E694E00E94382A81E006
:102E400090E008950F931F93CF93DF9300D0CDB7F9
:102E5000DEB78C011A821982BE016F5F7F4F8AE153
:102E600090E00E94CF0868E073E089E293E00E945E
:102E70000A2A20E137E240E050E060911B0182E144
:102E800091E00E940415882309F449C089E293E087
:102E90000E94C71B64E073E089E293E00E940A2A63
:102EA00028EE33E040E050E060911B0182E191E0C8
:102EB0000E94041566EF72E089E293E00E940A2AFC
:102EC000B80189E293E00E942F2A89E293E00E94F0
:102ED000382A20E23EE440E050E060911B018BE0A4
:102EE00091E00E9404158823E9F065EE72E089E222
:102EF00093E00E940A2A81E090E09A838983BE01D0
:102F00006F5F7F4F8AE190E00E94CF086BED72E027
:102F100083E694E00E940A2A81E090E005C08FEFEA
:102F20009FEF02C08EEF9FEF0F900F90DF91CF9138
:102F30001F910F910895CF92DF92EF92FF92CF935E
:102F4000DF93EC010E9489266B017C01CE01AA2748
:102F500097FDA095BA2FC80ED91EEA1EFB1EC0E031
:102F60000E9489266C157D058E059F0508F583E670
:102F700094E00E94D027892B99F3D1E0DC0F83E6FF
:102F800094E00E94E927EC2FF0E0E752FD4F8083A8
:102F9000ED2FF0E0E852FD4F80818D3029F0DB33DA
:102FA00031F08A3011F404C0DC2FCD2FD9CFCBE320
:102FB000EC2FF0E0E752FD4F10828C2FDF91CF9184
:102FC000FF90EF90DF90CF90089560ED72E083E680
:102FD00094E00E940A2A0E943D0B89E293E00E943D
:102FE000AF1B892B49F089E293E00E94221BBC01B0
:102FF00083E694E00E94050883E694E00E94D027CF
:10300000892B59F383E694E00E94E927682F89E22F
:1030100093E00E94431BE1CFCF93DF9383E694E0DC
:103020000E94382A68E571E083E694E00E940A2A4B
:1030300083E694E00E94382A0E943D0B20E137E2AB
:1030400040E050E060911B0189EE91E00E94041580
:10305000811107C060E471E083E694E00E940A2ACF
:1030600020C083E694E00E942C2868EE73E080E0A4
:1030700090E00E94B8268DED92E00E94CF0C0E9455
:103080002217EC0197FF13C064E271E083E694E03D
:103090000E940A2A4AE050E0BE0183E694E00E94C2
:1030A000DF2A83E694E0DF91CF910C94382A83E203
:1030B00092E00E94D20FDF91CF9108951F93CF939A
:1030C000DF93CDB7DEB72C970FB6F894DEBF0FBEF7
:1030D000CDBF69ED72E0CE0107960E94432F69EDE6
:1030E00072E083E694E00E942F2A83E694E00E9437
:1030F000382A68E172E0CE0101960E94B32FBE012A
:103100006F5F7F4FCE0107960E941F30182FCE01B0
:1031100001960E94D52E112319F00E940C187EC131
:1031200065E172E0CE0101960E94B32FBE016F5F90
:103130007F4FCE0107960E941F30182FCE010196B7
:103140000E94D52E112339F08BED92E00E94CF0C16
:103150000E947D1263C16FE072E0CE0101960E9471
:10316000B32FBE016F5F7F4FCE0107960E941F30C5
:10317000182FCE0101960E94D52E112319F00E941E
:10318000840E4CC169E072E0CE0101960E94B32F1B
:10319000BE016F5F7F4FCE0107960E941F30182F30
:1031A000CE0101960E94D52E112319F00E94C01263
:1031B00035C163E072E0CE0101960E94B32FBE01DB
:1031C0006F5F7F4FCE0107960E941F30182FCE01F0
:1031D00001960E94D52E112339F08EED92E00E94C7
:1031E000CF0C6CE870E01AC06EEF71E0CE01019672
:1031F0000E94B32FBE016F5F7F4FCE0107960E94E2
:103200001F30182FCE0101960E94D52E112349F0B0
:103210008DED92E00E94CF0C6CE370E00E94A30C55
:10322000FDC069EF71E0CE0101960E94B32FBE018F
:103230006F5F7F4FCE0107960E941F30182FCE017F
:1032400001960E94D52E112339F08DED92E00E9457
:10325000CF0C64E670E0E2CF64EF71E0CE0101963E
:103260000E94B32FBE016F5F7F4FCE0107960E9471
:103270001F30182FCE0101960E94D52E112329F060
:1032800087E392E00E945A16C9C060EF71E0CE0158
:1032900001960E94B32FBE016F5F7F4FCE0107964C
:1032A0000E941F30182FCE0101960E94D52E1123A7
:1032B00039F08CED92E00E94CF0C0E94D60CAEC08B
:1032C0006BEE71E0CE0101960E94B32FBE016F5FDD
:1032D0007F4FCE0107960E941F30182FCE01019616
:1032E0000E94D52E112319F00E942B0D97C067EE76
:1032F00071E0CE0101960E94B32FBE016F5F7F4F38
:10330000CE0107960E941F30182FCE0101960E9411
:10331000D52E112319F00E94871280C063EE71E050
:10332000CE0101960E94B32FBE016F5F7F4FCE0189
:1033300007960E941F30182FCE0101960E94D52EAD
:10334000112319F00E94F11669C06DED71E0CE01F4
:1033500001960E94B32FBE016F5F7F4FCE0107968B
:103360000E941F30182FCE0101960E94D52E1111F8
:103370000E94E51769ED71E0CE0101960E94B32F1E
:10338000BE016F5F7F4FCE0107960E941F30182F3E
:10339000CE0101960E94D52E112339F08CED92E0DA
:1033A0000E94CF0C0E94E40F39C064ED71E0CE01A1
:1033B00001960E94B32FBE016F5F7F4FCE0107962B
:1033C0000E941F30182FCE0101960E94D52E112386
:1033D00081F08091DD02992787FD9095C0979A83AF
:1033E0008983BE016F5F7F4F84EB90E00E94CF081E
:1033F00015C06FEC71E0CE0101960E94B32FBE01A3
:103400006F5F7F4FCE0107960E941F30182FCE01AD
:1034100001960E94D52E11110E94590C6DEC71E09D
:1034200083E694E00E940A2A83E694E00E94382A08
:10343000CE0107960E94D52E2C960FB6F894DEBFCB
:103440000FBECDBFDF91CF911F91089583E694E029
:103450000E94D027892B31F080E395E70E949B17CB
:103460000C945E1808950E94AC110E94791280910C
:10347000270381110E947C0E0E94ED0E0E94261AE5
:103480000E94A11680912303909124030C940D1E99
:10349000FC0187819085009711F00C94F534089514
:1034A000FC0111821282138214821582168240E07E
:1034B00050E060EC7FE741875287638774874587D8
:1034C00056876787708B80E09081891770F4A78199
:1034D000B08594E0899FA00DB11D11241D921D920D
:1034E0001D921C9213978F5FEFCF0895CF93DF93B8
:1034F000EC01688324E0629FC00111240E945D34C6
:1035000098878F83892B09F41882CE01DF91CF91A0
:103510000C94501AAF92BF92CF92DF92EF92FF922B
:103520000F931F93CF93DF93EC016A017B010F810F
:1035300018850115110509F45FC08A81580194E0CE
:10354000899FA00CB11C1124F50120813181428199
:1035500053816B817C818D819E810E943A306B8387
:103560007C838D839E83F501C082D182E282F382C7
:10357000BA80F80184E0B89EE00DF11D112420818D
:103580003181428153816B817C818D819E810E943A
:103590003B306B837C838D839E83B394BA82088196
:1035A000B01201C01A821981111105C0CD86DE86C4
:1035B000EF86F88A0AC029853A854B855C85C70164
:1035C000B6010E949F3087FF05C0C986DA86EB8668
:1035D000FC860EC02D853E854F855889C701B601F2
:1035E0000E94EE31181624F4CD86DE86EF86F88A26
:1035F000101710F41F5F1983DF91CF911F910F9166
:10360000FF90EF90DF90CF90BF90AF900895CF9351
:10361000DF93EC016981662371F070E080E090E057
:103620000E943E319B01AC016B817C818D819E812A
:103630000E94A33004C060E070E080EC9FE7DF915F
:10364000CF9108952091D8033091D90328173907D5
:10365000B9F49091960380919703981789F0E091BF
:103660009603F0E0E856FC4F80812091960330E00D
:103670002F5F3F4F2F7333272093960390E00895D9
:103680008FEF9FEF08951F93CF93DF93DC015C963C
:103690008D919C915D97009749F481E090E013969D
:1036A0009C938E93129780E090E03BC05196ED91F1
:1036B000FC91529750962C915097322F30951FB70E
:1036C0005E964C915E9741FB772770F941FD6095BE
:1036D000F8944081772311F0422B01C043234083AB
:1036E000EC012197F1F748E0508160FF02C0522BB6
:1036F00001C053235083EC012197F1F766954150A7
:1037000099F78081772311F0832301C0822B808376
:103710001FBF5C968D919C915D970197F1F781E0B9
:1037200090E0DF91CF911F9108952091D8033091BF
:10373000D9032817390781F4909196038091970354
:10374000981751F0E0919603F0E0E856FC4F808125
:10375000992787FD909508958FEF9FEF0895209109
:10376000D8033091D9032817390771F48091970352
:103770002091960390E0805C9F4F821B910960E44A
:1037800070E00E94E833089580E090E00895209171
:10379000D8033091D9032817390739F48FB7F89433
:1037A00010929703109296038FBF0895E091D8036B
:1037B000F091D903E817F90769F4A389B4899C91BA
:1037C0008589809589238C931092D9031092D80310
:1037D00081E0089580E00895CF93DF93EC018A8D16
:1037E0009B8D892BF1F08091D8039091D9038C1790
:1037F0009D07B9F0009711F00E94D61B8E8D8E7F29
:103800008E8F1092970310929603D093D903C09392
:10381000D803EB89FC8980819D89892B808381E095
:1038200001C080E0DF91CF9108951F920F920FB6F3
:103830000F9211242F933F934F935F936F937F9336
:103840008F939F93AF93BF93EF93FF93E091D80330
:10385000F091D903309709F451C0868DA685B785BC
:10386000958581FF04C08C91892329F447C08C91F0
:10387000892309F043C0A389B4899C9185898095E7
:1038800089238C93868997890197F1F7208D318D53
:10389000A685B785758558E040E0C9010197F1F725
:1038A000842F90E095958795482F6C91672309F0B8
:1038B0004068515091F7868D81FD40958091970326
:1038C00090E001968F73992720919603281749F06D
:1038D000A0919703B0E0A856BC4F4C9380939703F8
:1038E00003C0868D8160868F828D938D0197F1F75D
:1038F000A389B4898C919589892B8C93FF91EF9141
:10390000BF91AF919F918F917F916F915F914F91F7
:103910003F912F910F900FBE0F901F90189523E4A9
:1039200032E0FC01318320830C94D61B1F93CF938C
:10393000DF93EC01162F6E8D6695617081E068272C
:10394000812F0E949A2761E0812F0E946127812F99
:1039500090E0FC01E25CF04FE491E88BFC01EE5A50
:10396000F04FE491F0E0EE0FFF1FE059F04F85912A
:1039700094919A8B898BDF91CF911F9108951F931A
:10398000CF93DF93EC01162F60E0812F0E94612717
:103990008E8D81FD04C061E0812F0E949A271C87D3
:1039A000812F90E0FC01E25CF04FE491ED87FC0197
:1039B000EE5AF04FE491F0E0EE0FFF1FEA59F04F9E
:1039C000859194919F878E87DF91CF911F91089564
:1039D000FF920F931F93CF93DF93EC01F62E522F9C
:1039E0001B821A8208EE13E020E030E00C831D8376
:1039F0002E833F8383E492E0998388831F8A1E8A03
:103A0000198E188E1B8E1A8E1D8E1C8E8E8D8E7F9B
:103A100050FB81F98E8F642FCE010E94961C6F2D72
:103A2000CE01DF91CF911F910F91FF900C94BF1C9D
:103A3000CF93DF93EC019A01AB011B8E1A8E198E86
:103A4000188E1F8A1E8A60E079E08DE390E00E9464
:103A50001E34C9012430310520F0B90163507109C9
:103A600002C061E070E07D8F6C8FEC85E63108F07C
:103A700068C0B901769567956431710518F0635196
:103A8000710902C061E070E07F8B6E8B069718F0C1
:103A9000C901059702C081E090E0998F888FC90124
:103AA000880F991F820F931F9695879596958795F6
:103AB0008D30910510F00C9702C081E090E09B8F53
:103AC0008A8F20916800E83050F091E0EE3008F4E1
:103AD00090E081E001C0880F9A95EAF701C084E088
:103AE000822B809368002C85283038F02E3040F0EF
:103AF000263148F48CE690E008C08DE690E005C0E1
:103B00008BE690E002C080E090E09C8B8B8B2830AD
:103B100030F481E001C0880F2A95EAF70DC0822FAA
:103B200090E02E3010F4089701C00E9791E001C08C
:103B3000990F8A95EAF7892F8D8B8C8D9D8D019732
:103B4000F1F7CE01DF91CF910C94EC1BFC01408387
:103B500051836283738314821582178216821086C2
:103B60001186128613860895FC0177836683089573
:103B7000CF93DF93EC010E948926688779878A8733
:103B80009B8781E08C83DF91CF910895CF92DF9264
:103B9000EF92FF921F93CF93DF93EC011C811111E1
:103BA00002C010E031C0C884D984EA84FB840E943A
:103BB0008926660F771F881F991F6C157D058E0556
:103BC0009F0520F4188619861A861B860E9489266E
:103BD000C884D984EA84FB846C197D098E099F0905
:103BE000C880D980EA80FB806C157D058E059F0515
:103BF000C0F20E948926688779878A879B878D8192
:103C0000882311F01C82182F812FDF91CF911F91F3
:103C1000FF90EF90DF90CF900895CF93DF93EC016A
:103C20000E94C61D882329F0EE81FF81DF91CF918C
:103C30000994DF91CF910895FF920F931F93CF9333
:103C4000DF93EC01F22E798368838B01000F111F43
:103C5000060F171F1B830A834C831D822B871C862C
:103C60001D861E861F8650E0FA01EE5AF04FE49141
:103C7000F0E0EE0FFF1FE059F04F85919491998B82
:103C8000888BFA01E25CF04F44914A8BC8010E9494
:103C90005D349F838E83009729F0A80160E070E077
:103CA0000E948E36F0FE04C081E0888719860BC022
:103CB000F2FE06C081E0888782E089871A8605C007
:103CC000188681E0898782E08A87DF91CF911F91F2
:103CD0000F91FF900895CF93DF93EC018E819F8128
:103CE000009711F00E94F53460E08C81DF91CF9154
:103CF0000C946127CF93DF93EC0161E08C810E94EB
:103D0000612760E08C81DF91CF910C949A27CF924C
:103D1000DF92EF92FF920F931F93CF93DF93CDB774
:103D2000DEB729970FB6F894DEBF0FBECDBF8C016A
:103D3000DC0116968D919C911797892B09F49BC0F5
:103D40000E949526F801C484D584E684F7846C1912
:103D50007D098E099F09623371058105910580F304
:103D6000F894828193819A838983A681B7817D01AA
:103D7000EFEFEE1AFE0A8C918987D8011B969C9171
:103D80001B9750960D90BC91A02DF801828991FF50
:103D90002EC09C91982B98879C91809589238F8326
:103DA0008F818E8388E08D8358856F8149853D8121
:103DB0002E8189819A81F7015C9347FD252F3A95E1
:103DC0002C93262F39F0441F00C000006C93000094
:103DD00000C0F2CF38E041916C930000019761F789
:103DE000F801B18BA08B49873D832E8338C09C910D
:103DF000982B98879C91809589238F838F818C83C2
:103E000088E08B8358856F8149853B812C8189812E
:103E10009A81F7015C9347FD252F00C000C02C93C9
:103E200000C000C000C000C000C06C930000262F7E
:103E30003A9541F0441F000000C000C000C000C01F
:103E400000C0E8CF38E0419100C06C9300C00197FA
:103E500009F7F801B18BA08B49873B832C839A83A8
:103E6000898378940E949526D8011C966D937D9342
:103E70008D939C931F9729960FB6F894DEBF0FBEC3
:103E8000CDBFDF91CF911F910F91FF90EF90DF9009
:103E9000CF900895CF92DF92EF92FF920F931F93EE
:103EA000CF93DF93FC01808191816817790788F5B2
:103EB000CA01AA27BB27082FC32ED42EE52EFF2424
:103EC0001C2DD22FC581CC2361F08C9FC001112401
:103ED000092FCC9E600111241D2D2C9F90011124CF
:103EE000D32F9B01220F331F260F371F8681978107
:103EF000820F931F2085DC01A20FB11D0C93218539
:103F0000DC01A20FB11D1C932285FC01E20FF11D03
:103F1000D083DF91CF911F910F91FF90EF90DF90B1
:103F2000CF900895962F50E060E070E0592B682BF9
:103F3000CB01BA010895FF920F931F93CF93DF93A4
:103F4000EC01FF24F394F60E2D81F21679F10E8127
:103F50001F812150B9F06F3F59F430E040E050E04C
:103F60006FEF7FEF80E090E00E941E34B9010CC03B
:103F70008F2D90E0982F88270197622F70E00E9484
:103F8000D43302C060E070E0F8018A819B81AF0108
:103F9000401B510B4817590740F44081469FC00110
:103FA000479F900D11249193F0CFFD82DF91CF9127
:103FB0001F910F91FF9008950F93FC0113AE14AE63
:103FC00015AE04960E94C9240F9108950F93FC0129
:103FD0000150040F84A996A9941718F0081728F423
:103FE00002C0081750F0041740F42150260F83A98F
:103FF00095A9961720F4281720F480E007C0281709
:1040000020F481E0261710F0F8CF81E00F91089599
:10401000DB011496ED91FC91159720E030E061E012
:104020000994DB011496ED91FC91159720E030E0A6
:1040300063E00994DB011496ED91FC91159720E063
:1040400030E040E064E00994DB011496ED91FC91CE
:10405000159720E030E041E064E00994DB0114961C
:10406000ED91FC91159720E030E062E00994DB01CE
:104070001496ED91FC91159720E030E065E00994ED
:10408000DB011496ED91FC91159766E00994AF92CF
:10409000BF92CF92DF92EF92FF920F931F93CF9335
:1040A000DF931F92CDB7DEB75C018B017A0180E010
:1040B000F7014491811109C04F3FD9F1B801C50101
:1040C0000E94372081112EC039C04F3FB9F34E3FB7
:1040D000B9F1403F38F5403E30F04F70B801C501AE
:1040E0000E942E201FC0403D30F04F70B801C50126
:1040F0000E94112017C0403CB8F0B801C5014983A7
:104100000E941A2049814295407F4E5FC42ED12CD7
:10411000C6010E945A21B801C5010E942420C6018F
:104120000E945A2180E006C047FDFCCF842F90E01A
:10413000F7CF81E0FFEFEF1AFF0ABACF80E001C0AE
:1041400081E00F90DF91CF911F910F91FF90EF9041
:10415000DF90CF90BF90AF900895860F911DFC0126
:1041600083A18F3F19F0642F0C949A270895EF9242
:10417000FF920F931F93CF93DF937C01C0E0D0E0B9
:1041800087010C0F1D1FF80183A18F3F41F061E0F3
:104190000E94612761E0F80183A10E949A2721967D
:1041A000CD30D10569F7DF91CF911F910F91FF902D
:1041B000EF9008958EBD0DB407FEFDCF8EB5089526
:1041C000CF92DF92EF92FF920F931F93CF93DF93E3
:1041D0001F92CDB7DEB76C017901062F10E0F80110
:1041E0003197E730F10508F05AC0EC5CFF4F0C94B2
:1041F0003D3449830E94B72061E08DE00E94612731
:1042000060E08DE00E949A2761E08BE00E946127C8
:1042100060E08BE00E949A2761E08AE00E946127BB
:1042200061E08AE00E949A271CBC80E58CBD498130
:104230004230A8F581E08DBD32C061E004C041117B
:1042400006C041E062E0C6010E94AD2028C040E007
:1042500064E00E94AD2040E0F5CFFC0183A18F3FD8
:10426000F1F060E0F0CF842F0E94DA2018C04423E0
:10427000B1F0F70181917F0149830E94DA204981E1
:104280004150F5CF442359F0F701849149830E94AE
:10429000DA20FFEFEF1AFF0A49814150F3CF81E0A6
:1042A0000F90DF91CF911F910F91FF90EF90DF90D2
:1042B000CF9008952EE93FE0009729F0F90131975A
:1042C000F1F70197F9CF0895BF92CF92DF92EF9265
:1042D000FF920F931F93CF93DF938C01EB01B42ECA
:1042E000790180E1481709F454C0841700F1EAE02D
:1042F0004E1721F1FFE04F1357C041E0C8010E9463
:10430000112040E0BE01C8010E942E2041E8BE01FC
:10431000C8010E943720F7014081BE01C8010E94F8
:10432000372040E0BE01C8010E9411203BC081E15E
:10433000481791F1E5E14E1761F036C042E0C8013F
:104340000E94082043EB53E0BE01C8010E944720B1
:104350002BC0CA80DB804BEA53E0C8010E94472093
:10436000F6014481406BBE01C8010E94372041E044
:10437000BE01C8010E942E20AE01B801C6010E94F4
:104380007D25882301F140E0BE01C8010E94112073
:104390000BC042EA53E002C047E953E0BE01C80146
:1043A0000E94472081E010C097014B2DBE01C8013B
:1043B000DF91CF911F910F91FF90EF90DF90CF9001
:1043C000BF900C94F52580E0DF91CF911F910F9164
:1043D000FF90EF90DF90CF90BF900895FC01E60F23
:1043E000F11D849190E0982F88273196E4918E0FEB
:1043F000911D0895FC01849108950E94FA2188235B
:1044000011F0823011F486E0089583E0089580E091
:10441000089566E00C94EE2168E00C94EE210A9673
:10442000FC01849108950B96FC0184910895BF923C
:10443000CF92DF92EF92FF920F931F93CF93DF9370
:10444000EC01E62E0C811D81C8010E94FA21F82E94
:104450008C819D810E94FD21B82E21E0F21619F079
:10446000CC24CA9402C05FE0C52E8C819D810E943D
:104470000F22F82E8C819D810E941322D82E8C81D0
:104480009D810E940C22E0E6EE1538F4009729F099
:10449000080F191F41E6F42E10C08C819D810E94E7
:1044A0000922F0E4FE1538F4009729F0080F191FCF
:1044B00031E4F32E02C00F5E1F4FDE1440F4188A61
:1044C0001B8A1C8A198A1A8A80E090E050C0DF1487
:1044D000B0F32B2D30E0F80184918F3F19F40F5F7A
:1044E0001F4F40C0FE1036C08C819D810E94FA2172
:1044F00098012F5F3F4FF801882311F0823091F42B
:1045000084918B8BF90124912C8BF8013396E491E3
:10451000E88BF8013496E491E98BF8013596E49143
:10452000EA8B16C09491892F8F7082508A8B929556
:104530009F70998BF9012491822F8F708C8B22951B
:104540002F702B8BF8013296E491E295EF70E88B97
:10455000C8010DC0F8013296E491EC210E0F111D37
:10456000020F131FFD1409F4AACFF394B4CFDF9107
:10457000CF911F910F91FF90EF90DF90CF90BF9060
:1045800008954F925F927F928F929F92AF92BF92C7
:10459000CF92DF92EF92FF920F931F93CF93DF930F
:1045A0001F92CDB7DEB72C01162F742E622F0E94FA
:1045B00017226C01009709F43EC0F20184819581B5
:1045C0000E94FD21F82EF201838804899188910EC2
:1045D0008289781A172D101B282D412F692DC201B1
:1045E0000E94E61F882321F1CF0CD11CF7E08F0E2B
:1045F000869486948694A82CB12C1715C9F0392D71
:1046000076018E2D8C19881578F4F701049120E03D
:10461000412F632FC20139830E940725FFEFEF1A54
:10462000FF0A3981385FEDCFCA0CDB1C1F5FE5CF75
:10463000F201808901C080E00F90DF91CF911F913E
:104640000F91FF90EF90DF90CF90BF90AF909F9031
:104650008F907F905F904F9008950F931F93CF930B
:10466000DF9300D01F92CDB7DEB78C01DC015596E9
:10467000ED91FC9156972B834A83698309954A8172
:10468000480F2B816981C8010F900F900F90DF9127
:10469000CF911F910F910C94C122DC0114968D9142
:1046A0009C911597009709F43FC057962C91579706
:1046B000FC01211108C03596E4915896EC93589767
:1046C000FC013C9611C0213041F43F96E49158968C
:1046D000EC935897FC01709607C03D96E49158966C
:1046E000EC935897FC013E96849159968C93599778
:1046F00058968C915897992787FD909559962C91AB
:104700005997821B910927FD93955A962C915A9798
:10471000203441F0829FC0011124E6E096958795F0
:10472000EA95E1F75B968C93089527E032E2FC016D
:10473000368B258B0895CF93DF93EC018C819D817F
:104740008617970749F07D836C83CE010E944D2325
:1047500087E092E29E8B8D8BDF91CF9108951F931E
:10476000CF93DF93EC011D821C821F821E8219866B
:1047700081E0888782E28A871F861E8680E090E03B
:104780002FEFFE01E80FF91F23A301968E3091054C
:10479000C1F711E018A3CE010E9495231F8B188E3C
:1047A000198E80E48A8F1B8E8EE396E29AAB89ABDA
:1047B000DF91CF911F910895DB01ED91FC91099458
:1047C000EF92FF921F93CF93DF9300D0CDB7DEB768
:1047D0007C01DC01D196ED91FC91D29782E0698356
:1047E0007A83099520E030E04AE069817A81C70147
:1047F0000E94DC23182FD701D196ED91FC91D2971E
:1048000083E00995D701D196ED91FC91D29780E094
:104810000995812F0F900F90DF91CF911F91FF90FD
:10482000EF9008950F931F93CF93DF93EC018B01CB
:10483000E9A9FAA982E00995E9A9FAA981E009950F
:1048400020E030E044E1B801CE010E94DC239E016B
:104850002D5C3F4F47E1B801CE010E94DC23E9A95E
:10486000FAA980E0DF91CF911F910F910994FF92F7
:104870000F931F93CF93DF93EC018B01E9A9FAA962
:1048800082E00995E9A9FAA981E0099520E030E0E4
:1048900045E1B801CE010E94DC23F82E882341F0C7
:1048A0009E012D5C3F4F47E1B801CE010E94DC2301
:1048B000E9A9FAA980E009958F2DDF91CF911F9189
:1048C0000F91FF900895CF93DF931F92CDB7DEB77E
:1048D00049839E012F5F3F4F4FE00E94DC230F90E2
:1048E000DF91CF910895CF93DF931F92CDB7DEB7BD
:1048F0009E012F5F3F4F46E40E94DC2389810F9089
:10490000DF91CF910895CF93DF931F92CDB7DEB79C
:104910009E012F5F3F4F47E40E94DC2389810F9067
:10492000DF91CF91089520E030E048E40C94DC233F
:10493000CF93DF93EC016A817B810E94732488838B
:104940006A817B81CE010E94832489836A817B8175
:10495000CE010E9493248B879E012D5C3F4F6A817C
:104960007B8147E1CE01DF91CF910C94DC23CF9383
:10497000DF93EC016A817B810E94E023882329F088
:10498000CE010E94982481E001C080E0DF91CF91A8
:104990000895CF92DF92EF92FF920F93CF93DF9320
:1049A00000D0CDB7DEB76C017B012A8349830E941A
:1049B000AF23F601F382E282498145A32A8124A331
:1049C00003A3C6010F900F90DF91CF910F91FF903D
:1049D000EF90DF90CF900C94B724FC01628173813B
:1049E0000C941224CF93DF93EC01EE85FF85309772
:1049F00009F009956A817B81CE01DF91CF910C94FA
:104A00003724462FFC01628173810C9463240F9339
:104A1000FC0182819381648F458F278F068F9F01D0
:104A2000245E3F4F4BE3BC01CF010F910C94DC237C
:104A3000FC0160A30895FC01128280818150838370
:104A400014820895FC0120818281820F82839181EA
:104A5000891760F484818F5F84838381820F891733
:104A600010F08FEF890F838381E0089580E008952F
:104A7000DC011696ED91FC91179715968C919F018C
:104A8000280F311DC9011192E817F907E1F70895C0
:104A9000FC0191E08381861708F490E021E046173D
:104AA00008F020E0322F392B81E05281451708F4BD
:104AB00080E083239223892B0895DC01FB0110827F
:104AC00012968C911297818315968C91159781502F
:104AD000828313968C9183830895FB014181238106
:104AE000213029F0233031F468EF640F04C0642FC3
:104AF000485F01C0642F0C944825FC01CB01BA012A
:104B00002681378145810C944020DC011696ED9179
:104B1000FC91179712968C91481B477081E090E0AA
:104B2000042E01C0880F0A94EAF7E60FF11D3081C8
:104B3000222311F0832B02C0809583238083089564
:104B4000FB014181DC0112962C911297421768F00B
:104B500013962C911397241740F0608115962C9191
:104B6000621718F424810C9485250895CF92DF9262
:104B7000FF920F931F93CF93DF9300D0CDB7DEB793
:104B80008C016B01FB01F2808381813039F070F080
:104B9000823039F0833041F020E001C021E030E084
:104BA00007C020E03FEF04C02FEFF9CF20E031E055
:104BB000F7FE08C0B601C80129833A830E94A025E8
:104BC0003A812981F6018081830F80838181820F60
:104BD0008183FF0C69F70F900F90DF91CF911F91A8
:104BE0000F91FF90DF90CF9008950F931F93CF9375
:104BF000DF938901FB01C281D3814233F9F068F46C
:104C0000453109F1473141F1443181F5CE010E942E
:104C10003825CE010E941B2529C0463411F14734A6
:104C200011F14B3319F5B901CE010E946D2588238E
:104C3000E9F0B801CE010E94B62518C0B901CE0135
:104C40000E94A02513C0CE010E942225882381F056
:104C5000CE010E9438250AC0B901CE010E945D250F
:104C600005C08D8101C08981F801808381E001C088
:104C700080E0DF91CF911F910F91089508951F92C9
:104C80000F920FB60F9211242F933F938F939F9300
:104C9000AF93BF9380915B0490915C04A0915D04FD
:104CA000B0915E0430915A0423E0230F2D3720F495
:104CB0000196A11DB11D05C026E8230F0296A11D76
:104CC000B11D20935A0480935B0490935C04A093DD
:104CD0005D04B0935E0480915F0490916004A091A4
:104CE0006104B09162040196A11DB11D80935F041F
:104CF00090936004A0936104B0936204BF91AF915C
:104D00009F918F913F912F910F900FBE0F901F9009
:104D100018952FB7F89460915B0470915C048091B2
:104D20005D0490915E042FBF08953FB7F894809181
:104D30005F0490916004A0916104B091620426B573
:104D4000A89B05C02F3F19F00196A11DB11D3FBFC3
:104D50006627782F892F9A2F620F711D811D911D53
:104D600042E0660F771F881F991F4A95D1F7089573
:104D7000CF92DF92EF92FF92CF93DF936B017C0192
:104D80000E949526EB01C114D104E104F10489F0DD
:104D90000E9439300E9495266C1B7D0B683E734043
:104DA00090F381E0C81AD108E108F108C851DC4F3E
:104DB000EACFDF91CF91FF90EF90DF90CF900895F1
:104DC000789484B5826084BD84B5816084BD85B5E6
:104DD000826085BD85B5816085BDEEE6F0E08081AD
:104DE00081608083E1E8F0E01082808182608083CE
:104DF000808181608083E0E8F0E080818160808351
:104E0000E1EBF0E0808184608083E0EBF0E0808182
:104E100081608083EAE7F0E0808184608083808124
:104E200082608083808181608083808180688083CC
:104E30001092C10008958E3008F08E508770209136
:104E40002A0190E4299F90011124822B80937C00F9
:104E500080917A00806480937A0080917A0086FD48
:104E6000FCCF809178002091790090E0922B0895FA
:104E7000833081F028F4813099F08230A1F00895D8
:104E80008730A9F08830B9F08430D1F48091800067
:104E90008F7D03C0809180008F778093800008957C
:104EA00084B58F7702C084B58F7D84BD08958091CD
:104EB000B0008F7703C08091B0008F7D8093B000E9
:104EC0000895CF93DF9390E0FC01E25CF04F2491D2
:104ED000FC01EE5AF04F8491882349F190E0880F4D
:104EE000991FFC01E658F04FA591B4918059904F5D
:104EF000FC01C591D4919FB7611108C0F8948C91C1
:104F0000209582238C93888182230AC0623051F4D9
:104F1000F8948C91322F309583238C938881822B47
:104F2000888304C0F8948C91822B8C939FBFDF916F
:104F3000CF9108950F931F93CF93DF931F92CDB717
:104F4000DEB7282F30E0F901E65DF04F8491F901DA
:104F5000E25CF04F1491F901EE5AF04F04910023F6
:104F6000C9F0882321F069830E9438276981E02FE6
:104F7000F0E0EE0FFF1FE059F04FA591B4919FB7FD
:104F8000F8948C91611103C01095812301C0812B8D
:104F90008C939FBF0F90DF91CF911F910F91089538
:104FA000FC01818D228D90E0805C9F4F821B9109D6
:104FB0008F7399270895FC01918D828D981731F098
:104FC000828DE80FF11D858D90E008958FEF9FEFA2
:104FD0000895FC01918D828D981761F0828DDF011B
:104FE000A80FB11D5D968C91928D9F5F9F73928FDC
:104FF00090E008958FEF9FEF08958DE699E2892B59
:1050000049F080E090E0892B29F00E946D29811100
:105010000C9400000895FC01848DDF01A80FB11DE0
:10502000A35ABF4F2C91848D90E001968F739927DE
:10503000848FA689B7892C93A089B1898C918064CB
:105040008C93938D848D981306C00288F389E02D8C
:1050500080818F7D80830895CF93DF93EC01888DCD
:105060008823C9F0EA89FB89808185FD05C0A8896C
:10507000B9898C9186FD0FC00FB607FCF5CF8081F2
:1050800085FFF2CFA889B9898C9185FFEDCFCE013C
:105090000E940B28E7CFDF91CF910895CF92DF9246
:1050A000FF920F931F93CF93DF931F92CDB7DEB77D
:1050B0006C0181E0D60158968C9358975B969C9131
:1050C0005B975C968C915C97981307C05096ED9116
:1050D000FC915197808185FD2EC0F601038D10E073
:1050E0000F5F1F4F0F731127F02EF601848DF812FA
:1050F00011C00FB607FCF9CFD6015096ED91FC9187
:105100005197808185FFF1CFC60169830E940B28EA
:105110006981EBCF838DE80FF11DE35AFF4F608368
:10512000D6015B960C935B975296ED91FC91539749
:10513000808180620CC0D6015696ED91FC91579704
:1051400060835096ED91FC915197808180648083BB
:1051500081E090E00F90DF91CF911F910F91FF9030
:10516000DF90CF900895BF92CF92DF92EF92FF929F
:10517000CF93DF93EC016A017B01B22EE889F989B4
:1051800082E08083411581EE580761057105A1F029
:1051900060E079E08DE390E0A70196010E94FC3386
:1051A0002150310941095109569547953795279561
:1051B000211580E1380798F0E889F989108260E8C4
:1051C00074E88EE190E0A70196010E94FC33215023
:1051D0003109410951095695479537952795EC8531
:1051E000FD853083EE85FF852083188EEC89FD894F
:1051F000B082EA89FB89808180618083EA89FB89AA
:10520000808188608083EA89FB89808180688083CF
:10521000EA89FB8980818F7D8083DF91CF91FF9028
:10522000EF90DF90CF90BF9008951F920F920FB62E
:105230000F9211242F938F939F93EF93FF93E091FD
:105240007304F09174048081E0917904F0917A0400
:1052500082FD12C0908180917C048F5F8F732091BA
:105260007D04821751F0E0917C04F0E0ED59FB4F92
:10527000958F80937C0401C08081FF91EF919F9175
:105280008F912F910F900FBE0F901F9018951F9226
:105290000F920FB60F9211242F933F934F935F936A
:1052A0006F937F938F939F93AF93BF93EF93FF93EE
:1052B00083E694E00E940B28FF91EF91BF91AF919C
:1052C0009F918F917F916F915F914F913F912F911E
:1052D0000F900FBE0F901F90189583E694E00E94E8
:1052E000D02721E0892B09F420E0822F0895109225
:1052F00066041092650488EE93E0A0E0B0E080932D
:10530000670490936804A0936904B0936A0483E5EA
:1053100092E0909364048093630485EC90E0909312
:10532000700480936F0484EC90E0909372048093F7
:10533000710480EC90E0909374048093730481EC8A
:1053400090E0909376048093750482EC90E09093C3
:1053500078048093770486EC90E090937A048093AD
:10536000790410927C0410927D0410927E041092B5
:105370007F04089508950E94E0260E94BA290E94A1
:10538000F212CDEFD7E20E94331A2097E1F30E9488
:10539000FD27F9CF0C945D34CF92DF92EF92FF920C
:1053A0000F931F93CF93DF936C017A01EB01E60E0D
:1053B000F71E00E010E0CE15DF0561F06991D6011F
:1053C000ED91FC910190F081E02DC6010995080F47
:1053D000191FF1CFC801DF91CF911F910F91FF905D
:1053E000EF90DF90CF9008956115710581F0DB019A
:1053F0000D900020E9F7AD0141505109461B570BB4
:10540000DC01ED91FC910280F381E02D099480E0B4
:1054100090E00895EF92FF920F931F93CF93DF9345
:105420008C01FB01C0E0D0E064917F018FEFE81AAE
:10543000F80A662361F0D801ED91FC910190F081AA
:10544000E02DC8010995C80FD91FF701EDCFCE0196
:10545000DF91CF911F910F91FF90EF9008950C94E1
:10546000F429DC01ED91FC910190F081E02D09948B
:105470006FE572E00C94F4298F929F92AF92BF92E5
:10548000CF92DF92EF92FF920F931F93CF93DF9310
:10549000CDB7DEB7A1970FB6F894DEBF0FBECDBF74
:1054A0007C01C42EE52FCB01D22E19A221E02D15AF
:1054B00010F02AE0D22E8E010F5D1F4F8D2C912C03
:1054C000A12CB12C6C2D7E2FA50194010E94FC33E0
:1054D0008C2DD29E80191124015011098A3014F4A8
:1054E000805D01C0895CF80180832115310541058B
:1054F000510521F0C22EE32FCA01E4CFB801C70144
:105500000E94F429A1960FB6F894DEBF0FBECDBF5E
:10551000DF91CF911F910F91FF90EF90DF90CF908F
:10552000BF90AF909F908F900895CF92DF92EF92AF
:10553000FF920F931F93CF93DF93EC016A017B01DE
:105540002115310579F4E881F9810190F081E02D90
:10555000642FDF91CF911F910F91FF90EF90DF901B
:10556000CF9009942A303105E9F477FF1AC06DE233
:105570000E94312A8C0144275527BA014C195D0934
:105580006E097F092AE0CE010E943C2A800F911FFC
:10559000DF91CF911F910F91FF90EF90DF90CF900F
:1055A00008952AE0B701A601CE01DF91CF911F91A6
:1055B0000F91FF90EF90DF90CF900C943C2A9A01CE
:1055C000AB01662757FD6095762F0C94952A21151F
:1055D000310541F4DC01ED91FC910190F081E02D69
:1055E000642F09940C943C2A9A01462F50E060E005
:1055F00070E00C94E72A9A01AB0160E070E00C9433
:10560000E72A4F925F926F927F928F929F92AF9212
:10561000BF92CF92DF92EF92FF920F931F93CF939F
:10562000DF93EC016A017B01B22E9A01AB01C70145
:10563000B6010E94EC32882319F062E672E027C0BE
:1056400026013701E89477F82FEF3FEF4FE75FE748
:10565000C301B2010E94EC3281110DC02FEF3FEF68
:105660004FE75FE7C301B2010E949F3018161CF498
:1056700066E672E00CC02FEF3FEF4FE75FE4C70133
:10568000B6010E94EE311816ACF46AE672E0CE0163
:10569000DF91CF911F910F91FF90EF90DF90CF900E
:1056A000BF90AF909F908F907F906F905F904F9042
:1056B0000C94F4292FEF3FEF4FE75FECC701B601E1
:1056C0000E949F3087FDE1CF20E030E0A901C701B3
:1056D000B6010E949F3087FF0AC06DE2CE010E9492
:1056E000312A8C01F7FAF094F7F8F09402C000E048
:1056F00010E0A12C60E070E080E09FE3AB1441F08B
:1057000020E030E040E251E40E94A330A394F6CFC1
:105710009B01AC01C701B6010E943B306B017C01CB
:105720000E9410312B013C010E943C319B01AC01D5
:10573000C701B6010E943A306B017C012AE0B30137
:10574000A201CE010E943C2A080F191FBB2039F08C
:105750006EE672E0CE010E94F429080F191F7B2C1F
:10576000772041F120E030E040E251E4C701B6018A
:105770000E943D326B017C010E940B314B01AA2437
:1057800097FCA094BA2C2AE030E0B501A401CE0128
:105790000E94952A080F191FC501B4010E943E31CD
:1057A0009B01AC01C701B6010E943A306B017C013C
:1057B0007A94D6CFC801DF91CF911F910F91FF90BE
:1057C000EF90DF90CF90BF90AF909F908F907F90A1
:1057D0006F905F904F9008950C94012B3F924F92E1
:1057E0005F926F927F928F929F92AF92BF92CF9271
:1057F000DF92EF92FF920F931F93CF93DF9300D02E
:1058000000D0CDB7DEB78B0129013A0190912B0171
:10581000981721F09F3F09F0DAC104C0E4E8FFE0E7
:10582000349081C080932B01E4E8FFE0E491EF3FE6
:1058300009F4CDC1E13031F1E23009F44BC0E1119E
:1058400071C014BC15BC94B5926094BD95B59160BF
:1058500095BD282F30E0F901EE5AF04FE491F0E0C9
:10586000EE0FFF1FE059F04F4591549150931005F2
:1058700040930F05F901E25CF04F249120930E054F
:10588000312C53C0109280001092810090918100C1
:105890009860909381009091810091609093810035
:1058A000282F30E0F901EE5AF04FE491F0E0EE0FCE
:1058B000FF1FE059F04F45915491509309054093D3
:1058C0000805F901E25CF04F249120930705332489
:1058D00033942BC01092B0001092B1009091B000A0
:1058E00092609093B0009091B10091609093B1005C
:1058F000282F30E0F901EE5AF04FE491F0E0EE0F7E
:10590000FF1FE059F04F4591549150930205409389
:105910000105F901E25CF04F24912093000552E06B
:10592000352E03C03E2E37FC52C161E00E94612734
:105930004801A12CB12C832D8D7F09F0C7C060E0F8
:1059400072E18AE790E0A50194010E941E34298348
:105950003A834B835C8369017A0181E0C81AD108DC
:10596000E108F1089FEFC916D104E104F10409F040
:1059700008F49AC060E472E48FE090E0A50194011D
:105980000E941E3469017A01E1E0CE1AD108E108D3
:10599000F108F2E03F1219C08FEFC816D104E104FC
:1059A000F10409F008F48AC060E970ED83E090E04A
:1059B000A50194010E941E3469017A0191E0C91A7F
:1059C000D108E108F10883E001C082E0EFEFCE16D4
:1059D000D104E104F10409F008F467C068E478EE4A
:1059E00081E090E0A50194010E941E3469017A01D2
:1059F000F1E0CF1AD108E108F1083320E1F082E0AC
:105A000038121BC09FEFC916D104E104F10409F05C
:105A100008F4DBC064E274EF80E090E0A50194013B
:105A20000E941E3469017A01E1E0CE1AD108E10832
:105A3000F10885E003C083E001C084E0FFEFCF16EA
:105A4000D104E104F10489F180F162E17AE780E0B8
:105A500090E0A50194010E941E3469017A0181E061
:105A6000C81AD108E108F108311002C084E001C071
:105A700086E09FEFC916D104E104F104B1F0A8F06B
:105A8000C980DA80EB80FC809AE0F594E794D794A3
:105A9000C7949A95D1F7E1E0CE1AD108E108F10850
:105AA000332031F087E00BC081E0332011F007C0D4
:105AB00085E095B5987F982B95BD38C082E0909190
:105AC000B100987F982B9093B10030C060E072E1F4
:105AD0008AE790E0A50194010E941E3469017A01D1
